:100000000C94B92C0C9482680C9457680C942C684E
:100010000C9401680C94D6670C94AB670C948067C1
:100020000C9455670C94EA2C0C94EA2C0C94EA2C52
:100030000C94EA2C0C94C9610C94EA2C0C94EA2CD4
:100040000C94EA2C0C94EA2C0C94EA2C0C94EA2CD8
:100050000C94EA2C0C94EA2C0C94EA2C0C943A495B
:100060000C94EA2C0C9449610C9420610C94EA2CB9
:100070000C94EA2C0C94EA2C0C94EA2C0C94EA2CA8
:100080000C94EA2C0C94EA2C0C94EA2C0C94EA2C98
:100090000C94EA2C0C94EA2C0C94EA2C0C94AD6889
:1000A0000C94EA2C0C94EA2C0C94EA2C0C94EA2C78
:1000B0000C94EA2C0C94EA2C0C94EA2C0C94EA2C68
:1000C0000C94EA2C0C94EA2C0C94EA2C0C94F76017
:1000D0000C94CE600C94EA2C0C94EA2C0C94EA2C30
:1000E0000C94EA2C285030500850105018502050D2
:1000F00038504050E35EE65ED55ED95EDF5E1D5F40
:10010000EA5EEE5EF45EF85EFC5E025F065F0A5F2A
:100110001D5F105F145F185F96669B66A066AA66F7
:10012000B4662D67BE66C666CE66D866E266EC66C5
:10013000FB6605672D670F671967236708000000D6
:10014000BE922449123EABAAAA2ABECDCCCC4C3ECC
:1001500000000080BEABAAAAAA3E00000000BF00BB
:100160000000803F0000000000084178D3BB4387B7
:10017000D1133D190E3CC3BD4282AD2B3E68EC82CB
:1001800076BED98FE1A93E4C80EFFFBE01C4FF7F50
:100190003F00000000004E414E494E495459494E1F
:1001A00046CDCCCC3D0AD7233C17B7D13877CC2BE2
:1001B000329595E6241FB14F0A000020410000C887
:1001C0004200401C4620BCBE4CCA1B0E5AAEC59D08
:1001D0007400407A10F35A00A0724E18090010A55E
:1001E000D4E80000E87648170000E40B5402000051
:1001F000CA9A3B000000E1F50500008096980000D7
:100200000040420F000000A08601000000102700FF
:10021000000000E803000000006400000000000A85
:1002200000000000000100000000002C76D888DCEF
:10023000674F0823DFC1DFAE59E1B1B796E5E3E4CC
:1002400053C63AE651997696E8E6C28426EB898C45
:100250009B62ED407C6FFCEFBC9C9F40F2BAA56FA7
:10026000A5F490055A2AF75C936B6CF9676DC11B76
:10027000FCE0E40D47FEF520E6B500D0ED902E033E
:1002800000943577050080841E080000204E0A0087
:100290000000C80C333333330F986E12831141EFD3
:1002A0008D2114893BE65516CFFEE6DB18D1844B31
:1002B000381BF77C1D901DA4BBE424203284725EA1
:1002C000228100C9F124ECA1E53D27000021002492
:1002D0000027002A002D0030003300010100000437
:1002E0000107010A01526573746F72652056616CD3
:1002F00075653A000A0A0A3D3D3D3D3D3D3D3D3DA7
:100300003D3D3D3D3D3D3D3D3D3D3D3D3D3D3D3D1D
:100310003D3D3D3D3D3D3D3D3D3D3D3D3D3D3D3D0D
:100320003D3D3D3D3D3D3D3D3D3D3D3D3D3D3D3DFD
:100330003D3D3D3D3D0A0A000A20090920205B4D54
:10034000494420245D3E20416666656374656420EF
:1003500076616C7565206F6620000A0A3D3D3D3D63
:100360003D3D3D3D3D3D3D3D3D3D3D3D3D3D3D3DBD
:100370003D3D3D3D3D3D3D3D3D3D3D3D3D3D3D3DAD
:100380003D3D3D3D3D3D3D3D3D3D3D3D3D3D3D3D9D
:100390003D3D3D3D3D3D3D3D3D3D0A005365747352
:1003A000205472697020432072616E67652000538B
:1003B00065747320547269702043206675656C20E3
:1003C0000053657473205472697020422072616E0C
:1003D0006765200053657473205472697020422051
:1003E0006675656C200053657473205472697020C3
:1003F000412072616E6765200053657473205472EA
:1004000069702041206675656C2000576865656CD1
:100410002053696D756C61746520726573697374BE
:10042000616E63652000536176656420416C6C20C9
:100430006461746120616E642072657365747469AF
:100440006E672E2E2E00536176656420416C6C2001
:10045000646174612000536176656420576F726B2C
:100460002064697374616E63652000506173736901
:100470006E672076616C756520746F2063617253BE
:10048000656E73200045435520636F727265637417
:10049000696F6E200044535420636F7272656374F9
:1004A000696F6E200056535320636F7272656374D8
:1004B000696F6E200052504D20636F7272656374D5
:1004C000696F6E2000576F726B2064697374616E80
:1004D0006365200054726176656C20646973746191
:1004E0006E63652000424E5A206675656C20004C94
:1004F0005047206675656C20004368616E67652013
:100500007472697020646174612000547269702093
:1005100074696D6520005472697020646973746138
:100520006E63652000204E6F6E65202E2E2E2053A8
:100530006F727279212000204675656C207374619A
:1005400074652069732000203E202000C2B0430063
:10055000000000004F0080200040140038CC000450
:100560009C00020001E28F0114500008200000E00E
:100570000000CF0080A00040100038C800048000B8
:10058000020001E28F01145000082000C00000208A
:100590000100107A00100200103A00D00200D00AC8
:1005A00000D00200D00200D00200D00200C8040037
:1005B000E80500E80500C80400180600F00300E0A4
:1005C00001000000003E1021B87CFC477840344018
:1005D0000441044184438443C447C44784430440E2
:1005E000F83FF81F900990098811FC3F0240024132
:1005F000C240C244E249F24DF24FF24FE2470420BA
:10060000F81F000000FC00008601003205004A09C6
:1006100000021900FE3900FE5100FE5900FE3300B1
:10062000FE1300FE2300FE4500FE8900FE0901FCCA
:100630008801FFF300000000000C122D2D120C00A9
:100640008C44CCAA8CAA86AA86440600835283A92D
:1006500083AA1F111D0E0A11171F0E1115110A0A68
:100660000404000000000000000000E01F00102053
:10067000000CC000068001FCFF00F23F01221001C7
:100680007EF801FEFF01FCFF003870000000000C46
:10069000C300068001030303000000F03F00F03CAC
:1006A00000F87F00F87F00FCFC00FCFC00FCFC0074
:1006B000FEFF01FEFF01FEFF01FFFC03FFFC03FF45
:1006C000FC03FFFC03FFFF03FEFF010000004B4D96
:1006D00048200052504D200045435520002F002057
:1006E000424C420044535420004F444F2000C2B0BB
:1006F0004300454E472000475253200057524B209D
:10070000004552524F523A2043616E6E6F7420661C
:10071000696E6420637572736F7220666F722064F5
:10072000656C6574696E67202E2E2E2E2000455252
:10073000524F523A2044454C4554452074726970DA
:10074000204320004552524F523A2044454C4554D4
:10075000452074726970204220004552524F523A2F
:100760002044454C45544520747269702041200056
:100770003E004552524F523A2054726970206375C0
:1007800072736F72206F7574206F662072616E676E
:1007900065202E2E2E2E20004E4F544943453A20E0
:1007A00044656C65746520747269702E2E2E2E203F
:1007B00000424E5A2076616C75653A20004C5047D5
:1007C0002076616C75653A20004C50472074616E4C
:1007D0006B3A20200052616E67653A20002A002A99
:1007E000002A002A0060000505060705070737559F
:1007F00000F13AF13A0107F00FC817B720070000DF
:1008000002CB00211387EE02ADE0FF07980F942280
:1008100070C1104400002222D062BFCD6230C328D4
:1008200048110EE112472886210A528CC10C64300F
:1008300003118E5002141000238A9D8E02CB0921D1
:100840004842089210822484200921483ACA911013
:1008500082248420092148420892108224841CEAC0
:10086000204842089210822484200921484208929C
:100870008E728C0FFC07A2821024210449084112B9
:1008800042908410241DE5500741CA07FE03D14061
:10089000089210822484200921483ACAA10E822499
:1008A0008420092148420892108224841CEA2847A7
:1008B00042089210822484200921484208928E72B4
:1008C000240024595D92E2CAEBB0E74717F8B468F8
:1008D00051A83A57C988521691A444200B09088B95
:1008E0001AD49EE7D8C32215B1484DA8DA5CD16569
:1008F000AE3799B99A0A55D1A42216A9883DACF30E
:100900009E066B8740162292940CA528242BD7A90B
:10091000D2B422E7C4A41EF6FC16002581DE8EFEAA
:10092000CCC460C84014329484080621823988708F
:100930000C228E60184418A328C8304651907104C8
:100940008320852948610A62948220C420C938879F
:100950004555C4A22A62117B5854452CAA2216B1CF
:10096000874555C422F6B0287B58943D2C620F8BE6
:100970003A853A4C7290B2188434E520CF408821F1
:100980008E719482180229053104520C71324F4045
:100990004E238EB48C432503614501002673DD8E02
:1009A00002CBEB98CD7B5AB4A6549DCB2C6129C9C0
:1009B000490892108224841CEB20C73AC8610F8B2F
:1009C00054C4221565918AD4642A73890C749EF3E9
:1009D0009E06B5882101618740D83110E20C843829
:1009E00004190E41864312E114443825098E4182D0
:1009F0006390E01C1BAA90752CD404E43401418B55
:100A000050CC3256242B98B9CE75AC54AD63202708
:100A100014C7E2BEAD621845A84231883190810802
:100A200025200028434F6E07CD6860843A106290FD
:100A30008318E4200639C8390E728E833A073A0EBD
:100A4000720E747650E740E70F210785CE107210C2
:100A50007420E4A0107290931CE4240739C9414E1D
:100A6000728C542CA100293D4F6E07CB6458053A77
:100A70004E7210841C042107410742D0819083A04C
:100A80001342D019420E82CEFF3B68E740C7419D1A
:100A9000E3A0CE7150063988414C629083206311E7
:100AA0002D40002A3999C6A6CBAAA0652D3085090C
:100AB000CA508A3290629406128A80842C5C644206
:100AC000CF6A58B31E34912B640109454046191969
:100AD0004A51861298C204ADA0650A002B139605F0
:100AE0002FCDE778E7873EF007BC73BCF321002CDD
:100AF0001087E2F6AAA1085C30444184220A002D46
:100B00000AD6014BCDE01FF0002E0DC7E102ABA1CC
:100B1000085C30C420002F429CAE02CB14990845DB
:100B20004D84A22642117A50D444286A22143511E9
:100B30008A9A08454D8422F4A0287A50D444286A21
:100B4000221435118A9A08454D8422F4A0287A503F
:100B5000D444286A22144501303D9D8E02CBEB9887
:100B60008D8BD694AA73958C2C6319CA5104B2103C
:100B7000812C24200D6ACF73FFFFFFBFF734A8211B
:100B8000E1688740162294A38C15C9CA75AA34ADB2
:100B9000C835F35800311B8EAE03CDE7CCA04A8A8E
:100BA00028E2031FD0C23292729CF3FFFFFFFF0FB7
:100BB000325C9D8E02CBEB98CD83D694AA73958C34
:100BC000306219CA5104B210812C24200D6ACF73EF
:100BD000BDA7410D09474382D11041B864080FA158
:100BE000C94C2842939950842633A1084D2842933A
:100BF0009950842633A1084D6642119A50842633B9
:100C0000A1084D6642119AD00FFC0722334D9D8EEC
:100C1000FECAE07F20A209456832138AD0642614F8
:100C2000A1C94C2842939950842633A18B64A2F326
:100C30001E0735882A15B148452C52117BFE5554A4
:100C4000111C3288868863254141C9600433B27221
:100C50009D2A4D0C7A0C2D1A0034479D8E02CB0A2A
:100C6000A9873D2AAA1EF6A8A87A54B47A54B47A61
:100C700054B47A54543DEC5151F5A8483912528E6F
:100C80008494231DE640883910620E8498031DE782
:100C900038C8390E728EF381FF40E4107BFE770076
:100CA00035459D8E02CBE07F20AB873DFF2388AA90
:100CB000D065B092116D6CC211ABA3846421016147
:100CC0004840DAE39EE7BCC39E3FEB3C97831AC4DF
:100CD00010812C442448198C584856AE53A56945B8
:100CE000AE99C7020036559D8E02CBEB988D8BD600
:100CF00094AA73958C2C8219CA5104B21071B42332
:100D0000200D72CE73ECF91B4AB2CE65B092116D14
:100D10006C82298A505212928504A441ED71CF73DE
:100D2000FFDED3A086046421025988508E325624F7
:100D30002BD7A9D2B422D7CC6301374D9D8E02CBDD
:100D4000E07F206350831A128E8684A321E16049DC
:100D50003818220E86D014452A42138A54144D287E
:100D6000525134A14845D1842215A1298A5484A620
:100D70002852119A50A4A26842918AA209452A4297
:100D80005314A9084D1A0038609D8E02CBEB988D44
:100D90008BD694AA73958C2C6319CA5104B2108116
:100DA0002C24200D6ACF73DF7B1AD490802C442032
:100DB0000B11CA51C68A64E53A559A5275AE921122
:100DC000A5282349894016129006B5E7B9EF3D0DD5
:100DD0006A48381822908508E5286345B2729D2A32
:100DE0004D2B72CD3C160039549D8E02CBEB988D65
:100DF0008BD694AA73958C2C6319CA5104B21081B6
:100E00002C24200D6ACF73FF39A8410D09C84A422E
:100E10009214A114466C434732731D2B29E3B0E7AB
:100E2000B3CE7339A8410C11C842448294C188855D
:100E300064E53A559A56E49A792C003A1547E81E2B
:100E4000AB62181F1842F1C1AD2270C110830000BF
:100E50003B1707E912AB62181F1842F1C1AD2270AF
:100E6000C11005118A28003C3092482FCB6F704486
:100E70002B98A19094A0E4A84E8292A342883A961F
:100E8000C18A66B063212A514A52544A292AA59040
:100E900075B4C2116F80023D105AC526CDE03FB037
:100EA0007DF0F607FE810D3E2ED2482BCB20880226
:100EB0001C5ED10C762C44292A4D292A4D21CC6860
:100EC0000533D6A11094EE282741A9842883158DD7
:100ED00070C30B22003F42DD8E02CBEB988D8BD688
:100EE00094AA73958C2C63190A4A44A2108130A8E5
:100EF00041CE79CE3BECA9A2683293A948452E7128
:100F000091EA668A2215A9873DFFDF07F78A6BDC25
:100F1000C39EAC8189060040D57391C6F6B3F90033
:100F2000993C9637FBCD0F08F103C47392D398C751
:100F3000AC652E69B10A527072929D98842724592B
:100F40004738084A45041988920A229034154420EB
:100F5000883287385065205419E82842390E420CEF
:100F6000721C741CE438E8741C743A0E3A1D079D18
:100F70008E834EC741A7E3A0D371D0E938E8741C33
:100F8000743A0E3A1D079D8E834EC741A7E3A0D346
:100F900071D0E938E8741C743A0E3A1D079D8E83AF
:100FA0008E831C07212629D051441324F481411C2F
:100FB000E8038338D2078281248F20CA098D411427
:100FC000339683B0031D29F9004B3EC0920F2CE5E8
:100FD000034BF9C05A3EA0980F24E803E50344FCF4
:100FE000C0203F20D0AF7A78DBD80100416E9D8EC3
:100FF00002CBEBB04845681A55A622D7492632B035
:101000000D3ACF712F7784C31D0169474018220E16
:101010008688831DE360C738D8311085904321E46A
:10102000504739D4510E7514241D05418839D071AB
:101030000E749C031D0739C741CC3D83911C41D4DC
:10104000418E75906321E3608740D8218E7688A316
:101050001DE26848381AE41E770042779D8E02CB65
:10106000006A93AA9075B082958C208619874AC62B
:10107000B1127130441CED104743C2D19070B823B7
:101080001CEE084743C2D1907034241C0C11C74A8F
:10109000C4A11471246568232358B9CC65B092119A
:1010A000A434E348CA3856220E8688A321E1684852
:1010B00038DCEBB9E75E0D094743C2C19270AC441E
:1010C0001C691187694646B07219EB546852500387
:1010D00000433E9D8E02CB0A998D8BD694AA7395C0
:1010E0008C2C8219095204B2908034587B9ECB9E7E
:1010F000FFFFFF7BCE7B1AD490803024200B110A97
:101100004AC622189295EB54695A916B26A2004464
:10111000399D8E02CB405A15BA0C5632A28D4D2005
:101120006811C752C2D1907034241CEEF5DCFFFF69
:10113000FF9F7B35241C0D09C752C29116B1096D62
:1011400064042B97A990B400451D9D8E02CBE07FCF
:1011500020AB873DFFFFAC75EC770E7BFEFF2C527A
:101160003FF01F880046199D8E02CBE07F20AB87A1
:101170003DFFFFAC75EC770E7BFEFFFF2C00474276
:101180009D8E02CB0A998D8BD694AA73958C2C6375
:1011900019095204B29080B0A841ED792E7BFE1F50
:1011A000AABFE7FEBDA7410D09C84A02B292A09CA2
:1011B000452CA311DBD048563073A1261CEB200729
:1011C00048159D8E02CBE078EEFFFFDFFBC0FF9E4F
:1011D000FBFFFF7B07490B87EE02ADE0FF3F3000CE
:1011E0004A279D8E02CBF6FCFFFFFFFF679DE7724B
:1011F0005083DA21908508052583110BC9CA75AA89
:1012000034ADC8351351004B8B9D8E02CBE0685036
:1012100043C2C19270AC441C0B19874AC6A110721C
:10122000A4841C28290742CC7112731CE41C2639A3
:101230004749D051907490241D2351C740D6219224
:10124000750884450C6A8F7B9CF39CD74026B2C5F9
:10125000063ACF798F7B1CD48E90B02324EC10C932
:101260003A06B28E91A88324E928483A4A820E832E
:10127000A0C324E738893910620E94942325E450E2
:10128000083954328E858C6325E26049381A128EF3
:1012900096004C149D8E02CBE0B0E7FFFFFFFFFFEE
:1012A0003FFB81FF40044D569D8E02CBE070508382
:1012B0003169C9149568C83A368315AC644337B6AA
:1012C000C0850FFC034B68821318E1884538621112
:1012D000CE48863392E18C6438E4200E3988430E80
:1012E000E294A238A5284E218C6306E398C13846C3
:1012F00038CE098E7382E33CF7FFBD034E579D8EB7
:1013000002CBE0788F7B1CD4602D621193966C4DDC
:101310006AA6A844A50AD59075AC73192720C609FA
:10132000887104521C81146720C419087106421C7C
:10133000820C8720C32189700A229C8208C720C1A1
:10134000314870CC756CA82ED1D4DC92B1B806E7C8
:101350005EEF004F3D9D8E02CBEB988D8BD694AA0D
:1013600073958C2C6319CA5104B210812C24200D62
:101370006ACF73FFFFFFBFF734A8210159884016D9
:101380002294A38C15C9CA75AA34ADC835F3580088
:1013900050469D8E02CB006A93AA90752E83958C41
:1013A00020A519475AC4B11271B0241C0D09474336
:1013B000C2E15ECF3DF76A48381A120E9684632563
:1013C000E2488B404A33328295CB58A7429382DA67
:1013D00061CFFFFF6701513D9D8E02CBEB988D8B56
:1013E000D694AA73958C2C6319CA5104B290902C90
:1013F00024200D6ACF73FFFFFFBFF734A8210159E6
:101400008840162294A38C15C90A66AE731D2B550D
:10141000EB1808527F9D8E02CB006A93AA90752E1E
:1014200083958C20A519475AC4B11271B0241C0DA4
:10143000094743C2E15ECF3DF7B8231C0D0947437E
:10144000C2C11071AC441C491948694646B07219B2
:10145000EB54A8868E73A0E320E738C839D0710E0C
:1014600084980321E648873912528E8494431DE5FF
:1014700050083914428E75906321E358C838D8312A
:101480000E86888321E26848381A128E8684C33D0E
:101490000E0153519D8E02CB0A998D8BD694AA735F
:1014A000958C2C8219CA5104B2108130A841ED7973
:1014B0002E7B58A42216A929AAD065AE4797B93E1B
:1014C0009AD4A422F6B04845ACF35C0E6A104304EB
:1014D000B210A11C6530622159B94E95A615B966A6
:1014E000220A0054159D8E02CBE07F205A483DEC25
:1014F000F9FFFFFFFFFFB70055279D8E02CBE07875
:10150000EEFFFFFFFFFFDED3A086046421025988AF
:10151000508E3256242BD7A9D2B422D7CC63015691
:101520007C9D8E02CBE0788F3BC2D1907034241C1E
:10153000ED10473B04C28E71B0631C0B19C742C645
:10154000B10E82A8A31CEA28873ACA919072A4C35C
:1015500020E838073ACE818E731CE41C07658E7430
:1015600098231DE6488739D251908410441DE458D1
:101570000739D6418E7590632102618738DA218E52
:101580007688A31DE268907B9CF3DC600B3291258A
:101590005752992A9A46918AD8430157419ACE02C6
:1015A000CDC068EDFFFF4C601A2394A60CA529431B
:1015B0006948411A52908614A419C768C6319A71B5
:1015C0008C4624A211896844229AB0840FFC7FA023
:1015D0000A39718DDBB04AAD50677614588A9D8EFA
:1015E00002CB006948381A12107608841DE358C8E7
:1015F0003816321075102421E5484841D061908397
:101600009CE3A0CC81107320A420E9284842C8A103
:101610009081AC63200B11074302D28E80B4C7BD0A
:101620009EF31AD844166C41C7BDB923200C090893
:1016300043C4C18E812864200A21873A0A8290829D
:1016400020C41C0831073A0E62908318041DE64836
:1016500008411242107590632102598840D8211028
:101660007688A3410D0159699D8E02CB00694838E7
:101670001A120E860864210259C83814420E8510C9
:1016800024210441883910620E741CC420E83008FB
:101690003A0A921082248420EA18C83A06B21071DD
:1016A000302420ED08487BDCEB35B01517B94865D0
:1016B0002A34A1484551A4A22852917A54543D2A73
:1016C0008A221545918AD4A3A228525114A9005AFE
:1016D0004B9D8E02CBE07F20AA08452A42918A507A
:1016E000A42234A1084D2852118A54842215A148FD
:1016F000452852118A54842215A148452852118A3E
:1017000054842215A148456842119A50842614A198
:1017100009452A4291FA81FF40045B18916E03CD7E
:10172000000A1FF801489DFFFFFFFFFFA90FFC40C3
:1017300016005C479CAE02CB00A1484528528F8A18
:1017400050A41E15A1484528AA221455118AAA089A
:1017500045558422F5A808452A425115A1A88A506A
:10176000544528AA221455118AD4A32214A9084545
:101770005584A22A425115A1085D14906E03CDE054
:101780000F4CE9FCFFFFFFFF2F7DE007345E1B9746
:10179000E2F2CB27690B5B56939E8304A4200321BE
:1017A0004739C6718E80A0035F0A6501EECAE03F2B
:1017B000E0016012CE82DFCBE040C739D00919C901
:1017C000848C64026160218B02D32BA94F8CDED400
:1017D000AA75A50C2D6339494A0CB210832CC41C80
:1017E000ED30473BCCD10E73B4439F32721556A9EE
:1017F0002B61283B9AD90A57947514A41D047107CC
:1018000041DC418E7790E31DE4780741DC419096FE
:101810001064296429CFF8C4373CD295491C0722AB
:10182000465AD4006241DD8E02CBE0B0E7FF478E1E
:101830007584065D062B19D1C6269AB18805252127
:1018400059484818D420E73CF7FFEF3DEE69118B6B
:101850001612169484662C6213DAC808562E738406
:10186000061D045100633D1D8B02CBEB988D8BD67A
:1018700094AA73958C2C63190A4A04B2108130A87B
:1018800041CE792E7BFEBFE7BCC73D0D0908430260
:10189000B210A1A064AC4856AE53A56945AE998874
:1018A00002006443DD8E02CBF6FCFF16320ED484B8
:1018B000C35C0523D9D0C42696D104052901594912
:1018C0004018D420E73CF7FFEF3DEE69484018127E
:1018D000909504052962198DD88646B282990B35F8
:1018E000E158073900653E1D8B02CBEB988D8BD6F6
:1018F00094AA73958C2C63190A4A04B2108130A8FB
:1019000041CE79EEDE07FE67CFB34845DA60105668
:101910009044214241C95891AC5CA74AD38A5C33B8
:101920008F05006629DD8E02CBCFA80B741CC4A4E2
:1019300035252A25423988410E724EE838873DFF09
:101940007BDAD09F3AECF9FFFFBF07006760DD8EBE
:10195000C6CA4B4295B90A46B2A113CB5886721437
:10196000912844200C6A90739EDB7BDCD3908030FE
:1019700024240A110A4AC68A64E53A559A56B420C4
:10198000F6B88422F5B0278B54854A6B4A96C14835
:101990003636B18564450D72CE73DEE39E868424AF
:1019A000296113DBC8CA75AA3435E700682ADD8EC1
:1019B00002CBE0B0E7FF478E7584065D062B19D198
:1019C000C6269AB18805252159484818D420E73CF5
:1019D000F7FFFFFFBD036922CBAE02AB62380639C9
:1019E000578A0F060E72FEFFFFFF11642024114A72
:1019F000504432107214030D6A2A9612C7CC908894
:101A0000063CDE192C3EF8CCF1CEFFFFFFFFFFF7BE
:101A10001CF418C820211189A00DA940C7494C33D6
:101A200010006B76DD8E02CBE0B0E7FFE79E868488
:101A30008325E160883856228E858C4325E348094A
:101A40003912520E94940321E63889390E720E939E
:101A50009CA324E828483A48920E82A86324EA18F6
:101A6000C83A04C28E90B023242C62D29AD4A4A87F
:101A700044A50A310141CB40CE3212A314C4A44A7A
:101A8000729082A084202919C742C6B112713044D5
:101A90001C2C094743C2E1106C1DCF8E02ADE04003
:101AA000E7FFFFFFFFFF0F210741897182239AC1E2
:101AB00090A528E8006D86338B02F7E020C73BD65F
:101AC000119AD4A0AB44061B53C942453E108D0F5A
:101AD00048A219D358C4821C9484642D0B0909535D
:101AE00018D4920639C439EF78CE3B9EF38EE7BC0A
:101AF000E339EF78CE3B9EF38EE7BCE339EF78CE47
:101B00003B9EF38EE7BCE339EF78CE3B9EF38EE746
:101B1000BCE339EF78CE3B9EF38EE7BCE339EF7838
:101B2000CE3B9EF38EE7BCE339EF78CE3B9EF38E3F
:101B3000E7BCE339EF78CE3B9EF34E6E271D8B0258
:101B4000CBE020C73A42832E83958C686313CD582F
:101B5000C48292902C24240C6A90739EFBFFFFFF9A
:101B6000DE016F3A1D8B02CBEB988D8BD694AA7356
:101B7000958C2C63190A4A04B2108130A841CE79A1
:101B8000EEFFDF7BDCD390803024200B110A4AC6A5
:101B90008A64E53A559A56E49A8928007042DD8EA7
:101BA000C6CAE020C73A42832E83958C686313CD62
:101BB00058C48292902C24240C6A90739EFBFFF7E9
:101BC0001EF7B488450B090B4A423316B1096D6400
:101BD000042B973942830E82A8C39EFFCF02714324
:101BE000DD8EC6CAEB20076AC261AE82916C686264
:101BF00013CB6882829480AC24200C6A90739EFB85
:101C0000FFF71EF73424200C09C84A828214B18CD5
:101C1000466C432359C1CC859A702C641CF6FCFF9A
:101C200000721C168B02BDE02052F8C01F6884446D
:101C3000200399C721EE78E7FFFFFF7B007342196D
:101C40008B02C3E980CC7A5274A652114B2C6111DD
:101C5000C88912A49CE55A4F44241213F8AC2845B5
:101C6000484A3105B925261189CF725B4F8212127D
:101C7000909384D5B04655A613A58731EF480074DC
:101C800022D24E02ADE458E7FF3B1FF8030239D6DB
:101C9000F9FFFFDF4294929AD218E62C4849C93ADC
:101CA0000075281D8B02CBE078EEFFFFFF7B8F7B5A
:101CB0001A12108604642541418A584623B6A19120
:101CC000AC60E6424D38D6410E766E1D8B02CBE0FD
:101CD000788F7BDC118E8684A31DE2688740D82133
:101CE00010768C6321E3580739D641107510441DD6
:101CF000E5484839D2618E7418041D0641C7390E73
:101D0000724EE8380742CC811073A4A320E92887DB
:101D10003ACAA1107228841CEB18C83AC6C18E7149
:101D200030441C0C09483B02D28E70B8231CEEF5DF
:101D30009CD7C0B6C8200077C5338B02F7E078C7C0
:101D400073DEF19E9634241C2D6948385AD20E71E8
:101D5000B4A41DE2680A3B04B296858C632D0B196E
:101D6000C75AD6418EB5AC831C8B51074152939014
:101D700072A42621E5484D3ACC919A74982339E80B
:101D800030C8790E728EF31CE49CC2710E749C23D1
:101D90001CE740C73902620E8414242005494741DC
:101DA000C451907494631CE5504739C6510E759424
:101DB0006320E450C8405BC740C83190758CA31CB9
:101DC000E360C738CA310E768CA320E26048400A2F
:101DD00012907604C41C01694738CE110E7784E353
:101DE0001CE1704738CEE39EF33C0739AF490D6CD8
:101DF00052039BD4C0263591510C020078661D8B8E
:101E000002CB007147381A1210768C6321035147B8
:101E100039125210749CE3A0CC918E8224841CEB66
:101E200018C842C4D18E80B4E739AF894C5CA63261
:101E3000938AA20955E42219D840C73DEE08084309
:101E4000C4C18E8128841CEA280842CC818E831864
:101E5000041DE6480841D4418E8508841DE268903F
:101E60003B007974DD8EC6CAE360C740143210852A
:101E7000904321E4504739D4511084140421E640A2
:101E80008839D0710E741CE41C0731083A0C820E9C
:101E900073A4C31C0929474208A20E82A8831CEB25
:101EA00020C742C6B11081B04320EC10083BC4D11A
:101EB000907034C8BD9CF35CB00599C8922BA94CB6
:101EC000154D51A4A26B42415A211216AD68490C1E
:101ED000720E5CE811017A2B1D8B02CBE07F20A2F1
:101EE000C94CA632535399693499299ACC144D663A
:101EF0008A26334593999ACA4CA3C94CE807FE0336
:101F0000117B41D430E7CAAF68C74A949216C4A087
:101F100005292A592886B0A39DFFC710763044258D
:101F20004951C942D81011962C85250D694743DACD
:101F3000F9FF1AC210965ACA62109316A5ACA41DD6
:101F4000AF007C0B47F2E3CAE0FFFF81077D43D37C
:101F500030E7CA8078464356A294B4A045290B6165
:101F6000C842D8F9FF18B210862C84254B51093B82
:101F7000E0C00E952405250959884216B20E76FE5A
:101F8000DF4229242967410B5252A2906534E201B5
:101F90007E1AA0624ACB835806424C5338D237BAD5
:101FA0000209A52CE84844130A007F07000002CB71
:101FB0000000000000D094D0BED0B2D0B8D0B6D0CF
:101FC000B4D0B0D0BDD0B52E2E2E202020202000A1
:101FD000D0BB2FD18700D18700D0BAD0BC00D0BBF6
:101FE0000034323030306B6D2028D0A1D0BBD0B55A
:101FF000D0B420D181D0BCD18FD0BDD0B020D0BD45
:10200000D183D0BBD0B8D180D0B0D0B9D182D0B537
:1020100020D0B4D0B0D0BDD0BDD0B8D182D0B529F9
:1020200000D092D18AD0B7D0B4D183D188D0BDD0DE
:10203000B8D18FD18220D184D0B8D0BBD182D18AFF
:10204000D18020D181D0B520D181D0BCD0B5D0BD38
:10205000D18F20D0BDD0B020D0BDD0B0D0B4002022
:10206000D09DD0A3D096D09DD09020D0A1D09CD090
:10207000AFD09DD09020D092D0AAD097D094D0A3AA
:10208000D0A8D095D09D2FD09CD090D0A1D09BD05F
:1020900095D09D20D0A4D098D09BD0A2D0AAD0A07B
:1020A0002000D0B520D0B7D0B020D181D0BCD18F06
:1020B000D0BDD0B0202838353030306B6D2B2900A2
:1020C000D090D0BDD0B3D180D0B5D0BDD0B0D0B637
:1020D000D0B5D0BDD0B8D18FD18220D180D0B5D0ED
:1020E000BCD18AD0BA00D090D09DD093D0A0D0954A
:1020F000D09DD090D096D095D09D20D0A0D095D016
:102100009CD0AAD09A00D097D0B0D0B4D0BDD0B8CF
:1021100020D181D0B2D0B5D182D0BBD0B8D0BDD083
:10212000B82000D09FD180D0B5D0B4D0BDD0B820D9
:10213000D181D0B2D0B5D182D0BBD0B8D0BDD0B8CB
:1021400000D09DD0B5D180D0B0D0B1D0BED182D09A
:10215000B5D189D0B020D0BAD180D183D188D0BABE
:10216000D0B020D0B23A00D098D097D093D09ED0A3
:10217000A0D0AFD09BD09020D09AD0A0D0A3D0A890
:10218000D09AD09000D09CD0BED0BBD18F20D0BFF1
:10219000D180D0BED0B2D0B5D180D0B5D182D0B5AB
:1021A0002E00D09DD0B8D0B2D0BE20D0B520D0BFA8
:1021B000D0BE2DD0BCD0B0D0BBD0BAD0BE20D0BE07
:1021C000D1822032352500D0A2D095D0A7D09DD085
:1021D0009ED0A1D0A220D097D09020D0A7D098D0C8
:1021E000A1D0A2D090D0A7D09AD09800D0BDD0B026
:1021F00020D0B4D0B2D0B8D0B3D0B0D182D0B5D086
:10220000BBD18F20D0B520D0B2D0B8D181D0BED034
:10221000BAD0B02100D0A2D0B5D0BCD0BFD0B5D1FB
:1022200080D0B0D182D183D180D0B0D182D0B02043
:1022300000D09ED09FD090D0A1D09DD09ED0A12084
:10224000D09FD0A0D095D093D0A0D0AFD092D09036
:10225000D09DD09500D0BED185D0BBD0B0D0B4D069
:10226000B8D182D0B5D0BBD0BDD0B020D182D0B54E
:10227000D187D0BDD0BED181D18200D09FD180D0B6
:10228000BED0B2D0B5D180D0B5D182D0B520D0BD2E
:10229000D0B8D0B2D0BED182D0BE20D0BDD0B00098
:1022A000D09ED0A5D09BD090D094D098D0A2D095DD
:1022B000D09BD09DD09020D0A1D098D0A1D0A2D03A
:1022C00095D09CD09000D0BFD180D0B5D0B4D0BD37
:1022D000D0B8D182D0B520D181D0BFD0B8D180D0F4
:1022E000B0D187D0BAD0B82E202000D098D0B7D0A7
:1022F000BDD0BED181D0B2D0B0D0BDD0B520D0BD80
:10230000D0B02000D0A1D09FD098D0A0D090D0A79E
:10231000D09DD09020D0A1D098D0A1D0A2D095D0DF
:102320009CD09000D0BDD0B520D0B520D180D0B009
:10233000D0B1D0BED182D0BDD0B820D0B3D180D062
:10234000B0D0BDD0B8D186D0B800D09DD0B0D0BF6D
:10235000D180D0B5D0B6D0B5D0BDD0B8D0B520D012
:10236000BED1823A2000D095D09B2E20D0A1D0980B
:10237000D0A1D0A2D095D09CD09000D0BCD0BED15E
:1023800082D0BED180D0BDD0BED182D0BE20D0BC44
:10239000D0B0D181D0BBD0BE00D09FD180D0BED034
:1023A000B2D0B5D180D0B5D182D0B520D0BDD0B813
:1023B000D0B2D0BED182D0BE20D0BDD0B000D0A18E
:1023C000D09CD090D097D09ED0A7D09DD09020D038
:1023D000A1D098D0A1D0A2D095D09CD09000D0A868
:1023E000D0BED184D0B8D180D0B0D0B9D182D0B550
:1023F00020D0B2D0BDD0B8D0BCD0B0D182D0B5D072
:10240000BBD0BDD0BE002000D097D090D09BD0953F
:10241000D094D0AFD092D090D09DD098D0AF20D0D3
:102420009FD09E20D09FD0AAD0A2D0AF0020D09D18
:10243000D0B5D0B8D0B7D0BFD180D0B0D0B2D0BD99
:10244000D0BED181D18220D0BDD0B020D0BAD18031
:10245000D183D188D0BAD0B00020D0A1D18AD0BD4C
:10246000D0BBD0B8D0B2D0BED181D18220D0B7D02D
:10247000B0D181D0B5D187D0B5D0BDD0B00020D0FB
:102480009DD0B0D0BFD180D0B0D0B2D0B5D182D0A5
:10249000B520D0BFD0BED187D0B8D0B2D0BAD0B0DE
:1024A00000D098D0B7D0BFD0BED0BBD0B7D0B2D0BC
:1024B000B0D0B9D182D0B520D181D0BFD0B8D18031
:1024C000D0B0D187D0BAD0B0D182D0B020D0B7D0E0
:1024D000B020D0BAD180D0B0D0B900D098D0B7D089
:1024E000B3D0B0D181D0B5D182D0B5D0B4D0B2D034
:1024F000B8D0B3D0B0D182D0B5D0BBD18F20D0B7B7
:10250000D0B020D0B7D0B0D0BFD0B0D0B7D0B2D03C
:10251000B0D0BDD0B52E00D0A0D095D097D0A3D04C
:102520009BD0A2D090D0A200D09AD09ED09DD0A116
:10253000D0A3D09CD090D0A6D098D0AF00D09ED0C1
:1025400094D09ED09CD095D0A2D0AAD0A000D09EEE
:10255000D091D09ED0A0D09ED0A2D09820D0922052
:10256000D09CD098D09D2E00D0A1D09AD09ED0A043
:10257000D09ED0A1D0A220D09DD09020D09AD09E25
:10258000D09BD09020535045454400D098D0B7D030
:10259000BFD0BED0BBD0B7D0B2D0B0D0B9202252BD
:1025A0003C2220D0B7D0B020D0BFD180D0BED0BC8C
:1025B000D18FD0BDD0B000D098D0B7D0BFD0BED0D2
:1025C000BBD0B7D0B2D0B0D0B92022533C2220D05B
:1025D000B7D0B020D0BDD0B0D0B2D0B8D0B3D0B08A
:1025E000D186D0B8D18F2000D09DD0B0D182D0B8C4
:1025F000D181D0BDD0B5D182D0B52022533C22208C
:10260000D0B7D0B020D0BFD180D0BED0BCD18FD079
:10261000BDD0B00041726475696E6F4D494420D0E1
:10262000B2D0B5D180D181D0B8D18F2000D097D091
:10263000B020D0BDD0BED0B2D0B820D0B2D0B5D1AD
:1026400080D181D0B8D0B83A207777772E67697477
:102650002E696F2F76486C6B6400D097D0B0D0B4E1
:10266000D180D18AD0B6D182D0B5203E5220D0B808
:1026700020D0BDD0B0D182D0B8D181D0BDD0B5D11D
:1026800082D0B520D181D0BFD0B8D180D0B0D18791
:10269000D0BAD0B0D182D0B02000D097D0B020D066
:1026A000BDD183D0BBD0B8D180D0B0D0BDD0B52003
:1026B000D0BDD0B020D0BFD18AD182D183D0B2D00A
:1026C000B0D0BDD0B5D182D0BE00D097D090D0923E
:1026D000D09ED094D0A1D09AD09800D0A2D095D03E
:1026E0009AD0A3D0A9D09E00D09DD090D0A1D0A246
:1026F000D0A0D09ED099D09AD09800D098D09DD01C
:10270000A1D0A2D0A3D09CD095D09DD0A2D098002B
:10271000D09ED0A2D09DD09ED0A1D09DD09E00D0E2
:102720009ED091D0A1D09BD0A3D096D092D090D063
:102730009DD09500D093D09ED0A0D098D092D0902C
:1027400000D09FD0AAD0A2D0A3D092D090D09DD0BC
:1027500098D0AF00D09DD090D0A7D090D09BD09EE5
:1027600000D098D0B7D0B3D0BED180D0B5D0BBD038
:10277000B800D098D0B7D0BDD0BED181D0B5D0BD33
:10278000D0B800D09FD0BED0B42032352500D09430
:10279000D0BED0B1D180D0B500D09DD0B8D0B2D00D
:1027A000BE20D0BCD0BED182D0BED180D0BDD0BEE4
:1027B0002020D0BCD0B0D181D0BBD0BE3A2000D038
:1027C000A2D0B5D187D0BDD0BED181D18220D0B723
:1027D000D0B020D187D0B8D181D182D0B0D187D02C
:1027E000BAD0B83A2000D09ED185D0BBD0B0D0B4FA
:1027F000D0B8D182D0B5D0BBD0BDD0B020D182D09E
:10280000B5D187D0BDD0BED181D1823A2000D09F32
:10281000D180D0B5D0B4D0BDD0B820D0BDD0B020FC
:10282000D181D0BFD0B8D180D0B0D187D0BAD0B804
:102830003A2000D09FD180D0B5D185D0BED0B42071
:1028400000D0B4D0BE20D181D0BBD0B5D0B4D0B2EE
:10285000D0B0D189D0B8D18F20D0BFD18AD1822138
:1028600000006128412833280E28E627BF27992732
:102870008E278327722761275427412734271F2754
:102880001027FB26E826DB26CA269A265A262D265E
:102890001426E825B7258B2568254E253D252825B6
:1028A0001725DB24A1247E2459242D240824062462
:1028B000DE23BE2399237B2366234A232423042378
:1028C000EB22C622A0227B22552231221522EC21A6
:1028D000C721A22185216721412123210621E6204C
:1028E000C020A2205F202120E11FDE1FD91FD61F9C
:1028F000D01FB51F1800300060006C00E600F30226
:10290000BF038F03C701D600E00070003002300320
:10291000F803EC0136001B000D000700000000006A
:1029200000000000000000000000000000000000A7
:102930000000000000000000000000000000000097
:102940000000000000000000000000000000000087
:102950000000000000000000000000000000000077
:102960000000000000000000000000000000000067
:1029700000000000000000000000E0FF0700000071
:102980000000000000E0FF07000000000000000061
:10299000E0FF07000000000000000080C30100000D
:1029A00000000000000080C30100000000000000E3
:1029B0000080C30100000000F8FFFFFFFFC37F009D
:1029C000000000F8FFFFFFFFC37F00000000F8FFDA
:1029D000FFFFFFC37F00000000F8FFFFFFFFC37F82
:1029E00000000000380000000000780000000038FF
:1029F000000000000078000000803F0000000000A0
:102A000078000000803F0000000000780000008097
:102A10003F000000000078000000803F0000000040
:102A200000780000000000000000000078000000B6
:102A30000000000000000078000000803F0000005F
:102A4000000078000000803F0000000000780000D7
:102A500000803F000000000078000000803F000080
:102A6000000000780000000038000000000078003E
:102A7000000000380000000000780000000038006E
:102A8000000000007800000000380000000000781E
:102A9000000000003800000000007800000000384E
:102AA0000000000000780000000038000000000076
:102AB00078000000003800000000007800000000EE
:102AC0003800000000007800000000380CC000044E
:102AD000407800000000381EE0010EE078000000A1
:102AE00000383FF0031FF07900000000B87FF8873E
:102AF0003FF87B00000000F8FFFFFFFFFF7F0000B2
:102B00000000F8FFFFFFFFFF7F00000000F8FFFF5D
:102B1000FFFFFF7F00000000F8FFFFFFFFFF7F00C7
:102B2000000000F8FFFFFFFFFF7F00000000F8FF3C
:102B3000FFFFFFFF7F00000000F8FFFFFFFFFF7FA8
:102B400000000000F8FFFFFFFFFF7F00000000F81B
:102B5000FFFFFFFFFF7F00000000F8FFFFFFFFFF08
:102B60007F00000000F8FFFFFFFFFF7F0000000074
:102B7000F8FFFFFFFFFF7F000000000000000000E3
:102B80000000000000000000000000000000000045
:102B90000000000000000000000000000000000035
:102BA0000000000000000000000000000000000025
:102BB0000000000000000000000000000000000015
:102BC0000000000000000000000000000000000005
:102BD000000000000000000000000000560000009F
:102BE00000000000000000000000000000000000E5
:102BF00000000000000000000000000000000000D5
:102C000000000000000000000000000000000000C4
:102C100000000000000000000000000000000000B4
:102C200000000000000000000000000000000000A4
:102C30000000000000000000000000000000000094
:102C40000000000000000000000000000000000084
:102C5000000000000000000000F07F0000C0FF0145
:102C600000000000F07F0000C0FF0100000000F045
:102C70007F0000C0FF0100000000F07F0000C0FFE7
:102C80000100000000F07F0000C0FF01000000FE16
:102C9000FFFFFFFFFFFFFF1F0000FEFFFFFFFFFF23
:102CA000FFFF1F0000FEFFFFFFFFFFFFFF1F0000F1
:102CB000FEFFFFFFFFFFFFFF1F0000FEFFFFFFFF04
:102CC000FFFFFF1F0000FEFFFFFFFFFFFFFF1F00D2
:102CD000003E000000000000001F00003E00000059
:102CE000000000001F00003E000000000000001F68
:102CF00000003E000000000000001F00003E000039
:102D000000000000001F00003E0000000000000066
:102D10001F00003E000000000000001F00003E00F9
:102D2000000000001E001F00003E00000000001E0A
:102D3000001F00003E00000000001E001F00003EBB
:102D400000000000001E001F00003E000000000008
:102D50001E001F00003EF8FF0000F0FF031F0000F0
:102D60003EF8FF0000F0FF031F00003EF8FF0000E8
:102D7000F0FF031F00003EF8FF0000F0FF031F00FC
:102D8000003E00000000001E001F00003E0000008A
:102D900000001E001F00003E00000000001E001F7B
:102DA00000003E00000000001E001F00003E00006A
:102DB0000000001E001F00003E0000000000000098
:102DC0001F00003E000000000000001F00003E0049
:102DD0000000000000001F00003E00000000000096
:102DE000001F00003E000000000000001F00003E29
:102DF000000000000000001F0000FEFFFFFFFFFFBB
:102E0000FFFF1F0000FEFFFFFFFFFFFFFF1F00008F
:102E1000FEFFFFFFFFFFFFFF1F0000FEFFFFFFFFA2
:102E2000FFFFFF1F0000FEFFFFFFFFFFFFFF1F0070
:102E300000FEFFFFFFFFFFFFFF1F0000000000007C
:102E40000000000000000000000000000000000082
:102E50000000000000000000000000000000000072
:102E60000000000000000000000000000000000062
:102E70000000000000000000000000000000000052
:102E80000000000000000000000000000000000042
:102E90000000000000000000000000000000000032
:102EA0000000000000000000000000000000000022
:102EB0000000000000000000000000000000000012
:102EC0000000000000000000000000000000000002
:102ED00000000000000000000000000000000000F2
:102EE00000000000000000000000000000000000E2
:102EF00000000000000000000000000000000000D2
:102F0000000000000000000000000000000000C001
:102F1000FF030000000000001E00C0FF07000000CB
:102F2000000000FE00C0FF07000000600000FF0777
:102F3000C0FF07000000FC0000FF3FC0FF030000CF
:102F400080FF0000FFFF00FE000000C0FF0080DFE8
:102F5000FF03FE000000FCFF00801FFF03FE0000D7
:102F600080FF7F00800FFCFFFF7F00F0FF0F00C09D
:102F70000FE0FFFFFF01FEFF0300C03FE0FFFFFF88
:102F8000C3FFFF0300C0FFE0FFFFFFFBFFFF0100E7
:102F9000C0FFF3FFFFFFFFFFFE000000FFFFFFFF8A
:102FA000FFFF0F7F000000F8FF070080FF813F0058
:102FB0000000C0FF0700003F801F00000000FE0768
:102FC000000006C00F00000000F007000000E0074E
:102FD00000010000E007000000F00300010000E035
:102FE00007000000F80380030000E007000000FC79
:102FF0000180030000E007000000FC0080030000E7
:10300000E007000000FE00C0070000E0070000002D
:103010007F00C0070000E0070000803F00C00700FD
:1030200000E0FFFFFFFF1F00C0070000E0FFFFFF01
:10303000FF0F0080030000E0FFFFFFFF070000001C
:103040000000C0FFFFFFFF030000000000C0FFFF03
:10305000FFFF03000000000000000000000000006F
:103060000000000000000000000000000000000060
:103070000000000000000000000000000000000050
:103080000000000000000000000000000000000040
:103090000000000000000000000000000000000030
:1030A000000000000000000000000000000000F030
:1030B000017C001FC007F0010000FC0FFFC3FFF000
:1030C0003FFC0F0000FFFFFFFFFFFFFFFF3F00007F
:1030D000FFFFFFFFFFFFFFFF3F0000FFFFFFFFFFBE
:1030E000FFFFFF3F0000FFFFFFFFFFFFFFFF3F006D
:1030F0000007F0017C001FC0073000000000000046
:1031000000000000000000000000000000000000BF
:1031100000000000000000000000000000000000AF
:10312000000000000000000000000000000000009F
:10313000000000000000000000000000000000008F
:10314000000000000000000000000000000000007F
:10315000000000000000000000000000000000006F
:10316000000000000000000000000000000000005F
:10317000000000000000000000000000000000004F
:10318000000000FCFF000000000000000000FEFF47
:10319000010000000000001800FEFF0160000000B8
:1031A00000003C001EE001F000000000007E001E58
:1031B000E001F80100000000FC001EE001FC00003E
:1031C000000000F8011EE0017E0000000000F00396
:1031D0003EF0013F0000000000E001FEFF011E0084
:1031E00000000000C000FEFF010C00000000000015
:1031F000C0FFFF0F00000000000000E0FFFF1F0005
:10320000000000000000F0FFFF3F00000000000091
:1032100000F81FE07F00000000000000FC0780FFB6
:1032200000000000000000FC0100FE0000000000A3
:103230000000FE0000FC010000000000007F000311
:10324000F8030000000000003F8007F003000000CA
:103250000000801FC00FE0070000000000801FC0BA
:103260000FE0070000000000C00FC00FC00F0000FB
:10327000000000C00FC00FC00F0000000000C00F12
:103280008007C00F00000000FFC1078007800FFE0D
:10329000030000FFC1078007800FFE030000FFC18D
:1032A000078007800FFE030000FFC1070003800FA7
:1032B000FE030000FFC1070003800FFE03000000B3
:1032C000C0070003800F0000000000C00F0003C013
:1032D0000F0000000000C00F0003C00F000000003E
:1032E00000800F0000C0070000000000801F0000E9
:1032F000E0070000000000001F0000E003000000E5
:103300000000003F0003F0030000000000007E000A
:1033100003F801000000000000FE0000FC010000B6
:1033200000000000FC0300FF00000000000000F8A7
:103330000FC07F00000000000000F03FF03F0000E1
:103340000000000000F0FFFF3F0000000000004010
:10335000C0FFFF0F080000000000E000FFFF031C9B
:103360000000000000F001FEFF013E000000000030
:10337000F801E01F007E0000000000FC00000000DB
:10338000FC00000000007E00000000F801000000CA
:10339000003E00000000F001000000001C000000E2
:1033A00000E000000000000800800700400000006E
:1033B0000000000080070000000000000000008006
:1033C000070000000000000000008007000000006F
:1033D0000000000000800700000000000000000066
:1033E00080070000000000000000008007000000CF
:1033F0000000000000008007000000000000000046
:103400000080070000000000000000000000000035
:1034100000000000000000000000000000000000AC
:10342000000000000000000000000000000000009C
:10343000000000000000000000000000000000008C
:10344000000000000000000000000000000000007C
:10345000000000000000000000000000000000006C
:10346000000000000000000000000000000000005C
:1034700000000000000000000000F0FF000000005D
:103480000000001800FEFF078001000000003C80E3
:10349000FFFF1FC003000000007CE0FFFF7FE00390
:1034A000000000003EF8FFFFFFC107000000001F02
:1034B000FC1F80FF830F000000801FFE0300FC87BD
:1034C0001F000000800FFE0100F8071F000000C071
:1034D000077F0000E00F3E000000C0873F000FC0E4
:1034E0001F3E000000E0C31F000F803F7C00000073
:1034F000E0C30F000F003F7C000000F0E107000F69
:10350000007EF8000000F0E103000F007CF80000EE
:1035100000F8F003000F00FCF001000078F001005B
:103520000F00F8E001000078F800000F00F0E10162
:10353000000078F800000F00F0E101000078F800CA
:10354000000F00F0E101000038F800000F00F0C1AA
:103550000100003C7800000F00E0C10300003C784F
:1035600000000F00E0C10300003C7800000F00E005
:10357000C10300003C7800000F00E0C10300003CE4
:103580007800000F00E0C10300003C7800000F004D
:10359000E0C10300003C7800000F00E0C103000020
:1035A0003CF800000F00F0C10300003CF800000FE1
:1035B00000F0C103000038F800000F00F0C1010066
:1035C0000078F800000F00F0E101000078F0010041
:1035D0000000F8E001000078F001000000F8E001D0
:1035E0000000F0F003000000FCF0000000F0E10734
:1035F0000006007EF8000000F0E107000F007EF8F2
:10360000000000E0C30F801F003F7C000000E0834B
:103610001F801F801F7C000000C0873F000FC01F5D
:103620003E000000C0077F0006E00F3E000000C023
:103630000FFE0100F8073F000000801FFC0700FE9E
:10364000831F000000003FF87FE0FFC10F00000073
:10365000003EF0FFFFFFC007000000007CC0FFFF3E
:103660003FE003000000003880FFFF1FC0010000A2
:1036700000001800FCFF0380010000000000008033
:103680001F0000000000000000000000000000001B
:10369000000000000000000000000000000000002A
:1036A000000000000000000000000000000000001A
:1036B000000000000000000000000000000000000A
:1036C00000000000000000000000000000000000FA
:1036D00000000000000000000000000000000000EA
:1036E00000000000000000000000000000000000DA
:1036F00000000000000000000000000000000000CA
:1037000000000000000000000000000000000000B9
:1037100000000000000000000000000000000000A9
:1037200000000000001F00000000000000000080FA
:103730003F000000000000000000803F000000008B
:103740000000000000803F000000000000000000BA
:10375000803F000000000000000000803F000000EB
:10376000000000000000803F00000000000000009A
:103770000080FFFF030000000000000080FFFF0347
:103780000000000000000080FFFF030000000000B8
:10379000000080FFFF0300000000000000803F00E9
:1037A0000000000000000000803F0000000000005A
:1037B000000000803F000000000000000000803F8B
:1037C00000000000000000000080FFFF0300000078
:1037D0000000000080FFFF030000000000000080E8
:1037E000FFFF030000000000000080FFFF03000057
:1037F0000000000000803F0000000000000000000A
:10380000803F000000000000000000803F0000003A
:10381000000000000000803F0000000000000000E9
:1038200000803F00000000000000000080FFFF0358
:103830000000000000000080FFFF03000000000007
:10384000000080FFFF030000000000000080FFFF79
:103850000300000000000000803F000000000000A6
:10386000000000803F000000000000000000803FDA
:10387000000000000000000000803F000000000089
:1038800000000000C07F000000000000E07C00C0DD
:103890007F00C0E7000000FCFF07E0FF00FCFF071F
:1038A0000000FCFF7FE0FFC0FFFF070000FCFFFF00
:1038B000E0FFE0FFFF070000F88FFFC07FE03FFE62
:1038C0000300000000F8C07FE003000000000000DB
:1038D00000803F000000000000000000000E00001B
:1038E00000000000000000000000000000000000D8
:1038F00000000000000000000000000000000000C8
:1039000000000000000004000000000004000000AF
:10391000001E001E000F000F000000003E807FC050
:103920003F800F00000000FCE0FFFFFFE007000009
:103930000000F8FFFFFFFFFF0300000000F0FFF3AF
:10394000FFF9FF0100000000C07FC07FC07F0000C2
:10395000000000001F803F001F000000000000006A
:10396000000E000000000000000000000000000049
:103970000000000000000000000000000000000047
:103980000000000000000000000000000000000037
:103990000000000000000000000000000000000027
:1039A0000000000000000000000000000000000017
:1039B0000000000000000000000000000000000007
:1039C0000000000000000000000000000000707017
:1039D000000000000000000008707080000000007F
:1039E0000000001C78F0C0010000000000003E3C18
:1039F000E0E1030000000000003C3CE0E1010000C9
:103A0000000000007C1EC0F30100000000000078F0
:103A10001EC0F300000000000000F00F807F0000D7
:103A20000000000000F00F807F000000000000F0A8
:103A3000FF0700FF7F0000000000F8FF0300FEFF0B
:103A40000000000000F8FF0300FEFF00000000007F
:103A5000F0FF0700FF7F0000000000008007000F5C
:103A600000000000000000000F80070000000000C0
:103A70000000000F800700000000000000001EC0D2
:103A80000300000000000003001EC0030006000049
:103A9000008003003CE001000E0000008007007C75
:103AA000F001000F000000000F0078F00080070018
:103AB0000000000F00F8F8008007000000001F0061
:103AC000F07800C007000000001E00F07D00C00379
:103AD000000000003E00E03F00E003000000003C6A
:103AE00000E03F00E001000000007C00C01F00F08B
:103AF00001000000F8FFFFFFFFFFFFFF000000F8DC
:103B0000FFFFFFFFFFFFFF000000F8FFFFFFFFFFC9
:103B1000FFFF000000F8FFFFFFFFFFFFFF000000B6
:103B2000007C00E03F00F001000000003E00E03FAC
:103B300000E003000000001E00F07D00C003000054
:103B400000001F00F07800C007000000000F0078A0
:103B5000F0008007000000800F0078F000800F0068
:103B600000008007003CE001000F000000C00300DF
:103B70003EE003001E0000008001001EC003000C98
:103B80000000000000000F8007000000000000009F
:103B9000000F8007000000000000008007000F00F9
:103BA000000000000000C007001F0000000000002F
:103BB000F8FF0300FEFF0000000000F8FF0300FE16
:103BC000FF0000000000F8FF0300FEFF00000000FF
:103BD0000000F80700FF00000000000000F80700E8
:103BE000FF00000000000000780F80F700000000D8
:103BF0000000003C0E80E3010000000000003C1EBD
:103C0000C0E3010000000000001E3CE0C103000012
:103C1000000000001E3CE0C1030000000000000C9A
:103C200078F080010000000000000038E000000093
:103C30000000000000001040000000000000000034
:103C40000000000000000000000000000000000074
:103C50000000000000000000000000000000000064
:103C60000000000000000000000000000000000054
:103C70000000000000000000000000000000000044
:103C80000000000000000000000000000000000034
:103C90000000000000000000000000000000000024
:103CA0000000000000000000000000000000E00133
:103CB000003C00000000000000FC39E0FC010000B6
:103CC00000000000FE79F0FC03000000000000FF8F
:103CD000F9F8FC070000000000001FF8FDC0070015
:103CE000000000000006F07F00030000000000401C
:103CF00000C01F00100000000000E001C01F003CD9
:103D00000000000000E001800F003C000000000007
:103D1000E0010007003C0000000000F0000000008F
:103D2000780000000000F000800F00780000000024
:103D3000000000800F000000000000000000C01F15
:103D4000000000000000000080FFFF0F00000000E6
:103D5000000000F8FFFFFF00000000000000FEFF71
:103D6000FFFF030000000000C0FF9FCFFF1F000007
:103D7000000000F0FF800FF87F0000000000F80F47
:103D8000000780FF0000000000FE03000000FE03AB
:103D9000000000007F00000000F007000000C03FAE
:103DA00000800F00E01F000000E00F00800F008087
:103DB0003F000000F00300800F00007E000000F8CC
:103DC0000100800F0000FC000000FC0000800F00DC
:103DD00000F80100007C0000800F0000F0010000EE
:103DE0007C0000800F0000F0010000FC0000800F4C
:103DF0000000F8010000F80100800F0000FC000046
:103E000000F00300000000007E000000E00700005A
:103E10000000003F000000C00F00800F00801F0066
:103E20000000801F00800F00C00F000000003F0056
:103E3000800F00E007000000007E00800F00F0030C
:103E400000000000FC00800F00F80100000000F8F6
:103E500001000000FC0000000000F0030000007EF4
:103E60000000000000E007800F003F00000000009D
:103E7000C00FF8FF801F0000000000801FFEFFC37E
:103E80000F000000000000BFFFFFEF070000000070
:103E90000000FEFFF8FF03000000000000FC0F80A0
:103EA000FF01000000000000F80300FE0000000019
:103EB000000000F001007C00000000000000E000B5
:103EC00000380000000000000000000000000000BA
:103ED00000000000000000000000000000000000E2
:103EE00000000000000000000000000000000000D2
:103EF00000000000000000000000000000000000C2
:103F000000000000000000000000000000000000B1
:103F100000000000000000000000000000000000A1
:103F200020002300260029002C002F003200000171
:103F3000000003010601090105050505070508083C
:103F40000808020202020A0A080804040404010123
:103F50000101010101010303030303030303040738
:103F600007070C0C0C0C0C0C0C0C020202020606CF
:103F70000606060606060B0B0B0B0B0B0B0B0102C2
:103F8000102020080810204010204080020102016B
:103F90000804020101020408102040808040201023
:103FA000080402018004020180402010080402017C
:103FB00008040201010204081020408001020408E4
:103FC00010204080002C122925120D00204552524D
:103FD0004F523A2043616E6E6F74207265736F6C3E
:103FE0007665207469746C6520696E64657800007C
:103FF0005EBCE2613FDD83C29C7E20A3FD1F419D2C
:10400000C3217FFCA2401E5F01E3BD3E6082DC2332
:104010007D9FC1421CFEA0E1BF5D0380DE3C62BE0D
:10402000E0025CDF81633D7C22C09E1D43A1FF4610
:1040300018FAA427799BC584DA3866E5BB5907DBF3
:10404000856739BAE406581947A5FB7826C49A65EE
:104050003BD987045AB8E6A7F91B45C6987A24F8D5
:10406000A6441A99C7257B3A6486D85B05E7B98CC4
:10407000D2306EEDB3510F4E10F2AC2F7193CD11C3
:104080004FADF3702ECC92D38D6F31B2EC0E50AF9A
:10409000F1134DCE90722C6D33D18F0C52B0EE32A5
:1040A0006C8ED0530DEFB1F0AE4C1291CF2D73CA80
:1040B000947628ABF517490856B4EA6937D58B577B
:1040C00009EBB536688AD495CB2977F4AA4816E966
:1040D000B7550B88D6346A2B7597C94A14F6A8745D
:1040E0002AC896154BA9F7B6E80A54D7896B35B795
:1040F00000030304040304051210FCFD09FD0AFE7D
:104100000187031909B0200500C4092107A2C48949
:104110002702220843ED8A889600231397C4BB48E0
:10412000301239458291D02531128CC4002413B647
:10413000BCBB184512998468C459441489104300C3
:10414000251498C41C51965048288903C211A128EF
:1041500025942401260F97441C922C229E49453514
:104160009AA402270641ED0902280CC4342A894882
:1041700022D29B4826290DC4330A994826D28B485F
:1041800022022A0C55E5AB949451241489002B0A81
:1041900055D5AB60A8140C012C0842B4098A040060
:1041A0002D0614DC0A022E0622C409022F0BB43C91
:1041B0002A2D225D444A00300B96C41B8A889F2416
:1041C0001400310893C5AB48451F320B96C41B4AF7
:1041D0004CA84D9B01330E96C41B4A4CA83415CEF7
:1041E000241400341097C44BA9701611854421C9BA
:1041F000512A01350F96C42B924C480A0985330980
:104200000500360C96C43B6D151127090500370EC5
:1042100097C48BA35428154A85522100380E96C4A2
:104220001B8A8849421131492800390C96C41B8ADF
:10423000889384A611003A0762C40922013B0882D0
:10424000B4092245023C0955D5CB90442A0D3D07BF
:1042500034DD0B22013E0955D58BA88A28083F0F73
:10426000A5449B4948A63419C9213211004020CCED
:10427000ACCEAA521C120A4D42A29848128C498216
:1042800031494C14094D6671482C2A2D0241109970
:10429000C4CC38603C95082532A58B942A420D97F2
:1042A000440C8B8CED24633B4400430C97442C92CC
:1042B0006CAAB32C4401440C98C40C934C22E49B8C
:1042C000C404450B96C48B4350B1225434460B961C
:1042D000C48B4350B122D408470F98C4AC9270AC41
:1042E00064244A64A20A00480B98C40C21C7439175
:1042F000A300490792C48907024A0894C42AFD54BE
:10430000014B1198C40C214D225291112532919AE2
:1043100044284C0896C40BA17E344D159BC4AD684F
:1043200050265BA2902824C94469441AD162024EE7
:104330000F99448D30B568A38848129AB12A4F0D61
:104340009944AD9A8A9457894C5602500B96C48B67
:104350008A88E922D408510FB934AD9A8A945789D2
:104360004C56141F02521197448C928A4822929400
:10437000242215914426530D96C41B8A6C3824AE12
:10438000492800540996C40B93503F01550C98C41A
:104390000C213F4A44321200561299C40C2955226E
:1043A00013C9548412E9780E080257189B440E5919
:1043B0008C3492482622C94476884D8693692C1CF9
:1043C0008B01581099C40CA944A6221DAF4A642A37
:1043D0005201590D98C40CA144A48D2AD60D005A3F
:1043E0000C98C49CABB254592A3D045B08A33C8A88
:1043F0008A7E195C0CB53B0A9950A636D328135D0A
:1044000008A33C8A897E295E0B5564AB5824144965
:1044100093055F0617B48B03600723FD0A910061C3
:104420000966459C254E9202620CA6450CA1C68ADF
:1044300088D30500630964459BCA482532640AA6EF
:10444000454C5D4E9C2405650A65C59B89846211B7
:1044500012660CA5C43A919A8824D30900670C9679
:104460002D9C254E92E2684201680BA6450CA1C620
:104470008A882701690892C409D2A1006A0AC4ABDC
:10448000296591BE28016B0DA6C50BA14E140949E3
:10449000A293006C07A2C48907036D0E68C58D8BBB
:1044A0000A454291502414056E0966458C8A882776
:1044B000016F0A66451C8A88938402700C962D8CC5
:1044C000C844C4E9225404710A962D9C254E92A238
:1044D00006720A64C50A0945A40900730964459B6C
:1044E000D2520500740B85C4AA98A822D32801755E
:1044F0000966450C114F9202760D67C40B99444929
:10450000221B4E6300771069440D518832919C261E
:104510003389301602780C67C40B99446D3893A820
:1045200009791097AC0B99442451A30D87C2A110AF
:10453000007A0966C40B9BA24C667B0CC4B42A8922
:10454000488B4CA49B007C07D1AD8983017D0DC4B1
:10455000B40A99489B44A48B08007E0826DC1B9172
:104560000A00A00500C409A10892AC09D2A100A2CA
:104570000FA53CBB60C81291444633523004A316C9
:1045800099CB9B4B1C208D48239290443492C5E4D8
:1045900080C80500A41599CB9B4B1C2007C801B20D
:1045A000981C2007C801910B00A50E6ADC9C502CBA
:1045B00022C9FFFF291601A60A63DCA9945024141E
:1045C00002A715994C7D48C82493C822A41025261B
:1045D00091894C710800A80852DD8A48A600A920DC
:1045E000BB4C9D50241491C54459236929B1C86C12
:1045F000128BC452524349B2982414094500AA08A8
:10460000446C1B922832AB16A9C4AB0869781049D8
:10461000E50049164916491639207201AC0955DDE5
:104620008B684A4C34AD0614DC0A02AE159A442D50
:104630003964443A880EA2CA6844124586B119000A
:10464000AF1369DC8B38240E498A44449188248B4B
:10465000242D00B00A44F31A4948149100B10964AA
:10466000DD9B497E1105B20D65DC8A492C240AC602
:10467000221300B30A63DD8A5048125109B407239C
:10468000FD1A0A00B50B96AD0B114F87A12200B69B
:1046900018B7B49BC3244289502294D024180946E9
:1046A00082916024188900B70622DC0902B8083319
:1046B000AD1AD10400B90752E59A4906BA0A44EC8A
:1046C0001A4948149100BB17A9C48B83249435124E
:1046D0000748B248B248B2C8019168E802BC1599CF
:1046E000C59D6844184B8C0543892161242D44895C
:1046F0004600BD1698C59D604496140C0523A1582C
:1047000028120A468291E000BE169AC48D693016BE
:10471000938543B1516A481A490C91A21100BF0E0A
:10472000952C2B991C229AC894221300C014C9C43A
:104730003C39448E14078CA712A144A674915205EB
:10474000C113C9C45CB11C290E184F2542894CE91C
:1047500022A50AC215C9C4CC382012478A03C65301
:1047600089502253BA48A902C315C9C43C49302212
:10477000478A03C65389502253BA48A902C415C9AF
:10478000C42C895022478903C65389502253BA4802
:10479000A902C517D9C4CC38201207C4D1E280F1D0
:1047A000542294C8942E52AA00C60F9A454E1B99C3
:1047B0002A914A488A366D05C70FC72C2C926CAADD
:1047C000B32C4414076500C80EC6C41BA91C72088C
:1047D0002A56848A06C90DC6C43B75C821A858113B
:1047E0002A1ACA0FC6C4BB60240E3804152B4245D2
:1047F00003CB0DC6C41B9D0F41C58A50D100CC0907
:10480000C3C3099150A23FCD09C3C419A2447F017B
:10481000CE0AC3C4996C12FD0500CF0BC5C30909AC
:10482000452CD39F00D01299C31C9B9250223C4927
:104830008412A144263201D114C9443D4930228753
:1048400086A9451B454492D08C5501D211C9443DDF
:1048500039448E505391F22A91C94A00D310C94469
:104860005DB11CA1A622E55522939500D412C9443E
:10487000CD38201247A8A9487995C8642500D512DB
:10488000C9443D49302247A8A9487995C864250004
:10489000D612C9442D89502207D754A4BC4A64B209
:1048A0001200D70B55D58B58242D252D00D81599DE
:1048B00044AD4A442611D622A410255694C824217A
:1048C0001200D90FC8C42C39400E14F2A34424237B
:1048D00001DA0EC8C44CA91C28E44789484602DB0B
:1048E0000FC8C4CC70240E13F2A344242301DC109F
:1048F000C8C42C894C220709F95122929100DD0E7F
:10490000C8C44CA91CA822D24615EB06DE0C96C4DE
:104910000B6145C4E9221402DF0DA6459C91442F8A
:104920001511A70B00E00C96451CA91C34197192B7
:1049300014E10B96453C75D064C44952E20C96458F
:10494000BC60240E59E22429E30C96452C498A1CAC
:10495000B2C44952E40C96451CDD0193112749016C
:10496000E50EA645BC602418074D469C2405E60EBE
:104970006A459E434424228998544704E70D942DA8
:104980009BCA48253291454400E80D95C51BA11CE2
:104990003091502C4202E90D95C53B911C3091504D
:1049A0002C4202EA0E95C5AB58240E9848281621D1
:1049B00001EB0D95C50B09453C91502C4202EC09C9
:1049C00093C3099150A207ED0993C419A2442F0083
:1049D000EE0993C4996C12BD00EF0B95C30909450C
:1049E0002CD31300F00FA6452C494C16894A4E9C37
:1049F000241400F10C96452C498A1C5011F124F224
:104A00000D96451CA91C441171925000F30C96455B
:104A10003C751045C4494201F40E9645BC60240E15
:104A2000A18838492800F50E96452C498A1C421168
:104A300071925000F60D96451CDD011411270905F1
:104A400000F70C76CC2BA11C6287084500F80A669B
:104A5000459C13C542BA00F90B96451CA91C22E2DD
:104A60004952FA0B96453C758888274901FB0C96FC
:104A700045BC60240E10F12429FC0A96451C9D4576
:104A80003C490AFD11C7AC4B75904C2292A8D186C7
:104A900043E15008FE0DD62D0CA1C68A88D345A847
:104AA00008FF13C7AC1B25891C229388246AB4E134
:104AB000503814020000010013B9C43C3A4A1C30BB
:104AC0009E4A841299D2454A1501010C86451C3A2A
:104AD000648993A400010215C9C4BC50588E140700
:104AE0008CA712A144A67491520501030E96459C11
:104AF000504C0E9A8C38490A010417C9ACCC386066
:104B00003C95082532A58B942A07C40171900001B9
:104B1000050C962D9C254E9262B20001060FC744EB
:104B20004C75204936D55916A20001071095453B12
:104B3000911C309144642AA10900010C11C744BCA6
:104B400048340E24C9A63ACB421400010D0C9445FA
:104B50009BA47065A41219010E11C8C4AC48380E8C
:104B600035C92442BE494C00010F17A9454D895053
:104B700022140525A19A482692896422610D00011C
:104B8000101399C31C9B9250223C498412A14426C5
:104B90003201011113A7454CA9AC28AA8824228907
:104BA000482212550001120EB6C41B3AE01054AC54
:104BB00008150D01130C85C51BF24442B10809010B
:104BC000160FC6C42BA11C72082A56848A06011728
:104BD0000E95C52B991C3091502C420201180EC61F
:104BE000AC8B4350B1225434260B01190E96AD9B69
:104BF00091440B494A8C8605011A10C6C4AB483053
:104C00000E3904152B424503011B0E95C59BB43884
:104C10006422A1588404011E12B8C4BC5054581216
:104C20008E958C44894C5401011F12C62D9C504C0A
:104C30000E9A8C38498AA3090500012212C8ACAC2F
:104C40009270AC64244A64A23A581C03012311C632
:104C50002DACA81C341971921447130A00012A0ABA
:104C6000B4C309AA487F01012B0A84C309AA482FAB
:104C700000012E0BC3AC0989FE128A09012F0BC358
:104C8000AB1945895ED204013008B2C4890F010115
:104C9000310862C4894301013616C8AC0C214D228B
:104CA0005291112532919A4428078A8300013711C5
:104CB000D6AD0BA14E140949A2931C228C010139D7
:104CC0000CC6C42B991C24D48F06013A0AC3C419FC
:104CD0008AFE0B00013B0DC6AC0BA17EB4438431B0
:104CE00000013C0AD2AC8907D30400013D0C96C4F4
:104CF0000B11DB2822D468013E0DA5C40A09D32478
:104D000022D31B0001410E97C31BA94A6C28154EE4
:104D1000A50601420BA4C3199126932E000143134B
:104D2000C9445DB11C1AA6166D14114942335605CB
:104D300001440C96453C754845C49300014515C98E
:104D40002C8D30B568A38848129AB12A07CB01414F
:104D50000001460D962D8C8A882739441803014797
:104D600015C944BD481C100787A9451B454492D06E
:104D70008C550101480D9645AC48300EA988781233
:104D8000014C10B9443D3AB8A622E555229395004E
:104D9000014D0D86451C3A8422E224A100015013E6
:104DA000C9444D894C2287D654A4BC4A64B212002F
:104DB00001511297452C8976104945241149442206
:104DC00012000152159D442F8A4536940AA5426966
:104DD000452A94AA8D290601530F6A459ED1442481
:104DE000228998544704015415C7443CA11C5652CB
:104DF000114944929244A42292C80401550C94C5CE
:104E00002A895442116902015616C72C8C928A488D
:104E10002292942422159144268749630001570D5C
:104E200094AD0A0945A41D200A01015816C744ACD7
:104E300048340E2BA9882422494922521149640280
:104E400001590C94C59AA4A88422D204015A10C610
:104E5000C43B751045361C12D7241400015B0B941B
:104E6000452B89B8B45401015E11C6AC1B8A6C385D
:104E700024AE49E820610C00015F0B942D9BD252B7
:104E8000591402016011C6C4AB48300EA2C8864353
:104E9000E29A840201610B94459BA47069A9020106
:104EA000620DC6AC0B9350BFC384310001630FB5D4
:104EB000ACAA98A822D32807C8620001640EC6C411
:104EC000AB48300E3109F5130001650EA6C44AA5A2
:104ED000484856126A1501016A0EB8C42C3A4CC8EB
:104EE0008F12918C04016B0C86451C3A40C493A42C
:104EF00000016E11D8C4CC70241C070AF95122920B
:104F00009100016F0EA645BC602418878878921422
:104F1000017011C8C43C8948220709F951229291B5
:104F20000001711397452C897688482292882422A3
:104F300089485401017210C8AC0C213F4A4432AA7E
:104F4000380E1101017313972D0C9144241149441B
:104F50001291A81A8E0304017812C8C42C894C221D
:104F6000070925226D54B16E0001790FC8C45C7524
:104F7000E05559AA2C951E02017A0C96C43B7588FF
:104F80004D512633017B10C8C44CB11C7855962A6C
:104F90004BA58700017C0D96C42BA11C625394C9BC
:104FA0000C017D11C8C4BC48380EBD2A4B95A5D252
:104FB0004300017E0E96C4AB48300EB129CA640688
:104FC00003850937FB3A11A52403861299C41C49AD
:104FD00050329E4A841299D2454A1503870722DC33
:104FE00009020388159AC01BC9212487C821724869
:104FF000550E9143E410030389169BC11C224528DA
:1050000013CA84B2434C2813CA8432A100038A090C
:1050100095C1198B4C3F038C159B421D4949225366
:105020001549455291542495A99600038E159BC1AC
:105030001C22495524A643E42039480E928364007B
:10504000038F149B421D49492253154945529154DF
:105050002495A92D03900EA7433A11A5240749755D
:10506000160103911199C4CC38603C95082532A5EE
:105070008B942A03920E97440C8B8CED24633B4453
:105080000003930A96C48B43503F0203941299C4C1
:10509000CC38603C950825322599447A2003950C3C
:1050A00096C48B4350B122543403960D98C49CABE4
:1050B000B254592A3D0403970C98C40C21C743915C
:1050C000A3000398119944AD9A8A946542A54A6455
:1050D000B2120003990892C4890702039A1298C475
:1050E0000C214D225291112532919A4428039B1292
:1050F00099C4CC38603C950825322599444A15035B
:105100009C169BC4AD6850265BA2902824C94469B4
:10511000441AD16202039D1099448D30B568A3886A
:1051200048129AB12A039E0B97448C3B963A9603F9
:10513000039F0E9944AD9A8A9457894C560203A056
:105140000A98C48CC3903F0A03A10C96C48B8A882A
:10515000E922D40803A31198448C43440E9003E43D
:1051600000A9D6430003A40A96C40B93503F010341
:10517000A50E98C40CA144A48D2AD60D0003A61236
:105180009A444DB14DA24944129154B499850003FB
:10519000A71199C40CA944A6221DAF4A642A520142
:1051A00003A8149AC40D91882422894822928A3631
:1051B000B31C220403A90E9944AD9A8A9457894CD2
:1051C000321B03AA0CC5430A09452CD39F0003AB2D
:1051D00012C8C42C894C22070925226D54B16E00D7
:1051E00003AC0C96453C75D08993A40003AD109593
:1051F000453B911C309144463249680203AE0DC6CE
:105200002D3C754845C493500303AF0A93451AA239
:1052100044270103B015A7453C11A5240788242283
:10522000894822928844240003B10A66459C1327CA
:10523000490103B20FD5AD9B8984C522E16291A9D2
:105240000103B30D96AC0B114942A209750203B4D8
:105250000FA6452C8A502AA3883849280003B50B8D
:1052600064459B0A4524890C03B60FB4350B924460
:105270002411691B49240003B70B962D8C8A8827BB
:10528000A10603B80EA5C59B8984E520E1229900FB
:1052900003B90963450A894E0203BA0C66C50B11AE
:1052A000454292E82403BB1097C41BA9582A1DCE7F
:1052B0002422899A0003BC0C962D0C114F87A12241
:1052C0000003BD0E67C40B994449221B4E630003C3
:1052D000BE11C535AB892422934D641A6922090099
:1052E00003BF0B66451C8A8893840203C00E674582
:1052F0008C8B9244241149440A03C10C962D1C8ABC
:1053000088D345A80803C20B84359B92B69144020A
:1053100003C31067459C4348229288242211090048
:1053200003C40A64C40A8A489B0003C50B66450C83
:10533000114F120A0003C613D82C3CB1468B0A4504
:10534000429150548C62350003C71197AC0B9944BD
:1053500049221BAE494412350103C814D8AC3CB1F4
:1053600036898422A14828128A8A51AC0603C910C2
:1053700068451D914448915024144D120003CA0CF5
:1053800095440A09452CD3510203CB0C96451C9D2C
:10539000453C49280003CC0D96453C751045C44951
:1053A000420103CD0D96453C758888270905000309
:1053B000CE1298454DA91C2A920829128A84A24926
:1053C0000204010EC6C41B9D0F41C58A50D10004C2
:1053D000021599440DAB1C200748662335914C24D7
:1053E0001349260004030CC6C43B75C821A81F013D
:1053F00004041097442C926C2AB548C5B2100500DD
:1054000004050E96C41B8A6C3824AE492800040695
:105410000892C489070204070CC5C30909452CD3A7
:105420009F0004080994C42AFD54010409179CC470
:105430009EAB4C2A93CAA4B2924C24918924321177
:10544000B102040A179B440E995026940965C2C301
:105450004426A28968225A0500040B1399440DAB17
:105460001C2007D89464229948269209040C14C879
:10547000C44CA91C2893887491112532919A442810
:10548000040E12C8C4AC54395045A48D3A154B854E
:105490005300040F0DB8B40C217F3CCCA44200048F
:1054A000101199C4CC38603C95082532A58B942AFC
:1054B00004110E97440C8B54D522633B4400041214
:1054C0000E97440C8B8CED24633B440004130A9626
:1054D000C48B43503F0204140FB8B41C93FEBF1C8E
:1054E000669298080004150C96C48B4350B1225460
:1054F000340416189E441F614C4951A42A5107D800
:10550000011255919A1661540004170F96C41B4A54
:105510004CA83415CE24140004181099440DF194AD
:1055200058334928225B912A041914C944BD5058A4
:105530000E154F8935938422B215A902041A1298C8
:10554000C40C9944A48B8C289189D4244201041B57
:105550001498C49C8B4C2293C82432894C2293C843
:105560008802041C169BC4AD6850265BA2902824B8
:10557000C94469441AD16202041D0C98C40C21C7A5
:105580004391A300041E0E9944AD9A8A9457894C06
:105590005602041F0A98C48CC3903F0A04200C963C
:1055A000C48B8A88E922D40804210D97442C926C7C
:1055B000AAB32C440104220A96C40B93503F010461
:1055C000231098C40CA144A48D3A154B85530004B4
:1055D00024129A444DB14DA24944129154B4998574
:1055E0000004251199C40CA944A6221DAF4A642ABF
:1055F0005201042618B9B40CA14428114A8412A1FE
:105600004428114A84928358090004270B97440CBC
:10561000196F12AB060428169A450E918824228928
:105620004822928824228948A2430104291BBB35C1
:105630000E918A4845A4225211A98854442A2295E1
:10564000031D22878800042A0D98C40CB2E69A48EC
:105650004F1500042B1099C40D29D713494292907D
:10566000242701042C0C96440CA1C68A88E9020464
:105670002D1097441C524C2C9558A5331109000449
:105680002E169CC40E59494DA24A915E29528A9405
:105690002493C84A00042F129744AC8A4822928867
:1056A0004425899244441304300A66459C254E9251
:1056B0000204310EA6454C914CB122E224A1000413
:1056C000320C65C50B8AC422A1580004330964C595
:1056D0000A934E0004341387B49B92442411494426
:1056E00012C9412409890004350B65C59B89846270
:1056F000111204360E68450D8984A244B3A85014D3
:1057000004370B64458B994426AA0004380C66457F
:105710000CD9886221CD0404391096459C504C0E5A
:10572000918D2816D24C00043A0C65C50B09A5448E
:10573000915004043B0F67441C8B4822928824221A
:105740009A00043C1067449C584822924826874A95
:105750004400043D0B66450C11E9306212043E0B17
:1057600066451C8A88938402043F0A66458C4388F8
:10577000270104400D962D8CC844C4E9225404042A
:10578000410A64459BCA48253204420A66440B9389
:1057900050270004431197AC0B99442451A30D8763
:1057A000C2A11000044413D82C3CB1468B0A4542D8
:1057B0009150548C62350004450D67C40B99446DBB
:1057C0003893A80904461187350C914424114944A3
:1057D0001291E4A80404470B65C50B098B84A6004D
:1057E00004481068C50D898422A14828128AE43033
:1057F00004490D89B50D89FEBF1CC44A00044A0E38
:1058000067440CAA94261149441400044B0E6845C1
:105810000D21D1449150242601044C0C65C50B99EF
:105820008C22A15800044D0C64458B4944329A5493
:1058300000044E0F69C50D1145E9441151442C0077
:10584000044F0B65441B0B4542B10804510E95C52E
:105850000B09453C91502C4202045215D72CAC60E8
:105860004D2A2DA9882422894822920A95000453A2
:105870000B94C52A89D4A4130004540B64459B0AD5
:105880004524890C04550A64459BD25205000456F0
:105890000992C409D2A10004570C95C30909452CEB
:1058A000D3130004580BC4AB296591BE28010459D9
:1058B0000F69C59DA24428214974215100045A1141
:1058C00069C50D914C243B44441292844401045B0D
:1058D00012A744AC604D2A2DA9882422894822129F
:1058E000045C0E95C53B9158422951241401045E75
:1058F00013C7ACAB443948261149D468C3A17028FA
:1059000004045F0C86350C114F87904C0600000094
:10591000000A0B02090C0D0E080703040100000029
:105920000000000000000000000000000000000077
:105930000000000000000000000000121110000034
:105940000000000000000000000000000000000057
:10595000000000000000002200250028002B002E7F
:10596000003100340002010000050108010B0102B2
:105970009C8711241FBECFEFD1E2DEBFCDBF00E078
:105980000CBF15E0A0E0B2E0EAE7F4E301E00BBFF2
:1059900002C007900D92A639B107D9F72EE0A6E90B
:1059A000B5E001C01D92A535B207E1F71CE2C9EBD5
:1059B000DCE200E006C021970109802FFE010E9471
:1059C0005896C83BD10780E00807A9F70E94C66D2A
:1059D0000C943B9A0C9400002F923F924F925F924E
:1059E0006F927F928F929F92AF92BF92CF92DF92EF
:1059F000EF92FF920F931F93CF93DF93CDB7DEB754
:105A0000C25ED1090FB6F894DEBF0FBECDBF5C01F8
:105A1000DC0112968D919C91139704960E94625915
:105A2000FE01EF57FF4FCB52DF4FF983E883C55D8F
:105A3000D04080919C058D3011F40C942A36A0F44E
:105A4000843011F40C94B43940F4813009F4E4C189
:105A5000823011F40C94A6361EC08B3009F4D4C3E6
:105A60008C3009F453C617C0833611F40C94C83B2C
:105A700048F4853111F40C941738863111F40C94E4
:105A8000013909C0853611F40C94AB3B20F08957DD
:105A9000843008F4A1C6D50157961C92579780917F
:105AA000100290911102892BA9F45296ED91FC916C
:105AB000539711E01287178612968D919C91139738
:105AC0000E94FD43F501148E138E168B148A158ADD
:105AD0000C94E43BD5015C968C91843020F58130A8
