:100000000C94A22C0C94475B0C941C5B0C94F15A3E
:100010000C94C65A0C949B5A0C94705A0C94455AE2
:100020000C941A5A0C94D32C0C94D32C0C94D32CDF
:100030000C94D32C0C9402600C94D32C0C94D32CE1
:100040000C94D32C0C94D32C0C94D32C0C94D32C34
:100050000C94D32C0C94D32C0C94D32C0C942349B7
:100060000C94D32C0C940A650C94E1640C94D32C5E
:100070000C94D32C0C94D32C0C94D32C0C94D32C04
:100080000C94D32C0C94D32C0C94D32C0C94D32CF4
:100090000C94D32C0C94D32C0C94D32C0C94725B16
:1000A0000C94D32C0C94D32C0C94D32C0C94D32CD4
:1000B0000C94D32C0C94D32C0C94D32C0C94D32CC4
:1000C0000C94D32C0C94D32C0C94D32C0C94B86497
:1000D0000C948F640C94D32C0C94D32C0C94D32CB0
:1000E0000C94D32C11501950F14FF94F0150095075
:1000F000215029508E589158805884588A58C85891
:10010000955899589F58A358A758AD58B158B55805
:10011000C858BB58BF58C3585B59605965596F5987
:100120007959F25983598B5993599D59A759B15906
:10013000C059CA59F259D459DE59E859080000008B
:10014000BE922449123EABAAAA2ABECDCCCC4C3ECC
:1001500000000080BEABAAAAAA3E00000000BF00BB
:100160000000803F0000000000084178D3BB4387B7
:10017000D1133D190E3CC3BD4282AD2B3E68EC82CB
:1001800076BED98FE1A93E4C80EFFFBE01C4FF7F50
:100190003F00000000004E414E494E495459494E1F
:1001A00046CDCCCC3D0AD7233C17B7D13877CC2BE2
:1001B000329595E6241FB14F0A000020410000C887
:1001C0004200401C4620BCBE4CCA1B0E5AAEC59D08
:1001D0007400407A10F35A00A0724E18090010A55E
:1001E000D4E80000E87648170000E40B5402000051
:1001F000CA9A3B000000E1F50500008096980000D7
:100200000040420F000000A08601000000102700FF
:10021000000000E803000000006400000000000A85
:1002200000000000000100000000002C76D888DCEF
:10023000674F0823DFC1DFAE59E1B1B796E5E3E4CC
:1002400053C63AE651997696E8E6C28426EB898C45
:100250009B62ED407C6FFCEFBC9C9F40F2BAA56FA7
:10026000A5F490055A2AF75C936B6CF9676DC11B76
:10027000FCE0E40D47FEF520E6B500D0ED902E033E
:1002800000943577050080841E080000204E0A0087
:100290000000C80C333333330F986E12831141EFD3
:1002A0008D2114893BE65516CFFEE6DB18D1844B31
:1002B000381BF77C1D901DA4BBE424203284725EA1
:1002C000228100C9F124ECA1E53D27000021002492
:1002D0000027002A002D0030003300010100000437
:1002E0000107010A01526573746F72652056616CD3
:1002F00075653A000A0A0A3D3D3D3D3D3D3D3D3DA7
:100300003D3D3D3D3D3D3D3D3D3D3D3D3D3D3D3D1D
:100310003D3D3D3D3D3D3D3D3D3D3D3D3D3D3D3D0D
:100320003D3D3D3D3D3D3D3D3D3D3D3D3D3D3D3DFD
:100330003D3D3D3D3D0A0A000A20090920205B4D54
:10034000494420245D3E20416666656374656420EF
:1003500076616C7565206F6620000A0A3D3D3D3D63
:100360003D3D3D3D3D3D3D3D3D3D3D3D3D3D3D3DBD
:100370003D3D3D3D3D3D3D3D3D3D3D3D3D3D3D3DAD
:100380003D3D3D3D3D3D3D3D3D3D3D3D3D3D3D3D9D
:100390003D3D3D3D3D3D3D3D3D3D0A005365747352
:1003A000205472697020432072616E67652000538B
:1003B00065747320547269702043206675656C20E3
:1003C0000053657473205472697020422072616E0C
:1003D0006765200053657473205472697020422051
:1003E0006675656C200053657473205472697020C3
:1003F000412072616E6765200053657473205472EA
:1004000069702041206675656C2000576865656CD1
:100410002053696D756C61746520726573697374BE
:10042000616E63652000536176656420416C6C20C9
:100430006461746120616E642072657365747469AF
:100440006E672E2E2E00536176656420416C6C2001
:10045000646174612000536176656420576F726B2C
:100460002064697374616E63652000506173736901
:100470006E672076616C756520746F2063617253BE
:10048000656E73200045435520636F727265637417
:10049000696F6E200044535420636F7272656374F9
:1004A000696F6E200056535320636F7272656374D8
:1004B000696F6E200052504D20636F7272656374D5
:1004C000696F6E2000576F726B2064697374616E80
:1004D0006365200054726176656C20646973746191
:1004E0006E63652000424E5A206675656C20004C94
:1004F0005047206675656C20004368616E67652013
:100500007472697020646174612000547269702093
:1005100074696D6520005472697020646973746138
:100520006E63652000204E6F6E65202E2E2E2053A8
:100530006F727279212000204675656C207374619A
:1005400074652069732000203E2020000000000018
:100550004F0080200040140038CC00049C000200B2
:1005600001E28F0114500008200000E00000CF00DD
:1005700080A00040100038C800048000020001E2A2
:100580008F01145000082000C00000200100107AE4
:1005900000100200103A00D00200D00A00D0020081
:1005A000D00200D00200D00200C80400E80500E834
:1005B0000500C80400180600F00300E00100000078
:1005C000003E1021B87CFC4778403440044104418F
:1005D00084438443C447C44784430440F83FF81F1E
:1005E000900990098811FC3F02400241C240C24478
:1005F000E249F24DF24FF24FE2470420F81F0000AB
:1006000000FC00008601003205004A0900021900C2
:10061000FE3900FE5100FE5900FE3300FE1300FEBD
:100620002300FE4500FE8900FE0901FC8801FFF35E
:1006300000000000000C122D2D120C008C44CCAADE
:100640008CAA86AA86440600835283A983AA1F1116
:100650001D0E0A11171F0E1115110A0A04040000BD
:1006600000000000000000E01F001020000CC0008F
:10067000068001FCFF00F23F012210017EF801FE1E
:10068000FF01FCFF003870000000000CC300068072
:1006900001030303000000F03F00F03C00F87F007E
:1006A000F87F00FCFC00FCFC00FCFC00FEFF01FEEF
:1006B000FF01FEFF01FFFC03FFFC03FFFC03FFFC47
:1006C00003FFFF03FEFF010000004B4D48200052D6
:1006D000504D200045435520002F0020424C420041
:1006E00044535420004F444F2000454E47200047BC
:1006F0005253200057524B20004552524F523A203D
:1007000043616E6E6F742066696E642063757273E8
:100710006F7220666F722064656C6574696E672005
:100720002E2E2E2E20004552524F523A2044454C38
:100730004554452074726970204320004552524F41
:10074000523A2044454C4554452074726970204209
:1007500020004552524F523A2044454C45544520C2
:1007600074726970204120003E004552524F523A47
:10077000205472697020637572736F72206F757484
:10078000206F662072616E6765202E2E2E2E20004F
:100790004E4F544943453A2044656C657465207456
:1007A0007269702E2E2E2E2000424E5A2076616CD9
:1007B00075653A20004C50472076616C75653A208B
:1007C000004C50472074616E6B3A20200052616EDD
:1007D00067653A20002A002A002A002A00600005E6
:1007E000050607050707375500F13AF13A0107F00A
:1007F0000FC817B72007000002CB00211387EE02B5
:10080000ADE0FF07980F942270C11044000022222F
:10081000D062BFCD6230C32848110EE1124728864E
:10082000210A528CC10C643003118E500214100046
:10083000238A9D8E02CB092148420892108224848B
:10084000200921483ACA9110822484200921484273
:100850000892108224841CEA2048420892108224C4
:1008600084200921484208928E728C0FFC07A282D4
:10087000102421044908411242908410241DE5509F
:100880000741CA07FE03D140089210822484200940
:1008900021483ACAA10E82248420092148420892A4
:1008A000108224841CEA2847420892108224842063
:1008B0000921484208928E72240024595D92E2CAAE
:1008C000EBB0E74717F8B46851A83A57C9885216F1
:1008D00091A444200B09088B1AD49EE7D8C3221593
:1008E000B1484DA8DA5CD165AE3799B99A0A55D1AD
:1008F000A42216A9883DACF39E066B87401622926F
:10090000940CA528242BD7A9D2B422E7C4A41EF6A0
:10091000FC16002581DE8EFECCC460C840143294E3
:1009200084080621823988700C228E60184418A32E
:1009300028C83046519071048320852948610A6295
:10094000948220C420C938874555C4A22A62117BED
:100950005854452CAA2216B1874555C422F6B02812
:100960007B58943D2C620F8B3A853A4C7290B218AA
:100970008434E520CF4088218E71948218022905A5
:100980003104520C71324F404E238EB48C432503F8
:10099000614501002673DD8E02CBEB98CD7B5AB406
:1009A000A6549DCB2C6129C9490892108224841C2D
:1009B000EB20C73AC8610F8B54C4221565918AD4C5
:1009C000642A73890C749EF39E06B58821016187A1
:1009D00040D83110E20C843804190E41864312E1EC
:1009E00014443825098E41826390E01C1BAA90753F
:1009F0002CD404E43401418B50CC3256242B98B9CA
:100A0000CE75AC54AD63202714C7E2BEAD62184565
:100A1000A84231883190810825200028434F6E0775
:100A2000CD6860843A1062908318E4200639C83992
:100A30000E728E833A073A0E720E747650E740E7D4
:100A40000F210785CE1072107420E4A010729093CD
:100A50001CE4240739C9414E728C542CA100293D55
:100A60004F6E07CB6458053A4E7210841C04210760
:100A7000410742D0819083A01342D019420E82CE0A
:100A8000FF3B68E740C7419DE3A0CE71500639881F
:100A9000414C6290832063112D40002A3999C6A6EB
:100AA000CBAAA0652D308509CA508A32906294067F
:100AB000128A80842C5C6442CF6A58B31E34912B16
:100AC00064010945404619194A51861298C204AD7D
:100AD000A0650A002B1396052FCDE778E7873EF037
:100AE00007BC73BCF321002C1087E2F6AAA1085CB6
:100AF00030444184220A002D0AD6014BCDE01FF07C
:100B0000002E0DC7E102ABA1085C30C420002F42CB
:100B10009CAE02CB149908454D84A22642117A500E
:100B2000D444286A221435118A9A08454D8422F447
:100B3000A0287A50D444286A221435118A9A08458C
:100B40004D8422F4A0287A50D444286A2214450106
:100B5000303D9D8E02CBEB988D8BD694AA73958CED
:100B60002C6319CA5104B210812C24200D6ACF7352
:100B7000FFFFFFBFF734A821E1688740162294A346
:100B80008C15C9CA75AA34ADC835F35800311B8E0F
:100B9000AE03CDE7CCA04A8A28E2031FD0C232922E
:100BA000729CF3FFFFFFFF0F325C9D8E02CBEB9830
:100BB000CD83D694AA73958C306219CA5104B210B1
:100BC000812C24200D6ACF73BDA7410D09474382B4
:100BD000D11041B864080FA1C94C284293995084A0
:100BE0002633A1084D2842939950842633A1084DFD
:100BF0006642119A50842633A1084D6642119AD05C
:100C00000FFC0722334D9D8EFECAE07F20A20945CE
:100C10006832138AD0642614A1C94C284293995093
:100C2000842633A18B64A2F31E0735882A15B148A8
:100C3000452C52117BFE5554111C32888688632541
:100C40004141C9600433B2729D2A4D0C7A0C2D1AB1
:100C50000034479D8E02CB0AA9873D2AAA1EF6A81A
:100C6000A87A54B47A54B47A54B47A54543DEC51BA
:100C700051F5A8483912528E8494231DE6408839D4
:100C800010620E8498031DE738C8390E728EF38106
:100C9000FF40E4107BFE770035459D8E02CBE07F60
:100CA00020AB873DFF2388AAD065B092116D6CC23E
:100CB00011ABA384642101614840DAE39EE7BCC321
:100CC0009E3FEB3C97831AC410812C442448198C16
:100CD000584856AE53A56945AE99C7020036559D92
:100CE0008E02CBEB988D8BD694AA73958C2C82199F
:100CF000CA5104B21071B423200D72CE73ECF91BEB
:100D00004AB2CE65B092116D6C82298A505212920D
:100D10008504A441ED71CF73FFDED3A08604642166
:100D2000025988508E3256242BD7A9D2B422D7CC60
:100D30006301374D9D8E02CBE07F206350831A12F2
:100D40008E8684A321E160493818220E86D014458E
:100D50002A42138A54144D28525134A14845D18453
:100D60002215A1298A5484A62852119A50A4A26857
:100D700042918AA209452A425314A9084D1A003803
:100D8000609D8E02CBEB988D8BD694AA73958C2C9C
:100D90006319CA5104B210812C24200D6ACF73DF6D
:100DA0007B1AD490802C44200B11CA51C68A64E56A
:100DB0003A559A5275AE9211A528234989401612C8
:100DC0009006B5E7B9EF3D0D6A48381822908508BE
:100DD000E5286345B2729D2A4D2B72CD3C16003931
:100DE000549D8E02CBEB988D8BD694AA73958C2C48
:100DF0006319CA5104B210812C24200D6ACF73FFED
:100E000039A8410D09C84A429214A114466C4347BF
:100E100032731D2B29E3B0E7B3CE7339A8410C110F
:100E2000C842448294C1888564E53A559A56E49A4A
:100E3000792C003A1547E81EAB62181F1842F1C121
:100E4000AD2270C1108300003B1707E912AB621896
:100E50001F1842F1C1AD2270C11005118A28003C53
:100E60003092482FCB6F70442B98A19094A0E4A8A7
:100E70004E8292A342883A96C18A66B063212A5173
:100E80004A52544A292AA59075B4C2116F80023D76
:100E9000105AC526CDE03FB07DF0F607FE810D3E2D
:100EA0002ED2482BCB2088021C5ED10C762C4429F4
:100EB0002A4D292A4D21CC680533D6A11094EE285D
:100EC0002741A9842883158D70C30B22003F42DD82
:100ED0008E02CBEB988D8BD694AA73958C2C6319CC
:100EE0000A4A44A2108130A841CE79CE3BECA9A297
:100EF000683293A948452E7191EA668A2215A9871E
:100F00003DFFDF07F78A6BDCC39EAC81890600409A
:100F1000D57391C6F6B3F900993C9637FBCD0F080F
:100F2000F103C47392D398C7AC652E69B10A5270AD
:100F300072929D98842724594738084A4504198895
:100F4000920A229034154420883287385065205404
:100F500019E82842390E420C721C741CE438E874FB
:100F60001C743A0E3A1D079D8E834EC741A7E3A01D
:100F7000D371D0E938E8741C743A0E3A1D079D8E7F
:100F8000834EC741A7E3A0D371D0E938E8741C743D
:100F90003A0E3A1D079D8E838E831C07212629D089
:100FA00051441324F481411CE8038338D207828121
:100FB000248F20CA098D4114339683B0031D29F96B
:100FC000004B3EC0920F2CE5034BF9C05A3EA0984F
:100FD0000F24E803E50344FCC0203F20D0AF7A781B
:100FE000DBD80100416E9D8E02CBEBB04845681AFC
:100FF00055A622D7492632B00D3ACF712F7784C338
:101000001D0169474018220E8688831DE360C7389A
:10101000D8311085904321E4504739D4510E7514CE
:10102000241D05418839D0710E749C031D0739C7F2
:1010300041CC3D83911C41D4418E75906321E36086
:101040008740D8218E7688A31DE26848381AE41EAE
:10105000770042779D8E02CB006A93AA9075B0828A
:10106000958C208619874AC6B1127130441CED1048
:101070004743C2D19070B8231CEE084743C2D190B9
:101080007034241C0C11C74AC4A114712465682350
:101090002358B9CC65B09211A434E348CA3856221B
:1010A0000E8688A321E1684838DCEBB9E75E0D09BC
:1010B0004743C2C19270AC441C691187694646B06F
:1010C0007219EB546852500300433E9D8E02CB0AC6
:1010D000998D8BD694AA73958C2C8219095204B2DF
:1010E000908034587B9ECB9EFFFFFF7BCE7B1AD433
:1010F00090803024200B110A4AC622189295EB5496
:10110000695A916B26A20044399D8E02CB405A1534
:10111000BA0C5632A28D4D206811C752C2D19070C0
:1011200034241CEEF5DCFFFFFF9F7B35241C0D09EA
:10113000C752C29116B1096D64042B97A990B400EF
:10114000451D9D8E02CBE07F20AB873DFFFFAC7538
:10115000EC770E7BFEFF2C523FF01F880046199D56
:101160008E02CBE07F20AB873DFFFFAC75EC770EA6
:101170007BFEFFFF2C0047429D8E02CB0A998D8B90
:10118000D694AA73958C2C6319095204B29080B03E
:10119000A841ED792E7BFE1FAABFE7FEBDA7410D3A
:1011A00009C84A02B292A09C452CA311DBD0485634
:1011B0003073A1261CEB200748159D8E02CBE078EA
:1011C000EEFFFFDFFBC0FF9EFBFFFF7B07490B87A6
:1011D000EE02ADE0FF3F30004A279D8E02CBF6FCC9
:1011E000FFFFFFFF679DE7725083DA2190850805B6
:1011F0002583110BC9CA75AA34ADC8351351004BEC
:101200008B9D8E02CBE0685043C2C19270AC441CEF
:101210000B19874AC6A11072A4841C28290742CC46
:101220007112731CE41C26394749D05190749024E4
:101230001D2351C740D62192750884450C6A8F7BC7
:101240009CF39CD74026B2C5063ACF798F7B1CD43D
:101250008E90B02324EC10C93A06B28E91A8832454
:10126000E928483A4A820E83A0C324E73889391016
:10127000620E94942325E450083954328E858C6391
:1012800025E26049381A128E96004C149D8E02CBCE
:10129000E0B0E7FFFFFFFFFF3FFB81FF40044D563B
:1012A0009D8E02CBE07050833169C9149568C83AAD
:1012B000368315AC644337B6C0850FFC034B688298
:1012C0001318E18845386211CE48863392E18C6468
:1012D00038E4200E3988430EE294A238A5284E2126
:1012E0008C6306E398C1384638CE098E7382E33C9E
:1012F000F7FFBD034E579D8E02CBE0788F7B1CD449
:10130000602D621193966C4D6AA6A844A50AD590EB
:1013100075AC73192720C609887104521C811467A3
:1013200020C419087106421C820C8720C3218970D1
:101330000A229C8208C720C1314870CC756CA82E47
:10134000D1D4DC92B1B806E75EEF004F3D9D8E022E
:10135000CBEB988D8BD694AA73958C2C6319CA51BC
:1013600004B210812C24200D6ACF73FFFFFFBFF75A
:1013700034A82101598840162294A38C15C9CA7536
:10138000AA34ADC835F3580050469D8E02CB006A92
:1013900093AA90752E83958C20A519475AC4B11233
:1013A00071B0241C0D094743C2E15ECF3DF76A4886
:1013B000381A120E96846325E2488B404A333282F3
:1013C00095CB58A7429382DA61CFFFFF6701513D69
:1013D0009D8E02CBEB988D8BD694AA73958C2C6343
:1013E00019CA5104B290902C24200D6ACF73FFFFCC
:1013F000FFBFF734A82101598840162294A38C1509
:10140000C90A66AE731D2B55EB1808527F9D8E02DC
:10141000CB006A93AA90752E83958C20A519475A04
:10142000C4B11271B0241C0D094743C2E15ECF3D27
:10143000F7B8231C0D094743C2C11071AC441C49C5
:101440001948694646B07219EB54A8868E73A0E31A
:1014500020E738C839D0710E84980321E6488739CF
:1014600012528E8494431DE550083914428E7590B3
:101470006321E358C838D8310E86888321E2684852
:10148000381A128E8684C33D0E0153519D8E02CBB5
:101490000A998D8BD694AA73958C2C8219CA510403
:1014A000B2108130A841ED792E7B58A42216A929CB
:1014B000AAD065AE4797B93E9AD4A422F6B0484563
:1014C000ACF35C0E6A104304B210A11C65306221BB
:1014D00059B94E95A615B966220A0054159D8E027B
:1014E000CBE07F205A483DECF9FFFFFFFFFFB7003C
:1014F00055279D8E02CBE078EEFFFFFFFFFFDED386
:10150000A086046421025988508E3256242BD7A914
:10151000D2B422D7CC6301567C9D8E02CBE0788F6B
:101520003BC2D1907034241CED10473B04C28E7135
:10153000B0631C0B19C742C6B10E82A8A31CEA28CF
:10154000873ACA919072A4C320E838073ACE818EB8
:10155000731CE41C07658E7498231DE6488739D2F6
:1015600051908410441DE4580739D6418E7590631C
:101570002102618738DA218E7688A31DE268907B8C
:101580009CF3DC600B3291255752992A9A46918A36
:10159000D8430157419ACE02CDC068EDFFFF4C60A1
:1015A0001A2394A60CA529436948411A529086141F
:1015B000A419C768C6319A718C4624A2118968445F
:1015C000229AB0840FFC7FA00A39718DDBB04AAD3E
:1015D00050677614588A9D8E02CB006948381A12DB
:1015E000107608841DE358C838163210751024216F
:1015F000E5484841D06190839CE3A0CC81107320E2
:10160000A420E9284842C8A19081AC63200B1107AF
:101610004302D28E80B4C7BD9EF31AD844166C41E3
:10162000C7BDB923200C090843C4C18E812864209A
:101630000A21873A0A82908220C41C0831073A0E98
:1016400062908318041DE6480841124210759063A9
:101650002102598840D821107688A3410D0159698B
:101660009D8E02CB006948381A120E86086421024A
:1016700059C83814420E851024210441883910625B
:101680000E741CC420E830083A0A92108224842088
:10169000EA18C83A06B21071302420ED08487BDC05
:1016A000EB35B01517B948652A34A1484551A4A2B5
:1016B0002852917A54543D2A8A221545918AD4A3FE
:1016C000A228525114A9005A4B9D8E02CBE07F20D4
:1016D000AA08452A42918A50A42234A1084D2852D2
:1016E000118A54842215A148452852118A54842213
:1016F00015A148452852118A54842215A1484568ED
:1017000042119A50842614A109452A4291FA81FF78
:1017100040045B18916E03CD000A1FF801489DFF3D
:10172000FFFFFFFFA90FFC4016005C479CAE02CBF9
:1017300000A1484528528F8A50A41E15A14845286B
:10174000AA221455118AAA0845558422F5A80845ED
:101750002A425115A1A88A50544528AA221455118D
:101760008AD4A32214A908455584A22A425115A15E
:10177000085D14906E03CDE00F4CE9FCFFFFFFFF06
:101780002F7DE007345E1B97E2F2CB27690B5B5697
:10179000939E8304A42003214739C6718E80A00341
:1017A0005F0A6501EECAE03FE0016012CE82DFCB46
:1017B000E040C739D00919C9848C64026160218B6B
:1017C00002D32BA94F8CDED4AA75A50C2D63394901
:1017D0004A0CB210832CC41CED30473BCCD10E73A5
:1017E000B4439F32721556A92B61283B9AD90A57E8
:1017F000947514A41D04710741DC418E7790E31D9C
:10180000E4780741DC4190961064296429CFF8C43C
:10181000373CD295491C0722465AD4006241DD8EDE
:1018200002CBE0B0E7FF478E7584065D062B19D129
:10183000C6269AB18805252159484818D420E73C86
:10184000F7FFEF3DEE69118B1612169484662C6239
:1018500013DAC808562E7384061D045100633D1D1B
:101860008B02CBEB988D8BD694AA73958C2C631935
:101870000A4A04B2108130A841CE792E7BFEBFE720
:10188000BCC73D0D09084302B210A1A064AC485684
:10189000AE53A56945AE998802006443DD8E02CB44
:1018A000F6FCFF16320ED484C35C0523D9D0C426BF
:1018B00096D10405290159494018D420E73CF7FF87
:1018C000EF3DEE6948401812909504052962198D84
:1018D000D88646B282990B35E158073900653E1D1E
:1018E0008B02CBEB988D8BD694AA73958C2C6319B5
:1018F0000A4A04B2108130A841CE79EEDE07FE67B5
:10190000CFB34845DA6010569044214241C95891FE
:10191000AC5CA74AD38A5C338F05006629DD8E0252
:10192000CBCFA80B741CC4A435252A254239884185
:101930000E724EE838873DFF7BDAD09F3AECF9FF14
:10194000FFBF07006760DD8EC6CA4B4295B90A46E5
:10195000B2A113CB58867214912844200C6A90735C
:101960009EDB7BDCD390803024240A110A4AC68A8D
:1019700064E53A559A56B420F6B88422F5B0278B20
:1019800054854A6B4A96C1483636B18564450D7216
:10199000CE73DEE39E868424296113DBC8CA75AA50
:1019A0003435E700682ADD8E02CBE0B0E7FF478ED2
:1019B0007584065D062B19D1C6269AB188052521A6
:1019C00059484818D420E73CF7FFFFFFBD036922C0
:1019D000CBAE02AB62380639578A0F060E72FEFF95
:1019E000FFFF11642024114A504432107214030D79
:1019F0006A2A9612C7CC9088063CDE192C3EF8CC99
:101A0000F1CEFFFFFFFFFFF71CF418C8202111895A
:101A1000A00DA940C7494C3310006B76DD8E02CB78
:101A2000E0B0E7FFE79E86848325E1608838562290
:101A30008E858C4325E348093912520E9494032174
:101A4000E63889390E720E939CA324E828483A4858
:101A5000920E82A86324EA18C83A04C28E90B0237A
:101A6000242C62D29AD4A4A844A50A310141CB40C7
:101A7000CE3212A314C4A44A729082A084202919E1
:101A8000C742C6B1127130441C2C094743C2E11051
:101A90006C1DCF8E02ADE040E7FFFFFFFFFF0F217F
:101AA0000741897182239AC190A528E8006D863389
:101AB0008B02F7E020C73BD6119AD4A0AB44061B9B
:101AC00053C942453E108D0F48A219D358C4821CF9
:101AD0009484642D0B09095318D4920639C439EF44
:101AE00078CE3B9EF38EE7BCE339EF78CE3B9EF396
:101AF0008EE7BCE339EF78CE3B9EF38EE7BCE3394B
:101B0000EF78CE3B9EF38EE7BCE339EF78CE3B9E79
:101B1000F38EE7BCE339EF78CE3B9EF38EE7BCE370
:101B200039EF78CE3B9EF38EE7BCE339EF78CE3BBE
:101B30009EF34E6E271D8B02CBE020C73A42832EC8
:101B400083958C686313CD58C48292902C24240C06
:101B50006A90739EFBFFFFFFDE016F3A1D8B02CB85
:101B6000EB988D8BD694AA73958C2C63190A4A0432
:101B7000B2108130A841CE79EEFFDF7BDCD39080BC
:101B80003024200B110A4AC68A64E53A559A56E475
:101B90009A8928007042DD8EC6CAE020C73A428387
:101BA0002E83958C686313CD58C48292902C242484
:101BB0000C6A90739EFBFFF71EF7B488450B090B68
:101BC0004A423316B1096D64042B973942830E8261
:101BD000A8C39EFFCF027143DD8EC6CAEB20076A01
:101BE000C261AE82916C686213CB6882829480ACD1
:101BF00024200C6A90739EFBFFF71EF73424200C00
:101C000009C84A828214B18C466C432359C1CC85E1
:101C10009A702C641CF6FCFF00721C168B02BDE04F
:101C20002052F8C01F688444200399C721EE78E74A
:101C3000FFFFFF7B007342198B02C3E980CC7A520D
:101C400074A652114B2C6111C88912A49CE55A4FFD
:101C500044241213F8AC2845484A3105B925261109
:101C600089CF725B4F821212909384D5B04655A6ED
:101C700013A58731EF48007422D24E02ADE458E735
:101C8000FF3B1FF8030239D6F9FFFFDF4294929A17
:101C9000D218E62C4849C93A0075281D8B02CBE0C2
:101CA00078EEFFFFFF7B8F7B1A12108604642541BC
:101CB000418A584623B6A191AC60E6424D38D641E0
:101CC0000E766E1D8B02CBE0788F7BDC118E8684C6
:101CD000A31DE2688740D82110768C6321E3580762
:101CE00039D641107510441DE5484839D2618E74CB
:101CF00018041D0641C7390E724EE8380742CC81E0
:101D00001073A4A320E928873ACAA1107228841C62
:101D1000EB18C83AC6C18E7130441C0C09483B020E
:101D2000D28E70B8231CEEF59CD7C0B6C8200077C1
:101D3000C5338B02F7E078C773DEF19E9634241C1E
:101D40002D6948385AD20E71B4A41DE2680A3B04CA
:101D5000B296858C632D0B19C75AD6418EB5AC83CC
:101D60001C8B51074152939072A42621E5484D3AAD
:101D7000CC919A74982339E830C8790E728EF31C8E
:101D8000E49CC2710E749C231CE740C73902620EAA
:101D90008414242005494741C451907494631CE580
:101DA000504739C6510E75946320E450C8405BC754
:101DB00040C83190758CA31CE360C738CA310E76D9
:101DC0008CA320E26048400A12907604C41C01698A
:101DD0004738CE110E7784E31CE1704738CEE39E7E
:101DE000F33C0739AF490D6C52039BD4C0263591A3
:101DF000510C020078661D8B02CB007147381A1215
:101E000010768C632103514739125210749CE3A061
:101E1000CC918E8224841CEB18C842C4D18E80B42D
:101E2000E739AF894C5CA632938AA20955E422199E
:101E3000D840C73DEE080843C4C18E8128841CEAFF
:101E4000280842CC818E8318041DE6480841D441FD
:101E50008E8508841DE268903B007974DD8EC6CAC9
:101E6000E360C74014321085904321E4504739D4D1
:101E7000511084140421E6408839D0710E741CE49A
:101E80001C0731083A0C820E73A4C31C092947426F
:101E900008A20E82A8831CEB20C742C6B11081B0F5
:101EA0004320EC10083BC4D1907034C8BD9CF35C57
:101EB000B00599C8922BA94C154D51A4A26B424173
:101EC0005A211216AD68490C720E5CE811017A2B8A
:101ED0001D8B02CBE07F20A2C94CA63253539969D7
:101EE0003499299ACC144D668A26334593999ACA17
:101EF0004CA3C94CE807FE03117B41D430E7CAAFBD
:101F000068C74A949216C4A005292A592886B0A306
:101F10009DFFC710763044254951C942D81011960B
:101F20002C85250D694743DAF9FF1AC210965ACA63
:101F300062109316A5ACA41DAF007C0B47F2E3CA58
:101F4000E0FFFF81077D43D330E7CA8078464356E0
:101F5000A294B4A045290B61C842D8F9FF18B21069
:101F6000862C84254B51093BE0C00E95240525099C
:101F700059884216B20E76FEDF4229242967410BAA
:101F80005252A2906534E2017E1AA0624ACB835875
:101F900006424C5338D237BA0209A52CE8484413FC
:101FA0000A007F07000002CB0000000000D094D0A0
:101FB000BED0B2D0B8D0B6D0B4D0B0D0BDD0B52E8F
:101FC0002E2E202020202000D0BB2FD18700D187AB
:101FD00000D0BAD0BC00D0BB0034323030306B6D92
:101FE0002028D0A1D0BBD0B5D0B420D181D0BCD1D5
:101FF0008FD0BDD0B020D0BDD183D0BBD0B8D180E0
:10200000D0B0D0B9D182D0B520D0B4D0B0D0BDD06E
:10201000BDD0B8D182D0B52900D092D18AD0B7D066
:10202000B4D183D188D0BDD0B8D18FD18220D18412
:10203000D0B8D0BBD182D18AD18020D181D0B52077
:10204000D181D0BCD0B5D0BDD18F20D0BDD0B020F3
:10205000D0BDD0B0D0B40020D09DD0A3D096D09D1C
:10206000D09020D0A1D09CD0AFD09DD09020D09245
:10207000D0AAD097D094D0A3D0A8D095D09D2FD05F
:102080009CD090D0A1D09BD095D09D20D0A4D098AA
:10209000D09BD0A2D0AAD0A02000D0B520D0B7D05D
:1020A000B020D181D0BCD18FD0BDD0B02028383560
:1020B0003030306B6D2B2900D090D0BDD0B3D180A3
:1020C000D0B5D0BDD0B0D0B6D0B5D0BDD0B8D18FFE
:1020D000D18220D180D0B5D0BCD18AD0BA00D090E6
:1020E000D09DD093D0A0D095D09DD090D096D095B3
:1020F000D09D20D0A0D095D09CD0AAD09A00D097C7
:10210000D0B0D0B4D0BDD0B820D181D0B2D0B5D16C
:1021100082D0BBD0B8D0BDD0B82000D09FD180D065
:10212000B5D0B4D0BDD0B820D181D0B2D0B5D18295
:10213000D0BBD0B8D0BDD0B800D09DD0B5D180D064
:10214000B0D0B1D0BED182D0B5D189D0B020D0BA74
:10215000D180D183D188D0BAD0B020D0B23A00D0CB
:1021600098D097D093D09ED0A0D0AFD09BD09020C5
:10217000D09AD0A0D0A3D0A8D09AD09000D09CD094
:10218000BED0BBD18F20D0BFD180D0BED0B2D0B511
:10219000D180D0B5D182D0B52E00D09DD0B8D0B2EC
:1021A000D0BE20D0B520D0BFD0BE2DD0BCD0B0D0B6
:1021B000BBD0BAD0BE20D0BED1822032352500D0CF
:1021C000A2D095D0A7D09DD09ED0A1D0A220D0974C
:1021D000D09020D0A7D098D0A1D0A2D090D0A7D016
:1021E0009AD09800D0BDD0B020D0B4D0B2D0B8D062
:1021F000B3D0B0D182D0B5D0BBD18F20D0B520D054
:10220000B2D0B8D181D0BED0BAD0B02100D0A2D047
:10221000B5D0BCD0BFD0B5D180D0B0D182D183D120
:1022200080D0B0D182D0B02000D09ED09FD090D0AE
:10223000A1D09DD09ED0A120D09FD0A0D095D093EA
:10224000D0A0D0AFD092D090D09DD09500D0BED1AC
:1022500085D0BBD0B0D0B4D0B8D182D0B5D0BBD0AF
:10226000BDD0B020D182D0B5D187D0BDD0BED18174
:10227000D18200D09FD180D0BED0B2D0B5D180D095
:10228000B5D182D0B520D0BDD0B8D0B2D0BED18229
:10229000D0BE20D0BDD0B000D09ED0A5D09BD090D5
:1022A000D094D098D0A2D095D09BD09DD09020D063
:1022B000A1D098D0A1D0A2D095D09CD09000D0BF72
:1022C000D180D0B5D0B4D0BDD0B8D182D0B520D1D6
:1022D00081D0BFD0B8D180D0B0D187D0BAD0B82EFD
:1022E000202000D098D0B7D0BDD0BED181D0B2D000
:1022F000B0D0BDD0B520D0BDD0B02000D0A1D09FEF
:10230000D098D0A0D090D0A7D09DD09020D0A1D0F0
:1023100098D0A1D0A2D095D09CD09000D0BDD0B5FF
:1023200020D0B520D180D0B0D0B1D0BED182D0BD28
:10233000D0B820D0B3D180D0B0D0BDD0B8D186D065
:10234000B800D09DD0B0D0BFD180D0B5D0B6D0B578
:10235000D0BDD0B8D0B520D0BED1823A2000D09523
:10236000D09B2E20D0A1D098D0A1D0A2D095D09C27
:10237000D09000D0BCD0BED182D0BED180D0BDD054
:10238000BED182D0BE20D0BCD0B0D181D0BBD0BE17
:1023900000D09FD180D0BED0B2D0B5D180D0B5D141
:1023A00082D0B520D0BDD0B8D0B2D0BED182D0BE00
:1023B00020D0BDD0B000D0A1D09CD090D097D09EDE
:1023C000D0A7D09DD09020D0A1D098D0A1D0A2D01D
:1023D00095D09CD09000D0A8D0BED184D0B8D18068
:1023E000D0B0D0B9D182D0B520D0B2D0BDD0B8D085
:1023F000BCD0B0D182D0B5D0BBD0BDD0BE00200003
:10240000D097D090D09BD095D094D0AFD092D09090
:10241000D09DD098D0AF20D09FD09E20D09FD0AA62
:10242000D0A2D0AF0020D09DD0B5D0B8D0B7D0BF0B
:10243000D180D0B0D0B2D0BDD0BED181D18220D099
:10244000BDD0B020D0BAD180D183D188D0BAD0B09D
:102450000020D0A1D18AD0BDD0BBD0B8D0B2D0BEE0
:10246000D181D18220D0B7D0B0D181D0B5D187D0A1
:10247000B5D0BDD0B00020D09DD0B0D0BFD180D0DD
:10248000B0D0B2D0B5D182D0B520D0BFD0BED18728
:10249000D0B8D0B2D0BAD0B000D098D0B7D0BFD0DA
:1024A000BED0BBD0B7D0B2D0B0D0B9D182D0B520D9
:1024B000D181D0BFD0B8D180D0B0D187D0BAD0B080
:1024C000D182D0B020D0B7D0B020D0BAD180D0B097
:1024D000D0B900D098D0B7D0B3D0B0D181D0B5D1D9
:1024E00082D0B5D0B4D0B2D0B8D0B3D0B0D182D031
:1024F000B5D0BBD18F20D0B7D0B020D0B7D0B0D01E
:10250000BFD0B0D0B7D0B2D0B0D0BDD0B52E00D0F3
:10251000A0D095D097D0A3D09BD0A2D090D0A2002D
:10252000D09AD09ED09DD0A1D0A3D09CD090D0A640
:10253000D098D0AF00D09ED094D09ED09CD095D0D3
:10254000A2D0AAD0A000D09ED091D09ED0A0D09EE4
:10255000D0A2D09820D09220D09CD098D09D2E0090
:10256000D0A1D09AD09ED0A0D09ED0A1D0A220D071
:102570009DD09020D09AD09ED09BD0902053504593
:10258000454400D098D0B7D0BFD0BED0BBD0B7D0D4
:10259000B2D0B0D0B92022523C2220D0B7D0B02047
:1025A000D0BFD180D0BED0BCD18FD0BDD0B000D0F4
:1025B00098D0B7D0BFD0BED0BBD0B7D0B2D0B0D0FB
:1025C000B92022533C2220D0B7D0B020D0BDD0B00B
:1025D000D0B2D0B8D0B3D0B0D186D0B8D18F20008F
:1025E000D09DD0B0D182D0B8D181D0BDD0B5D1826C
:1025F000D0B52022533C2220D0B7D0B020D0BFD1BC
:1026000080D0BED0BCD18FD0BDD0B0004172647537
:10261000696E6F4D494420D0B2D0B5D180D181D000
:10262000B8D18F2000D097D0B020D0BDD0BED0B2CE
:10263000D0B820D0B2D0B5D180D181D0B8D0B83AFE
:10264000207777772E6769742E696F2F76486C6BC9
:102650006400D097D0B0D0B4D180D18AD0B6D18226
:10266000D0B5203E5220D0B820D0BDD0B0D182D03D
:10267000B8D181D0BDD0B5D182D0B520D181D0BF65
:10268000D0B8D180D0B0D187D0BAD0B0D182D0B0BC
:102690002000D097D0B020D0BDD183D0BBD0B8D14E
:1026A00080D0B0D0BDD0B520D0BDD0B020D0BFD16B
:1026B0008AD182D183D0B2D0B0D0BDD0B5D182D0B2
:1026C000BE00D097D090D092D09ED094D0A1D09A76
:1026D000D09800D0A2D095D09AD0A3D0A9D09E00F7
:1026E000D09DD090D0A1D0A2D0A0D09ED099D09A89
:1026F000D09800D098D09DD0A1D0A2D0A3D09CD00B
:1027000095D09DD0A2D09800D09ED0A2D09DD09E32
:10271000D0A1D09DD09E00D09ED091D0A1D09BD0F2
:10272000A3D096D092D090D09DD09500D093D09E3B
:10273000D0A0D098D092D09000D09FD0AAD0A2D0D4
:10274000A3D092D090D09DD098D0AF00D09DD09003
:10275000D0A7D090D09BD09E00D098D0B7D0B3D087
:10276000BED180D0B5D0BBD0B800D098D0B7D0BD46
:10277000D0BED181D0B5D0BDD0B800D09FD0BED012
:10278000B42032352500D094D0BED0B1D180D0B5A0
:1027900000D09DD0B8D0B2D0BE20D0BCD0BED182A7
:1027A000D0BED180D0BDD0BE2020D0BCD0B0D18191
:1027B000D0BBD0BE3A2000D0A2D0B5D187D0BDD0FA
:1027C000BED181D18220D0B7D0B020D187D0B8D1AE
:1027D00081D182D0B0D187D0BAD0B83A2000D09E73
:1027E000D185D0BBD0B0D0B4D0B8D182D0B5D0BB19
:1027F000D0BDD0B020D182D0B5D187D0BDD0BED190
:1028000081D1823A2000D09FD180D0B5D0B4D0BD44
:10281000D0B820D0BDD0B020D181D0BFD0B8D18029
:10282000D0B0D187D0BAD0B83A2000D09FD180D0D4
:10283000B5D185D0BED0B42000D0B4D0BE20D181D7
:10284000D0BBD0B5D0B4D0B2D0B0D189D0B8D18FB0
:1028500020D0BFD18AD182210000592839282B28C5
:102860000628DE27B727912786277B276A2759273F
:102870004C2739272C2717270827F326E026D326AD
:10288000C2269226522625260C26E025AF25832532
:1028900060254625352520250F25D3249924762427
:1028A000512425240024FE23D623B6239123732309
:1028B0005E2342231C23FC22E322BE2298227322A1
:1028C0004D2229220D22E421BF219A217D215F2161
:1028D00039211B21FE20DE20B8209A205720192004
:1028E000D91FD61FD11FCE1FC81FAD1F1800300023
:1028F00060006C00E600F302BF038F03C701D6003F
:10290000E000700030023003F803EC0136001B00D9
:102910000D000700000000000000000000000000A3
:1029200000000000000000000000000000000000A7
:102930000000000000000000000000000000000097
:102940000000000000000000000000000000000087
:102950000000000000000000000000000000000077
:102960000000000000000000000000000000000067
:102970000000E0FF070000000000000000E0FF078B
:102980000000000000000000E0FF07000000000061
:1029900000000080C301000000000000000080C3B0
:1029A00001000000000000000080C30100000000E2
:1029B000F8FFFFFFFFC37F00000000F8FFFFFFFFED
:1029C000C37F00000000F8FFFFFFFFC37F0000008F
:1029D00000F8FFFFFFFFC37F000000003800000089
:1029E00000007800000000380000000000780000BF
:1029F00000803F000000000078000000803F0000E1
:102A000000000078000000803F0000000000780017
:102A10000000803F0000000000780000000000007F
:102A200000000000780000000000000000000078B6
:102A3000000000803F000000000078000000803FA0
:102A4000000000000078000000803F00000000004F
:102A500078000000803F00000000007800000000C7
:102A6000380000000000780000000038000000007E
:102A7000007800000000380000000000780000002E
:102A8000003800000000007800000000380000005E
:102A9000000078000000003800000000007800000E
:102AA000000038000000000078000000003800003E
:102AB00000000078000000003800000000007800EE
:102AC000000000380CC00004407800000000381EF0
:102AD000E0010EE07800000000383FF0031FF079BD
:102AE00000000000B87FF8873FF87B00000000F886
:102AF000FFFFFFFFFF7F00000000F8FFFFFFFFFF69
:102B00007F00000000F8FFFFFFFFFF7F00000000D4
:102B1000F8FFFFFFFFFF7F00000000F8FFFFFFFF4F
:102B2000FF7F00000000F8FFFFFFFFFF7F000000B5
:102B300000F8FFFFFFFFFF7F00000000F8FFFFFF2E
:102B4000FFFF7F00000000F8FFFFFFFFFF7F000096
:102B50000000F8FFFFFFFFFF7F00000000F8FFFF0D
:102B6000FFFFFF7F00000000F8FFFFFFFFFF7F0077
:102B70000000000000000000000000000000000055
:102B80000000000000000000000000000000000045
:102B90000000000000000000000000000000000035
:102BA0000000000000000000000000000000000025
:102BB0000000000000000000000000000000000015
:102BC0000000000000000000000000000000000005
:102BD000000000005600000000000000000000009F
:102BE00000000000000000000000000000000000E5
:102BF00000000000000000000000000000000000D5
:102C000000000000000000000000000000000000C4
:102C100000000000000000000000000000000000B4
:102C200000000000000000000000000000000000A4
:102C30000000000000000000000000000000000094
:102C40000000000000000000000000000000000084
:102C500000F07F0000C0FF0100000000F07F0000D6
:102C6000C0FF0100000000F07F0000C0FF01000075
:102C70000000F07F0000C0FF0100000000F07F00B6
:102C800000C0FF01000000FEFFFFFFFFFFFFFF1F6E
:102C90000000FEFFFFFFFFFFFFFF1F0000FEFFFF22
:102CA000FFFFFFFFFF1F0000FEFFFFFFFFFFFFFF13
:102CB0001F0000FEFFFFFFFFFFFFFF1F0000FEFFE2
:102CC000FFFFFFFFFFFF1F00003E000000000000AD
:102CD000001F00003E000000000000001F00003E3A
:102CE000000000000000001F00003E000000000087
:102CF00000001F00003E000000000000001F000058
:102D00003E000000000000001F00003E0000000028
:102D10000000001F00003E00000000001E001F0019
:102D2000003E00000000001E001F00003E000000EA
:102D300000001E001F00003E00000000001E001FDB
:102D400000003E00000000001E001F00003EF8FFD3
:102D50000000F0FF031F00003EF8FF0000F0FF033B
:102D60001F00003EF8FF0000F0FF031F00003EF8C8
:102D7000FF0000F0FF031F00003E00000000001EE7
:102D8000001F00003E00000000001E001F00003E6B
:102D900000000000001E001F00003E0000000000B8
:102DA0001E001F00003E00000000001E001F00006B
:102DB0003E000000000000001F00003E0000000078
:102DC0000000001F00003E000000000000001F0087
:102DD000003E000000000000001F00003E00000058
:102DE000000000001F00003E000000000000001F67
:102DF0000000FEFFFFFFFFFFFFFF1F0000FEFFFFC1
:102E0000FFFFFFFFFF1F0000FEFFFFFFFFFFFFFFB1
:102E10001F0000FEFFFFFFFFFFFFFF1F0000FEFF80
:102E2000FFFFFFFFFFFF1F0000FEFFFFFFFFFFFF91
:102E3000FF1F000000000000000000000000000074
:102E40000000000000000000000000000000000082
:102E50000000000000000000000000000000000072
:102E60000000000000000000000000000000000062
:102E70000000000000000000000000000000000052
:102E80000000000000000000000000000000000042
:102E90000000000000000000000000000000000032
:102EA0000000000000000000000000000000000022
:102EB0000000000000000000000000000000000012
:102EC0000000000000000000000000000000000002
:102ED00000000000000000000000000000000000F2
:102EE00000000000000000000000000000000000E2
:102EF00000000000000000000000000000000000D2
:102F000000000000000000C0FF03000000000000FF
:102F10001E00C0FF07000000000000FE00C0FF0709
:102F2000000000600000FF07C0FF07000000FC0079
:102F300000FF3FC0FF03000080FF0000FFFF00FE16
:102F4000000000C0FF0080DFFF03FE000000FCFF68
:102F500000801FFF03FE000080FF7F00800FFCFF4A
:102F6000FF7F00F0FF0F00C00FE0FFFFFF01FEFF3B
:102F70000300C03FE0FFFFFFC3FFFF0300C0FFE00F
:102F8000FFFFFFFBFFFF0100C0FFF3FFFFFFFFFF9D
:102F9000FE000000FFFFFFFFFFFF0F7F000000F8B3
:102FA000FF070080FF813F000000C0FF0700003FD7
:102FB000801F00000000FE07000006C00F00000098
:102FC00000F007000000E00700010000E00700003B
:102FD00000F00300010000E007000000F803800398
:102FE0000000E007000000FC0180030000E0070093
:102FF0000000FC0080030000E007000000FE00C0AD
:10300000070000E0070000007F00C0070000E007A5
:103010000000803F00C0070000E0FFFFFFFF1F002F
:10302000C0070000E0FFFFFFFF0F0080030000E08B
:10303000FFFFFFFF070000000000C0FFFFFFFF03CE
:103040000000000000C0FFFFFFFF030000000000C1
:103050000000000000000000000000000000000070
:103060000000000000000000000000000000000060
:103070000000000000000000000000000000000050
:103080000000000000000000000000000000000040
:103090000000000000000000000000000000000030
:1030A00000000000000000F0017C001FC007F001DC
:1030B0000000FC0FFFC3FFF03FFC0F0000FFFFFF0D
:1030C000FFFFFFFFFF3F0000FFFFFFFFFFFFFFFFCE
:1030D0003F0000FFFFFFFFFFFFFFFF3F0000FFFF7C
:1030E000FFFFFFFFFFFF3F000007F0017C001FC054
:1030F0000730000000000000000000000000000099
:1031000000000000000000000000000000000000BF
:1031100000000000000000000000000000000000AF
:10312000000000000000000000000000000000009F
:10313000000000000000000000000000000000008F
:10314000000000000000000000000000000000007F
:10315000000000000000000000000000000000006F
:10316000000000000000000000000000000000005F
:103170000000000000000000000000FCFF00000054
:10318000000000000000FEFF010000000000001829
:1031900000FEFF016000000000003C001EE001F0A6
:1031A00000000000007E001EE001F80100000000A9
:1031B000FC001EE001FC0000000000F8011EE00120
:1031C0007E0000000000F0033EF0013F0000000020
:1031D00000E001FEFF011E0000000000C000FEFF35
:1031E000010C000000000000C0FFFF0F0000000005
:1031F000000000E0FFFF1F00000000000000F0FFE3
:10320000FF3F00000000000000F81FE07F0000000A
:1032100000000000FC0780FF00000000000000FC30
:103220000100FE00000000000000FE0000FC0100A4
:1032300000000000007F0003F80300000000000011
:103240003F8007F0030000000000801FC00FE00770
:103250000000000000801FC00FE007000000000019
:10326000C00FC00FC00F0000000000C00FC00FC093
:103270000F0000000000C00F8007C00F000000001A
:10328000FFC1078007800FFE030000FFC107800712
:10329000800FFE030000FFC1078007800FFE0300C0
:1032A00000FFC1070003800FFE030000FFC10700FD
:1032B00003800FFE03000000C0070003800F000022
:1032C000000000C00F0003C00F0000000000C00F8E
:1032D0000003C00F0000000000800F0000C00700C6
:1032E00000000000801F0000E00700000000000058
:1032F0001F0000E0030000000000003F0003F00397
:103300000000000000007E0003F801000000000043
:1033100000FE0000FC01000000000000FC0300FFB4
:1033200000000000000000F80FC07F000000000057
:103330000000F03FF03F00000000000000F0FFFF41
:103340003F00000000000040C0FFFF0F0800000029
:103350000000E000FFFF031C0000000000F001FE81
:10336000FF013E0000000000F801E01F007E0000A9
:10337000000000FC00000000FC00000000007E00D7
:10338000000000F801000000003E00000000F00115
:10339000000000001C00000000E000000000000829
:1033A00000800700400000000000000080070000CF
:1033B0000000000000000080070000000000000086
:1033C00000008007000000000000000000800700EF
:1033D0000000000000000000800700000000000066
:1033E00000000080070000000000000000008007CF
:1033F0000000000000000000008007000000000046
:1034000000000000000000000000000000000000BC
:1034100000000000000000000000000000000000AC
:10342000000000000000000000000000000000009C
:10343000000000000000000000000000000000008C
:10344000000000000000000000000000000000007C
:10345000000000000000000000000000000000006C
:10346000000000000000000000000000000000005C
:103470000000F0FF000000000000001800FEFF0741
:103480008001000000003C80FFFF1FC0030000001F
:10349000007CE0FFFF7FE003000000003EF8FFFF3C
:1034A000FFC107000000001FFC1F80FF830F00000A
:1034B00000801FFE0300FC871F000000800FFE013C
:1034C00000F8071F000000C0077F0000E00F3E006B
:1034D0000000C0873F000FC01F3E000000E0C31F78
:1034E000000F803F7C000000E0C30F000F003F7C16
:1034F000000000F0E107000F007EF8000000F0E19E
:1035000003000F007CF8000000F8F003000F00FC3F
:10351000F001000078F001000F00F8E001000078F1
:10352000F800000F00F0E101000078F800000F0043
:10353000F0E101000078F800000F00F0E101000068
:1035400038F800000F00F0C10100003C7800000FC7
:1035500000E0C10300003C7800000F00E0C1030060
:10356000003C7800000F00E0C10300003C78000040
:103570000F00E0C10300003C7800000F00E0C10331
:1035800000003C7800000F00E0C10300003C780020
:10359000000F00E0C10300003CF800000F00F0C184
:1035A0000300003CF800000F00F0C103000038F8F1
:1035B00000000F00F0C101000078F800000F00F0DB
:1035C000E101000078F001000000F8E0010000785F
:1035D000F001000000F8E0010000F0F0030000003E
:1035E000FCF0000000F0E1070006007EF80000009B
:1035F000F0E107000F007EF8000000E0C30F801F1D
:10360000003F7C000000E0831F801F801F7C0000C3
:1036100000C0873F000FC01F3E000000C0077F00B2
:1036200006E00F3E000000C00FFE0100F8073F005B
:103630000000801FFC0700FE831F000000003FF811
:103640007FE0FFC10F000000003EF0FFFFFFC0075A
:10365000000000007CC0FFFF3FE0030000000038D6
:1036600080FFFF1FC001000000001800FCFF038066
:1036700001000000000000801F00000000000000AA
:10368000000000000000000000000000000000003A
:10369000000000000000000000000000000000002A
:1036A000000000000000000000000000000000001A
:1036B000000000000000000000000000000000000A
:1036C00000000000000000000000000000000000FA
:1036D00000000000000000000000000000000000EA
:1036E00000000000000000000000000000000000DA
:1036F00000000000000000000000000000000000CA
:1037000000000000000000000000000000000000B9
:10371000000000000000000000000000001F00008A
:1037200000000000000000803F00000000000000DA
:103730000000803F000000000000000000803F000B
:103740000000000000000000803F000000000000BA
:10375000000000803F000000000000000000803FEB
:1037600000000000000000000080FFFF03000000D8
:103770000000000080FFFF03000000000000008048
:10378000FFFF030000000000000080FFFF030000B7
:103790000000000000803F0000000000000000006A
:1037A000803F000000000000000000803F0000009B
:1037B000000000000000803F00000000000000004A
:1037C0000080FFFF030000000000000080FFFF03F7
:1037D0000000000000000080FFFF03000000000068
:1037E000000080FFFF0300000000000000803F0099
:1037F0000000000000000000803F0000000000000A
:10380000000000803F000000000000000000803F3A
:10381000000000000000000000803F0000000000E9
:103820000000000080FFFF03000000000000008097
:10383000FFFF030000000000000080FFFF03000006
:10384000000000000080FFFF0300000000000000F7
:10385000803F000000000000000000803F000000EA
:10386000000000000000803F000000000000000099
:1038700000803F000000000000000000C07F00004A
:1038800000000000E07C00C07F00C0E7000000FCFA
:10389000FF07E0FF00FCFF070000FCFF7FE0FFC028
:1038A000FFFF070000FCFFFFE0FFE0FFFF07000055
:1038B000F88FFFC07FE03FFE0300000000F8C07FEC
:1038C000E00300000000000000803F000000000056
:1038D00000000000000E00000000000000000000DA
:1038E00000000000000000000000000000000000D8
:1038F00000000000000000000000000000000400C4
:103900000000000004000000001E001E000F000F59
:10391000000000003E807FC03F800F00000000FCE0
:10392000E0FFFFFFE00700000000F8FFFFFFFFFFE0
:103930000300000000F0FFF3FFF9FF0100000000AA
:10394000C07FC07FC07F0000000000001F803F00DC
:103950001F00000000000000000E0000000000003A
:103960000000000000000000000000000000000057
:103970000000000000000000000000000000000047
:103980000000000000000000000000000000000037
:103990000000000000000000000000000000000027
:1039A0000000000000000000000000000000000017
:1039B0000000000000000000000000000000000007
:1039C0000000000000007070000000000000000017
:1039D00008707080000000000000001C78F0C0013A
:1039E0000000000000003E3CE0E103000000000099
:1039F000003C3CE0E1010000000000007C1EC0F340
:103A000001000000000000781EC0F300000000006C
:103A10000000F00F807F00000000000000F00F8029
:103A20007F000000000000F0FF0700FF7F000000A3
:103A30000000F8FF0300FEFF0000000000F8FF0395
:103A400000FEFF0000000000F0FF0700FF7F000005
:103A5000000000008007000F0000000000000000D0
:103A60000F800700000000000000000F800700002A
:103A70000000000000001EC0030000000000000362
:103A8000001EC00300060000008003003CE00100AF
:103A90000E0000008007007CF001000F0000000015
:103AA0000F0078F0008007000000000F00F8F80019
:103AB0008007000000001F00F07800C00700000031
:103AC000001E00F07D00C003000000003E00E03F4B
:103AD00000E003000000003C00E03F00E0010000C7
:103AE00000007C00C01F00F001000000F8FFFFFF95
:103AF000FFFFFFFF000000F8FFFFFFFFFFFFFF00D9
:103B00000000F8FFFFFFFFFFFFFF000000F8FFFFCE
:103B1000FFFFFFFFFF000000007C00E03F00F0011E
:103B2000000000003E00E03F00E003000000001E37
:103B300000F07D00C003000000001F00F07800C00E
:103B400007000000000F0078F000800700000080F0
:103B50000F0078F000800F0000008007003CE001BB
:103B6000000F000000C003003EE003001E00000044
:103B70008001001EC003000C0000000000000F8048
:103B80000700000000000000000F80070000000098
:103B90000000008007000F00000000000000C007C8
:103BA000001F000000000000F8FF0300FEFF0000FF
:103BB000000000F8FF0300FEFF0000000000F8FF17
:103BC0000300FEFF000000000000F80700FF0000F7
:103BD0000000000000F80700FF00000000000000E7
:103BE000780F80F7000000000000003C0E80E30129
:103BF0000000000000003C1EC0E3010000000000C7
:103C0000001E3CE0C1030000000000001E3CE0C1BB
:103C1000030000000000000C78F0800100000000AC
:103C200000000038E000000000000000000010402C
:103C30000000000000000000000000000000000084
:103C40000000000000000000000000000000000074
:103C50000000000000000000000000000000000064
:103C60000000000000000000000000000000000054
:103C70000000000000000000000000000000000044
:103C80000000000000000000000000000000000034
:103C90000000000000000000000000000000000024
:103CA000000000000000E001003C000000000000F7
:103CB00000FC39E0FC01000000000000FE79F0FC8F
:103CC00003000000000000FFF9F8FC0700000000FE
:103CD00000001FF8FDC00700000000000006F07F94
:103CE000000300000000004000C01F0010000000A2
:103CF0000000E001C01F003C0000000000E0018067
:103D00000F003C0000000000E0010007003C000044
:103D1000000000F000000000780000000000F0004B
:103D2000800F007800000000000000800F000000FD
:103D3000000000000000C01F0000000000000000A4
:103D400080FFFF0F00000000000000F8FFFFFF00F1
:103D5000000000000000FEFFFFFF03000000000065
:103D6000C0FF9FCFFF1F0000000000F0FF800FF892
:103D70007F0000000000F80F000780FF0000000037
:103D800000FE03000000FE03000000007F000000B2
:103D900000F007000000C03F00800F00E01F00009F
:103DA00000E00F00800F00803F000000F003008063
:103DB0000F00007E000000F80100800F0000FC00F2
:103DC0000000FC0000800F0000F80100007C0000F3
:103DD000800F0000F00100007C0000800F0000F068
:103DE000010000FC0000800F0000F8010000F80155
:103DF00000800F0000FC000000F003000000000045
:103E00007E000000E00700000000003F000000C04E
:103E10000F00800F00801F000000801F00800F0037
:103E2000C00F000000003F00800F00E0070000000E
:103E3000007E00800F00F00300000000FC00800FF7
:103E400000F80100000000F801000000FC00000084
:103E50000000F0030000007E0000000000E007808A
:103E60000F003F0000000000C00FF8FF801F00009F
:103E7000000000801FFEFFC30F000000000000BF15
:103E8000FFFFEF07000000000000FEFFF8FF030047
:103E90000000000000FC0F80FF0100000000000097
:103EA000F80300FE00000000000000F001007C00AC
:103EB000000000000000E0000038000000000000EA
:103EC00000000000000000000000000000000000F2
:103ED00000000000000000000000000000000000E2
:103EE00000000000000000000000000000000000D2
:103EF00000000000000000000000000000000000C2
:103F000000000000000000000000000000000000B1
:103F1000000000000000000020002300260029000F
:103F20002C002F00320000010000030106010901EE
:103F300005050505070508080808020202020A0A25
:103F40000808040404040101010101010101030343
:103F5000030303030303040707070C0C0C0C0C0CEE
:103F60000C0C0202020206060606060606060B0BEB
:103F70000B0B0B0B0B0B010210202008081020402C
:103F8000102040800201020108040201010204081D
:103F900010204080804020100804020180040201AB
:103FA00080402010080402010804020101020408F4
:103FB00010204080010204081020408000000A0BFD
:103FC00002090C0D0E0807030401000000000000A8
:103FD00000000000000000000000000000000000E1
:103FE000000000000000000012111000000000009E
:103FF00000000000000000000000000000000000C1
:10400000000000002200250028002B002E003100B7
:10401000340002010000050108010B0102C5000384
:10402000030404030505100FFCFD08FD09FE017DD6
:1040300002FD0A3C20050084132108928413871294
:1040400001220833AD15119500231186845791582C
:1040500024628A442C69915824042411A57C57B108
:10406000498A242694A4485266210025138884395D
:10407000A22CA19050128E084529A1240900260FD8
:104080008684372351442A13D166110A002706314A
:10409000AC1203280CB47454129144A49B482629F2
:1040A0000DB4731432914CA48B4822022A0B55A4F0
:1040B000562929934C21002B0A559456C150291892
:1040C000022C084274131409002D06139C14032EAD
:1040D00006228413042F0BA47C542A225D444A0038
:1040E000300B86843714119F2414003108838557C0
:1040F000918A1E320B8684379498504D9B01330E63
:104100008684379498503415CE2414003410878454
:1041100097C259441611852447A90400350E868498
:104120005724D98C1412CE241400360C868477DAE6
:104130002A2226090500370D8684174699502694B1
:10414000096500380E868437141149421131492817
:1041500000390C86843714119384A611003A076243
:10416000841344023B09827413448A04003C0955B9
:104170008C962189541A3D07359416D5023E0A556E
:104180008C1651155110003F0E95843693904C6556
:104190002487C84400401CBB6C9C4569280E499A82
:1041A00044443189241892C4244913591C260E9A78
:1041B00000410F878478D1E14C2292882A329A00FC
:1041C000420C8684171511E92262BA00430C8784D9
:1041D0005824D954B32C4401440C8784182515194C
:1041E0004F921200450A858416371945A656460B8C
:1041F000858416371945A60D00470E87845824D9A3
:1042000054C52611892800480B87841832B6038DBF
:104210009B0049078284130F024A08848455FA548C
:10422000014B1087841832924489261149442A325E
:10423000014C08868417427D344D1389845AB1603D
:104240002C36194D4617C984322185044E0E8884B8
:1042500019C29A892221D98AD4004F0E88845934F0
:104260009144C85122929100500B8684171511D3A6
:1042700045A808510FA87459349144C8512292118D
:10428000A507520D86841724895E4824899200531D
:104290000D85843613D18C441B492600540986842D
:1042A0001726A13E01550C888419423E4A44321219
:1042B00000560E878418329A4449221BAEC6005716
:1042C000178B841BB2186924914C4492896C329CE0
:1042D0004C63E1580C005810878418328992443698
:1042E0009C4944123501590D8884184289481B5550
:1042F000AC0D005A0B8784384655A154283C5B0806
:10430000A37C1415FD325C0BA47C142299483791D0
:10431000025D08A37C1413FD525E0B559C56B148F8
:104320002892260B5F0616741606600723B4142223
:1043300001610A6585379209170901620C95851795
:1043400032358A848B0500630A64853695914A6408
:1043500000640A9585775A2C5C2404650A658537C4
:104360001309C52224660C95845413998824D30913
:1043700000670D956D37920917096D249900680B38
:1043800095851732358A8417016908928413A443EE
:10439000016A0AC46B53CA227D51026B0C958516C3
:1043A000322D070A4542116C079284130F046D0EDB
:1043B00068851A17158A8422A148280A6E0965851E
:1043C0001714092F026F0B658537130917C90400ED
:1043D000700C956D1711152E16991A00710B956DAD
:1043E00037920917094D03720A648515128A48131A
:1043F000007309648435A5A50A00740B85845531C2
:104400005145A651027509658517125E2404760C84
:10441000658416128A64340B86007710698419A2A9
:10442000106522394D6612612C04780C67841732AE
:1044300089DA70265113790E966C162292844413F1
:10444000AA0965007A0A668417364599CC007B0C68
:10445000B4745412911699489B007C07C16D138760
:10446000027D0DB4731432913689488B08007E08A2
:10447000269C372215008019AA85FCA01825168CC9
:104480000523A158285B28128C0563115A1C04814E
:1044900018A9843C714024268A858272801C2007DA
:1044A000C8017248282C0182189B8C3C4539243560
:1044B0001212CA22B1C9244C895682918304008306
:1044C000179B8C3C163A640E884C6391586C12A66C
:1044D000442BC1C8410284158B857CC1E068123A27
:1044E0008C4C22A2681611C56252008516BC847CD1
:1044F000D6702C268B04F51D26144662B2E4A80D56
:1045000000861BBC849CD1E02C3849AB444BC15283
:10451000E4100A56E28049F22C1C8D008715B984FC
:104520007CD3586A240E104542B294C824566C9D20
:10453000018818AC8CBC7268F08E76984323744066
:1045400030148B84D242C20900891ACC7C3CC1A4AD
:1045500038203C87944F924BEC5C878CE380503042
:10456000288D028A129A8DBC71901C32874C0EE302
:1045700075801C12048B22BB843CA14828228B89A5
:10458000B24A64A15828220A4942B1504C220D2552
:10459000C96292502414018C0611B21C01A00500BE
:1045A0008413A108926C13A44301A20B84855621A5
:1045B0004A7E1A4500A30D868457235144283309A7
:1045C0004506A408449516255101A50E8884184275
:1045D00089481BCD2834CA00A607A175132402A759
:1045E00014C56C56A294A0282209912292903012F0
:1045F0000A8900A80825B314128A00A912888459D0
:10460000B460243491042541D124314602AA0944DE
:10461000A43524516400AB09348D3611492812ACFD
:1046200007359C16C504AD06139C1403AE1488848C
:1046300059B460243292842292912414498C9100BE
:10464000AF0616CC1606B00A44A434929028220174
:10465000B10B758C56C15029180714B209539D35FA
:1046600099229101B309539D15B2486C02B40723F6
:10467000B4341400B50B956D17125E0E323500B6CA
:1046800017A7743787498412A18426C14830128C39
:104690000423C1480400B706229C1304B808336DF4
:1046A00034A20900B907529D35930CBA0A44A435C7
:1046B0009290282201BB0A348D169150441201BCFD
:1046C0001488853AC1882CA74828129145D2229493
:1046D000600400BD1387853AB18828168A45922464
:1046E0001923B1486C00BE1489841AC3A4982C1AEB
:1046F0004999448491C408291801BF0E956C56321B
:104700003944349129452600C011B78458623934A0
:104710003A9C49441251454613C111B78498EAD0D6
:10472000E8702611494415194D00C212B78478D19A
:10473000481C1A1DCE242289A822A309C313B784BA
:10474000789158240E8D0E671291445491D104C46F
:1047500012B784384A1239303A9C494412514546BE
:1047600013C513C78478D148340E8E0E6712914456
:104770005491D104C60F89859B352A513293C86C58
:10478000223502C70FB76C5824D954B32C441407F0
:104790006500C80CB5843642F14D4691A915C90C87
:1047A000B5847622F14D4691A915CA0DB58456B14E
:1047B00048F826A3C8D40ACB0DB58416128AF4266D
:1047C000A3C8D40ACC09B3831322A1443FCD09B3B3
:1047D000843344897E01CE0AB38433D924FA050098
:1047E000CF0BB58313128A58A69F00D01088833848
:1047F0003591DA454D229388442500D112B8847949
:104800009160240E14D64C1409C956A406D212B8CD
:10481000845972801C4C1349841C2522190900D329
:1048200011B88499523998269208394A44321200B4
:10483000D412B88499E1481C4A1349841C252219D2
:104840000900D512B884799160240EA68924428E7D
:1048500012918C04D612B884591299440EA489245A
:10486000428E12918C04D707339516911CD8138869
:104870008459948848222B4528A19A442489900081
:10488000D90FB8845972801C28E4A344242301DA88
:104890000EB88499523950C84789484602DB0FB890
:1048A0008499E1481C26E4A344242301DC10B88445
:1048B000591299440E12F25122929100DD0EB884E1
:1048C0009852395045A48D2AD606DE0C868417C22C
:1048D0008A88E9221402DF0C95853713098B45C2BB
:1048E0006201E00C95853742394032E12221E10C2A
:1048F00095857722394032E12221E20D958557B125
:10490000481C2099709110E30D95855791EC00C9D2
:10491000848B8400E40C958517128A5832E1222199
:10492000E50EA58557B1482C0E914CB84808E60F06
:1049300069853B17918424215144C20901E70D94F4
:104940006D3695914A64228B8800E80D9585374233
:10495000396022A1588404E90C958557EA9089842E
:10496000621112EA0E958557B1481C3091502C42C5
:1049700002EB0D958517128A7822A1588404EC0960
:1049800093831322A1440FED0993843344895E007D
:10499000EE09938433D9247A01EF0B958313128A9D
:1049A00058A62700F00E95853711912812B2709104
:1049B0004C00F10B95855791CC14092F02F20D95FF
:1049C000853742396022E1229900F30D95857722DF
:1049D000396022E1229900F40E958557B1481C30C8
:1049E0009170914C00F50D95855791EC8089848BE1
:1049F0006402F60D958517128A7822E1229900F754
:104A00000C768C564239C40E118A00F80965853738
:104A100096C3C502F90B95853742B184170901FA8F
:104A20000B958557EA00092F1202FB0C958557B1AB
:104A30004858C28B8400FC0C958517128A54C28B8F
:104A40008400FD10C66C76EA10114942A209D58493
:104A50003200FE0DC56D1732358A848B45A606FFE0
:104A60000FB66C16129D4812124DA8269401000034
:104A7000010011A7845874607438938824A28A8C2A
:104A80002601010C85853764C9848B8400010212DC
:104A9000B784588972687438938824A28A8C260156
:104AA000030E958537A1901C209970911001041276
:104AB000B76C78D1E14C2292882A329A341D2001B9
:104AC000050D956D37920917092D550001060FB791
:104AD0008498EA40926CAA5916A20001070C9485AA
:104AE00056127165A41219010C11B7847891681CD3
:104AF00048924D35CB421400010D0C94853649E1A6
:104B0000CA482532010E0FB78438A971604945C6DD
:104B100093A404010F15988579129944268A50228E
:104B20006A1299442611D2000110118883383591F8
:104B3000DA454D22938844250001110D9685773280
:104B40009A88A23F510001120CA58436D49B8C2276
:104B5000532B01130C858537E489846211120116E9
:104B60000DB5845632F14D4691A91501170E958564
:104B70005732396022A158840401180FB66C1615FB
:104B8000A1902454AC06C30201190E966D372389F7
:104B9000169294180D0B011A0EB584366971C04D2A
:104BA0004691A915011B0E9585376971C84442B11C
:104BB0000809011E11A784588942926CAA62938841
:104BC000441400011F11B56D17A1904C32E122A1D0
:104BD0008D241300012212B76C5824D954C5261114
:104BE00089E840690C00012311C56D5741394032F5
:104BF000E122A18D241300012A0AA4831354917E7B
:104C000001012B0A84831354915E00012E0BB36CB7
:104C10001312FD128A09012F0BC36B338A12BDA434
:104C200009013008A284130F06013108628413873A
:104C300002013614B76C1832924489261149442A6D
:104C400032394C1A03013711C56D16322D070A454A
:104C500042910364210001390CB68457323948A8C7
:104C60008F06013A0AB3843314FD0B00013B0DB6E5
:104C70006C17427DB443843100013C0AC26C130FAF
:104C8000A40900013D0C86841722B65144A868018E
:104C90003E0D95841512A64944A61B0001410D87BF
:104CA00083375295D85038951A01420D9483332298
:104CB000A58964A40500014311B88499523950585C
:104CC000335124245B911A01440C95857722314598
:104CD000C28B00014512B86C19C29A892221D98A67
:104CE000D438501C0401460D956D1714092F72809D
:104CF0002C04014712B8847991701C28AC992812B1
:104D000092AD480D01480D95853769710045C28BFC
:104D100000014C11A8845974284D241172948864A0
:104D20002400014D0C858537E489848B6402015091
:104D300013B884791291440EA48924428E12918C66
:104D40000401511397855712EDA099442411494449
:104D500012D90C000152148C845D948A6C269549FA
:104D600029529954289B520A01531069853B2B22E2
:104D7000094942A288841302015410B68477EA10CC
:104D800092442F249244490001550C948535CA124F
:104D90008A481300015611B66C1724895E4824898D
:104DA000921C228C0101570D946D15128A483B40CC
:104DB0001402015810B6843789711049A21712499C
:104DC000A22401590D94853549510945A4090001D2
:104DD0005A11B58476223960229A916823C9040059
:104DE000015B0B948455127169A902015E11B56CC7
:104DF0003613D18C441B49E610590800015F0B940F
:104E00006C35A5A5B22804016011B584366971C856
:104E1000443423D14692090001610C94843549E160
:104E2000D252050001620DB66C1726A1BEC38431B3
:104E30000001630FB56C55315145A6510E90C50068
:104E400001640EB6845791601C6212EA130001657A
:104E50000EA684954A9190AC24D42A02016A0EA829
:104E600084597498908F12918C04016B0B8585374F
:104E700054092F1202016E11C88499E148380E14AA
:104E8000F25122929100016F0EA58557B1482C0E68
:104E900090F02221017011B884791291440E12F21F
:104EA000512292910001710E968537128A1C20D1F1
:104EB0003F5100017210B86C19423E4A4432AA3880
:104EC0000E110101730C966D1712FD13311A1601A4
:104ED0007812B884581299440E124A44DAA8626DC6
:104EE0000001790EB78498EA30A3AA502A141E0153
:104EF0007A0C968477EA109BA24C66017B0FB784EC
:104F0000785239CCA82A940A8507017C0D968457DB
:104F10004239C4A6289319017D10B7847891681C82
:104F20006654154A85C203017E0E96845791601C13
:104F3000625394C90C01920EC76BB54255B59A5491
:104F4000A32A0003850A36B37492834400038612B1
:104F50008883389298643A94C824B2924C221303FE
:104F60008707229C130403881289803692931C20A1
:104F70000750E50039400E2803890C8A8138348AAD
:104F80004CDB4D7F038A0985813316993E038C12D1
:104F90008B813922924635A14C28132A8949000376
:104FA0008E138B81384492AA484C87C84172901C5A
:104FB0002403038F158A823912924424138A84228F
:104FC000A148280BC6460303900EA6827392834421
:104FD0000E11EA2A01039110878478D1E14C2292C4
:104FE000882A329A0003920D8684171511E92262ED
:104FF000BA00039309858416377D030394108784D0
:1050000059C35949229288246A070103950B858464
:1050100016371945A65603960C8784384655A15471
:10502000283C03970C87841832B6038D9B000398A5
:10503000118884593491444891108912918C040349
:1050400099088284130F02039A11878418329244BC
:1050500089261149442A3201039B10878479D1E1C2
:105060004C229288246A3401039C1489845AB160CA
:105070002C36194D4617C98432218504039D0F88AB
:105080008419C29A892221D98AD400039E0B87846D
:105090001877943A9603039F0F888459349144C833
:1050A000512292910003A00A8784180719BF0903AF
:1050B000A10C8684171511D345A80803A30C878477
:1050C0001717B1A254283C03A40A86841726A13ED0
:1050D0000103A50E8884184289481B55AC0D0003B6
:1050E000A611888479428B0A45429150548C320033
:1050F00003A71187841832899244369C494412359B
:105100000103A81288851A120945429150241415EA
:10511000A3580603A90F888459349144C851128CAE
:105120008C0603AA0CB58313128A58A69F0003AB02
:1051300012B884581299440E124A44DAA8626D00DB
:1051400003AC0C9585772239C0C2454203AD0D945E
:1051500085561271852292440603AE0DC56D57EA3D
:10516000008A8417990603AF0A93843344894E0258
:1051700003B00EA685779283442CD13F8D0003B1F6
:105180000A658537162E120203B20FC56D37130953
:105190008B45C26291A90103B30D966C16229284CD
:1051A0004413EA0403B40E96855714A96C24D14F16
:1051B000230003B50B648536158A48121903B60F10
:1051C000B4751624894822D23692480003B70B954D
:1051D0006D1714092F320D03B81095853713494404
:1051E0004239485824130003B909638413129D04FB
:1051F00003BA0C65851692038522A10803BB0D96A0
:10520000843642A9501B89221203BC0C956D1712DB
:105210005E0E32350003BD0D658416128A64340BB0
:10522000860003BE0FB575561399DA44A648134994
:105230000003BF0C658537130917C9040003C00EAE
:10524000678418172589482292881403C10D956D2B
:10525000371309178B4C0D0003C20C847536256D6E
:105260002389040003C30A66853717FD340203C48B
:105270000A6484151491360103C50B658517125E07
:1052800024130003C613C86C7862458B0A4542910B
:1052900050548C62350003C710956C16128A643422
:1052A0008B8D26128A0003C814C86C7962358984F4
:1052B00022A14828128A8A51AC0603C91068843991
:1052C00022899022A148289A240003CA0D958313AD
:1052D000128A58A6A3040003CB0D958517128A5491
:1052E000C28B640203CC0E95857722396022E122BD
:1052F000990003CD0D958557EA00092F9209000307
:10530000CE13988499523954241152241409459388
:10531000040004010EB58416128AF426A3C8D40A28
:1053200004020D88841946714DA4BF480004030B84
:10533000B5847622F14DDF0004040F87845824D908
:10534000D42215CB42140004050E85843613D18C6B
:10535000441B4926000406088284130F0204070C2C
:10536000B58313128A58A69F00040809848455FA4D
:1053700054010409148B843C569154241595B48827
:105380005444225A0500040A158A841B22A1482885
:10539000121E242211494412912A00040B0C888405
:1053A0001946B1B826D20F040C13B78498EA201519
:1053B000C94489261149442A3201040E13B784587E
:1053C0008972904C2292A84D8552D91000040F0D7D
:1053D000A87419427E3CCCA4420004101087847843
:1053E000D1E14C2292882A329A0004110D8684174A
:1053F00015A1B02262BA0004120D8684171511E9B6
:105400002262BA00041309858416377D0304141739
:10541000A77438258948229288242289482239880D
:105420002421110004150B858416371945A656044E
:1054300016148C841D3291969944D52A5194A889CA
:1054400054640A04170F8684379498503415CE2478
:10545000140004180F888419425AC92231D5885380
:1054600001041912B88459A972A09056B2484C355B
:10547000E25400041A12878418228964A244938893
:105480002422159900041B12878438169144241194
:1054900049441291444413041C1489845AB1602C69
:1054A00036194D4617C98432218504041D0C8784A2
:1054B0001832B6038D9B00041E0F88845934914422
:1054C000C85122929100041F0A8784180719BF0946
:1054D00004200C8684171511D345A80804210D87D4
:1054E000845824D954B32C440104220A86841726F4
:1054F000A13E01042310878418328948A236154A38
:10550000654300042411888479428B0A45429150F6
:10551000548C320004251187841832899244369CB9
:105520004944123501042616A8741832894C229376
:10553000C82432894C22931CA24A0004270B87847A
:1055400018326E12AB060428148A841B22114944B7
:1055500012914424114944121D0A042919AB741BE9
:105560002215918A4845A4225211A988540E7488A4
:105570001C2202042A0F87841853D5928A4822924B
:105580005400042B1089841A52D613494292902455
:105590002701042C0C86841742C58A88E902042D51
:1055A0000F878438A498586295CE442400042E13A3
:1055B0008B841C329216C5234548119254642400F2
:1055C000042F0C868457147D6291900404300B657F
:1055D0008537920917090104310E95859721518C61
:1055E00022E122990004320C65851614894542B1E6
:1055F00000043309648515269D000434138774372D
:105600002589482292882492834812120104350B7E
:105610006585371309C5222404360E68851A1209D8
:1056200045896651A12804370B64841533894C548D
:105630000104380B658517A2C9E1321204390E95B1
:105640008537A1905834395C4602043A0C658516BA
:10565000124A8922A108043B0A66843715FD4212CA
:10566000043C10678437B1904424914C0E95880017
:10567000043D0B65851712CA41C222043E0C6585A4
:1056800037130917C90400043F09658517175E041D
:1056900004400D956D1711152E16991A0004410B33
:1056A00064853695914A640004420A648415149115
:1056B0002E0004430F966C162292844413AA0965A7
:1056C00000044413C86C7862458B0A4542915054DB
:1056D0008C62350004450D6784173289DA702651D3
:1056E0001304460C86751712FD8B4D090004470BF9
:1056F0006584161216094D0104481168851A1209AD
:10570000454291502414C9610004490D89751A124B
:10571000FD7F39889500044A0C668417432149A20D
:105720008502044B0D678519329A85623944040459
:105730004C0C65851632194542B100044D0C648548
:105740001693886434A900044E1068851AA289CA89
:105750008522A148481300044F0B658436168A84BD
:10576000621104510E958517128A7822A15884047B
:1057700004520FC66C57B1929024D13FCA940004D2
:10578000530A948535CA269D0004540B648536154A
:105790008A48121904550A648435A5A50A000456DE
:1057A00009928413A4430104570C958313128A5859
:1057B000A6270004580BC46B53CA227D510204591A
:1057C0000F69853B4589504292E842A200045A0F76
:1057D00068851A1299447651A1485800045B0C96CA
:1057E0008457B1929024D13F045C0E958556EA000F
:1057F00009A544915004045E12C66C36A1981C227F
:1058000022494834A19A5006045F0C857517125E30
:105810002E2219000000204552524F523A20436177
:105820006E6E6F74207265736F6C76652074697428
:105830006C6520696E64657800005EBCE2613FDDE6
:1058400083C29C7E20A3FD1F419DC3217FFCA240FB
:105850001E5F01E3BD3E6082DC237D9FC1421CFED2
:10586000A0E1BF5D0380DE3C62BEE0025CDF8163DD
:105870003D7C22C09E1D43A1FF4618FAA427799BB8
:10588000C584DA3866E5BB5907DB856739BAE406B3
:10589000581947A5FB7826C49A653BD987045AB89E
:1058A000E6A7F91B45C6987A24F8A6441A99C72595
:1058B0007B3A6486D85B05E7B98CD2306EEDB35184
:1058C0000F4E10F2AC2F7193CD114FADF3702ECC63
:1058D00092D38D6F31B2EC0E50AFF1134DCE90726A
:1058E0002C6D33D18F0C52B0EE326C8ED0530DEF45
:1058F000B1F0AE4C1291CF2D73CA947628ABF51748
:10590000490856B4EA6937D58B5709EBB536688A2A
:10591000D495CB2977F4AA4816E9B7550B88D63425
:105920006A2B7597C94A14F6A8742AC896154BA90C
:10593000F7B6E80A54D7896B35002C122925120DC9
:105940000000808711241FBECFEFD1E2DEBFCDBFA4
:1059500000E00CBF15E0A0E0B2E0E2E4F4E301E017
:105960000BBF02C007900D92A639B107D9F72EE000
:10597000A6E9B5E001C01D92A535B207E1F71CE22A
:10598000C2EADCE200E006C021970109802FFE0197
:105990000E943C96C13AD10780E00807A9F70E940F
:1059A000A86D0C941F9A0C9400002F923F924F9276
:1059B0005F926F927F928F929F92AF92BF92CF929F
:1059C000DF92EF92FF920F931F93CF93DF93CDB7A8
:1059D000DEB7C25ED1090FB6F894DEBF0FBECDBFF1
:1059E0005C01DC0112968D919C91139704960E94A4
:1059F0008756FE01EF57FF4FCB52DF4FF983E88305
:105A0000C55DD04080919C058D3011F40C94133607
:105A1000A0F4843011F40C949D3940F4813009F4E1
:105A2000E4C1823011F40C948F361EC08B3009F41F
:105A3000D4C38C3009F453C617C0833611F40C94C8
:105A4000B13B48F4853111F40C940038863111F4DF
:105A50000C94EA3809C0853611F40C94943B20F07C
:105A60008957843008F4A1C6D50157961C925797E0
:105A70008091110290911202892BA9F45296ED9116
:105A8000FC91539711E01287178612968D919C9185
:105A900013970E94E643F501148E138E168B148A19
:105AA000158A0C94CD3BD5015C968C91843020F501
:105AB000813060F581E0D50155968C9355975496C9
:105AC0001C9254971E96ED91FC911F970280F381D2
:105AD000E02D12865296ED91FC915397128683E247
