:100000000C94312D0C946C630C9441630C94166326
:100010000C94EB620C94C0620C9495620C946A622E
:100020000C943F620C94622D0C94622D0C94622D02
:100030000C94622D0C949A4B0C94622D0C94622DAE
:100040000C94622D0C945C510C94622D0C94622DD6
:100050000C94622D0C94622D0C94622D0C94245AF5
:100060000C94622D0C94184B0C94EF4A0C94622D56
:100070000C94622D0C94622D0C94622D0C94622DC4
:100080000C94622D0C94622D0C94622D0C94622DB4
:100090000C94622D0C94622D0C94622D0C94976339
:1000A0000C94622D0C94622D0C94622D0C94622D94
:1000B0000C94622D0C94622D0C94622D0C94622D84
:1000C0000C94622D0C94622D0C94622D0C94C64AF3
:1000D0000C949D4A0C94622D0C94622D0C94622D0C
:1000E0000C94622D428350835F838783A183B58301
:1000F000CE83DF83EF830584E160E460D360D76063
:10010000DD601B61E860EC60F260F660FA6000613F
:10011000046108611B610E61126116618061856175
:100120008A6194619E611762A861B061B861C26121
:10013000CC61D661E561EF611762F96103620D621E
:100140001C682468FC6704680C6814682C683468B0
:1001500008000000BE922449123EABAAAA2ABECDD6
:10016000CCCC4C3E00000080BEABAAAAAA3E000048
:100170000000BF000000803F000000000008417840
:10018000D3BB4387D1133D190E3CC3BD4282AD2B77
:100190003E68EC8276BED98FE1A93E4C80EFFFBE6F
:1001A00001C4FF7F3F00000000004E414E494E4910
:1001B0005459494E46CDCCCC3D0AD7233C17B7D134
:1001C0003877CC2B329595E6241FB14F0A000020DA
:1001D000410000C84200401C4620BCBE4CCA1B0E59
:1001E0005AAEC59D7400407A10F35A00A0724E18A2
:1001F000090010A5D4E80000E87648170000E40BD9
:1002000054020000CA9A3B000000E1F5050000809E
:10021000969800000040420F000000A086010000F8
:1002200000102700000000E8030000000064000048
:100230000000000A00000000000100000000002C87
:1002400076D888DC674F0823DFC1DFAE59E1B1B74C
:1002500096E5E3E453C63AE651997696E8E6C28419
:1002600026EB898C9B62ED407C6FFCEFBC9C9F4031
:10027000F2BAA56FA5F490055A2AF75C936B6CF956
:10028000676DC11BFCE0E40D47FEF520E6B500D02C
:10029000ED902E0300943577050080841E08000041
:1002A000204E0A000000C80C333333330F986E120F
:1002B000831141EF8D2114893BE65516CFFEE6DB15
:1002C00018D1844B381BF77C1D901DA4BBE424205F
:1002D0003284725E228100C9F124ECA1E53D270041
:1002E000002100240027002A002D003000330001E7
:1002F000010000040107010A01526573746F726501
:100300002056616C75653A00416C61726D20706CAD
:10031000617920617420002020002000001F00006F
:10032000000000FF0000000000FF0000000000FED1
:100330000000000000F80000000000F001000000D4
:1003400000E00100000000E00100000000E001000A
:10035000000000E00100000000E00100000000E0FB
:100360000100000000E00300000000C003000000E6
:1003700000C00300000000C00300030000C003C071
:10038000030000C00FF0030000C03FFC030000C0EA
:10039000FFFF03000080FFFF03000080FFFF01005C
:1003A0000080E7E70100008087E10100008007E0AE
:1003B0000100008007E0010000800FE00100000064
:1003C0000FF0010000000FF0000000000FF000002F
:1003D00000000FF0000000C00FF0000000C00FF0A0
:1003E000000000C01FF8000000C07FFE0000008079
:1003F000FF7F00000000FE3F00000000F80F00003B
:100400000000C00300000000000000003CEFF939CC
:10041000B3076C6F6B6DB3076C63636CB7013C67BC
:10042000636CB7036CE7616CBF036C63636CBB0107
:100430006C6F636CBB073C6F6338B3072020004BC5
:100440004D48200052504D200045435520002F00BC
:10045000202020424C42200044535420004F444F5F
:100460002000454E472000475253200057524B2052
:10047000005D005B004552524F523A2043616E6E60
:100480006F742066696E6420637572736F72206684
:100490006F722064656C6574696E67202E2E2E2E37
:1004A00020004552524F523A2044454C4554452075
:1004B00074726970204320004552524F523A2044D2
:1004C000454C4554452074726970204220004552C5
:1004D000524F523A2044454C45544520747269703D
:1004E000204120003E004552524F523A205472693A
:1004F0007020637572736F72206F7574206F662041
:1005000072616E6765202E2E2E2E20004E4F5449AC
:1005100043453A2044656C65746520747269702E99
:100520002E2E2E2000424E5A2076616C75653A20A0
:10053000002A004C50472074616E6B3A2020004E18
:100540000052616E67653A20003E003E003E003E6C
:10055000002028202B2F2D20352520746F6C6572EC
:10056000616E6365290056200020546F2072657308
:10057000657420686F6C6420232B24200020507247
:10058000657373202320746F207265736574206413
:10059000617461002054696D696E672062656C74D6
:1005A0002064697374616E63653A2000600005051C
:1005B0000607050707375500F13AF13A0107F01031
:1005C0001618052007000002CB00211387EE02ADAC
:1005D000E0FF07980F942270C1104400002222D03F
:1005E00062BFCD6230C32848110EE1124728862130
:1005F0000A528CC10C643003118E50021410002377
:100600008A9D8E02CB0921484208921082248420C0
:100610000921483ACA9110822484200921484208BD
:1006200092108224841CEA2048420892108224847A
:10063000200921484208928E728C0FFC07A282107A
:100640002421044908411242908410241DE55007DA
:1006500041CA07FE03D14008921082248420092158
:10066000483ACAA10E8224842009214842089210E7
:100670008224841CEA28474208921082248420099C
:1006800021484208928E72240024595D92E2CAEBFE
:10069000B0E74717F8B46851A83A57C9885216917D
:1006A000A444200B09088B1AD49EE7D8C32215B1A5
:1006B000484DA8DA5CD165AE3799B99A0A55D1A4EC
:1006C0002216A9883DACF39E066B874016229294B1
:1006D0000CA528242BD7A9D2B422E7C4A41EF6FC6B
:1006E00016002581DE8EFECCC460C840143294848E
:1006F000080621823988700C228E60184418A328BD
:10070000C83046519071048320852948610A62945B
:100710008220C420C938874555C4A22A62117B585B
:1007200054452CAA2216B1874555C422F6B0287B21
:1007300058943D2C620F8B3A853A4C7290B21884D3
:1007400034E520CF4088218E71948218022905312A
:1007500004520C71324F404E238EB48C43250361FA
:100760004501002673DD8E02CBEB98CD7B5AB4A6F3
:10077000549DCB2C6129C9490892108224841CEB1A
:1007800020C73AC8610F8B54C4221565918AD4647E
:100790002A73890C749EF39E06B5882101618740F7
:1007A000D83110E20C843804190E41864312E1144A
:1007B000443825098E41826390E01C1BAA90752C59
:1007C000D404E43401418B50CC3256242B98B9CE5A
:1007D00075AC54AD63202714C7E2BEAD621845A8BE
:1007E0004231883190810825200028434F6E07CD83
:1007F0006860843A1062908318E4200639C8390E84
:10080000728E833A073A0E720E747650E740E70F05
:10081000210785CE1072107420E4A0107290931CF2
:10082000E4240739C9414E728C542CA100293D4F54
:100830006E07CB6458053A4E7210841C04210741A0
:100840000742D0819083A01342D019420E82CEFF7E
:100850003B68E740C7419DE3A0CE7150063988410F
:100860004C6290832063112D40002A3999C6A6CB93
:10087000AAA0652D308509CA508A3290629406126A
:100880008A80842C5C6442CF6A58B31E34912B64F6
:10089000010945404619194A51861298C204ADA073
:1008A000650A002B1396052FCDE778E7873EF00702
:1008B000BC73BCF321002C1087E2F6AAA1085C30BF
:1008C000444184220A002D0AD6014BCDE01FF000DE
:1008D0002E0DC7E102ABA1085C30C420002F429C62
:1008E000AE02CB149908454D84A22642117A50D409
:1008F00044286A221435118A9A08454D8422F4A0AE
:10090000287A50D444286A221435118A9A08454D11
:100910008422F4A0287A50D444286A221445013055
:100920003D9D8E02CBEB988D8BD694AA73958C2C23
:100930006319CA5104B210812C24200D6ACF73FFB1
:10094000FFFFBFF734A821E1688740162294A38CEB
:1009500015C9CA75AA34ADC835F35800311B8EAE1F
:1009600003CDE7CCA04A8A28E2031FD0C23292729C
:100970009CF3FFFFFFFF0F325C9D8E02CBEB98CD07
:1009800083D694AA73958C306219CA5104B210812F
:100990002C24200D6ACF73BDA7410D09474382D196
:1009A0001041B864080FA1C94C284293995084267D
:1009B00033A1084D2842939950842633A1084D66EF
:1009C00042119A50842633A1084D6642119AD00FE5
:1009D000FC0722334D9D8EFECAE07F20A2094568A8
:1009E00032138AD0642614A1C94C284293995084AA
:1009F0002633A18B64A2F31E0735882A15B148451A
:100A00002C52117BFE5554111C3288868863254177
:100A100041C9600433B2729D2A4D0C7A0C2D1A0024
:100A200034479D8E02CB0AA9873D2AAA1EF6A8A8A4
:100A30007A54B47A54B47A54B47A54543DEC515143
:100A4000F5A8483912528E8494231DE64088391047
:100A5000620E8498031DE738C8390E728EF381FF49
:100A600040E4107BFE770035459D8E02CBE07F2071
:100A7000AB873DFF2388AAD065B092116D6CC2117F
:100A8000ABA384642101614840DAE39EE7BCC39EC6
:100A90003FEB3C97831AC410812C442448198C588E
:100AA0004856AE53A56945AE99C7020036559D8E8E
:100AB00002CBEB988D8BD694AA73958C2C8219CA95
:100AC0005104B21071B423200D72CE73ECF91B4A9D
:100AD000B2CE65B092116D6C82298A505212928505
:100AE00004A441ED71CF73FFDED3A086046421021C
:100AF0005988508E3256242BD7A9D2B422D7CC6332
:100B000001374D9D8E02CBE07F206350831A128EF9
:100B10008684A321E160493818220E86D014452A24
:100B200042138A54144D28525134A14845D184228D
:100B300015A1298A5484A62852119A50A4A2684269
:100B4000918AA209452A425314A9084D1A00386017
:100B50009D8E02CBEB988D8BD694AA73958C2C63CB
:100B600019CA5104B210812C24200D6ACF73DF7B87
:100B70001AD490802C44200B11CA51C68A64E53ADD
:100B8000559A5275AE9211A52823498940161290A4
:100B900006B5E7B9EF3D0D6A48381822908508E59B
:100BA000286345B2729D2A4D2B72CD3C16003954F4
:100BB0009D8E02CBEB988D8BD694AA73958C2C636B
:100BC00019CA5104B210812C24200D6ACF73FF3949
:100BD000A8410D09C84A429214A114466C434732F9
:100BE000731D2B29E3B0E7B3CE7339A8410C11C8AC
:100BF00042448294C1888564E53A559A56E49A79CC
:100C00002C003A1547E81EAB62181F1842F1C1AD1F
:100C10002270C1108300003B1707E912AB62181F56
:100C20001842F1C1AD2270C11005118A28003C3074
:100C300092482FCB6F70442B98A19094A0E4A84EBB
:100C40008292A342883A96C18A66B063212A514AA9
:100C500052544A292AA59075B4C2116F80023D10E2
:100C60005AC526CDE03FB07DF0F607FE810D3E2E41
:100C7000D2482BCB2088021C5ED10C762C44292A2A
:100C80004D292A4D21CC680533D6A11094EE282792
:100C900041A9842883158D70C30B22003F42DD8E4D
:100CA00002CBEB988D8BD694AA73958C2C63190A82
:100CB0004A44A2108130A841CE79CE3BECA9A2686B
:100CC0003293A948452E7191EA668A2215A9873D7B
:100CD000FFDF07F78A6BDCC39EAC8189060040D535
:100CE0007391C6F6B3F900993C9637FBCD0F08F126
:100CF00003C47392D398C7AC652E69B10A5270725F
:100D0000929D98842724594738084A4504198892A7
:100D10000A229034154420883287385065205419AF
:100D2000E82842390E420C721C741CE438E8741C2A
:100D3000743A0E3A1D079D8E834EC741A7E3A0D398
:100D400071D0E938E8741C743A0E3A1D079D8E8301
:100D50004EC741A7E3A0D371D0E938E8741C743AB8
:100D60000E3A1D079D8E838E831C07212629D051A4
:100D7000441324F481411CE8038338D20782812480
:100D80008F20CA098D4114339683B0031D29F900C1
:100D90004B3EC0920F2CE5034BF9C05A3EA0980F72
:100DA00024E803E50344FCC0203F20D0AF7A78DB81
:100DB000D80100416E9D8E02CBEBB04845681A55B4
:100DC000A622D7492632B00D3ACF712F7784C31DA2
:100DD0000169474018220E8688831DE360C738D812
:100DE000311085904321E4504739D4510E751424B5
:100DF0001D05418839D0710E749C031D0739C74108
:100E0000CC3D83911C41D4418E75906321E3608772
:100E100040D8218E7688A31DE26848381AE41E77F0
:100E20000042779D8E02CB006A93AA9075B082959E
:100E30008C208619874AC6B1127130441CED1047C8
:100E400043C2D19070B8231CEE084743C2D19070C2
:100E500034241C0C11C74AC4A114712465682323CF
:100E600058B9CC65B09211A434E348CA3856220E62
:100E70008688A321E1684838DCEBB9E75E0D0947B5
:100E800043C2C19270AC441C691187694646B07276
:100E900019EB546852500300433E9D8E02CB0A99D1
:100EA0008D8BD694AA73958C2C8219095204B2901A
:100EB0008034587B9ECB9EFFFFFF7BCE7B1AD49065
:100EC000803024200B110A4AC622189295EB5469EF
:100ED0005A916B26A20044399D8E02CB405A15BA16
:100EE0000C5632A28D4D206811C752C2D190703479
:100EF000241CEEF5DCFFFFFF9F7B35241C0D09C78A
:100F000052C29116B1096D64042B97A990B40045A3
:100F10001D9D8E02CBE07F20AB873DFFFFAC75ECC3
:100F2000770E7BFEFF2C523FF01F880046199D8EE6
:100F300002CBE07F20AB873DFFFFAC75EC770E7BEB
:100F4000FEFFFF2C0047429D8E02CB0A998D8BD667
:100F500094AA73958C2C6319095204B29080B0A89E
:100F600041ED792E7BFE1FAABFE7FEBDA7410D090B
:100F7000C84A02B292A09C452CA311DBD04856303F
:100F800073A1261CEB200748159D8E02CBE078EE5E
:100F9000FFFFDFFBC0FF9EFBFFFF7B07490B87EED8
:100FA00002ADE0FF3F30004A279D8E02CBF6FCFFEA
:100FB000FFFFFF679DE7725083DA219085080525C2
:100FC00083110BC9CA75AA34ADC8351351004B8BB8
:100FD0009D8E02CBE0685043C2C19270AC441C0BA2
:100FE00019874AC6A11072A4841C28290742CC7113
:100FF00012731CE41C26394749D051907490241D6B
:101000002351C740D62192750884450C6A8F7B9C7A
:10101000F39CD74026B2C5063ACF798F7B1CD48E7D
:1010200090B02324EC10C93A06B28E91A88324E92B
:1010300028483A4A820E83A0C324E73889391062CF
:101040000E94942325E450083954328E858C632500
:10105000E26049381A128E96004C149D8E02CBE045
:10106000B0E7FFFFFFFFFF3FFB81FF40044D569DB0
:101070008E02CBE07050833169C9149568C83A3646
:101080008315AC644337B6C0850FFC034B688213ED
:1010900018E18845386211CE48863392E18C643875
:1010A000E4200E3988430EE294A238A5284E218C04
:1010B0006306E398C1384638CE098E7382E33CF765
:1010C000FFBD034E579D8E02CBE0788F7B1CD46012
:1010D0002D621193966C4D6AA6A844A50AD5907509
:1010E000AC73192720C609887104521C811467202B
:1010F000C419087106421C820C8720C32189700A1A
:10110000229C8208C720C1314870CC756CA82ED1B2
:10111000D4DC92B1B806E75EEF004F3D9D8E02CB66
:10112000EB988D8BD694AA73958C2C6319CA5104B5
:10113000B210812C24200D6ACF73FFFFFFBFF7345C
:10114000A82101598840162294A38C15C9CA75AAF2
:1011500034ADC835F3580050469D8E02CB006A93DB
:10116000AA90752E83958C20A519475AC4B1127187
:10117000B0241C0D094743C2E15ECF3DF76A4838F1
:101180001A120E96846325E2488B404A33328295C8
:10119000CB58A7429382DA61CFFFFF6701513D9D93
:1011A0008E02CBEB988D8BD694AA73958C2C6319F9
:1011B000CA5104B290902C24200D6ACF73FFFFFF18
:1011C000BFF734A82101598840162294A38C15C971
:1011D0000A66AE731D2B55EB1808527F9D8E02CB0D
:1011E000006A93AA90752E83958C20A519475AC43E
:1011F000B11271B0241C0D094743C2E15ECF3DF727
:10120000B8231C0D094743C2C11071AC441C4919D5
:1012100048694646B07219EB54A8868E73A0E32045
:10122000E738C839D0710E84980321E6488739120F
:10123000528E8494431DE550083914428E75906394
:1012400021E358C838D8310E86888321E2684838AF
:101250001A128E8684C33D0E0153519D8E02CB0A15
:10126000998D8BD694AA73958C2C8219CA5104B28D
:10127000108130A841ED792E7B58A42216A929AA05
:10128000D065AE4797B93E9AD4A422F6B04845AC93
:10129000F35C0E6A104304B210A11C653062215940
:1012A000B94E95A615B966220A0054159D8E02CB3B
:1012B000E07F205A483DECF9FFFFFFFFFFB70055E4
:1012C000279D8E02CBE078EEFFFFFFFFFFDED3A06D
:1012D00086046421025988508E3256242BD7A9D215
:1012E000B422D7CC6301567C9D8E02CBE0788F3B35
:1012F000C2D1907034241CED10473B04C28E71B0F3
:10130000631C0B19C742C6B10E82A8A31CEA28872A
:101310003ACA919072A4C320E838073ACE818E73FE
:101320001CE41C07658E7498231DE6488739D2514A
:10133000908410441DE4580739D6418E759063217E
:1013400002618738DA218E7688A31DE268907B9C43
:10135000F3DC600B3291255752992A9A46918AD82C
:101360004301578F9D8E02CBE0788F7BE78E70B85C
:10137000231C0D094743C2D1907034241CED104743
:101380003BC4D10E71B4431CED10473B04C20E8127
:10139000B04320EC104809CC21901298631C4528DA
:1013A000C738C8409071908120E320C440C6318A7C
:1013B000818C6314E320C728C6418E6188831CE2B8
:1013C000440E71228740C241A270907C05BF729981
:1013D0003BB384C52C4231CA508C3214A30CC528AF
:1013E000243948490E52928318E41C0739C7410634
:1013F00000588A9D8E02CB006948381A1210760870
:10140000841DE358C83816321075102421E5484869
:1014100041D06190839CE3A0CC81107320A420E98B
:10142000284842C8A19081AC63200B11074302D227
:101430008E80B4C7BD9EF31AD844166C41C7BDB99F
:1014400023200C090843C4C18E812864200A218707
:101450003A0A82908220C41C0831073A0E629083B7
:1014600018041DE648084112421075906321025984
:101470008840D821107688A3410D0159699D8E02BC
:10148000CB006948381A120E860864210259C83800
:1014900014420E851024210441883910620E741CF8
:1014A000C420E830083A0A921082248420EA18C83E
:1014B0003A06B21071302420ED08487BDCEB35B0E1
:1014C0001517B948652A34A1484551A4A22852915C
:1014D0007A54543D2A8A221545918AD4A3A22852CF
:1014E0005114A9005A4B9D8E02CBE07F20AA0845DB
:1014F0002A42918A50A42234A1084D2852118A54BC
:10150000842215A148452852118A54842215A148E5
:10151000452852118A54842215A148456842119ADF
:1015200050842614A109452A4291FA81FF40045BA8
:1015300018916E03CD000A1FF801489DFFFFFFFFC1
:10154000FFA90FFC4016005C479CAE02CB00A148EF
:101550004528528F8A50A41E15A1484528AA221456
:1015600055118AAA0845558422F5A808452A4251F2
:1015700015A1A88A50544528AA221455118AD4A32B
:101580002214A908455584A22A425115A1085D14C8
:10159000906E03CDE00F4CE9FCFFFFFFFF2F7DE0D5
:1015A00007345E1B97E2F2CB27690B5B56939E8351
:1015B00004A42003214739C6718E80A0035F0A6509
:1015C00001EECAE03FE0016012CE82DFCBE040C70F
:1015D00039D00919C9848C64026160218B02D32B34
:1015E000A94F8CDED4AA75A50C2D6339494A0CB2DB
:1015F00010832CC41CED30473BCCD10E73B4439FF9
:1016000032721556A92B61283B9AD90A5794751442
:10161000A41D04710741DC418E7790E31DE4780737
:1016200041DC4190961064296429CFF8C4373CD23C
:1016300095491C0722465AD4006241DD8E02CBE058
:10164000B0E7FF478E7584065D062B19D1C6269A32
:10165000B18805252159484818D420E73CF7FFEF09
:101660003DEE69118B1612169484662C6213DAC84B
:1016700008562E7384061D045100633D1D8B02CB5A
:10168000EB988D8BD694AA73958C2C63190A4A0417
:10169000B2108130A841CE792E7BFEBFE7BCC73D9A
:1016A0000D09084302B210A1A064AC4856AE53A580
:1016B0006945AE998802006443DD8E02CBF6FCFFDB
:1016C00016320ED484C35C0523D9D0C42696D10427
:1016D00005290159494018D420E73CF7FFEF3DEEBA
:1016E0006948401812909504052962198DD88646DC
:1016F000B282990B35E158073900653E1D8B02CB4C
:10170000EB988D8BD694AA73958C2C63190A4A0496
:10171000B2108130A841CE79EEDE07FE67CFB34824
:1017200045DA6010569044214241C95891AC5CA7FB
:101730004AD38A5C338F05006629DD8E02CBCFA8A1
:101740000B741CC4A435252A25423988410E724EDB
:10175000E838873DFF7BDAD09F3AECF9FFFFBF07FF
:10176000006760DD8EC6CA4B4295B90A46B2A11326
:10177000CB58867214912844200C6A90739EDB7BB0
:10178000DCD390803024240A110A4AC68A64E53AE0
:10179000559A56B420F6B88422F5B0278B54854A62
:1017A0006B4A96C1483636B18564450D72CE73DEFC
:1017B000E39E868424296113DBC8CA75AA3435E701
:1017C00000682ADD8E02CBE0B0E7FF478E75840605
:1017D0005D062B19D1C6269AB1880525215948489E
:1017E00018D420E73CF7FFFFFFBD036922CBAE0210
:1017F000AB62380639578A0F060E72FEFFFFFF11E3
:10180000642024114A504432107214030D6A2A963F
:1018100012C7CC9088063CDE192C3EF8CCF1CEFFE6
:10182000FFFFFFFFF71CF418C820211189A00DA9A4
:1018300040C7494C3310006B76DD8E02CBE0B0E739
:10184000FFE79E86848325E160883856228E858C4A
:101850004325E348093912520E94940321E638894E
:10186000390E720E939CA324E828483A48920E82BF
:10187000A86324EA18C83A04C28E90B023242C62CC
:10188000D29AD4A4A844A50A310141CB40CE321249
:10189000A314C4A44A729082A084202919C742C606
:1018A000B1127130441C2C094743C2E1106C1DCFAA
:1018B0008E02ADE040E7FFFFFFFFFF0F21074189E8
:1018C0007182239AC190A528E8006D86338B02F7B8
:1018D000E020C73BD6119AD4A0AB44061B53C942A3
:1018E000453E108D0F48A219D358C4821C948464BD
:1018F0002D0B09095318D4920639C439EF78CE3B21
:101900009EF38EE7BCE339EF78CE3B9EF38EE7BCC7
:10191000E339EF78CE3B9EF38EE7BCE339EF78CE28
:101920003B9EF38EE7BCE339EF78CE3B9EF38EE728
:10193000BCE339EF78CE3B9EF38EE7BCE339EF781A
:10194000CE3B9EF38EE7BCE339EF78CE3B9EF34E61
:101950006E271D8B02CBE020C73A42832E83958CE5
:10196000686313CD58C48292902C24240C6A90731F
:101970009EFBFFFFFFDE016F3A1D8B02CBEB988DC4
:101980008BD694AA73958C2C63190A4A04B21081E1
:1019900030A841CE79EEFFDF7BDCD390803024206D
:1019A0000B110A4AC68A64E53A559A56E49A892880
:1019B000007042DD8EC6CAE020C73A42832E83956E
:1019C0008C686313CD58C48292902C24240C6A90A6
:1019D000739EFBFFF71EF7B488450B090B4A423391
:1019E00016B1096D64042B973942830E82A8C39EF9
:1019F000FFCF027143DD8EC6CAEB20076AC261AE1B
:101A000082916C686213CB6882829480AC24200C33
:101A10006A90739EFBFFF71EF73424200C09C84A16
:101A2000828214B18C466C432359C1CC859A702CA8
:101A3000641CF6FCFF00721C168B02BDE02052F8FD
:101A4000C01F688444200399C721EE78E7FFFFFF99
:101A50007B007342198B02C3E980CC7A5274A65280
:101A6000114B2C6111C88912A49CE55A4F442412D1
:101A700013F8AC2845484A3105B925261189CF729B
:101A80005B4F821212909384D5B04655A613A5875A
:101A900031EF48007422D24E02ADE458E7FF3B1FFD
:101AA000F8030239D6F9FFFFDF4294929AD218E682
:101AB0002C4849C93A0075281D8B02CBE078EEFF0F
:101AC000FFFF7B8F7B1A12108604642541418A58E0
:101AD0004623B6A191AC60E6424D38D6410E766EF3
:101AE0001D8B02CBE0788F7BDC118E8684A31DE2F8
:101AF000688740D82110768C6321E3580739D64196
:101B0000107510441DE5484839D2618E7418041DC3
:101B10000641C7390E724EE8380742CC811073A4D3
:101B2000A320E928873ACAA1107228841CEB18C8A0
:101B30003AC6C18E7130441C0C09483B02D28E70EB
:101B4000B8231CEEF59CD7C0B6C8200077C5338BF0
:101B500002F7E078C773DEF19E9634241C2D6948A5
:101B6000385AD20E71B4A41DE2680A3B04B29685BD
:101B70008C632D0B19C75AD6418EB5AC831C8B5183
:101B8000074152939072A42621E5484D3ACC919A90
:101B900074982339E830C8790E728EF31CE49CC225
:101BA000710E749C231CE740C73902620E84142412
:101BB0002005494741C451907494631CE55047394E
:101BC000C6510E75946320E450C8405BC740C831CD
:101BD00090758CA31CE360C738CA310E768CA320A5
:101BE000E26048400A12907604C41C01694738CE6E
:101BF000110E7784E31CE1704738CEE39EF33C0777
:101C000039AF490D6C52039BD4C0263591510C025B
:101C10000078661D8B02CB007147381A1210768C43
:101C2000632103514739125210749CE3A0CC918E6A
:101C30008224841CEB18C842C4D18E80B4E739AF2B
:101C4000894C5CA632938AA20955E42219D840C770
:101C50003DEE080843C4C18E8128841CEA2808424E
:101C6000CC818E8318041DE6480841D4418E850836
:101C7000841DE268903B007974DD8EC6CAE360C7BC
:101C80004014321085904321E4504739D4511084D8
:101C9000140421E6408839D0710E741CE41C07310D
:101CA000083A0C820E73A4C31C0929474208A20EED
:101CB00082A8831CEB20C742C6B11081B04320EC40
:101CC00010083BC4D1907034C8BD9CF35CB005993A
:101CD000C8922BA94C154D51A4A26B42415A211216
:101CE00016AD68490C720E5CE811017A2B1D8B024F
:101CF000CBE07F20A2C94CA632535399693499296D
:101D00009ACC144D668A26334593999ACA4CA3C936
:101D10004CE807FE03117B41D430E7CAAF68C74ADD
:101D2000949216C4A005292A592886B0A39DFFC7FE
:101D300010763044254951C942D81011962C85257A
:101D40000D694743DAF9FF1AC210965ACA62109316
:101D500016A5ACA41DAF007C0B47F2E3CAE0FFFF61
:101D600081077D43D330E7CA8078464356A294B4B6
:101D7000A045290B61C842D8F9FF18B210862C84FF
:101D8000254B51093BE0C00E952405250959884291
:101D900016B20E76FEDF4229242967410B5252A269
:101DA000906534E2017E1AA0624ACB835806424C09
:101DB0005338D237BA0209A52CE84844130A007FE9
:101DC00007000002CB000000000000000A0B02091F
:101DD0000C0D0E08070304010000000000000000C5
:101DE00000000000000000000000000000000000F3
:101DF00000000000000012111000000000000000B0
:101E000000000000000000000000000000000000D2
:101E100000002200250028002B002E003100340095
:101E200002010000050108010B0102536F727420CA
:101E30006B6579206D656E753A2000204552524FD2
:101E4000523A2043616E6E6F74207265736F6C76C8
:101E500065207469746C6520696E64657800005E45
:101E6000BCE2613FDD83C29C7E20A3FD1F419DC378
:101E7000217FFCA2401E5F01E3BD3E6082DC237D2A
:101E80009FC1421CFEA0E1BF5D0380DE3C62BEE05C
:101E9000025CDF81633D7C22C09E1D43A1FF46188A
:101EA000FAA427799BC584DA3866E5BB5907DB8538
:101EB0006739BAE406581947A5FB7826C49A653BEA
:101EC000D987045AB8E6A7F91B45C6987A24F8A61C
:101ED000441A99C7257B3A6486D85B05E7B98CD24A
:101EE000306EEDB3510F4E10F2AC2F7193CD114FF8
:101EF000ADF3702ECC92D38D6F31B2EC0E50AFF1AA
:101F0000134DCE90722C6D33D18F0C52B0EE326CDB
:101F10008ED0530DEFB1F0AE4C1291CF2D73CA9409
:101F20007628ABF517490856B4EA6937D58B5709B7
:101F3000EBB536688AD495CB2977F4AA4816E9B769
:101F4000550B88D6346A2B7597C94A14F6A8742A9B
:101F5000C896154BA9F7B6E80A54D7896B356E00B9
:101F6000030304040204061010FFFD09FD0AFE012C
:101F70008903270A29200500E6082107A2E288270D
:101F800002220843778988960023158AE25A4A502C
:101F90004293942411CA682489C8244389002413D5
:101FA0008AE2EA49504293CD4434C92844934C27ED
:101FB00000251498621A51965048288903C211A12D
:101FC0002825942401261398229AA128260A0E4532
:101FD00031919A4436A14400270641F70802280CA3
:101FE000C41A29894822D29B4826290DC419099967
:101FF0004826D28B4822022A0733FF89480E2B0A33
:1020000055EBA960A8140C012C0842DA088A0400D8
:102010002D06146E09022E0622E208022F0BB41EB2
:10202000292D225D444A00300B96E2198A889F24AC
:102030001400310893E3A948451F320B96E2194A70
:102040004CA84D9B01330E96E2194A4CA83415CE8C
:10205000241400341097E249A9701611854421C94F
:10206000512A01350F96E229924C480A0985330915
:102070000500360C96E2396D151127090500370E5B
:1020800097E289A35428154A85522100380E96E21A
:10209000198A8849421131492800390C96E2198A77
:1020A000889384A611003A0762E20822013B088265
:1020B000DA082245023C0A74ABB990C43492053D5B
:1020C0000734EF0922013E0B74AB8998686411C58F
:1020D000003F0FA5A2994948A63419C92132110021
:1020E000401EBC620BD12494120D29A5464214391E
:1020F000A2A42289CD22A3D0240E8A1C280041103C
:1021000099A2CA38603C95082532A58B942A420DC5
:1021100097220A8B8CED24633B4400430C97222AC0
:10212000926CAAB32C4401440C98620A934C22E4AA
:102130009BC404450B96E2894350B1225434460BAC
:1021400096E2894350B122D408470F9862AA927050
:10215000AC64244A64A20A00480B98620A21C7436F
:1021600091A300490792E28807024A08946229FD78
:1021700054014B1198620A214D225291112532913E
:102180009A44284C0896E209A17E344D1499A29AEB
:10219000684826995D0E11CB8432A14C4821014E2E
:1021A0000F99A28A30B568A38848129AB12A4F0DB8
:1021B00099A2AA9A8A9457894C5602500B96E289A2
:1021C0008A88E922D408510FB99AAA9A8A94578921
:1021D0004C56141F02521197228A928A48229294D6
:1021E000242215914426530D96E2198A6C3824AEA8
:1021F000492800540996E20993503F01550C986212
:102200000A213F4A44321200561299620A29552285
:1022100013C9548412E9780E080257189B220B59EF
:102220008C3492482622C94476884D8693692C1CAA
:102230008B01581099620AA944A6221DAF4A642A4C
:102240005201590D98620AA144A48D2AD60D005A54
:102250000C98629AABB254592A3D045B08A31E89BC
:102260008A7E195C0CB51D099950A636D328135DDA
:1022700008A31E89897E295E1085A699494C129172
:10228000459222B16008005F0617DA8903600F8665
:10229000E6899B242213CA2411C9410061096623DF
:1022A0009A254E9202620CA6230AA1C68A88D305FB
:1022B00000630964A399CA482532640AA6234A5DCB
:1022C0004E9C2405650A65E3998984621112660CA7
:1022D000A56239919A8824D30900670C96179A252C
:1022E0004E92E2684201680BA6230AA1C68A88279B
:1022F00001690892E208D2A1006A0AC4D528659152
:10230000BE28016B0DA6E309A14E140949A2930052
:102310006C07A2E28807036D0E68E38A8B0A4542C8
:1023200091502414056E0966238A8A8827016F0A52
:1023300066231A8A88938402700C96178AC844C44C
:10234000E9225404710A96179A254E92A206720A3F
:102350006463090945A40900730964A399D252056D
:1023600000740B8562A998A822D3280175096623F9
:102370000A114F9202760D67E209994449221B4ED9
:102380006300771069A20A518832919C2633893004
:102390001602780C67E20999446D3893A809791000
:1023A00097D60999442451A30D87C2A110007A0938
:1023B00066E2099BA24C667B0CC45A2989488B4C67
:1023C000A49B007C07D1D78883017D0DC45A09994D
:1023D000489B44A48B08007E0826EE19910A00A0B1
:1023E0000500E608A1138DA2CB3A60323DC82A95BC
:1023F000C3A172A81C0E05A20B85A629D148545270
:102400004B04A317A967AB5A341207482342892407
:102410002292CC44C148345602A418A967AB5A345E
:102420001207882221594C161345427240241A2B58
:1024300001A5148AE69A502C22C97F8AC5A1915021
:1024400024248AE407A622CC62BB382C120745223A
:10245000E2396812078C2399222993882832894C03
:102460002293702C0E9903A720CC62BBD0341207A4
:102470004522E2396812070C271927935044324944
:102480008B4CC2B138640EA81ABB638B604A2C6BAC
:10249000781C214642124934160D86526212591C8C
:1024A00018A920BB639B50241491C5445923692962
:1024B000B1C86C128BC452524349B29824140945D6
:1024C00000AA16BB638B604A2C6B780EA8492AB20F
:1024D0003A601C8D650926AB16A9A6AA0869781072
:1024E00049E50049164916491639207201AC0955CB
:1024F000EF89684A4C34AD06146E0902AE15AB2262
:102500007B586828623A8C0E23CB88491699C68678
:1025100000AF1159E78A38242912114522922C92D2
:10252000B400B00F97E5196128160A8A84E1EC001F
:1025300001B10954A729495E4401B209536789884A
:102540004A4414B30A6367895048125109B40852C7
:10255000278948A600B50B96D709114F87A12200FD
:10256000B619CB1EAB486A28351647BA1D2607494F
:10257000E414AA08E748870900B712A7E2A9902443
:10258000311291244E42B352DB0C00B80833571974
:10259000D10400B90C85A299494C2565B41602BA3C
:1025A0000A447A194948149100BB17A9A68A8324C2
:1025B00094748903245924592459E48048347210AE
:1025C000BC1199A20A696DB256964A4494499A512F
:1025D00000BD0EA9A26A31550E2012A79BE500BED0
:1025E00018AAE29A712596228A8524A58849520A5A
:1025F00099229594520800BF198F22CC3B200E8857
:1026000045E2A048E4600A9D4254D2C134074C0020
:10261000C014C9623A39448E14078CA712A144A68B
:1026200074915205C113C9625AB11C290E184F2565
:1026300042894CE922A50AC215C962CA382012474C
:102640008A03C65389502253BA48A902C315C962E6
:102650003A493022478A03C65389502253BA48A9BF
:1026600002C415C9622A895022478903C65389507A
:102670002253BA48A902C517D962CA38201207C422
:10268000D1E280F1542294C8942E52AA00C60F9A27
:10269000234B1B992A914A488A366D05C70FC716E6
:1026A0002A926CAAB32C4414076500C80EC6E2191E
:1026B000A91C72082A56848A06C90DC6E23975C853
:1026C00021A858112A1ACA0FC6E2B960240E38048C
:1026D000152B424503CB0DC6E2199D0F41C58A500B
:1026E000D100CC09C3E1089150A23FCD09C3E21843
:1026F000A2447F01CE0AC3E2986C12FD0500CF0B05
:10270000C5E10809452CD39F00D01299611A9B920C
:1027100050223C498412A144263201D114C9A23A64
:102720004930228786A9451B454492D08C5501D259
:1027300011C9A23A39448E505391F22A91C94A00E4
:10274000D310C9A25AB11CA1A622E5552293950027
:10275000D412C9A2CA38201247A8A9487995C864DA
:102760002500D512C9A23A49302247A8A94879952F
:10277000C8642500D612C9A22A89502207D754A4BA
:10278000BC4A64B21200D70B86E6198A1D40E205E6
:1027900000D81599A2AA4A442611D622A41025567B
:1027A00094C824211200D90FC8622A39400E14F2AD
:1027B000A344242301DA0EC8624AA91C28E44789ED
:1027C000484602DB0FC862CA70240E13F2A34424E9
:1027D0002301DC10C8622A894C220709F951229290
:1027E0009100DD0EC8624AA91CA822D24615EB064C
:1027F000DE0C96E2096145C4E9221402DF0DA6232E
:102800009A91442F1511A70B00E00C96231AA91CCE
:102810003419719214E10B96233A75D064C449526D
:10282000E20C9623BA60240E59E22429E30C962385
:102830002A498A1CB2C44952E40C96231ADD01933A
:1028400011274901E50EA623BA602418074D469CBE
:102850002405E60E6A239B434424228998544704A6
:10286000E70D949799CA48253291454400E80D95A3
:10287000E319A11C3091502C4202E90D95E33991E6
:102880001C3091502C4202EA0E95E3A958240E9870
:102890004828162101EB0D95E30909453C91502C80
:1028A0004202EC0993E1089150A207ED0993E21866
:1028B000A2442F00EE0993E2986C12BD00EF0B9535
:1028C000E10809452CD31300F00FA6232A494C1622
:1028D000894A4E9C241400F10C96232A498A1C50E4
:1028E00011F124F20D96231AA91C44117192500083
:1028F000F30C96233A751045C4494201F40E962311
:10290000BA60240EA18838492800F50E96232A497A
:102910008A1C421171925000F60D96231ADD0114A3
:102920001127090500F70A632689502C140B05F8B6
:102930001066272A49522414918422A1484404F99C
:102940000B96231AA91C22E24952FA0B96233A75D8
:102950008888274901FB0C9623BA60240E10F124C5
:1029600029FC0A96231A9D453C490AFD11C7D64900
:1029700075904C2292A8D18643E15008FE0DD617DF
:102980000AA1C68A88D345A808FF13C7D619258986
:102990001C229388246AB4E150381402000001001C
:1029A00013B9623A3A4A1C309E4A841299D2454A77
:1029B0001501010C86231A3A648993A400010215BB
:1029C000C962BA50588E14078CA712A144A67491FC
:1029D000520501030E96239A504C0E9A8C38490AE0
:1029E000010417C956CA38603C95082532A58B9456
:1029F0002A07C40171900001050C96179A254E9282
:102A000062B20001060FC7224A75204936D5591611
:102A1000A20001071095A339911C309144642AA1AA
:102A20000900010C11C722BA48340E24C9A63ACBBA
:102A3000421400010D0C94A399A47065A41219010D
:102A40000E11C862AA48380E35C92442BE494C004E
:102A5000010F17A9A34A895022140525A19A4826D7
:102A600092896422610D0001101399611A9B9250A2
:102A7000223C498412A144263201011113A7234AA2
:102A8000A9AC28AA88242289482212550001120ED6
:102A9000B6E2193AE01054AC08150D01130C85E3A9
:102AA00019F24442B1080901160FC6E229A11C72AD
:102AB000082A56848A0601170E95E329991C30913D
:102AC000502C420201180EC6D6894350B12254340C
:102AD000260B01190E96D79991440B494A8C86050D
:102AE000011A10C6E2A948300E3904152B424503DD
:102AF000011B0E95E399B4386422A1588404011E89
:102B000012B862BA505458128E958C44894C5401B4
:102B1000011F12C6179A504C0E9A8C38498AA30985
:102B20000500012212C856AA9270AC64244A64A21D
:102B30003A581C03012311C617AAA81C3419719214
:102B40001447130A00012A0AB4E108AA487F0101C8
:102B50002B0A84E108AA482F00012E0BC3D608894E
:102B6000FE128A09012F0BC3D51845895ED20401D4
:102B70003008B2E2880F0101310862E288430101A6
:102B80003616C8560A214D225291112532919A4487
:102B900028078A8300013711D6D709A14E140949A5
:102BA000A2931C228C0101390CC6E229991C24D461
:102BB0008F06013A0AC3E2188AFE0B00013B0DC6DC
:102BC000D609A17EB443843100013C0AD2D68807DD
:102BD000D30400013D0C96E20911DB2822D46801E0
:102BE0003E0DA5620909D32422D31B0001410E9793
:102BF000E119A94A6C28154EA50601420BA4E1185B
:102C00009126932E00014313C9A25AB11C1AA6168D
:102C10006D1411494233560501440C96233A754808
:102C200045C49300014515C9968A30B568A3884804
:102C3000129AB12A07CB01410001460D96178A8AE4
:102C4000882739441803014715C9A2BA481C100740
:102C500087A9451B454492D08C550101480D962308
:102C6000AA48300EA9887812014C10B9A23A3AB895
:102C7000A622E55522939500014D0D86231A3A842C
:102C800022E224A100015013C9A24A894C2287D60E
:102C900054A4BC4A64B2120001511297232A8976C7
:102CA000104945241149442212000152159DA22BBE
:102CB0008A4536940AA54269452A94AA8D290601B7
:102CC000530F6A239BD1442422899854470401540A
:102CD00015C7223AA11C5652114944929244A4228B
:102CE00092C80401550C9463298954421169020168
:102CF0005616C7168A928A48229294242215914425
:102D0000268749630001570D9457090945A41D20E2
:102D10000A01015816C722AA48340E2BA98824227A
:102D2000494922521149640201590C946399A4A89B
:102D30008422D204015A10C6E239751045361C129D
:102D4000D7241400015B0B94A32989B8B454010162
:102D50005E11C6D6198A6C3824AE49E820610C0091
:102D6000015F0B949799D252591402016011C6E287
:102D7000A948300EA2C88643E29A840201610B94EE
:102D8000A399A47069A90201620DC6D6099350BF28
:102D9000C384310001630FB556A998A822D3280730
:102DA000C8620001640EC6E2A948300E3109F5136D
:102DB0000001650EA66249A5484856126A15010130
:102DC0006A0EB8622A3A4CC88F12918C04016B0CBF
:102DD00086231A3A40C493A400016E11D862CA70C7
:102DE000241C070AF95122929100016F0EA623BA02
:102DF0006024188788789214017011C8623A894853
:102E0000220709F9512292910001711397232A890F
:102E1000768848229288242289485401017210C879
:102E2000560A213F4A4432AA380E11010173139702
:102E3000170A9144241149441291A81A8E030401DF
:102E40007812C8622A894C22070925226D54B16E76
:102E50000001790FC8625A75E05559AA2C951E02D7
:102E6000017A0C96E23975884D512633017B10C8E2
:102E7000624AB11C7855962A4BA58700017C0D96B5
:102E8000E229A11C625394C90C017D11C862BA48A1
:102E9000380EBD2A4B95A5D24300017E0E96E2A9BD
:102EA00048300EB129CA640604010EC6E2199D0F0E
:102EB00041C58A50D10004021599A20AAB1C200713
:102EC00048662335914C241349260004030CC6E2BE
:102ED0003975C821A81F0104041097222A926C2A70
:102EE000B548C5B210050004050E96E2198A6C3883
:102EF00024AE49280004060892E288070204070C61
:102F0000C5E10809452CD39F00040809946229FDF6
:102F100054010409179C629BAB4C2A93CAA4B29239
:102F20004C249189243211B102040A179B220B9977
:102F30005026940965C2C34426A28968225A050016
:102F4000040B1399A20AAB1C2007D8946422994859
:102F5000269209040C14C8624AA91C28938874910B
:102F6000112532919A4428040E12C862AA5439508D
:102F700045A48D3A154B855300040F0DB85A0A210C
:102F80007F3CCCA442000410119962CA38603C9581
:102F9000082532A58B942A04110E97220A8B54D54A
:102FA00022633B440004120E97220A8B8CED2463AB
:102FB0003B440004130A96E28943503F0204140D77
:102FC000B85A1A93FEBF1CA6E20004150C96E289BB
:102FD0004350B12254340416169C620B614C22D229
:102FE0009B44D52A5113A9C864C3680004170F96DF
:102FF000E2194A4CA83415CE24140004181099A2E2
:103000000AF19458334928225B912A041914C9A261
:10301000BA50580E154F8935938422B215A902046F
:103020001A1298620A9944A48B8C289189D424425C
:1030300001041B1498629A8B4C2293C82432894C49
:103040002293C88802041C1599A29A684826995DA3
:103050000E11CB8432A14C482101041D0C98620A48
:1030600021C74391A300041E0E99A2AA9A8A9457DD
:10307000894C5602041F0A98628AC3903F0A0420B2
:103080000C96E2898A88E922D40804210D97222A25
:10309000926CAAB32C440104220A96E20993503F91
:1030A0000104231098620AA144A48D3A154B85535C
:1030B000000424129AE24AB14DA24944129154B438
:1030C00099850004251199A20AA944A6221DAF4A98
:1030D000642A5201042618B85A0A99442691496470
:1030E000129944269149649243582A0104270B9768
:1030F000220A196F12AB060428169A230B91882412
:1031000022894822928824228948A2430104291C4A
:10311000BA1B0B914449A2245192284994244A1283
:103120002589E43087C8011200042A0D98620AB28A
:10313000E69A484F1500042B1099E20A29D7134943
:10314000429290242701042C0C96220AA1C68A8858
:10315000E902042D1097221A524C2C9558A53311D0
:103160000900042E169C620B59494DA24A915E2912
:10317000528A942493C84A00042F129722AA8A489C
:103180002292884425899244441304300A66239A83
:10319000254E920204310EA6234A914CB122E2241C
:1031A000A10004320C65E3098AC422A1580004334B
:1031B00009646309934E0004341077DE295A4424CD
:1031C00011494412C9211A04350B65E399898462B7
:1031D000111204360E68A30A8984A244B3A85014BD
:1031E00004370B64A389994426AA0004380C66238B
:1031F0000AD9886221CD0404391096239A504C0EC6
:10320000918D2816D24C00043A0C65E30909A544B7
:10321000915004043B0F67221A8B48229288242283
:103220009A00043C1067229A584822924826874AFE
:103230004400043D0B66230A11E9306212043E0B80
:1032400066231A8A88938402043F0A66238A438885
:10325000270104400D96178AC844C4E92254040487
:10326000410A64A399CA48253204420A66A2099316
:1032700050270004431197D60999442451A30D8780
:10328000C2A11000044413D8163AB1468B0A454235
:103290009150548C62350004450D67E20999446DE4
:1032A0003893A809044611871B0A91442411494404
:1032B0001291E4A80404470B65E309098B84A60076
:1032C00004481068E30A898422A14828128AE4305D
:1032D00004490D89DB0A89FEBF1CC44A00044A0E5A
:1032E00067220AAA94261149441400044B0E68A3CD
:1032F0000A21D1449150242601044C0C65E309991C
:103300008C22A15800044D0C64A3894944329A547C
:1033100000044E0F69E30A1145E9441151442C00A1
:10332000044F0B65A2190B4542B10804510E95E3F9
:103330000909453C91502C4202045215D716AA6047
:103340004D2A2DA9882422894822920A95000453E7
:103350000B94632989D4A4130004540B64A3990A21
:103360004524890C04550A64A399D25205000456D9
:103370000992E208D2A10004570C95E10809452CF6
:10338000D3130004580BC4D5286591BE28010459F5
:103390000F69E39AA24428214974215100045A116B
:1033A00069E30A914C243B44441292844401045B37
:1033B00012A722AA604D2A2DA98824228948221208
:1033C000045C0E95E3399158422951241401000000
:1033D00000000000000000000000000000000000ED
:1033E00000000000000000000000000000000000DD
:1033F00000000000000000000000000000000000CD
:1034000000000000000000000000000000000000BC
:10377000000000000000000000D09ED094D09E2DDC
:10378000D0A0D090D091D09ED0A2D09000D092D096
:103790009ED09BD0A2D09CD095D0A2D0AAD0A00081
:1037A000C2A700C2A600C2BB00C2AC00C3B800C220
:1037B000B900C2AE00C2AC00C2AB00C2AA00C2A92E
:1037C00000C2A800C2BF00C2BE00C2BD00C2BC0091
:1037D000C2B700C2B600C2A10000C2AE0060005E67
:1037E00000C2A200C2B000C2A500D094D0BED0B228
:1037F000D0B8D0B6D0B4D0B0D0BDD0B52E2E2E20FB
:103800002020202000C2B1C3B7C2A500C2B200C2AE
:10381000AF00C2B10034323030306B6D2028D0A1FF
:10382000D0BBD0B5D0B420D181D0BCD18FD0BDD049
:10383000B020D0BDD183D0BBD0B8D180D0B0D0B96A
:10384000D182D0B520D0B4D0B0D0BDD0BDD0B8D109
:1038500082D0B52900D092D18AD0B7D0B4D183D14B
:1038600088D0BDD0B8D18FD18220D184D0B8D0BB80
:10387000D182D18AD18020D181D0B520D181D0BC54
:10388000D0B5D0BDD18F20D0BDD0B020D0BDD0B06C
:10389000D0B40020D09DD0A3D096D09DD09020D081
:1038A000A1D09CD0AFD09DD09020D092D0AAD0975C
:1038B000D094D0A3D0A8D095D09D2FD09CD090D01C
:1038C000A1D09BD095D09D20D0A4D098D09BD0A241
:1038D000D0AAD0A02000D0B520D0B7D0B020D181C0
:1038E000D0BCD18FD0BDD0B0202838353030306B2F
:1038F0006D2B2900D090D0BDD0B3D180D0B5D0BD34
:10390000D0B0D0B6D0B5D0BDD0B8D18FD18220D173
:1039100080D0B5D0BCD18AD0BA00D090D09DD09301
:10392000D0A0D095D09DD090D096D095D09D20D0CD
:10393000A0D095D09CD0AAD09A00D097D0B0D0B4C7
:10394000D0BDD0B820D181D0B2D0B5D182D0BBD03B
:10395000B8D0BDD0B82000D09FD180D0B5D0B4D0E1
:10396000BDD0B820D181D0B2D0B5D182D0BBD0B833
:10397000D0BDD0B800D09DD0B5D180D0B0D0B1D01E
:10398000BED182D0B5D189D0B020D0BAD180D18378
:10399000D188D0BAD0B020D0B23A00D098D097D049
:1039A00093D09ED0A0D0AFD09BD09020D09AD0A062
:1039B000D0A3D0A8D09AD09000D182D0B5D187D052
:1039C000BDD0BED181D182D182D0B020D0B7D0B00D
:1039D00020D187D0B8D181D182D0B0D187D0BAD010
:1039E000B800D09FD180D0BED0B2D0B5D180D0B5F4
:1039F000D182D0B520D0BDD0B8D0B2D0BED182D087
:103A0000BE20D0BDD0B000D0A2D095D0A7D09DD040
:103A10009ED0A1D0A220D097D09020D0A7D098D06F
:103A2000A1D0A2D090D0A7D09AD09800D0BDD0B0CD
:103A300020D0B4D0B2D0B8D0B3D0B0D182D0B5D02D
:103A4000BBD18F20D0B520D0B2D0B8D181D0BED0DC
:103A5000BAD0B02100D0A2D0B5D0BCD0BFD0B5D1A3
:103A600080D0B0D182D183D180D0B0D182D0B020EB
:103A700000D09ED09FD090D0A1D09DD09ED0A1D07C
:103A8000A220D09FD0A0D095D093D0A0D0AFD0927C
:103A9000D090D09DD09500D0BED185D0BBD0B0D035
:103AA000B4D0B8D182D0B5D0BBD0BDD0B0D182D047
:103AB000B020D182D0B5D187D0BDD0BED181D18246
:103AC00000D09FD180D0BED0B2D0B5D180D0B5D1FA
:103AD00082D0B520D0BDD0B8D0B2D0BED182D0BEB9
:103AE00020D0BDD0B000D09ED0A5D09B2E20D0A19C
:103AF000D098D0A1D0A2D095D09CD09000D0BFD1EA
:103B000080D0B5D0B4D0BDD0B8D182D0B520D181CD
:103B1000D0BFD0B8D180D0B0D187D0BAD0B8202013
:103B200000D098D0B7D0BDD0BED181D0B2D0B0D067
:103B3000BDD0B520D0BDD0B02000D0A1D09FD098AE
:103B4000D0A0D090D0A7D09DD09020D0A1D098D098
:103B5000A1D0A2D095D09CD09000D0BDD0B520D01F
:103B6000B520D0B220D180D0B0D0B1D0BED182D0DB
:103B7000BDD0B820D0B3D180D0B0D0BDD0B8D18620
:103B8000D0B800D09DD0B0D0BFD180D0B5D0B6D005
:103B9000B5D0BDD0B8D0B520D0BED1823A2000D0AB
:103BA00095D09B2E20D0A1D098D0A1D0A2D095D0D6
:103BB0009CD09000D0BCD0BED182D0BED180D0BD30
:103BC000D0BED182D0BE20D0BCD0B0D181D0BBD0AD
:103BD000BE00D09FD180D0BED0B2D0B5D180D0B5FC
:103BE000D182D0B520D0BDD0B8D0B2D0BED182D095
:103BF000BE20D0BDD0B000D0A1D09CD090D097D066
:103C00009ED0A7D09DD09020D0A1D098D0A1D0A2F6
:103C1000D095D09CD09000D0A8D0BED184D0B8D1BF
:103C200080D0B0D0B9D182D0B520D0B2D0BDD0B87C
:103C3000D0BCD0B0D182D0B5D0BBD0BDD0BE0020DA
:103C400000D097D090D09BD095D094D0AFD092D0C8
:103C500090D09DD098D0AF20D09FD09E20D09FD024
:103C6000AAD0A2D0AF0020D09DD0B520D0B8D0B778
:103C7000D0BFD180D0B0D0B2D0BDD0BED181D182A2
:103C800020D0BDD0B020D0BAD180D183D188D0BAD5
:103C9000D0B00020D09ED0BFD0B0D181D0BDD0BE9A
:103CA000D181D18220D181D18AD0BDD0BBD0B8D032
:103CB000B2D0BED181D182200020D09DD0B0D0BF63
:103CC000D180D0B0D0B2D0B5D182D0B520D0BFD0C5
:103CD000BED187D0B8D0B2D0BAD0B000D098D0B7CB
:103CE000D0BFD0BED0BBD0B7D0B2D0B0D0B9D182C7
:103CF000D0B520D181D0BFD0B8D180D0B0D187D0BD
:103D0000BAD0B0D182D0B020D0B7D0B020D0BAD104
:103D100080D0B0D0B900D098D0B7D0B3D0B0D181D6
:103D2000D0B5D182D0B520D0B4D0B2D0B8D0B3D035
:103D3000B0D182D0B5D0BBD18F20D0B7D0B020D0F9
:103D4000B7D0B0D0BFD0B0D0B7D0B2D0B0D0BDD047
:103D5000B52E00D0A0D095D097D0A3D09BD0A2D024
:103D600090D0A200D09AD09ED09DD0A1D0A3D09CBC
:103D7000D090D0A6D098D0AF00D09ED094D09ED076
:103D80009CD095D0A2D0AAD0A000D09ED091D09E99
:103D9000D0A0D09ED0A2D09800D0A1D09AD09ED052
:103DA000A0D09ED0A1D0A200D098D0B7D0BFD0BE16
:103DB000D0BBD0B7D0B2D0B0D0B920232B2420D0E4
:103DC000B7D0B020D0BFD180D0BED0BCD18FD0BDB5
:103DD000D0B000D098D0B7D0BFD0BED0BBD0B7D075
:103DE000B2D0B0D0B9202420D0B7D0B020D0BDD030
:103DF000B0D0B2D0B8D0B3D0B0D186D0B8D18F20A7
:103E000000D09DD0B0D182D0B8D181D0BDD0B5D1B5
:103E100082D0B5202420D0B7D0B020D0BFD180D060
:103E2000BED0BCD18FD0BDD0B00041726475696E78
:103E30006F4D494420D0B2D0B5D180D181D0B8D116
:103E40008F2000D097D0B020D0BDD0BED0B2D0B897
:103E500020D0B2D0B5D180D181D0B8D0B83A2077B7
:103E600077772E6769742E696F2F76486C6B6400C4
:103E7000D097D0B0D0B4D180D18AD0B6D182D0B5CD
:103E8000202320D0B820D0BDD0B0D182D0B8D181ED
:103E9000D0BDD0B5D182D0B520D181D0BFD0B8D1DE
:103EA00080D0B0D187D0BAD0B0D182D0B02000D0ED
:103EB00097D0B020D0BDD183D0BBD0B8D180D0B006
:103EC000D0BDD0B520D0BDD0B020D0BFD18AD18256
:103ED000D183D0B2D0B0D0BDD0B5D182D0BE00D0C9
:103EE00097D090D092D09ED094D0A1D09AD0980064
:103EF000D0A2D095D09AD0A3D0A9D09E00D09DD0EA
:103F000090D0A1D0A2D0A0D09ED099D09AD0980025
:103F1000D098D09DD0A1D0A2D0A0D0A3D09CD09535
:103F2000D09DD0A2D09800D09ED0A2D09DD09ED0BF
:103F3000A1D09DD09E00D09ED091D0A1D09BD0A3E7
:103F4000D096D092D090D09DD09500D093D09ED0D6
:103F5000A0D098D092D09000D09FD0AAD0A2D0A3C9
:103F6000D092D090D09DD098D0AF00D09DD090D09E
:103F7000A7D090D09BD09E00D098D0B7D0B3D0BE61
:103F8000D180D0B5D0BBD0B800D098D0B7D0BDD0FC
:103F9000BED181D0B5D0BDD0B800202020202020B7
:103FA000202040002020202020202020C2A320000C
:103FB00020D09DD0B8D0B2D0BE20D0BCD0BED1824F
:103FC000D0BED180D0BDD0BE20D0BCD0B0D181D0A9
:103FD000BBD0BE3A2000D0A2D0B5D187D0BDD0BED4
:103FE000D181D18220D0B7D0B020D187D0B8D181B3
:103FF000D182D0B0D187D0BAD0B83A2000D09ED1EB
:1040000085D0BBD0B0D0B4D0B8D182D0B5D0BBD0E1
:10401000BDD0B020D182D0B5D187D0BDD0BED181A6
:10402000D1823A2000202020D09FD180D0B5D0B4BA
:10403000D0BDD0B82020D0BDD0B0D0BAD0BBD0B089
:10404000D0B4D0BAD0B83A2000D09FD180D0B5D16A
:1040500085D0BED0B42000D0B4D0BE20D181D0BB9A
:10406000D0B5D0B4D0B2D0B0D189D0B8D18F20D013
:10407000BFD18AD182210000774057404940254076
:10408000FD3FD63FB03FA43F9A3F893F783F6B3F0B
:10409000583F4B3F363F273F103FFD3EF03EDF3E4F
:1040A000AF3E703E433E2A3E013ED33DA83D993D82
:1040B0008A3D793D643D533D163DDC3CB93C933C23
:1040C000663C413C3F3C173CF73BD23BB43B9F3BFB
:1040D000833B5A3B3A3B213BFD3AE63AC13A973A99
:1040E000713A553A2C3A073AE239B9399B39753960
:1040F00057393A391A39F438D6389338553815388B
:1041000012380F380C380538EA37E737E437E1372B
:10411000DF37DD37DA37D937D637D337D037CD3732
:10412000CA37C737C437C137BE37BB37B837B537DB
:10413000B237AF37AC37A937A637A337A0378D379B
:10414000793757484C2043757272656E74207265DA
:1041500073697374616E636520001800300060003D
:104160006C00E600F302BF038F03C701D600000016
:10417000000000000000000000000000000000003F
:10418000000000000000000000000000000000002F
:10419000000000000000000000000000000000001F
:1041A000000000000000000000000000000000000F
:1041B00000000000000000000000000000000000FF
:1041C000000000000000000000000000E0FF070009
:1041D00000000000000000E0FF07000000000000F9
:1041E0000000E0FF07000000000000000080C301A5
:1041F000000000000000000080C30100000000007B
:1042000000000080C30100000000F8FFFFFFFFC3B3
:104210007F00000000F8FFFFFFFFC37F00000000E9
:10422000F8FFFFFFFFC37F00000000F8FFFFFFFF64
:10423000C37F00000000380000000000780000008C
:104240000038000000000078000000803F000000FF
:10425000000078000000803F0000000000780000AF
:1042600000803F000000000078000000803F000058
:10427000000000780000000000000000000078004E
:1042800000000000000000000078000000803F00F7
:104290000000000078000000803F0000000000786F
:1042A000000000803F000000000078000000803F18
:1042B000000000000078000000003800000000004E
:1042C00078000000003800000000007800000000C6
:1042D00038000000000078000000003800000000F6
:1042E00000780000000038000000000078000000A6
:1042F00000380000000000780000000038000000D6
:104300000000780000000038000000000078000085
:1043100000003800000000007800000000380CC0E9
:104320000004407800000000381EE0010EE0780034
:10433000000000383FF0031FF07900000000B87F54
:10434000F8873FF87B00000000F8FFFFFFFFFF7FCA
:1043500000000000F8FFFFFFFFFF7F00000000F8F3
:10436000FFFFFFFFFF7F00000000F8FFFFFFFFFFE0
:104370007F00000000F8FFFFFFFFFF7F000000004C
:10438000F8FFFFFFFFFF7F00000000F8FFFFFFFFC7
:10439000FF7F00000000F8FFFFFFFFFF7F0000002D
:1043A00000F8FFFFFFFFFF7F00000000F8FFFFFFA6
:1043B000FFFF7F00000000F8FFFFFFFFFF7F00000E
:1043C0000000F8FFFFFFFFFF7F000000000000007B
:1043D00000000000000000000000000000000000DD
:1043E00000000000000000000000000000000000CD
:1043F00000000000000000000000000000000000BD
:1044000000000000000000000000000000000000AC
:10441000000000000000000000000000000000009C
:104420000000000000000000000000000000560036
:10443000000000000000000000000000000000007C
:10444000000000000000000000000000000000006C
:10445000000000000000000000000000000000005C
:10446000000000000000000000000000000000004C
:10447000000000000000000000000000000000003C
:10448000000000000000000000000000000000002C
:10449000000000000000000000000000000000001C
:1044A0000000000000000000000000F07F0000C0DD
:1044B000FF0100000000F07F0000C0FF01000000CD
:1044C00000F07F0000C0FF0100000000F07F00004E
:1044D000C0FF0100000000F07F0000C0FF010000ED
:1044E00000FEFFFFFFFFFFFFFF1F0000FEFFFFFFBB
:1044F000FFFFFFFF1F0000FEFFFFFFFFFFFFFF1F8B
:104500000000FEFFFFFFFFFFFFFF1F0000FEFFFF99
:10451000FFFFFFFFFF1F0000FEFFFFFFFFFFFFFF8A
:104520001F00003E000000000000001F00003E00D1
:104530000000000000001F00003E0000000000001E
:10454000001F00003E000000000000001F00003EB1
:10455000000000000000001F00003E0000000000FE
:1045600000001F00003E000000000000001F0000CF
:104570003E00000000001E001F00003E0000000082
:10458000001E001F00003E00000000001E001F0073
:10459000003E00000000001E001F00003E00000062
:1045A00000001E001F00003EF8FF0000F0FF031F88
:1045B00000003EF8FF0000F0FF031F00003EF8FF80
:1045C0000000F0FF031F00003EF8FF0000F0FF03B3
:1045D0001F00003E00000000001E001F00003E0003
:1045E000000000001E001F00003E00000000001E32
:1045F000001F00003E00000000001E001F00003EE3
:1046000000000000001E001F00003E00000000002F
:1046100000001F00003E000000000000001F00001E
:104620003E000000000000001F00003E00000000EF
:104630000000001F00003E000000000000001F00FE
:10464000003E000000000000001F0000FEFFFFFF12
:10465000FFFFFFFF1F0000FEFFFFFFFFFFFFFF1F29
:104660000000FEFFFFFFFFFFFFFF1F0000FEFFFF38
:10467000FFFFFFFFFF1F0000FEFFFFFFFFFFFFFF29
:104680001F0000FEFFFFFFFFFFFFFF1F00000000F5
:10469000000000000000000000000000000000001A
:1046A000000000000000000000000000000000000A
:1046B00000000000000000000000000000000000FA
:1046C00000000000000000000000000000000000EA
:1046D00000000000000000000000000000000000DA
:1046E00000000000000000000000000000000000CA
:1046F00000000000000000000000000000000000BA
:1047000000000000000000000000000000000000A9
:104710000000000000000000000000000000000099
:104720000000000000000000000000000000000089
:104730000000000000000000000000000000000079
:104740000000000000000000000000000000000069
:104750000000000000000000000000000000000059
:1047600000C0FF030000000000001E00C0FF0700A3
:104770000000000000FE00C0FF0700000060000015
:10478000FF07C0FF07000000FC0000FF3FC0FF0361
:10479000000080FF0000FFFF00FE000000C0FF00DF
:1047A00080DFFF03FE000000FCFF00801FFF03FE10
:1047B000000080FF7F00800FFCFFFF7F00F0FF0FF5
:1047C00000C00FE0FFFFFF01FEFF0300C03FE0FF5E
:1047D000FFFFC3FFFF0300C0FFE0FFFFFFFBFFFF82
:1047E0000100C0FFF3FFFFFFFFFFFE000000FFFF1F
:1047F000FFFFFFFF0F7F000000F8FF070080FF8131
:104800003F000000C0FF0700003F801F00000000C5
:10481000FE07000006C00F00000000F007000000C7
:10482000E00700010000E007000000F003000100C5
:1048300000E007000000F80380030000E00700002C
:1048400000FC0180030000E007000000FC00800382
:104850000000E007000000FE00C0070000E00700C5
:1048600000007F00C0070000E0070000803F00C09C
:10487000070000E0FFFFFFFF1F00C0070000E0FF90
:10488000FFFFFF0F0080030000E0FFFFFFFF0700B6
:1048900000000000C0FFFFFFFF030000000000C099
:1048A000FFFFFFFF03000000000000000000000009
:1048B00000000000000000000000000000000000F8
:1048C00000000000000000000000000000000000E8
:1048D00000000000000000000000000000000000D8
:1048E00000000000000000000000000000000000C8
:1048F00000000000000000000000000000000000B8
:1049000000F0017C001FC007F0010000FC0FFFC396
:10491000FFF03FFC0F0000FFFFFFFFFFFFFFFF3F27
:104920000000FFFFFFFFFFFFFFFF3F0000FFFFFF53
:10493000FFFFFFFFFF3F0000FFFFFFFFFFFFFFFF45
:104940003F000007F0017C001FC00730000000009E
:104950000000000000000000000000000000000057
:104960000000000000000000000000000000000047
:104970000000000000000000000000000000000037
:104980000000000000000000000000000000000027
:104990000000000000000000000000000000000017
:1049A0000000000000000000000000000000000007
:1049B00000000000000000000000000000000000F7
:1049C00000000000000000000000000000000000E7
:1049D0000000000000FCFF000000000000000000DC
:1049E000FEFF010000000000001800FEFF01600053
:1049F000000000003C001EE001F000000000007E0E
:104A0000001EE001F80100000000FC001EE001FCB7
:104A10000000000000F8011EE0017E000000000020
:104A2000F0033EF0013F0000000000E001FEFF0146
:104A30001E0000000000C000FEFF010C000000008E
:104A40000000C0FFFF0F00000000000000E0FFFFBB
:104A50001F00000000000000F0FFFF3F000000000A
:104A6000000000F81FE07F00000000000000FC07CD
:104A700080FF00000000000000FC0100FE000000BC
:104A800000000000FE0000FC010000000000007FAC
:104A90000003F8030000000000003F8007F003005F
:104AA00000000000801FC00FE00700000000008031
:104AB0001FC00FE0070000000000C00FC00FC00FB4
:104AC0000000000000C00FC00FC00F000000000079
:104AD000C00F8007C00F00000000FFC107800780E3
:104AE0000FFE030000FFC1078007800FFE030000D8
:104AF000FFC1078007800FFE030000FFC10700030E
:104B0000800FFE030000FFC1070003800FFE0300BB
:104B10000000C0070003800F0000000000C00F006D
:104B200003C00F0000000000C00F0003C00F000012
:104B3000000000800F0000C0070000000000801F80
:104B40000000E0070000000000001F0000E003007C
:104B500000000000003F0003F00300000000000020
:104B60007E0003F801000000000000FE0000FC01D0
:104B7000000000000000FC0300FF00000000000037
:104B800000F80FC07F00000000000000F03FF03F81
:104B900000000000000000F0FFFF3F0000000000E8
:104BA0000040C0FFFF0F080000000000E000FFFF12
:104BB000031C0000000000F001FEFF013E000000A9
:104BC0000000F801E01F007E0000000000FC000073
:104BD0000000FC00000000007E00000000F8010062
:104BE0000000003E00000000F001000000001C007A
:104BF000000000E000000000000800800700400006
:104C0000000000000000800700000000000000001D
:104C10000080070000000000000000008007000086
:104C200000000000000000800700000000000000FD
:104C30000000800700000000000000000080070066
:104C400000000000000000008007000000000000DD
:104C500000000080070000000000000000000000CD
:104C60000000000000000000000000000000000044
:104C70000000000000000000000000000000000034
:104C80000000000000000000000000000000000024
:104C90000000000000000000000000000000000014
:104CA0000000000000000000000000000000000004
:104CB00000000000000000000000000000000000F4
:104CC000000000000000000000000000F0FF0000F5
:104CD00000000000001800FEFF0780010000000037
:104CE0003C80FFFF1FC003000000007CE0FFFF7F4F
:104CF000E003000000003EF8FFFFFFC107000000D6
:104D0000001FFC1F80FF830F000000801FFE0300B8
:104D1000FC871F000000800FFE0100F8071F000045
:104D200000C0077F0000E00F3E000000C0873F008A
:104D30000FC01F3E000000E0C31F000F803F7C003B
:104D40000000E0C30F000F003F7C000000F0E1070F
:104D5000000F007EF8000000F0E103000F007CF877
:104D6000000000F8F003000F00FCF001000078F0F4
:104D700001000F00F8E001000078F800000F00F0DB
:104D8000E101000078F800000F00F0E10100007878
:104D9000F800000F00F0E101000038F800000F00FB
:104DA000F0C10100003C7800000F00E0C1030000EA
:104DB0003C7800000F00E0C10300003C7800000FC9
:104DC00000E0C10300003C7800000F00E0C10300D8
:104DD000003C7800000F00E0C10300003C780000B8
:104DE0000F00E0C10300003C7800000F00E0C103A9
:104DF00000003CF800000F00F0C10300003CF80088
:104E0000000F00F0C103000038F800000F00F0C1EF
:104E100001000078F800000F00F0E101000078F0D8
:104E200001000000F8E001000078F001000000F847
:104E3000E0010000F0F003000000FCF0000000F0D2
:104E4000E1070006007EF8000000F0E107000F0017
:104E50007EF8000000E0C30F801F003F7C000000D0
:104E6000E0831F801F801F7C000000C0873F000F71
:104E7000C01F3E000000C0077F0006E00F3E00009C
:104E800000C00FFE0100F8073F000000801FFC0774
:104E900000FE831F000000003FF87FE0FFC10F000D
:104EA0000000003EF0FFFFFFC007000000007CC0D4
:104EB000FFFF3FE003000000003880FFFF1FC0013C
:104EC000000000001800FCFF03800100000000004B
:104ED00000801F0000000000000000000000000033
:104EE00000000000000000000000000000000000C2
:104EF00000000000000000000000000000000000B2
:104F000000000000000000000000000000000000A1
:104F10000000000000000000000000000000000091
:104F20000000000000000000000000000000000081
:104F30000000000000000000000000000000000071
:104F40000000000000000000000000000000000061
:104F50000000000000000000000000000000000051
:104F60000000000000000000000000000000000041
:104F7000000000000000001F000000000000000012
:104F800000803F000000000000000000803F0000A3
:104F900000000000000000803F0000000000000052
:104FA0000000803F000000000000000000803F0083
:104FB0000000000000000000803F00000000000032
:104FC00000000080FFFF030000000000000080FFE1
:104FD000FF030000000000000080FFFF030000004E
:104FE0000000000080FFFF030000000000000080C0
:104FF0003F000000000000000000803F00000000B3
:105000000000000000803F000000000000000000E1
:10501000803F00000000000000000080FFFF030050
:1050200000000000000080FFFF03000000000000FF
:105030000080FFFF030000000000000080FFFF036E
:1050400000000000000000803F00000000000000A1
:105050000000803F000000000000000000803F00D2
:105060000000000000000000803F00000000000081
:10507000000000803F00000000000000000080FFF2
:10508000FF030000000000000080FFFF030000009D
:105090000000000080FFFF0300000000000000800F
:1050A000FFFF0300000000000000803F0000000040
:1050B0000000000000803F00000000000000000031
:1050C000803F000000000000000000803F00000062
:1050D000000000000000C07F000000000000E07C35
:1050E00000C07F00C0E7000000FCFF07E0FF00FCFD
:1050F000FF070000FCFF7FE0FFC0FFFF070000FC90
:10510000FFFFE0FFE0FFFF070000F88FFFC07FE038
:105110003FFE0300000000F8C07FE0030000000035
:10512000000000803F000000000000000000000EB2
:10513000000000000000000000000000000000006F
:10514000000000000000000000000000000000005F
:105150000000000000000000040000000000040047
:105160000000001E001E000F000F000000003E8027
:105170007FC03F800F00000000FCE0FFFFFFE00762
:1051800000000000F8FFFFFFFFFF0300000000F039
:10519000FFF3FFF9FF0100000000C07FC07FC07F68
:1051A0000000000000001F803F001F000000000002
:1051B0000000000E000000000000000000000000E1
:1051C00000000000000000000000000000000000DF
:1051D00000000000000000000000000000000000CF
:1051E00000000000000000000000000000000000BF
:1051F00000000000000000000000000000000000AF
:10520000000000000000000000000000000000009E
:10521000000000000000000000000000000000008E
:105220007070000000000000000008707080000036
:1052300000000000001C78F0C00100000000000029
:105240003E3CE0E1030000000000003C3CE0E101E6
:105250000000000000007C1EC0F301000000000000
:1052600000781EC0F300000000000000F00F807FF7
:1052700000000000000000F00F807F000000000030
:1052800000F0FF0700FF7F0000000000F8FF0300B0
:10529000FEFF0000000000F8FF0300FEFF0000001A
:1052A0000000F0FF0700FF7F000000000000800703
:1052B000000F00000000000000000F800700000049
:1052C00000000000000F8007000000000000000048
:1052D0001EC00300000000000003001EC003000603
:1052E0000000008003003CE001000E000000800789
:1052F000007CF001000F000000000F0078F000803B
:1053000007000000000F00F8F80080070000000010
:105310001F00F07800C007000000001E00F07D00B4
:10532000C003000000003E00E03F00E0030000007A
:10533000003C00E03F00E001000000007C00C01FD6
:1053400000F001000000F8FFFFFFFFFFFFFF00007B
:1053500000F8FFFFFFFFFFFFFF000000F8FFFFFF67
:10536000FFFFFFFF000000F8FFFFFFFFFFFFFF0050
:105370000000007C00E03F00F001000000003E0063
:10538000E03F00E003000000001E00F07D00C003CD
:10539000000000001F00F07800C007000000000FB0
:1053A0000078F0008007000000800F0078F0008097
:1053B0000F0000008007003CE001000F000000C06B
:1053C00003003EE003001E0000008001001EC00339
:1053D000000C0000000000000F800700000000002B
:1053E0000000000F800700000000000000800700A0
:1053F0000F00000000000000C007001F00000000B8
:105400000000F8FF0300FEFF0000000000F8FF03AB
:1054100000FEFF0000000000F8FF0300FEFF000098
:1054200000000000F80700FF00000000000000F886
:105430000700FF00000000000000780F80F7000068
:1054400000000000003C0E80E301000000000000AE
:105450003C1EC0E3010000000000001E3CE0C10350
:105460000000000000001E3CE0C10300000000003E
:10547000000C78F080010000000000000038E0001F
:1054800000000000000000001040000000000000CC
:10549000000000000000000000000000000000000C
:1054A00000000000000000000000000000000000FC
:1054B00000000000000000000000000000000000EC
:1054C00000000000000000000000000000000000DC
:1054D00000000000000000000000000000000000CC
:1054E00000000000000000000000000000000000BC
:1054F00000000000000000000000000000000000AC
:10550000E001003C00000000000000FC39E0FC016C
:10551000000000000000FE79F0FC03000000000025
:1055200000FFF9F8FC070000000000001FF8FDC0B4
:105530000700000000000006F07F000300000000EC
:10554000004000C01F00100000000000E001C01F6C
:10555000003C0000000000E001800F003C00000063
:105560000000E0010007003C0000000000F0000027
:105570000000780000000000F000800F00780000BC
:105580000000000000800F0000000000000000008C
:10559000C01F000000000000000080FFFF0F00009F
:1055A0000000000000F8FFFFFF0000000000000006
:1055B000FEFFFFFF030000000000C0FF9FCFFF1FA2
:1055C0000000000000F0FF800FF87F0000000000E6
:1055D000F80F000780FF0000000000FE030000003D
:1055E000FE03000000007F00000000F00700000044
:1055F000C03F00800F00E01F000000E00F00800FA0
:1056000000803F000000F00300800F00007E0000DB
:1056100000F80100800F0000FC000000FC0000808A
:105620000F0000F80100007C0000800F0000F00176
:1056300000007C0000800F0000F0010000FC000072
:10564000800F0000F8010000F80100800F0000FC4E
:10565000000000F00300000000007E000000E007F2
:1056600000000000003F000000C00F00800F00801D
:105670001F000000801F00800F00C00F000000000E
:105680003F00800F00E007000000007E00800F0058
:10569000F00300000000FC00800F00F80100000093
:1056A00000F801000000FC0000000000F003000012
:1056B000007E0000000000E007800F003F000000B7
:1056C0000000C00FF8FF801F0000000000801FFED8
:1056D000FFC30F000000000000BFFFFFEF07000046
:1056E00000000000FEFFF8FF03000000000000FCC7
:1056F0000F80FF01000000000000F80300FE000022
:105700000000000000F001007C000000000000002C
:10571000E000003800000000000000000000000071
:105720000000000000000000000000000000000079
:105730000000000000000000000000000000000069
:105740000000000000000000000000000000000059
:105750000000000000000000000000000000000049
:105760000000000000000000000000000000000039
:10577000000020002300260029002C002F0032000A
:1057800000010000030106010901050505050705E3
:1057900008080808020202020A0A080804040404AD
:1057A00001010101010101010303030303030303D9
:1057B000040707070C0C0C0C0C0C0C0C0202020268
:1057C00006060606060606060B0B0B0B0B0B0B0B51
:1057D0000102102020080810204010204080020103
:1057E00002010804020101020408102040808040E8
:1057F00020100804020180040201804020100804E7
:105800000201080402010102040810204080010284
:10581000040810204080206174200020766F6C7492
:10582000616765200057484C2043757272656E743D
:1058300020726573697374616E636520000A3D3D73
:105840003D3D3D3D3D3D3D3D3D3D3D3D3D3D3D3D88
:105850003D3D3D3D3D3D3D3D3D3D3D3D3D3D3D3D78
:105860003D3D3D3D3D3D3D3D3D3D3D3D3D3D3D3D68
:105870003D3D3D3D3D3D3D3D3D3D3D3D0A0A000A2E
:105880000A3D3D3D3D3D3D3D3D3D3D3D3D3D3D3D7B
:105890003D3D3D3D3D3D3D3D3D3D3D3D3D3D3D3D38
:1058A0003D3D3D3D3D3D3D3D3D3D3D3D3D3D3D3D28
:1058B0003D3D3D3D3D3D3D3D3D3D3D3D3D3D3D0A4B
:1058C000003E20003E200073746F70006462670029
:1058D00053657473205472697020432072616E673F
:1058E00065200053657473205472697020432066EC
:1058F00075656C2000536574732054726970204282
:105900002072616E6765200053657473205472695C
:10591000702042206675656C2000536574732054B6
:1059200072697020412072616E6765200053657452
:105930007320547269702041206675656C20005395
:10594000415645442074726970206461746120007E
:10595000547269702064697374616E6365200057C6
:105960006865656C2053696D756C6174652072653E
:1059700073697374616E636520005361766564209A
:10598000416C6C206461746120616E642072657387
:10599000657474696E672E2E2E00536176656420DF
:1059A000416C6C20646174612000536176656420F1
:1059B000576F726B2064697374616E636520005069
:1059C000617373696E672076616C756520746F20F2
:1059D00063617253656E7320647269766572004507
:1059E000435520636F7272656374696F6E20004463
:1059F000535420636F7272656374696F6E20005632
:105A0000535320636F7272656374696F6E20005721
:105A10006F726B2064697374616E636520005472E9
:105A20006176656C2064697374616E636520004201
:105A30004E5A206675656C2000626E7A004C5047A5
:105A4000206675656C20006C706700204E6F6E6577
:105A5000202E2E2E20536F727279212000009C8FF1
:105A6000908F11241FBECFEFD1E2DEBFCDBF00E08B
:105A70000CBF15E0A0E0B2E0E8E3F5E401E00BBF05
:105A800002C007900D92A032B107D9F723E1A0E23E
:105A9000B5E001C01D92AB3AB207E1F71DE2C0E3E9
:105AA000DDE200E006C021970109802FFE010E947F
:105AB000A89ECF32D10780E00807A9F70E94697B32
:105AC0000C948BA20C9400004F925F926F927F9285
:105AD0008F929F92AF92BF92CF92DF92EF92FF92FE
:105AE0000F931F93CF93DF93CDB7DEB7C05DD1097E
:105AF0000FB6F894DEBF0FBECDBF5C01DC0112967D
:105B00008D919C91139704960E942A4E80912605B0
:105B1000853111F40C94FA38B8F4843011F40C94F3
:105B2000E23A40F4813009F409C2823011F40C9455
:105B30008E3724C08C3009F4B6C68D3011F40C9425
:105B400012378B30D9F41EC4833611F40C94CC3E3A
:105B500060F4893211F40C94DB3C8A3211F40C9419
:105B60002D3D863159F40C943B3A853611F40C9452
:105B7000F03D20F08957843008F401C7F501178AF9
:105B800060910002709101028281938106ECE02E07
:105B90000AE5F02EDC011796FC92EE921697049619
:105BA0000E94655DF501178D823040F5112329F0C3
:105BB000113059F0178E0C94E83E8281938104963F
:105BC0000E942A4E81E0F50144C0148A158A868518
:105BD00097850E946655D5015296ED91FC91539799
:105BE0001287178612968D919C9113970E943055BB
:105BF000F501178E168E168B0C94E83E143000F5C6
:105C000082819381113048F504960E942A4E81E0EA
:105C1000D50155968C93559754961C9254971E9681
:105C2000ED91FC911F970280F381E02D1286529630
:105C3000ED91FC915397128683E2868B0C94E83E9B
:105C4000183008F49CC0183009F459C1F501178EBA
:105C500081E0858B148A0C94E83EFC01E758FF4FE5
:105C60002CE62083319681E08083D501ED91FC9173
:105C700036978081918162E08A0D9B1D0E946E5A49
:105C8000BC01F501828193810E949C4AD501129644
:105C90008D919C911397FC01EE5BFF4F40816CE06E
:105CA00004960E948F67F501678D862F880F880FF5
:105CB000680F645F8281938104960E94496AD501CE
:105CC00012968D919C911397FC01E758FF4F17E2B4
:105CD000F12EF08231968FE0808360910202709104
:105CE000030285010C5F1F4FC8010E940250D501BD
:105CF000ED91FC91369720813181682FC501820F8B
:105D0000931F0E946E5ABC01F501828193810E940B
:105D10009C4AD50112962D913C911397F901E758B1
:105D2000FF4FF08231968EE1808360910002709186
:105D30000102C8010E940250D501ED91FC913697F5
:105D400020813181682FC501820F931F0E946E5AF6
:105D5000BC01F501828193810E949C4AD501129673
:105D60002D913C911397F901E758FF4FF08231963E
:105D70008DE280836091040270910502B2C082813D
:105D800093816DE104960E94496AF50182819381B5
:105D9000FC01E758FF4FB7E2DB2ED08231968FE04F
:105DA000808385010C5F1F4F609102027091030296
:105DB000C8010E940250D501ED91FC9136972081D7
:105DC0003181682FC501820F931F0E946E5ABC015A
:105DD000F501828193810E949C4AD50112968D9192
:105DE0009C911397FC01E758FF4FD08231968DE2CA
:105DF00080836091040270910502C8010E940250E4
:105E0000D501ED91FC91369720813181682FC50134
:105E1000820F931F0E946E5ABC01F501828193810B
:105E20000E949C4AD50112968D919C911397FC017A
:105E3000E758FF4FD08231968EE180836091000257
