:100000000C94853C0C94A96F0C947E6F0C94536FE8
:100010000C94286F0C94FD6E0C94D26E0C94A76E09
:100020000C947C6E0C94B63C0C94B63C0C94B63C90
:100030000C94B63C0C94247A0C94B63C0C94B63CCC
:100040000C94B63C0C94B63C0C94B63C0C94B63C68
:100050000C94B63C0C94B63C0C94B63C0C94B66133
:100060000C94B63C0C94A2790C9479790C94B63C1F
:100070000C94B63C0C94B63C0C94B63C0C94B63C38
:100080000C94B63C0C94B63C0C94B63C0C94B63C28
:100090000C94B63C0C94B63C0C94B63C0C94D46FC7
:1000A0000C94B63C0C94B63C0C94B63C0C94B63C08
:1000B0000C94B63C0C94B63C0C94B63C0C94B63CF8
:1000C0000C94B63C0C94B63C0C94B63C0C94507911
:1000D0000C9427790C94B63C0C94B63C0C94B63C2A
:1000E0000C94B63C1E982C983B9863987D989198F8
:1000F000AA98BB98CB98E198AE6CB16CA06CA46C3C
:10010000AA6CE86CB56CB96CBF6CC36CC76CCD6C79
:10011000D16CD56CE86CDB6CDF6CE36C4D6D526DB3
:10012000576D616D6B6DE46D756D7D6D856D8F6D5A
:10013000996DA36DB26DBC6DE46DC66DD06DDA6D59
:100140004E6E566E206E286E346E416E626E6F6E0D
:1001500008000000BE922449123EABAAAA2ABECDD6
:10016000CCCC4C3E00000080BEABAAAAAA3E000048
:100170000000BF000000803F000000000008417840
:10018000D3BB4387D1133D190E3CC3BD4282AD2B77
:100190003E68EC8276BED98FE1A93E4C80EFFFBE6F
:1001A00001C4FF7F3F00000000004E414E494E4910
:1001B0005459494E46CDCCCC3D0AD7233C17B7D134
:1001C0003877CC2B329595E6241FB14F0A000020DA
:1001D000410000C84200401C4620BCBE4CCA1B0E59
:1001E0005AAEC59D7400407A10F35A00A0724E18A2
:1001F000090010A5D4E80000E87648170000E40BD9
:1002000054020000CA9A3B000000E1F5050000809E
:10021000969800000040420F000000A086010000F8
:1002200000102700000000E8030000000064000048
:100230000000000A00000000000100000000002C87
:1002400076D888DC674F0823DFC1DFAE59E1B1B74C
:1002500096E5E3E453C63AE651997696E8E6C28419
:1002600026EB898C9B62ED407C6FFCEFBC9C9F4031
:10027000F2BAA56FA5F490055A2AF75C936B6CF956
:10028000676DC11BFCE0E40D47FEF520E6B500D02C
:10029000ED902E0300943577050080841E08000041
:1002A000204E0A000000C80C333333330F986E120F
:1002B000831141EF8D2114893BE65516CFFEE6DB15
:1002C00018D1844B381BF77C1D901DA4BBE424205F
:1002D0003284725E228100C9F124ECA1E53D270041
:1002E000002100240027002A002D003000330001E7
:1002F000010000040107010A01466978206E616E61
:100300002074726970204300466978206E616E2007
:1003100074726970204200466978206E616E2074A4
:1003200072697020410054726970207265636F7247
:1003300064733A2000456570526F6D205265737486
:100340006F72652056616C75653A00446562756729
:10035000206D6F646520697320656E61626C6564F1
:100360002E2E2E207479706520226462673D6865A8
:100370006C702220666F722064756D7020636F6DE3
:100380006D616E64732E003A0920004669726D77C4
:10039000617265003D3D3D3D3D3D3D3D3D3D3D3D49
:1003A0003D3D3D3D3D3D3D3D3D3D3D3D3D3D3D3D7D
:1003B0003D3D3D3D3D3D3D3D3D3D3D3D3D3D3D3D6D
:1003C0003D3D3D3D3D3D3D3D3D3D3D3D3D3D3D3D5D
:1003D0003D3D0041524455494E4F204D4944003A5D
:1003E000092000416C61726D20616374697665005B
:1003F0003A092000416C61726D20637572736F72EF
:10040000003A09200043757272656E74207370653E
:100410006564003A0920005653530054616E6B2006
:10042000636F6E74656E643A200054616E6B206376
:10043000616C63756C6174653A20003A0920005460
:10044000656D70657261747572652031003A0920BE
:1004500000436F6F6C616E742068697473003A09B1
:100460002000456E67696E6520636F6F6C616E7406
:10047000003A09200050756C736520636F756E74C7
:10048000003A0920004869747320636F6E74656ECA
:1004900064003A092000454355003A0920004869A4
:1004A000747320636F6E74656E64003A09200052A5
:1004B000504D003A09200044697374616E636520F1
:1004C000636F6E74656E64003A0920004869747346
:1004D00020636F6E74656E64003A092000565353B2
:1004E000003A092000566F6C74616765207265617F
:1004F0006473005741524E494E472120205772697C
:1005000074696E672045455020524F4D20646174D8
:100510006120746F20636869702E2E2E004465621E
:100520006F756E636520697320747275650044652C
:10053000626F756E63652069732066616C73650018
:100540003A092000436F6E74726F6C2076616C758F
:100550006520003A092000456469746F7220616368
:100560007469766520003A0920004E6176696761FA
:1005700074696F6E20206973003A0920004C617322
:100580007420627574746F6E206973003A092000DC
:100590004457206973003A092000555020697300C0
:1005A0003A092000424B206973003A092000437544
:1005B00072736F7220736176656400447720686996
:1005C000742000557020686974200030302E30008F
:1005D0002D2D2E2D00253032643A25303264000056
:1005E0001F0000000000FF0000000000FF000000EE
:1005F0000000FE0000000000F80000000000F00114
:1006000000000000E00100000000E0010000000028
:10061000E00100000000E00100000000E001000037
:100620000000E00100000000E00300000000C00343
:1006300000000000C00300000000C0030003000031
:10064000C003C0030000C00FF0030000C03FFC0364
:100650000000C0FFFF03000080FFFF03000080FFD9
:10066000FF01000080E7E70100008087E101000052
:100670008007E00100008007E0010000800FE0013A
:100680000000000FF0010000000FF0000000000F5C
:10069000F0000000000FF0000000C00FF0000000AC
:1006A000C00FF0000000C01FF8000000C07FFE0077
:1006B000000080FF7F00000000FE3F00000000F807
:1006C0000F00000000C00300000000000000003C1C
:1006D000EFF939B3076C6F6B6DB3076C63636CB77D
:1006E000013C67636CB7036CE7616CBF036C6363C9
:1006F0006CBB016C6F636CBB073C6F6338B3074B1B
:100700004D48200052504D20004543552000445391
:10071000542000256C75004F444F20002530336471
:1007200000454E47200025303164004752532000D9
:10073000253034640057524B20002F00424C422099
:100740000050454320002F005D005B004552524F92
:10075000523A2043616E6E6F742066696E64206346
:100760007572736F7220666F722064656C65746950
:100770006E67202E2E2E2E200044454C45544520D9
:10078000747269702043200044454C4554452074E0
:100790007269702042200044454C455445207472D3
:1007A0006970204120003E004552524F523A205479
:1007B00072697020637572736F72206F7574206F29
:1007C000662072616E6765202E2E2E2E20004E4F01
:1007D000544943453A20536B69702064656C6574D5
:1007E000696E67202E2E2E20004E4F544943453A05
:1007F0002044656C65746520747269702E2E2E2EEF
:10080000200054333A20200054323A202000543142
:100810003A20200054303A2020004E003E003E0096
:100820003E003E0056200053687574646F776E205A
:1008300061637469766500A700030205040304067A
:10084000130FFEFD08FD09FE016E02EF0A002005F0
:100850000098232107018B230645220863DA25121D
:100860004B002313496929A72C4AA4CA49AA6451F9
:10087000CE3048C3012412496969972C4A246D532C
:10088000A44AB6B30CD2702510078968A42492221A
:100890006DDEA4484A2205260D058B67A44A9A45B9
:1008A0009B962C00270661DA2306280C6369A49224
:1008B0002889BA455900290C636B24B2288BBA44A5
:1008C00049042A0BA5C8A62A95298992042B0AA5B2
:1008D00098A6C26890C2082C088268632A0A002D74
:1008E0000623A824062E06418A23042F0C4479E40B
:1008F0004A59292B651900300A058B6796CCB764D5
:10090000013109038BA79225EA01320B058B67960B
:100910002CACB50D02330D058B67962C8CD4504B47
:100920001600340E068927432DC992A8328C69021D
:10093000350F06896706251DA22C4DC56448003673
:100940000B058BE71A97CC962C00370C068B278E5D
:10095000699886691802380D058B67964C4B96CCC2
:10096000962C00390B058B6796CC968C590D3A075F
:10097000C18A2324013B09026963AA49A2003C09F8
:10098000A49AE6122514033D0864AA268670083E40
:100990000AA49A2642315132003F0D058965962CF2
:1009A0004CA61C0A330040160C89ED72204C5BB239
:1009B0003491929645494C69120E1200410F0789F5
:1009C000E8D2244CC2242B0D4AAA06420E058B27DE
:1009D0008624D30625B30D0A00430B068BA8A64C2C
:1009E0006DCEA205440D068B2886284B426FC91098
:1009F00001450B058B268EE19084C541460B058B86
:100A0000268EE190848D00470E068BA8A64C2D0DF6
:100A10006192450B00480A078B2952EB70750D490E
:100A200007018B230E024A090489E5FA3624004B9C
:100A300010078B28C2249292504DC228CB94344C7C
:100A400009068B27D2BE0E034D11078B6AB2288B85
:100A5000B2A445A9281529920A4E0F078B29D25115
:100A6000C9A4488AB4445C034F0C078BA9B64AEA70
:100A70009A64D904500C058B278624B30D4A580478
:100A8000510F476BA9B64AEA9A64D9980E0A0052E8
:100A900010068B2786284BB2244B86A82D090353BA
:100AA0000B048B6694482C4A8902540A0789270E46
:100AB00059DC3700550B078B29525F932C9B00564E
:100AC000100789285235C9A2AC12266192660057D8
:100AD000140B892BC250AC4449D412654963D29A95
:100AE000C55906580E078928D224ABA4719A64957B
:100AF00034590D078928D2248BB24A1AB7015A0CEF
:100B000007896886B539AD0E43005B09437B2486AF
:100B1000A89F065C0B447924B2302B66C52C5D0976
:100B2000437924A67E1A025E09A3BA65A224B10401
:100B30005F062668260E600742EA24A200610AC505
:100B40008A6706CD2D1902620C258B27C2E29064BC
:100B50006E8302630BC48A6694482B250A00640BDB
:100B6000258B275B06CD2D1902650CC48A66946817
:100B700048B2285100660C2489A4942C1A92AC1314
:100B800000670D255B6706CD2D19422D5900680AB7
:100B9000258B27C21693E6166907018B2392616A9B
:100BA0000A6357A3D2A84F0B006B0D258B26C2A654
:100BB00025D292A892056C06218B231E6D0EC98842
:100BC0002A1249916C99966999566E09C58A27121D
:100BD00093E6166F0AC58A6796CC2D5900700C25CE
:100BE0005B278624731B94B008710B255B6706CDC9
:100BF0002D19C2067209C38A2492256A027308C39A
:100C00008A656ED102740B048964B26848B2C60466
:100C10007509C58A27324F8A12760CC58826322D6F
:100C20002925591801770EC98829B24CAB744ADAC4
:100C30008A5904780BC58826B2A41666492D790E08
:100C4000265926422D6A09C5344C43007A09C688C4
:100C5000268E1D87017B0B636BA492A8258BDA027D
:100C60007C068159223E7D0C636924B2A82D895AE5
:100C700022007E0846B867240B00A005009823A137
:100C800024917932FE4E1187551DC24449864BA2EC
:100C9000F4B22843D2624994164BB22EE23028892E
:100CA0004E197EA22A917932FE4E917450191E126D
:100CB0006548A421518624191665D0064519966405
:100CC000489421528644191E129D32FC00A324919F
:100CD0007932FE4E11871C502455519261999464CB
:100CE0001A326958A4441B862CD18659A7E894E18E
:100CF00007A425917932FE4E91D649191E12653806
:100D000024966CD01265382496E1215186874419C7
:100D10001E129D32FC00A5186A8D2E754407863878
:100D20004A2551D2A6C3A00CD13048C38300A60FD8
:100D30002799281749512AAA31CA865004A70F2794
:100D4000992893C4A42CAA31CA865004A8186B8B86
:100D50002DC24AD61ACFC9102691A2A4591A469577
:100D60004CD17230A91D6B8B6DA2244AB44C6A4DD4
:100D70006A952CD9962CC92AD5A8A4654A94440909
:100D800000AA166B8B2DC24AD61AEFC0A02983A2E7
:100D90000D3A30A7594B58AB174A89EB812DDB74BC
:100DA000A422268998E440966DD190033A00AC17AE
:100DB0004A89EB81344B75A422268998E440B66CAD
:100DC000C390033A00AD174A89EB812DDB74A4B2BE
:100DD00025C996E440B66CC390033A00AE0BC4C874
:100DE00064244B24250A00AF0FCAB82B2429E9FF3D
:100DF0002225BD484922B00B068B68C2248CB4B4AE
:100E000059B10CE598A6C26890C21C1804B2164DE0
:100E1000996E762C47353953C4CCAC0E8A9A6A1633
:100E20009BA802B3194D99EE211D4C62495594922D
:100E3000A6B4AAA932249A8EB803A200B40742EA43
:100E4000641400B50B255B27324F83221601B61CB4
:100E50008B79AC926A54CD72D23064C321192EC9F9
:100E60003044D1A0883B69382400B7194D99EE2150
:100E70001D4C6249559492A6B4AAA932249A8EB800
:100E800003A200B807635864A405B907A2BA65961F
:100E900006BA0A84C86594484A1400BB0DA68A267F
:100EA000A22CCAA2244AA208BC1229892AD4415BD6
:100EB0006E83AC2AD2902CB56114BD0F4989AAE586
:100EC00021D581211CC2F55907BE13098929C652B3
:100ED000A6A5496549C4A4980C519800BF1B0F8969
:100EE0003087210772204B7228498687A81A45C38C
:100EF00043343C443AA400C0126789A8722087D3C7
:100F0000244CC2242B0D4AAA06C111678928D31C80
:100F10004E93300993AC3428A91AC2126789E8C4E9
:100F20002807D3244CC2242B0D4AAA06C312678972
:100F3000E8922CC9D14A988449561A94540DC41188
:100F40004789A8921CAD84499864A54149D500C53C
:100F5000138789E8D224CDE134099330C94A8392BA
:100F6000AA01C6120B89AB075547EA403464E54134
:100F70000DAB8300C70E665BA8A64C6DCEA231CE2A
:100F80002400C80E658B66D21C38864312160701F2
:100F9000C90D658BE6EAC0311C92B03808CA0E65EF
:100FA0008BA6A4EA30864312160701CB0D458B664B
:100FB000CAC3180E49581C04CC09628923A22CE923
:100FC00007CD09628B63B4A45F00CE0A6489639481
:100FD00028CDFA09CF0A4389239230EA1700D011AD
:100FE00007896886AC140E5212266192454304D1DB
:100FF00013678BE9922CC9A17454322992222D11C6
:10100000D700D20F678BA9722047B74AEA9A64D9F2
:1010100004D30F678B29D31CDD2AA96B92651300BB
:10102000D40F678BE9C428C7B64AEA9A64D904D5B5
:1010300010678BE9922CC9C1AD92BA26593601D6F8
:101040000F478BA9921CDC2AA96B92651300D70766
:1010500063AA26920ED812078BA9965A922552247B
:10106000454A9664493201D90E678BA97220C7524E
:101070005F932C9B00DA0D678B29D31C4B7D4DB2FF
:101080006C02DB0E678BE9C42847525F932C9B00F0
:10109000DC0D478BA9921C4A7D4DB26C02DD0F67B7
:1010A0008928D31C4B932CCA2A69DC06DE0D058BDC
:1010B00027C27048326D50C210DF0F258B67A44ADB
:1010C000944449A2642E0A00E00C258B67D21C19B7
:1010D00034B76408E10C258BE7EAC8A0B9254300C2
:1010E000E20C258BA7A4F2A0B9254300E30C258BC5
:1010F000A7927660D0DC9221E40C058B67EAC0A051
:10110000B9254300E50E458BA7B224CB9141734B23
:101110008600E60FC98A6B8621C9322DDAA6AC7229
:1011200001E70D245B6694482B2552984800E80D92
:10113000248B66C2588986248B1205E90D248BE620
:10114000A2588986248B1205EA0E248B66942855B2
:10115000A221C9A24401EB0D048B66AA4A3424598A
:10116000942800EC09228923A22CE901ED09228BA5
:1011700063B4A41700EE0A2489639428CD7A02EFA1
:10118000090389239230EA05F00D258BA792484D7B
:1011900006CD2D5900F10B258BA792E6C4A4B90505
:1011A000F20C258B67D21C5932B76401F30C258BE6
:1011B000E7EAC892B9250B00F40C258BA7A4F2929C
:1011C000B9250B00F50C258BA7927660C9DC92053A
:1011D000F60C058B67EAC092B9250B00F70AA598B3
:1011E000A67260D08108F80DC58A670669499464C3
:1011F0001A1400F90C258B67D21CC83C294A00FA46
:101200000B258BE7EA40E6495102FB0B258BA7A48F
:101210006AE6495102FC0A058B67CA99274509FD10
:101220000F865926EB48A8452DA198866908FE0E21
:10123000855B27C2E290646E83121601FF10665927
:10124000A6921C08B5A82514D3300D01000001009A
:10125000124789A8861C4C93300993AC3428A91AEC
:1012600001010C058B678678D0DC922101021267A0
:1012700089A89270472B6112265969505235010393
:101280000D258B674A3B30686EC9100104156859FB
:10129000E8E2244DD224CCB2414A933407E21C1137
:1012A000010511265B6786244BB2244BB26808C542
:1012B0005801060E668B28EBD894A9CD59B40001CD
:1012C000070D248BE6A25889B452A200010C0F66C8
:1012D0008B68A24CC7A64C6DCEA205010D0E248BC7
:1012E00026A2445622AD942800010E11668B28A236
:1012F0004C8786284B426FC91001010F14278B2899
:10130000933009A521CAA22CCAA22C1B22000110CD
:101310001207896886AC140E521226619245430466
:10132000011113268B27B3218C86244BB2244BB298
:1013300068480001120F458B26867818C321098B57
:10134000830001130E048B2686548986248B120594
:1013500001160E458BA672E0180E49581C040117A1
:101360000E048BA662251A922C4A140001180E65F1
:101370005B268EE19084C541AB0A01190E255B66A0
:10138000A4CA1446D116A602011A0F658B66A2489C
:101390001EC67048C2E220011B0F248B26A24456B1
:1013A000A221C9A24401011E10468BA892EC94A967
:1013B000A5214CB26801011F0F655B674A07CD2D5F
:1013C00019422D5900012210665BA8A64C2D0D6113
:1013D00092453B5802012310855BA7C21C1934B704
:1013E0006408B56401012A0B4489238634EB270085
:1013F000012B0A0489238634EB09012E0A63596301
:10140000A2FE9209012F0B635963D2A82F99000104
:101410003009418B23926110013107C18A230E01EB
:101420003614675B28C2249292504DC228CB943464
:10143000C7D210013711855B26C2A625D292A89289
:10144000E540960101390C668BE7C21C4AFB3A0C59
:10145000013A0A828B63B4A4BF00013B0D665B278F
:10146000D2BE0E3B146600013C09825963FA37056F
:10147000013D0D068B27922CC9C4B47518013E0B93
:10148000238B241265897A0201410D078967E24A9C
:10149000A8A6723C0C01420C238963A29292482DAB
:1014A00000014312678B29D31C4B4725932229D275
:1014B00012710D01440C258B27B33831696E01017F
:1014C0004513675B29D251C9A4488AB4445C733080
:1014D000CD0001460D255B271293E69603590601C0
:1014E0004712678BA98A3A948E4A264552A425E270
:1014F0001A01480D258B67A2484E4C9A5B00014C9F
:1015000010478BA9861CDB2AA96B92651300014D3D
:101510000C058B678678C9DC9205015011678BE951
:10152000922CC9C1AD92BA2659360101510D258BB5
:10153000A7927660C9DC92050152160C8BAD8664C9
:101540005042310EE32189C3380DE52119040153BE
:101550000FC98A6B2E59A645DB94552E00015413F2
:10156000668BE7C21C1AA22CC9922C19A2B6240CB5
:1015700001550C238BA4923059A226000156146603
:101580005B2786284BB2244B86A82D097328CC00F4
:1015900001570C235B2492256A4E220001581466E1
:1015A0008B67A24C4786284BB2244B86A82D090393
:1015B00001590D248B24A2444D12296B03015A0EAC
:1015C000648BE6A25889C4A2942800015B0B238B8C
:1015D000A59274D9A205015E0F645B6694482C4AFB
:1015E000890E441100015F0B235B656ED19A4400A4
:1015F00001600F648B26A2445622B128250A0001FF
:10160000610E248B25A244562A6296480001620D81
:101610006759270E59DC77380D0101630F6459644F
:10162000B26848B2C61C88220001640E6789A78A86
:101630003A340C59DC370001650D2489E492A62167
:10164000C91A1300016A0E478BA9861C497D4DB249
:101650006C02016B0C058B678634F3A42801016EC4
:1016600010878BE9D224CDB1D4D724CB2600016FCB
:101670000E458BA7B224CB81CC93A20401701067D6
:101680008BE9922CC9A1D4D724CB260001710C255B
:101690008BA792E6CC93A20401720F675B29525F7D
:1016A000932C5BE31C5000017311265B27B2244B83
:1016B000B2244B224B1AC6020178104789A8921C0B
:1016C0004A932CCA2A69DC0601790E678968EBD82F
:1016D000B036A7D56108017A0C268926EBC830768A
:1016E0001C06017B0E478928736C589BD3EA300493
:1016F000017C0C0689E67264183B0E03017D0F67BE
:1017000089A88A3A36ACCD6975180203870741BAB1
:10171000230403880F078766862189E3218BCB8307
:101720000003891309876954258DD26818A2344AA9
:10173000A3344A03038A0903876396A80F038C1115
:10174000098769A2A9568DD2288DD2AC3A01038EA1
:101750001309856854290BB334C9811CC9911CC96C
:1017600000038F130889699229C9A2344993344927
:10177000A32C5A0603900C2489A31225CD3A2600E7
:101780000391100789E8D2244CC2242B0D4AAA06E3
:1017900003920F058B278624D30625B30D0A000379
:1017A0009309058B268E7D040394110789E8D224C2
:1017B0004CC2242B65493A0C0203950C058B268EEE
:1017C000E19084C54103960D07896886B539AD0E51
:1017D000430003970B078B2952EB70750D03980F8D
:1017E000078BA9B64AAA2CAA9A64D90403990801BE
:1017F0008B230E02039A0F058B273229296949543E
:10180000C9B400039B100789E8D2244CC2242B657D
:1018100049AA06039C12078B6AB2288BB2A445A979
:10182000281529920A039D10078B29D251C9A44873
:101830008AB4445C03039E0C068B28EEF090538719
:1018400001039F0D078BA9B64AEA9A64D90403A045
:101850000A078B290EAA5F0303A10D058B27862497
:10186000B30D4A580403A30C068B272E71310DC308
:101870006103A40B0789270E59DC370003A50E0767
:101880008928D2248BB24A1AB70103A612078BE922
:10189000C2418922299222A93288190003A70F0781
:1018A0008928D224ABA4719A64953403A810078BBD
:1018B0002AA2488AA448AAB4AD710603A90D078BD1
:1018C000A9B64AEA9A64C90103AA0B438923923054
:1018D000EA170003AB104789A8921C4A932CCA2A26
:1018E00069DC0603AC0D258BE7EAC8A0B9254300E7
:1018F00003AD0E248BE6A2588986248B120503AE15
:101900000D855BE7EA4062D2DCC20603AF0A228B98
:1019100063B4A4530003B00D258BE72225CDBC256D
:101920000B0003B10BC58A6706CD2D190203B21255
:10193000855B67A44A944449A264B641098B0003BD
:10194000B30D255926322D292559D80903B40D2563
:101950008BA7A4345B32B7640103B50DC48A6694C7
:101960006848B228510003B60E646B2586A8166538
:101970008D5B940003B70B255B271293E6163603A5
:10198000B80E258B6796CC360C992D590003B909F2
:10199000C28A23924E0103BA0DC58A26A225D2928D
:1019A000A8920503BB0F268966D2384DB5248B5A01
:1019B000C20003BC0C255B27324F8322160103BDF6
:1019C0000DC58826322D292559180103BE0E646BDA
:1019D0006594C8A864C52D4A0003BF0BC58A6796E5
:1019E000CC2D590003C00FC788270E491665511624
:1019F00065511803C10D255B6796CC6D50C222005E
:101A000003C20C046B6694482B6E510203C30EC6CE
:101A10008A67862DC9922CC9A20903C40BC58825E3
:101A200006296C4D0003C50AC58A27326FC9020317
:101A3000C611855BA7C2DA52511225512A5B5802A2
:101A400003C710255925322D292559254A6A5A00E0
:101A500003C8138759E8E25A14499114499154195B
:101A6000C4B80603C90FC78A69B2248AA4488AA4E5
:101A70008A0503CA0A0389239230EA1603CB0B05B1
:101A80008B67CA99B7640103CC0D258BE7EAC8922E
:101A9000B9250B0003CD0C258BE7EA40E62D590054
:101AA00003CE12278B29D31CCC9228922229922A6A
:101AB000160003CF0823F824920004010E458B661C
:101AC000CAC3180E49581C04040213088929063594
:101AD000077220D9B4288CC228590004030B658BE7
:101AE000E6EAC0B18F0004040E068BA8A64C1D9434
:101AF00034CEA20504050C048B6694482C4A890256
:101B0000040608018B230E0204070B43892392303D
:101B1000EA170004080A0489E5FA362400040916C5
:101B20000B8B6D86354CC3341CA2304BC22C093351
:101B3000754800040A14098B2BB2300BB37018944B
:101B40002CD3322DD38604040B12088929063507BD
:101B50007260D0C2288CC2280C040C10668BE8C2BC
:101B60001CCAA64AB645DD9230040E126889A8AA9E
:101B70003A182761D694EA401CAE00040F0D476B5B
:101B80002952BF0E839686000410100789E8D224DC
:101B90004CC2242B0D4AAA0604110F058B2786245C
:101BA0000C8724B30D0A0004120F058B278624D35B
:101BB0000625B30D0A00041309058B268E7D040447
:101BC00014144869A806298CC2288CC2288CC264C7
:101BD00038CB0104150C058B268EE19084C5410499
:101BE0001612098B2CA4484A8A49754D6A512F59FF
:101BF0000104170E058B67962C8CD4504B160004ED
:101C00001810078B2952714BA4488A946C54030412
:101C10001912678BA98A3A948A5B224552A464A35D
:101C20001A041A0F058B27322929694954C9B400AF
:101C3000041B11068B6806254BB2244BB2244B3291
:101C400031041C12078B6AB2288BB2A445A928154F
:101C500029920A041D0B078B2952EB70750D041E87
:101C60000D078BA9B64AEA9A64D904041F0A078BA8
:101C7000290EAA5F0304200D058B278624B30D4A85
:101C8000580404210C068BA8A64C6DCEA205042294
:101C90000B0789270E59DC370004231026792742C9
:101CA00031C992284BC2B4A601042412078BE9C2A1
:101CB000418922299222A93288190004250F078917
:101CC00028D224ABA4719A649534042613466B2859
:101CD000B2244BB2244BB2244BB264580B04270BF2
:101CE000068B2842C764501B042813098B2BB24C67
:101CF000CBB44CCBB44CCBB46C38040429184A6B2D
:101D00002BB24A56C92A5925AB6495AC321C7224B1
:101D1000472200042A11088929861CC8811C18C280
:101D2000ACB72101042B10088B2A62F3A06991162D
:101D300069D1A005042C0D058B27C2E29064B64141
:101D400001042D0E068B68A62C4E0635D5A209047B
:101D50002E130A8B2CC229AB44E9A04AA9946A9598
:101D60007002042F110689A786244BB2248B86A803
:101D700092890104300BC58A6706CD2D1902043102
:101D80000E258B2793251C92CC2D590004320DC4AF
:101D90008A269668482269480004330AC38A248642
:101DA000A8130004340C0669A6A6FE3424A1180466
:101DB000350DC48A66946848B228510004360EC7AF
:101DC0008A29A24ADB969492A60204370BC48A267B
:101DD000C644CC860404380DC58A27326949946408
:101DE000D20204390F258B67A248CEA4255192490F
:101DF0000B043A0CC48A26222591924E01043B0E14
:101E0000C5886686244AA2244A222D043C0FC7882E
:101E100068B2284B5A948A52910A043D0CC58A270D
:101E2000326D18325B00043E0BC58A6796CC2D5983
:101E300000043F09C58A276EDE0204400D255B279A
:101E40008624731B94B00804410CC48A6694482B02
:101E5000250A0004420AC588250629EC0404430F1C
:101E6000265926422D6A09C5344C43000444118585
:101E70005BA7C2DA52511225512A5B580204450C65
:101E8000C58826B2A41666492D044611066B27B2F2
:101E9000244BB2244BB264184B0004470AC48A2670
:101EA0002253B215044810C78A2AA2488AA4488A35
:101EB000A4681804044912086B2AA24A54892A51BA
:101EC00025AA0C835C02044A0CC68827D6748B9A18
:101ED0001600044B0EC78A295275C8A4488A862C5E
:101EE000044C0CC48A26B26C89A42101044D0CC494
:101EF0008A669428D9A44401044E10C88A2AB225BF
:101F0000CA064DCAA44C5B00044F0DC588A696288E
:101F100089A225D202000060000505060705070713
:101F2000375500F13AF13A0107F01016180520076D
:101F3000000002CB00211387EE02ADE0FF07980FEF
:101F4000942270C1104400002222D062BFCD6230C2
:101F5000C32848110EE112472886210A528CC10C71
:101F6000643003118E5002141000238A9D8E02CB20
:101F700009214842089210822484200921483ACA43
:101F800091108224842009214842089210822484DE
:101F90001CEA2048420892108224842009214842E9
:101FA00008928E728C0FFC07A2821024210449082B
:101FB000411242908410241DE5500741CA07FE03D8
:101FC000D140089210822484200921483ACAA10EE7
:101FD00082248420092148420892108224841CEA29
:101FE00028474208921082248420092148420892FE
:101FF0008E72240024595D92E2CAEBB0E74717F8CD
:10200000B46851A83A57C988521691A444200B09C4
:10201000088B1AD49EE7D8C32215B1484DA8DA5CC4
:10202000D165AE3799B99A0A55D1A42216A9883D2F
:10203000ACF39E066B8740162292940CA528242BA5
:10204000D7A9D2B422E7C4A41EF6FC16002581DE6F
:102050008EFECCC460C840143294840806218239B4
:1020600088700C228E60184418A328C830465190FE
:1020700071048320852948610A62948220C420C9A2
:1020800038874555C4A22A62117B5854452CAA2290
:1020900016B1874555C422F6B0287B58943D2C6272
:1020A0000F8B3A853A4C7290B2188434E520CF40B9
:1020B00088218E719482180229053104520C7132E4
:1020C0004F404E238EB48C43250361450100267397
:1020D000DD8E02CBEB98CD7B5AB4A6549DCB2C6100
:1020E00029C9490892108224841CEB20C73AC86190
:1020F0000F8B54C4221565918AD4642A73890C7499
:102100009EF39E06B5882101618740D83110E20C0C
:10211000843804190E41864312E114443825098E8F
:1021200041826390E01C1BAA90752CD404E4340116
:10213000418B50CC3256242B98B9CE75AC54AD633C
:10214000202714C7E2BEAD621845A84231883190FD
:10215000810825200028434F6E07CD6860843A101F
:1021600062908318E4200639C8390E728E833A07CC
:102170003A0E720E747650E740E70F210785CE10B5
:1021800072107420E4A0107290931CE4240739C9E3
:10219000414E728C542CA100293D4F6E07CB6458E0
:1021A000053A4E7210841C042107410742D08190E9
:1021B00083A01342D019420E82CEFF3B68E740C78E
:1021C000419DE3A0CE7150063988414C6290832036
:1021D00063112D40002A3999C6A6CBAAA0652D30DF
:1021E0008509CA508A3290629406128A80842C5CD7
:1021F0006442CF6A58B31E34912B640109454046AE
:1022000019194A51861298C204ADA0650A002B1311
:1022100096052FCDE778E7873EF007BC73BCF32126
:10222000002C1087E2F6AAA1085C30444184220AFF
:10223000002D0AD6014BCDE01FF0002E0DC7E102A4
:10224000ABA1085C30C420002F429CAE02CB149995
:1022500008454D84A22642117A50D444286A22149B
:1022600035118A9A08454D8422F4A0287A50D44426
:10227000286A221435118A9A08454D8422F4A02830
:102280007A50D444286A22144501303D9D8E02CBF9
:10229000EB988D8BD694AA73958C2C6319CA510434
:1022A000B210812C24200D6ACF73FFFFFFBFF734DB
:1022B000A821E1688740162294A38C15C9CA75AA83
:1022C00034ADC835F35800311B8EAE03CDE7CCA03A
:1022D0004A8A28E2031FD0C23292729CF3FFFFFFAA
:1022E000FF0F325C9D8E02CBEB98CD83D694AA7300
:1022F000958C306219CA5104B210812C24200D6AC9
:10230000CF73BDA7410D09474382D11041B864087E
:102310000FA1C94C2842939950842633A1084D2817
:1023200042939950842633A1084D6642119A5084F5
:102330002633A1084D6642119AD00FFC0722334D77
:102340009D8EFECAE07F20A209456832138AD064C0
:102350002614A1C94C2842939950842633A18B643A
:10236000A2F31E0735882A15B148452C52117BFE71
:102370005554111C3288868863254141C960043355
:10238000B2729D2A4D0C7A0C2D1A0034479D8E0294
:10239000CB0AA9873D2AAA1EF6A8A87A54B47A5473
:1023A000B47A54B47A54543DEC5151F5A8483912DA
:1023B000528E8494231DE640883910620E8498035F
:1023C0001DE738C8390E728EF381FF40E4107BFEA2
:1023D000770035459D8E02CBE07F20AB873DFF2304
:1023E00088AAD065B092116D6CC211ABA384642130
:1023F00001614840DAE39EE7BCC39E3FEB3C978314
:102400001AC410812C442448198C584856AE53A540
:102410006945AE99C7020036559D8E02CBEB988D6B
:102420008BD694AA73958C2C8219CA5104B2107160
:10243000B423200D72CE73ECF91B4AB2CE65B09274
:10244000116D6C82298A505212928504A441ED715B
:10245000CF73FFDED3A086046421025988508E32E8
:1024600056242BD7A9D2B422D7CC6301374D9D8EE9
:1024700002CBE07F206350831A128E8684A321E171
:1024800060493818220E86D014452A42138A541403
:102490004D28525134A14845D1842215A1298A548E
:1024A00084A62852119A50A4A26842918AA2094592
:1024B0002A425314A9084D1A0038609D8E02CBEBB6
:1024C000988D8BD694AA73958C2C6319CA5104B23B
:1024D00010812C24200D6ACF73DF7B1AD490802CBE
:1024E00044200B11CA51C68A64E53A559A5275AE1A
:1024F0009211A5282349894016129006B5E7B9EF35
:102500003D0D6A48381822908508E5286345B27267
:102510009D2A4D2B72CD3C160039549D8E02CBEB7B
:10252000988D8BD694AA73958C2C6319CA5104B2DA
:1025300010812C24200D6ACF73FF39A8410D09C8E2
:102540004A429214A114466C434732731D2B29E36F
:10255000B0E7B3CE7339A8410C11C842448294C18C
:10256000888564E53A559A56E49A792C003A1547DD
:10257000E81EAB62181F1842F1C1AD2270C1108372
:1025800000003B1707E912AB62181F1842F1C1ADFA
:102590002270C11005118A28003C3092482FCB6F61
:1025A00070442B98A19094A0E4A84E8292A34288F4
:1025B0003A96C18A66B063212A514A52544A292A5E
:1025C000A59075B4C2116F80023D105AC526CDE0AA
:1025D0003FB07DF0F607FE810D3E2ED2482BCB207A
:1025E00088021C5ED10C762C44292A4D292A4D21C3
:1025F000CC680533D6A11094EE282741A9842883FE
:10260000158D70C30B22003F42DD8E02CBEB988DFF
:102610008BD694AA73958C2C63190A4A44A2108114
:1026200030A841CE79CE3BECA9A2683293A94845A7
:102630002E7191EA668A2215A9873DFFDF07F78A86
:102640006BDCC39EAC8189060040D57391C6F6B39E
:10265000F900993C9637FBCD0F08F103C47392D370
:1026600098C7AC652E69B10A527072929D98842702
:1026700024594738084A45041988920A229034158B
:102680004420883287385065205419E82842390E92
:10269000420C721C741CE438E8741C743A0E3A1D27
:1026A000079D8E834EC741A7E3A0D371D0E938E8D8
:1026B000741C743A0E3A1D079D8E834EC741A7E3E2
:1026C000A0D371D0E938E8741C743A0E3A1D079D06
:1026D0008E838E831C07212629D051441324F48134
:1026E000411CE8038338D2078281248F20CA098DD8
:1026F0004114339683B0031D29F9004B3EC0920F5D
:102700002CE5034BF9C05A3EA0980F24E803E503DB
:1027100044FCC0203F20D0AF7A78DBD80100416E66
:102720009D8E02CBEBB04845681A55A622D74926A4
:1027300032B00D3ACF712F7784C31D01694740181D
:10274000220E8688831DE360C738D83110859043F8
:1027500021E4504739D4510E7514241D05418839A0
:10276000D0710E749C031D0739C741CC3D83911C69
:1027700041D4418E75906321E3608740D8218E76E5
:1027800088A31DE26848381AE41E770042779D8EC0
:1027900002CB006A93AA9075B082958C2086198727
:1027A0004AC6B1127130441CED104743C2D190703B
:1027B000B8231CEE084743C2D1907034241C0C117E
:1027C000C74AC4A11471246568232358B9CC65B0E5
:1027D0009211A434E348CA3856220E8688A321E118
:1027E000684838DCEBB9E75E0D094743C2C1927017
:1027F000AC441C691187694646B07219EB546852A3
:10280000500300433E9D8E02CB0A998D8BD694AA2D
:1028100073958C2C8219095204B2908034587B9E97
:10282000CB9EFFFFFF7BCE7B1AD490803024200B01
:10283000110A4AC622189295EB54695A916B26A246
:102840000044399D8E02CB405A15BA0C5632A28DE7
:102850004D206811C752C2D1907034241CEEF5DCB3
:10286000FFFFFF9F7B35241C0D09C752C29116B193
:10287000096D64042B97A990B400451D9D8E02CB71
:10288000E07F20AB873DFFFFAC75EC770E7BFEFF52
:102890002C523FF01F880046199D8E02CBE07F200E
:1028A000AB873DFFFFAC75EC770E7BFEFFFF2C0086
:1028B00047429D8E02CB0A998D8BD694AA73958C34
:1028C0002C6319095204B29080B0A841ED792E7B97
:1028D000FE1FAABFE7FEBDA7410D09C84A02B2927A
:1028E000A09C452CA311DBD048563073A1261CEBCD
:1028F000200748159D8E02CBE078EEFFFFDFFBC07E
:10290000FF9EFBFFFF7B07490B87EE02ADE0FF3F19
:1029100030004A279D8E02CBF6FCFFFFFFFF679D2C
:10292000E7725083DA21908508052583110BC9CA07
:1029300075AA34ADC8351351004B8B9D8E02CBE088
:10294000685043C2C19270AC441C0B19874AC6A19F
:102950001072A4841C28290742CC7112731CE41C39
:1029600026394749D051907490241D2351C740D631
:102970002192750884450C6A8F7B9CF39CD7402676
:10298000B2C5063ACF798F7B1CD48E90B02324EC4D
:1029900010C93A06B28E91A88324E928483A4A829F
:1029A0000E83A0C324E738893910620E949423253E
:1029B000E450083954328E858C6325E26049381A18
:1029C000128E96004C149D8E02CBE0B0E7FFFFFF05
:1029D000FFFF3FFB81FF40044D569D8E02CBE07010
:1029E00050833169C9149568C83A368315AC64437D
:1029F00037B6C0850FFC034B68821318E188453851
:102A00006211CE48863392E18C6438E4200E398816
:102A1000430EE294A238A5284E218C6306E398C1A8
:102A2000384638CE098E7382E33CF7FFBD034E571C
:102A30009D8E02CBE0788F7B1CD4602D6211939623
:102A40006C4D6AA6A844A50AD59075AC73192720C9
:102A5000C609887104521C81146720C419087106C4
:102A6000421C820C8720C32189700A229C8208C7DD
:102A700020C1314870CC756CA82ED1D4DC92B1B88D
:102A800006E75EEF004F3D9D8E02CBEB988D8BD617
:102A900094AA73958C2C6319CA5104B210812C240A
:102AA000200D6ACF73FFFFFFBFF734A821015988BB
:102AB00040162294A38C15C9CA75AA34ADC835F343
:102AC000580050469D8E02CB006A93AA90752E83C3
:102AD000958C20A519475AC4B11271B0241C0D0958
:102AE0004743C2E15ECF3DF76A48381A120E96841A
:102AF0006325E2488B404A33328295CB58A74293F4
:102B000082DA61CFFFFF6701513D9D8E02CBEB98CA
:102B10008D8BD694AA73958C2C6319CA5104B290EC
:102B2000902C24200D6ACF73FFFFFFBFF734A8213C
:102B300001598840162294A38C15C90A66AE731DEC
:102B40002B55EB1808527F9D8E02CB006A93AA90FA
:102B5000752E83958C20A519475AC4B11271B024E3
:102B60001C0D094743C2E15ECF3DF7B8231C0D0998
:102B70004743C2C11071AC441C491948694646B06C
:102B80007219EB54A8868E73A0E320E738C839D0B9
:102B9000710E84980321E648873912528E8494433B
:102BA0001DE550083914428E75906321E358C838EA
:102BB000D8310E86888321E26848381A128E8684BE
:102BC000C33D0E0153519D8E02CB0A998D8BD69435
:102BD000AA73958C2C8219CA5104B2108130A84175
:102BE000ED792E7B58A42216A929AAD065AE479765
:102BF000B93E9AD4A422F6B04845ACF35C0E6A10F4
:102C00004304B210A11C6530622159B94E95A61536
:102C1000B966220A0054159D8E02CBE07F205A48E7
:102C20003DECF9FFFFFFFFFFB70055279D8E02CB5C
:102C3000E078EEFFFFFFFFFFDED3A08604642102F1
:102C40005988508E3256242BD7A9D2B422D7CC63C0
:102C500001567C9D8E02CBE0788F3BC2D1907034C0
:102C6000241CED10473B04C28E71B0631C0B19C7C6
:102C700042C6B10E82A8A31CEA28873ACA91907274
:102C8000A4C320E838073ACE818E731CE41C076584
:102C90008E7498231DE6488739D251908410441DC4
:102CA000E4580739D6418E7590632102618738DA7E
:102CB000218E7688A31DE268907B9CF3DC600B324A
:102CC00091255752992A9A46918AD84301578F9D48
:102CD0008E02CBE0788F7BE78E70B8231C0D0947FE
:102CE00043C2D1907034241CED10473BC4D10E7107
:102CF000B4431CED10473B04C20E81B04320EC10DE
:102D00004809CC21901298631C4528C738C84090C8
:102D100071908120E320C440C6318A818C6314E322
:102D200020C728C6418E6188831CE2440E71228729
:102D300040C241A270907C05BF72993BB384C52C00
:102D40004231CA508C3214A30CC528243948490E8C
:102D500052928318E41C0739C7410600588A9D8E99
:102D600002CB006948381A12107608841DE358C84F
:102D70003816321075102421E5484841D0619083FF
:102D80009CE3A0CC81107320A420E9284842C8A16C
:102D90009081AC63200B11074302D28E80B4C7BD73
:102DA0009EF31AD844166C41C7BDB923200C0908FC
:102DB00043C4C18E812864200A21873A0A82908206
:102DC00020C41C0831073A0E62908318041DE6489F
:102DD00008411242107590632102598840D8211091
:102DE0007688A3410D0159699D8E02CB0069483850
:102DF0001A120E860864210259C83814420E851032
:102E000024210441883910620E741CC420E8300863
:102E10003A0A921082248420EA18C83A06B2107145
:102E2000302420ED08487BDCEB35B01517B9486538
:102E30002A34A1484551A4A22852917A54543D2ADB
:102E40008A221545918AD4A3A228525114A9005A66
:102E50004B9D8E02CBE07F20AA08452A42918A50E2
:102E6000A42234A1084D2852118A54842215A14865
:102E7000452852118A54842215A148452852118AA6
:102E800054842215A148456842119A50842614A101
:102E900009452A4291FA81FF40045B18916E03CDE7
:102EA000000A1FF801489DFFFFFFFFFFA90FFC402C
:102EB00016005C479CAE02CB00A1484528528F8A81
:102EC00050A41E15A1484528AA221455118AAA0803
:102ED00045558422F5A808452A425115A1A88A50D3
:102EE000544528AA221455118AD4A32214A90845AE
:102EF0005584A22A425115A1085D14906E03CDE0BD
:102F00000F4CE9FCFFFFFFFF2F7DE007345E1B97AE
:102F1000E2F2CB27690B5B56939E8304A420032126
:102F20004739C6718E80A0035F0A6501EECAE03F93
:102F3000E0016012CE82DFCBE040C739D00919C969
:102F4000848C64026160218B02D32BA94F8CDED468
:102F5000AA75A50C2D6339494A0CB210832CC41CE8
:102F6000ED30473BCCD10E73B4439F32721556A956
:102F70002B61283B9AD90A57947514A41D04710734
:102F800041DC418E7790E31DE4780741DC41909667
:102F90001064296429CFF8C4373CD295491C072214
:102FA000465AD4006241DD8E02CBE0B0E7FF478E87
:102FB0007584065D062B19D1C6269AB18805252190
:102FC00059484818D420E73CF7FFEF3DEE69118BD4
:102FD0001612169484662C6213DAC808562E73846F
:102FE000061D045100633D1D8B02CBEB988D8BD6E3
:102FF00094AA73958C2C63190A4A04B2108130A8E4
:1030000041CE792E7BFEBFE7BCC73D0D09084302C8
:10301000B210A1A064AC4856AE53A56945AE9988DC
:1030200002006443DD8E02CBF6FCFF16320ED48420
:10303000C35C0523D9D0C42696D10405290159497A
:103040004018D420E73CF7FFEF3DEE6948401812E6
:10305000909504052962198DD88646B282990B3560
:10306000E158073900653E1D8B02CBEB988D8BD65E
:1030700094AA73958C2C63190A4A04B2108130A863
:1030800041CE79EEDE07FE67CFB34845DA601056D1
:103090009044214241C95891AC5CA74AD38A5C3321
:1030A0008F05006629DD8E02CBCFA80B741CC4A44B
:1030B00035252A25423988410E724EE838873DFF72
:1030C0007BDAD09F3AECF9FFFFBF07006760DD8E27
:1030D000C6CA4B4295B90A46B2A113CB58867214A0
:1030E000912844200C6A90739EDB7BDCD390803067
:1030F00024240A110A4AC68A64E53A559A56B4202D
:10310000F6B88422F5B0278B54854A6B4A96C1489D
:103110003636B18564450D72CE73DEE39E86842417
:10312000296113DBC8CA75AA3435E700682ADD8E29
:1031300002CBE0B0E7FF478E7584065D062B19D100
:10314000C6269AB18805252159484818D420E73C5D
:10315000F7FFFFFFBD036922CBAE02AB6238063931
:10316000578A0F060E72FEFFFFFF11642024114ADA
:10317000504432107214030D6A2A9612C7CC9088FC
:10318000063CDE192C3EF8CCF1CEFFFFFFFFFFF727
:103190001CF418C820211189A00DA940C7494C333F
:1031A00010006B76DD8E02CBE0B0E7FFE79E8684F1
:1031B0008325E160883856228E858C4325E34809B3
:1031C0003912520E94940321E63889390E720E9307
:1031D0009CA324E828483A48920E82A86324EA185F
:1031E000C83A04C28E90B023242C62D29AD4A4A8E8
:1031F00044A50A310141CB40CE3212A314C4A44AE3
:10320000729082A084202919C742C6B1127130443D
:103210001C2C094743C2E1106C1DCF8E02ADE0406B
:10322000E7FFFFFFFFFF0F210741897182239AC14A
:1032300090A528E8006D86338B02F7E020C73BD6C7
:10324000119AD4A0AB44061B53C942453E108D0FC2
:1032500048A219D358C4821C9484642D0B090953C5
:1032600018D4920639C439EF78CE3B9EF38EE7BC72
:10327000E339EF78CE3B9EF38EE7BCE339EF78CEAF
:103280003B9EF38EE7BCE339EF78CE3B9EF38EE7AF
:10329000BCE339EF78CE3B9EF38EE7BCE339EF78A1
:1032A000CE3B9EF38EE7BCE339EF78CE3B9EF38EA8
:1032B000E7BCE339EF78CE3B9EF34E6E271D8B02C1
:1032C000CBE020C73A42832E83958C686313CD5898
:1032D000C48292902C24240C6A90739EFBFFFFFF03
:1032E000DE016F3A1D8B02CBEB988D8BD694AA73BF
:1032F000958C2C63190A4A04B2108130A841CE790A
:10330000EEFFDF7BDCD390803024200B110A4AC60D
:103310008A64E53A559A56E49A8928007042DD8E0F
:10332000C6CAE020C73A42832E83958C686313CDCA
:1033300058C48292902C24240C6A90739EFBFFF751
:103340001EF7B488450B090B4A423316B1096D6468
:10335000042B973942830E82A8C39EFFCF0271438C
:10336000DD8EC6CAEB20076AC261AE82916C6862CC
:1033700013CB6882829480AC24200C6A90739EFBED
:10338000FFF71EF73424200C09C84A828214B18C3E
:10339000466C432359C1CC859A702C641CF6FCFF03
:1033A00000721C168B02BDE02052F8C01F688444D6
:1033B000200399C721EE78E7FFFFFF7B00734219D6
:1033C0008B02C3E980CC7A5274A652114B2C611146
:1033D000C88912A49CE55A4F44241213F8AC28451E
:1033E000484A3105B925261189CF725B4F821212E6
:1033F000909384D5B04655A613A58731EF48007445
:1034000022D24E02ADE458E7FF3B1FF8030239D643
:10341000F9FFFFDF4294929AD218E62C4849C93A44
:103420000075281D8B02CBE078EEFFFFFF7B8F7BC2
:103430001A12108604642541418A584623B6A19188
:10344000AC60E6424D38D6410E766E1D8B02CBE065
:10345000788F7BDC118E8684A31DE2688740D8219B
:1034600010768C6321E3580739D641107510441D3E
:10347000E5484839D2618E7418041D0641C7390EDB
:10348000724EE8380742CC811073A4A320E9288744
:103490003ACAA1107228841CEB18C83AC6C18E71B2
:1034A00030441C0C09483B02D28E70B8231CEEF548
:1034B0009CD7C0B6C8200077C5338B02F7E078C729
:1034C00073DEF19E9634241C2D6948385AD20E7151
:1034D000B4A41DE2680A3B04B296858C632D0B19D7
:1034E000C75AD6418EB5AC831C8B5107415293907D
:1034F00072A42621E5484D3ACC919A74982339E874
:1035000030C8790E728EF31CE49CC2710E749C2339
:103510001CE740C73902620E841424200549474144
:10352000C451907494631CE5504739C6510E75948C
:103530006320E450C8405BC740C83190758CA31C21
:10354000E360C738CA310E768CA320E26048400A97
:1035500012907604C41C01694738CE110E7784E3BB
:103560001CE1704738CEE39EF33C0739AF490D6C40
:1035700052039BD4C0263591510C020078661D8BF6
:1035800002CB007147381A1210768C632103514721
:1035900039125210749CE3A0CC918E8224841CEBCF
:1035A00018C842C4D18E80B4E739AF894C5CA632CA
:1035B000938AA20955E42219D840C73DEE08084372
:1035C000C4C18E8128841CEA280842CC818E8318CD
:1035D000041DE6480841D4418E8508841DE26890A8
:1035E0003B007974DD8EC6CAE360C7401432108593
:1035F000904321E4504739D4511084140421E6400B
:103600008839D0710E741CE41C0731083A0C820E04
:1036100073A4C31C0929474208A20E82A8831CEB8D
:1036200020C742C6B11081B04320EC10083BC4D182
:10363000907034C8BD9CF35CB00599C8922BA94C1E
:10364000154D51A4A26B42415A211216AD68490C86
:10365000720E5CE811017A2B1D8B02CBE07F20A259
:10366000C94CA632535399693499299ACC144D66A2
:103670008A26334593999ACA4CA3C94CE807FE039E
:10368000117B41D430E7CAAF68C74A949216C4A0F0
:1036900005292A592886B0A39DFFC71076304425F6
:1036A0004951C942D81011962C85250D694743DA36
:1036B000F9FF1AC210965ACA62109316A5ACA41D3F
:1036C000AF007C0B47F2E3CAE0FFFF81077D43D3E5
:1036D00030E7CA8078464356A294B4A045290B61CE
:1036E000C842D8F9FF18B210862C84254B51093BEB
:1036F000E0C00E952405250959884216B20E76FEC3
:10370000DF4229242967410B5252A2906534E2011D
:103710007E1AA0624ACB835806424C5338D237BA3D
:103720000209A52CE84844130A007F07000002CBD9
:10373000000000000052616E67653A200020200002
:1037400030300030302E300000000000496E6372CF
:1037500065617365206F722072656475636520769C
:10376000616C756500546F20696E63726561736585
:103770002C206C6F776572207468652076616C759B
:103780006500546F20726573657420686F6C6420E7
:10379000232B24005072657373202320746F2072D2
:1037A0006573657420002054696D696E67206265D9
:1037B0006C742064697374616E63653A2000203113
:1037C0003025207265736973746F7220746F6C6535
:1037D00072616E636500000000C5B400C39700C24B
:1037E000A4004000C2A3002000D090D09DD0932E12
:1037F00020D0A0D095D09CD0AAD09A00D092D09EB4
:10380000D09BD0A2D09CD095D0A2D0AAD0A000C2EC
:10381000A700C2A600C2BB00C2AC00C3B800C2B9B8
:1038200000C2AE00C2AC00C2AB00C2AA00C2A90076
:10383000C2A800C2BF00C2BE00C2BD00C2BC00C25E
:10384000B700C2B600C2A100C2B700C2AE0060009D
:103850005E00C2A200C2B000C2A500D094D0BED00B
:10386000B2D0B8D0B6D0B4D0B0D0BDD0B52E2E2EF8
:10387000202020202000C2B1C3B7C2A500C2B200E0
:10388000C2AF00C2B10034323030306B6D2028D06E
:10389000A1D0BBD0B5D0B420D181D0BCD18FD0BD08
:1038A000D0B020D0BDD183D0BBD0B8D180D0B0D0E3
:1038B000B9D182D0B520D0B4D0B0D0BDD0BDD0B8B1
:1038C000D182D0B52900D092D18AD0B7D0B4D183DB
:1038D000D188D0BDD0B8D18FD18220D184D0B8D0FA
:1038E000BBD182D18AD18020D181D0B520D181D0E5
:1038F000BCD0B5D0BDD18F20D0BDD0B020D0BDD0F0
:10390000B0D0B40020D09DD0A3D096D09DD0902030
:10391000D0A1D09CD0AFD09DD09020D092D0AAD0B2
:1039200097D094D0A3D0A8D095D09D2FD09CD090E4
:10393000D0A1D09BD095D09D20D0A4D098D09BD0A2
:10394000A2D0AAD0A02000D0B520D0B7D0B020D12E
:1039500081D0BCD18FD0BDD0B020283835303030A8
:103960006B6D2B2900D090D0BDD0B3D180D0B5D015
:10397000BDD0B0D0B6D0B5D0BDD0B8D18FD1822017
:10398000D180D0B5D0BCD18AD0BA00D090D09DD053
:1039900093D0A0D095D09DD090D096D095D09D209A
:1039A000D0A0D095D09CD0AAD09A00D097D0B0D03B
:1039B000B4D0BDD0B820D181D0B2D0B5D182D0BBE7
:1039C000D0B8D0BDD0B82000D09FD180D0B5D0B471
:1039D000D0BDD0B820D181D0B2D0B5D182D0BBD0AB
:1039E000B8D0BDD0B800D09DD0B5D180D0B0D0B1C6
:1039F000D0BED182D0B5D189D0B020D0BAD180D1BB
:103A000083D188D0BAD0B020D0B23A00D098D09725
:103A1000D093D09ED0A0D0AFD09BD09020D09AD0C1
:103A2000A0D0A3D0A8D09AD09000D182D0B5D18711
:103A3000D0BDD0BED181D182D182D0B020D0B7D07C
:103A4000B020D187D0B8D181D182D0B0D187D0BABF
:103A5000D0B800D09FD180D0BED0B2D0B5D180D068
:103A6000B5D182D0B520D0BDD0B8D0B2D0BED18231
:103A7000D0BE20D0BDD0B000D0A2D095D0A7D09DD0
:103A8000D09ED0A1D0A220D097D09020D0A7D098FF
:103A9000D0A1D0A2D090D0A7D09AD09800D0BDD03D
:103AA000B020D0B4D0B2D0B8D0B3D0B0D182D0B5DD
:103AB000D0BBD18F20D0B520D0B2D0B8D181D0BE6C
:103AC000D0BAD0B02100D0A2D0B5D0BCD0BFD0B534
:103AD000D180D0B0D182D183D180D0B0D182D0B0CA
:103AE0002000D09ED09FD090D0A1D09DD09ED0A1BC
:103AF000D0A220D09FD0A0D095D093D0A0D0AFD0CE
:103B000092D090D09DD09500D0BED185D0BBD0B002
:103B1000D0B4D0B8D182D0B5D0BBD0BDD0B0D182D6
:103B2000D0B020D182D0B5D187D0BDD0BED181D187
:103B30008200D09FD180D0BED0B2D0B5D180D0B5D8
:103B4000D182D0B520D0BDD0B8D0B2D0BED182D035
:103B5000BE20D0BDD0B000D09ED0A5D09B2E20D00E
:103B6000A1D098D0A1D0A2D095D09CD09000D0BFA9
:103B7000D180D0B5D0B4D0BDD0B8D182D0B520D10D
:103B800081D0BFD0B8D180D0B0D187D0BAD0B82042
:103B90002000D098D0B7D0BDD0BED181D0B2D0B0A7
:103BA000D0BDD0B520D0BDD0B02000D0A1D09FD006
:103BB00098D0A0D090D0A7D09DD09020D0A1D09860
:103BC000D0A1D0A2D095D09CD09000D0BDD0B520AF
:103BD000D0B520D0B220D180D0B0D0B1D0BED1826B
:103BE000D0BDD0B820D0B3D180D0B0D0BDD0B8D166
:103BF00086D0B800D09DD0B0D0BFD180D0B5D0B6DF
:103C0000D0B5D0BDD0B8D0B520D0BED1823A20003A
:103C1000D095D09B2E20D0A1D098D0A1D0A2D09565
:103C2000D09CD09000D0BCD0BED182D0BED180D0AC
:103C3000BDD0BED182D0BE20D0BCD0B0D181D0BB4F
:103C4000D0BE00D09FD180D0BED0B2D0B5D180D070
:103C5000B5D182D0B520D0BDD0B8D0B2D0BED1823F
:103C6000D0BE20D0BDD0B000D0A1D09CD090D097F5
:103C7000D09ED0A7D09DD09020D0A1D098D0A1D058
:103C8000A2D095D09CD09000D0A8D0BED184D0B87E
:103C9000D180D0B0D0B9D182D0B520D0B2D0BDD0F3
:103CA000B8D0BCD0B0D182D0B5D0BBD0BDD0BE00D2
:103CB0002000D097D090D09BD095D094D0AFD09208
:103CC000D090D09DD098D0AF20D09FD09E20D09FB4
:103CD000D0AAD0A2D0AF0020D09DD0B520D0B8D0EF
:103CE000B7D0BFD180D0B0D0B2D0BDD0BED181D1FD
:103CF0008220D0BDD0B020D0BAD180D183D188D09D
:103D0000BAD0B00020D09ED0BFD0B0D181D0BDD02D
:103D1000BED181D18220D181D18AD0BDD0BBD0B8D3
:103D2000D0B2D0BED181D182200020D09DD0B0D0E1
:103D3000BFD180D0B0D0B2D0B5D182D0B520D0BF65
:103D4000D0BED187D0B8D0B2D0BAD0B000D098D041
:103D5000B7D0BFD0BED0BBD0B7D0B2D0B0D0B9D121
:103D600082D0B520D181D0BFD0B8D180D0B0D1879A
:103D7000D0BAD0B0D182D0B020D0B7D0B020D0BA95
:103D8000D180D0B0D0B900D098D0B7D0B3D0B0D116
:103D900081D0B5D182D0B520D0B4D0B2D0B8D0B314
:103DA000D0B0D182D0B5D0BBD18F20D0B7D0B02089
:103DB000D0B7D0B0D0BFD0B0D0B7D0B2D0B0D0BDD7
:103DC000D0B52E00D0A0D095D097D0A3D09BD0A2B4
:103DD000D090D0A200D09AD09ED09DD0A1D0A3D018
:103DE0009CD090D0A6D098D0AF00D09ED094D09E3A
:103DF000D09CD095D0A2D0AAD0A000D09ED091D0F7
:103E00009ED0A0D09ED0A2D09800D0A1D09AD09E13
:103E1000D0A0D09ED0A1D0A200D098D0B7D0BFD093
:103E2000BED0BBD0B7D0B2D0B0D0B920232B242085
:103E3000D0B7D0B020D0BFD180D0BED0BCD18FD031
:103E4000BDD0B000D098D0B7D0BFD0BED0BBD0B717
:103E5000D0B2D0B0D0B9202420D0B7D0B020D0BDBF
:103E6000D0B0D0B2D0B8D0B3D0B0D186D0B8D18F86
:103E70002000D09DD0B0D182D0B8D181D0BDD0B5F6
:103E8000D182D0B5202420D0B7D0B020D0BFD180EF
:103E9000D0BED0BCD18FD0BDD0B0004172647569A6
:103EA0006E6F4D494420D0B2D0B5D180D181D0B809
:103EB000D18F2000D097D0B020D0BDD0BED0B2D00E
:103EC000B820D0B2D0B5D180D181D0B8D0B83A2006
:103ED0007777772E6769742E696F2F76486C6B64DD
:103EE00000D097D0B0D0B4D180D18AD0B6D182D012
:103EF000B5202320D0B820D0BDD0B0D182D0B8D149
:103F000081D0BDD0B5D182D0B520D181D0BFD0B8BD
:103F1000D180D0B0D187D0BAD0B0D182D0B020007B
:103F2000D097D0B020D0BDD183D0BBD0B8D180D075
:103F3000B0D0BDD0B520D0BDD0B020D0BFD18AD1B7
:103F400082D183D0B2D0B0D0BDD0B5D182D0BE00A6
:103F5000D097D090D092D09ED094D0A1D09AD09823
:103F600000D0A2D095D09AD0A3D0A9D09E00D09D49
:103F7000D090D0A1D0A2D0A0D09ED099D09AD098E5
:103F800000D098D09DD0A1D0A2D0A0D0A3D09CD05A
:103F900095D09DD0A2D09800D09ED0A2D09DD09E8A
:103FA000D0A1D09DD09E00D09ED091D0A1D09BD04A
:103FB000A3D096D092D090D09DD09500D093D09E93
:103FC000D0A0D098D092D09000D09FD0AAD0A2D02C
:103FD000A3D092D090D09DD098D0AF00D09DD0905B
:103FE000D0A7D090D09BD09E00D098D0B7D0B3D0DF
:103FF000BED180D0B5D0BBD0B800D098D0B7D0BD9E
:10400000D0BED181D0B5D0BDD0B800202020202096
:1040100020202040002020202020202020C2A3207B
:104020000020D09DD0B8D0B2D0BE20D0BCD0BED160
:1040300082D0BED180D0BDD0BE20D0BCD0B0D18186
:10404000D0BBD0BE3A2000D0A2D0B5D187D0BDD051
:10405000BED181D18220D0B7D0B020D187D0B8D105
:1040600081D182D0B0D187D0BAD0B83A2000D09ECA
:10407000D185D0BBD0B0D0B4D0B8D182D0B5D0BB70
:10408000D0BDD0B020D182D0B5D187D0BDD0BED1E7
:1040900081D1823A2000202020D09FD180D0B5D07D
:1040A000B4D0BDD0B82020D0BDD0B0D0BAD0BBD015
:1040B000B0D0B4D0BAD0B83A2000D09FD180D0B51B
:1040C000D185D0BED0B42000D0B4D0BE20D181D014
:1040D000BBD0B5D0B4D0B2D0B0D189D0B8D18F20B8
:1040E000D0BFD18AD182210000E840C840BA4096B2
:1040F000406E404740214015400B40FA3FE93FDC0D
:104100003FC93FBC3FA73F983F813F6E3F613F5053
:104110003F203FE13EB43E9B3E723E443E193E0A84
:104120003EFB3DEA3DD53DC43D873D4D3D2A3D0426
:104130003DD73CB23CB03C883C683C433C253C10FD
:104140003CF43BCB3BAB3B923B6E3B573B323B089B
:104150003BE23AC63A9D3A783A533A2A3A0C3AE662
:1041600039C839AB398B39653947390439C638868E
:1041700038833880387D3876385B3858385538522F
:104180003850384E384B384838453842383F383C3C
:104190003839383638333830382D382A38273824EB
:1041A0003821381E381B381838153812380F38FCAB
:1041B00037E937E737E437E237DF37DC37D937D845
:1041C00037D737D637BE37A6379437823765374C5F
:1041D000374B374A3749374837433740373D37350C
:1041E000373A092000566F6C74616765207265610B
:1041F00064696E6773003A092000566F6C746167DA
:10420000652063616C63756C617465003A09200018
:1042100020456570526F6D20616C6C6F63617465D1
:104220002055534544206D656D6F72792062797415
:1042300065733A2020003A09200020456570526FCE
:104240006D20616C6C6F636174652046524545203A
:104250006D656D6F72792062797465733A20003AEA
:1042600009200055736564206D656E75003A09205C
:1042700000536176656420637572736F72206D659B
:104280006E75003A09200043757272656E74206382
:104290007572736F72206D656E75003A0920004C5F
:1042A0005047202062696E617279003A0920004C03
:1042B0005047207472616E732020003A0920004C30
:1042C000504720696E7573652031003A0920004C13
:1042D000504720696E7573652030003A09200054FC
:1042E00072616E7320003A092000446174612031CC
:1042F000003A092000446174612030000000000091
:1043000000000000000000000000000000000000AD
:10431000000000000000000000000000000000009D
:10432000000000000000000000000000000000008D
:10433000000000000000000000000000000000007D
:10434000000000000000000000000000000000006D
:1043500000000000000000000000E0FF0700000077
:104360000000000000E0FF07000000000000000067
:10437000E0FF07000000000000000080C301000013
:1043800000000000000080C30100000000000000E9
:104390000080C30100000000F8FFFFFFFFC37F00A3
:1043A000000000F8FFFFFFFFC37F00000000F8FFE0
:1043B000FFFFFFC37F00000000F8FFFFFFFFC37F88
:1043C0000000000038000000000078000000003805
:1043D000000000000078000000803F0000000000A6
:1043E00078000000803F000000000078000000809E
:1043F0003F000000000078000000803F0000000047
:1044000000780000000000000000000078000000BC
:104410000000000000000078000000803F00000065
:10442000000078000000803F0000000000780000DD
:1044300000803F000000000078000000803F000086
:104440000000007800000000380000000000780044
:104450000000003800000000007800000000380074
:104460000000000078000000003800000000007824
:104470000000000038000000000078000000003854
:10448000000000000078000000003800000000007C
:1044900078000000003800000000007800000000F4
:1044A0003800000000007800000000380CC0000454
:1044B000407800000000381EE0010EE078000000A7
:1044C00000383FF0031FF07900000000B87FF88744
:1044D0003FF87B00000000F8FFFFFFFFFF7F0000B8
:1044E0000000F8FFFFFFFFFF7F00000000F8FFFF64
:1044F000FFFFFF7F00000000F8FFFFFFFFFF7F00CE
:10450000000000F8FFFFFFFFFF7F00000000F8FF42
:10451000FFFFFFFF7F00000000F8FFFFFFFFFF7FAE
:1045200000000000F8FFFFFFFFFF7F00000000F821
:10453000FFFFFFFFFF7F00000000F8FFFFFFFFFF0E
:104540007F00000000F8FFFFFFFFFF7F000000007A
:10455000F8FFFFFFFFFF7F000000000000000000E9
:10456000000000000000000000000000000000004B
:10457000000000000000000000000000000000003B
:10458000000000000000000000000000000000002B
:10459000000000000000000000000000000000001B
:1045A000000000000000000000000000000000000B
:1045B00000000000000000000000000056000000A5
:1045C00000000000000000000000000000000000EB
:1045D00000000000000000000000000000000000DB
:1045E00000000000000000000000000000000000CB
:1045F00000000000000000000000000000000000BB
:1046000000000000000000000000000000000000AA
:10461000000000000000000000000000000000009A
:10462000000000000000000000000000000000008A
:10463000000000000000000000F07F0000C0FF014B
:1046400000000000F07F0000C0FF0100000000F04B
:104650007F0000C0FF0100000000F07F0000C0FFED
:104660000100000000F07F0000C0FF01000000FE1C
:10467000FFFFFFFFFFFFFF1F0000FEFFFFFFFFFF29
:10468000FFFF1F0000FEFFFFFFFFFFFFFF1F0000F7
:10469000FEFFFFFFFFFFFFFF1F0000FEFFFFFFFF0A
:1046A000FFFFFF1F0000FEFFFFFFFFFFFFFF1F00D8
:1046B000003E000000000000001F00003E0000005F
:1046C000000000001F00003E000000000000001F6E
:1046D00000003E000000000000001F00003E00003F
:1046E00000000000001F00003E000000000000006D
:1046F0001F00003E000000000000001F00003E0000
:10470000000000001E001F00003E00000000001E10
:10471000001F00003E00000000001E001F00003EC1
:1047200000000000001E001F00003E00000000000E
:104730001E001F00003EF8FF0000F0FF031F0000F6
:104740003EF8FF0000F0FF031F00003EF8FF0000EE
:10475000F0FF031F00003EF8FF0000F0FF031F0002
:10476000003E00000000001E001F00003E00000090
:1047700000001E001F00003E00000000001E001F81
:1047800000003E00000000001E001F00003E000070
:104790000000001E001F00003E000000000000009E
:1047A0001F00003E000000000000001F00003E004F
:1047B0000000000000001F00003E0000000000009C
:1047C000001F00003E000000000000001F00003E2F
:1047D000000000000000001F0000FEFFFFFFFFFFC1
:1047E000FFFF1F0000FEFFFFFFFFFFFFFF1F000096
:1047F000FEFFFFFFFFFFFFFF1F0000FEFFFFFFFFA9
:10480000FFFFFF1F0000FEFFFFFFFFFFFFFF1F0076
:1048100000FEFFFFFFFFFFFFFF1F00000000000082
:104820000000000000000000000000000000000088
:104830000000000000000000000000000000000078
:104840000000000000000000000000000000000068
:104850000000000000000000000000000000000058
:104860000000000000000000000000000000000048
:104870000000000000000000000000000000000038
:104880000000000000000000000000000000000028
:104890000000000000000000000000000000000018
:1048A0000000000000000000000000000000000008
:1048B00000000000000000000000000000000000F8
:1048C00000000000000000000000000000000000E8
:1048D00000000000000000000000000000000000D8
:1048E000000000000000000000000000000000C008
:1048F000FF030000000000001E00C0FF07000000D2
:10490000000000FE00C0FF07000000600000FF077D
:10491000C0FF07000000FC0000FF3FC0FF030000D5
:1049200080FF0000FFFF00FE000000C0FF0080DFEE
:10493000FF03FE000000FCFF00801FFF03FE0000DD
:1049400080FF7F00800FFCFFFF7F00F0FF0F00C0A3
:104950000FE0FFFFFF01FEFF0300C03FE0FFFFFF8E
:10496000C3FFFF0300C0FFE0FFFFFFFBFFFF0100ED
:10497000C0FFF3FFFFFFFFFFFE000000FFFFFFFF90
:10498000FFFF0F7F000000F8FF070080FF813F005E
:104990000000C0FF0700003F801F00000000FE076E
:1049A000000006C00F00000000F007000000E00754
:1049B00000010000E007000000F00300010000E03B
:1049C00007000000F80380030000E007000000FC7F
:1049D0000180030000E007000000FC0080030000ED
:1049E000E007000000FE00C0070000E00700000034
:1049F0007F00C0070000E0070000803F00C0070004
:104A000000E0FFFFFFFF1F00C0070000E0FFFFFF07
:104A1000FF0F0080030000E0FFFFFFFF0700000022
:104A20000000C0FFFFFFFF030000000000C0FFFF09
:104A3000FFFF030000000000000000000000000075
:104A40000000000000000000000000000000000066
:104A50000000000000000000000000000000000056
:104A60000000000000000000000000000000000046
:104A70000000000000000000000000000000000036
:104A8000000000000000000000000000000000F036
:104A9000017C001FC007F0010000FC0FFFC3FFF006
:104AA0003FFC0F0000FFFFFFFFFFFFFFFF3F000085
:104AB000FFFFFFFFFFFFFFFF3F0000FFFFFFFFFFC4
:104AC000FFFFFF3F0000FFFFFFFFFFFFFFFF3F0073
:104AD0000007F0017C001FC007300000000000004C
:104AE00000000000000000000000000000000000C6
:104AF00000000000000000000000000000000000B6
:104B000000000000000000000000000000000000A5
:104B10000000000000000000000000000000000095
:104B20000000000000000000000000000000000085
:104B30000000000000000000000000000000000075
:104B40000000000000000000000000000000000065
:104B50000000000000000000000000000000000055
:104B6000000000FCFF000000000000000000FEFF4D
:104B7000010000000000001800FEFF0160000000BE
:104B800000003C001EE001F000000000007E001E5E
:104B9000E001F80100000000FC001EE001FC000044
:104BA000000000F8011EE0017E0000000000F0039C
:104BB0003EF0013F0000000000E001FEFF011E008A
:104BC00000000000C000FEFF010C0000000000001B
:104BD000C0FFFF0F00000000000000E0FFFF1F000B
:104BE000000000000000F0FFFF3F00000000000098
:104BF00000F81FE07F00000000000000FC0780FFBD
:104C000000000000000000FC0100FE0000000000A9
:104C10000000FE0000FC010000000000007F000317
:104C2000F8030000000000003F8007F003000000D0
:104C30000000801FC00FE0070000000000801FC0C0
:104C40000FE0070000000000C00FC00FC00F000001
:104C5000000000C00FC00FC00F0000000000C00F18
:104C60008007C00F00000000FFC1078007800FFE13
:104C7000030000FFC1078007800FFE030000FFC193
:104C8000078007800FFE030000FFC1070003800FAD
:104C9000FE030000FFC1070003800FFE03000000B9
:104CA000C0070003800F0000000000C00F0003C019
:104CB0000F0000000000C00F0003C00F0000000044
:104CC00000800F0000C0070000000000801F0000EF
:104CD000E0070000000000001F0000E003000000EB
:104CE0000000003F0003F0030000000000007E0011
:104CF00003F801000000000000FE0000FC010000BD
:104D000000000000FC0300FF00000000000000F8AD
:104D10000FC07F00000000000000F03FF03F0000E7
:104D20000000000000F0FFFF3F0000000000004016
:104D3000C0FFFF0F080000000000E000FFFF031CA1
:104D40000000000000F001FEFF013E000000000036
:104D5000F801E01F007E0000000000FC00000000E1
:104D6000FC00000000007E00000000F801000000D0
:104D7000003E00000000F001000000001C000000E8
:104D800000E0000000000008008007004000000074
:104D9000000000008007000000000000000000800C
:104DA0000700000000000000000080070000000075
:104DB000000000000080070000000000000000006C
:104DC00080070000000000000000008007000000D5
:104DD000000000000000800700000000000000004C
:104DE000008007000000000000000000000000003C
:104DF00000000000000000000000000000000000B3
:104E000000000000000000000000000000000000A2
:104E10000000000000000000000000000000000092
:104E20000000000000000000000000000000000082
:104E30000000000000000000000000000000000072
:104E40000000000000000000000000000000000062
:104E500000000000000000000000F0FF0000000063
:104E60000000001800FEFF078001000000003C80E9
:104E7000FFFF1FC003000000007CE0FFFF7FE00396
:104E8000000000003EF8FFFFFFC107000000001F08
:104E9000FC1F80FF830F000000801FFE0300FC87C3
:104EA0001F000000800FFE0100F8071F000000C077
:104EB000077F0000E00F3E000000C0873F000FC0EA
:104EC0001F3E000000E0C31F000F803F7C00000079
:104ED000E0C30F000F003F7C000000F0E107000F6F
:104EE000007EF8000000F0E103000F007CF80000F5
:104EF00000F8F003000F00FCF001000078F0010062
:104F00000F00F8E001000078F800000F00F0E10168
:104F1000000078F800000F00F0E101000078F800D0
:104F2000000F00F0E101000038F800000F00F0C1B0
:104F30000100003C7800000F00E0C10300003C7855
:104F400000000F00E0C10300003C7800000F00E00B
:104F5000C10300003C7800000F00E0C10300003CEA
:104F60007800000F00E0C10300003C7800000F0053
:104F7000E0C10300003C7800000F00E0C103000026
:104F80003CF800000F00F0C10300003CF800000FE7
:104F900000F0C103000038F800000F00F0C101006C
:104FA0000078F800000F00F0E101000078F0010047
:104FB0000000F8E001000078F001000000F8E001D6
:104FC0000000F0F003000000FCF0000000F0E1073A
:104FD0000006007EF8000000F0E107000F007EF8F8
:104FE000000000E0C30F801F003F7C000000E08352
:104FF0001F801F801F7C000000C0873F000FC01F64
:105000003E000000C0077F0006E00F3E000000C029
:105010000FFE0100F8073F000000801FFC0700FEA4
:10502000831F000000003FF87FE0FFC10F00000079
:10503000003EF0FFFFFFC007000000007CC0FFFF44
:105040003FE003000000003880FFFF1FC0010000A8
:1050500000001800FCFF0380010000000000008039
:105060001F00000000000000000000000000000021
:105070000000000000000000000000000000000030
:105080000000000000000000000000000000000020
:105090000000000000000000000000000000000010
:1050A0000000000000000000000000000000000000
:1050B00000000000000000000000000000000000F0
:1050C00000000000000000000000000000000000E0
:1050D00000000000000000000000000000000000D0
:1050E00000000000000000000000000000000000C0
:1050F00000000000000000000000000000000000B0
:1051000000000000001F0000000000000000008000
:105110003F000000000000000000803F0000000091
:105120000000000000803F000000000000000000C0
:10513000803F000000000000000000803F000000F1
:10514000000000000000803F0000000000000000A0
:105150000080FFFF030000000000000080FFFF034D
:105160000000000000000080FFFF030000000000BE
:10517000000080FFFF0300000000000000803F00EF
:105180000000000000000000803F00000000000060
:10519000000000803F000000000000000000803F91
:1051A00000000000000000000080FFFF030000007E
:1051B0000000000080FFFF030000000000000080EE
:1051C000FFFF030000000000000080FFFF0300005D
:1051D0000000000000803F00000000000000000010
:1051E000803F000000000000000000803F00000041
:1051F000000000000000803F0000000000000000F0
:1052000000803F00000000000000000080FFFF035E
:105210000000000000000080FFFF0300000000000D
:10522000000080FFFF030000000000000080FFFF7F
:105230000300000000000000803F000000000000AC
:10524000000000803F000000000000000000803FE0
:10525000000000000000000000803F00000000008F
:1052600000000000C07F000000000000E07C00C0E3
:105270007F00C0E7000000FCFF07E0FF00FCFF0725
:105280000000FCFF7FE0FFC0FFFF070000FCFFFF06
:10529000E0FFE0FFFF070000F88FFFC07FE03FFE68
:1052A0000300000000F8C07FE003000000000000E1
:1052B00000803F000000000000000000000E000021
:1052C00000000000000000000000000000000000DE
:1052D00000000000000000000000000000000000CE
:1052E00000000000000004000000000004000000B6
:1052F000001E001E000F000F000000003E807FC057
:105300003F800F00000000FCE0FFFFFFE00700000F
:105310000000F8FFFFFFFFFF0300000000F0FFF3B5
:10532000FFF9FF0100000000C07FC07FC07F0000C8
:10533000000000001F803F001F0000000000000070
:10534000000E00000000000000000000000000004F
:10535000000000000000000000000000000000004D
:10536000000000000000000000000000000000003D
:10537000000000000000000000000000000000002D
:10538000000000000000000000000000000000001D
:10539000000000000000000000000000000000000D
:1053A000000000000000000000000000000070701D
:1053B0000000000000000000087070800000000085
:1053C0000000001C78F0C0010000000000003E3C1E
:1053D000E0E1030000000000003C3CE0E1010000CF
:1053E000000000007C1EC0F30100000000000078F7
:1053F0001EC0F300000000000000F00F807F0000DE
:105400000000000000F00F807F000000000000F0AE
:10541000FF0700FF7F0000000000F8FF0300FEFF11
:105420000000000000F8FF0300FEFF000000000085
:10543000F0FF0700FF7F0000000000008007000F62
:1054400000000000000000000F80070000000000C6
:105450000000000F800700000000000000001EC0D8
:105460000300000000000003001EC003000600004F
:10547000008003003CE001000E0000008007007C7B
:10548000F001000F000000000F0078F0008007001E
:105490000000000F00F8F8008007000000001F0067
:1054A000F07800C007000000001E00F07D00C0037F
:1054B000000000003E00E03F00E003000000003C70
:1054C00000E03F00E001000000007C00C01F00F091
:1054D00001000000F8FFFFFFFFFFFFFF000000F8E2
:1054E000FFFFFFFFFFFFFF000000F8FFFFFFFFFFD0
:1054F000FFFF000000F8FFFFFFFFFFFFFF000000BD
:10550000007C00E03F00F001000000003E00E03FB2
:1055100000E003000000001E00F07D00C00300005A
:1055200000001F00F07800C007000000000F0078A6
:10553000F0008007000000800F0078F000800F006E
:1055400000008007003CE001000F000000C00300E5
:105550003EE003001E0000008001001EC003000C9E
:105560000000000000000F800700000000000000A5
:10557000000F8007000000000000008007000F00FF
:10558000000000000000C007001F00000000000035
:10559000F8FF0300FEFF0000000000F8FF0300FE1C
:1055A000FF0000000000F8FF0300FEFF0000000005
:1055B0000000F80700FF00000000000000F80700EE
:1055C000FF00000000000000780F80F700000000DE
:1055D0000000003C0E80E3010000000000003C1EC3
:1055E000C0E3010000000000001E3CE0C103000019
:1055F000000000001E3CE0C1030000000000000CA1
:1056000078F080010000000000000038E000000099
:10561000000000000000104000000000000000003A
:10562000000000000000000000000000000000007A
:10563000000000000000000000000000000000006A
:10564000000000000000000000000000000000005A
:10565000000000000000000000000000000000004A
:10566000000000000000000000000000000000003A
:10567000000000000000000000000000000000002A
:105680000000000000000000000000000000E00139
:10569000003C00000000000000FC39E0FC010000BC
:1056A00000000000FE79F0FC03000000000000FF95
:1056B000F9F8FC070000000000001FF8FDC007001B
:1056C000000000000006F07F000300000000004022
:1056D00000C01F00100000000000E001C01F003CDF
:1056E0000000000000E001800F003C00000000000E
:1056F000E0010007003C0000000000F00000000096
:10570000780000000000F000800F0078000000002A
:10571000000000800F000000000000000000C01F1B
:10572000000000000000000080FFFF0F00000000EC
:10573000000000F8FFFFFF00000000000000FEFF77
:10574000FFFF030000000000C0FF9FCFFF1F00000D
:10575000000000F0FF800FF87F0000000000F80F4D
:10576000000780FF0000000000FE03000000FE03B1
:10577000000000007F00000000F007000000C03FB4
:1057800000800F00E01F000000E00F00800F00808D
:105790003F000000F00300800F00007E000000F8D2
:1057A0000100800F0000FC000000FC0000800F00E2
:1057B00000F80100007C0000800F0000F0010000F4
:1057C0007C0000800F0000F0010000FC0000800F52
:1057D0000000F8010000F80100800F0000FC00004C
:1057E00000F00300000000007E000000E007000061
:1057F0000000003F000000C00F00800F00801F006D
:105800000000801F00800F00C00F000000003F005C
:10581000800F00E007000000007E00800F00F00312
:1058200000000000FC00800F00F80100000000F8FC
:1058300001000000FC0000000000F0030000007EFA
:105840000000000000E007800F003F0000000000A3
:10585000C00FF8FF801F0000000000801FFEFFC384
:105860000F000000000000BFFFFFEF070000000076
:105870000000FEFFF8FF03000000000000FC0F80A6
:10588000FF01000000000000F80300FE000000001F
:10589000000000F001007C00000000000000E000BB
:1058A00000380000000000000000000000000000C0
:1058B00000000000000000000000000000000000E8
:1058C00000000000000000000000000000000000D8
:1058D00000000000000000000000000000000000C8
:1058E00000000000000000000000000000000000B8
:1058F00000000000000000000000000000000000A8
:105900000A0B02090C0D0E08070304010000000039
:105910000000000000000000000000000000000087
:105920000000000000000000000012111000000044
:105930000000000000000000000000000000000067
:105940000000000000002200250028002B002E008F
:105950003100340002010000050108010B01020AB8
:1059600000290920000920003A09200044494D205F
:105970004F4E2F4F4646003A09200044494D206FB4
:105980007574707574003A09200044494D20696EA1
:105990007075740057484C2043757272656E7420A0
:1059A000726573697374616E636520002061742091
:1059B0000020766F6C74616765200057484C204367
:1059C000757272656E7420726573697374616E634B
:1059D0006520003D3D3D3D3D3D3D3D3D3D3D3D3D29
:1059E0003D3D3D3D3D3D3D3D3D3D3D3D3D3D3D3DE7
:1059F0003D3D3D3D3D3D3D3D3D3D3D3D3D3D3D3DD7
:105A00003D3D3D3D3D3D3D3D3D3D3D3D3D3D3D3DC6
:105A10003D003D3D3D3D3D3D3D3D3D3D3D3D3D3DF3
:105A20003D3D3D3D3D3D3D3D3D3D3D3D3D3D3D3DA6
:105A30003D3D3D3D3D3D3D3D3D3D3D3D3D3D3D3D96
:105A40003D3D3D3D3D3D3D3D3D3D3D3D3D3D3D3D86
:105A5000003E2073746172746564210044756D703A
:105A6000696E67206F6666736574206E616D652070
:105A700009203C003E2073746F7070656421200023
:105A8000446562756767696E67206F6666736574E3
:105A90002009203C0073746F70003D3D3D3D3D3D4D
:105AA0003D3D3D3D3D3D3D3D3D3D3D3D3D3D3D3D26
:105AB0003D3D3D3D3D3D3D3D3D3D3D3D3D3D3D3D16
:105AC0003D3D3D3D3D3D3D3D3D3D3D3D3D3D3D3D06
:105AD0003D3D3D3D3D3D3D3D004C50472073657291
