:100000000C94263E0C94E3620C94B8620C948D62BE
:100010000C9462620C9437620C940C620C94E16153
:100020000C94B6610C9441610C94D2600C945C60A9
:100030000C94573E0C94368A0C94573E0C94573EC1
:100040000C94573E0C94573E0C94573E0C94573EDC
:100050000C94573E0C94573E0C94573E0C94B45F4E
:100060000C94573E0C94CA8F0C94A18F0C94573E5D
:100070000C94573E0C94573E0C94573E0C94573EAC
:100080000C94573E0C94573E0C94573E0C94573E9C
:100090000C94573E0C94573E0C94573E0C940D987C
:1000A0000C94573E0C94573E0C94573E0C94573E7C
:1000B0000C94573E0C94573E0C94573E0C94573E6C
:1000C0000C94573E0C94573E0C94573E0C94573E5C
:1000D0000C94573E0C94573E0C94573E0C94573E4C
:1000E0000C94573E0FA21DA22BA252A26CA280A27A
:1000F00097A2A8A2B8A2CEA2139D169D059D099D08
:100100000F9D4D9D1A9D1E9D249D289D2C9D329DC9
:10011000369D3A9D4D9D409D449D489D119E169E45
:100120001B9E259E2F9EA89E399E419E499E539EB2
:100130005D9E679E769E809EA89E8A9E949E9E9EB1
:1001400008000000BE922449123EABAAAA2ABECDE6
:10015000CCCC4C3E00000080BEABAAAAAA3E000058
:100160000000BF000000803F000000000008417850
:10017000D3BB4387D1133D190E3CC3BD4282AD2B87
:100180003E68EC8276BED98FE1A93E4C80EFFFBE7F
:1001900001C4FF7F3F00000000004E414E494E4920
:1001A0005459494E46CDCCCC3D0AD7233C17B7D144
:1001B0003877CC2B329595E6241FB14F0A000020EA
:1001C000410000C84200401C4620BCBE4CCA1B0E69
:1001D0005AAEC59D7400407A10F35A00A0724E18B2
:1001E000090010A5D4E80000E87648170000E40BE9
:1001F00054020000CA9A3B000000E1F505000080AF
:10020000969800000040420F000000A08601000008
:1002100000102700000000E8030000000064000058
:100220000000000A00000000000100000000002C97
:1002300076D888DC674F0823DFC1DFAE59E1B1B75C
:1002400096E5E3E453C63AE651997696E8E6C28429
:1002500026EB898C9B62ED407C6FFCEFBC9C9F4041
:10026000F2BAA56FA5F490055A2AF75C936B6CF966
:10027000676DC11BFCE0E40D47FEF520E6B500D03C
:10028000ED902E0300943577050080841E08000051
:10029000204E0A000000C80C333333330F986E121F
:1002A000831141EF8D2114893BE65516CFFEE6DB25
:1002B00018D1844B381BF77C1D901DA4BBE424206F
:1002C0003284725E228100C9F124ECA1E53D273021
:1002D000302E30002D2D2E2D00001F0000000000BC
:1002E000FF0000000000FF0000000000FE00000012
:1002F0000000F80000000000F00100000000E00134
:1003000000000000E00100000000E001000000002B
:10031000E00100000000E00100000000E00100003A
:100320000000E00300000000C00300000000C00364
:1003300000000000C00300030000C003C003000071
:10034000C00FF0030000C03FFC030000C0FFFF032C
:10035000000080FFFF03000080FFFF01000080E736
:10036000E70100008087E10100008007E001000054
:100370008007E0010000800FE0010000000FF001A5
:100380000000000FF0000000000FF0000000000F60
:10039000F0000000C00FF0000000C00FF0000000EF
:1003A000C01FF8000000C07FFE00000080FF7F003B
:1003B000000000FE3F00000000F80F00000000C039
:1003C0000300000000000000003CEFF939B3076CA7
:1003D0006F6B6DB3076C63636CB7013C67636CB79D
:1003E000036CE7616CBF036C63636CBB016C6F6390
:1003F0006CBB073C6F6338B3074B4D48200052502D
:100400004D200045435520004453542000256C7571
:10041000004F444F2000454E4720002530316400F6
:100420004752532000253034640057524B20002F90
:1004300000424C42200050454320002F005D005BED
:10044000004552524F523A2043616E6E6F742066DF
:10045000696E6420637572736F7220666F722064B8
:10046000656C6574696E67202E2E2E2E2000444523
:100470004C45544520747269702043200044454C1B
:1004800045544520747269702042200044454C4513
:1004900054452074726970204120003E004552523C
:1004A0004F523A205472697020637572736F7220D4
:1004B0006F7574206F662072616E6765202E2E2E18
:1004C0002E20004E4F544943453A20536B6970200B
:1004D00064656C6574696E67202E2E2E20004E4F69
:1004E000544943453A2044656C65746520747269CB
:1004F000702E2E2E2E200054333A20200054323AF3
:1005000020200054313A20200054303A2020004E60
:10051000003E003E003E003E0056200053687574C9
:10052000646F776E2061637469766500A7000302CB
:100530000504020406130FFEFD08FD09FE01690211
:10054000E609EC200500CC11210701C71183222206
:100550000763EE128925231349B59453162552E5F6
:100560002455B2286718A4E100241249B5B44B16EB
:100570002592B6295225DB590669382510074534DE
:1005800052124991366F5224259102260D05C73328
:100590005225CDA24D4B1600270661EE1103280B04
:1005A000633552499444DDA22C290C6337125994C7
:1005B000455DA224022A0BA5645395CA94444902BE
:1005C0002B0AA54C5361344861042C0782B43115C1
:1005D000052D06235412032E0641C611022F0B448B
:1005E0003D72A5AC9495B20C300A05C7334BE65B5F
:1005F000B200310903C753C912F500320B05C733E6
:100600004B16D6DA0601330D05C7334B16466AA8DA
:10061000250B00340E06C593A19664495419C634BF
:1006200001350F06C53383920E5196A6623224001F
:10063000360B05C7738D4B664B1600370C06C71378
:10064000C7344CC3340C01380D05C7334BA6254BBA
:10065000664B1600390B05C7334B664BC6AC063AE2
:1006600007C1C61192003B0902B531D52451003CA7
:1006700009A44E7389128A013D0864561343380455
:100680003E0AA44E13A1982819003F0D05C5324B10
:100690001626530E85190040150CC5763910A62D67
:1006A000599A4849CBA224A634090709410F0745A6
:1006B0007469122661929506255503420D05C713EC
:1006C0004392698392D90605430B06475453A636D5
:1006D00067D102440D064714439425A1B7648800EE
:1006E000450B054713C77048C2E220460B05471368
:1006F000C77048C24600470D06475453A696863039
:10070000C9A205480A07C714A975B8BA064907015E
:10071000C71107014A0904C5727D1B12004B10075F
:10072000471461124949A8266194654A1A4C090682
:10073000C713695F87014D1107473559944559D251
:10074000A254948A1449054E0F07C714E9A86452AD
:1007500024455A22AE014F0C07C7545B25754DB294
:100760006C02500C05C7134392D906252C02510E7A
:1007700047B7545B25754DB26C4C0705521006C740
:100780001343942559922543D4968401530B04476F
:10079000334A2416A54401540A07C513872CEE1BBF
:1007A00000550B07C714A9AF49964D0056100745D1
:1007B00014A99A64515609933049330057140BC554
:1007C00015612856A2246A89B2A43169CDE22C03AE
:1007D000580E074514699255D2384DB24A1A590D30
:1007E00007451469924559258DDB005A0B0745349E
:1007F000C3DA9C5687215B09433F1243D44F035C05
:100800000B443D12599815B362165D09433D1253CE
:100810003F0D015E09A3DE32519258025F06263475
:10082000130760074276125100610AC5C63383E69A
:10083000960C01620C25C71361714832B741016300
:100840000AC446334AA4951205640B25C7932D8329
:10085000E6960C01650CC446334A342459942800AA
:10086000660B2445524A160D49D609670D25AF334C
:1008700083E6960CA1962C00680A25C713618B4964
:10088000730B690701C711C9306A0963AB5169D499
:10089000A7056B0D25471361D312694954C9026C32
:1008A0000621C7110F6D0EC9441589A448B64CCB5B
:1008B000B44C2B6E09C5C6138949730B6F0AC5C6A4
:1008C000334BE6962C00700C25AF134392B90D4ABA
:1008D0005804710B25AF3383E6960C61037209C38C
:1008E0004612C91235017308C3C632B76801740BCA
:1008F0000445325934245963027509C5C613992732
:100900004509760CC54413999694922C8C00770E69
:10091000C9C41459A6553A256DC52C02780BC54497
:100920001359520BB3A416790E262D13A116B584B4
:10093000621AA621007A09C64413C78EC3007B0B36
:1009400063375249D492456D017C06812D111F7D7C
:100950000C63351259D496442D11007E0746DC33C2
:100960009205A00500CC11A124913D197FA788C351
:10097000AA0E61A224C325517A59942169B1244A4F
:100980008B25591771189444A70C3FA229913D1942
:100990007FA7483AA80C0F893224D2902843920CA2
:1009A0008B326883A20C4B3224CA102943A20C0F4D
:1009B000894E197EA324913D197FA788430E289262
:1009C000AA28C9B04C4A320D99342C52A20D439634
:1009D00068C3AC5374CAF003A424913D197FA7489F
:1009E000EBA40C0F89321C124B366889321C12CBD7
:1009F000F09028C343A20C0F894E197EA52590BD07
:100A000018FF3C5C866518926919966919966919F0
:100A100096615086655A86655A86211996E13CFC96
:100A200001A60F274D948BA42815D51865432802DD
:100A3000A70F274D9449625216D51865432802A87E
:100A4000186BC71661256B8DE76408934851D22C4B
:100A50000DA34AA6683918A91C6BC7365112255A2E
:100A600026B526B54A966C4B9664956A54D23225C3
:100A70004AA204AA166BC71661256B8D7760D094C5
:100A800041D1061D98D3AC252CAB164AC5F5C096AE
:100A90006D3A521193444C7220CBB668C8011DAC1C
:100AA000164AC5F5409AA53A521193444C72205B00
:100AB000B661C8011DAD164AC5F5C0966D3A52D94A
:100AC00092644B72205BB661C8011DAE0AC46432E9
:100AD0009225921205AF0FCADC159294F47F919281
:100AE0005EA42411B00B0647346112465ADA2CB1C9
:100AF0000CE54C53613448610E0C02B2164D4D3773
:100B00003B96A39A9C2962665607454D358B4D54FA
:100B100001B3184D4DF7900E26B1A42A4A49535AF5
:100B2000D55419124D47DC0151B4074276320A0000
:100B3000B50B25AF1399A741118B00B61C8B3D5601
:100B40004935AA66396918B2E1900C976418A26811
:100B500050C49D341C1200B7184D4DF7900E26B1AD
:100B6000A42A4A49535AD55419124D47DC0151B8A9
:100B700007632C32D202B907A2DE324B03BA0A84D1
:100B8000E4324A24250A00BB0DA6461351166551CE
:100B900012255104BC12294515EAA02DB74156155E
:100BA000694896DA300ABD0F4945D5F290EAC0107F
:100BB0000EE1FAAC03BE1309C5146329D3D2A4B263
:100BC0002462524C86284C00BF1B0F4598C39003EB
:100BD000399025399424C343548DA2E1211A1E2251
:100BE0001D5200C0126745543990C36912266192A4
:100BF0009506255503C111674594690EA749988448
:100C000049561A94540DC21267457462948369124E
:100C10002661929506255503C3126745744996E4EB
:100C200068254CC2242B0D4AAA06C41147455449D5
:100C30008E56C2244CB2D2A0A46A00C51387457454
:100C40006992E6709A84499864A54149D500C61115
:100C50000BC5D583AA2375201AB2F2A086D541C749
:100C60000E662F5453A63667D118671200C80E655A
:100C70004733690E1CC321098B8300C90D65477377
:100C800075E0180E49581C04CA0E65475352751872
:100C9000C321098B8300CB0D454733E5610C8724C5
:100CA0002C0E02CC0962C5115196F403CD0962C71E
:100CB000315AD22F00CE0A64C5314A9466FD04CF62
:100CC0000A43C5114918F50B00D0110745344356A6
:100CD0000A0729099330C9A22102D11367C77449B1
:100CE00096E4503A2A9914499196886B00D20F677E
:100CF000C7543990A35B25754DB26C02D30E67C7FC
:100D000094698E6E95D435C9B209D40F67C77462E1
:100D100094635B25754DB26C02D51067C774499614
:100D2000E4E056495D932C9B00D60E47C754490E0C
:100D30006E95D435C9B209D7076356134907D8123F
:100D400007C7544B2DC912299222254BB224990072
:100D5000D90E67C754399063A9AF49964D00DA0D93
:100D600067C794698EA5BE26593601DB0E67C77426
:100D7000629423A9AF49964D00DC0D47C754490E34
:100D8000A5BE26593601DD0F674594698EA5491623
:100D90006595346E03DE0D05C71361382499362836
:100DA0006108DF0E25C73352254AA22451321705A8
:100DB000E00C25C733698E0C9A5B3204E10B25C722
:100DC000737564D0DC9221E20B25C7535279D0DCD5
:100DD0009221E30C25C753493B30686EC910E40BE0
:100DE00005C7337560D0DC9221E50E45C753599293
:100DF000E5C8A0B9254300E60FC9C635C39064997C
:100E0000166D5356B900E70D242F334AA4951229C5
:100E10004C2400E80D24473361AC444392458902D9
:100E2000E90D24477351AC444392458902EA0E24EC
:100E300047334A942AD1906451A200EB0D04473302
:100E400055251A922C4A1400EC0922C5115196F42A
:100E500000ED0922C7315AD20B00EE0A24C5314AEF
:100E600094663D01EF0903C5114918F502F00D25FF
:100E7000C75349A42683E6962C00F10B25C7534996
:100E80007362D2DC02F20C25C733698E2C995BB2F7
:100E900000F30B25C7737564C9DC9205F40B25C7F5
:100EA000535279C9DC9205F50C25C753493BB06410
:100EB0006EC902F60B05C7337560C9DC9205F70AE7
:100EC000A54C533930E84004F80DC5C63383B4242B
:100ED0004A320D0A00F90B25C733690E649E1425AA
:100EE000FA0B25C7737520F3A42801FB0B25C75304
:100EF0005235F3A42801FC0A05C733E5CC93A204BC
:100F0000FD0F862D937524D4A296504CC33404FE55
:100F10000E85AF1361714832B741098B00FF10662F
:100F20002D53490E845AD4128A6998860000000015
:100F3000080399059DFFFF010012474554430EA683
:100F400049988449561A94540D01010C05C733433E
:100F50003C686EC91001021267455449B8A3953028
:100F60000993AC3428A91A01030D25C733A51D1810
:100F700034B76408010415682D74719226691266ED
:100F8000D920A5499A03718E0801051126AF334374
:100F90009225599225593484622C01060E66479495
:100FA000756CCAD4E62C5A0001070D24477351AC66
:100FB000445A295100010C0F66473451A66353A6C9
:100FC0003667D102010D0E24471351222B91564A48
:100FD0001400010E1166471451A643439425A1B78E
:100FE000648800010F14274794499884D2106551F2
:100FF000166551960D110001101207453443560A2B
:101000000729099330C9A2210201111326C793D9D8
:1010100010464392255992255934240001120E4559
:101020004713433C8CE19084C54101130E044713E0
:1010300043AA44439245890201160E45475339702D
:101040000C87242C0E0201170E044753B1120D49D0
:1010500016250A0001180E652F13C77048C2E2A0BA
:10106000550501190E252F3352650AA3680B53014C
:10107000011A0F65473351240F6338246171100141
:101080001B0F24471351222BD1906451A200011E43
:10109000104647544976CAD4D2102659B400011FCD
:1010A0000F65AF33A583E6960CA1962C00012210A4
:1010B000662F5453A6968630C9A21D2C0101231019
:1010C00085AF53618E0C9A5B32845AB200012A0BB1
:1010D00044C511439AF51300012B0A04C511439A24
:1010E000F504012E0A63AD31517FC904012F0A6353
:1010F000AD3169D4974C01300941C711C93008019D
:101100003107C1C61107013614672F14611249490E
:10111000A8266194654A9A636908013711852F13DF
:1011200061D312694954C97220CB0001390C66C7DA
:1011300073610EA57D1D06013A0A82C7315AD25F3E
:1011400000013B0D66AF13695F871D0A3300013C48
:101150000982AD31FD9B02013D0D06C7134996641E
:1011600062DA3A0C013E0B23471289B2443D010179
:10117000410D07C53371255453391E0601420C2316
:10118000C531514949A4160001431267C794698EBD
:10119000A5A3924991146989B80601440C25C79307
:1011A000599C9834B70001451367AF14E9A86452FD
:1011B00024455A22AE3998660001460D25AF1389A1
:1011C0004973CB812C0301471267C754451D4A4719
:1011D00025932229D212710D01480C25C7335124C1
:1011E0002726CD2D014C0F47C754438E6D95D4351E
:1011F000C9B209014D0C05C73343BC646EC9020175
:10120000501167C7744996E4E056495D932C9B00E2
:1012100001510D25C753493BB0646EC902015216F6
:101220000CC756433228A11887F190C4619C86F2FE
:10123000900C0201530FC9C635972CD3A26DCA2A50
:10124000170001541366C773610E0D5196644996D9
:101250000C515B120601550C23475249982C51132F
:101260000001561466AF1343942559922543D49632
:10127000843914660001570C232F12C91235271127
:101280000001581466C73351A6234394255992256B
:1012900043D496840101590D24471251A226899402
:1012A000B501015A0E64477351AC4462514A1400AF
:1012B000015B0B23C75249BA6CD102015E0E642F49
:1012C000334A2416A54407A208015F0B23AF32B7A7
:1012D000684D220001600E64471351222B915894EF
:1012E000120501610E24C71251222B15314B240027
:1012F00001620D67AD13872CEE3B9C860001630FE6
:10130000642D3259342459630E44110001640E6770
:10131000C553451D1A862CEE1B0001650D24457230
:1013200049D390648D0900016A0E47C754438EA4C7
:10133000BE26593601016B0C05C733439A79529486
:1013400000016E1087C7746992E658EA6B926513C4
:1013500000016F0E45C7535992E540E6495102011D
:10136000701067C7744996E450EA6B9265130001E8
:10137000710C25C7534973E649510201720F67AFDB
:1013800014A9AF4996AD710E280001731126AF1351
:1013900059922559922591250D63010178104745F1
:1013A00054490EA549166595346E0301790E6745BB
:1013B000B4756C589BD3EA3004017A0C26459375BA
:1013C00064183B0E03017B0E4745943936ACCD695A
:1013D000751802017C0C06457339328C1D8701019A
:1013E0007D0F674554451D1BD6E6B43A0C010387B3
:1013F0000741DE110203880E074333C390C4F19006
:10140000C5E54103891309C334AA924669340C51D6
:101410001AA5511AA501038A0903C3314BD4070346
:101420008C1109C334D154AB4669944669569D006A
:10143000038E13094134AA9485599AE4408EE448F6
:101440008E6400038F1308C534C99464519AA4496B
:101450009AA451162D0303900C24C5518992661D40
:1014600013000391100745746912266192950625B1
:10147000550303920E05C7134392698392D906055B
:10148000039309054713C73E020394110745746986
:101490001226619295B2241D060103950C0547138F
:1014A000C77048C2E22003960C074534C3DA9C5645
:1014B000872103970B07C714A975B8BA0603980FBD
:1014C00007C7545B255516554DB26C0203990801A8
:1014D000C7110701039A0F05C713999494B424AA5E
:1014E000645A00039B10074574691226619295B2F5
:1014F000245503039C1207473559944559D2A254E9
:10150000948A144905039D1007C714E9A86452245E
:10151000455A22AE01039E0C0647147778C8A9C32A
:1015200000039F0D07C7545B25754DB26C0203A0E5
:101530000A07C71407D5AF0103A10D05C7134392CE
:10154000D906252C0203A30C06C71397B89886E189
:101550003003A40B07C513872CEE1B0003A50E0751
:10156000451469924559258DDB0003A61107C77400
:10157000E1A044911449915419C40C03A70F0745E5
:1015800014699255D2384DB24A1A03A8100747156C
:10159000512445522455DAD6380303A90D07C75400
:1015A0005B25754DB2E40003AA0B43C5114918F53C
:1015B0000B0003AB10474554490EA54916659534F9
:1015C0006E0303AC0C25C7737564D0DC922103ADA8
:1015D0000E24477351AC44439245890203AE0D85F6
:1015E000AF73752031696E610303AF0922C7315AA9
:1015F000D22903B00C25C773919266DE920503B120
:101600000BC5C63383E6960C0103B21285AF335285
:10161000254AA2245132DBA084450003B30D252DB9
:1016200013999694922CEC0403B40D25C753529A47
:101630002D995BB20003B50DC446334A3424599446
:10164000280003B60E64B71243548BB2C62D4A006D
:1016500003B70B25AF138949730B1B03B80E25C7BE
:10166000334B661B86CC962C0003B909C2C61149C0
:10167000A70003BA0DC54613D112694954C9020324
:10168000BB0F264533699CA65A92452D610003BCC9
:101690000C25AF1399A741118B0003BD0DC5441351
:1016A000999694922C8C0003BE0E64B7324A64540F
:1016B000B2E216250003BF0BC5C6334BE6962C00DD
:1016C00003C00FC7C41387248BB2288BB2280C0326
:1016D000C10C25AF334BE63628611103C20C043729
:1016E000334AA415B7280103C30EC6C633C3966494
:1016F000499664D10403C40BC5C4128314B62600F2
:1017000003C50AC5C61399B7640103C61185AF5353
:10171000616DA928899228952D2C0103C70F25AD4D
:101720001299969492AC1225352D03C813872D7407
:10173000712D8AA4488AA448AA0C625C0303C90FCD
:10174000C7C63459124552244552C50203CA0A037A
:10175000C5114918750B03CB0B05C733E5CC5BB23C
:101760000003CC0C25C7737564C9DC920503CD0C4E
:1017700025C7737520F3962C0003CE1227C79469F2
:101780000E66491449911449150B0003CF08237CB8
:1017900012490004010E454733E5610C87242C0EE5
:1017A0000204021308C514839A0339906C5A144634
:1017B00061942C0004030B65477375E0D84700045F
:1017C000040E06475453A60E4A1A67D10204050CAC
:1017D0000447334A2416A5440104060801C711072B
:1017E0000104070B43C5114918F50B0004080A044E
:1017F000C5727D1B12000409160BC736C31AA661F9
:101800001A0E519825619684993A2400040A140905
:10181000C71559988559380C4A96699996694302B3
:10182000040B1208C514839A0339306861144661A9
:101830001406040C10664774610E655325DBA26E16
:101840004918040E12684554551D8C93306B4A7527
:10185000200E5700040F0D47B714A95F87414B4373
:1018600000041010074574691226619295062555EB
:101870000304110E05C7134312864392D9060504CB
:10188000120E05C7134392698392D9060504130902
:10189000054713C73E0204141448355483144661A7
:1018A000144661144661329CE50004150C0547138B
:1018B000C77048C2E220041612094716522425C5F3
:1018C000A4BA26B5A897AC0004170E05C7334B166B
:1018D000466AA8250B0004181007C714A9B825529A
:1018E00024454A36AA0104191267C754451D4AC542
:1018F0002D91222952B2510D041A0F05C713999444
:1019000094B424AA645A00041B1106473483922518
:101910005992255992259918041C12074735599454
:101920004559D2A254948A144905041D0B07C714C3
:10193000A975B8BA06041E0D07C7545B25754DB2CC
:101940006C02041F0A07C71407D5AF0104200D0558
:10195000C7134392D906252C0204210C0647545381
:10196000A63667D10204220B07C513872CEE1B0095
:1019700004231026BD13A19864499425615AD3000D
:1019800004241107C774E1A044911449915419C467
:101990000C04250F074514699255D2384DB24A1AE6
:1019A00004261346371459922559922559922559E0
:1019B00032AC0504270B064714A16332A80D042896
:1019C0001309C71559A6655AA6655AA6655A361C45
:1019D000020429184AB7155925AB6495AC9255B243
:1019E0004A56190E3992231100042A1108C51443CE
:1019F0000EE4400E0C61D6DB9000042B1008471556
:101A0000B179D0B4488BB468D002042C0D05C7134B
:101A100061714832DBA000042D0E064734531627AF
:101A2000839A6AD104042E130A4716E19455A274CE
:101A300050A5544AB54A3801042F1106C5534392A4
:101A4000255992454354C9C40004300BC5C633839D
:101A5000E6960C0104310E25C793C9120E49E6968D
:101A60002C0004320DC446134B342491342400045A
:101A70003309C3461243D40904340C063553537F4B
:101A80001A92500C04350DC446334A342459942814
:101A90000004360EC7C61451A56D4B4A49530104C4
:101AA000370BC44613632266430204380DC5C613C0
:101AB00099B4244A32690104390F25C73351246788
:101AC000D29228C9A405043A0CC4461391924849FD
:101AD000A700043B0EC5443343122551122591162D
:101AE000043C0FC744345994252D4A45A9480504A0
:101AF0003D0BC5C61399360C992D043E0BC5C63354
:101B00004BE6962C00043F09C5C613376F0104400D
:101B10000D25AF134392B90D4A580404410BC44636
:101B2000334AA495120504420AC5C41283147602EE
:101B300004430F262D13A116B584621AA6210004B2
:101B4000441185AF53616DA928899228952D2C01E8
:101B500004450CC5441359520BB3A4160446110690
:101B6000B71359922559922559328C250004470AFA
:101B7000C446139129D90A044810C7461551244573
:101B800052244552340C020449120837155125AA33
:101B90004495A8125586412E01044A0CC6C4136B05
:101BA000BA454D0B00044B0EC7C614A93A64522423
:101BB000454316044C0CC4461359B644D290000455
:101BC0004D0CC446334A946C52A200044E10C846D1
:101BD00015D9126583266552A62D00044F0DC54404
:101BE000534B9444D11269010000600005050607BB
:101BF000050707375500F13AF13A0107F0101618BA
:101C0000052007000002CB00211387EE02ADE0FFA4
:101C100007980F942270C1104400002222D062BFA6
:101C2000CD6230C32848110EE112472886210A529E
:101C30008CC10C643003118E5002141000238A9D55
:101C40008E02CB0921484208921082248420092167
:101C5000483ACA91108224842009214842089210EF
:101C60008224841CEA20484208921082248420099D
:101C700021484208928E728C0FFC07A28210242108
:101C8000044908411242908410241DE5500741CABE
:101C900007FE03D140089210822484200921483A8B
:101CA000CAA10E822484200921484208921082246D
:101CB000841CEA2847420892108224842009214883
:101CC0004208928E72240024595D92E2CAEBB0E77A
:101CD0004717F8B46851A83A57C988521691A444D6
:101CE000200B09088B1AD49EE7D8C32215B1484DA2
:101CF000A8DA5CD165AE3799B99A0A55D1A42216F3
:101D0000A9883DACF39E066B8740162292940CA5E1
:101D100028242BD7A9D2B422E7C4A41EF6FC1600AF
:101D20002581DE8EFECCC460C8401432948408063F
:101D300021823988700C228E60184418A328C8307C
:101D400046519071048320852948610A629482205B
:101D5000C420C938874555C4A22A62117B5854450E
:101D60002CAA2216B1874555C422F6B0287B589478
:101D70003D2C620F8B3A853A4C7290B2188434E550
:101D800020CF4088218E7194821802290531045297
:101D90000C71324F404E238EB48C432503614501B4
:101DA000002673DD8E02CBEB98CD7B5AB4A6549DF2
:101DB000CB2C6129C9490892108224841CEB20C7CE
:101DC0003AC8610F8B54C4221565918AD4642A7372
:101DD000890C749EF39E06B5882101618740D83135
:101DE00010E20C843804190E41864312E114443881
:101DF00025098E41826390E01C1BAA90752CD404A7
:101E0000E43401418B50CC3256242B98B9CE75ACBA
:101E100054AD63202714C7E2BEAD621845A8423115
:101E2000883190810825200028434F6E07CD6860D7
:101E3000843A1062908318E4200639C8390E728EF5
:101E4000833A073A0E720E747650E740E70F210787
:101E500085CE1072107420E4A0107290931CE424BC
:101E60000739C9414E728C542CA100293D4F6E0791
:101E7000CB6458053A4E7210841C04210741074276
:101E8000D0819083A01342D019420E82CEFF3B68CE
:101E9000E740C7419DE3A0CE7150063988414C62AE
:101EA00090832063112D40002A3999C6A6CBAAA0A1
:101EB000652D308509CA508A3290629406128A8054
:101EC000842C5C6442CF6A58B31E34912B640109A0
:101ED00045404619194A51861298C204ADA0650AB8
:101EE000002B1396052FCDE778E7873EF007BC73EC
:101EF000BCF321002C1087E2F6AAA1085C30444113
:101F000084220A002D0AD6014BCDE01FF0002E0DD1
:101F1000C7E102ABA1085C30C420002F429CAE0296
:101F2000CB149908454D84A22642117A50D44428F6
:101F30006A221435118A9A08454D8422F4A0287A21
:101F400050D444286A221435118A9A08454D8422B7
:101F5000F4A0287A50D444286A22144501303D9DCB
:101F60008E02CBEB988D8BD694AA73958C2C63192B
:101F7000CA5104B210812C24200D6ACF73FFFFFFD9
:101F8000BFF734A821E1688740162294A38C15C9B5
:101F9000CA75AA34ADC835F35800311B8EAE03CDD7
:101FA000E7CCA04A8A28E2031FD0C23292729CF387
:101FB000FFFFFFFF0F325C9D8E02CBEB98CD83D6E7
:101FC00094AA73958C306219CA5104B210812C24E2
:101FD000200D6ACF73BDA7410D09474382D110413F
:101FE000B864080FA1C94C2842939950842633A1A4
:101FF000084D2842939950842633A1084D6642111A
:102000009A50842633A1084D6642119AD00FFC07DE
:1020100022334D9D8EFECAE07F20A209456832130F
:102020008AD0642614A1C94C28429399508426333F
:10203000A18B64A2F31E0735882A15B148452C529E
:10204000117BFE5554111C3288868863254141C995
:10205000600433B2729D2A4D0C7A0C2D1A0034475D
:102060009D8E02CB0AA9873D2AAA1EF6A8A87A54FB
:10207000B47A54B47A54B47A54543DEC5151F5A81E
:10208000483912528E8494231DE640883910620E1E
:102090008498031DE738C8390E728EF381FF40E43F
:1020A000107BFE770035459D8E02CBE07F20AB870D
:1020B0003DFF2388AAD065B092116D6CC211ABA30D
:1020C00084642101614840DAE39EE7BCC39E3FEB94
:1020D0003C97831AC410812C442448198C584856C4
:1020E000AE53A56945AE99C7020036559D8E02CB09
:1020F000EB988D8BD694AA73958C2C8219CA5104B7
:10210000B21071B423200D72CE73ECF91B4AB2CE1B
:1021100065B092116D6C82298A505212928504A486
:1021200041ED71CF73FFDED3A0860464210259888C
:10213000508E3256242BD7A9D2B422D7CC63013784
:102140004D9D8E02CBE07F206350831A128E8684D1
:10215000A321E160493818220E86D014452A421383
:102160008A54144D28525134A14845D1842215A1D6
:10217000298A5484A62852119A50A4A26842918AAE
:10218000A209452A425314A9084D1A0038609D8EB1
:1021900002CBEB988D8BD694AA73958C2C6319CABD
:1021A0005104B210812C24200D6ACF73DF7B1AD426
:1021B00090802C44200B11CA51C68A64E53A559A86
:1021C0005275AE9211A5282349894016129006B582
:1021D000E7B9EF3D0D6A48381822908508E5286375
:1021E00045B2729D2A4D2B72CD3C160039549D8EFE
:1021F00002CBEB988D8BD694AA73958C2C6319CA5D
:102200005104B210812C24200D6ACF73FF39A841EC
:102210000D09C84A429214A114466C434732731DFB
:102220002B29E3B0E7B3CE7339A8410C11C842445F
:102230008294C1888564E53A559A56E49A792C00CF
:102240003A1547E81EAB62181F1842F1C1AD227063
:10225000C1108300003B1707E912AB62181F184238
:10226000F1C1AD2270C11005118A28003C3092489E
:102270002FCB6F70442B98A19094A0E4A84E82922B
:10228000A342883A96C18A66B063212A514A5254C1
:102290004A292AA59075B4C2116F80023D105AC513
:1022A00026CDE03FB07DF0F607FE810D3E2ED248F0
:1022B0002BCB2088021C5ED10C762C44292A4D2978
:1022C0002A4D21CC680533D6A11094EE282741A9C8
:1022D000842883158D70C30B22003F42DD8E02CB14
:1022E000EB988D8BD694AA73958C2C63190A4A446B
:1022F000A2108130A841CE79CE3BECA9A2683293DE
:10230000A948452E7191EA668A2215A9873DFFDF0B
:1023100007F78A6BDCC39EAC8189060040D57391B8
:10232000C6F6B3F900993C9637FBCD0F08F103C40C
:102330007392D398C7AC652E69B10A527072929DA0
:1023400098842724594738084A45041988920A2254
:102350009034154420883287385065205419E82875
:1023600042390E420C721C741CE438E8741C743A36
:102370000E3A1D079D8E834EC741A7E3A0D371D0AF
:10238000E938E8741C743A0E3A1D079D8E834EC7D7
:1023900041A7E3A0D371D0E938E8741C743A0E3A2F
:1023A0001D079D8E838E831C07212629D05144133F
:1023B00024F481411CE8038338D2078281248F20D2
:1023C000CA098D4114339683B0031D29F9004B3E91
:1023D000C0920F2CE5034BF9C05A3EA0980F24E899
:1023E00003E50344FCC0203F20D0AF7A78DBD8015E
:1023F00000416E9D8E02CBEBB04845681A55A6226F
:10240000D7492632B00D3ACF712F7784C31D0169A9
:10241000474018220E8688831DE360C738D83110E4
:1024200085904321E4504739D4510E7514241D057D
:10243000418839D0710E749C031D0739C741CC3DCA
:1024400083911C41D4418E75906321E3608740D80D
:10245000218E7688A31DE26848381AE41E77004270
:10246000779D8E02CB006A93AA9075B082958C20DE
:102470008619874AC6B1127130441CED104743C219
:10248000D19070B8231CEE084743C2D19070342419
:102490001C0C11C74AC4A11471246568232358B9C0
:1024A000CC65B09211A434E348CA3856220E86880F
:1024B000A321E1684838DCEBB9E75E0D094743C268
:1024C000C19270AC441C691187694646B07219EB21
:1024D000546852500300433E9D8E02CB0A998D8B67
:1024E000D694AA73958C2C8219095204B290803428
:1024F000587B9ECB9EFFFFFF7BCE7B1AD490803013
:1025000024200B110A4AC622189295EB54695A915D
:102510006B26A20044399D8E02CB405A15BA0C5648
:1025200032A28D4D206811C752C2D1907034241C44
:10253000EEF5DCFFFFFF9F7B35241C0D09C752C25F
:102540009116B1096D64042B97A990B400451D9DA7
:102550008E02CBE07F20AB873DFFFFAC75EC770EA2
:102560007BFEFF2C523FF01F880046199D8E02CB48
:10257000E07F20AB873DFFFFAC75EC770E7BFEFF65
:10258000FF2C0047429D8E02CB0A998D8BD694AAD0
:1025900073958C2C6319095204B29080B0A841ED58
:1025A000792E7BFE1FAABFE7FEBDA7410D09C84AD1
:1025B00002B292A09C452CA311DBD048563073A1E7
:1025C000261CEB200748159D8E02CBE078EEFFFF1E
:1025D000DFFBC0FF9EFBFFFF7B07490B87EE02ADD1
:1025E000E0FF3F30004A279D8E02CBF6FCFFFFFF45
:1025F000FF679DE7725083DA2190850805258311D6
:102600000BC9CA75AA34ADC8351351004B8B9D8ECA
:1026100002CBE0685043C2C19270AC441C0B1987D6
:102620004AC6A11072A4841C28290742CC711273D7
:102630001CE41C26394749D051907490241D235125
:10264000C740D62192750884450C6A8F7B9CF39C09
:10265000D74026B2C5063ACF798F7B1CD48E90B076
:102660002324EC10C93A06B28E91A88324E92848A5
:102670003A4A820E83A0C324E738893910620E9447
:10268000942325E450083954328E858C6325E2600A
:1026900049381A128E96004C149D8E02CBE0B0E79A
:1026A000FFFFFFFFFF3FFB81FF40044D569D8E0261
:1026B000CBE07050833169C9149568C83A368315E8
:1026C000AC644337B6C0850FFC034B68821318E136
:1026D0008845386211CE48863392E18C6438E42014
:1026E0000E3988430EE294A238A5284E218C630649
:1026F000E398C1384638CE098E7382E33CF7FFBDBC
:10270000034E579D8E02CBE0788F7B1CD4602D62E8
:102710001193966C4D6AA6A844A50AD59075AC7322
:10272000192720C609887104521C81146720C41916
:10273000087106421C820C8720C32189700A229CE2
:102740008208C720C1314870CC756CA82ED1D4DC6A
:1027500092B1B806E75EEF004F3D9D8E02CBEB983D
:102760008D8BD694AA73958C2C6319CA5104B21020
:10277000812C24200D6ACF73FFFFFFBFF734A821FF
:1027800001598840162294A38C15C9CA75AA34AD84
:10279000C835F3580050469D8E02CB006A93AA902C
:1027A000752E83958C20A519475AC4B11271B02497
:1027B0001C0D094743C2E15ECF3DF76A48381A1243
:1027C0000E96846325E2488B404A33328295CB587B
:1027D000A7429382DA61CFFFFF6701513D9D8E02D0
:1027E000CBEB988D8BD694AA73958C2C6319CA5118
:1027F00004B290902C24200D6ACF73FFFFFFBFF727
:1028000034A82101598840162294A38C15C90A6660
:10281000AE731D2B55EB1808527F9D8E02CB006ABC
:1028200093AA90752E83958C20A519475AC4B1128E
:1028300071B0241C0D094743C2E15ECF3DF7B823B8
:102840001C0D094743C2C11071AC441C49194869A9
:102850004646B07219EB54A8868E73A0E320E73881
:10286000C839D0710E84980321E648873912528EF8
:102870008494431DE550083914428E75906321E31A
:1028800058C838D8310E86888321E26848381A1231
:102890008E8684C33D0E0153519D8E02CB0A998DC5
:1028A0008BD694AA73958C2C8219CA5104B21081CC
:1028B00030A841ED792E7B58A42216A929AAD0650B
:1028C000AE4797B93E9AD4A422F6B04845ACF35C23
:1028D0000E6A104304B210A11C6530622159B94E32
:1028E00095A615B966220A0054159D8E02CBE07F8D
:1028F000205A483DECF9FFFFFFFFFFB70055279D29
:102900008E02CBE078EEFFFFFFFFFFDED3A0860450
:102910006421025988508E3256242BD7A9D2B42272
:10292000D7CC6301567C9D8E02CBE0788F3BC2D121
:10293000907034241CED10473B04C28E71B0631CB0
:102940000B19C742C6B10E82A8A31CEA28873ACA4F
:10295000919072A4C320E838073ACE818E731CE4AC
:102960001C07658E7498231DE6488739D2519084E0
:1029700010441DE4580739D6418E759063210261D9
:102980008738DA218E7688A31DE268907B9CF3DC81
:10299000600B3291255752992A9A46918AD8430161
:1029A000578F9D8E02CBE0788F7BE78E70B8231C0B
:1029B0000D094743C2D1907034241CED10473BC42D
:1029C000D10E71B4431CED10473B04C20E81B043DD
:1029D00020EC104809CC21901298631C4528C73878
:1029E000C8409071908120E320C440C6318A818C18
:1029F0006314E320C728C6418E6188831CE2440E1D
:102A000071228740C241A270907C05BF72993BB38E
:102A100084C52C4231CA508C3214A30CC5282439E9
:102A200048490E52928318E41C0739C741060058E2
:102A30008A9D8E02CB006948381A12107608841DD0
:102A4000E358C83816321075102421E5484841D0A3
:102A50006190839CE3A0CC81107320A420E92848D6
:102A600042C8A19081AC63200B11074302D28E8033
:102A7000B4C7BD9EF31AD844166C41C7BDB9232014
:102A80000C090843C4C18E812864200A21873A0AB0
:102A900082908220C41C0831073A0E629083180489
:102AA0001DE6480841124210759063210259884082
:102AB000D821107688A3410D0159699D8E02CB0063
:102AC0006948381A120E860864210259C83814421F
:102AD0000E851024210441883910620E741CC42014
:102AE000E830083A0A921082248420EA18C83A068C
:102AF000B21071302420ED08487BDCEB35B015179F
:102B0000B948652A34A1484551A4A22852917A5463
:102B1000543D2A8A221545918AD4A3A228525114E1
:102B2000A9005A4B9D8E02CBE07F20AA08452A427D
:102B3000918A50A42234A1084D2852118A5484222B
:102B400015A148452852118A54842215A1484528C8
:102B500052118A54842215A148456842119A508422
:102B60002614A109452A4291FA81FF40045B18917D
:102B70006E03CD000A1FF801489DFFFFFFFFFFA96C
:102B80000FFC4016005C479CAE02CB00A1484528D4
:102B9000528F8A50A41E15A1484528AA2214551107
:102BA0008AAA0845558422F5A808452A425115A14C
:102BB000A88A50544528AA221455118AD4A3221455
:102BC000A908455584A22A425115A1085D14906EAA
:102BD00003CDE00F4CE9FCFFFFFFFF2F7DE0073442
:102BE0005E1B97E2F2CB27690B5B56939E8304A48E
:102BF0002003214739C6718E80A0035F0A6501EE6C
:102C0000CAE03FE0016012CE82DFCBE040C739D09E
:102C10000919C9848C64026160218B02D32BA94FEE
:102C20008CDED4AA75A50C2D6339494A0CB21083E9
:102C30002CC41CED30473BCCD10E73B4439F327291
:102C40001556A92B61283B9AD90A57947514A41DCF
:102C500004710741DC418E7790E31DE4780741DC85
:102C60004190961064296429CFF8C4373CD2954925
:102C70001C0722465AD4006241DD8E02CBE0B0E749
:102C8000FF478E7584065D062B19D1C6269AB1883A
:102C900005252159484818D420E73CF7FFEF3DEEC1
:102CA00069118B1612169484662C6213DAC80856C2
:102CB0002E7384061D045100633D1D8B02CBEB98DF
:102CC0008D8BD694AA73958C2C63190A4A04B21082
:102CD0008130A841CE792E7BFEBFE7BCC73D0D09F0
:102CE000084302B210A1A064AC4856AE53A5694592
:102CF000AE998802006443DD8E02CBF6FCFF1632EB
:102D00000ED484C35C0523D9D0C42696D1040529EA
:102D10000159494018D420E73CF7FFEF3DEE6948E0
:102D2000401812909504052962198DD88646B28202
:102D3000990B35E158073900653E1D8B02CBEB98A6
:102D40008D8BD694AA73958C2C63190A4A04B21001
:102D50008130A841CE79EEDE07FE67CFB34845DA71
:102D60006010569044214241C95891AC5CA74AD3A7
:102D70008A5C338F05006629DD8E02CBCFA80B74E9
:102D80001CC4A435252A25423988410E724EE838E4
:102D9000873DFF7BDAD09F3AECF9FFFFBF07006762
:102DA00060DD8EC6CA4B4295B90A46B2A113CB5814
:102DB000867214912844200C6A90739EDB7BDCD3CE
:102DC00090803024240A110A4AC68A64E53A559A4A
:102DD00056B420F6B88422F5B0278B54854A6B4A46
:102DE00096C1483636B18564450D72CE73DEE39EDA
:102DF000868424296113DBC8CA75AA3435E70068C4
:102E00002ADD8E02CBE0B0E7FF478E7584065D06B3
:102E10002B19D1C6269AB18805252159484818D4BE
:102E200020E73CF7FFFFFFBD036922CBAE02AB6298
:102E3000380639578A0F060E72FEFFFFFF11642015
:102E400024114A504432107214030D6A2A9612C794
:102E5000CC9088063CDE192C3EF8CCF1CEFFFFFF6B
:102E6000FFFFF71CF418C820211189A00DA940C745
:102E7000494C3310006B76DD8E02CBE0B0E7FFE704
:102E80009E86848325E160883856228E858C432572
:102E9000E348093912520E94940321E63889390E19
:102EA000720E939CA324E828483A48920E82A863A5
:102EB00024EA18C83A04C28E90B023242C62D29A15
:102EC000D4A4A844A50A310141CB40CE3212A314A8
:102ED000C4A44A729082A084202919C742C6B112A4
:102EE0007130441C2C094743C2E1106C1DCF8E0287
:102EF000ADE040E7FFFFFFFFFF0F2107418971822F
:102F0000239AC190A528E8006D86338B02F7E02054
:102F1000C73BD6119AD4A0AB44061B53C942453EC9
:102F2000108D0F48A219D358C4821C9484642D0BB1
:102F300009095318D4920639C439EF78CE3B9EF371
:102F40008EE7BCE339EF78CE3B9EF38EE7BCE339E6
:102F5000EF78CE3B9EF38EE7BCE339EF78CE3B9E15
:102F6000F38EE7BCE339EF78CE3B9EF38EE7BCE30C
:102F700039EF78CE3B9EF38EE7BCE339EF78CE3B5A
:102F80009EF38EE7BCE339EF78CE3B9EF34E6E277F
:102F90001D8B02CBE020C73A42832E83958C686359
:102FA00013CD58C48292902C24240C6A90739EFBFB
:102FB000FFFFFFDE016F3A1D8B02CBEB988D8BD6A6
:102FC00094AA73958C2C63190A4A04B2108130A814
:102FD00041CE79EEFFDF7BDCD390803024200B11D3
:102FE0000A4AC68A64E53A559A56E49A89280070D6
:102FF00042DD8EC6CAE020C73A42832E83958C6894
:103000006313CD58C48292902C24240C6A90739E32
:10301000FBFFF71EF7B488450B090B4A423316B184
:10302000096D64042B973942830E82A8C39EFFCF9B
:10303000027143DD8EC6CAEB20076AC261AE82917F
:103040006C686213CB6882829480AC24200C6A90F6
:10305000739EFBFFF71EF73424200C09C84A8282B6
:1030600014B18C466C432359C1CC859A702C641CD6
:10307000F6FCFF00721C168B02BDE02052F8C01F48
:10308000688444200399C721EE78E7FFFFFF7B00A7
:103090007342198B02C3E980CC7A5274A652114B49
:1030A0002C6111C88912A49CE55A4F44241213F8CC
:1030B000AC2845484A3105B925261189CF725B4FA6
:1030C000821212909384D5B04655A613A58731EF8E
:1030D00048007422D24E02ADE458E7FF3B1FF803CC
:1030E0000239D6F9FFFFDF4294929AD218E62C48B3
:1030F00049C93A0075281D8B02CBE078EEFFFFFF2F
:103100007B8F7B1A12108604642541418A5846231E
:10311000B6A191AC60E6424D38D6410E766E1D8B5D
:1031200002CBE0788F7BDC118E8684A31DE268875A
:1031300040D82110768C6321E3580739D6411075A9
:1031400010441DE5484839D2618E7418041D0641AB
:10315000C7390E724EE8380742CC811073A4A32001
:10316000E928873ACAA1107228841CEB18C83AC60D
:10317000C18E7130441C0C09483B02D28E70B823BA
:103180001CEEF59CD7C0B6C8200077C5338B02F77C
:10319000E078C773DEF19E9634241C2D6948385AB6
:1031A000D20E71B4A41DE2680A3B04B296858C630A
:1031B0002D0B19C75AD6418EB5AC831C8B510741D4
:1031C00052939072A42621E5484D3ACC919A749876
:1031D0002339E830C8790E728EF31CE49CC2710E5C
:1031E000749C231CE740C73902620E841424200516
:1031F000494741C451907494631CE5504739C65106
:103200000E75946320E450C8405BC740C831907588
:103210008CA31CE360C738CA310E768CA320E26011
:1032200048400A12907604C41C01694738CE110E3A
:103230007784E31CE1704738CEE39EF33C0739AF57
:10324000490D6C52039BD4C0263591510C02007875
:10325000661D8B02CB007147381A1210768C6321E1
:1032600003514739125210749CE3A0CC918E8224F2
:10327000841CEB18C842C4D18E80B4E739AF894CA6
:103280005CA632938AA20955E42219D840C73DEEC4
:10329000080843C4C18E8128841CEA280842CC81D6
:1032A0008E8318041DE6480841D4418E8508841D8C
:1032B000E268903B007974DD8EC6CAE360C74014B3
:1032C000321085904321E4504739D45110841404BE
:1032D00021E6408839D0710E741CE41C0731083A8D
:1032E0000C820E73A4C31C0929474208A20E82A8AF
:1032F000831CEB20C742C6B11081B04320EC1008FC
:103300003BC4D1907034C8BD9CF35CB00599C892A1
:103310002BA94C154D51A4A26B42415A211216AD56
:1033200068490C720E5CE811017A2B1D8B02CBE010
:103330007F20A2C94CA632535399693499299ACC5B
:10334000144D668A26334593999ACA4CA3C94CE812
:1033500007FE03117B41D430E7CAAF68C74A949295
:1033600016C4A005292A592886B0A39DFFC7107648
:103370003044254951C942D81011962C85250D6934
:103380004743DAF9FF1AC210965ACA62109316A57B
:10339000ACA41DAF007C0B47F2E3CAE0FFFF81073E
:1033A0007D43D330E7CA8078464356A294B4A04503
:1033B000290B61C842D8F9FF18B210862C84254B1E
:1033C00051093BE0C00E952405250959884216B2E3
:1033D0000E76FEDF4229242967410B5252A29065E6
:1033E00034E2017E1AA0624ACB835806424C53381D
:1033F000D237BA0209A52CE84844130A007F070017
:103400000002CB0000000004FFFF00003A0920008A
:10341000416C61726D20616374697665003A0920C0
:1034200000416C61726D20637572736F72003A09AE
:10343000200043757272656E742073706565640058
:103440003A0920005653530054616E6B20636F6E2F
:1034500074656E643A200054616E6B2063616C6326
:10346000756C6174653A20003A0920004F757473D9
:103470006964652054656D7065726174757265006C
:103480003A09200054656D7065726174757265202B
:1034900031003A092000436F6F6C616E74206869D7
:1034A0007473003A092000456E67696E6520636F8A
:1034B0006F6C616E74003A09200050756C73652062
:1034C000636F756E74003A09200048697473206355
:1034D0006F6E74656E64003A092000454355003AEA
:1034E0000920004869747320636F6E74656E640010
:1034F0003A09200052504D003A0920004469737483
:10350000616E636520636F6E74656E64003A0920B6
:10351000004869747320636F6E74656E64003A09C5
:103520002000565353003A092000566F6C746167AF
:1035300065207265616473005741524E494E4721C0
:10354000202057726974696E672045455020524F9C
:103550004D206461746120746F20636869702E2E41
:103560002E004465626F756E636520697320747206
:103570007565004465626F756E63652069732066CA
:10358000616C7365003A092000436F6E74726F6C52
:103590002076616C756520003A09200045646974E5
:1035A0006F722061637469766520003A0920004ECD
:1035B000617669676174696F6E20206973003A09EA
:1035C00020004C61737420627574746F6E2069738F
:1035D000003A0920004457206973003A0920005539
:1035E00050206973003A092000424B206973003A69
:1035F000092000437572736F7220736176656400F1
:103600004477206869742000557020686974200030
:103610003A092000566F6C746167652072656164B9
:10362000696E6773003A092000566F6C74616765B4
:103630002063616C63756C6174650052616E6765CF
:103640003A200020200030300030302E30000000C2
:1036500000C2AD00496E637265617365206F7220B0
:103660007265647563652076616C756500546F20C2
:10367000696E6372656173652C206C6F776572206B
:103680007468652076616C756500546F207265738F
:10369000657420686F6C6420232B2400507265735E
:1036A00073202320746F207265736574200020548A
:1036B000696D696E672062656C74206469737461FA
:1036C0006E63653A2000203130252072657369737E
:1036D000746F7220746F6C6572616E6365000000B8
:1036E00000C5B400C39700C2A4004000C2A30020DC
:1036F00000D090D09DD0932E20D0A0D095D09CD03B
:10370000AAD09A00D092D09ED09BD0A2D09CD09527
:10371000D0A2D0AAD0A000C2A700C2A600C2BB00FF
:10372000C2AC00C3B800C2B900C2AE00C2AC00C295
:10373000AB00C2AA00C2A900C2A800C2BF00C2BE9C
:1037400000C2BD00C2BC00C2B700C2B600C2A10028
:10375000C2B700C2AE0060005E00C2A200C2B000EC
:10376000C2A500D094D0BED0B2D0B8D0B6D0B4D01C
:10377000B0D0BDD0B52E2E2E202020202000C2B1EA
:10378000C3B7C2A500C2B200C2AF00C2B10034329A
:103790003030306B6D2028D0A1D0BBD0B5D0B42054
:1037A000D181D0BCD18FD0BDD0B020D0BDD183D0FD
:1037B000BBD0B8D180D0B0D0B9D182D0B520D0B4F0
:1037C000D0B0D0BDD0BDD0B8D182D0B52900D09274
:1037D000D18AD0B7D0B4D183D188D0BDD0B8D18F61
:1037E000D18220D184D0B8D0BBD182D18AD18020DF
:1037F000D181D0B520D181D0BCD0B5D0BDD18F2062
:10380000D0BDD0B020D0BDD0B0D0B40020D09DD09D
:10381000A3D096D09DD09020D0A1D09CD0AFD09DE9
:10382000D09020D092D0AAD097D094D0A3D0A8D0B6
:1038300095D09D2FD09CD090D0A1D09BD095D09DDD
:1038400020D0A4D098D09BD0A2D0AAD0A02000D0C5
:10385000B520D0B7D0B020D181D0BCD18FD0BDD0D1
:10386000B0202838353030306B6D2B2900D090D007
:10387000BDD0B3D180D0B5D0BDD0B0D0B6D0B5D04A
:10388000BDD0B8D18FD18220D180D0B5D0BCD18A63
:10389000D0BA00D090D09DD093D0A0D095D09DD05C
:1038A00090D096D095D09D20D0A0D095D09CD0AA75
:1038B000D09A00D0A1D0A2D09ED09F20D181D0B2EA
:1038C000D0B5D182D0BBD0B8D0BDD0B82000D09F69
:1038D000D180D0B5D0B4D0BDD0B820D181D0B2D0B5
:1038E000B5D182D0BBD0B8D0BDD0B800D09DD0B5B6
:1038F000D180D0B0D0B1D0BED182D0B5D189D0B036
:1039000020D0BAD180D183D188D0BAD0B020D0B263
:103910003A00D098D097D093D09ED0A0D0AFD09B73
:10392000D09020D09AD0A0D0A3D0A8D09AD0900088
:10393000D182D0B5D187D0BDD0BED181D182D18244
:10394000D0B020D0B7D0B020D187D0B8D181D1822B
:10395000D0B0D187D0BAD0B800D09FD180D0BED05F
:10396000B2D0B5D180D0B5D182D0B520D0BDD0B83D
:10397000D0B2D0BED182D0BE20D0BDD0B000D0A2B7
:10398000D095D0A7D09DD09ED0A1D0A220D097D046
:103990009020D0A7D098D0A1D0A2D090D0A7D09A74
:1039A000D09800D0BDD0B020D0B4D0B2D0B8D0B371
:1039B000D0B0D182D0B5D0BBD18F20D0B520D0B27D
:1039C000D0B8D181D0BED0BAD0B02100D0A2D0B56D
:1039D000D0BCD0BFD0B5D180D0B0D182D183D1807E
:1039E000D0B0D182D0B02000D09ED09FD090D0A1B6
:1039F000D09DD09ED0A1D0A220D09FD0A0D095D0D5
:103A000093D0A0D0AFD092D090D09DD09500D0BE12
:103A1000D185D0BBD0B0D0B4D0B8D182D0B5D0BBD6
:103A2000D0BDD0B0D182D0B020D182D0B5D187D096
:103A3000BDD0BED181D18200D09FD180D0BED0B2C6
:103A4000D0B5D180D0B5D182D0B520D0BDD0B8D03E
:103A5000B2D0BED182D0BE20D0BDD0B000D09ED0DA
:103A6000A5D09B2E20D0A1D098D0A1D0A2D095D007
:103A70009CD09000D0BFD180D0B5D0B4D0BDD0B84C
:103A8000D182D0B520D181D0BFD0B8D180D0B0D133
:103A900087D0BAD0B8202000D098D0B7D0BDD0BE43
:103AA000D181D0B2D0B0D0BDD0B520D0BDD0B02063
:103AB00000D0A1D09FD098D0A0D090D0A7D09DD03A
:103AC0009020D0A1D098D0A1D0A2D095D09CD09059
:103AD00000D0BDD0B520D0B520D0B220D180D0B09C
:103AE000D0B1D0BED182D0BDD0B820D0B3D180D09B
:103AF000B0D0BDD0B8D186D0B800D09DD0B0D0BFA6
:103B0000D180D0B5D0B6D0B5D0BDD0B8D0B520D04A
:103B1000BED1823A2000D095D09B2E20D0A1D09843
:103B2000D0A1D0A2D095D09CD09000D0BCD0BED196
:103B300082D0BED180D0BDD0BED182D0BE20D0BC7C
:103B4000D0B0D181D0BBD0BE00D09FD180D0BED06C
:103B5000B2D0B5D180D0B5D182D0B520D0BDD0B84B
:103B6000D0B2D0BED182D0BE20D0BDD0B000D0A1C6
:103B7000D09CD090D097D09ED0A7D09DD09020D070
:103B8000A1D098D0A1D0A2D095D09CD09000D0A8A0
:103B9000D0BED184D0B8D180D0B0D0B9D182D0B588
:103BA00020D0B2D0BDD0B8D0BCD0B0D182D0B5D0AA
:103BB000BBD0BDD0BE002000D097D090D09BD09578
:103BC000D094D0AFD092D090D09DD098D0AF20D00C
:103BD0009FD09E20D09FD0AAD0A2D0AF0020D09D51
:103BE000D0B520D0B8D0B7D0BFD180D0B0D0B2D06F
:103BF000BDD0BED181D18220D0BDD0B020D0BAD12D
:103C000080D183D188D0BAD0B00020D09ED0BFD090
:103C1000B0D181D0BDD0BED181D18220D181D18A15
:103C2000D0BDD0BBD0B8D0B2D0BED181D18220001F
:103C300020D09DD0B0D0BFD180D0B0D0B2D0B5D13F
:103C400082D0B520D0BFD0BED187D0B8D0B2D0BA44
:103C5000D0B000D098D0B7D0BFD0BED0BBD0B7D0F6
:103C6000B2D0B0D0B9D182D0B520D181D0BFD0B838
:103C7000D180D0B0D187D0BAD0B0D182D0B020D04E
:103C8000B7D0B020D0BAD180D0B0D0B900D098D0C1
:103C9000B7D0B3D0B0D181D0B5D182D0B520D0B417
:103CA000D0B2D0B8D0B3D0B0D182D0B5D0BBD18F44
:103CB00020D0B7D0B020D0B7D0B0D0BFD0B0D0B720
:103CC000D0B2D0B0D0BDD0B52E00D0A0D095D09776
:103CD000D0A3D09BD0A2D090D0A200D09AD09ED01A
:103CE0009DD0A1D0A3D09CD090D0A6D098D0AF002A
:103CF000D09ED094D09ED09CD095D0A2D0AAD0A057
:103D000000D09ED091D09ED0A0D09ED0A2D09800BE
:103D1000D0A1D09AD09ED0A0D09ED0A1D0A200D0C9
:103D200098D0B7D0BFD0BED0BBD0B7D0B2D0B0D073
:103D3000B920232B2420D0B7D0B020D0BFD180D041
:103D4000BED0BCD18FD0BDD0B000D098D0B7D0BF3E
:103D5000D0BED0BBD0B7D0B2D0B0D0B9202420D004
:103D6000B7D0B020D0BDD0B0D0B2D0B8D0B3D0B0E2
:103D7000D186D0B8D18F2000D09DD0B0D182D0B81C
:103D8000D181D0BDD0B5D182D0B5202420D0B7D03C
:103D9000B020D0BFD180D0BED0BCD18FD0BDD0B0EC
:103DA0000041726475696E6F4D494420D0B2D0B540
:103DB000D180D181D0B8D18F2000D097D0B020D081
:103DC000BDD0BED0B2D0B820D0B2D0B5D180D181D4
:103DD000D0B8D0B83A207777772E6769742E696F9C
:103DE0002F76486C6B6400D097D0B0D0B4D180D11E
:103DF0008AD0B6D182D0B5202320D0B820D0BDD073
:103E0000B0D182D0B8D181D0BDD0B5D182D0B520CB
:103E1000D181D0BFD0B8D180D0B0D187D0BAD0B006
:103E2000D182D0B02000D097D0B020D0BDD183D0E7
:103E3000BBD0B8D180D0B0D0BDD0B520D0BDD0B02F
:103E400020D0BFD18AD182D183D0B2D0B0D0BDD062
:103E5000B5D182D0BE00D097D090D092D09ED094D1
:103E6000D0A1D09AD09800D0A2D095D09AD0A3D08B
:103E7000A9D09E00D09DD090D0A1D0A2D0A0D09E9D
:103E8000D099D09AD09800D098D09DD0A1D0A2D06F
:103E9000A0D0A3D09CD095D09DD0A2D09800D09E89
:103EA000D0A2D09DD09ED0A1D09DD09E00D09ED03B
:103EB00091D0A1D09BD0A3D096D092D090D09DD0BD
:103EC0009500D093D09ED0A0D098D092D09000D022
:103ED0009FD0AAD0A2D0A3D092D090D09DD098D07D
:103EE000AF00D09DD090D0A7D090D09BD09E00D0D6
:103EF00098D0B7D0B3D0BED180D0B5D0BBD0B800A9
:103F0000D098D0B7D0BDD0BED181D0B5D0BDD0B8BB
:103F1000002020202020202020C2A40020202020BB
:103F200020202020C2A3200020D09DD0B8D0B2D025
:103F3000BE20D0BCD0BED182D0BED180D0BDD0BE3C
:103F400020D0BCD0B0D181D0BBD0BE3A2000D0A20E
:103F5000D0B5D187D0BDD0BED181D18220D0B7D04D
:103F6000B020D187D0B8D181D182D0B0D187D0BA9A
:103F7000D0B83A2000D09ED185D0BBD0B0D0B4D03C
:103F8000B8D182D0B5D0BBD0BDD0B020D182D0B511
:103F9000D187D0BDD0BED181D1823A20002020204F
:103FA000D09FD180D0B5D0B4D0BDD0B82020D0BD66
:103FB000D0B0D0BAD0BBD0B0D0B4D0BAD0B83A20FC
:103FC00000D09FD180D0B5D185D0BED0B42000D054
:103FD000B4D0BE20D181D0BBD0B5D0B4D0B2D0B097
:103FE000D189D0B8D18F20D0BFD18AD18221000011
:103FF0000001040505030304050604050607010086
:104000000100030201000001020304050607070680
:10401000050403020100070201000706050403026C
:10402000010003020100000102030405060700016C
:1040300002030405060702030405060607EF3FCF47
:104040003FC13F9D3F753F4E3F283F1C3F113F0002
:104050003FEF3EE23ECF3EC23EAD3E9E3E873E74C7
:104060003E673E563E263EE73DBA3DA13D783D4A7D
:104070003D1F3D103D013DF03CDB3CCA3C8D3C53B7
:104080003C303C0A3CDD3BB83BB63B8E3B6E3B498B
:104090003B2B3B163BFA3AD13AB13A983A743A5D27
:1040A0003A383A0E3AE839CC39A3397E39593930A1
:1040B000391239EC38CE38B33893386D384F380C64
:1040C00038CE378E378B37883785377E3763376002
:1040D000375D375A3758375637533750374D374A89
:1040E000374737443741373E373B37383735373234
:1040F000372F372C3729372637233720371D371AE4
:104100003717370437F136EF36EC36EA36E736E460
:1041100036E136E036DF36DE36C636AE369C368AD7
:10412000366D365436513650364F364E3649364651
:104130003643363B363A09200020456570526F6D94
:1041400020616C6C6F636174652055534544206D2C
:10415000656D6F72792062797465733A2020003A38
:1041600009200020456570526F6D20616C6C6F6393
:104170006174652046524545206D656D6F727920EA
:1041800062797465733A20003A09200055736564BA
:10419000206D656E75003A092000536176656420D4
:1041A000637572736F72206D656E75003A09200039
:1041B00043757272656E7420637572736F72206DD1
:1041C000656E75003A0920004C5047323A003A09B2
:1041D00020004C5047313A004C50472061637469CD
:1041E000766500424E5A206163746976650068689E
:1041F0003A6D6D00002530336400253032642E2581
:1042000030316400253032643A25303264000000D9
:104210000E420442FA41F541EE4120617420002033
:10422000766F6C74616765200057484C2043757247
:1042300072656E7420726573697374616E63652054
:10424000003D3D3D3D3D3D3D3D3D3D3D3D3D3D3DDB
:104250003D3D3D3D3D3D3D3D3D3D3D3D3D3D3D3D8E
:104260003D3D3D3D3D003D3D3D3D3D3D3D3D3D3DBB
:104270003D3D3D3D3D3D3D3D3D3D3D3D3D3D3D3D6E
:104280003D3D3D3D3D3D3D3D3D3D003E2073746126
:1042900072746564210044756D70696E67206F6685
:1042A00066736574206E616D652009203C003E20B8
:1042B00073746F7070656421200044656275676770
:1042C000696E67206F66667365742009203C007311
:1042D000746F70003D3D3D3D3D3D3D3D3D3D3D3DAF
:1042E0003D3D3D3D3D3D3D3D3D3D3D3D3D3D3D3DFE
:1042F0003D3D3D3D3D3D3D3D004C50472073657289
:1043000069616C20636F6D6D756E69636174696F4F
:104310006E0056656869636C65207370656564201E
:10432000616C61726D0056656869636C65207761C8
:10433000726E696E67207374617465730056656888
:1043400069636C6520736572766963696E67207353
:1043500074617465730052656D6F746520636F6E70
:1043600074726F6C2020726164696F0053746565AC
:1043700072696E6720776865656C20627574746F0A
:104380006E7300496E7465726E616C20636869704B
:10439000206D656D6F727900554920627574746F78
:1043A0006E2068616E646C657200554920557365B6
:1043B0007220496E74657266616365206D656E7505
:1043C0000056656869636C65206176657261676532
:1043D0007320617373756D65640056656869636CFD
:1043E00065206765617220726174696F2072657300
:1043F0006F6C7665720056656869636C65206469E8
:104400007374616E6365206D6561737572656400B8
:104410004675656C2074616E6B2063616C63756CAE
:104420006174696F6E206461746100456E67696EC6
:104430006520636F6F6C616E742074656D7065725A
:10444000617475726500446973706C617920626192
:10445000636B206C69676874206C6576656C0049D5
:104460006E7374616E7420636F6E73756D707469B2
:104470006F6E2063616C63756C6174696F6E00466A
:1044800075656C20636F6E73756D7074696F6E20E7
:1044900063616C63756C6174696F6E200041646464
:1044A0006974696F6E616C202074656D70657261EE
:1044B0007475726520283229004164646974696FDB
:1044C0006E616C202074656D7065726174757265C3
:1044D00020283129004F7574736964652074656DF7
:1044E0007065726174757265202866726F6E7429CA
:1044F0000045435520456E67696E6520436F6E74B5
:10450000726F6C20556E69740052504D2052657662
:104510006F6C7574696F6E7320506572204D696E93
:10452000757465005653532056656869636C652041
:1045300053706565642053656E736F72200020446C
:10454000454255472048454C50202F20417661690F
:104550006C61626C652064756D70206F6666736552
:10456000747320286462673D3C4E554D3E292000FF
:104570003D3D3D3D3D3D3D3D3D3D3D3D3D3D3D3D6B
:104580003D3D3D3D3D3D3D3D3D3D3D3D3D3D3D3D5B
:104590003D3D3D3D000068656C70006462670053FE
:1045A00065747320636C6F636B20746F3A200072C4
:1045B0007463007365745F656570006765745F653B
:1045C00065700073697A655F656570006565705F29
:1045D00077726B006565705F73656E735F65637599
:1045E000006565705F73656E735F64737400656505
:1045F000705F73656E735F72706D006565705F7379
:10460000656E735F767373006565705F626E7A00C6
:104610006565705F6C70670063666C00766572003C
:10462000636D640053657473205472697020432075
:1046300072616E67652000536574732054726970EF
:104640002043206675656C20005365747320547296
:10465000697020422072616E676520005365747333
:1046600020547269702042206675656C2000536585
:104670007473205472697020412072616E676520E6
:10468000005365747320547269702041206675650B
:104690006C20005341564544207472697020646157
:1046A00074612000547269702064697374616E6370
:1046B000652000576865656C2053696D756C617481
:1046C0006520726573697374616E63652000536160
:1046D00076656420416C6C206461746120616E6455
:1046E00020726573657474696E672E2E2E00536197
:1046F00076656420416C6C206461746120005361B4
:1047000076656420576F726B2064697374616E63A1
:1047100065200050617373696E672076616C756502
:1047200020746F2063617253656E732064726976C2
:1047300065720045435520636F7272656374696FDB
:104740006E200044535420636F7272656374696F06
:104750006E200056535320636F7272656374696FE5
:104760006E2000576F726B2064697374616E6365AD
:10477000200054726176656C2064697374616E63A5
:10478000652000424E5A206675656C2000626E7A84
:10479000004C5047206675656C20006C7067003DCA
:1047A0003D3D3D3D3D3D3D3D3D3D3D3D3D3D3D3D39
:1047B0003D3D3D3D3D3D3D3D3D3D3D3D3D3D3D3D29
:1047C0003D3D3D00536574732064697374616E638D
:1047D000652074726176656C20666F722020547259
:1047E0006970203320007464333D3C666C6F6174E3
:1047F0003E005365747320636F6E73756D6564203E
:104800006675656C20666F72202054726970203363
:1048100020007466333D3C666C6F61743E005365E6
:1048200074732064697374616E6365207472617659
:10483000656C20666F7220205472697020322000EF
:104840007464323D3C666C6F61743E0053657473F2
:1048500020636F6E73756D6564206675656C206688
:104860006F72202054726970203220007466323DCD
:104870003C666C6F61743E005365747320646973A9
:1048800074616E63652074726176656C20666F7208
:10489000202054726970203120007464313D3C66E0
:1048A0006C6F61743E005365747320636F6E737533
:1048B0006D6564206675656C20666F722020547289
:1048C0006970203120007466313D3C666C6F617404
:1048D0003E002E3A3A20545249505320434F4D4DFA
:1048E000414E4453203A3A3A3A3A3A3A3A3A2E004A
:1048F00053656E647320766F6C746167652B7265A7
:1049000073697374616E636520746F20726164698A
:104910006F20200077686C3D3C312B313E005265A2
:1049200073657473207472697073206F66204243DC
:1049300020200072657365743D3C313E0053617602
:1049400065732063757272656E74206368616E674B
:10495000656420646174612000736176653D3C315B
:104960003E0050757368206461746120746F206329
:10497000617253656E7320007365745F636F723D7F
:104980003C313E002E3A3A204F5448455220434F86
:104990004D4D414E4453203A3A3A3A3A3A3A3A3A2D
:1049A0002E00436F6E73756D7074696F6E206D6548
:1049B00061737572656D656E74732000636F725FED
:1049C0006563753D3C666C6F61743E004469737449
:1049D000616E6365206D6561737572656D656E747A
:1049E0007300636F725F6473743D3C666C6F6174D7
:1049F0003E0056656869636C652073706565642068
:104A0000206D6561737572656D656E747300636F9B
:104A1000725F7673733D3C666C6F61743E002E3A34
:104A20003A20434F5252454354494F4E2056414C31
:104A3000554553203A3A3A3A3A3A3A2E0053657479
:104A40007320636C6F636B2074696D6520617320E4
:104A500031322E35396820007274633D3C666C6FCC
:104A600061743E00536574732063617220776F72C6
:104A70006B2064697374616E6365200077726B3DAF
:104A80003C666C6F61743E00536574732074726190
:104A900076656C65642064697374616E636520007B
:104AA0007474643D3C666C6F61743E00536574734E
:104AB00020636F6E73756D65642062656E7A696ED2
:104AC00065286761736F6C696E65292000626E7A74
:104AD0003D3C666C6F61743E005365747320636F78
:104AE0006E73756D65642070726F70616E652D6296
:104AF0007574616E652020006C70673D3C666C6F5C
:104B000061743E002E3A3A20534554204E455720BA
:104B100056414C554553203A3A3A3A3A3A3A3A3A9B
:104B20003A3A3A3A3A3A3A3A2E002048454C50201E
:104B30002F2047656E6572616C20636F6D6D616ECD
:104B40006420696E666F726D6174696F6E003D3DC1
:104B50003D3D3D3D3D3D3D3D3D3D3D3D3D3D3D3D85
:104B60003D3D3D3D3D3D3D3D3D3D3D3D3D3D3D3D75
:104B70003D3D0068656C700020436F6D6D616E6433
:104B8000206E6F7420666F756E642E2E2E20536F0C
:104B900072727921200020200030302E30004669CA
:104BA00078206E616E2074726970204300466978C7
:104BB000206E616E20747269702042004669782010
:104BC0006E616E20747269702041005472697020A9
:104BD0007265636F7264733A2000456570526F6D41
:104BE00020526573746F72652056616C75653A006A
:104BF0004F72202268656C703D2220666F722067BC
:104C0000656E6572616C204D494420636F6D6D6106
:104C10006E6473004465627567206D6F646520691A
:104C20007320656E61626C65642E2E2E207479701F
:104C30006520226462673D68656C702220666F7231
:104C40002064756D7020636F6D6D616E64732E00EE
:104C50003A0920004669726D77617265003D3D3DFD
:104C60003D3D3D3D3D3D3D3D3D3D3D3D3D3D3D3D74
:104C70003D3D3D3D3D3D3D3D3D3D3D3D3D3D3D3D64
:104C80003D0041524455494E4F204D4944000A00D1
:104C9000290920000920000A0009204355525245E5
:104CA0004E543A2000290920000920003A0920002A
:104CB00044494D204F4E2F4F4646003A09200044AC
:104CC000494D206F7574707574003A09200044498D
:104CD0004D20696E7075740057484C204375727290
:104CE000656E7420726573697374616E636520000C
:104CF00002000000000000000000000000000000B2
:104D000000000000000000000000000000000000A3
:104D10000000000000000000000000000000000093
:104D20000000000000000000000000000000000083
:104D30000000000000000000000000000000000073
:104D4000000000000000000000000000000000E083
:104D5000FF070000000000000000E0FF0700000067
:104D60000000000000E0FF0700000000000000005D
:104D700080C301000000000000000080C3010000AB
:104D800000000000000080C30100000000F8FFFFE9
:104D9000FFFFC37F00000000F8FFFFFFFFC37F009D
:104DA000000000F8FFFFFFFFC37F00000000F8FFD6
:104DB000FFFFFFC37F000000003800000000007804
:104DC0000000000038000000000078000000803F74
:104DD000000000000078000000803F00000000009C
:104DE00078000000803F0000000000780000008094
:104DF0003F000000000078000000000000000000FC
:104E000000780000000000000000000078000000B2
:104E1000803F000000000078000000803F0000009C
:104E2000000078000000803F0000000000780000D3
:104E300000803F0000000000780000000038000003
:104E4000000000780000000038000000000078003A
:104E5000000000380000000000780000000038006A
:104E6000000000007800000000380000000000781A
:104E7000000000003800000000007800000000384A
:104E80000000000000780000000038000000000072
:104E900078000000003800000000007800000000EA
:104EA000380CC00004407800000000381EE0010EFD
:104EB000E07800000000383FF0031FF079000000A8
:104EC00000B87FF8873FF87B00000000F8FFFFFF85
:104ED000FFFF7F00000000F8FFFFFFFFFF7F0000E3
:104EE0000000F8FFFFFFFFFF7F00000000F8FFFF5A
:104EF000FFFFFF7F00000000F8FFFFFFFFFF7F00C4
:104F0000000000F8FFFFFFFFFF7F00000000F8FF38
:104F1000FFFFFFFF7F00000000F8FFFFFFFFFF7FA4
:104F200000000000F8FFFFFFFFFF7F00000000F817
:104F3000FFFFFFFFFF7F00000000F8FFFFFFFFFF04
:104F40007F00000000F8FFFFFFFFFF7F0000000070
:104F50000000000000000000000000000000000051
:104F60000000000000000000000000000000000041
:104F70000000000000000000000000000000000031
:104F80000000000000000000000000000000000021
:104F90000000000000000000000000000000000011
:104FA0000000000000000000000000000000000001
:104FB000005600000000000000000000000000009B
:104FC00000000000000000000000000000000000E1
:104FD00000000000000000000000000000000000D1
:104FE00000000000000000000000000000000000C1
:104FF00000000000000000000000000000000000B1
:1050000000000000000000000000000000000000A0
:105010000000000000000000000000000000000090
:105020000000000000000000000000000000F07F11
:105030000000C0FF0100000000F07F0000C0FF0181
:1050400000000000F07F0000C0FF0100000000F041
:105050007F0000C0FF0100000000F07F0000C0FFE3
:1050600001000000FEFFFFFFFFFFFFFF1F0000FE2B
:10507000FFFFFFFFFFFFFF1F0000FEFFFFFFFFFF1F
:10508000FFFF1F0000FEFFFFFFFFFFFFFF1F0000ED
:10509000FEFFFFFFFFFFFFFF1F0000FEFFFFFFFF00
:1050A000FFFFFF1F00003E000000000000001F0087
:1050B000003E000000000000001F00003E00000055
:1050C000000000001F00003E000000000000001F64
:1050D00000003E000000000000001F00003E000035
:1050E00000000000001F00003E0000000000000063
:1050F0001F00003E00000000001E001F00003E00D8
:10510000000000001E001F00003E00000000001E06
:10511000001F00003E00000000001E001F00003EB7
:1051200000000000001E001F00003EF8FF0000F01D
:10513000FF031F00003EF8FF0000F0FF031F000008
:105140003EF8FF0000F0FF031F00003EF8FF0000E4
:10515000F0FF031F00003E00000000001E001F00C3
:10516000003E00000000001E001F00003E00000086
:1051700000001E001F00003E00000000001E001F77
:1051800000003E00000000001E001F00003E000066
:1051900000000000001F00003E00000000000000B2
:1051A0001F00003E000000000000001F00003E0045
:1051B0000000000000001F00003E00000000000092
:1051C000001F00003E000000000000001F0000FE65
:1051D000FFFFFFFFFFFFFF1F0000FEFFFFFFFFFFBE
:1051E000FFFF1F0000FEFFFFFFFFFFFFFF1F00008C
:1051F000FEFFFFFFFFFFFFFF1F0000FEFFFFFFFF9F
:10520000FFFFFF1F0000FEFFFFFFFFFFFFFF1F006C
:10521000000000000000000000000000000000008E
:10522000000000000000000000000000000000007E
:10523000000000000000000000000000000000006E
:10524000000000000000000000000000000000005E
:10525000000000000000000000000000000000004E
:10526000000000000000000000000000000000003E
:10527000000000000000000000000000000000002E
:10528000000000000000000000000000000000001E
:10529000000000000000000000000000000000000E
:1052A00000000000000000000000000000000000FE
:1052B00000000000000000000000000000000000EE
:1052C00000000000000000000000000000000000DE
:1052D00000000000000000000000000000000000CE
:1052E00000000000C0FF030000000000001E00C01E
:1052F000FF07000000000000FE00C0FF07000000E4
:10530000600000FF07C0FF07000000FC0000FF3F37
:10531000C0FF03000080FF0000FFFF00FE00000050
:10532000C0FF0080DFFF03FE000000FCFF00801FC5
:10533000FF03FE000080FF7F00800FFCFFFF7F0067
:10534000F0FF0F00C00FE0FFFFFF01FEFF0300C0F2
:105350003FE0FFFFFFC3FFFF0300C0FFE0FFFFFFD1
:10536000FBFFFF0100C0FFF3FFFFFFFFFFFE000098
:1053700000FFFFFFFFFFFF0F7F000000F8FF0700A7
:1053800080FF813F000000C0FF0700003F801F003A
:10539000000000FE07000006C00F00000000F0073C
:1053A000000000E00700010000E007000000F0033B
:1053B00000010000E007000000F80380030000E0A7
:1053C00007000000FC0180030000E007000000FC73
:1053D0000080030000E007000000FE00C00700009E
:1053E000E0070000007F00C0070000E00700008029
:1053F0003F00C0070000E0FFFFFFFF1F00C00700E5
:1054000000E0FFFFFFFF0F0080030000E0FFFFFF51
:10541000FF070000000000C0FFFFFFFF03000000C7
:105420000000C0FFFFFFFF030000000000000000BD
:10543000000000000000000000000000000000006C
:10544000000000000000000000000000000000005C
:10545000000000000000000000000000000000004C
:10546000000000000000000000000000000000003C
:10547000000000000000000000000000000000002C
:1054800000000000F0017C001FC007F0010000FCDC
:105490000FFFC3FFF03FFC0F0000FFFFFFFFFFFF08
:1054A000FFFF3F0000FFFFFFFFFFFFFFFF3F000088
:1054B000FFFFFFFFFFFFFFFF3F0000FFFFFFFFFFBA
:1054C000FFFFFF3F000007F0017C001FC007300016
:1054D00000000000000000000000000000000000CC
:1054E00000000000000000000000000000000000BC
:1054F00000000000000000000000000000000000AC
:10550000000000000000000000000000000000009B
:10551000000000000000000000000000000000008B
:10552000000000000000000000000000000000007B
:10553000000000000000000000000000000000006B
:10554000000000000000000000000000000000005B
:105550000000000000000000F8FF03000000000051
:10556000000000FCFF070000000000003000FCFF0E
:105570000780010000000078003C8007C0030000A5
:105580000000FC003C8007E00700000000F8013C40
:105590008007F00300000000F0033C8007F80100E2
:1055A000000000E0077CC007FC0000000000C00312
:1055B000FCFF077800000000008001FCFF073000BE
:1055C000000000000080FFFF3F000000000000001E
:1055D000C0FFFF7F00000000000000E0FFFFFF00B1
:1055E000000000000000F03F80FF0100000000000C
:1055F00000F80F00FE03000000000000F80300F8B0
:1056000003000000000000FC0100F00700000000A3
:105610000000FE000EE00F0000000000007E001FF2
:10562000C00F0000000000003F803F801F0000000E
:105630000000003F803F801F0000000000801F80AE
:105640003F003F0000000000801F803F003F00003F
:10565000000000801F001F003F00000000FE830FBD
:10566000001F003EF80F0000FE830F001F003EF8F1
:105670000F0000FE830F001F003EF80F0000FE83A6
:105680000F000E003EF80F0000FE830F000E003EDC
:10569000F80F000000800F000E003E000000000028
:1056A000801F000E003F0000000000801F000E0061
:1056B0003F0000000000001F0000001F000000006D
:1056C00000003F0000801F0000000000003E0000BE
:1056D000800F0000000000007E000EC00F000000E0
:1056E000000000FC000EE007000000000000FC01CC
:1056F00000F007000000000000F80700FC030000B5
:1057000000000000F01F00FF01000000000000E0AA
:105710007FC0FF00000000000000E0FFFFFF00006E
:10572000000000008080FFFF3F200000000000C05C
:1057300001FEFF0F700000000000E003FCFF07F80F
:105740000000000000F003C07F00F801000000002E
:10575000F801000000F00300000000FC0000000061
:10576000E007000000007C00000000C0070000000F
:105770000038000000008003000000001000001F3F
:10578000000001000000000000001F0000000000F9
:1057900000000000001F00000000000000000000EA
:1057A0001F000000000000000000001F00000000BB
:1057B0000000000000001F000000000000000000CA
:1057C000001F000000000000000000001F0000009B
:1057D000000000000000001F0000000000000000AA
:1057E00000000000000000000000000000000000B9
:1057F00000000000000000000000000000000000A9
:105800000000000000000000000000000000000098
:105810000000000000000000000000000000000088
:105820000000000000000000000000000000000078
:105830000000000000000000000000000000000068
:10584000000000000000000000000000000000F068
:10585000FF000000000000001800FEFF07800100AC
:105860000000003C80FFFF1FC003000000007CE040
:10587000FFFF7FE003000000003EF8FFFFFFC107CD
:10588000000000001FFC1F80FF830F000000801F2E
:10589000FE0300FC871F000000800FFE0100F807D8
:1058A0001F000000C0077F0000E00F3E000000C0A6
:1058B000873F000FC01F3E000000E0C31F000F80A5
:1058C0003F7C000000E0C30F000F003F7C000000A1
:1058D000F0E107000F007EF8000000F0E103000F88
:1058E000007CF8000000F8F003000F00FCF001005D
:1058F0000078F001000F00F8E001000078F80000E7
:105900000F00F0E101000078F800000F00F0E10165
:10591000000078F800000F00F0E101000038F80006
:10592000000F00F0C10100003C7800000F00E0C152
:105930000300003C7800000F00E0C10300003C7849
:1059400000000F00E0C10300003C7800000F00E001
:10595000C10300003C7800000F00E0C10300003CE0
:105960007800000F00E0C10300003C7800000F0049
:10597000E0C10300003CF800000F00F0C10300008C
:105980003CF800000F00F0C103000038F800000FE1
:1059900000F0C101000078F800000F00F0E1010004
:1059A0000078F001000000F8E001000078F001004C
:1059B0000000F8E0010000F0F003000000FCF0003F
:1059C0000000F0E1070006007EF8000000F0E107AB
:1059D000000F007EF8000000E0C30F801F003F7C36
:1059E000000000E0831F801F801F7C000000C08734
:1059F0003F000FC01F3E000000C0077F0006E00F01
:105A00003E000000C00FFE0100F8073F00000080CC
:105A10001FFC0700FE831F000000003FF87FE0FF2F
:105A2000C10F000000003EF0FFFFFFC007000000B4
:105A3000007CC0FFFF3FE003000000003880FFFF54
:105A40001FC001000000001800FCFF0380010000DF
:105A500000000000801F00000000000000000000A7
:105A60000000000000000000000000000000000036
:105A70000000000000000000000000000000000026
:105A80000000000000000000000000000000000016
:105A90000000000000000000000000000000000006
:105AA00000000000000000000000000000000000F6
:105AB00000000000000000000000000000000000E6
:105AC00000000000000000000000000000000000D6
:105AD00000000000000000000000000000000000C6
