:100000000C94EF2C0C94B8680C948D680C94626876
:100010000C9437680C940C680C94E1670C94B667E8
:100020000C948B670C94202D0C94202D0C94202D77
:100030000C94202D0C94FF610C94202D0C94202DF9
:100040000C94202D0C94202D0C94202D0C94202DFC
:100050000C94202D0C94202D0C94202D0C94704980
:100060000C94202D0C947F610C9456610C94202DDF
:100070000C94202D0C94202D0C94202D0C94202DCC
:100080000C94202D0C94202D0C94202D0C94202DBC
:100090000C94202D0C94202D0C94202D0C94E368AE
:1000A0000C94202D0C94202D0C94202D0C94202D9C
:1000B0000C94202D0C94202D0C94202D0C94202D8C
:1000C0000C94202D0C94202D0C94202D0C942D613B
:1000D0000C9404610C94202D0C94202D0C94202D54
:1000E0000C94202D5E5066503E5046504E50565057
:1000F0006E507650195F1C5F0B5F0F5F155F535F8B
:10010000205F245F2A5F2E5F325F385F3C5F405F75
:10011000535F465F4A5F4E5FCC66D166D666E06647
:10012000EA666367F466FC6604670E671867226711
:1001300031673B67636745674F6759670800000091
:10014000BE922449123EABAAAA2ABECDCCCC4C3ECC
:1001500000000080BEABAAAAAA3E00000000BF00BB
:100160000000803F0000000000084178D3BB4387B7
:10017000D1133D190E3CC3BD4282AD2B3E68EC82CB
:1001800076BED98FE1A93E4C80EFFFBE01C4FF7F50
:100190003F00000000004E414E494E495459494E1F
:1001A00046CDCCCC3D0AD7233C17B7D13877CC2BE2
:1001B000329595E6241FB14F0A000020410000C887
:1001C0004200401C4620BCBE4CCA1B0E5AAEC59D08
:1001D0007400407A10F35A00A0724E18090010A55E
:1001E000D4E80000E87648170000E40B5402000051
:1001F000CA9A3B000000E1F50500008096980000D7
:100200000040420F000000A08601000000102700FF
:10021000000000E803000000006400000000000A85
:1002200000000000000100000000002C76D888DCEF
:10023000674F0823DFC1DFAE59E1B1B796E5E3E4CC
:1002400053C63AE651997696E8E6C28426EB898C45
:100250009B62ED407C6FFCEFBC9C9F40F2BAA56FA7
:10026000A5F490055A2AF75C936B6CF9676DC11B76
:10027000FCE0E40D47FEF520E6B500D0ED902E033E
:1002800000943577050080841E080000204E0A0087
:100290000000C80C333333330F986E12831141EFD3
:1002A0008D2114893BE65516CFFEE6DB18D1844B31
:1002B000381BF77C1D901DA4BBE424203284725EA1
:1002C000228100C9F124ECA1E53D27000021002492
:1002D0000027002A002D0030003300010100000437
:1002E0000107010A01526573746F72652056616CD3
:1002F00075653A000A0A0A3D3D3D3D3D3D3D3D3DA7
:100300003D3D3D3D3D3D3D3D3D3D3D3D3D3D3D3D1D
:100310003D3D3D3D3D3D3D3D3D3D3D3D3D3D3D3D0D
:100320003D3D3D3D3D3D3D3D3D3D3D3D3D3D3D3DFD
:100330003D3D3D3D3D0A0A000A20090920205B4D54
:10034000494420245D3E20416666656374656420EF
:1003500076616C7565206F6620000A0A3D3D3D3D63
:100360003D3D3D3D3D3D3D3D3D3D3D3D3D3D3D3DBD
:100370003D3D3D3D3D3D3D3D3D3D3D3D3D3D3D3DAD
:100380003D3D3D3D3D3D3D3D3D3D3D3D3D3D3D3D9D
:100390003D3D3D3D3D3D3D3D3D3D0A005365747352
:1003A000205472697020432072616E67652000538B
:1003B00065747320547269702043206675656C20E3
:1003C0000053657473205472697020422072616E0C
:1003D0006765200053657473205472697020422051
:1003E0006675656C200053657473205472697020C3
:1003F000412072616E6765200053657473205472EA
:1004000069702041206675656C2000576865656CD1
:100410002053696D756C61746520726573697374BE
:10042000616E63652000536176656420416C6C20C9
:100430006461746120616E642072657365747469AF
:100440006E672E2E2E00536176656420416C6C2001
:10045000646174612000536176656420576F726B2C
:100460002064697374616E63652000506173736901
:100470006E672076616C756520746F2063617253BE
:10048000656E73200045435520636F727265637417
:10049000696F6E200044535420636F7272656374F9
:1004A000696F6E200056535320636F7272656374D8
:1004B000696F6E200052504D20636F7272656374D5
:1004C000696F6E2000576F726B2064697374616E80
:1004D0006365200054726176656C20646973746191
:1004E0006E63652000424E5A206675656C20004C94
:1004F0005047206675656C20004368616E67652013
:100500007472697020646174612000547269702093
:1005100074696D6520005472697020646973746138
:100520006E63652000204E6F6E65202E2E2E2053A8
:100530006F727279212000204675656C207374619A
:1005400074652069732000203E202000C2B0430063
:10055000000000004F0080200040140038CC000450
:100560009C00020001E28F0114500008200000E00E
:100570000000CF0080A00040100038C800048000B8
:10058000020001E28F01145000082000C00000208A
:100590000100107A00100200103A00D00200D00AC8
:1005A00000D00200D00200D00200D00200C8040037
:1005B000E80500E80500C80400180600F00300E0A4
:1005C00001000000003E1021B87CFC477840344018
:1005D0000441044184438443C447C44784430440E2
:1005E000F83FF81F900990098811FC3F0240024132
:1005F000C240C244E249F24DF24FF24FE2470420BA
:10060000F81F000000FC00008601003205004A09C6
:1006100000021900FE3900FE5100FE5900FE3300B1
:10062000FE1300FE2300FE4500FE8900FE0901FCCA
:100630008801FFF300000000000C122D2D120C00A9
:100640008C44CCAA8CAA86AA86440600835283A92D
:1006500083AA1F111D0E0A11171F0E1115110A0A68
:100660000404000000000000000000E01F00102053
:10067000000CC000068001FCFF00F23F01221001C7
:100680007EF801FEFF01FCFF003870000000000C46
:10069000C300068001030303000000F03F00F03CAC
:1006A00000F87F00F87F00FCFC00FCFC00FCFC0074
:1006B000FEFF01FEFF01FEFF01FFFC03FFFC03FF45
:1006C000FC03FFFC03FFFF03FEFF010000004B4D96
:1006D00048200052504D200045435520002F002057
:1006E000424C420044535420004F444F2000C2B0BB
:1006F0004300454E472000475253200057524B209D
:10070000004552524F523A2043616E6E6F7420661C
:10071000696E6420637572736F7220666F722064F5
:10072000656C6574696E67202E2E2E2E2000455252
:10073000524F523A2044454C4554452074726970DA
:10074000204320004552524F523A2044454C4554D4
:10075000452074726970204220004552524F523A2F
:100760002044454C45544520747269702041200056
:100770003E004552524F523A2054726970206375C0
:1007800072736F72206F7574206F662072616E676E
:1007900065202E2E2E2E20004E4F544943453A20E0
:1007A00044656C65746520747269702E2E2E2E203F
:1007B00000424E5A2076616C75653A20004C5047D5
:1007C0002076616C75653A20004C50472074616E4C
:1007D0006B3A20200052616E67653A20002A002A99
:1007E000002A002A0060000505060705070737559F
:1007F00000F13AF13A0107F00FC817B720070000DF
:1008000002CB00211387EE02ADE0FF07980F942280
:1008100070C1104400002222D062BFCD6230C328D4
:1008200048110EE112472886210A528CC10C64300F
:1008300003118E5002141000238A9D8E02CB0921D1
:100840004842089210822484200921483ACA911013
:1008500082248420092148420892108224841CEAC0
:10086000204842089210822484200921484208929C
:100870008E728C0FFC07A2821024210449084112B9
:1008800042908410241DE5500741CA07FE03D14061
:10089000089210822484200921483ACAA10E822499
:1008A0008420092148420892108224841CEA2847A7
:1008B00042089210822484200921484208928E72B4
:1008C000240024595D92E2CAEBB0E74717F8B468F8
:1008D00051A83A57C988521691A444200B09088B95
:1008E0001AD49EE7D8C32215B1484DA8DA5CD16569
:1008F000AE3799B99A0A55D1A42216A9883DACF30E
:100900009E066B8740162292940CA528242BD7A90B
:10091000D2B422E7C4A41EF6FC16002581DE8EFEAA
:10092000CCC460C84014329484080621823988708F
:100930000C228E60184418A328C8304651907104C8
:100940008320852948610A62948220C420C938879F
:100950004555C4A22A62117B5854452CAA2216B1CF
:10096000874555C422F6B0287B58943D2C620F8BE6
:100970003A853A4C7290B2188434E520CF408821F1
:100980008E719482180229053104520C71324F4045
:100990004E238EB48C432503614501002673DD8E02
:1009A00002CBEB98CD7B5AB4A6549DCB2C6129C9C0
:1009B000490892108224841CEB20C73AC8610F8B2F
:1009C00054C4221565918AD4642A73890C749EF3E9
:1009D0009E06B5882101618740D83110E20C843829
:1009E00004190E41864312E114443825098E4182D0
:1009F0006390E01C1BAA90752CD404E43401418B55
:100A000050CC3256242B98B9CE75AC54AD63202708
:100A100014C7E2BEAD621845A84231883190810802
:100A200025200028434F6E07CD6860843A106290FD
:100A30008318E4200639C8390E728E833A073A0EBD
:100A4000720E747650E740E70F210785CE107210C2
:100A50007420E4A0107290931CE4240739C9414E1D
:100A6000728C542CA100293D4F6E07CB6458053A77
:100A70004E7210841C042107410742D0819083A04C
:100A80001342D019420E82CEFF3B68E740C7419D1A
:100A9000E3A0CE7150063988414C629083206311E7
:100AA0002D40002A3999C6A6CBAAA0652D3085090C
:100AB000CA508A3290629406128A80842C5C644206
:100AC000CF6A58B31E34912B640109454046191969
:100AD0004A51861298C204ADA0650A002B139605F0
:100AE0002FCDE778E7873EF007BC73BCF321002CDD
:100AF0001087E2F6AAA1085C30444184220A002D46
:100B00000AD6014BCDE01FF0002E0DC7E102ABA1CC
:100B1000085C30C420002F429CAE02CB14990845DB
:100B20004D84A22642117A50D444286A22143511E9
:100B30008A9A08454D8422F4A0287A50D444286A21
:100B4000221435118A9A08454D8422F4A0287A503F
:100B5000D444286A22144501303D9D8E02CBEB9887
:100B60008D8BD694AA73958C2C6319CA5104B2103C
:100B7000812C24200D6ACF73FFFFFFBFF734A8211B
:100B8000E1688740162294A38C15C9CA75AA34ADB2
:100B9000C835F35800311B8EAE03CDE7CCA04A8A8E
:100BA00028E2031FD0C23292729CF3FFFFFFFF0FB7
:100BB000325C9D8E02CBEB98CD83D694AA73958C34
:100BC000306219CA5104B210812C24200D6ACF73EF
:100BD000BDA7410D09474382D11041B864080FA158
:100BE000C94C2842939950842633A1084D2842933A
:100BF0009950842633A1084D6642119A50842633B9
:100C0000A1084D6642119AD00FFC0722334D9D8EEC
:100C1000FECAE07F20A209456832138AD0642614F8
:100C2000A1C94C2842939950842633A18B64A2F326
:100C30001E0735882A15B148452C52117BFE5554A4
:100C4000111C3288868863254141C9600433B27221
:100C50009D2A4D0C7A0C2D1A0034479D8E02CB0A2A
:100C6000A9873D2AAA1EF6A8A87A54B47A54B47A61
:100C700054B47A54543DEC5151F5A8483912528E6F
:100C80008494231DE640883910620E8498031DE782
:100C900038C8390E728EF381FF40E4107BFE770076
:100CA00035459D8E02CBE07F20AB873DFF2388AA90
:100CB000D065B092116D6CC211ABA3846421016147
:100CC0004840DAE39EE7BCC39E3FEB3C97831AC4DF
:100CD00010812C442448198C584856AE53A56945B8
:100CE000AE99C7020036559D8E02CBEB988D8BD600
:100CF00094AA73958C2C8219CA5104B21071B42332
:100D0000200D72CE73ECF91B4AB2CE65B092116D14
:100D10006C82298A505212928504A441ED71CF73DE
:100D2000FFDED3A086046421025988508E325624F7
:100D30002BD7A9D2B422D7CC6301374D9D8E02CBDD
:100D4000E07F206350831A128E8684A321E16049DC
:100D50003818220E86D014452A42138A54144D287E
:100D6000525134A14845D1842215A1298A5484A620
:100D70002852119A50A4A26842918AA209452A4297
:100D80005314A9084D1A0038609D8E02CBEB988D44
:100D90008BD694AA73958C2C6319CA5104B2108116
:100DA0002C24200D6ACF73DF7B1AD490802C442032
:100DB0000B11CA51C68A64E53A559A5275AE921122
:100DC000A5282349894016129006B5E7B9EF3D0DD5
:100DD0006A48381822908508E5286345B2729D2A32
:100DE0004D2B72CD3C160039549D8E02CBEB988D65
:100DF0008BD694AA73958C2C6319CA5104B21081B6
:100E00002C24200D6ACF73FF39A8410D09C84A422E
:100E10009214A114466C434732731D2B29E3B0E7AB
:100E2000B3CE7339A8410C11C842448294C188855D
:100E300064E53A559A56E49A792C003A1547E81E2B
:100E4000AB62181F1842F1C1AD2270C110830000BF
:100E50003B1707E912AB62181F1842F1C1AD2270AF
:100E6000C11005118A28003C3092482FCB6F704486
:100E70002B98A19094A0E4A84E8292A342883A961F
:100E8000C18A66B063212A514A52544A292AA59040
:100E900075B4C2116F80023D105AC526CDE03FB037
:100EA0007DF0F607FE810D3E2ED2482BCB20880226
:100EB0001C5ED10C762C44292A4D292A4D21CC6860
:100EC0000533D6A11094EE282741A9842883158DD7
:100ED00070C30B22003F42DD8E02CBEB988D8BD688
:100EE00094AA73958C2C63190A4A44A2108130A8E5
:100EF00041CE79CE3BECA9A2683293A948452E7128
:100F000091EA668A2215A9873DFFDF07F78A6BDC25
:100F1000C39EAC8189060040D57391C6F6B3F90033
:100F2000993C9637FBCD0F08F103C47392D398C751
:100F3000AC652E69B10A527072929D98842724592B
:100F40004738084A45041988920A229034154420EB
:100F5000883287385065205419E82842390E420CEF
:100F6000721C741CE438E8741C743A0E3A1D079D18
:100F70008E834EC741A7E3A0D371D0E938E8741C33
:100F8000743A0E3A1D079D8E834EC741A7E3A0D346
:100F900071D0E938E8741C743A0E3A1D079D8E83AF
:100FA0008E831C07212629D051441324F481411C2F
:100FB000E8038338D2078281248F20CA098D411427
:100FC000339683B0031D29F9004B3EC0920F2CE5E8
:100FD000034BF9C05A3EA0980F24E803E50344FCF4
:100FE000C0203F20D0AF7A78DBD80100416E9D8EC3
:100FF00002CBEBB04845681A55A622D7492632B035
:101000000D3ACF712F7784C31D0169474018220E16
:101010008688831DE360C738D8311085904321E46A
:10102000504739D4510E7514241D05418839D071AB
:101030000E749C031D0739C741CC3D83911C41D4DC
:10104000418E75906321E3608740D8218E7688A316
:101050001DE26848381AE41E770042779D8E02CB65
:10106000006A93AA9075B082958C208619874AC62B
:10107000B1127130441CED104743C2D19070B823B7
:101080001CEE084743C2D1907034241C0C11C74A8F
:10109000C4A11471246568232358B9CC65B092119A
:1010A000A434E348CA3856220E8688A321E1684852
:1010B00038DCEBB9E75E0D094743C2C19270AC441E
:1010C0001C691187694646B07219EB546852500387
:1010D00000433E9D8E02CB0A998D8BD694AA7395C0
:1010E0008C2C8219095204B2908034587B9ECB9E7E
:1010F000FFFFFF7BCE7B1AD490803024200B110A97
:101100004AC622189295EB54695A916B26A2004464
:10111000399D8E02CB405A15BA0C5632A28D4D2005
:101120006811C752C2D1907034241CEEF5DCFFFF69
:10113000FF9F7B35241C0D09C752C29116B1096D62
:1011400064042B97A990B400451D9D8E02CBE07FCF
:1011500020AB873DFFFFAC75EC770E7BFEFF2C527A
:101160003FF01F880046199D8E02CBE07F20AB87A1
:101170003DFFFFAC75EC770E7BFEFFFF2C00474276
:101180009D8E02CB0A998D8BD694AA73958C2C6375
:1011900019095204B29080B0A841ED792E7BFE1F50
:1011A000AABFE7FEBDA7410D09C84A02B292A09CA2
:1011B000452CA311DBD048563073A1261CEB200729
:1011C00048159D8E02CBE078EEFFFFDFFBC0FF9E4F
:1011D000FBFFFF7B07490B87EE02ADE0FF3F3000CE
:1011E0004A279D8E02CBF6FCFFFFFFFF679DE7724B
:1011F0005083DA21908508052583110BC9CA75AA89
:1012000034ADC8351351004B8B9D8E02CBE0685036
:1012100043C2C19270AC441C0B19874AC6A110721C
:10122000A4841C28290742CC7112731CE41C2639A3
:101230004749D051907490241D2351C740D6219224
:10124000750884450C6A8F7B9CF39CD74026B2C5F9
:10125000063ACF798F7B1CD48E90B02324EC10C932
:101260003A06B28E91A88324E928483A4A820E832E
:10127000A0C324E738893910620E94942325E450E2
:10128000083954328E858C6325E26049381A128EF3
:1012900096004C149D8E02CBE0B0E7FFFFFFFFFFEE
:1012A0003FFB81FF40044D569D8E02CBE070508382
:1012B0003169C9149568C83A368315AC644337B6AA
:1012C000C0850FFC034B68821318E1884538621112
:1012D000CE48863392E18C6438E4200E3988430E80
:1012E000E294A238A5284E218C6306E398C13846C3
:1012F00038CE098E7382E33CF7FFBD034E579D8EB7
:1013000002CBE0788F7B1CD4602D621193966C4DDC
:101310006AA6A844A50AD59075AC73192720C609FA
:10132000887104521C81146720C419087106421C7C
:10133000820C8720C32189700A229C8208C720C1A1
:10134000314870CC756CA82ED1D4DC92B1B806E7C8
:101350005EEF004F3D9D8E02CBEB988D8BD694AA0D
:1013600073958C2C6319CA5104B210812C24200D62
:101370006ACF73FFFFFFBFF734A8210159884016D9
:101380002294A38C15C9CA75AA34ADC835F3580088
:1013900050469D8E02CB006A93AA90752E83958C41
:1013A00020A519475AC4B11271B0241C0D09474336
:1013B000C2E15ECF3DF76A48381A120E9684632563
:1013C000E2488B404A33328295CB58A7429382DA67
:1013D00061CFFFFF6701513D9D8E02CBEB988D8B56
:1013E000D694AA73958C2C6319CA5104B290902C90
:1013F00024200D6ACF73FFFFFFBFF734A8210159E6
:101400008840162294A38C15C90A66AE731D2B550D
:10141000EB1808527F9D8E02CB006A93AA90752E1E
:1014200083958C20A519475AC4B11271B0241C0DA4
:10143000094743C2E15ECF3DF7B8231C0D0947437E
:10144000C2C11071AC441C491948694646B07219B2
:10145000EB54A8868E73A0E320E738C839D0710E0C
:1014600084980321E648873912528E8494431DE5FF
:1014700050083914428E75906321E358C838D8312A
:101480000E86888321E26848381A128E8684C33D0E
:101490000E0153519D8E02CB0A998D8BD694AA735F
:1014A000958C2C8219CA5104B2108130A841ED7973
:1014B0002E7B58A42216A929AAD065AE4797B93E1B
:1014C0009AD4A422F6B04845ACF35C0E6A104304EB
:1014D000B210A11C6530622159B94E95A615B966A6
:1014E000220A0054159D8E02CBE07F205A483DEC25
:1014F000F9FFFFFFFFFFB70055279D8E02CBE07875
:10150000EEFFFFFFFFFFDED3A086046421025988AF
:10151000508E3256242BD7A9D2B422D7CC63015691
:101520007C9D8E02CBE0788F3BC2D1907034241C1E
:10153000ED10473B04C28E71B0631C0B19C742C645
:10154000B10E82A8A31CEA28873ACA919072A4C35C
:1015500020E838073ACE818E731CE41C07658E7430
:1015600098231DE6488739D251908410441DE458D1
:101570000739D6418E7590632102618738DA218E52
:101580007688A31DE268907B9CF3DC600B3291258A
:101590005752992A9A46918AD8430157419ACE02C6
:1015A000CDC068EDFFFF4C601A2394A60CA529431B
:1015B0006948411A52908614A419C768C6319A71B5
:1015C0008C4624A211896844229AB0840FFC7FA023
:1015D0000A39718DDBB04AAD50677614588A9D8EFA
:1015E00002CB006948381A12107608841DE358C8E7
:1015F0003816321075102421E5484841D061908397
:101600009CE3A0CC81107320A420E9284842C8A103
:101610009081AC63200B11074302D28E80B4C7BD0A
:101620009EF31AD844166C41C7BDB923200C090893
:1016300043C4C18E812864200A21873A0A8290829D
:1016400020C41C0831073A0E62908318041DE64836
:1016500008411242107590632102598840D8211028
:101660007688A3410D0159699D8E02CB00694838E7
:101670001A120E860864210259C83814420E8510C9
:1016800024210441883910620E741CC420E83008FB
:101690003A0A921082248420EA18C83A06B21071DD
:1016A000302420ED08487BDCEB35B01517B94865D0
:1016B0002A34A1484551A4A22852917A54543D2A73
:1016C0008A221545918AD4A3A228525114A9005AFE
:1016D0004B9D8E02CBE07F20AA08452A42918A507A
:1016E000A42234A1084D2852118A54842215A148FD
:1016F000452852118A54842215A148452852118A3E
:1017000054842215A148456842119A50842614A198
:1017100009452A4291FA81FF40045B18916E03CD7E
:10172000000A1FF801489DFFFFFFFFFFA90FFC40C3
:1017300016005C479CAE02CB00A1484528528F8A18
:1017400050A41E15A1484528AA221455118AAA089A
:1017500045558422F5A808452A425115A1A88A506A
:10176000544528AA221455118AD4A32214A9084545
:101770005584A22A425115A1085D14906E03CDE054
:101780000F4CE9FCFFFFFFFF2F7DE007345E1B9746
:10179000E2F2CB27690B5B56939E8304A4200321BE
:1017A0004739C6718E80A0035F0A6501EECAE03F2B
:1017B000E0016012CE82DFCBE040C739D00919C901
:1017C000848C64026160218B02D32BA94F8CDED400
:1017D000AA75A50C2D6339494A0CB210832CC41C80
:1017E000ED30473BCCD10E73B4439F32721556A9EE
:1017F0002B61283B9AD90A57947514A41D047107CC
:1018000041DC418E7790E31DE4780741DC419096FE
:101810001064296429CFF8C4373CD295491C0722AB
:10182000465AD4006241DD8E02CBE0B0E7FF478E1E
:101830007584065D062B19D1C6269AB18805252127
:1018400059484818D420E73CF7FFEF3DEE69118B6B
:101850001612169484662C6213DAC808562E738406
:10186000061D045100633D1D8B02CBEB988D8BD67A
:1018700094AA73958C2C63190A4A04B2108130A87B
:1018800041CE792E7BFEBFE7BCC73D0D0908430260
:10189000B210A1A064AC4856AE53A56945AE998874
:1018A00002006443DD8E02CBF6FCFF16320ED484B8
:1018B000C35C0523D9D0C42696D104052901594912
:1018C0004018D420E73CF7FFEF3DEE69484018127E
:1018D000909504052962198DD88646B282990B35F8
:1018E000E158073900653E1D8B02CBEB988D8BD6F6
:1018F00094AA73958C2C63190A4A04B2108130A8FB
:1019000041CE79EEDE07FE67CFB34845DA60105668
:101910009044214241C95891AC5CA74AD38A5C33B8
:101920008F05006629DD8E02CBCFA80B741CC4A4E2
:1019300035252A25423988410E724EE838873DFF09
:101940007BDAD09F3AECF9FFFFBF07006760DD8EBE
:10195000C6CA4B4295B90A46B2A113CB5886721437
:10196000912844200C6A90739EDB7BDCD3908030FE
:1019700024240A110A4AC68A64E53A559A56B420C4
:10198000F6B88422F5B0278B54854A6B4A96C14835
:101990003636B18564450D72CE73DEE39E868424AF
:1019A000296113DBC8CA75AA3435E700682ADD8EC1
:1019B00002CBE0B0E7FF478E7584065D062B19D198
:1019C000C6269AB18805252159484818D420E73CF5
:1019D000F7FFFFFFBD036922CBAE02AB62380639C9
:1019E000578A0F060E72FEFFFFFF11642024114A72
:1019F000504432107214030D6A2A9612C7CC908894
:101A0000063CDE192C3EF8CCF1CEFFFFFFFFFFF7BE
:101A10001CF418C820211189A00DA940C7494C33D6
:101A200010006B76DD8E02CBE0B0E7FFE79E868488
:101A30008325E160883856228E858C4325E348094A
:101A40003912520E94940321E63889390E720E939E
:101A50009CA324E828483A48920E82A86324EA18F6
:101A6000C83A04C28E90B023242C62D29AD4A4A87F
:101A700044A50A310141CB40CE3212A314C4A44A7A
:101A8000729082A084202919C742C6B112713044D5
:101A90001C2C094743C2E1106C1DCF8E02ADE04003
:101AA000E7FFFFFFFFFF0F210741897182239AC1E2
:101AB00090A528E8006D86338B02F7E020C73BD65F
:101AC000119AD4A0AB44061B53C942453E108D0F5A
:101AD00048A219D358C4821C9484642D0B0909535D
:101AE00018D4920639C439EF78CE3B9EF38EE7BC0A
:101AF000E339EF78CE3B9EF38EE7BCE339EF78CE47
:101B00003B9EF38EE7BCE339EF78CE3B9EF38EE746
:101B1000BCE339EF78CE3B9EF38EE7BCE339EF7838
:101B2000CE3B9EF38EE7BCE339EF78CE3B9EF38E3F
:101B3000E7BCE339EF78CE3B9EF34E6E271D8B0258
:101B4000CBE020C73A42832E83958C686313CD582F
:101B5000C48292902C24240C6A90739EFBFFFFFF9A
:101B6000DE016F3A1D8B02CBEB988D8BD694AA7356
:101B7000958C2C63190A4A04B2108130A841CE79A1
:101B8000EEFFDF7BDCD390803024200B110A4AC6A5
:101B90008A64E53A559A56E49A8928007042DD8EA7
:101BA000C6CAE020C73A42832E83958C686313CD62
:101BB00058C48292902C24240C6A90739EFBFFF7E9
:101BC0001EF7B488450B090B4A423316B1096D6400
:101BD000042B973942830E82A8C39EFFCF02714324
:101BE000DD8EC6CAEB20076AC261AE82916C686264
:101BF00013CB6882829480AC24200C6A90739EFB85
:101C0000FFF71EF73424200C09C84A828214B18CD5
:101C1000466C432359C1CC859A702C641CF6FCFF9A
:101C200000721C168B02BDE02052F8C01F6884446D
:101C3000200399C721EE78E7FFFFFF7B007342196D
:101C40008B02C3E980CC7A5274A652114B2C6111DD
:101C5000C88912A49CE55A4F44241213F8AC2845B5
:101C6000484A3105B925261189CF725B4F8212127D
:101C7000909384D5B04655A613A58731EF480074DC
:101C800022D24E02ADE458E7FF3B1FF8030239D6DB
:101C9000F9FFFFDF4294929AD218E62C4849C93ADC
:101CA0000075281D8B02CBE078EEFFFFFF7B8F7B5A
:101CB0001A12108604642541418A584623B6A19120
:101CC000AC60E6424D38D6410E766E1D8B02CBE0FD
:101CD000788F7BDC118E8684A31DE2688740D82133
:101CE00010768C6321E3580739D641107510441DD6
:101CF000E5484839D2618E7418041D0641C7390E73
:101D0000724EE8380742CC811073A4A320E92887DB
:101D10003ACAA1107228841CEB18C83AC6C18E7149
:101D200030441C0C09483B02D28E70B8231CEEF5DF
:101D30009CD7C0B6C8200077C5338B02F7E078C7C0
:101D400073DEF19E9634241C2D6948385AD20E71E8
:101D5000B4A41DE2680A3B04B296858C632D0B196E
:101D6000C75AD6418EB5AC831C8B51074152939014
:101D700072A42621E5484D3ACC919A74982339E80B
:101D800030C8790E728EF31CE49CC2710E749C23D1
:101D90001CE740C73902620E8414242005494741DC
:101DA000C451907494631CE5504739C6510E759424
:101DB0006320E450C8405BC740C83190758CA31CB9
:101DC000E360C738CA310E768CA320E26048400A2F
:101DD00012907604C41C01694738CE110E7784E353
:101DE0001CE1704738CEE39EF33C0739AF490D6CD8
:101DF00052039BD4C0263591510C020078661D8B8E
:101E000002CB007147381A1210768C6321035147B8
:101E100039125210749CE3A0CC918E8224841CEB66
:101E200018C842C4D18E80B4E739AF894C5CA63261
:101E3000938AA20955E42219D840C73DEE08084309
:101E4000C4C18E8128841CEA280842CC818E831864
:101E5000041DE6480841D4418E8508841DE268903F
:101E60003B007974DD8EC6CAE360C740143210852A
:101E7000904321E4504739D4511084140421E640A2
:101E80008839D0710E741CE41C0731083A0C820E9C
:101E900073A4C31C0929474208A20E82A8831CEB25
:101EA00020C742C6B11081B04320EC10083BC4D11A
:101EB000907034C8BD9CF35CB00599C8922BA94CB6
:101EC000154D51A4A26B42415A211216AD68490C1E
:101ED000720E5CE811017A2B1D8B02CBE07F20A2F1
:101EE000C94CA632535399693499299ACC144D663A
:101EF0008A26334593999ACA4CA3C94CE807FE0336
:101F0000117B41D430E7CAAF68C74A949216C4A087
:101F100005292A592886B0A39DFFC710763044258D
:101F20004951C942D81011962C85250D694743DACD
:101F3000F9FF1AC210965ACA62109316A5ACA41DD6
:101F4000AF007C0B47F2E3CAE0FFFF81077D43D37C
:101F500030E7CA8078464356A294B4A045290B6165
:101F6000C842D8F9FF18B210862C84254B51093B82
:101F7000E0C00E952405250959884216B20E76FE5A
:101F8000DF4229242967410B5252A2906534E201B5
:101F90007E1AA0624ACB835806424C5338D237BAD5
:101FA0000209A52CE84844130A007F07000002CB71
:101FB0000000000000D094D0BED0B2D0B8D0B6D0CF
:101FC000B4D0B0D0BDD0B52E2E2E202020202000A1
:101FD000D0BB2FD18700D18700D0BAD0BC00D0BBF6
:101FE0000034323030306B6D2028D0A1D0BBD0B55A
:101FF000D0B420D181D0BCD18FD0BDD0B020D0BD45
:10200000D183D0BBD0B8D180D0B0D0B9D182D0B537
:1020100020D0B4D0B0D0BDD0BDD0B8D182D0B529F9
:1020200000D092D18AD0B7D0B4D183D188D0BDD0DE
:10203000B8D18FD18220D184D0B8D0BBD182D18AFF
:10204000D18020D181D0B520D181D0BCD0B5D0BD38
:10205000D18F20D0BDD0B020D0BDD0B0D0B4002022
:10206000D09DD0A3D096D09DD09020D0A1D09CD090
:10207000AFD09DD09020D092D0AAD097D094D0A3AA
:10208000D0A8D095D09D2FD09CD090D0A1D09BD05F
:1020900095D09D20D0A4D098D09BD0A2D0AAD0A07B
:1020A0002000D0B520D0B7D0B020D181D0BCD18F06
:1020B000D0BDD0B0202838353030306B6D2B2900A2
:1020C000D090D0BDD0B3D180D0B5D0BDD0B0D0B637
:1020D000D0B5D0BDD0B8D18FD18220D180D0B5D0ED
:1020E000BCD18AD0BA00D090D09DD093D0A0D0954A
:1020F000D09DD090D096D095D09D20D0A0D095D016
:102100009CD0AAD09A00D097D0B0D0B4D0BDD0B8CF
:1021100020D181D0B2D0B5D182D0BBD0B8D0BDD083
:10212000B82000D09FD180D0B5D0B4D0BDD0B820D9
:10213000D181D0B2D0B5D182D0BBD0B8D0BDD0B8CB
:1021400000D09DD0B5D180D0B0D0B1D0BED182D09A
:10215000B5D189D0B020D0BAD180D183D188D0BABE
:10216000D0B020D0B23A00D098D097D093D09ED0A3
:10217000A0D0AFD09BD09020D09AD0A0D0A3D0A890
:10218000D09AD09000D09CD0BED0BBD18F20D0BFF1
:10219000D180D0BED0B2D0B5D180D0B5D182D0B5AB
:1021A0002E00D09DD0B8D0B2D0BE20D0B520D0BFA8
:1021B000D0BE2DD0BCD0B0D0BBD0BAD0BE20D0BE07
:1021C000D1822032352500D0A2D095D0A7D09DD085
:1021D0009ED0A1D0A220D097D09020D0A7D098D0C8
:1021E000A1D0A2D090D0A7D09AD09800D0BDD0B026
:1021F00020D0B4D0B2D0B8D0B3D0B0D182D0B5D086
:10220000BBD18F20D0B520D0B2D0B8D181D0BED034
:10221000BAD0B02100D0A2D0B5D0BCD0BFD0B5D1FB
:1022200080D0B0D182D183D180D0B0D182D0B02043
:1022300000D09ED09FD090D0A1D09DD09ED0A12084
:10224000D09FD0A0D095D093D0A0D0AFD092D09036
:10225000D09DD09500D0BED185D0BBD0B0D0B4D069
:10226000B8D182D0B5D0BBD0BDD0B020D182D0B54E
:10227000D187D0BDD0BED181D18200D09FD180D0B6
:10228000BED0B2D0B5D180D0B5D182D0B520D0BD2E
:10229000D0B8D0B2D0BED182D0BE20D0BDD0B00098
:1022A000D09ED0A5D09BD090D094D098D0A2D095DD
:1022B000D09BD09DD09020D0A1D098D0A1D0A2D03A
:1022C00095D09CD09000D0BFD180D0B5D0B4D0BD37
:1022D000D0B8D182D0B520D181D0BFD0B8D180D0F4
:1022E000B0D187D0BAD0B82E202000D098D0B7D0A7
:1022F000BDD0BED181D0B2D0B0D0BDD0B520D0BD80
:10230000D0B02000D0A1D09FD098D0A0D090D0A79E
:10231000D09DD09020D0A1D098D0A1D0A2D095D0DF
:102320009CD09000D0BDD0B520D0B520D180D0B009
:10233000D0B1D0BED182D0BDD0B820D0B3D180D062
:10234000B0D0BDD0B8D186D0B800D09DD0B0D0BF6D
:10235000D180D0B5D0B6D0B5D0BDD0B8D0B520D012
:10236000BED1823A2000D095D09B2E20D0A1D0980B
:10237000D0A1D0A2D095D09CD09000D0BCD0BED15E
:1023800082D0BED180D0BDD0BED182D0BE20D0BC44
:10239000D0B0D181D0BBD0BE00D09FD180D0BED034
:1023A000B2D0B5D180D0B5D182D0B520D0BDD0B813
:1023B000D0B2D0BED182D0BE20D0BDD0B000D0A18E
:1023C000D09CD090D097D09ED0A7D09DD09020D038
:1023D000A1D098D0A1D0A2D095D09CD09000D0A868
:1023E000D0BED184D0B8D180D0B0D0B9D182D0B550
:1023F00020D0B2D0BDD0B8D0BCD0B0D182D0B5D072
:10240000BBD0BDD0BE002000D097D090D09BD0953F
:10241000D094D0AFD092D090D09DD098D0AF20D0D3
:102420009FD09E20D09FD0AAD0A2D0AF0020D09D18
:10243000D0B5D0B8D0B7D0BFD180D0B0D0B2D0BD99
:10244000D0BED181D18220D0BDD0B020D0BAD18031
:10245000D183D188D0BAD0B00020D0A1D18AD0BD4C
:10246000D0BBD0B8D0B2D0BED181D18220D0B7D02D
:10247000B0D181D0B5D187D0B5D0BDD0B00020D0FB
:102480009DD0B0D0BFD180D0B0D0B2D0B5D182D0A5
:10249000B520D0BFD0BED187D0B8D0B2D0BAD0B0DE
:1024A00000D098D0B7D0BFD0BED0BBD0B7D0B2D0BC
:1024B000B0D0B9D182D0B520D181D0BFD0B8D18031
:1024C000D0B0D187D0BAD0B0D182D0B020D0B7D0E0
:1024D000B020D0BAD180D0B0D0B900D098D0B7D089
:1024E000B3D0B0D181D0B5D182D0B5D0B4D0B2D034
:1024F000B8D0B3D0B0D182D0B5D0BBD18F20D0B7B7
:10250000D0B020D0B7D0B0D0BFD0B0D0B7D0B2D03C
:10251000B0D0BDD0B52E00D0A0D095D097D0A3D04C
:102520009BD0A2D090D0A200D09AD09ED09DD0A116
:10253000D0A3D09CD090D0A6D098D0AF00D09ED0C1
:1025400094D09ED09CD095D0A2D0AAD0A000D09EEE
:10255000D091D09ED0A0D09ED0A2D09820D0922052
:10256000D09CD098D09D2E00D0A1D09AD09ED0A043
:10257000D09ED0A1D0A220D09DD09020D09AD09E25
:10258000D09BD09020535045454400D098D0B7D030
:10259000BFD0BED0BBD0B7D0B2D0B0D0B9202252BD
:1025A0003C2220D0B7D0B020D0BFD180D0BED0BC8C
:1025B000D18FD0BDD0B000D098D0B7D0BFD0BED0D2
:1025C000BBD0B7D0B2D0B0D0B92022533C2220D05B
:1025D000B7D0B020D0BDD0B0D0B2D0B8D0B3D0B08A
:1025E000D186D0B8D18F2000D09DD0B0D182D0B8C4
:1025F000D181D0BDD0B5D182D0B52022533C22208C
:10260000D0B7D0B020D0BFD180D0BED0BCD18FD079
:10261000BDD0B00041726475696E6F4D494420D0E1
:10262000B2D0B5D180D181D0B8D18F2000D097D091
:10263000B020D0BDD0BED0B2D0B820D0B2D0B5D1AD
:1026400080D181D0B8D0B83A207777772E67697477
:102650002E696F2F76486C6B6400D097D0B0D0B4E1
:10266000D180D18AD0B6D182D0B5203E5220D0B808
:1026700020D0BDD0B0D182D0B8D181D0BDD0B5D11D
:1026800082D0B520D181D0BFD0B8D180D0B0D18791
:10269000D0BAD0B0D182D0B02000D097D0B020D066
:1026A000BDD183D0BBD0B8D180D0B0D0BDD0B52003
:1026B000D0BDD0B020D0BFD18AD182D183D0B2D00A
:1026C000B0D0BDD0B5D182D0BE00D097D090D0923E
:1026D000D09ED094D0A1D09AD09800D0A2D095D03E
:1026E0009AD0A3D0A9D09E00D09DD090D0A1D0A246
:1026F000D0A0D09ED099D09AD09800D098D09DD01C
:10270000A1D0A2D0A3D09CD095D09DD0A2D098002B
:10271000D09ED0A2D09DD09ED0A1D09DD09E00D0E2
:102720009ED091D0A1D09BD0A3D096D092D090D063
:102730009DD09500D093D09ED0A0D098D092D0902C
:1027400000D09FD0AAD0A2D0A3D092D090D09DD0BC
:1027500098D0AF00D09DD090D0A7D090D09BD09EE5
:1027600000D098D0B7D0B3D0BED180D0B5D0BBD038
:10277000B800D098D0B7D0BDD0BED181D0B5D0BD33
:10278000D0B800D09FD0BED0B42032352500D09430
:10279000D0BED0B1D180D0B500D09DD0B8D0B2D00D
:1027A000BE20D0BCD0BED182D0BED180D0BDD0BEE4
:1027B0002020D0BCD0B0D181D0BBD0BE3A2000D038
:1027C000A2D0B5D187D0BDD0BED181D18220D0B723
:1027D000D0B020D187D0B8D181D182D0B0D187D02C
:1027E000BAD0B83A2000D09ED185D0BBD0B0D0B4FA
:1027F000D0B8D182D0B5D0BBD0BDD0B020D182D09E
:10280000B5D187D0BDD0BED181D1823A2000D09F32
:10281000D180D0B5D0B4D0BDD0B820D0BDD0B020FC
:10282000D181D0BFD0B8D180D0B0D187D0BAD0B804
:102830003A2000D09FD180D0B5D185D0BED0B42071
:1028400000D0B4D0BE20D181D0BBD0B5D0B4D0B2EE
:10285000D0B0D189D0B8D18F20D0BFD18AD1822138
:1028600000006128412833280E28E627BF27992732
:102870008E278327722761275427412734271F2754
:102880001027FB26E826DB26CA269A265A262D265E
:102890001426E825B7258B2568254E253D252825B6
:1028A0001725DB24A1247E2459242D240824062462
:1028B000DE23BE2399237B2366234A232423042378
:1028C000EB22C622A0227B22552231221522EC21A6
:1028D000C721A22185216721412123210621E6204C
:1028E000C020A2205F202120E11FDE1FD91FD61F9C
:1028F000D01FB51F1800300060006C00E600F30226
:10290000BF038F03C701D600E00070003002300320
:10291000F803EC0136001B000D000700000000006A
:1029200000000000000000000000000000000000A7
:102930000000000000000000000000000000000097
:102940000000000000000000000000000000000087
:102950000000000000000000000000000000000077
:102960000000000000000000000000000000000067
:1029700000000000000000000000E0FF0700000071
:102980000000000000E0FF07000000000000000061
:10299000E0FF07000000000000000080C30100000D
:1029A00000000000000080C30100000000000000E3
:1029B0000080C30100000000F8FFFFFFFFC37F009D
:1029C000000000F8FFFFFFFFC37F00000000F8FFDA
:1029D000FFFFFFC37F00000000F8FFFFFFFFC37F82
:1029E00000000000380000000000780000000038FF
:1029F000000000000078000000803F0000000000A0
:102A000078000000803F0000000000780000008097
:102A10003F000000000078000000803F0000000040
:102A200000780000000000000000000078000000B6
:102A30000000000000000078000000803F0000005F
:102A4000000078000000803F0000000000780000D7
:102A500000803F000000000078000000803F000080
:102A6000000000780000000038000000000078003E
:102A7000000000380000000000780000000038006E
:102A8000000000007800000000380000000000781E
:102A9000000000003800000000007800000000384E
:102AA0000000000000780000000038000000000076
:102AB00078000000003800000000007800000000EE
:102AC0003800000000007800000000380CC000044E
:102AD000407800000000381EE0010EE078000000A1
:102AE00000383FF0031FF07900000000B87FF8873E
:102AF0003FF87B00000000F8FFFFFFFFFF7F0000B2
:102B00000000F8FFFFFFFFFF7F00000000F8FFFF5D
:102B1000FFFFFF7F00000000F8FFFFFFFFFF7F00C7
:102B2000000000F8FFFFFFFFFF7F00000000F8FF3C
:102B3000FFFFFFFF7F00000000F8FFFFFFFFFF7FA8
:102B400000000000F8FFFFFFFFFF7F00000000F81B
:102B5000FFFFFFFFFF7F00000000F8FFFFFFFFFF08
:102B60007F00000000F8FFFFFFFFFF7F0000000074
:102B7000F8FFFFFFFFFF7F000000000000000000E3
:102B80000000000000000000000000000000000045
:102B90000000000000000000000000000000000035
:102BA0000000000000000000000000000000000025
:102BB0000000000000000000000000000000000015
:102BC0000000000000000000000000000000000005
:102BD000000000000000000000000000560000009F
:102BE00000000000000000000000000000000000E5
:102BF00000000000000000000000000000000000D5
:102C000000000000000000000000000000000000C4
:102C100000000000000000000000000000000000B4
:102C200000000000000000000000000000000000A4
:102C30000000000000000000000000000000000094
:102C40000000000000000000000000000000000084
:102C5000000000000000000000F07F0000C0FF0145
:102C600000000000F07F0000C0FF0100000000F045
:102C70007F0000C0FF0100000000F07F0000C0FFE7
:102C80000100000000F07F0000C0FF01000000FE16
:102C9000FFFFFFFFFFFFFF1F0000FEFFFFFFFFFF23
:102CA000FFFF1F0000FEFFFFFFFFFFFFFF1F0000F1
:102CB000FEFFFFFFFFFFFFFF1F0000FEFFFFFFFF04
:102CC000FFFFFF1F0000FEFFFFFFFFFFFFFF1F00D2
:102CD000003E000000000000001F00003E00000059
:102CE000000000001F00003E000000000000001F68
:102CF00000003E000000000000001F00003E000039
:102D000000000000001F00003E0000000000000066
:102D10001F00003E000000000000001F00003E00F9
:102D2000000000001E001F00003E00000000001E0A
:102D3000001F00003E00000000001E001F00003EBB
:102D400000000000001E001F00003E000000000008
:102D50001E001F00003EF8FF0000F0FF031F0000F0
:102D60003EF8FF0000F0FF031F00003EF8FF0000E8
:102D7000F0FF031F00003EF8FF0000F0FF031F00FC
:102D8000003E00000000001E001F00003E0000008A
:102D900000001E001F00003E00000000001E001F7B
:102DA00000003E00000000001E001F00003E00006A
:102DB0000000001E001F00003E0000000000000098
:102DC0001F00003E000000000000001F00003E0049
:102DD0000000000000001F00003E00000000000096
:102DE000001F00003E000000000000001F00003E29
:102DF000000000000000001F0000FEFFFFFFFFFFBB
:102E0000FFFF1F0000FEFFFFFFFFFFFFFF1F00008F
:102E1000FEFFFFFFFFFFFFFF1F0000FEFFFFFFFFA2
:102E2000FFFFFF1F0000FEFFFFFFFFFFFFFF1F0070
:102E300000FEFFFFFFFFFFFFFF1F0000000000007C
:102E40000000000000000000000000000000000082
:102E50000000000000000000000000000000000072
:102E60000000000000000000000000000000000062
:102E70000000000000000000000000000000000052
:102E80000000000000000000000000000000000042
:102E90000000000000000000000000000000000032
:102EA0000000000000000000000000000000000022
:102EB0000000000000000000000000000000000012
:102EC0000000000000000000000000000000000002
:102ED00000000000000000000000000000000000F2
:102EE00000000000000000000000000000000000E2
:102EF00000000000000000000000000000000000D2
:102F0000000000000000000000000000000000C001
:102F1000FF030000000000001E00C0FF07000000CB
:102F2000000000FE00C0FF07000000600000FF0777
:102F3000C0FF07000000FC0000FF3FC0FF030000CF
:102F400080FF0000FFFF00FE000000C0FF0080DFE8
:102F5000FF03FE000000FCFF00801FFF03FE0000D7
:102F600080FF7F00800FFCFFFF7F00F0FF0F00C09D
:102F70000FE0FFFFFF01FEFF0300C03FE0FFFFFF88
:102F8000C3FFFF0300C0FFE0FFFFFFFBFFFF0100E7
:102F9000C0FFF3FFFFFFFFFFFE000000FFFFFFFF8A
:102FA000FFFF0F7F000000F8FF070080FF813F0058
:102FB0000000C0FF0700003F801F00000000FE0768
:102FC000000006C00F00000000F007000000E0074E
:102FD00000010000E007000000F00300010000E035
:102FE00007000000F80380030000E007000000FC79
:102FF0000180030000E007000000FC0080030000E7
:10300000E007000000FE00C0070000E0070000002D
:103010007F00C0070000E0070000803F00C00700FD
:1030200000E0FFFFFFFF1F00C0070000E0FFFFFF01
:10303000FF0F0080030000E0FFFFFFFF070000001C
:103040000000C0FFFFFFFF030000000000C0FFFF03
:10305000FFFF03000000000000000000000000006F
:103060000000000000000000000000000000000060
:103070000000000000000000000000000000000050
:103080000000000000000000000000000000000040
:103090000000000000000000000000000000000030
:1030A000000000000000000000000000000000F030
:1030B000017C001FC007F0010000FC0FFFC3FFF000
:1030C0003FFC0F0000FFFFFFFFFFFFFFFF3F00007F
:1030D000FFFFFFFFFFFFFFFF3F0000FFFFFFFFFFBE
:1030E000FFFFFF3F0000FFFFFFFFFFFFFFFF3F006D
:1030F0000007F0017C001FC0073000000000000046
:1031000000000000000000000000000000000000BF
:1031100000000000000000000000000000000000AF
:10312000000000000000000000000000000000009F
:10313000000000000000000000000000000000008F
:10314000000000000000000000000000000000007F
:10315000000000000000000000000000000000006F
:10316000000000000000000000000000000000005F
:10317000000000000000000000000000000000004F
:10318000000000FCFF000000000000000000FEFF47
:10319000010000000000001800FEFF0160000000B8
:1031A00000003C001EE001F000000000007E001E58
:1031B000E001F80100000000FC001EE001FC00003E
:1031C000000000F8011EE0017E0000000000F00396
:1031D0003EF0013F0000000000E001FEFF011E0084
:1031E00000000000C000FEFF010C00000000000015
:1031F000C0FFFF0F00000000000000E0FFFF1F0005
:10320000000000000000F0FFFF3F00000000000091
:1032100000F81FE07F00000000000000FC0780FFB6
:1032200000000000000000FC0100FE0000000000A3
:103230000000FE0000FC010000000000007F000311
:10324000F8030000000000003F8007F003000000CA
:103250000000801FC00FE0070000000000801FC0BA
:103260000FE0070000000000C00FC00FC00F0000FB
:10327000000000C00FC00FC00F0000000000C00F12
:103280008007C00F00000000FFC1078007800FFE0D
:10329000030000FFC1078007800FFE030000FFC18D
:1032A000078007800FFE030000FFC1070003800FA7
:1032B000FE030000FFC1070003800FFE03000000B3
:1032C000C0070003800F0000000000C00F0003C013
:1032D0000F0000000000C00F0003C00F000000003E
:1032E00000800F0000C0070000000000801F0000E9
:1032F000E0070000000000001F0000E003000000E5
:103300000000003F0003F0030000000000007E000A
:1033100003F801000000000000FE0000FC010000B6
:1033200000000000FC0300FF00000000000000F8A7
:103330000FC07F00000000000000F03FF03F0000E1
:103340000000000000F0FFFF3F0000000000004010
:10335000C0FFFF0F080000000000E000FFFF031C9B
:103360000000000000F001FEFF013E000000000030
:10337000F801E01F007E0000000000FC00000000DB
:10338000FC00000000007E00000000F801000000CA
:10339000003E00000000F001000000001C000000E2
:1033A00000E000000000000800800700400000006E
:1033B0000000000080070000000000000000008006
:1033C000070000000000000000008007000000006F
:1033D0000000000000800700000000000000000066
:1033E00080070000000000000000008007000000CF
:1033F0000000000000008007000000000000000046
:103400000080070000000000000000000000000035
:1034100000000000000000000000000000000000AC
:10342000000000000000000000000000000000009C
:10343000000000000000000000000000000000008C
:10344000000000000000000000000000000000007C
:10345000000000000000000000000000000000006C
:10346000000000000000000000000000000000005C
:1034700000000000000000000000F0FF000000005D
:103480000000001800FEFF078001000000003C80E3
:10349000FFFF1FC003000000007CE0FFFF7FE00390
:1034A000000000003EF8FFFFFFC107000000001F02
:1034B000FC1F80FF830F000000801FFE0300FC87BD
:1034C0001F000000800FFE0100F8071F000000C071
:1034D000077F0000E00F3E000000C0873F000FC0E4
:1034E0001F3E000000E0C31F000F803F7C00000073
:1034F000E0C30F000F003F7C000000F0E107000F69
:10350000007EF8000000F0E103000F007CF80000EE
:1035100000F8F003000F00FCF001000078F001005B
:103520000F00F8E001000078F800000F00F0E10162
:10353000000078F800000F00F0E101000078F800CA
:10354000000F00F0E101000038F800000F00F0C1AA
:103550000100003C7800000F00E0C10300003C784F
:1035600000000F00E0C10300003C7800000F00E005
:10357000C10300003C7800000F00E0C10300003CE4
:103580007800000F00E0C10300003C7800000F004D
:10359000E0C10300003C7800000F00E0C103000020
:1035A0003CF800000F00F0C10300003CF800000FE1
:1035B00000F0C103000038F800000F00F0C1010066
:1035C0000078F800000F00F0E101000078F0010041
:1035D0000000F8E001000078F001000000F8E001D0
:1035E0000000F0F003000000FCF0000000F0E10734
:1035F0000006007EF8000000F0E107000F007EF8F2
:10360000000000E0C30F801F003F7C000000E0834B
:103610001F801F801F7C000000C0873F000FC01F5D
:103620003E000000C0077F0006E00F3E000000C023
:103630000FFE0100F8073F000000801FFC0700FE9E
:10364000831F000000003FF87FE0FFC10F00000073
:10365000003EF0FFFFFFC007000000007CC0FFFF3E
:103660003FE003000000003880FFFF1FC0010000A2
:1036700000001800FCFF0380010000000000008033
:103680001F0000000000000000000000000000001B
:10369000000000000000000000000000000000002A
:1036A000000000000000000000000000000000001A
:1036B000000000000000000000000000000000000A
:1036C00000000000000000000000000000000000FA
:1036D00000000000000000000000000000000000EA
:1036E00000000000000000000000000000000000DA
:1036F00000000000000000000000000000000000CA
:1037000000000000000000000000000000000000B9
:1037100000000000000000000000000000000000A9
:1037200000000000001F00000000000000000080FA
:103730003F000000000000000000803F000000008B
:103740000000000000803F000000000000000000BA
:10375000803F000000000000000000803F000000EB
:10376000000000000000803F00000000000000009A
:103770000080FFFF030000000000000080FFFF0347
:103780000000000000000080FFFF030000000000B8
:10379000000080FFFF0300000000000000803F00E9
:1037A0000000000000000000803F0000000000005A
:1037B000000000803F000000000000000000803F8B
:1037C00000000000000000000080FFFF0300000078
:1037D0000000000080FFFF030000000000000080E8
:1037E000FFFF030000000000000080FFFF03000057
:1037F0000000000000803F0000000000000000000A
:10380000803F000000000000000000803F0000003A
:10381000000000000000803F0000000000000000E9
:1038200000803F00000000000000000080FFFF0358
:103830000000000000000080FFFF03000000000007
:10384000000080FFFF030000000000000080FFFF79
:103850000300000000000000803F000000000000A6
:10386000000000803F000000000000000000803FDA
:10387000000000000000000000803F000000000089
:1038800000000000C07F000000000000E07C00C0DD
:103890007F00C0E7000000FCFF07E0FF00FCFF071F
:1038A0000000FCFF7FE0FFC0FFFF070000FCFFFF00
:1038B000E0FFE0FFFF070000F88FFFC07FE03FFE62
:1038C0000300000000F8C07FE003000000000000DB
:1038D00000803F000000000000000000000E00001B
:1038E00000000000000000000000000000000000D8
:1038F00000000000000000000000000000000000C8
:1039000000000000000004000000000004000000AF
:10391000001E001E000F000F000000003E807FC050
:103920003F800F00000000FCE0FFFFFFE007000009
:103930000000F8FFFFFFFFFF0300000000F0FFF3AF
:10394000FFF9FF0100000000C07FC07FC07F0000C2
:10395000000000001F803F001F000000000000006A
:10396000000E000000000000000000000000000049
:103970000000000000000000000000000000000047
:103980000000000000000000000000000000000037
:103990000000000000000000000000000000000027
:1039A0000000000000000000000000000000000017
:1039B0000000000000000000000000000000000007
:1039C0000000000000000000000000000000707017
:1039D000000000000000000008707080000000007F
:1039E0000000001C78F0C0010000000000003E3C18
:1039F000E0E1030000000000003C3CE0E1010000C9
:103A0000000000007C1EC0F30100000000000078F0
:103A10001EC0F300000000000000F00F807F0000D7
:103A20000000000000F00F807F000000000000F0A8
:103A3000FF0700FF7F0000000000F8FF0300FEFF0B
:103A40000000000000F8FF0300FEFF00000000007F
:103A5000F0FF0700FF7F0000000000008007000F5C
:103A600000000000000000000F80070000000000C0
:103A70000000000F800700000000000000001EC0D2
:103A80000300000000000003001EC0030006000049
:103A9000008003003CE001000E0000008007007C75
:103AA000F001000F000000000F0078F00080070018
:103AB0000000000F00F8F8008007000000001F0061
:103AC000F07800C007000000001E00F07D00C00379
:103AD000000000003E00E03F00E003000000003C6A
:103AE00000E03F00E001000000007C00C01F00F08B
:103AF00001000000F8FFFFFFFFFFFFFF000000F8DC
:103B0000FFFFFFFFFFFFFF000000F8FFFFFFFFFFC9
:103B1000FFFF000000F8FFFFFFFFFFFFFF000000B6
:103B2000007C00E03F00F001000000003E00E03FAC
:103B300000E003000000001E00F07D00C003000054
:103B400000001F00F07800C007000000000F0078A0
:103B5000F0008007000000800F0078F000800F0068
:103B600000008007003CE001000F000000C00300DF
:103B70003EE003001E0000008001001EC003000C98
:103B80000000000000000F8007000000000000009F
:103B9000000F8007000000000000008007000F00F9
:103BA000000000000000C007001F0000000000002F
:103BB000F8FF0300FEFF0000000000F8FF0300FE16
:103BC000FF0000000000F8FF0300FEFF00000000FF
:103BD0000000F80700FF00000000000000F80700E8
:103BE000FF00000000000000780F80F700000000D8
:103BF0000000003C0E80E3010000000000003C1EBD
:103C0000C0E3010000000000001E3CE0C103000012
:103C1000000000001E3CE0C1030000000000000C9A
:103C200078F080010000000000000038E000000093
:103C30000000000000001040000000000000000034
:103C40000000000000000000000000000000000074
:103C50000000000000000000000000000000000064
:103C60000000000000000000000000000000000054
:103C70000000000000000000000000000000000044
:103C80000000000000000000000000000000000034
:103C90000000000000000000000000000000000024
:103CA0000000000000000000000000000000E00133
:103CB000003C00000000000000FC39E0FC010000B6
:103CC00000000000FE79F0FC03000000000000FF8F
:103CD000F9F8FC070000000000001FF8FDC0070015
:103CE000000000000006F07F00030000000000401C
:103CF00000C01F00100000000000E001C01F003CD9
:103D00000000000000E001800F003C000000000007
:103D1000E0010007003C0000000000F0000000008F
:103D2000780000000000F000800F00780000000024
:103D3000000000800F000000000000000000C01F15
:103D4000000000000000000080FFFF0F00000000E6
:103D5000000000F8FFFFFF00000000000000FEFF71
:103D6000FFFF030000000000C0FF9FCFFF1F000007
:103D7000000000F0FF800FF87F0000000000F80F47
:103D8000000780FF0000000000FE03000000FE03AB
:103D9000000000007F00000000F007000000C03FAE
:103DA00000800F00E01F000000E00F00800F008087
:103DB0003F000000F00300800F00007E000000F8CC
:103DC0000100800F0000FC000000FC0000800F00DC
:103DD00000F80100007C0000800F0000F0010000EE
:103DE0007C0000800F0000F0010000FC0000800F4C
:103DF0000000F8010000F80100800F0000FC000046
:103E000000F00300000000007E000000E00700005A
:103E10000000003F000000C00F00800F00801F0066
:103E20000000801F00800F00C00F000000003F0056
:103E3000800F00E007000000007E00800F00F0030C
:103E400000000000FC00800F00F80100000000F8F6
:103E500001000000FC0000000000F0030000007EF4
:103E60000000000000E007800F003F00000000009D
:103E7000C00FF8FF801F0000000000801FFEFFC37E
:103E80000F000000000000BFFFFFEF070000000070
:103E90000000FEFFF8FF03000000000000FC0F80A0
:103EA000FF01000000000000F80300FE0000000019
:103EB000000000F001007C00000000000000E000B5
:103EC00000380000000000000000000000000000BA
:103ED00000000000000000000000000000000000E2
:103EE00000000000000000000000000000000000D2
:103EF00000000000000000000000000000000000C2
:103F000000000000000000000000000000000000B1
:103F100000000000000000000000000000000000A1
:103F200020002300260029002C002F003200000171
:103F3000000003010601090105050505070508083C
:103F40000808020202020A0A080804040404010123
:103F50000101010101010303030303030303040738
:103F600007070C0C0C0C0C0C0C0C020202020606CF
:103F70000606060606060B0B0B0B0B0B0B0B0102C2
:103F8000102020080810204010204080020102016B
:103F90000804020101020408102040808040201023
:103FA000080402018004020180402010080402017C
:103FB00008040201010204081020408001020408E4
:103FC00010204080002C122925120D00204552524D
:103FD0004F523A2043616E6E6F74207265736F6C3E
:103FE0007665207469746C6520696E64657800007C
:103FF0005EBCE2613FDD83C29C7E20A3FD1F419D2C
:10400000C3217FFCA2401E5F01E3BD3E6082DC2332
:104010007D9FC1421CFEA0E1BF5D0380DE3C62BE0D
:10402000E0025CDF81633D7C22C09E1D43A1FF4610
:1040300018FAA427799BC584DA3866E5BB5907DBF3
:10404000856739BAE406581947A5FB7826C49A65EE
:104050003BD987045AB8E6A7F91B45C6987A24F8D5
:10406000A6441A99C7257B3A6486D85B05E7B98CC4
:10407000D2306EEDB3510F4E10F2AC2F7193CD11C3
:104080004FADF3702ECC92D38D6F31B2EC0E50AF9A
:10409000F1134DCE90722C6D33D18F0C52B0EE32A5
:1040A0006C8ED0530DEFB1F0AE4C1291CF2D73CA80
:1040B000947628ABF517490856B4EA6937D58B577B
:1040C00009EBB536688AD495CB2977F4AA4816E966
:1040D000B7550B88D6346A2B7597C94A14F6A8745D
:1040E0002AC896154BA9F7B6E80A54D7896B35C587
:1040F00000030304040305051210FCFD09FD0AFE7C
:10410000018B0324097F20050084132107A2841357
:104110004F04220843AD15112D0123139784779185
:104120006024728A0423A14B62241889012413B6E7
:104130007C77318A243209D188B3882812218600FD
:104140002514988439A22CA190501207842342513F
:104150004A28490226109784382459443C938A6A95
:1041600034490500270641AD1304280DC4745412C8
:104170009144A437914C00290DC4731432914CA47E
:10418000179144042A0C55A5572929A34828120140
:104190002B0A559557C1502918022C084274131444
:1041A00009002D06149C15042E06228413042F0BDF
:1041B000B47C545A44BA889400300B968437141156
:1041C0003F4928003108938557918A3E320B9684E7
:1041D000379498509B3603330E96843794985069E1
:1041E0002A9C492800341097849752E12C220A898E
:1041F0004292A35402350F96845724999014120AC0
:1042000067120A00360C968477DA2A224E120A00C8
:10421000370E97841747A9502A940AA54200380EF2
:10422000968437141193842262925000390C96843C
:1042300037141127094D23003A0762841344023BC7
:1042400009827413448A04003C09559597218954C6
:104250001A3D07349D1744023E0A559517511551D2
:1042600010003F0FA5843693904C6932924364222C
:10427000004020CC6C9D55A53824149A844431917B
:104280002418930463929828129ACCE29058545AB6
:1042900004411199849971C0782A114A644A1729F6
:1042A0005500420D9784181619DB49C676880043DD
:1042B0000C97845824D95467598802440D9884195E
:1042C000269944C837890900450B96841787A06250
:1042D00045A868460C96841787A06245A811004738
:1042E0000F98845925E158C94894C8441500480BD3
:1042F000988419428E8722470149079284130F043C
:104300004A08948455FAA9024B12988419429A4497
:10431000A422234A6422358950004C08968417420F
:10432000FD684D159B845BD1A04CB6442151489249
:1043300089D28834A2C5044E1099841A616AD14684
:10434000119124346355004F0D99845A351529AFC6
:104350001299AC04500C9684171511D345A811007E
:10436000510FB9745A351529AF1299AC283E045231
:104370001297841825159144242949442A22894CEE
:1043800000530D96843714D970485C93500054093B
:1043900096841726A17E02550C988419427E948833
:1043A000642400561299841952AA442692A9082519
:1043B000D2F11C100457189B841CB2186924914C2C
:1043C000449289EC109B0C27D35838160358109947
:1043D000841952894C453A5E95C854A402590D98E7
:1043E00084194289481B55AC1B005A0C98843957D4
:1043F00065A9B2547A085B08A37C1415FD325C0CE5
:10440000B57B1432A14C6DA651265D08A37C141314
:10441000FD525E0B55A456B1482892260B5F061735
:10442000741707600723BD15220161096685384BA3
:104430009C2405620CA68518428D1511A70B0063FC
:104440000A64853695914A6400640AA68598BA9CE8
:1044500038490A650A6585371309C52224660CA503
:10446000847522351149A61300670C966D384B9C54
:1044700024C5D18402680BA68518428D15114F0200
:104480006908928413A443016A0AC46B53CA227D4B
:1044900051026B0DA68517429D2812924427016C8C
:1044A00007A284130F066D0E68851B17158A8422D8
:1044B000A148280A6E0966851815114F026F0B6610
:1044C0008538141127090500700C966D189189889C
:1044D000D345A808710A966D384B9C24450D720A85
:1044E000648515128A4813007309648536A5A50AE8
:1044F00000740B858455315145A6510275096685B6
:1045000018229E2405760D67841732899244369CC2
:10451000C600771069841AA2106522394D661261AF
:104520002C04780C6784173289DA702651137910BD
:10453000976C17328948A2461B0E854321007A0AE0
:10454000668417364599CC007B0CC47455129116BD
:10455000994837017C07D16D1307037D0DC474158D
:1045600032913689481711007E08269C37221500A3
:10457000A005008413A108926C13A44301A210A506
:104580007C76C1902522898C66A4600800A30D96D4
:104590008457235144283309950CA40855951736A0
:1045A0003503A50F9884194289481BCD28348A65A4
:1045B00000A607B175139502A713D66C5723514473
:1045C00038AA884812A5A14A483402A80825BC1573
:1045D000128A00A91599847A43992832C92A894AEE
:1045E000A291C8242413CE00AA0944AC36245164F5
:1045F00000AB0D568C5729A14828168A8502AC07B6
:10460000359D17C504AD06149C1504AE1599847A22
:1046100043992832494A118D4429D94232E10C008C
:10462000AF0617D41707B00A44AC35929028220180
:10463000B10B758D57C15029180714B20953A53510
:1046400099229101B30953A515B2486C02B407230E
:10465000BD351400B50B966D17229E0E434500B66E
:1046600018B7743787498412A14428A14930128CA5
:104670000423C148301201B706229C1304B8083342
:104680006D35A20900B90752A535930CBA0A44AC9E
:10469000359290282201BB0F568D17A15828168AF3
:1046A0008422A11000BC1599853BD1883096180B47
:1046B000861243C2485A88128D00BD1698853BC1A8
:1046C000882C29180A4642B15024148C0423C101B5
:1046D000BE169A841BD3602C260B8762A3D4903419
:1046E000921822452300BF0E956C563239443491FE
:1046F00029452600C014C9847972881C290E184FD8
:104700002542894CE922A50AC113C984B9623952EC
:104710001C309E4A841299D2454A15C215C9849903
:104720007140248E14078CA712A144A674915205DF
:10473000C315C984799260448E14078CA712A144D2
:10474000A674915205C415C9845912A1448E12074A
:104750008CA712A144A674915205C517D9849971EA
:1047600040240E88A3C501E3A9442891295DA454DF
:1047700001C60F9A859C363255229590146DDA0A3F
:10478000C70FC76C5824D954675988280ECA00C867
:104790000EC684375239E41054AC08150DC90DC645
:1047A0008477EA904350B1225434CA0FC68477C14B
:1047B000481C70082A56848A06CB0DC684373A1FD7
:1047C000828A15A1A201CC09C3831322A1447FCD03
:1047D00009C384334489FE02CE0AC38433D924FA40
:1047E0000B00CF0BC58313128A58A63F01D0129934
:1047F00083393625A1447892082542894C6402D138
:1048000014C9847A9260440E0D538B368A8824A191
:1048100019AB02D211C9847A72881CA1A622E5556F
:1048200022939500D310C984BA6239424D45CAAB70
:1048300044262B01D412C9849A7140248E5053917E
:10484000F22A91C94A00D512C9847A9260448E50E6
:104850005391F22A91C94A00D612C9845A12A1442E
:104860000EAEA9487995C8642500D70B559517B1A8
:10487000485A4A5A00D81599845A95884C22AC4512
:1048800048214AAC289149422400D90FC884597262
:10489000801C28E44789484602DA0EC884995239B8
:1048A00050C88F12918C04DB0FC88499E1481C26F4
:1048B000E44789484602DC10C884591299440E1214
:1048C000F2A344242301DD0FC8849952395045A432
:1048D0008D2AD60D00DE0C968417C28A88D345280F
:1048E00004DF0DA6853823895E2A224E1700E00CCE
:1048F00096853852396832E22429E10C968578EAA7
:10490000A0C98893A400E20C968578C1481CB2C463
:104910004952E30D968558921439648993A400E4B2
:104920000C968538BA0326234E9202E50EA68578AA
:10493000C148300E9A8C38490AE60E6A853C878851
:1049400048441231A98E08E70D946D3695914A645A
:10495000228B8800E80D95853742396022A1588462
:1049600004E90D95857722396022A1588404EA0E66
:10497000958557B1481C3091502C4202EB0D95851E
:1049800017128A7822A1588404EC0993831322A178
:10499000440FED0993843344895E00EE0993843318
:1049A000D9247A01EF0B958313128A58A62700F0B9
:1049B0000FA6855892982C12959C38492800F10D25
:1049C000968558921439A022E24900F20D96853856
:1049D00052398822E224A100F30C968578EA208AD5
:1049E00088938402F40E968578C1481C4211719216
:1049F0005000F50E9685589214398422E224A100C5
:104A0000F60D968538BA0328224E120A00F70C7666
:104A10008C574239C40E118A00F80A668538278AF5
:104A2000857401F90C968538523944C493A400FA70
:104A30000B968578EA10114F9202FB0C968578C18F
:104A4000481C20E24952FC0A9685383A8B78921429
:104A5000FD12C76C97EA2099442451A30D87C2A187
:104A60001000FE0ED66D18428D1511A78B50110047
:104A7000FF13C76C374A123944261149D468C3A1C1
:104A80007028040000010013B98479749438603CE4
:104A900095082532A58B942A01010C86853874C8A7
:104AA00012274901010215C98479A1B01C290E18E9
:104AB0004F2542894CE922A50A01030E968538A1AB
:104AC000981C3419719214010417C96C9971C0783B
:104AD0002A114A644A1729550E8803E2200101056C
:104AE0000C966D384B9C24C5640101060FC7849851
:104AF000EA40926CAAB32C440101071095857622F6
:104B000039602289C854421300010C11C78478917E
:104B1000681C48924D7596852800010D0C948536C9
:104B200049E1CA482532010E11C8845991701C6AA6
:104B30009249847C939800010F17A9859A12A14489
:104B4000280A4A4235914C2413C944C21A00011064
:104B5000139983393625A1447892082542894C64FB
:104B600002011113A78598525951541149441291C9
:104B70004424AA0001120EB6843774C021A858112B
:104B80002A1A01130C858537E489846211120116F3
:104B90000FC684574239E41054AC08150D01170EA6
:104BA00095855732396022A158840401180EC66CCD
:104BB0001787A06245A8684C1601190E966D372319
:104BC00089169294180D0B011A10C6845791601C17
:104BD00072082A56848A06011B0E9585376971C8AA
:104BE0004442B10809011E12B88479A1A8B0241C5E
:104BF0002B19891299A802011F12C66D38A1981CA1
:104C0000341971921447130A00012212C86C5925F5
:104C1000E158C94894C84475B03806012311C66DDF
:104C20005851396832E224298E261400012A0AB428
:104C300083135491FE02012B0A84831354915E0066
:104C4000012E0BC36C1312FD251413012F0BC36B24
:104C5000338A12BDA409013008B284131F02013146
:104C6000086284138702013616C86C19429A44A45C
:104C700022234A64223589500E140701013711D6C8
:104C80006D17429D28129244273944180301390CAC
:104C9000C68457323948A81F0D013A0AC384331419
:104CA000FD1700013B0DC66C1742FD6887086300C5
:104CB000013C0AD26C130FA60900013D0D96841722
:104CC00022B65144A8D100013E0DA5841512A64973
:104CD00044A6370001410E9783375295D8502A9C3D
:104CE0004A0D01420BA48333224D265D000143137C
:104CF000C984BA6239344C2DDA2822928466AC0A0F
:104D000001440C968578EA908A882701014515C9E7
:104D10006C1A616AD1461191243463550E96038250
:104D20000001460D966D1815114F72883006014727
:104D300015C9847A9138200E0E538B368A8824A1A7
:104D400019AB0201480D96855891601C5211F1244F
:104D5000014C10B9847A74704D45CAAB44262B01BE
:104D6000014D0D868538740845C449420101501330
:104D7000C9849A1299440EADA9487995C864250052
:104D800001511297855812ED20928A482292884448
:104D900024000152159D845E148B6C28154A85D21F
:104DA0008A5428551B530C01530F6A853CA389482C
:104DB000441231A98E08015415C784784239ACA435
:104DC000229288242589484524910901550C94850F
:104DD0005512A98422D204015616C76C18251591C4
:104DE00044242949442A22894C0E93C60001570DB8
:104DF000946D15128A483B401402015816C7845816
:104E000091681C5652114944929244A42292C804BB
:104E100001590D94853549510945A40900015A10DD
:104E2000C68477EA208A6C3824AE492800015B0BDF
:104E3000948556127169A902015E11C66C3714D9A6
:104E400070485C93D041C21800015F0B946D36A589
:104E5000A5B22804016012C6845791601C44910DCC
:104E600087C43509050001610C94853649E1D252A9
:104E7000050001620DC66C1726A17E87096300013B
:104E8000630FB56C55315145A6510E90C5000164B4
:104E90000EC6845791601C6212EA270001650EA6B7
:104EA00084954A9190AC24D42A02016A0FB884599F
:104EB0007498901F2522190900016B0C868538749F
:104EC0008088274901016E11D88499E148380E1471
:104ED000F2A344242301016F0EA68578C148300E49
:104EE00011F12429017011C884791291440E12F233
:104EF000A34424230101711397855812ED109144A6
:104F0000241149441291A802017210C86C19427E02
:104F100094886454711C2202017313976D182289BE
:104F200048229288242251351C0708017812C8842F
:104F3000591299440E124A44DAA862DD0001790F31
:104F4000C884B9EAC0ABB254592A3D04017A0C9620
:104F50008477EA109BA24C66017B10C88499623961
:104F6000F0AA2C55964A0F01017C0D9684574239C0
:104F7000C4A6289319017D11C8847991701C7A55B3
:104F8000962A4BA58700017E0E96845791601C627D
:104F90005394C90C01920ED76BB5425545A2AA464F
:104FA000550002C60723BD351902C70923BD159157
:104FB000140002C90714BC150402D80A24BC15A1A8
:104FC00088040002D90722BD150402DA0833BD3572
:104FD000B90002DB08336D35690202DC0825BC35F7
:104FE0005A0002DD0A26BC35128A04000384082315
:104FF000BD35140003850A37BB75224A4900038674
:105000001299843992A0643C95082532A58B942A84
:10501000038707229C13040388159A80379243481C
:105020000E9143E490AA1C2287C821060389169B8F
:105030008139448A502694096587985026940965D9
:105040004201038A0995813316997E038C159B8250
:105050003A929244A62A928AA422A9482A532D0160
:10506000038E159B81394492AA484C87C84172909F
:105070001C2407C900038F149B823A929244A62AEB
:10508000928AA422A9482A535B03900EA783742214
:105090004A490E92EA2C0203911299849971C078C0
:1050A0002A114A644A1729550003920E978418164C
:1050B00019DB49C676880003930A96841787A07E79
:1050C0000403941299849971C0782A114A644A326F
:1050D00089F44003950C96841787A06245A868035D
:1050E000960D9884395765A9B2547A0803970C989D
:1050F0008419428E8722470103981199845A3515E5
:1051000029CB844A95C86425000399089284130F1B
:1051100004039A13988419429A44A422234A6422CD
:1051200035895000039B1299849971C0782A114ADD
:10513000644A3289942A039C169B845BD1A04CB6A6
:10514000442151489289D28834A2C504039D119903
:10515000841A616AD14611912434635500039E0B71
:10516000978418772C752C07039F0E99845A351550
:1051700029AF1299AC0403A00A98841987217F14DF
:1051800003A10D9684171511D345A8110003A3118F
:1051900098841887881C2007C80152AD870003A493
:1051A0000A96841726A17E0203A50E9884194289C7
:1051B000481B55AC1B0003A6129A849A629B449329
:1051C000882422A968330B0103A7119984195289F5
:1051D0004C453A5E95C854A40203A8149A841B2235
:1051E00011494412914424156D6639440803A90EEF
:1051F00099845A351529AF1299643603AA0CC583D0
:1052000014128A58A63F0103AB12C884591299445C
:105210000E124A44DAA862DD0003AC0C968578EAE7
:10522000A01327490103AD119585762239602289A3
:105230008C6492D0040003AE0DC66D78EA908A8823
:1052400027A10603AF0A93853444894E0203B015A3
:10525000A78578224A490E104944129144241189A5
:10526000480003B10A668538274E920203B20FD573
:105270006D3713098B45C2C522530303B30D966CDA
:10528000172292844413EA0403B40FA6855814A18C
:105290005446117192500003B50B648536158A4847
:1052A000121903B60FB4751624894822D2369248D3
:1052B0000003B70B966D1815114F420D03B80EA5DC
:1052C00085371309CB41C245320103B909638514FF
:1052D000129D0403BA0D668517228A8424D14900E1
:1052E00003BB1097843752B1543A9C49441235019C
:1052F00003BC0C966D18229E0E43450003BD0E673D
:10530000841732899244369CC60003BE11C5755677
:10531000134944269BC834D244120003BF0C66854F
:105320003814112709050003C00E67851817258951
:10533000482292881403C10D966D381411A78B5022
:10534000110003C20C847536256D2389040003C344
:10535000106785388790442411494422120003C401
:105360000A6484151491360103C50B668518229EC4
:1053700024140003C613D86C78628D16158A842213
:10538000A1A818C56A0003C711976C173289924407
:10539000365C9388246A0203C815D86C79626D1252
:1053A0000945429150241415A3580D0003C91068F3
:1053B000853A22899022A148289A240003CA0D9593
:1053C0008414128A58A6A3040003CB0C9685383A9D
:1053D0008B7892500003CC0D968578EA208A8893CA
:1053E000840203CD0D968578EA10114F120A00034E
:1053F000CE1398859A523954241152241409459396
:10540000040004010EC684373A1F828A15A1A20146
:1054100004021599841A5639400E90CC466A229996
:105420004826924C0004030CC68477EA9043503F10
:105430000204041097845824D9546A918A65210A79
:105440000004050E96843714D970485C935000040C
:1054500006089284130F0404070CC58313128A589C
:10546000A63F01040809948455FAA9020409189C6E
:10547000843D5799542695496525994822134964D6
:1054800022620500040A179B841C32A14C2813CA0F
:105490008487894C4413D144B40A00040B139984C3
:1054A0001A5639400EB029C94432914C2413040CC9
:1054B00015C884995239502611E922234A642235AD
:1054C000895000040E12C88459A972A08A481B751D
:1054D0002A960AA700040F0DB8741942FE7898495D
:1054E000850004101299849971C0782A114A644A7F
:1054F0001729550004110E97841816A9AA45C676D7
:10550000880004120E9784181619DB49C6768800A5
:1055100004130A96841787A07E0404140FB8743904
:1055200026FD7F39CC2431110004150C9684178791
:10553000A06245A8680416189E843EC29892A248AC
:1055400055A20EB00324AA22352DC2A80004170FBD
:10555000968437949850692A9C4928000418119918
:10556000841AE229B166925044B6225500041914F7
:10557000C9847AA1B01C2A9E126B260945642B525D
:1055800005041A129884193289481719512213A94F
:10559000498402041B14988439179944269149645C
:1055A00012994426911105041C169B845BD1A04CD2
:1055B000B6442151489289D28834A2C504041D0CF6
:1055C000988419428E87224701041E0E99845A3509
:1055D0001529AF1299AC04041F0A98841987217FFA
:1055E0001404200D9684171511D345A81100042129
:1055F0000D97845824D9546759880204220A968446
:105600001726A17E020423109884194289481B752D
:105610002A960AA7000424129A849A629B449388CB
:105620002422A968330B0104251199841952894C4D
:10563000453A5E95C854A402042618B974194289E3
:1056400050229408254289502294082507B112005F
:1056500004270B97841832DE24560D0428169A85E9
:105660001C22114944129144241149441291448747
:105670000204291BBB751C2215918A4845A422529D
:1056800011A98854442A073A440E1101042A0D989E
:10569000841964CD35919E2A00042B1099841B52E5
:1056A000AE2792842421494E02042C0D9684184280
:1056B0008D1511D30500042D10978438A498582A0D
:1056C000B14A67221200042E169C841DB2929A449D
:1056D0009522BD52A414294926919500042F1297B2
:1056E00084581591442411894A122589882604304A
:1056F0000A6685384B9C240504310EA685982299AC
:105700006245C449420104320C658517148945423B
:10571000B100043309648515269D00043413877491
:105720003725894822928824928348121201043531
:105730000B6585371309C5222404360E68851A12B5
:105740000945896651A12804370B64851633894CB5
:10575000540104380C668518B211C5429A090439FF
:1057600010968538A1981C221B512CA49900043A4C
:105770000C658517124A8922A108043B0F678438FB
:10578000169144241149443401043C10678438B113
:10579000904424914C0E958800043D0B6685182298
:1057A000D261C424043E0C66853814112709050013
:1057B000043F0A66851887104F0204400D966D1845
:1057C000918988D345A80804410B64853695914A90
:1057D000640004420A66841626A14E000443119711
:1057E0006C17328948A2461B0E85432100044413DE
:1057F000D86C78628D16158A8422A1A818C56A0013
:1058000004450D6784173289DA7026511304461255
:105810008775182289482292882422C951090004D8
:10582000470B6585171216094D0104481168851B41
:105830001209454291502414C9610004490D89752B
:105840001B12FD7F39889500044A0E67841854297D
:105850004D2292882800044B0E68851A42A28922A4
:10586000A1484C02044C0C65851732194542B10021
:10587000044D0C64851693886434A900044E0F69A6
:10588000851B228AD28922A2885800044F0B658486
:1058900036168A84621104510E958517128A782271
:1058A000A1588404045215D76C58C19A545A521105
:1058B000494412914424152A0104530B948555122E
:1058C000A949270004540B648536158A4812190427
:1058D000550A648536A5A50A00045609928413A4C6
:1058E000430104570C958313128A58A627000458C5
:1058F0000BC46B53CA227D510204590F69853B4585
:1059000089504292E842A200045A1169851B2299EB
:10591000487688882424098902045B12A78458C128
:105920009A545A5211494412914424045C0E9585AC
:105930007722B18452A2482802045E13C76C5789AB
:1059400072904C2292A8D18643E15008045F0D86E4
:105950007518229E0E21990C0004900BB58496B107
:10596000834CBF0104910B848576A1434827000432
:10597000920A24BC14A1880400000000000A0B0253
:10598000090C0D0E080703040100000000000000D0
:105990000000000000000000000000000000000007
:1059A00000000000000000121110000000000000C4
:1059B00000000000000000000000000000000000E7
:1059C0000000002200250028002B002E00310034AA
:1059D0000002010000050108010B01026788112483
:1059E0001FBECFEFD1E2DEBFCDBF00E00CBF15E0A0
:1059F000A0E0B2E0E4EBF7E301E00BBF02C00790E8
:105A00000D92A639B107D9F72EE0A6E9B5E001C09D
:105A10001D92A935B207E1F71CE2CFEEDCE200E00F
:105A200006C021970109802FFE010E946997CE3E92
:105A3000D10780E00807A9F70E94FC6D0C94D89B61
:105A40000C9400002F923F924F925F926F927F9240
:105A50008F929F92AF92BF92CF92DF92EF92FF927E
:105A60000F931F93CF93DF93CDB7DEB7C25ED109FB
:105A70000FB6F894DEBF0FBECDBF5C01DC011296FD
:105A80008D919C91139704960E949859FE01EF57AF
:105A9000FF4FCB52DF4FF983E883C55DD040809143
:105AA0009C058D3011F40C946036A0F4843011F410
:105AB0000C94EA3940F4813009F4E4C1823011F4E5
:105AC0000C94DC361EC08B3009F4D4C38C3009F43E
:105AD00053C617C0833611F40C94FE3B48F485314D
