:100000000C94AC2C0C940A600C94DF5F0C94B45FDD
:100010000C94895F0C945E5F0C94335F0C94085FC2
:100020000C94DD5E0C94DD2C0C94DD2C0C94DD2CFA
:100030000C94DD2C0C9430570C94DD2C0C94DD2C9E
:100040000C94DD2C0C94DD2C0C94DD2C0C94DD2C0C
:100050000C94DD2C0C94DD2C0C94DD2C0C940749B5
:100060000C94DD2C0C94375C0C940E5C0C94DD2C01
:100070000C94DD2C0C94DD2C0C94DD2C0C94DD2CDC
:100080000C94DD2C0C94DD2C0C94DD2C0C94DD2CCC
:100090000C94DD2C0C94DD2C0C94DD2C0C94356030
:1000A0000C94DD2C0C94DD2C0C94DD2C0C94DD2CAC
:1000B0000C94DD2C0C94DD2C0C94DD2C0C94DD2C9C
:1000C0000C94DD2C0C94DD2C0C94DD2C0C94E55B55
:1000D0000C94BC5B0C94DD2C0C94DD2C0C94DD2C6E
:1000E0000C94DD2CEE7CFC7C0B7D337D4D7D617DA5
:1000F000797D887D9A7D7B5C7E5C6D5C715C775CD4
:10010000B55C825C865C8C5C905C945C9A5C9E5C6A
:10011000A25CB55CA85CAC5CB05C1E5E235E285E35
:10012000325E3C5EB55E465E4E5E565E605E6A5E08
:10013000745E835E8D5EB55E975EA15EAB5E5E694A
:1001400066693E6946694E6956696E697669080056
:100150000000BE922449123EABAAAA2ABECDCCCC46
:100160004C3E00000080BEABAAAAAA3E00000000E0
:10017000BF000000803F0000000000084178D3BBB2
:100180004387D1133D190E3CC3BD4282AD2B3E685F
:10019000EC8276BED98FE1A93E4C80EFFFBE01C450
:1001A000FF7F3F00000000004E414E494E49545928
:1001B000494E46CDCCCC3D0AD7233C17B7D1387732
:1001C000CC2B329595E6241FB14F0A000020410048
:1001D00000C84200401C4620BCBE4CCA1B0E5AAE92
:1001E000C59D7400407A10F35A00A0724E180900A1
:1001F00010A5D4E80000E87648170000E40B54028C
:100200000000CA9A3B000000E1F5050000809698C6
:1002100000000040420F000000A086010000001016
:100220002700000000E80300000000640000000058
:10023000000A00000000000100000000002C76D839
:1002400088DC674F0823DFC1DFAE59E1B1B796E51F
:10025000E3E453C63AE651997696E8E6C28426EB83
:10026000898C9B62ED407C6FFCEFBC9C9F40F2BA96
:10027000A56FA5F490055A2AF75C936B6CF9676D2E
:10028000C11BFCE0E40D47FEF520E6B500D0ED9083
:100290002E0300943577050080841E080000204E50
:1002A0000A000000C80C333333330F986E128311E9
:1002B00041EF8D2114893BE65516CFFEE6DB18D1C0
:1002C000844B381BF77C1D901DA4BBE42420328492
:1002D000725E228100C9F124ECA1E53D27000021D6
:1002E00000240027002A002D003000330001010007
:1002F00000040107010A01526573746F726520568C
:10030000616C75653A002020002000001F0000008D
:100310000000FF0000000000FF0000000000FE00E1
:1003200000000000F80000000000F00100000000E4
:10033000E00100000000E00100000000E00100001A
:100340000000E00100000000E00100000000E0010A
:1003500000000000E00300000000C00300000000F7
:10036000C00300000000C00300030000C003C0037E
:100370000000C00FF0030000C03FFC030000C0FFFE
:10038000FF03000080FFFF03000080FFFF0100006B
:1003900080E7E70100008087E10100008007E001BD
:1003A00000008007E0010000800FE0010000000F66
:1003B000F0010000000FF0000000000FF00000004E
:1003C000000FF0000000C00FF0000000C00FF000B0
:1003D0000000C01FF8000000C07FFE00000080FF8A
:1003E0007F00000000FE3F00000000F80F0000004A
:1003F00000C00300000000000000003CEFF939B32A
:10040000076C6F6B6DB3076C63636CB7013C67631C
:100410006CB7036CE7616CBF036C63636CBB016C0E
:100420006F636CBB073C6F6338B3072020004B4DF4
:1004300048200052504D200045435520002F0020F9
:100440002020424C42200044535420004F444F206F
:1004500000454E472000475253200057524B200082
:100460004552524F523A2043616E6E6F7420666956
:100470006E6420637572736F7220666F722064659C
:100480006C6574696E67202E2E2E2E200045525208
:100490004F523A2044454C455445207472697020AF
:1004A0004320004552524F523A2044454C45544552
:1004B0002074726970204220004552524F523A20F7
:1004C00044454C4554452074726970204120003EDB
:1004D000004552524F523A2054726970206375722F
:1004E000736F72206F7574206F662072616E67651E
:1004F000202E2E2E2E20004E4F544943453A2044A4
:10050000656C65746520747269702E2E2E2E200025
:10051000424E5A2076616C75653A20004C50472057
:1005200076616C75653A20004C50472074616E6BA3
:100530003A20200052616E67653A20003E003E007E
:100540003E003E0060000505060705070737550019
:10055000F13AF13A0107F00FC817B720070000027F
:10056000CB00211387EE02ADE0FF07980F942270B5
:10057000C1104400002222D062BFCD6230C328489F
:10058000110EE112472886210A528CC10C643003F7
:10059000118E5002141000238A9D8E02CB0921482F
:1005A00042089210822484200921483ACA9110827C
:1005B000248420092148420892108224841CEA20C5
:1005C0004842089210822484200921484208928ED1
:1005D000728C0FFC07A282102421044908411242A8
:1005E000908410241DE5500741CA07FE03D140083E
:1005F0009210822484200921483ACAA10E822484C0
:1006000020092148420892108224841CEA2847428B
:10061000089210822484200921484208928E722474
:100620000024595D92E2CAEBB0E74717F8B468516D
:10063000A83A57C988521691A444200B09088B1A6E
:10064000D49EE7D8C32215B1484DA8DA5CD165AE77
:100650003799B99A0A55D1A42216A9883DACF39EC0
:10066000066B8740162292940CA528242BD7A9D27A
:10067000B422E7C4A41EF6FC16002581DE8EFECC53
:10068000C460C84014329484080621823988700CF2
:10069000228E60184418A328C830465190710483F4
:1006A00020852948610A62948220C420C938874580
:1006B00055C4A22A62117B5854452CAA2216B18730
:1006C0004555C422F6B0287B58943D2C620F8B3AD6
:1006D000853A4C7290B2188434E520CF4088218E40
:1006E000719482180229053104520C71324F404E28
:1006F000238EB48C432503614501002673DD8E02F1
:10070000CBEB98CD7B5AB4A6549DCB2C6129C9491B
:100710000892108224841CEB20C73AC8610F8B54C6
:10072000C4221565918AD4642A73890C749EF39E41
:1007300006B5882101618740D83110E20C84380465
:10074000190E41864312E114443825098E41826313
:1007500090E01C1BAA90752CD404E43401418B500A
:10076000CC3256242B98B9CE75AC54AD63202714E7
:10077000C7E2BEAD621845A8423188319081082594
:10078000200028434F6E07CD6860843A1062908342
:1007900018E4200639C8390E728E833A073A0E7271
:1007A0000E747650E740E70F210785CE1072107463
:1007B00020E4A0107290931CE4240739C9414E72C2
:1007C0008C542CA100293D4F6E07CB6458053A4E3E
:1007D0007210841C042107410742D0819083A0132A
:1007E00042D019420E82CEFF3B68E740C7419DE3ED
:1007F000A0CE7150063988414C6290832063112D40
:1008000040002A3999C6A6CBAAA0652D308509CA11
:10081000508A3290629406128A80842C5C6442CFA3
:100820006A58B31E34912B64010945404619194A90
:1008300051861298C204ADA0650A002B1396052FAD
:10084000CDE778E7873EF007BC73BCF321002C109E
:1008500087E2F6AAA1085C30444184220A002D0AEE
:10086000D6014BCDE01FF0002E0DC7E102ABA10871
:100870005C30C420002F429CAE02CB149908454D39
:1008800084A22642117A50D444286A221435118A4F
:100890009A08454D8422F4A0287A50D444286A222C
:1008A0001435118A9A08454D8422F4A0287A50D430
:1008B00044286A22144501303D9D8E02CBEB988D71
:1008C0008BD694AA73958C2C6319CA5104B21081EB
:1008D0002C24200D6ACF73FFFFFFBFF734A821E15E
:1008E000688740162294A38C15C9CA75AA34ADC86E
:1008F00035F35800311B8EAE03CDE7CCA04A8A28D1
:10090000E2031FD0C23292729CF3FFFFFFFF0F324F
:100910005C9D8E02CBEB98CD83D694AA73958C30D8
:100920006219CA5104B210812C24200D6ACF73BD04
:10093000A7410D09474382D11041B864080FA1C9EE
:100940004C2842939950842633A1084D284293990C
:1009500050842633A1084D6642119A50842633A153
:10096000084D6642119AD00FFC0722334D9D8EFE32
:10097000CAE07F20A209456832138AD0642614A1F8
:10098000C94C2842939950842633A18B64A2F31E4C
:100990000735882A15B148452C52117BFE55541154
:1009A0001C3288868863254141C9600433B2729D38
:1009B0002A4D0C7A0C2D1A0034479D8E02CB0AA9C1
:1009C000873D2AAA1EF6A8A87A54B47A54B47A5459
:1009D000B47A54543DEC5151F5A8483912528E84E2
:1009E00094231DE640883910620E8498031DE73871
:1009F000C8390E728EF381FF40E4107BFE7700351C
:100A0000459D8E02CBE07F20AB873DFF2388AAD097
:100A100065B092116D6CC211ABA384642101614871
:100A200040DAE39EE7BCC39E3FEB3C97831AC410B9
:100A3000812C442448198C584856AE53A56945AEBC
:100A400099C7020036559D8E02CBEB988D8BD694BC
:100A5000AA73958C2C8219CA5104B21071B4232048
:100A60000D72CE73ECF91B4AB2CE65B092116D6C6B
:100A700082298A505212928504A441ED71CF73FFEE
:100A8000DED3A086046421025988508E3256242B6E
:100A9000D7A9D2B422D7CC6301374D9D8E02CBE0CB
:100AA0007F206350831A128E8684A321E160493827
:100AB00018220E86D014452A42138A54144D285207
:100AC0005134A14845D1842215A1298A5484A628ED
:100AD00052119A50A4A26842918AA209452A42530F
:100AE00014A9084D1A0038609D8E02CBEB988D8BAF
:100AF000D694AA73958C2C6319CA5104B210812C18
:100B000024200D6ACF73DF7B1AD490802C44200BF5
:100B100011CA51C68A64E53A559A5275AE9211A52A
:100B2000282349894016129006B5E7B9EF3D0D6AB2
:100B300048381822908508E5286345B2729D2A4DF1
:100B40002B72CD3C160039549D8E02CBEB988D8BC9
:100B5000D694AA73958C2C6319CA5104B210812CB7
:100B600024200D6ACF73FF39A8410D09C84A42926B
:100B700014A114466C434732731D2B29E3B0E7B32D
:100B8000CE7339A8410C11C842448294C18885644F
:100B9000E53A559A56E49A792C003A1547E81EAB87
:100BA00062181F1842F1C1AD2270C1108300003BD2
:100BB0001707E912AB62181F1842F1C1AD2270C1CC
:100BC0001005118A28003C3092482FCB6F70442BBF
:100BD00098A19094A0E4A84E8292A342883A96C12C
:100BE0008A66B063212A514A52544A292AA590752F
:100BF000B4C2116F80023D105AC526CDE03FB07DD2
:100C0000F0F607FE810D3E2ED2482BCB2088021C29
:100C10005ED10C762C44292A4D292A4D21CC680519
:100C200033D6A11094EE282741A9842883158D700E
:100C3000C30B22003F42DD8E02CBEB988D8BD69406
:100C4000AA73958C2C63190A4A44A2108130A841DA
:100C5000CE79CE3BECA9A2683293A948452E71917A
:100C6000EA668A2215A9873DFFDF07F78A6BDCC396
:100C70009EAC8189060040D57391C6F6B3F9009900
:100C80003C9637FBCD0F08F103C47392D398C7ACE1
:100C9000652E69B10A527072929D98842724594733
:100CA00038084A45041988920A229034154420884D
:100CB0003287385065205419E82842390E420C72A8
:100CC0001C741CE438E8741C743A0E3A1D079D8E9F
:100CD000834EC741A7E3A0D371D0E938E8741C74F0
:100CE0003A0E3A1D079D8E834EC741A7E3A0D371EC
:100CF000D0E938E8741C743A0E3A1D079D8E838E35
:100D0000831C07212629D051441324F481411CE877
:100D1000038338D2078281248F20CA098D4114337E
:100D20009683B0031D29F9004B3EC0920F2CE503BA
:100D30004BF9C05A3EA0980F24E803E50344FCC0D9
:100D4000203F20D0AF7A78DBD80100416E9D8E0223
:100D5000CBEBB04845681A55A622D7492632B00DCC
:100D60003ACF712F7784C31D0169474018220E8640
:100D700088831DE360C738D8311085904321E45043
:100D80004739D4510E7514241D05418839D0710E90
:100D9000749C031D0739C741CC3D83911C41D4414C
:100DA0008E75906321E3608740D8218E7688A31DDD
:100DB000E26848381AE41E770042779D8E02CB0025
:100DC0006A93AA9075B082958C208619874AC6B11D
:100DD000127130441CED104743C2D19070B8231CEF
:100DE000EE084743C2D1907034241C0C11C74AC48A
:100DF000A11471246568232358B9CC65B09211A45D
:100E000034E348CA3856220E8688A321E168483860
:100E1000DCEBB9E75E0D094743C2C19270AC441CDC
:100E2000691187694646B07219EB54685250030045
:100E3000433E9D8E02CB0A998D8BD694AA73958CD6
:100E40002C8219095204B2908034587B9ECB9EFFAD
:100E5000FFFF7BCE7B1AD490803024200B110A4AEE
:100E6000C622189295EB54695A916B26A200443918
:100E70009D8E02CB405A15BA0C5632A28D4D206879
:100E800011C752C2D1907034241CEEF5DCFFFFFF75
:100E90009F7B35241C0D09C752C29116B1096D64A0
:100EA000042B97A990B400451D9D8E02CBE07F20B6
:100EB000AB873DFFFFAC75EC770E7BFEFF2C523FFE
:100EC000F01F880046199D8E02CBE07F20AB873D46
:100ED000FFFFAC75EC770E7BFEFFFF2C0047429DB9
:100EE0008E02CB0A998D8BD694AA73958C2C63199C
:100EF000095204B29080B0A841ED792E7BFE1FAA62
:100F0000BFE7FEBDA7410D09C84A02B292A09C45A9
:100F10002CA311DBD048563073A1261CEB200748C8
:100F2000159D8E02CBE078EEFFFFDFFBC0FF9EFB3E
:100F3000FFFF7B07490B87EE02ADE0FF3F30004A21
:100F4000279D8E02CBF6FCFFFFFFFF679DE77250E7
:100F500083DA21908508052583110BC9CA75AA3447
:100F6000ADC8351351004B8B9D8E02CBE0685043CA
:100F7000C2C19270AC441C0B19874AC6A11072A45E
:100F8000841C28290742CC7112731CE41C263947A3
:100F900049D051907490241D2351C740D621927599
:100FA0000884450C6A8F7B9CF39CD74026B2C5060B
:100FB0003ACF798F7B1CD48E90B02324EC10C93AA1
:100FC00006B28E91A88324E928483A4A820E83A06B
:100FD000C324E738893910620E94942325E450081D
:100FE0003954328E858C6325E26049381A128E9608
:100FF000004C149D8E02CBE0B0E7FFFFFFFFFF3FE8
:10100000FB81FF40044D569D8E02CBE07050833132
:1010100069C9149568C83A368315AC644337B6C0BD
:10102000850FFC034B68821318E18845386211CEA6
:1010300048863392E18C6438E4200E3988430EE20E
:1010400094A238A5284E218C6306E398C13846380F
:10105000CE098E7382E33CF7FFBD034E579D8E028F
:10106000CBE0788F7B1CD4602D621193966C4D6A17
:10107000A6A844A50AD59075AC73192720C609887F
:101080007104521C81146720C419087106421C8225
:101090000C8720C32189700A229C8208C720C13195
:1010A0004870CC756CA82ED1D4DC92B1B806E75E3E
:1010B000EF004F3D9D8E02CBEB988D8BD694AA739B
:1010C000958C2C6319CA5104B210812C24200D6A0E
:1010D000CF73FFFFFFBFF734A821015988401622C4
:1010E00094A38C15C9CA75AA34ADC835F3580050FD
:1010F000469D8E02CB006A93AA90752E83958C2014
:10110000A519475AC4B11271B0241C0D094743C236
:10111000E15ECF3DF76A48381A120E96846325E2E5
:10112000488B404A33328295CB58A7429382DA618A
:10113000CFFFFF6701513D9D8E02CBEB988D8BD683
:1011400094AA73958C2C6319CA5104B290902C24E4
:10115000200D6ACF73FFFFFFBFF734A82101598824
:1011600040162294A38C15C90A66AE731D2B55EB4D
:101170001808527F9D8E02CB006A93AA90752E8329
:10118000958C20A519475AC4B11271B0241C0D09C1
:101190004743C2E15ECF3DF7B8231C0D094743C268
:1011A000C11071AC441C491948694646B07219EB2C
:1011B00054A8868E73A0E320E738C839D0710E8416
:1011C000980321E648873912528E8494431DE550D6
:1011D000083914428E75906321E358C838D8310E0F
:1011E00086888321E26848381A128E8684C33D0EB1
:1011F0000153519D8E02CB0A998D8BD694AA73957B
:101200008C2C8219CA5104B2108130A841ED792E7C
:101210007B58A42216A929AAD065AE4797B93E9A51
:10122000D4A422F6B04845ACF35C0E6A104304B275
:1012300010A11C6530622159B94E95A615B96622D8
:101240000A0054159D8E02CBE07F205A483DECF9F0
:10125000FFFFFFFFFFB70055279D8E02CBE078EE22
:10126000FFFFFFFFFFDED3A08604642102598850F0
:101270008E3256242BD7A9D2B422D7CC6301567C08
:101280009D8E02CBE0788F3BC2D1907034241CED50
:1012900010473B04C28E71B0631C0B19C742C6B124
:1012A0000E82A8A31CEA28873ACA919072A4C32090
:1012B000E838073ACE818E731CE41C07658E74985B
:1012C000231DE6488739D251908410441DE4580705
:1012D00039D6418E7590632102618738DA218E7686
:1012E00088A31DE268907B9CF3DC600B329125574C
:1012F00052992A9A46918AD8430157419ACE02CDF3
:10130000C068EDFFFF4C601A2394A60CA529436921
:1013100048411A52908614A419C768C6319A718C34
:101320004624A211896844229AB0840FFC7FA00A47
:1013300039718DDBB04AAD50677614588A9D8E02A4
:10134000CB006948381A12107608841DE358C83853
:1013500016321075102421E5484841D06190839CD5
:10136000E3A0CC81107320A420E9284842C8A190B2
:1013700081AC63200B11074302D28E80B4C7BD9E9F
:10138000F31AD844166C41C7BDB923200C09084391
:10139000C4C18E812864200A21873A0A8290822063
:1013A000C41C0831073A0E62908318041DE64808F1
:1013B000411242107590632102598840D82110765D
:1013C00088A3410D0159699D8E02CB006948381AE6
:1013D000120E860864210259C83814420E85102462
:1013E000210441883910620E741CC420E830083A88
:1013F0000A921082248420EA18C83A06B21071308A
:101400002420ED08487BDCEB35B01517B948652A78
:1014100034A1484551A4A22852917A54543D2A8AB5
:10142000221545918AD4A3A228525114A9005A4BDF
:101430009D8E02CBE07F20AA08452A42918A50A4C3
:101440002234A1084D2852118A54842215A14845FE
:101450002852118A54842215A148452852118A54D1
:10146000842215A148456842119A50842614A10986
:10147000452A4291FA81FF40045B18916E03CD002A
:101480000A1FF801489DFFFFFFFFFFA90FFC401650
:10149000005C479CAE02CB00A1484528528F8A5081
:1014A000A41E15A1484528AA221455118AAA084548
:1014B000558422F5A808452A425115A1A88A5054FE
:1014C0004528AA221455118AD4A32214A9084555E7
:1014D00084A22A425115A1085D14906E03CDE00F3D
:1014E0004CE9FCFFFFFFFF2F7DE007345E1B97E216
:1014F000F2CB27690B5B56939E8304A420032147FC
:1015000039C6718E80A0035F0A6501EECAE03FE034
:10151000016012CE82DFCBE040C739D00919C984FF
:101520008C64026160218B02D32BA94F8CDED4AA7C
:1015300075A50C2D6339494A0CB210832CC41CEDDF
:1015400030473BCCD10E73B4439F32721556A92B52
:1015500061283B9AD90A57947514A41D0471074158
:10156000DC418E7790E31DE4780741DC41909610D2
:1015700064296429CFF8C4373CD295491C07224618
:101580005AD4006241DD8E02CBE0B0E7FF478E7592
:1015900084065D062B19D1C6269AB18805252159E6
:1015A000484818D420E73CF7FFEF3DEE69118B1651
:1015B00012169484662C6213DAC808562E738406B9
:1015C0001D045100633D1D8B02CBEB988D8BD6948F
:1015D000AA73958C2C63190A4A04B2108130A84171
:1015E000CE792E7BFEBFE7BCC73D0D09084302B292
:1015F00010A1A064AC4856AE53A56945AE998802C7
:10160000006443DD8E02CBF6FCFF16320ED484C399
:101610005C0523D9D0C42696D10405290159494037
:1016200018D420E73CF7FFEF3DEE694840181290D0
:101630009504052962198DD88646B282990B35E149
:1016400058073900653E1D8B02CBEB988D8BD694E5
:10165000AA73958C2C63190A4A04B2108130A841F0
:10166000CE79EEDE07FE67CFB34845DA60105690BC
:1016700044214241C95891AC5CA74AD38A5C338F5C
:1016800005006629DD8E02CBCFA80B741CC4A435DF
:10169000252A25423988410E724EE838873DFF7B66
:1016A000DAD09F3AECF9FFFFBF07006760DD8EC616
:1016B000CA4B4295B90A46B2A113CB58867214910F
:1016C0002844200C6A90739EDB7BDCD3908030240E
:1016D000240A110A4AC68A64E53A559A56B420F695
:1016E000B88422F5B0278B54854A6B4A96C1483698
:1016F00036B18564450D72CE73DEE39E868424295F
:101700006113DBC8CA75AA3435E700682ADD8E028A
:10171000CBE0B0E7FF478E7584065D062B19D1C676
:10172000269AB18805252159484818D420E73CF766
:10173000FFFFFFBD036922CBAE02AB62380639570B
:101740008A0F060E72FEFFFFFF11642024114A501B
:101750004432107214030D6A2A9612C7CC90880680
:101760003CDE192C3EF8CCF1CEFFFFFFFFFFF71C4B
:10177000F418C820211189A00DA940C7494C331085
:10178000006B76DD8E02CBE0B0E7FFE79E868483B8
:1017900025E160883856228E858C4325E348093937
:1017A00012520E94940321E63889390E720E939CDE
:1017B000A324E828483A48920E82A86324EA18C86D
:1017C0003A04C28E90B023242C62D29AD4A4A844A6
:1017D000A50A310141CB40CE3212A314C4A44A72EF
:1017E0009082A084202919C742C6B1127130441CCE
:1017F0002C094743C2E1106C1DCF8E02ADE040E7DB
:10180000FFFFFFFFFF0F210741897182239AC190DB
:10181000A528E8006D86338B02F7E020C73BD61180
:101820009AD4A0AB44061B53C942453E108D0F48C5
:10183000A219D358C4821C9484642D0B090953182F
:10184000D4920639C439EF78CE3B9EF38EE7BCE3E1
:1018500039EF78CE3B9EF38EE7BCE339EF78CE3B91
:101860009EF38EE7BCE339EF78CE3B9EF38EE7BC68
:10187000E339EF78CE3B9EF38EE7BCE339EF78CEC9
:101880003B9EF38EE7BCE339EF78CE3B9EF38EE7C9
:10189000BCE339EF78CE3B9EF34E6E271D8B02CB17
:1018A000E020C73A42832E83958C686313CD58C4D9
:1018B0008292902C24240C6A90739EFBFFFFFFDE23
:1018C000016F3A1D8B02CBEB988D8BD694AA739542
:1018D0008C2C63190A4A04B2108130A841CE79EEEB
:1018E000FFDF7BDCD390803024200B110A4AC68AAC
:1018F00064E53A559A56E49A8928007042DD8EC60E
:10190000CAE020C73A42832E83958C686313CD5872
:10191000C48292902C24240C6A90739EFBFFF71EC5
:10192000F7B488450B090B4A423316B1096D6404BC
:101930002B973942830E82A8C39EFFCF027143DDED
:101940008EC6CAEB20076AC261AE82916C686213D0
:10195000CB6882829480AC24200C6A90739EFBFF3B
:10196000F71EF73424200C09C84A828214B18C4631
:101970006C432359C1CC859A702C641CF6FCFF0083
:10198000721C168B02BDE02052F8C01F68844420F0
:101990000399C721EE78E7FFFFFF7B007342198BA5
:1019A00002C3E980CC7A5274A652114B2C6111C843
:1019B0008912A49CE55A4F44241213F8AC284548D8
:1019C0004A3105B925261189CF725B4F82121290D8
:1019D0009384D5B04655A613A58731EF48007422ED
:1019E000D24E02ADE458E7FF3B1FF8030239D6F9A7
:1019F000FFFFDF4294929AD218E62C4849C93A0078
:101A000075281D8B02CBE078EEFFFFFF7B8F7B1AE2
:101A100012108604642541418A584623B6A191AC30
:101A200060E6424D38D6410E766E1D8B02CBE078D3
:101A30008F7BDC118E8684A31DE2688740D821103D
:101A4000768C6321E3580739D641107510441DE5A3
:101A5000484839D2618E7418041D0641C7390E7288
:101A60004EE8380742CC811073A4A320E928873AB6
:101A7000CAA1107228841CEB18C83AC6C18E7130F6
:101A8000441C0C09483B02D28E70B8231CEEF59C16
:101A9000D7C0B6C8200077C5338B02F7E078C7738C
:101AA000DEF19E9634241C2D6948385AD20E71B44A
:101AB000A41DE2680A3B04B296858C632D0B19C7FE
:101AC0005AD6418EB5AC831C8B510741529390720C
:101AD000A42621E5484D3ACC919A74982339E830F0
:101AE000C8790E728EF31CE49CC2710E749C231C88
:101AF000E740C73902620E8414242005494741C4D7
:101B000051907494631CE5504739C6510E75946327
:101B100020E450C8405BC740C83190758CA31CE3DB
:101B200060C738CA310E768CA320E26048400A12A2
:101B3000907604C41C01694738CE110E7784E31CEB
:101B4000E1704738CEE39EF33C0739AF490D6C5244
:101B5000039BD4C0263591510C020078661D8B0280
:101B6000CB007147381A1210768C63210351473924
:101B7000125210749CE3A0CC918E8224841CEB182A
:101B8000C842C4D18E80B4E739AF894C5CA6329389
:101B90008AA20955E42219D840C73DEE080843C47B
:101BA000C18E8128841CEA280842CC818E831804C7
:101BB0001DE6480841D4418E8508841DE268903BAB
:101BC000007974DD8EC6CAE360C740143210859078
:101BD0004321E4504739D4511084140421E640884D
:101BE00039D0710E741CE41C0731083A0C820E7354
:101BF000A4C31C0929474208A20E82A8831CEB201B
:101C0000C742C6B11081B04320EC10083BC4D1904C
:101C10007034C8BD9CF35CB00599C8922BA94C15D3
:101C20004D51A4A26B42415A211216AD68490C7263
:101C30000E5CE811017A2B1D8B02CBE07F20A2C93C
:101C40004CA632535399693499299ACC144D668A1B
:101C500026334593999ACA4CA3C94CE807FE031151
:101C60007B41D430E7CAAF68C74A949216C4A00536
:101C7000292A592886B0A39DFFC7107630442549EC
:101C800051C942D81011962C85250D694743DAF9C0
:101C9000FF1AC210965ACA62109316A5ACA41DAFC3
:101CA000007C0B47F2E3CAE0FFFF81077D43D3309E
:101CB000E7CA8078464356A294B4A045290B61C870
:101CC00042D8F9FF18B210862C84254B51093BE00D
:101CD000C00E952405250959884216B20E76FEDFFE
:101CE0004229242967410B5252A2906534E2017EB9
:101CF0001AA0624ACB835806424C5338D237BA02F4
:101D000009A52CE84844130A007F07000002CB0015
:101D100000000000C2A700C2A600C2BB00C2AC0007
:101D2000C3B800C2B900C2AE00C2AC00C2AB00C2B0
:101D3000AA00C2A900C2A800C2BF00C2BE00C2BDA4
:101D400000C2BC00C2B700C2B600C2A10000C2AE51
:101D50000060005E00C2A200C2B000C2A500D09424
:101D6000D0BED0B2D0B8D0B6D0B4D0B0D0BDD0B53F
:101D70002E2E2E202020202000C2B1C3B7C2A500E5
:101D8000C2B200C2AF00C2B10034323030306B6D2D
:101D90002028D0A1D0BBD0B5D0B420D181D0BCD127
:101DA0008FD0BDD0B020D0BDD183D0BBD0B8D18032
:101DB000D0B0D0B9D182D0B520D0B4D0B0D0BDD0C1
:101DC000BDD0B8D182D0B52900D092D18AD0B7D0B9
:101DD000B4D183D188D0BDD0B8D18FD18220D18465
:101DE000D0B8D0BBD182D18AD18020D181D0B520CA
:101DF000D181D0BCD0B5D0BDD18F20D0BDD0B02046
:101E0000D0BDD0B0D0B40020D09DD0A3D096D09D6E
:101E1000D09020D0A1D09CD0AFD09DD09020D09297
:101E2000D0AAD097D094D0A3D0A8D095D09D2FD0B1
:101E30009CD090D0A1D09BD095D09D20D0A4D098FC
:101E4000D09BD0A2D0AAD0A02000D0B520D0B7D0AF
:101E5000B020D181D0BCD18FD0BDD0B020283835B2
:101E60003030306B6D2B2900D090D0BDD0B3D180F5
:101E7000D0B5D0BDD0B0D0B6D0B5D0BDD0B8D18F50
:101E8000D18220D180D0B5D0BCD18AD0BA00D09038
:101E9000D09DD093D0A0D095D09DD090D096D09505
:101EA000D09D20D0A0D095D09CD0AAD09A00D09719
:101EB000D0B0D0B4D0BDD0B820D181D0B2D0B5D1BF
:101EC00082D0BBD0B8D0BDD0B82000D09FD180D0B8
:101ED000B5D0B4D0BDD0B820D181D0B2D0B5D182E8
:101EE000D0BBD0B8D0BDD0B800D09DD0B5D180D0B7
:101EF000B0D0B1D0BED182D0B5D189D0B020D0BAC7
:101F0000D180D183D188D0BAD0B020D0B23A00D01D
:101F100098D097D093D09ED0A0D0AFD09BD0902017
:101F2000D09AD0A0D0A3D0A8D09AD09000D182D0FF
:101F3000B5D187D0BDD0BED181D182D182D0B020E1
:101F4000D0B7D0B020D187D0B8D181D182D0B0D194
:101F500087D0BAD0B800D09FD180D0BED0B2D0B593
:101F6000D180D0B5D182D0B520D0BDD0B8D0B2D03C
:101F7000BED182D0BE20D0BDD0B000D0A2D095D0EE
:101F8000A7D09DD09ED0A1D0A220D097D09020D015
:101F9000A7D098D0A1D0A2D090D0A7D09AD09800A6
:101FA000D0BDD0B020D0B4D0B2D0B8D0B3D0B0D1A2
:101FB00082D0B5D0BBD18F20D0B520D0B2D0B8D18F
:101FC00081D0BED0BAD0B02100D0A2D0B5D0BCD084
:101FD000BFD0B5D180D0B0D182D183D180D0B0D1A3
:101FE00082D0B02000D09ED09FD090D0A1D09DD0E4
:101FF0009ED0A1D0A220D09FD0A0D095D093D0A029
:10200000D0AFD092D090D09DD09500D0BED185D009
:10201000BBD0B0D0B4D0B8D182D0B5D0BBD0BDD0B9
:10202000B0D182D0B020D182D0B5D187D0BDD0BEC2
:10203000D181D18200D09FD180D0BED0B2D0B5D1D5
:1020400080D0B5D182D0B520D0BDD0B8D0B2D0BE6E
:10205000D182D0BE20D0BDD0B000D09ED0A5D09B24
:102060002E20D0A1D098D0A1D0A2D095D09CD09035
:1020700000D0BFD180D0B5D0B4D0BDD0B8D182D03F
:10208000B520D181D0BFD0B8D180D0B0D187D0BA5F
:10209000D0B8202000D098D0B7D0BDD0BED181D04C
:1020A000B2D0B0D0BDD0B520D0BDD0B02000D0A12E
:1020B000D09FD098D0A0D090D0A7D09DD09020D045
:1020C000A1D098D0A1D0A2D095D09CD09000D0BD66
:1020D000D0B520D0B520D0B220D180D0B0D0B1D0F2
:1020E000BED182D0BDD0B820D0B3D180D0B0D0BDC9
:1020F000D0B8D186D0B800D09DD0B0D0BFD180D0DC
:10210000B5D0B6D0B5D0BDD0B8D0B520D0BED18274
:102110003A2000D095D09B2E20D0A1D098D0A1D02D
:10212000A2D095D09CD09000D0BCD0BED182D0BEE1
:10213000D180D0BDD0BED182D0BE20D0BCD0B0D155
:1021400081D0BBD0BE00D09FD180D0BED0B2D0B5A0
:10215000D180D0B5D182D0B520D0BDD0B8D0B2D04A
:10216000BED182D0BE20D0BDD0B000D0A1D09CD0F6
:1021700090D097D09ED0A7D09DD09020D0A1D098BD
:10218000D0A1D0A2D095D09CD09000D0A8D0BED164
:1021900084D0B8D180D0B0D0B9D182D0B520D0B25F
:1021A000D0BDD0B8D0BCD0B0D182D0B5D0BBD0BD1E
:1021B000D0BE002000D097D090D09BD095D094D0A6
:1021C000AFD092D090D09DD098D0AF20D09FD09E4D
:1021D00020D09FD0AAD0A2D0AF0020D09DD0B520D3
:1021E000D0B8D0B7D0BFD180D0B0D0B2D0BDD0BEE3
:1021F000D181D18220D0BDD0B020D0BAD180D183BE
:10220000D188D0BAD0B00020D09ED0BFD0B0D1817C
:10221000D0BDD0BED181D18220D181D18AD0BDD0D4
:10222000BBD0B8D0B2D0BED181D182200020D09D09
:10223000D0B0D0BFD180D0B0D0B2D0B5D182D0B5DF
:1022400020D0BFD0BED187D0B8D0B2D0BAD0B000E5
:10225000D098D0B7D0BFD0BED0BBD0B7D0B2D0B05E
:10226000D0B9D182D0B520D181D0BFD0B8D180D063
:10227000B0D187D0BAD0B0D182D0B020D0B7D0B052
:1022800020D0BAD180D0B0D0B900D098D0B7D0B3D8
:10229000D0B0D181D0B5D182D0B520D0B4D0B2D019
:1022A000B8D0B3D0B0D182D0B5D0BBD18F20D0B709
:1022B000D0B020D0B7D0B0D0BFD0B0D0B7D0B2D08F
:1022C000B0D0BDD0B52E00D0A0D095D097D0A3D09F
:1022D0009BD0A2D090D0A200D09AD09ED09DD0A169
:1022E000D0A3D09CD090D0A6D098D0AF00D09ED014
:1022F00094D09ED09CD095D0A2D0AAD0A000D09E41
:10230000D091D09ED0A0D09ED0A2D09820D09220A4
:10231000D09CD098D09D2E00D0A1D09AD09ED0A095
:10232000D09ED0A1D0A220D09DD09020D09AD09E77
:10233000D09BD09020535045454400D098D0B7D082
:10234000BFD0BED0BBD0B7D0B2D0B0D0B92022520F
:102350003C2220D0B7D0B020D0BFD180D0BED0BCDE
:10236000D18FD0BDD0B000D098D0B7D0BFD0BED024
:10237000BBD0B7D0B2D0B0D0B92022533C2220D0AD
:10238000B7D0B020D0BDD0B0D0B2D0B8D0B3D0B0DC
:10239000D186D0B8D18F2000D09DD0B0D182D0B816
:1023A000D181D0BDD0B5D182D0B52022533C2220DE
:1023B000D0B7D0B020D0BFD180D0BED0BCD18FD0CC
:1023C000BDD0B00041726475696E6F4D494420D034
:1023D000B2D0B5D180D181D0B8D18F2000D097D0E4
:1023E000B020D0BDD0BED0B2D0B820D0B2D0B5D100
:1023F00080D181D0B8D0B83A207777772E676974CA
:102400002E696F2F76486C6B6400D097D0B0D0B433
:10241000D180D18AD0B6D182D0B5203E5220D0B85A
:1024200020D0BDD0B0D182D0B8D181D0BDD0B5D16F
:1024300082D0B520D181D0BFD0B8D180D0B0D187E3
:10244000D0BAD0B0D182D0B02000D097D0B020D0B8
:10245000BDD183D0BBD0B8D180D0B0D0BDD0B52055
:10246000D0BDD0B020D0BFD18AD182D183D0B2D05C
:10247000B0D0BDD0B5D182D0BE00D097D090D09290
:10248000D09ED094D0A1D09AD09800D0A2D095D090
:102490009AD0A3D0A9D09E00D09DD090D0A1D0A298
:1024A000D0A0D09ED099D09AD09800D098D09DD06E
:1024B000A1D0A2D0A0D0A3D09CD095D09DD0A2D0A6
:1024C0009800D09ED0A2D09DD09ED0A1D09DD09E6D
:1024D00000D09ED091D0A1D09BD0A3D096D092D046
:1024E00090D09DD09500D093D09ED0A0D098D0927F
:1024F000D09000D09FD0AAD0A2D0A3D092D090D01C
:102500009DD098D0AF00D09DD090D0A7D090D09B38
:10251000D09E00D098D0B7D0B3D0BED180D0B5D0A7
:10252000BBD0B800D098D0B7D0BDD0BED181D0B587
:10253000D0BDD0B800202020202020202040002026
:1025400020202020202020C2A3200020D09DD0B811
:10255000D0B2D0BE20D0BCD0BED182D0BED180D02F
:10256000BDD0BE20D0BCD0B0D181D0BBD0BE3A202F
:1025700000D0A2D0B5D187D0BDD0BED181D182202C
:10258000D0B7D0B020D187D0B8D181D182D0B0D14E
:1025900087D0BAD0B83A2000D09ED185D0BBD0B079
:1025A000D0B4D0B8D182D0B5D0BBD0BDD0B020D1BE
:1025B00082D0B5D187D0BDD0BED181D1823A2000A2
:1025C000202020D09FD180D0B5D0B4D0BDD0B820AD
:1025D00020D0BDD0B0D0BAD0BBD0B0D0B4D0BAD05B
:1025E000B83A2000D09FD180D0B5D185D0BED0B42C
:1025F0002000D0B4D0BE20D181D0BBD0B5D0B4D0D3
:10260000B2D0B0D189D0B8D18F20D0BFD18AD182F9
:102610002100001226F225E425C025982571254BBE
:10262000253F253525242513250625F324E624D129
:1026300024C224AB2498248B247A244A240A24DD3F
:1026400023C423982367233B231823FE22ED22D89B
:1026500022C7228A2250222D220722DA21B521B355
:10266000218B216B21462128211321F720CE20AE7A
:1026700020952071205A2035200B20E51FC91FA06E
:102680001F7B1F561F2D1F0F1FE91ECB1EAE1E8E58
:102690001E681E4A1E071EC91D891D861D831D80BA
:1026A0001D791D5E1D5B1D581D551D531D511D4E71
:1026B0001D4D1D4A1D471D441D411D3E1D3B1D381E
:1026C0001D351D321D2F1D2C1D291D261D231D20CE
:1026D0001D1D1D1A1D171D141D1800300060006CF3
:1026E00000E600F302BF038F03C701D6000000001D
:1026F00000000000000000000000000000000000DA
:1027000000000000000000000000000000000000C9
:1027100000000000000000000000000000000000B9
:1027200000000000000000000000000000000000A9
:102730000000000000000000000000000000000099
:102740000000000000000000000000E0FF070000A3
:10275000000000000000E0FF070000000000000093
:1027600000E0FF07000000000000000080C301003F
:102770000000000000000080C30100000000000015
:10278000000080C30100000000F8FFFFFFFFC37FCF
:1027900000000000F8FFFFFFFFC37F00000000F80B
:1027A000FFFFFFFFC37F00000000F8FFFFFFFFC334
:1027B0007F000000003800000000007800000000EA
:1027C00038000000000078000000803F000000009A
:1027D0000078000000803F0000000000780000004A
:1027E000803F000000000078000000803F000000F3
:1027F00000007800000000000000000000780000E9
:10280000000000000000000078000000803F000091
:1028100000000078000000803F0000000000780009
:102820000000803F000000000078000000803F00B2
:102830000000000078000000003800000000007870
:1028400000000000380000000000780000000038A0
:1028500000000000007800000000380000000000C8
:102860007800000000380000000000780000000040
:102870003800000000007800000000380000000070
:102880000078000000003800000000007800000020
:10289000003800000000007800000000380CC00084
:1028A00004407800000000381EE0010EE0780000CF
:1028B0000000383FF0031FF07900000000B87FF8F7
:1028C000873FF87B00000000F8FFFFFFFFFF7F005D
:1028D000000000F8FFFFFFFFFF7F00000000F8FF8F
:1028E000FFFFFFFF7F00000000F8FFFFFFFFFF7FFB
:1028F00000000000F8FFFFFFFFFF7F00000000F86E
:10290000FFFFFFFFFF7F00000000F8FFFFFFFFFF5A
:102910007F00000000F8FFFFFFFFFF7F00000000C6
:10292000F8FFFFFFFFFF7F00000000F8FFFFFFFF41
:10293000FF7F00000000F8FFFFFFFFFF7F000000A7
:1029400000F8FFFFFFFFFF7F000000000000000015
:102950000000000000000000000000000000000077
:102960000000000000000000000000000000000067
:102970000000000000000000000000000000000057
:102980000000000000000000000000000000000047
:102990000000000000000000000000000000000037
:1029A00000000000000000000000000000560000D1
:1029B0000000000000000000000000000000000017
:1029C0000000000000000000000000000000000007
:1029D00000000000000000000000000000000000F7
:1029E00000000000000000000000000000000000E7
:1029F00000000000000000000000000000000000D7
:102A000000000000000000000000000000000000C6
:102A100000000000000000000000000000000000B6
:102A200000000000000000000000F07F0000C0FF78
:102A30000100000000F07F0000C0FF010000000066
:102A4000F07F0000C0FF0100000000F07F0000C028
:102A5000FF0100000000F07F0000C0FF0100000047
:102A6000FEFFFFFFFFFFFFFF1F0000FEFFFFFFFF56
:102A7000FFFFFF1F0000FEFFFFFFFFFFFFFF1F0024
:102A800000FEFFFFFFFFFFFFFF1F0000FEFFFFFF35
:102A9000FFFFFFFF1F0000FEFFFFFFFFFFFFFF1F05
:102AA00000003E000000000000001F00003E00008B
:102AB00000000000001F00003E00000000000000B9
:102AC0001F00003E000000000000001F00003E004C
:102AD0000000000000001F00003E00000000000099
:102AE000001F00003E000000000000001F00003E2C
:102AF00000000000001E001F00003E00000000005B
:102B00001E001F00003E00000000001E001F00000D
:102B10003E00000000001E001F00003E00000000FC
:102B2000001E001F00003EF8FF0000F0FF031F0022
:102B3000003EF8FF0000F0FF031F00003EF8FF001A
:102B400000F0FF031F00003EF8FF0000F0FF031F2E
:102B500000003E00000000001E001F00003E0000BC
:102B60000000001E001F00003E00000000001E00CC
:102B70001F00003E00000000001E001F00003E007D
:102B8000000000001E001F00003E000000000000CA
:102B9000001F00003E000000000000001F00003E7B
:102BA000000000000000001F00003E0000000000C8
:102BB00000001F00003E000000000000001F000099
:102BC0003E000000000000001F0000FEFFFFFFFFAE
:102BD000FFFFFF1F0000FEFFFFFFFFFFFFFF1F00C3
:102BE00000FEFFFFFFFFFFFFFF1F0000FEFFFFFFD4
:102BF000FFFFFFFF1F0000FEFFFFFFFFFFFFFF1FA4
:102C00000000FEFFFFFFFFFFFFFF1F0000000000AE
:102C100000000000000000000000000000000000B4
:102C200000000000000000000000000000000000A4
:102C30000000000000000000000000000000000094
:102C40000000000000000000000000000000000084
:102C50000000000000000000000000000000000074
:102C60000000000000000000000000000000000064
:102C70000000000000000000000000000000000054
:102C80000000000000000000000000000000000044
:102C90000000000000000000000000000000000034
:102CA0000000000000000000000000000000000024
:102CB0000000000000000000000000000000000014
:102CC0000000000000000000000000000000000004
:102CD00000000000000000000000000000000000F4
:102CE000C0FF030000000000001E00C0FF0700003E
:102CF00000000000FE00C0FF07000000600000FFB1
:102D000007C0FF07000000FC0000FF3FC0FF0300FA
:102D10000080FF0000FFFF00FE000000C0FF0080F9
:102D2000DFFF03FE000000FCFF00801FFF03FE002A
:102D30000080FF7F00800FFCFFFF7F00F0FF0F008F
:102D4000C00FE0FFFFFF01FEFF0300C03FE0FFFFF9
:102D5000FFC3FFFF0300C0FFE0FFFFFFFBFFFF011A
:102D600000C0FFF3FFFFFFFFFFFE000000FFFFFFBB
:102D7000FFFFFF0F7F000000F8FF070080FF813F8B
:102D8000000000C0FF0700003F801F00000000FEA1
:102D900007000006C00F00000000F007000000E080
:102DA0000700010000E007000000F0030001000040
:102DB000E007000000F80380030000E007000000C7
:102DC000FC0180030000E007000000FC008003001D
:102DD00000E007000000FE00C0070000E007000060
:102DE000007F00C0070000E0070000803F00C00730
:102DF0000000E0FFFFFFFF1F00C0070000E0FFFF33
:102E0000FFFF0F0080030000E0FFFFFFFF0700004F
:102E1000000000C0FFFFFFFF030000000000C0FF34
:102E2000FFFFFF03000000000000000000000000A2
:102E30000000000000000000000000000000000092
:102E40000000000000000000000000000000000082
:102E50000000000000000000000000000000000072
:102E60000000000000000000000000000000000062
:102E70000000000000000000000000000000000052
:102E8000F0017C001FC007F0010000FC0FFFC3FF32
:102E9000F03FFC0F0000FFFFFFFFFFFFFFFF3F00C1
:102EA00000FFFFFFFFFFFFFFFF3F0000FFFFFFFFEF
:102EB000FFFFFFFF3F0000FFFFFFFFFFFFFFFF3FA0
:102EC000000007F0017C001FC00730000000000078
:102ED00000000000000000000000000000000000F2
:102EE00000000000000000000000000000000000E2
:102EF00000000000000000000000000000000000D2
:102F000000000000000000000000000000000000C1
:102F100000000000000000000000000000000000B1
:102F200000000000000000000000000000000000A1
:102F30000000000000000000000000000000000091
:102F40000000000000000000000000000000000081
:102F500000000000FCFF000000000000000000FE78
:102F6000FF010000000000001800FEFF01600000EB
:102F70000000003C001EE001F000000000007E00A8
:102F80001EE001F80100000000FC001EE001FC0052
:102F900000000000F8011EE0017E0000000000F0CB
:102FA000033EF0013F0000000000E001FEFF011EB3
:102FB0000000000000C000FEFF010C000000000047
:102FC00000C0FFFF0F00000000000000E0FFFF1F37
:102FD00000000000000000F0FFFF3F0000000000C4
:102FE0000000F81FE07F00000000000000FC0780E8
:102FF000FF00000000000000FC0100FE00000000D7
:10300000000000FE0000FC010000000000007F0046
:1030100003F8030000000000003F8007F0030000F9
:10302000000000801FC00FE0070000000000801FAC
:10303000C00FE0070000000000C00FC00FC00F006D
:1030400000000000C00FC00FC00F0000000000C053
:103050000F8007C00F00000000FFC1078007800F2E
:10306000FE030000FFC1078007800FFE030000FF82
:10307000C1078007800FFE030000FFC10700038027
:103080000FFE030000FFC1070003800FFE030000D6
:1030900000C0070003800F0000000000C00F000305
:1030A000C00F0000000000C00F0003C00F000000B0
:1030B0000000800F0000C0070000000000801F001B
:1030C00000E0070000000000001F0000E003000017
:1030D000000000003F0003F0030000000000007E3D
:1030E0000003F801000000000000FE0000FC0100E9
:1030F0000000000000FC0300FF00000000000000D2
:10310000F80FC07F00000000000000F03FF03F001B
:10311000000000000000F0FFFF3F00000000000082
:1031200040C0FFFF0F080000000000E000FFFF03A9
:103130001C0000000000F001FEFF013E0000000046
:1031400000F801E01F007E0000000000FC0000000D
:1031500000FC00000000007E00000000F8010000FC
:1031600000003E00000000F001000000001C000014
:103170000000E000000000000800800700400000A0
:1031800000000000008007000000000000000000B8
:103190008007000000000000000000800700000021
:1031A0000000000000008007000000000000000098
:1031B0000080070000000000000000008007000001
:1031C0000000000000000080070000000000000078
:1031D0000000800700000000000000000000000068
:1031E00000000000000000000000000000000000DF
:1031F00000000000000000000000000000000000CF
:1032000000000000000000000000000000000000BE
:1032100000000000000000000000000000000000AE
:10322000000000000000000000000000000000009E
:10323000000000000000000000000000000000008E
:103240000000000000000000000000F0FF0000008F
:10325000000000001800FEFF078001000000003C95
:1032600080FFFF1FC003000000007CE0FFFF7FE045
:1032700003000000003EF8FFFFFFC1070000000050
:103280001FFC1F80FF830F000000801FFE0300FC57
:10329000871F000000800FFE0100F8071F000000DC
:1032A000C0077F0000E00F3E000000C0873F000F16
:1032B000C01F3E000000E0C31F000F803F7C0000E5
:1032C00000E0C30F000F003F7C000000F0E10700AA
:1032D0000F007EF8000000F0E103000F007CF80012
:1032E0000000F8F003000F00FCF001000078F0018E
:1032F000000F00F8E001000078F800000F00F0E196
:1033000001000078F800000F00F0E101000078F8FB
:1033100000000F00F0E101000038F800000F00F09D
:10332000C10100003C7800000F00E0C10300003C38
:103330007800000F00E0C10300003C7800000F009F
:10334000E0C10300003C7800000F00E0C103000072
:103350003C7800000F00E0C10300003C7800000F43
:1033600000E0C10300003C7800000F00E0C1030052
:10337000003CF800000F00F0C10300003CF8000022
:103380000F00F0C103000038F800000F00F0C10189
:10339000000078F800000F00F0E101000078F00173
:1033A000000000F8E001000078F001000000F8E003
:1033B000010000F0F003000000FCF0000000F0E16C
:1033C000070006007EF8000000F0E107000F007E15
:1033D000F8000000E0C30F801F003F7C000000E009
:1033E000831F801F801F7C000000C0873F000FC02C
:1033F0001F3E000000C0077F0006E00F3E000000F7
:10340000C00FFE0100F8073F000000801FFC07000E
:10341000FE831F000000003FF87FE0FFC10F0000A7
:1034200000003EF0FFFFFFC007000000007CC0FF6F
:10343000FF3FE003000000003880FFFF1FC00100D5
:103440000000001800FCFF038001000000000000E5
:10345000801F0000000000000000000000000000CD
:10346000000000000000000000000000000000005C
:10347000000000000000000000000000000000004C
:10348000000000000000000000000000000000003C
:10349000000000000000000000000000000000002C
:1034A000000000000000000000000000000000001C
:1034B000000000000000000000000000000000000C
:1034C00000000000000000000000000000000000FC
:1034D00000000000000000000000000000000000EC
:1034E00000000000000000000000000000000000DC
:1034F0000000000000001F000000000000000000AD
:10350000803F000000000000000000803F0000003D
:10351000000000000000803F0000000000000000EC
:1035200000803F000000000000000000803F00001D
:1035300000000000000000803F00000000000000CC
:10354000000080FFFF030000000000000080FFFF7C
:10355000030000000000000080FFFF0300000000E7
:1035600000000080FFFF0300000000000000803F1B
:10357000000000000000000000803F00000000008C
:1035800000000000803F00000000000000000080FC
:103590003F00000000000000000080FFFF0300006B
:1035A000000000000080FFFF03000000000000009A
:1035B00080FFFF030000000000000080FFFF030009
:1035C000000000000000803F00000000000000003C
:1035D00000803F000000000000000000803F00006D
:1035E00000000000000000803F000000000000001C
:1035F0000000803F00000000000000000080FFFF8E
:10360000030000000000000080FFFF030000000036
:1036100000000080FFFF030000000000000080FFAA
:10362000FF0300000000000000803F0000000000D9
:1036300000000000803F000000000000000000804B
:103640003F000000000000000000803F000000007C
:103650000000000000C07F000000000000E07C00CF
:10366000C07F00C0E7000000FCFF07E0FF00FCFF98
:10367000070000FCFF7FE0FFC0FFFF070000FCFF2A
:10368000FFE0FFE0FFFF070000F88FFFC07FE03F93
:10369000FE0300000000F8C07FE00300000000000F
:1036A0000000803F000000000000000000000E004D
:1036B000000000000000000000000000000000000A
:1036C00000000000000000000000000000000000FA
:1036D00000000000000000040000000000040000E2
:1036E00000001E001E000F000F000000003E807F43
:1036F000C03F800F00000000FCE0FFFFFFE007007C
:10370000000000F8FFFFFFFFFF0300000000F0FFD4
:10371000F3FFF9FF0100000000C07FC07FC07F0001
:1037200000000000001F803F001F0000000000009C
:1037300000000E000000000000000000000000007B
:103740000000000000000000000000000000000079
:103750000000000000000000000000000000000069
:103760000000000000000000000000000000000059
:103770000000000000000000000000000000000049
:103780000000000000000000000000000000000039
:1037900000000000000000000000000000000070B9
:1037A0007000000000000000000870708000000041
:1037B000000000001C78F0C0010000000000003E86
:1037C0003CE0E1030000000000003C3CE0E10100BF
:1037D00000000000007C1EC0F3010000000000009B
:1037E000781EC0F300000000000000F00F807F0092
:1037F000000000000000F00F807F000000000000CB
:10380000F0FF0700FF7F0000000000F8FF0300FE4C
:10381000FF0000000000F8FF0300FEFF00000000B2
:1038200000F0FF0700FF7F0000000000008007009D
:103830000F00000000000000000F800700000000E3
:10384000000000000F800700000000000000001EC4
:10385000C00300000000000003001EC003000600BB
:1038600000008003003CE001000E00000080070023
:103870007CF001000F000000000F0078F0008007CE
:10388000000000000F00F8F8008007000000001F93
:1038900000F07800C007000000001E00F07D00C0AE
:1038A00003000000003E00E03F00E00300000000D5
:1038B0003C00E03F00E001000000007C00C01F0071
:1038C000F001000000F8FFFFFFFFFFFFFF00000016
:1038D000F8FFFFFFFFFFFFFF000000F8FFFFFFFF03
:1038E000FFFFFF000000F8FFFFFFFFFFFFFF0000EA
:1038F00000007C00E03F00F001000000003E00E01E
:103900003F00E003000000001E00F07D00C0030047
:103910000000001F00F07800C007000000000F004A
:1039200078F0008007000000800F0078F000800F22
:103930000000008007003CE001000F000000C00311
:10394000003EE003001E0000008001001EC00300D6
:103950000C0000000000000F8007000000000000C5
:1039600000000F8007000000000000008007000F2B
:1039700000000000000000C007001F000000000061
:1039800000F8FF0300FEFF0000000000F8FF030046
:10399000FEFF0000000000F8FF0300FEFF00000033
:1039A000000000F80700FF00000000000000F8071A
:1039B00000FF00000000000000780F80F70000000A
:1039C000000000003C0E80E3010000000000003C0D
:1039D0001EC0E3010000000000001E3CE0C1030027
:1039E00000000000001E3CE0C103000000000000D9
:1039F0000C78F080010000000000000038E00000BA
:103A00000000000000000010400000000000000066
:103A100000000000000000000000000000000000A6
:103A20000000000000000000000000000000000096
:103A30000000000000000000000000000000000086
:103A40000000000000000000000000000000000076
:103A50000000000000000000000000000000000066
:103A60000000000000000000000000000000000056
:103A7000000000000000000000000000000000E066
:103A800001003C00000000000000FC39E0FC0100E7
:103A90000000000000FE79F0FC03000000000000C0
:103AA000FFF9F8FC070000000000001FF8FDC00748
:103AB00000000000000006F07F000300000000008E
:103AC0004000C01F00100000000000E001C01F0007
:103AD0003C0000000000E001800F003C00000000FE
:103AE00000E0010007003C0000000000F0000000C2
:103AF00000780000000000F000800F007800000057
:103B000000000000800F000000000000000000C066
:103B10001F000000000000000080FFFF0F000000F9
:103B200000000000F8FFFFFF00000000000000FEA2
:103B3000FFFFFF030000000000C0FF9FCFFF1F003A
:103B400000000000F0FF800FF87F0000000000F888
:103B50000F000780FF0000000000FE03000000FED1
:103B600003000000007F00000000F007000000C01C
:103B70003F00800F00E01F000000E00F00800F00FA
:103B8000803F000000F00300800F00007E00000076
:103B9000F80100800F0000FC000000FC0000800F16
:103BA0000000F80100007C0000800F0000F0010020
:103BB000007C0000800F0000F0010000FC0000808D
:103BC0000F0000F8010000F80100800F0000FC0069
:103BD0000000F00300000000007E000000E007008D
:103BE000000000003F000000C00F00800F00801F99
:103BF000000000801F00800F00C00F000000003F89
:103C000000800F00E007000000007E00800F00F041
:103C10000300000000FC00800F00F801000000001D
:103C2000F801000000FC0000000000F003000000AC
:103C30007E0000000000E007800F003F0000000051
:103C400000C00FF8FF801F0000000000801FFEFF73
:103C5000C30F000000000000BFFFFFEF07000000DF
:103C6000000000FEFFF8FF03000000000000FC0F52
:103C700080FF01000000000000F80300FE000000CB
:103C800000000000F001007C00000000000000E0E7
:103C900000003800000000000000000000000000EC
:103CA0000000000000000000000000000000000014
:103CB0000000000000000000000000000000000004
:103CC00000000000000000000000000000000000F4
:103CD00000000000000000000000000000000000E4
:103CE00000000000000000000000000000000000D4
:103CF000002200250028002B002E00310034000295
:103D0000010000050108010B010200000A0B020975
:103D10000C0D0E0807030401000000000000000065
:103D20000000000000000000000000000000000093
:103D30000000000000001211100000000000000050
:103D40000000000000000000000000000000000073
:103D5000AB00030304040304061310FCFD09FD0A71
:103D6000FE018B03300A41200500CC112107A2C4BB
:103D7000114F04220843ED12112D0123158AC4B5F9
:103D800094A0842629492294D1481291498612018F
:103D900024138AC4D593A084269B896892518826CF
:103DA000994E00251498C434A22CA1905012078477
:103DB0002342514A284902261398443443514C1453
:103DC0001C8A622235896C428900270641ED110464
:103DD000280DC43452129144A437914C00290DC4CB
:103DE000331232914CA4179144042A0733FD1391E6
:103DF0001C2B0A55D553C1502918022C0842B41166
:103E00001409002D0614DC12042E0622C411042FFE
:103E10000BB43C525A44BA889400300B96C4331405
:103E2000113F492800310893C553918A3E320B96C1
:103E3000C4339498509B3603330E96C433949850F1
:103E4000692A9C492800341097C49352E12C220A15
:103E5000894292A35402350F96C4532499901412A8
:103E60000A67120A00360C96C473DA2A224E120A26
:103E700000370E97C41347A9502A940AA542003868
:103E80000E96C433141193842262925000390C961A
:103E9000C433141127094D23003A0762C4114402A8
:103EA0003B0982B411448A04003C0A745573218989
:103EB00069240B3D0734DD1344023E0B7455133166
:103EC000D1C8228A013F0FA5443393904C693292A6
:103ED00043642200401EBCC416A24928251A524A37
:103EE0008D842872444945129B4546A1491C1439CA
:103EF0005000411199449571C0782A114A644A17BB
:103F0000295500420D9744141619DB49C6768800DE
:103F1000430C97445424D95467598802440D98C4DB
:103F200014269944C837890900450B96C41387A005
:103F30006245A868460C96C41387A06245A8110084
:103F4000470F98C45425E158C94894C844150048FF
:103F50000B98C414428E87224701490792C4110F5F
:103F6000044A0894C452FAA9024B1298C414429A03
:103F700044A422234A6422358950004C0896C41375
:103F800042FD684D14994435D1904C32BB1C2296A9
:103F9000096542999042024E10994415616AD146D2
:103FA000119124346355004F0D994455351529AFAF
:103FB0001299AC04500C96C4131511D345A81100E6
:103FC000510FB93455351529AF1299AC283E04521A
:103FD0001297441425159144242949442A22894CD6
:103FE00000530D96C43314D970485C9350005409A3
:103FF00096C41326A17E02550C98C414427E948860
:10400000642400561299C41452AA442692A9082581
:10401000D2F11C100457189B4416B2186924914C15
:10402000449289EC109B0C27D358381603581099EA
:10403000C41452894C453A5E95C854A402590D984F
:10404000C4144289481B55AC1B005A0C98C4345701
:1040500065A9B2547A085B08A33C1215FD325C0CCA
:10406000B53B1232A14C6DA651265D08A33C12133C
:10407000FD525E10854C33939824228B244562C1F7
:1040800010005F0617B41307600F86CC133749443E
:104090002694492292830061096645344B9C24058D
:1040A000620CA64514428D1511A70B00630A6445E6
:1040B0003395914A6400640AA64594BA9C38490A2B
:1040C000650A65C5331309C52224660CA5C472228E
:1040D000351149A61300670C962D344B9C24C5D18D
:1040E0008402680BA64514428D15114F026908928F
:1040F000C411A443016A0AC4AB51CA227D51026BA8
:104100000DA6C513429D2812924427016C07A2C434
:10411000110F066D0E68C51517158A8422A148284F
:104120000A6E0966451415114F026F0B664534146B
:104130001127090500700C962D14918988D345A884
:1041400008710A962D344B9C24450D720A64C512E1
:10415000128A4813007309644533A5A50A00740B3D
:1041600085C452315145A651027509664514229EF7
:104170002405760D67C41332899244369CC60077B5
:1041800010694415A2106522394D6612612C04781D
:104190000C67C4133289DA70265113791097AC1367
:1041A000328948A2461B0E854321007A0A66C41351
:1041B000364599CC007B0CC4B452129116994837FD
:1041C000017C07D1AD1107037D0DC4B412329136C5
:1041D00089481711007E0826DC33221500A005004F
:1041E000CC11A1138D449775C0647A90552A8743EA
:1041F000E550391C0AA20B854C53A291A8A496083D
:10420000A317A9CD56B568240E90468412494424BC
:104210009989829168AC04A418A9CD56B568240E7A
:10422000104542B2982C268A84E48048345602A570
:10423000148ACC35A1584492FF148B4323A14848DB
:1042400014C90FA622CCC4767158240E8A44C473B4
:10425000D0240E1847324552261151641299442633
:10426000E1581C3207A721CCC476A169240E8A44E8
:10427000C473D0240E184E324E26A188649216992B
:10428000846371C81C00A81BBBC516C19458D6F026
:1042900038428C842492682C1A0CA5C424B238307D
:1042A00000A920BBC536A14828228B89B246D2522C
:1042B0006291D9241689A5A4869264314928128A6C
:1042C00000AA16BBC516C19458D6F01C509354646E
:1042D00075C0381ACB124CAB16A94C5511D2F02030
:1042E00092CA01922C922C922C7240E402AC0A5594
:1042F000DD13D194986800AD0614DC1204AE15AB42
:1043000044F6B0D050C474181D469611932C328DCB
:104310000D01AF1159CD1571485224228A442459F8
:10432000246901B00F97CB33C2502C141409C3D9A0
:104330000102B109544D5392BC8802B20A53CD1206
:104340001195882800B30A63CD12A19024A212B45B
:1043500008524D12914C01B50B96AD13229E0E439F
:104360004500B619CB3C5691D4506A2C8E743B4C08
:104370000E92C8295411CE910E1300B712A7C45340
:104380002149622422499C8466A5B61900B80833E5
:10439000AD32A20900B90C85443393984ACA682DFE
:1043A00004BA0A44F4329290282201BB17A94C1592
:1043B000074928E9120748B248B248B2C8019168D3
:1043C000E420BC11994415D2DA64AD2C9588289369
:1043D00034A300BD0EA944D562AA1C40244E37CB9D
:1043E00001BE18AAC435E34A2C45140B494A11935F
:1043F000A41432452A29A51000BF198F449877408C
:104400001C108BC44191C8C1143A85A8A483690EBD
:104410009800C014C9C47472881C290E184F254214
:10442000894CE922A50AC113C9C4B46239521C30AF
:104430009E4A841299D2454A15C215C9C494714046
:10444000248E14078CA712A144A674915205C3159B
:10445000C9C4749260448E14078CA712A144A67438
:10446000915205C415C9C45412A1448E12078CA7D9
:1044700012A144A674915205C517D9C49471402461
:104480000E88A3C501E3A9442891295DA45401C65F
:104490000F9A4596363255229590146DDA0AC70F59
:1044A000C72C5424D954675988280ECA00C80EC690
:1044B000C4335239E41054AC08150DC90DC6C47389
:1044C000EA904350B1225434CA0FC6C473C1481C89
:1044D00070082A56848A06CB0DC6C4333A1F828AD6
:1044E00015A1A201CC09C3C31122A1447FCD09C3E8
:1044F000C4314489FE02CE0AC3C431D924FA0B0068
:10450000CF0BC5C311128A58A63F01D01299C334EC
:104510003625A1447892082542894C6402D114C9F9
:1045200044759260440E0D538B368A8824A119ABD2
:1045300002D211C9447572881CA1A622E5552293A6
:104540009500D310C944B56239424D45CAAB4426E3
:104550002B01D412C944957140248E505391F22AF4
:1045600091C94A00D512C944759260448E50539146
:10457000F22A91C94A00D612C9445512A1440EAE7E
:10458000A9487995C8642500D70B86CC33143B80A5
:10459000C40B00D81599445595884C22AC45482148
:1045A0004AAC289149422400D90FC8C45472801CD7
:1045B00028E44789484602DA0EC8C494523950C8E4
:1045C0008F12918C04DB0FC8C494E1481C26E44789
:1045D00089484602DC10C8C4541299440E12F2A352
:1045E00044242301DD0FC8C49452395045A48D2AB8
:1045F000D60D00DE0C96C413C28A88D3452804DF8A
:104600000DA6453423895E2A224E1700E00C9645FC
:104610003452396832E22429E10C964574EAA0C983
:104620008893A400E20C964574C1481CB2C4495258
:10463000E30D964554921439648993A400E40C96D2
:104640004534BA0326234E9202E50EA64574C148AE
:10465000300E9A8C38490AE60E6A453687884844F7
:104660001231A98E08E70D942D3395914A64228B5F
:104670008800E80D95C53342396022A1588404E9C9
:104680000D95C57322396022A1588404EA0E95C5A0
:1046900053B1481C3091502C4202EB0D95C51312BA
:1046A0008A7822A1588404EC0993C31122A1440FF3
:1046B000ED0993C43144895E00EE0993C431D924D5
:1046C0007A01EF0B95C311128A58A62700F00FA6A6
:1046D000455492982C12959C38492800F10D964526
:1046E00054921439A022E24900F20D964534523911
:1046F0008822E224A100F30C964574EA208A88936C
:104700008402F40E964574C1481C42117192500007
:10471000F50E9645549214398422E224A100F60D38
:10472000964534BA0328224E120A00F70A634C1247
:10473000A15828160AF811664D5492A44828220957
:10474000454291880800F90C964534523944C49387
:10475000A400FA0B964574EA10114F9202FB0C96D6
:104760004574C1481C20E24952FC0A9645343A8BF4
:10477000789214FD12C7AC93EA2099442451A30DFA
:1047800087C2A11000FE0ED62D14428D1511A78BE5
:10479000501100FF13C7AC334A123944261149D4D3
:1047A00068C3A17028040000010013B9C474749494
:1047B00038603C95082532A58B942A01010C86456A
:1047C0003474C812274901010215C9C474A1B01C70
:1047D000290E184F2542894CE922A50A01030E969D
:1047E0004534A1981C3419719214010417C9AC9472
:1047F00071C0782A114A644A1729550E8803E220AD
:104800000101050C962D344B9C24C5640101060F53
:10481000C74494EA40926CAAB32C44010107109556
:1048200045732239602289C854421300010C11C714
:10483000447491681C48924D7596852800010D0CB2
:1048400094453349E1CA482532010E11C8C4549138
:10485000701C6A9249847C939800010F17A94595B2
:1048600012A144280A4A4235914C2413C944C21A61
:104870000001101399C3343625A1447892082542CB
:10488000894C6402011113A745945259515411499E
:104890004412914424AA0001120EB6C43374C021FC
:1048A000A858112A1A01130C85C533E489846211B2
:1048B0001201160FC6C4534239E41054AC08150D4A
:1048C00001170E95C55332396022A158840401188E
:1048D0000EC6AC1387A06245A8684C1601190E9647
:1048E000AD332389169294180D0B011A10C6C453C8
:1048F00091601C72082A56848A06011B0E95C533E6
:104900006971C84442B10809011E12B8C474A1A853
:10491000B0241C2B19891299A802011F12C62D342C
:10492000A1981C341971921447130A00012212C86D
:10493000AC5425E158C94894C84475B038060123E1
:1049400011C62D5451396832E224298E26140001F3
:104950002A0AB4C3115491FE02012B0A84C31154D4
:10496000915E00012E0BC3AC1112FD251413012F13
:104970000BC3AB318A12BDA409013008B2C4111FA8
:104980000201310862C4118702013616C8AC144214
:104990009A44A422234A64223589500E1407010147
:1049A0003711D6AD13429D2812924427394418037B
:1049B00001390CC6C453323948A81F0D013A0AC345
:1049C000C43114FD1700013B0DC6AC1342FD6887CE
:1049D000086300013C0AD2AC110FA60900013D0D8D
:1049E00096C41322B65144A8D100013E0DA5C412AD
:1049F00012A64944A6370001410E97C3335295D8F9
:104A0000502A9C4A0D01420BA4C331224D265D0061
:104A1000014313C944B56239344C2DDA28229284FB
:104A200066AC0A01440C964574EA908A8827010115
:104A30004515C92C15616AD1461191243463550E70
:104A40009603820001460D962D1415114F72883081
:104A500006014715C944759138200E0E538B368ACE
:104A60008824A119AB0201480D96455491601C524F
:104A700011F124014C10B9447574704D45CAAB4412
:104A8000262B01014D0D864534740845C449420169
:104A9000015013C944951299440EADA9487995C89F
:104AA00064250001511297455412ED20928A482244
:104AB00092884424000152159D4457148B6C28158C
:104AC0004A85D28A5428551B530C01530F6A453628
:104AD000A38948441231A98E08015415C744744271
:104AE00039ACA4229288242589484524910901558E
:104AF0000C94C55212A98422D204015616C72C1454
:104B000025159144242949442A22894C0E93C60034
:104B100001570D94AD12128A483B401402015816F9
:104B2000C7445491681C5652114944929244A4229D
:104B300092C80401590D94C53249510945A4090090
:104B4000015A10C6C473EA208A6C3824AE49280082
:104B5000015B0B944553127169A902015E11C6AC49
:104B60003314D970485C93D041C21800015F0B9494
:104B70002D33A5A5B22804016012C6C45391601C50
:104B800044910D87C43509050001610C94453349F2
:104B9000E1D252050001620DC6AC1326A17E870941
:104BA000630001630FB5AC52315145A6510E90C55B
:104BB0000001640EC6C45391601C6212EA27000112
:104BC000650EA6C4924A9190AC24D42A02016A0FC1
:104BD000B8C4547498901F2522190900016B0C86E3
:104BE0004534748088274901016E11D8C494E14886
:104BF000380E14F2A344242301016F0EA64574C19C
:104C000048300E11F12429017011C8C47412914466
:104C10000E12F2A34424230101711397455412ED9F
:104C2000109144241149441291A802017210C8AC99
:104C300014427E94886454711C2202017313972DD0
:104C400014228948229288242251351C07080178B1
:104C500012C8C4541299440E124A44DAA862DD0004
:104C600001790FC8C4B4EAC0ABB254592A3D04015B
:104C70007A0C96C473EA109BA24C66017B10C8C4E0
:104C8000946239F0AA2C55964A0F01017C0D96C406
:104C9000534239C4A6289319017D11C8C474917078
:104CA0001C7A55962A4BA58700017E0E96C4539117
:104CB000601C625394C90C01920ED7ABB2425545A9
:104CC000A2AA46550003840823FD32140003850A76
:104CD00037FB72224A490003861299C43492A064B9
:104CE0003C95082532A58B942A03870722DC110402
:104CF0000388159AC0339243480E9143E490AA1C4E
:104D00002287C821060389169BC134448A50269401
:104D10000965879850269409654201038A0995C15F
:104D20003116997E038C159B4235929244A62A92A5
:104D30008AA422A9482A532D01038E159BC134440D
:104D400092AA484C87C84172901C2407C900038F5F
:104D5000149B4235929244A62A928AA422A9482AF8
:104D6000535B03900EA74372224A490E92EA2C022B
:104D700003911299449571C0782A114A644A1729FF
:104D8000550003920E9744141619DB49C676880025
:104D900003930A96C41387A07E0403941299C494C3
:104DA00071C0782A114A644A3289F44003950C96FE
:104DB000C41387A06245A86803960D98C43457654C
:104DC000A9B2547A0803970C98C414428E872247DC
:104DD00001039811994455351529CB844A95C86427
:104DE000250003990892C4110F04039A1398C41460
:104DF000429A44A422234A642235895000039B121C
:104E000099C49471C0782A114A644A3289942A0359
:104E10009C169BC455D1A04CB6442151489289D2CE
:104E20008834A2C504039D11994415616AD14611C5
:104E3000912434635500039E0B974414772C752CF2
:104E400007039F0E994455351529AF1299AC0403F9
:104E5000A00A98C41487217F1403A10D96C41315CA
:104E600011D345A8110003A31198441487881C206E
:104E700007C80152AD870003A40A96C41326A17E79
:104E80000203A50E98C4144289481B55AC1B0003AD
:104E9000A6129A4495629B4493882422A968330BF6
:104EA0000103A71199C41452894C453A5E95C85420
:104EB000A40203A8149AC41522114944129144244F
:104EC000156D6639440803A90E994455351529AF67
:104ED0001299643603AA0CC54312128A58A63F01E0
:104EE00003AB12C8C4541299440E124A44DAA862A1
:104EF000DD0003AC0C964574EAA01327490103AD0D
:104F00001195457322396022898C6492D004000384
:104F1000AE0DC62D74EA908A8827A10603AF0A93C6
:104F2000453244894E0203B015A74574224A490E02
:104F3000104944129144241189480003B10A66457E
:104F400034274E920203B20FD5AD3313098B45C2FD
:104F5000C522530303B30D96AC132292844413EA83
:104F60000403B40FA6455414A15446117192500085
:104F700003B50B644533158A48121903B60FB435CF
:104F80001324894822D23692480003B70B962D1479
:104F900015114F420D03B80EA5C5331309CB41C2FD
:104FA00045320103B909634512129D0403BA0D6627
:104FB000C513228A8424D1490003BB1097C43352FD
:104FC000B1543A9C494412350103BC0C962D14226D
:104FD0009E0E43450003BD0E67C4133289924436CA
:104FE0009CC60003BE11C53553134944269BC834E3
:104FF000D244120003BF0C66453414112709050082
:1050000003C00E674514172589482292881403C1EE
:105010000D962D341411A78B50110003C20C84354A
:1050200033256D2389040003C310674534879044FA
:105030002411494422120003C40A64C41214913694
:105040000103C50B664514229E24140003C613D821
:105050002C74628D16158A8422A1A818C56A0003D3
:10506000C71197AC1332899244365C9388246A0244
:1050700003C815D8AC74626D1209454291502414CE
:1050800015A3580D0003C91068453522899022A147
:1050900048289A240003CA0D954412128A58A6A3E0
:1050A000040003CB0C9645343A8B7892500003CC25
:1050B0000D964574EA208A8893840203CD0D9645A7
:1050C00074EA10114F120A0003CE13984595523915
:1050D000542411522414094593040004010EC6C43B
:1050E000333A1F828A15A1A201040215994415566C
:1050F00039400E90CC466A22994826924C0004030F
:105100000CC6C473EA9043503F0204041097445401
:1051100024D9546A918A65210A0004050E96C43385
:1051200014D970485C93500004060892C4110F040F
:1051300004070CC5C311128A58A63F01040809943C
:10514000C452FAA9020409189CC4365799542695EA
:1051500049652599482213496422620500040A170B
:105160009B441632A14C2813CA8487894C4413D11E
:1051700044B40A00040B139944155639400EB02963
:10518000C94432914C2413040C15C8C494523950AC
:105190002611E922234A642235895000040E12C8E0
:1051A000C454A972A08A481B752A960AA700040F46
:1051B0000DB8B41442FE789849850004101299C4C1
:1051C0009471C0782A114A644A1729550004110EB7
:1051D00097441416A9AA45C676880004120E97446F
:1051E000141619DB49C676880004130A96C413877F
:1051F000A07E0404140DB8B43426FD7F394CC501DB
:1052000004150C96C41387A06245A8680416169C62
:10521000C416C29844A43789AA55A2265291C986B9
:10522000D10004170F96C433949850692A9C4928DA
:1052300000041811994415E229B166925044B6222F
:105240005500041914C94475A1B01C2A9E126B267E
:105250000945642B5205041A1298C4143289481760
:1052600019512213A9498402041B1498C4341799B4
:10527000442691496412994426911105041C1599FC
:105280004435D1904C32BB1C22960965429990421C
:1052900002041D0C98C414428E87224701041E0E7E
:1052A000994455351529AF1299AC04041F0A98C4C6
:1052B0001487217F1404200D96C4131511D345A81B
:1052C000110004210D97445424D9546759880204CD
:1052D000220A96C41326A17E0204231098C4144205
:1052E00089481B752A960AA7000424129AC495625D
:1052F0009B4493882422A968330B01042511994407
:105300001552894C453A5E95C854A402042618B833
:10531000B41432894C2293C82432894C2293C82475
:1053200087B0540204270B97441432DE24560D0430
:1053300028169A45162211494412914424114944D1
:10534000129144870204291CBA35162289924449D5
:10535000A2245192284994244A12C9610E9103242F
:1053600000042A0D98C41464CD35919E2A00042BA4
:105370001099C41552AE2792842421494E02042C60
:105380000D964414428D1511D30500042D10974439
:1053900034A498582AB14A67221200042E169CC4DD
:1053A00016B2929A449522BD52A414294926919589
:1053B00000042F129744541591442411894A122550
:1053C00089882604300A6645344B9C240504310E36
:1053D000A6459422996245C449420104320C65C530
:1053E0001314894542B10004330964C512269D0097
:1053F00004341177BC53B4884822928824924334F1
:105400000004350B65C5331309C5222404360E6824
:105410004515120945896651A12804370B644513C7
:1054200033894C540104380C664514B211C5429AB4
:1054300009043910964534A1981C221B512CA499BB
:1054400000043A0C65C513124A8922A108043B0FD7
:10545000674434169144241149443401043C1067D4
:105460004434B1904424914C0E958800043D0B6661
:10547000451422D261C424043E0C6645341411271D
:10548000090500043F0A66451487104F0204400DC9
:10549000962D14918988D345A80804410B6445339F
:1054A00095914A640004420A66441326A14E000402
:1054B000431197AC13328948A2461B0E8543210045
:1054C000044413D82C74628D16158A8422A1A8185E
:1054D000C56A0004450D67C4133289DA702651137A
:1054E0000446128735142289482292882422C95101
:1054F000090004470B65C5131216094D0104481134
:1055000068C5151209454291502414C96100044927
:105510000D89B51512FD7F39889500044A0E674440
:105520001454294D2292882800044B0E68451542D8
:10553000A28922A1484C02044C0C65C513321945BE
:1055400042B100044D0C64451393886434A90004EF
:105550004E0F69C515228AD28922A2885800044FAD
:105560000B654433168A8462110000204552524F65
:10557000523A2043616E6E6F74207265736F6C7661
:1055800065207469746C6520696E64657800005EDE
:10559000BCE2613FDD83C29C7E20A3FD1F419DC311
:1055A000217FFCA2401E5F01E3BD3E6082DC237DC3
:1055B0009FC1421CFEA0E1BF5D0380DE3C62BEE0F5
:1055C000025CDF81633D7C22C09E1D43A1FF461823
:1055D000FAA427799BC584DA3866E5BB5907DB85D1
:1055E0006739BAE406581947A5FB7826C49A653B83
:1055F000D987045AB8E6A7F91B45C6987A24F8A6B5
:10560000441A99C7257B3A6486D85B05E7B98CD2E2
:10561000306EEDB3510F4E10F2AC2F7193CD114F90
:10562000ADF3702ECC92D38D6F31B2EC0E50AFF142
:10563000134DCE90722C6D33D18F0C52B0EE326C74
:105640008ED0530DEFB1F0AE4C1291CF2D73CA94A2
:105650007628ABF517490856B4EA6937D58B570950
:10566000EBB536688AD495CB2977F4AA4816E9B702
:10567000550B88D6346A2B7597C94A14F6A8742A34
:10568000C896154BA9F7B6E80A54D7896B350A3D79
:105690003D3D3D3D3D3D3D3D3D3D3D3D3D3D3D3D3A
:1056A0003D3D3D3D3D3D3D3D3D3D3D3D3D3D3D3D2A
:1056B0003D3D3D3D3D3D3D3D3D3D3D3D3D3D3D3D1A
:1056C0003D3D3D3D3D3D3D3D3D3D3D3D3D0A0A00AD
:1056D0000A0A3D3D3D3D3D3D3D3D3D3D3D3D3D3D60
:1056E0003D3D3D3D3D3D3D3D3D3D3D3D3D3D3D3DEA
:1056F0003D3D3D3D3D3D3D3D3D3D3D3D3D3D3D3DDA
:105700003D3D3D3D3D3D3D3D3D3D3D3D3D3D3D3DC9
:105710000A003E20003E200073746F7000646267D0
:105720000053657473205472697020432072616E57
:10573000676520005365747320547269702043209C
:105740006675656C2000536574732054726970200F
:10575000422072616E676520005365747320547235
:1057600069702042206675656C2000536574732053
:105770005472697020412072616E67652000536524
:10578000747320547269702041206675656C200026
:1057900053415645442074726970206461746120DD
:1057A00000547269702064697374616E63652000CF
:1057B000576865656C2053696D756C6174652072FE
:1057C0006573697374616E63652000536176656407
:1057D00020416C6C206461746120616E642072658C
:1057E00073657474696E672E2E2E0053617665643E
:1057F00020416C6C206461746120005361766564A3
:1058000020576F726B2064697374616E636520004A
:1058100050617373696E672076616C756520746F73
:105820002063617253656E732064726976657200DD
:1058300045435520636F7272656374696F6E200013
:1058400044535420636F7272656374696F6E2000F5
:1058500056535320636F7272656374696F6E2000D4
:10586000576F726B2064697374616E6365200054B6
:10587000726176656C2064697374616E6365200083
:10588000424E5A206675656C2000626E7A004C505C
:1058900047206675656C20006C706700204E6F6E47
:1058A00065202E2E2E20536F727279212000000069
:1058B00020002300260029002C002F0032000001C8
:1058C0000000030106010901050505050705080893
:1058D0000808020202020A0A08080404040401017A
:1058E000010101010101030303030303030304078F
:1058F00007070C0C0C0C0C0C0C0C02020202060626
:105900000606060606060B0B0B0B0B0B0B0B010218
:1059100010202008081020401020408002010201C1
:105920000804020101020408102040808040201079
:1059300008040201800402018040201008040201D2
:10594000080402010102040810204080010204083A
:10595000102040809488458E11241FBECFEFD1E2E5
:10596000DEBFCDBF00E00CBF15E0A0E0B2E0E0E399
:10597000F7E301E00BBF02C007900D92AA33B10715
:10598000D9F72EE0AAE3B5E001C01D92AC31B20711
:10599000E1F71CE2CBEADCE200E006C02197010956
:1059A000802FFE010E94A497CA3AD10780E0080721
:1059B000A9F70E94A1750C94879B0C9400002F926C
:1059C0003F924F925F926F927F928F929F92AF928F
:1059D000BF92CF92DF92EF92FF920F931F93CF93DC
:1059E000DF93CDB7DEB7C05ED1090FB6F894DEBF46
:1059F0000FBECDBF5C01DC0112968D919C91139777
:105A000004960E9409641E01B1E82B0E311C80919E
:105A100040058D3011F40C945736A0F4843011F405
:105A20000C94D53940F4813009F4FBC1823011F473
:105A30000C94D3361EC08B3009F41AC48C3009F490
:105A400093C617C0833611F40C94E93B48F48531B2
:105A500011F40C943838863111F40C94223909C0B1
:105A6000853611F40C94CC3B20F08957843008F42F
:105A7000E1C6F501178A60911102709112028281CC
:105A80009381B3E2EB2EBFE4FB2EDC011796FC9270
:105A9000EE92169704960E942A52F501148D8111F8
:105AA00026C0112329F0113041F0148E0C94053CCE
:105AB00081E0858B148A0C94053CF50186859785D9
:105AC0000E946D44D5015296ED91FC915397128737
:105AD000178612968D919C9113970E943644F5017A
