:100000000C94C2230C9476580C944B580C942058A2
:100010000C94F5570C94CA570C949F570C94745732
:100020000C9449570C94F3230C94F3230C94F3236E
:100030000C94F3230C943A5D0C94F3230C94F32367
:100040000C94F3230C94F3230C94F3230C94F323D8
:100050000C94F3230C94F3230C94F3230C94613D40
:100060000C94F3230C9465620C943C620C94F3237F
:100070000C94F3230C94F3230C94F3230C94F323A8
:100080000C94F3230C94F3230C94F3230C94F32398
:100090000C94F3230C94F3230C94F3230C94A158A5
:1000A0000C94F3230C94F3230C94F3230C94F32378
:1000B0000C94F3230C94F3230C94F3230C94F32368
:1000C0000C94F3230C94F3230C94F3230C941362F9
:1000D0000C94EA610C94F3230C94F3230C94F32313
:1000E0000C94F323FD510552DD51E551ED51F551CD
:1000F0000D521552BD55C055AF55B355B955F755AD
:10010000C455C855CE55D255D655DC55E055E455A5
:10011000F755EA55EE55F2558A568F5694569E5627
:10012000A8562157B256BA56C256CC56D656E056A5
:10013000EF56F956215703570D5717574E414E4961
:100140004E495459494E46CDCCCC3D0AD7233C1795
:10015000B7D13877CC2B329595E6241FB14F0A00E2
:100160000020410000C84200401C4620BCBE4CCAD2
:100170001B0E5AAEC59D7400407A10F35A00A0724F
:100180004E18090010A5D4E80000E87648170000D2
:10019000E40B54020000CA9A3B000000E1F50500A0
:1001A0000080969800000040420F000000A08601E9
:1001B000000000102700000000E8030000000064B9
:1001C00000000000000A0000000000010000000024
:1001D000002C76D888DC674F0823DFC1DFAE59E1F9
:1001E000B1B796E5E3E453C63AE651997696E8E668
:1001F000C28426EB898C9B62ED407C6FFCEFBC9C3B
:100200009F40F2BAA56FA5F490055A2AF75C936B4C
:100210006CF9676DC11BFCE0E40D47FEF520E6B507
:1002200000D0ED902E0300943577050080841E08E1
:100230000000204E0A000000C80C333333330F98FF
:100240006E12831141EF8D2114893BE65516CFFEC6
:10025000E6DB18D1844B381BF77C1D901DA4BBE452
:1002600024203284725E228100C9F124ECA1E53D94
:100270002700002100240027002A002D0030003331
:100280000001010000040107010A01526573746F47
:1002900072652056616C75653A000A0A0A3D3D3D5B
:1002A0003D3D3D3D3D3D3D3D3D3D3D3D3D3D3D3D7E
:1002B0003D3D3D3D3D3D3D3D3D3D3D3D3D3D3D3D6E
:1002C0003D3D3D3D3D3D3D3D3D3D3D3D3D3D3D3D5E
:1002D0003D3D3D3D3D3D3D3D3D3D3D0A0A000A2041
:1002E000090920205B4D494420245D3E204166667B
:1002F00065637465642076616C7565206F662000A7
:100300000A0A3D3D3D3D3D3D3D3D3D3D3D3D3D3D83
:100310003D3D3D3D3D3D3D3D3D3D3D3D3D3D3D3D0D
:100320003D3D3D3D3D3D3D3D3D3D3D3D3D3D3D3DFD
:100330003D3D3D3D3D3D3D3D3D3D3D3D3D3D3D3DED
:100340000A005365747320547269702043207261EF
:100350006E67652000536574732054726970204382
:10036000206675656C200053657473205472697043
:1003700020422072616E67652000536574732054BB
:100380007269702042206675656C20005365747335
:10039000205472697020412072616E67652000539D
:1003A00065747320547269702041206675656C20F5
:1003B00000576865656C2053696D756C61746520C4
:1003C000726573697374616E63652000536176654D
:1003D0006420416C6C206461746120616E642072E1
:1003E0006573657474696E672E2E2E005361766591
:1003F0006420416C6C2064617461200053617665F7
:100400006420576F726B2064697374616E6365203A
:100410000050617373696E672076616C7565207436
:100420006F2063617253656E7320004543552063EE
:100430006F7272656374696F6E2000445354206359
:100440006F7272656374696F6E2000565353206338
:100450006F7272656374696F6E200052504D206335
:100460006F7272656374696F6E2000576F726B20D4
:1004700064697374616E6365200054726176656CA3
:100480002064697374616E63652000424E5A206671
:1004900075656C20004C5047206675656C200043E4
:1004A00068616E6765207472697020646174612090
:1004B00000547269702074696D652000547269700F
:1004C0002064697374616E63652000204E6F6E65F1
:1004D000202E2E2E20536F72727921200020467517
:1004E000656C2073746174652069732000000000DE
:1004F000004F0080200040140038CC00049C000213
:100500000001E28F0114500008200000E00000CF3D
:100510000080A00040100038C800048000020001E4
:10052000E28F01145000082000C0000020010010DC
:100530007A00100200103A00D00200D00A00D00267
:1005400000D00200D00200D00200C80400E805007C
:10055000E80500C80400180600F00300E0010000F0
:1005600000003E1021B87CFC477840344004410430
:100570004184438443C447C44784430440F83FF85C
:100580001F900990098811FC3F02400241C240C2FD
:1005900044E249F24DF24FF24FE2470420F81F00C7
:1005A0000000FC00008601003205004A0900021923
:1005B00000FE3900FE5100FE5900FE3300FE13001C
:1005C000FE2300FE4500FE8900FE0901FC8801FFB4
:1005D000F300000000000C122D2D120C001F111D45
:1005E0000E0A11171F0E1115110A0A04040000004B
:1005F000000000000000E01F001020000CC00006FA
:100600008001FCFF00F23F012210017EF801FEFF95
:1006100001FCFF003870000000000CC300068001E0
:10062000030303000000F03F00F03C00F87F00F8F7
:100630007F00FCFC00FCFC00FCFC00FEFF01FEFF58
:1006400001FEFF01FFFC03FFFC03FFFC03FFFC03B3
:10065000FFFF03FEFF01000000424E5A2076616C4E
:1006600075653A20004C50472076616C75653A20DC
:10067000006C004C50472074616E6B3A2020005291
:10068000616E67653A20002A002A002A002A00606D
:100690000005050607050707375500F13AF13A014D
:1006A00007F00FC817B72007000002CB00211387FF
:1006B000EE02ADE0FF07980F942270C110440000D5
:1006C0002222D062BFCD6230C32848110EE112470A
:1006D0002886210A528CC10C643003118E500214FA
:1006E0001000238A9D8E02CB092148420892108275
:1006F0002484200921483ACA9110822484200921A7
:1007000048420892108224841CEA20484208921031
:10071000822484200921484208928E728C0FFC07A3
:10072000A282102421044908411242908410241D01
:10073000E5500741CA07FE03D14008921082248485
:10074000200921483ACAA10E822484200921484266
:100750000892108224841CEA2847420892108224BE
:1007600084200921484208928E72240024595D9207
:10077000E2CAEBB0E74717F8B46851A83A57C988FE
:10078000521691A444200B09088B1AD49EE7D8C3B3
:100790002215B1484DA8DA5CD165AE3799B99A0AED
:1007A00055D1A42216A9883DACF39E066B8740164E
:1007B0002292940CA528242BD7A9D2B422E7C4A452
:1007C0001EF6FC16002581DE8EFECCC460C84014E7
:1007D000329484080621823988700C228E60184475
:1007E00018A328C830465190710483208529486198
:1007F0000A62948220C420C938874555C4A22A625F
:10080000117B5854452CAA2216B1874555C422F6AF
:10081000B0287B58943D2C620F8B3A853A4C7290ED
:10082000B2188434E520CF4088218E71948218025A
:1008300029053104520C71324F404E238EB48C4343
:100840002503614501002673DD8E02CBEB98CD7B3D
:100850005AB4A6549DCB2C6129C949089210822410
:10086000841CEB20C73AC8610F8B54C422156591D4
:100870008AD4642A73890C749EF39E06B58821017C
:10088000618740D83110E20C843804190E41864348
:1008900012E114443825098E41826390E01C1BAAA2
:1008A00090752CD404E43401418B50CC3256242B67
:1008B00098B9CE75AC54AD63202714C7E2BEAD62C3
:1008C0001845A84231883190810825200028434FDF
:1008D0006E07CD6860843A1062908318E420063970
:1008E000C8390E728E833A073A0E720E747650E74C
:1008F00040E70F210785CE1072107420E4A010721B
:1009000090931CE4240739C9414E728C542CA100E9
:10091000293D4F6E07CB6458053A4E7210841C0473
:100920002107410742D0819083A01342D019420E83
:1009300082CEFF3B68E740C7419DE3A0CE715006E1
:100940003988414C6290832063112D40002A3999E7
:10095000C6A6CBAAA0652D308509CA508A329062FE
:100960009406128A80842C5C6442CF6A58B31E3489
:10097000912B64010945404619194A51861298C2C3
:1009800004ADA0650A002B1396052FCDE778E78705
:100990003EF007BC73BCF321002C1087E2F6AAA13D
:1009A000085C30444184220A002D0AD6014BCDE078
:1009B0001FF0002E0DC7E102ABA1085C30C420007F
:1009C0002F429CAE02CB149908454D84A2264211B9
:1009D0007A50D444286A221435118A9A08454D84E5
:1009E00022F4A0287A50D444286A221435118A9A15
:1009F00008454D8422F4A0287A50D444286A221451
:100A00004501303D9D8E02CBEB988D8BD694AA7319
:100A1000958C2C6319CA5104B210812C24200D6AC4
:100A2000CF73FFFFFFBFF734A821E168874016228C
:100A300094A38C15C9CA75AA34ADC835F3580031D2
:100A40001B8EAE03CDE7CCA04A8A28E2031FD0C29A
:100A50003292729CF3FFFFFFFF0F325C9D8E02CB40
:100A6000EB98CD83D694AA73958C306219CA510441
:100A7000B210812C24200D6ACF73BDA7410D094708
:100A80004382D11041B864080FA1C94C2842939900
:100A900050842633A1084D2842939950842633A1CF
:100AA000084D6642119A50842633A1084D664211C2
:100AB0009AD00FFC0722334D9D8EFECAE07F20A204
:100AC00009456832138AD0642614A1C94C28429380
:100AD0009950842633A18B64A2F31E0735882A150A
:100AE000B148452C52117BFE5554111C3288868822
:100AF00063254141C9600433B2729D2A4D0C7A0CC2
:100B00002D1A0034479D8E02CB0AA9873D2AAA1EC2
:100B1000F6A8A87A54B47A54B47A54B47A54543DAA
:100B2000EC5151F5A8483912528E8494231DE640A9
:100B3000883910620E8498031DE738C8390E728E0A
:100B4000F381FF40E4107BFE770035459D8E02CB9C
:100B5000E07F20AB873DFF2388AAD065B092116D5E
:100B60006CC211ABA384642101614840DAE39EE7C3
:100B7000BCC39E3FEB3C97831AC410812C4424488D
:100B8000198C584856AE53A56945AE99C702003630
:100B9000559D8E02CBEB988D8BD694AA73958C2C99
:100BA0008219CA5104B21071B423200D72CE73ECB5
:100BB000F91B4AB2CE65B092116D6C82298A5052EF
:100BC00012928504A441ED71CF73FFDED3A0860499
:100BD0006421025988508E3256242BD7A9D2B422D0
:100BE000D7CC6301374D9D8E02CBE07F20635083CD
:100BF0001A128E8684A321E160493818220E86D00D
:100C000014452A42138A54144D28525134A14845A0
:100C1000D1842215A1298A5484A62852119A50A45D
:100C2000A26842918AA209452A425314A9084D1A82
:100C30000038609D8E02CBEB988D8BD694AA73956D
:100C40008C2C6319CA5104B210812C24200D6ACF58
:100C500073DF7B1AD490802C44200B11CA51C68AB2
:100C600064E53A559A5275AE9211A52823498940F8
:100C700016129006B5E7B9EF3D0D6A483818229074
:100C80008508E5286345B2729D2A4D2B72CD3C162E
:100C90000039549D8E02CBEB988D8BD694AA739518
:100CA0008C2C6319CA5104B210812C24200D6ACFF8
:100CB00073FF39A8410D09C84A429214A114466C29
:100CC000434732731D2B29E3B0E7B3CE7339A841F4
:100CD0000C11C842448294C1888564E53A559A56FD
:100CE000E49A792C003A1547E81EAB62181F1842A7
:100CF000F1C1AD2270C1108300003B1707E912ABB0
:100D000062181F1842F1C1AD2270C11005118A2866
:100D1000003C3092482FCB6F70442B98A19094A048
:100D2000E4A84E8292A342883A96C18A66B06321B3
:100D30002A514A52544A292AA59075B4C2116F808B
:100D4000023D105AC526CDE03FB07DF0F607FE818A
:100D50000D3E2ED2482BCB2088021C5ED10C762C67
:100D600044292A4D292A4D21CC680533D6A1109457
:100D7000EE282741A9842883158D70C30B22003FDC
:100D800042DD8E02CBEB988D8BD694AA73958C2C7A
:100D900063190A4A44A2108130A841CE79CE3BECB7
:100DA000A9A2683293A948452E7191EA668A221554
:100DB000A9873DFFDF07F78A6BDCC39EAC818906FC
:100DC0000040D57391C6F6B3F900993C9637FBCD38
:100DD0000F08F103C47392D398C7AC652E69B10AAA
:100DE000527072929D98842724594738084A4504C6
:100DF0001988920A22903415442088328738506529
:100E0000205419E82842390E420C721C741CE43834
:100E1000E8741C743A0E3A1D079D8E834EC741A795
:100E2000E3A0D371D0E938E8741C743A0E3A1D0778
:100E30009D8E834EC741A7E3A0D371D0E938E874F3
:100E40001C743A0E3A1D079D8E838E831C07212643
:100E500029D051441324F481411CE8038338D2077C
:100E60008281248F20CA098D4114339683B0031DDB
:100E700029F9004B3EC0920F2CE5034BF9C05A3EB6
:100E8000A0980F24E803E50344FCC0203F20D0AF26
:100E90007A78DBD80100416E9D8E02CBEBB04845DD
:100EA000681A55A622D7492632B00D3ACF712F774E
:100EB00084C31D0169474018220E8688831DE360A4
:100EC000C738D8311085904321E4504739D4510EAA
:100ED0007514241D05418839D0710E749C031D07BB
:100EE00039C741CC3D83911C41D4418E759063211B
:100EF000E3608740D8218E7688A31DE26848381ABF
:100F0000E41E770042779D8E02CB006A93AA90750B
:100F1000B082958C208619874AC6B1127130441C64
:100F2000ED104743C2D19070B8231CEE084743C26E
:100F3000D1907034241C0C11C74AC4A114712465CB
:100F400068232358B9CC65B09211A434E348CA3859
:100F500056220E8688A321E1684838DCEBB9E75EAB
:100F60000D094743C2C19270AC441C6911876946A0
:100F700046B07219EB546852500300433E9D8E02F6
:100F8000CB0A998D8BD694AA73958C2C8219095211
:100F900004B2908034587B9ECB9EFFFFFF7BCE7BBC
:100FA0001AD490803024200B110A4AC62218929538
:100FB000EB54695A916B26A20044399D8E02CB40B6
:100FC0005A15BA0C5632A28D4D206811C752C2D1A3
:100FD000907034241CEEF5DCFFFFFF9F7B35241C52
:100FE0000D09C752C29116B1096D64042B97A990DF
:100FF000B400451D9D8E02CBE07F20AB873DFFFFF7
:10100000AC75EC770E7BFEFF2C523FF01F8800463C
:10101000199D8E02CBE07F20AB873DFFFFAC75ECC6
:10102000770E7BFEFFFF2C0047429D8E02CB0A9974
:101030008D8BD694AA73958C2C6319095204B290A7
:1010400080B0A841ED792E7BFE1FAABFE7FEBDA7A9
:10105000410D09C84A02B292A09C452CA311DBD0D5
:1010600048563073A1261CEB200748159D8E02CBF5
:10107000E078EEFFFFDFFBC0FF9EFBFFFF7B074931
:101080000B87EE02ADE0FF3F30004A279D8E02CB7A
:10109000F6FCFFFFFFFF679DE7725083DA21908522
:1010A00008052583110BC9CA75AA34ADC83513517B
:1010B000004B8B9D8E02CBE0685043C2C19270AC56
:1010C000441C0B19874AC6A11072A4841C28290746
:1010D00042CC7112731CE41C26394749D0519074DC
:1010E00090241D2351C740D62192750884450C6A6F
:1010F0008F7B9CF39CD74026B2C5063ACF798F7B75
:101100001CD48E90B02324EC10C93A06B28E91A85C
:101110008324E928483A4A820E83A0C324E7388909
:101120003910620E94942325E450083954328E8588
:101130008C6325E26049381A128E96004C149D8EFD
:1011400002CBE0B0E7FFFFFFFFFF3FFB81FF400462
:101150004D569D8E02CBE07050833169C91495685D
:10116000C83A368315AC644337B6C0850FFC034BD1
:1011700068821318E18845386211CE48863392E1BF
:101180008C6438E4200E3988430EE294A238A528F6
:101190004E218C6306E398C1384638CE098E73829F
:1011A000E33CF7FFBD034E579D8E02CBE0788F7B6B
:1011B0001CD4602D621193966C4D6AA6A844A50AB2
:1011C000D59075AC73192720C609887104521C810B
:1011D000146720C419087106421C820C8720C321A1
:1011E00089700A229C8208C720C1314870CC756C76
:1011F000A82ED1D4DC92B1B806E75EEF004F3D9D3A
:101200008E02CBEB988D8BD694AA73958C2C631998
:10121000CA5104B210812C24200D6ACF73FFFFFF46
:10122000BFF734A82101598840162294A38C15C910
:10123000CA75AA34ADC835F3580050469D8E02CB0E
:10124000006A93AA90752E83958C20A519475AC4DD
:10125000B11271B0241C0D094743C2E15ECF3DF7C6
:101260006A48381A120E96846325E2488B404A3346
:10127000328295CB58A7429382DA61CFFFFF670194
:10128000513D9D8E02CBEB988D8BD694AA73958C95
:101290002C6319CA5104B290902C24200D6ACF738C
:1012A000FFFFFFBFF734A82101598840162294A3FD
:1012B0008C15C90A66AE731D2B55EB1808527F9D1D
:1012C0008E02CB006A93AA90752E83958C20A51967
:1012D000475AC4B11271B0241C0D094743C2E15EE4
:1012E000CF3DF7B8231C0D094743C2C11071AC4470
:1012F0001C491948694646B07219EB54A8868E738A
:10130000A0E320E738C839D0710E84980321E6485D
:10131000873912528E8494431DE550083914428E49
:1013200075906321E358C838D8310E86888321E24E
:101330006848381A128E8684C33D0E0153519D8E23
:1013400002CB0A998D8BD694AA73958C2C8219CADC
:101350005104B2108130A841ED792E7B58A4221699
:10136000A929AAD065AE4797B93E9AD4A422F6B06F
:101370004845ACF35C0E6A104304B210A11C653002
:10138000622159B94E95A615B966220A0054159DD9
:101390008E02CBE07F205A483DECF9FFFFFFFFFFB4
:1013A000B70055279D8E02CBE078EEFFFFFFFFFFD1
:1013B000DED3A086046421025988508E3256242B35
:1013C000D7A9D2B422D7CC6301567C9D8E02CBE044
:1013D000788F3BC2D1907034241CED10473B04C27F
:1013E0008E71B0631C0B19C742C6B10E82A8A31C34
:1013F000EA28873ACA919072A4C320E838073ACE07
:10140000818E731CE41C07658E7498231DE6488743
:1014100039D251908410441DE4580739D6418E7555
:1014200090632102618738DA218E7688A31DE268F5
:10143000907B9CF3DC600B3291255752992A9A4697
:10144000918AD8430157419ACE02CDC068EDFFFF83
:101450004C601A2394A60CA529436948411A52905E
:101460008614A419C768C6319A718C4624A21189C2
:101470006844229AB0840FFC7FA00A39718DDBB0DA
:101480004AAD50677614588A9D8E02CB0069483861
:101490001A12107608841DE358C8381632107510D9
:1014A0002421E5484841D06190839CE3A0CC811081
:1014B0007320A420E9284842C8A19081AC63200B86
:1014C00011074302D28E80B4C7BD9EF31AD84416CA
:1014D0006C41C7BDB923200C090843C4C18E8128C3
:1014E00064200A21873A0A82908220C41C083107AE
:1014F0003A0E62908318041DE648084112421075A6
:1015000090632102598840D821107688A3410D01AB
:1015100059699D8E02CB006948381A120E860864FC
:10152000210259C83814420E8510242104418839FB
:1015300010620E741CC420E830083A0A921082240B
:101540008420EA18C83A06B21071302420ED084809
:101550007BDCEB35B01517B948652A34A1484551F5
:10156000A4A22852917A54543D2A8A221545918A80
:10157000D4A3A228525114A9005A4B9D8E02CBE04D
:101580007F20AA08452A42918A50A42234A1084DFE
:101590002852118A54842215A148452852118A5490
:1015A000842215A148452852118A54842215A14845
:1015B000456842119A50842614A109452A4291FA9D
:1015C00081FF40045B18916E03CD000A1FF80148AB
:1015D0009DFFFFFFFFFFA90FFC4016005C479CAE7C
:1015E00002CB00A1484528528F8A50A41E15A1485D
:1015F0004528AA221455118AAA0845558422F5A81F
:1016000008452A425115A1A88A50544528AA2214F7
:1016100055118AD4A32214A908455584A22A4251FF
:1016200015A1085D14906E03CDE00F4CE9FCFFFF9F
:10163000FFFF2F7DE007345E1B97E2F2CB27690B9B
:101640005B56939E8304A42003214739C6718E8084
:10165000A0035F0A6501EECAE03FE0016012CE829E
:10166000DFCBE040C739D00919C9848C64026160BE
:10167000218B02D32BA94F8CDED4AA75A50C2D6328
:1016800039494A0CB210832CC41CED30473BCCD1F5
:101690000E73B4439F32721556A92B61283B9AD919
:1016A0000A57947514A41D04710741DC418E77908C
:1016B000E31DE4780741DC4190961064296429CF4A
:1016C000F8C4373CD295491C0722465AD4006241DF
:1016D000DD8E02CBE0B0E7FF478E7584065D062BFA
:1016E00019D1C6269AB18805252159484818D42011
:1016F000E73CF7FFEF3DEE69118B161216948466F6
:101700002C6213DAC808562E7384061D0451006338
:101710003D1D8B02CBEB988D8BD694AA73958C2CA8
:1017200063190A4A04B2108130A841CE792E7BFE9B
:10173000BFE7BCC73D0D09084302B210A1A064ACCD
:101740004856AE53A56945AE998802006443DD8EC4
:1017500002CBF6FCFF16320ED484C35C0523D9D02D
:10176000C42696D10405290159494018D420E73CE4
:10177000F7FFEF3DEE694840181290950405296285
:10178000198DD88646B282990B35E1580739006524
:101790003E1D8B02CBEB988D8BD694AA73958C2C27
:1017A00063190A4A04B2108130A841CE79EEDE07EF
:1017B000FE67CFB34845DA6010569044214241C9D4
:1017C0005891AC5CA74AD38A5C338F05006629DD4B
:1017D0008E02CBCFA80B741CC4A435252A25423910
:1017E00088410E724EE838873DFF7BDAD09F3AEC95
:1017F000F9FFFFBF07006760DD8EC6CA4B4295B98F
:101800000A46B2A113CB58867214912844200C6A60
:1018100090739EDB7BDCD390803024240A110A4A2B
:10182000C68A64E53A559A56B420F6B88422F5B0D3
:10183000278B54854A6B4A96C1483636B185644534
:101840000D72CE73DEE39E868424296113DBC8CA41
:1018500075AA3435E700682ADD8E02CBE0B0E7FFD9
:10186000478E7584065D062B19D1C6269AB1880568
:10187000252159484818D420E73CF7FFFFFFBD0356
:101880006922CBAE02AB62380639578A0F060E7258
:10189000FEFFFFFF11642024114A504432107214DD
:1018A000030D6A2A9612C7CC9088063CDE192C3E9E
:1018B000F8CCF1CEFFFFFFFFFFF71CF418C8202182
:1018C0001189A00DA940C7494C3310006B76DD8EFD
:1018D00002CBE0B0E7FFE79E86848325E16088388D
:1018E00056228E858C4325E348093912520E949472
:1018F0000321E63889390E720E939CA324E8284808
:101900003A48920E82A86324EA18C83A04C28E901C
:10191000B023242C62D29AD4A4A844A50A31014150
:10192000CB40CE3212A314C4A44A729082A0842069
:101930002919C742C6B1127130441C2C094743C251
:10194000E1106C1DCF8E02ADE040E7FFFFFFFFFF0F
:101950000F210741897182239AC190A528E8006D63
:1019600086338B02F7E020C73BD6119AD4A0AB4454
:10197000061B53C942453E108D0F48A219D358C4C7
:10198000821C9484642D0B09095318D4920639C41F
:1019900039EF78CE3B9EF38EE7BCE339EF78CE3B50
:1019A0009EF38EE7BCE339EF78CE3B9EF38EE7BC27
:1019B000E339EF78CE3B9EF38EE7BCE339EF78CE88
:1019C0003B9EF38EE7BCE339EF78CE3B9EF38EE788
:1019D000BCE339EF78CE3B9EF38EE7BCE339EF787A
:1019E000CE3B9EF34E6E271D8B02CBE020C73A42C2
:1019F000832E83958C686313CD58C48292902C24D7
:101A0000240C6A90739EFBFFFFFFDE016F3A1D8B73
:101A100002CBEB988D8BD694AA73958C2C63190A04
:101A20004A04B2108130A841CE79EEFFDF7BDCD3CF
:101A300090803024200B110A4AC68A64E53A559AF0
:101A400056E49A8928007042DD8EC6CAE020C73A63
:101A500042832E83958C686313CD58C48292902C58
:101A600024240C6A90739EFBFFF71EF7B488450B85
:101A7000090B4A423316B1096D64042B973942832E
:101A80000E82A8C39EFFCF027143DD8EC6CAEB2033
:101A9000076AC261AE82916C686213CB68828294DD
:101AA00080AC24200C6A90739EFBFFF71EF7342451
:101AB000200C09C84A828214B18C466C432359C158
:101AC000CC859A702C641CF6FCFF00721C168B02ED
:101AD000BDE02052F8C01F688444200399C721EE5E
:101AE00078E7FFFFFF7B007342198B02C3E980CCCC
:101AF0007A5274A652114B2C6111C88912A49CE52C
:101B00005A4F44241213F8AC2845484A3105B925E8
:101B1000261189CF725B4F821212909384D5B04602
:101B200055A613A58731EF48007422D24E02ADE4CA
:101B300058E7FF3B1FF8030239D6F9FFFFDF429455
:101B4000929AD218E62C4849C93A0075281D8B0292
:101B5000CBE078EEFFFFFF7B8F7B1A1210860464C8
:101B60002541418A584623B6A191AC60E6424D38E2
:101B7000D6410E766E1D8B02CBE0788F7BDC118E0A
:101B80008684A31DE2688740D82110768C6321E308
:101B9000580739D641107510441DE5484839D261BF
:101BA0008E7418041D0641C7390E724EE83807427C
:101BB000CC811073A4A320E928873ACAA110722807
:101BC000841CEB18C83AC6C18E7130441C0C0948FD
:101BD0003B02D28E70B8231CEEF59CD7C0B6C8204D
:101BE0000077C5338B02F7E078C773DEF19E963439
:101BF000241C2D6948385AD20E71B4A41DE2680A1B
:101C00003B04B296858C632D0B19C75AD6418EB50D
:101C1000AC831C8B51074152939072A42621E54856
:101C20004D3ACC919A74982339E830C8790E728E67
:101C3000F31CE49CC2710E749C231CE740C739025C
:101C4000620E8414242005494741C4519074946362
:101C50001CE5504739C6510E75946320E450C840C6
:101C60005BC740C83190758CA31CE360C738CA318C
:101C70000E768CA320E26048400A12907604C41CC1
:101C800001694738CE110E7784E31CE1704738CEE6
:101C9000E39EF33C0739AF490D6C52039BD4C02639
:101CA0003591510C020078661D8B02CB00714738CC
:101CB0001A1210768C632103514739125210749C0A
:101CC000E3A0CC918E8224841CEB18C842C4D18E30
:101CD00080B4E739AF894C5CA632938AA20955E4F7
:101CE0002219D840C73DEE080843C4C18E8128841C
:101CF0001CEA280842CC818E8318041DE64808415E
:101D0000D4418E8508841DE268903B007974DD8E95
:101D1000C6CAE360C74014321085904321E450479F
:101D200039D4511084140421E6408839D0710E74DE
:101D30001CE41C0731083A0C820E73A4C31C092949
:101D4000474208A20E82A8831CEB20C742C6B110EE
:101D500081B04320EC10083BC4D1907034C8BD9CC6
:101D6000F35CB00599C8922BA94C154D51A4A26BF8
:101D700042415A211216AD68490C720E5CE81101FD
:101D80007A2B1D8B02CBE07F20A2C94CA632535385
:101D900099693499299ACC144D668A2633459399CA
:101DA0009ACA4CA3C94CE807FE03117B41D430E723
:101DB000CAAF68C74A949216C4A005292A59288632
:101DC000B0A39DFFC710763044254951C942D810B1
:101DD00011962C85250D694743DAF9FF1AC2109632
:101DE0005ACA62109316A5ACA41DAF007C0B47F233
:101DF000E3CAE0FFFF81077D43D330E7CA8078461E
:101E00004356A294B4A045290B61C842D8F9FF18E3
:101E1000B210862C84254B51093BE0C00E95240559
:101E2000250959884216B20E76FEDF422924296719
:101E3000410B5252A2906534E2017E1AA0624ACB55
:101E4000835806424C5338D237BA0209A52CE848C9
:101E500044130A007F07000002CB00000000004C82
:101E60002F680068006B6D004C0020284166746587
:101E700072206368616E6765207265736574207394
:101E80006572766963696E672900416972206669C7
:101E90006C74657220207265706C6163656D656E2F
:101EA0007420616674657200204F494C2F4149527D
:101EB0002046494C54455220574F524E204F5554BE
:101EC00020004166746572206368616E67652072E8
:101ED0006573657420646174610054696D696E672F
:101EE0002062656C7420776F726E2D6F75740020A0
:101EF000574F524E2054494D494E472042454C546D
:101F000000496E206261636B206C6967687473209E
:101F100000496E2066726F6E74206C696768747316
:101F20002000496E63616E64657363656E74206D35
:101F3000616C66756E6374696F6E002042554C4229
:101F4000204255524E204F55542000696620697337
:101F5000206E656365737361727920616464206DBE
:101F60006F72652E00436865636B2077696E646FDE
:101F700077207761736865722000204C4F57205797
:101F8000494E444F572057415348455221006973E9
:101F900020746F6F20686967682C206F766572689F
:101FA000656174696E672100456E67696E652074AE
:101FB000656D70657261747572652000204F5645BD
:101FC0005248454154494E47212121006966206904
:101FD00073206E6563657373617279206164642038
:101FE0006D6F72652E00436865636B2074686520B1
:101FF000636F6F6C616E74206C6576656C00204C4D
:102000004F5720434F4F4C414E5421002066726F72
:102010006E7420627265616B732120004465746583
:10202000726D696E656420706164207765617220ED
:10203000696E746F200020574F524E204252414B20
:10204000455321006E6F7420696E20776F726B208C
:1020500072616E6765004120766F6C746167652000
:102060006F663A2000454C454354524943414C2049
:102070004D414C46554E4354494F4E2100546F70CC
:10208000207570206D6F746F72206F696C004F69DE
:102090006C206C6576656C206973202062656C6FBE
:1020A000772032352500204C4F57204F494C204C8B
:1020B0004556454C2100506C65617365206472691A
:1020C000766520736166652100200020524F4144EF
:1020D000204943494E47205741524E494E4721001F
:1020E0002042756C62206661696C75726521002002
:1020F00044726F7773696E6573732064657465638A
:10210000746564002054616B6520612062726561B2
:102110006B0055736520425245414B2070656461E8
:102120006C20666F7220656E64005475726E206557
:102130006E67696E65204F6E2F4F666620746F2044
:102140007361766500524553554C5400434F4E53CE
:10215000554D5054494F4E004F444F4D45544552F4
:10216000005245564F4C5554494F4E530056454822
:1021700049434C4520535045454400446162626CDC
:102180006520707265737320523C2B533C20746F32
:10219000206368616E67652076616C7565005573B4
:1021A000652022533C2220746F206E61766967613E
:1021B0007465200050726573732022533C22207492
:1021C0006F20656E74657220696E20736574746922
:1021D0006E67730041726475696E6F4D4944207675
:1021E000657273696F6E20004669726D7761726502
:1021F000207570646174653A207777772E6769740B
:102200002E696F2F76486C6B6400486F6C64203EBB
:102210005220616E6420627265616B20706564613A
:102220006C2000546F20726573657420747269703D
:1022300020646174610044454641554C5400435547
:102240005252454E540053455454494E475300444E
:10225000415348424F4152440041424F555400536C
:102260004552564943494E47004655454C204D4539
:102270004E550054524950205245434F524453004A
:102280004D41494E204D454E550057454E54204F27
:10229000555400574F524E204F55540042454C4F15
:1022A0005720323525004F2E4B2E00456E67696E44
:1022B00065204F696C206C6576656C2069733A20E7
:1022C0000057696E646F7720776173686572207359
:1022D000746174653A2000436F6F6C616E74206C9A
:1022E0006576656C2073746174653A200042726192
:1022F0006B652077656172696E67207374617465C0
:102300003A2000454E54525900756E74696C206E27
:102310006578742074696D652100476F6F64627918
:1023200065202E2E2E2020202020001A2309230392
:1023300023ED22D722C122AB22A6229C2293228AFD
:10234000228022732269225F2259224F2246223E96
:1023500022362223220A22E821D421B4219E217B85
:10236000216D21612158214C2145212A211221046E
:1023700021EF20E020CB20C920B620A6208E207D92
:102380002065205620442036201C200C20FE1FE60D
:102390001FCC1FBC1FA81F8E1F7A1F651F4B1F3B22
:1023A0001F221F111F011FEF1EDA1EC21EA81E8A48
:1023B0001E6A1E681E651E631E5F1E1800300060C8
:1023C000006C00E600F302BF038F03C701D600E0F4
:1023D00000700030023003F803EC0136001B000DE2
:1023E00000070000000000000000000000000000E6
:1023F00000000000000000000000000000000000DD
:1024000000000000000000000000000000000000CC
:1024100000000000000000000000000000000000BC
:1024200000000000000000000000000000000000AC
:10243000000000000000000000000000000000009C
:1024400000E0FF070000000000000000E0FF0700C0
:1024500000000000000000E0FF0700000000000096
:10246000000080C301000000000000000080C301E4
:10247000000000000000000080C30100000000F820
:10248000FFFFFFFFC37F00000000F8FFFFFFFFC357
:102490007F00000000F8FFFFFFFFC37F0000000087
:1024A000F8FFFFFFFFC37F000000003800000000BE
:1024B00000780000000038000000000078000000F4
:1024C000803F000000000078000000803F00000016
:1024D000000078000000803F00000000007800004D
:1024E00000803F00000000007800000000000000B5
:1024F00000000078000000000000000000007800EC
:102500000000803F000000000078000000803F00D5
:102510000000000078000000803F0000000000780C
:10252000000000803F00000000007800000000383C
:1025300000000000007800000000380000000000EB
:102540007800000000380000000000780000000063
:102550003800000000007800000000380000000093
:102560000078000000003800000000007800000043
:102570000038000000000078000000003800000073
:102580000000780000000038000000000078000023
:102590000000380CC00004407800000000381EE045
:1025A000010EE07800000000383FF0031FF07900D2
:1025B000000000B87FF8873FF87B00000000F8FFBC
:1025C000FFFFFFFF7F00000000F8FFFFFFFFFF7F1E
:1025D00000000000F8FFFFFFFFFF7F00000000F891
:1025E000FFFFFFFFFF7F00000000F8FFFFFFFFFF7E
:1025F0007F00000000F8FFFFFFFFFF7F00000000EA
:10260000F8FFFFFFFFFF7F00000000F8FFFFFFFF64
:10261000FF7F00000000F8FFFFFFFFFF7F000000CA
:1026200000F8FFFFFFFFFF7F00000000F8FFFFFF43
:10263000FFFF7F00000000F8FFFFFFFFFF7F0000AB
:10264000000000000000000000000000000000008A
:10265000000000000000000000000000000000007A
:10266000000000000000000000000000000000006A
:10267000000000000000000000000000000000005A
:10268000000000000000000000000000000000004A
:10269000000000000000000000000000000000003A
:1026A000000000000000000000000000000000002A
:1026B000000000000000000000000000000000001A
:1026C000000000000000000000000000000000000A
:1026D00000000000000000000000000000000000FA
:1026E00000000000000000000000000000000000EA
:1026F00000000000000000000000000000000000DA
:1027000000000000000000000000000000000000C9
:102710000000000000000000000000000000F07F4A
:102720000000C0FF0100000000F07F0000C0FF01BA
:1027300000000000F07F0000C0FF0100000000F07A
:102740007F0000C0FF0100000000F07F0000C0FF1C
:1027500001000000FEFFFFFFFFFFFFFF1F0000FE64
:10276000FFFFFFFFFFFFFF1F0000FEFFFFFFFFFF58
:10277000FFFF1F0000FEFFFFFFFFFFFFFF1F000026
:10278000FEFFFFFFFFFFFFFF1F0000FEFFFFFFFF39
:10279000FFFFFF1F00003E000000000000001F00C0
:1027A000003E000000000000001F00003E0000008E
:1027B000000000001F00003E000000000000001F9D
:1027C00000003E000000000000001F00003E00006E
:1027D00000000000001F00003E000000000000009C
:1027E0001F00003E00000000001E001F00003E0011
:1027F000000000001E001F00003E00000000001E40
:10280000001F00003E00000000001E001F00003EF0
:1028100000000000001E001F00003EF8FF0000F056
:10282000FF031F00003EF8FF0000F0FF031F000041
:102830003EF8FF0000F0FF031F00003EF8FF00001D
:10284000F0FF031F00003E00000000001E001F00FC
:10285000003E00000000001E001F00003E000000BF
:1028600000001E001F00003E00000000001E001FB0
:1028700000003E00000000001E001F00003E00009F
:1028800000000000001F00003E00000000000000EB
:102890001F00003E000000000000001F00003E007E
:1028A0000000000000001F00003E000000000000CB
:1028B000001F00003E000000000000001F0000FE9E
:1028C000FFFFFFFFFFFFFF1F0000FEFFFFFFFFFFF7
:1028D000FFFF1F0000FEFFFFFFFFFFFFFF1F0000C5
:1028E000FEFFFFFFFFFFFFFF1F0000FEFFFFFFFFD8
:1028F000FFFFFF1F0000FEFFFFFFFFFFFFFF1F00A6
:1029000000000000000000000000000000000000C7
:1029100000000000000000000000000000000000B7
:1029200000000000000000000000000000000000A7
:102930000000000000000000000000000000000097
:102940000000000000000000000000000000000087
:102950000000000000000000000000000000000077
:102960000000000000000000000000000000000067
:102970000000000000000000000000000000000057
:102980000000000000000000000000000000000047
:102990000000000000000000000000000000000037
:1029A0000000000000000000000000000000000027
:1029B0000000000000000000000000000000000017
:1029C0000000000000000000000000000000000007
:1029D00000000000C0FF030000000000001E00C057
:1029E000FF07000000000000FE00C0FF070000001D
:1029F000600000FF07C0FF07000000FC0000FF3F71
:102A0000C0FF03000080FF0000FFFF00FE00000089
:102A1000C0FF0080DFFF03FE000000FCFF00801FFE
:102A2000FF03FE000080FF7F00800FFCFFFF7F00A0
:102A3000F0FF0F00C00FE0FFFFFF01FEFF0300C02B
:102A40003FE0FFFFFFC3FFFF0300C0FFE0FFFFFF0A
:102A5000FBFFFF0100C0FFF3FFFFFFFFFFFE0000D1
:102A600000FFFFFFFFFFFF0F7F000000F8FF0700E0
:102A700080FF813F000000C0FF0700003F801F0073
:102A8000000000FE07000006C00F00000000F00775
:102A9000000000E00700010000E007000000F00374
:102AA00000010000E007000000F80380030000E0E0
:102AB00007000000FC0180030000E007000000FCAC
:102AC0000080030000E007000000FE00C0070000D7
:102AD000E0070000007F00C0070000E00700008062
:102AE0003F00C0070000E0FFFFFFFF1F00C007001E
:102AF00000E0FFFFFFFF0F0080030000E0FFFFFF8B
:102B0000FF070000000000C0FFFFFFFF0300000000
:102B10000000C0FFFFFFFF030000000000000000F6
:102B200000000000000000000000000000000000A5
:102B30000000000000000000000000000000000095
:102B40000000000000000000000000000000000085
:102B50000000000000000000000000000000000075
:102B60000000000000000000000000000000000065
:102B700000000000F0017C001FC007F0010000FC15
:102B80000FFFC3FFF03FFC0F0000FFFFFFFFFFFF41
:102B9000FFFF3F0000FFFFFFFFFFFFFFFF3F0000C1
:102BA000FFFFFFFFFFFFFFFF3F0000FFFFFFFFFFF3
:102BB000FFFFFF3F000007F0017C001FC00730004F
:102BC0000000000000000000000000000000000005
:102BD00000000000000000000000000000000000F5
:102BE00000000000000000000000000000000000E5
:102BF00000000000000000000000000000000000D5
:102C000000000000000000000000000000000000C4
:102C100000000000000000000000000000000000B4
:102C200000000000000000000000000000000000A4
:102C30000000000000000000000000000000000094
:102C40000000000000000000FCFF00000000000089
:102C5000000000FEFF010000000000001800FEFF61
:102C6000016000000000003C001EE001F0000000D8
:102C700000007E001EE001F80100000000FC001EC4
:102C8000E001FC0000000000F8011EE0017E0000F1
:102C9000000000F0033EF0013F0000000000E001F2
:102CA000FEFF011E0000000000C000FEFF010C003E
:102CB0000000000000C0FFFF0F0000000000000047
:102CC000E0FFFF1F00000000000000F0FFFF3F00DA
:102CD000000000000000F81FE07F0000000000007E
:102CE00000FC0780FF00000000000000FC0100FE67
:102CF00000000000000000FE0000FC0100000000D9
:102D000000007F0003F8030000000000003F800780
:102D1000F0030000000000801FC00FE0070000006B
:102D20000000801FC00FE0070000000000C00FC0BF
:102D30000FC00F0000000000C00FC00FC00F000048
:102D4000000000C00F8007C00F00000000FFC10797
:102D50008007800FFE030000FFC1078007800FFE81
:102D6000030000FFC1078007800FFE030000FFC1C2
:102D7000070003800FFE030000FFC1070003800F60
:102D8000FE03000000C0070003800F0000000000E9
:102D9000C00F0003C00F0000000000C00F0003C000
:102DA0000F0000000000800F0000C00700000000BE
:102DB00000801F0000E0070000000000001F00006E
:102DC000E0030000000000003F0003F003000000EB
:102DD0000000007E0003F801000000000000FE007B
:102DE00000FC01000000000000FC0300FF000000E8
:102DF00000000000F80FC07F00000000000000F09D
:102E00003FF03F00000000000000F0FFFF3F000027
:102E10000000000040C0FFFF0F080000000000E0BD
:102E200000FFFF031C0000000000F001FEFF013E58
:102E30000000000000F801E01F007E00000000001C
:102E4000FC00000000FC00000000007E000000000C
:102E5000F801000000003E00000000F0010000004A
:102E6000001C00000000E0000000000008008007D7
:102E7000004000000000000000800700000000008B
:102E8000000000008007000000000000000000803B
:102E900007000000000000000000800700000000A4
:102EA000000000000080070000000000000000009B
:102EB0008007000000000000000000800700000004
:102EC000000000000000800700000000000000007B
:102ED00000000000000000000000000000000000F2
:102EE00000000000000000000000000000000000E2
:102EF00000000000000000000000000000000000D2
:102F000000000000000000000000000000000000C1
:102F100000000000000000000000000000000000B1
:102F200000000000000000000000000000000000A1
:102F3000000000000000000000000000000000F0A1
:102F4000FF000000000000001800FEFF07800100E5
:102F50000000003C80FFFF1FC003000000007CE079
:102F6000FFFF7FE003000000003EF8FFFFFFC10706
:102F7000000000001FFC1F80FF830F000000801F67
:102F8000FE0300FC871F000000800FFE0100F80711
:102F90001F000000C0077F0000E00F3E000000C0DF
:102FA000873F000FC01F3E000000E0C31F000F80DE
:102FB0003F7C000000E0C30F000F003F7C000000DA
:102FC000F0E107000F007EF8000000F0E103000FC1
:102FD000007CF8000000F8F003000F00FCF0010096
:102FE0000078F001000F00F8E001000078F8000020
:102FF0000F00F0E101000078F800000F00F0E1019F
:10300000000078F800000F00F0E101000038F8003F
:10301000000F00F0C10100003C7800000F00E0C18B
:103020000300003C7800000F00E0C10300003C7882
:1030300000000F00E0C10300003C7800000F00E03A
:10304000C10300003C7800000F00E0C10300003C19
:103050007800000F00E0C10300003C7800000F0082
:10306000E0C10300003CF800000F00F0C1030000C5
:103070003CF800000F00F0C103000038F800000F1A
:1030800000F0C101000078F800000F00F0E101003D
:103090000078F001000000F8E001000078F0010085
:1030A0000000F8E0010000F0F003000000FCF00078
:1030B0000000F0E1070006007EF8000000F0E107E4
:1030C000000F007EF8000000E0C30F801F003F7C6F
:1030D000000000E0831F801F801F7C000000C0876D
:1030E0003F000FC01F3E000000C0077F0006E00F3A
:1030F0003E000000C00FFE0100F8073F0000008006
:103100001FFC0700FE831F000000003FF87FE0FF68
:10311000C10F000000003EF0FFFFFFC007000000ED
:10312000007CC0FFFF3FE003000000003880FFFF8D
:103130001FC001000000001800FCFF038001000018
:1031400000000000801F00000000000000000000E0
:10315000000000000000000000000000000000006F
:10316000000000000000000000000000000000005F
:10317000000000000000000000000000000000004F
:10318000000000000000000000000000000000003F
:10319000000000000000000000000000000000002F
:1031A000000000000000000000000000000000001F
:1031B000000000000000000000000000000000000F
:1031C00000000000000000000000000000000000FF
:1031D00000000000000000000000000000000000EF
:1031E000000000000000000000001F0000000000C0
:1031F00000000000803F0000000000000000008090
:103200003F000000000000000000803F00000000C0
:103210000000000000803F000000000000000000EF
:10322000803F000000000000000000803F00000020
:1032300000000000000080FFFF030000000000000D
:103240000080FFFF030000000000000080FFFF037C
:103250000000000000000080FFFF030000000000ED
:103260000000803F000000000000000000803F00E0
:103270000000000000000000803F0000000000008F
:10328000000000803F00000000000000000080FF00
:10329000FF030000000000000080FFFF03000000AB
:1032A0000000000080FFFF0300000000000000801D
:1032B000FFFF0300000000000000803F000000004E
:1032C0000000000000803F0000000000000000003F
:1032D000803F000000000000000000803F00000070
:1032E000000000000000803F00000000000000001F
:1032F0000080FFFF030000000000000080FFFF03CC
:103300000000000000000080FFFF0300000000003C
:10331000000080FFFF0300000000000000803F006D
:103320000000000000000000803F000000000000DE
:10333000000000803F000000000000000000803F0F
:10334000000000000000000000C07F00000000003E
:1033500000E07C00C07F00C0E7000000FCFF07E049
:10336000FF00FCFF070000FCFF7FE0FFC0FFFF073E
:103370000000FCFFFFE0FFE0FFFF070000F88FFF09
:10338000C07FE03FFE0300000000F8C07FE00300C4
:10339000000000000000803F00000000000000006E
:1033A00000000E000000000000000000000000000F
:1033B000000000000000000000000000000000000D
:1033C00000000000000000000000000400000000F9
:1033D0000004000000001E001E000F000F0000008F
:1033E000003E807FC03F800F00000000FCE0FFFF38
:1033F000FFE00700000000F8FFFFFFFFFF030000F1
:103400000000F0FFF3FFF9FF0100000000C07FC0E3
:103410007FC07F0000000000001F803F001F0000F1
:103420000000000000000E0000000000000000008E
:10343000000000000000000000000000000000008C
:10344000000000000000000000000000000000007C
:10345000000000000000000000000000000000006C
:10346000000000000000000000000000000000005C
:10347000000000000000000000000000000000004C
:10348000000000000000000000000000000000003C
:103490000000007070000000000000000008707064
:1034A00080000000000000001C78F0C00100000057
:1034B0000000003E3CE0E1030000000000003C3C56
:1034C000E0E1010000000000007C1EC0F3010000EC
:1034D00000000000781EC0F300000000000000F0B3
:1034E0000F807F00000000000000F00F807F0000D0
:1034F00000000000F0FF0700FF7F0000000000F860
:10350000FF0300FEFF0000000000F8FF0300FEFFC5
:103510000000000000F0FF0700FF7F000000000037
:10352000008007000F00000000000000000F80076F
:1035300000000000000000000F80070000000000F5
:103540000000001EC00300000000000003001EC0B9
:103550000300060000008003003CE001000E0000B4
:10356000008007007CF001000F000000000F0078D1
:10357000F0008007000000000F00F8F8008007004E
:103580000000001F00F07800C007000000001E00CF
:10359000F07D00C003000000003E00E03F00E003BB
:1035A000000000003C00E03F00E001000000007C63
:1035B00000C01F00F001000000F8FFFFFFFFFFFF49
:1035C000FF000000F8FFFFFFFFFFFFFF000000F813
:1035D000FFFFFFFFFFFFFF000000F8FFFFFFFFFFFF
:1035E000FFFF000000007C00E03F00F00100000051
:1035F000003E00E03F00E003000000001E00F07D00
:1036000000C003000000001F00F07800C0070000A9
:1036100000000F0078F0008007000000800F0078A5
:10362000F000800F0000008007003CE001000F0068
:103630000000C003003EE003001E00000080010007
:103640001EC003000C0000000000000F80070000F7
:103650000000000000000F800700000000000000D4
:103660008007000F00000000000000C007001F00DE
:103670000000000000F8FF0300FEFF000000000053
:10368000F8FF0300FEFF0000000000F8FF0300FE4B
:10369000FF000000000000F80700FF00000000002D
:1036A0000000F80700FF00000000000000780F8015
:1036B000F7000000000000003C0E80E30100000065
:1036C0000000003C1EC0E3010000000000001E3CA2
:1036D000E0C1030000000000001E3CE0C103000048
:1036E000000000000C78F0800100000000000000E5
:1036F00038E0000000000000000000104000000062
:1037000000000000000000000000000000000000B9
:1037100000000000000000000000000000000000A9
:103720000000000000000000000000000000000099
:103730000000000000000000000000000000000089
:103740000000000000000000000000000000000079
:103750000000000000000000000000000000000069
:103760000000000000000000000000000000000059
:10377000000000E001003C00000000000000FC39F7
:10378000E0FC01000000000000FE79F0FC030000F6
:1037900000000000FFF9F8FC070000000000001F17
:1037A000F8FDC00700000000000006F07F000300E5
:1037B000000000004000C01F00100000000000E0FA
:1037C00001C01F003C0000000000E001800F003C31
:1037D0000000000000E0010007003C0000000000C5
:1037E000F000000000780000000000F000800F00F2
:1037F0007800000000000000800F000000000000C2
:10380000000000C01F000000000000000080FFFF5B
:103810000F00000000000000F8FFFFFF00000000A4
:10382000000000FEFFFFFF030000000000C0FF9F3C
:10383000CFFF1F0000000000F0FF800FF87F0000A6
:10384000000000F80F000780FF0000000000FE03EA
:10385000000000FE03000000007F00000000F007F1
:10386000000000C03F00800F00E01F000000E00FDC
:1038700000800F00803F000000F00300800F000078
:103880007E000000F80100800F0000FC000000FC3A
:103890000000800F0000F80100007C0000800F0095
:1038A00000F00100007C0000800F0000F00100002B
:1038B000FC0000800F0000F8010000F80100800FFC
:1038C0000000FC000000F00300000000007E00008B
:1038D00000E00700000000003F000000C00F008073
:1038E0000F00801F000000801F00800F00C00F002D
:1038F0000000003F00800F00E007000000007E0095
:10390000800F00F00300000000FC00800F00F801B1
:1039100000000000F801000000FC0000000000F0C2
:10392000030000007E0000000000E007800F003F61
:103930000000000000C00FF8FF801F000000000022
:10394000801FFEFFC30F000000000000BFFFFFEF5D
:1039500007000000000000FEFFF8FF030000000069
:103960000000FC0F80FF01000000000000F80300D1
:10397000FE00000000000000F001007C00000000DC
:10398000000000E00000380000000000000000001F
:103990000000000000000000000000000000000027
:1039A0000000000000000000000000000000000017
:1039B0000000000000000000000000000000000007
:1039C00000000000000000000000000000000000F7
:1039D00000000000000000000000000000000000E7
:1039E00000000000000000000000000000000000D7
:1039F00000000000000000000000000000000000C7
:103A000000000000000000000000000000000000B6
:103A1000000000000000000000000000000000C0E6
:103A200000000000000000000000C00300000000D3
:103A30000000000000C007000000000000000000BF
:103A40008007000000000000000080800F000000E0
:103A50000000000000C0800F000000000000000017
:103A6000C0C00F0000000000000000C0E10F000017
:103A7000000000000000C0F307000000000000008C
:103A800000C0FF070000000000000000C0FF0700AA
:103A90000000000000000080FF03000000000000A4
:103AA000000080FF01000000000000000000FE0197
:103AB00000000000000000000CFCE000000000001E
:103AC0000000001EFCE001000000000000003EFCC1
:103AD000F007000000000000001FFCE00F000000E5
:103AE000000000800FFC801F000000000000C007E5
:103AF000FC001F000000000000C003FC003E0000AE
:103B000000000000E001FC007C000000000000F06C
:103B100001FC00F8000000000000F000FC00F003D1
:103B200000000000007800FC00E01F0000000080A2
:103B30003F00FC00C0FF00000000F83F00FC0080D8
:103B4000FF010000FCFF1F00FC0000FE0F0000FF53
:103B5000FF1F00FC0000F03F0000FF7F0000FC00A2
:103B600000003F00801F000000FC0000007800C043
:103B700003000000FC0000007800C003000000FC0F
:103B80000000007000E001F80100FC00F00370008C
:103B9000E001FE0700FC00FC0F7800E003FF0F00CF
:103BA000FC00FE1F7800C083071E00FC000F3C389D
:103BB00000C087033C00FC0007783C0080CF013840
:103BC00000FC8003701C0080DF013800FC8003F0E3
:103BD0001F0000FF01F87FFCF003F01F0000FE0152
:103BE000F87FFCF003F00F0000FC01F87FFCF0030D
:103BF000F00F0000C001F87FFCF00370000000C06F
:103C0000013C007880037800000080033C007800CD
:103C10000778000000800F1F0030001F3E000000EA
:103C200000FF0F000000FE1F00000000FE03000068
:103C300000FC0700000000F000000000E0010000B0
:103C40000000000000000000000000000000000074
:103C50000000000000000000000000000000000064
:103C60000000000000000000000000000000000054
:103C70000000000000000000000000000000000044
:103C80000000000000000000000000000000000034
:103C90000000000000000000000000000000000024
:103CA000000000020502080404040800000A0B02D8
:103CB000090C0D0E080703040100000000000000BD
:103CC00000000000000000000000000000000000F4
:103CD00000000000000000121110000000000000B1
:103CE00000000000000000000000000000000000D4
:103CF0000000002200250028002B002E0031003497
:103D00000002010000050108010B0102002C12292C
:103D100025120D0000000000B500550153015501AA
:103D20005501000000001201AB02AA02AA02AA0279
:103D3000120100000082824242222E00005EBCE29C
:103D4000613FDD83C29C7E20A3FD1F419DC3217F77
:103D5000FCA2401E5F01E3BD3E6082DC237D9FC16B
:103D6000421CFEA0E1BF5D0380DE3C62BEE0025C5F
:103D7000DF81633D7C22C09E1D43A1FF4618FAA44B
:103D800027799BC584DA3866E5BB5907DB85673937
:103D9000BAE406581947A5FB7826C49A653BD9872B
:103DA000045AB8E6A7F91B45C6987A24F8A6441A1F
:103DB00099C7257B3A6486D85B05E7B98CD2306E0B
:103DC000EDB3510F4E10F2AC2F7193CD114FADF3F7
:103DD000702ECC92D38D6F31B2EC0E50AFF1134DEB
:103DE000CE90722C6D33D18F0C52B0EE326C8ED0DF
:103DF000530DEFB1F0AE4C1291CF2D73CA947628CB
:103E0000ABF517490856B4EA6937D58B5709EBB5B6
:103E100036688AD495CB2977F4AA4816E9B7550BAA
:103E200088D6346A2B7597C94A14F6A8742AC8969E
:103E3000154BA9F7B6E80A54D7896B35BF000303C1
:103E400004040205050C0D00FE09FE09FE015802DE
:103E5000C608862005006E0A210792438A270122A0
:103E60000734DB8A4301230D96C31B12C54262B19E
:103E7000902800240FA6BF2B19E5301BCE0E139AF5
:103E80000800250E98C39CA1446522D565A2710245
:103E9000260D96C31B198926941D229A0A270632DD
:103EA000DB09032808B33B1A8AFE24290AB33B0A1C
:103EB0009144BF50002A0834D70A8A84002B0A563E
:103EC000C72BA1C82414012C07233F1A0A002D0672
:103ED000134F8A012E0612430A012F0993431A5DDC
:103EE000285A00300B96C31B8A889F241400310780
:103EF00094C32B937E320B96C31B8A48A8A6A301BA
:103F0000330E96C31B8A48A8341592241400340C2F
:103F100096C33BD9128B8A4D2801350F96C38B432C
:103F2000505811098524090500360E96C31B8A884E
:103F300028AC8898241400370D96C30BA34C281383
:103F4000CA846A00380E96C31B8A884942113149D7
:103F50002800390E96C31B8A8849521492241400F3
:103F60003A0862430A3944003B08733F1A39980201
:103F70003C0875C33B91460D3D0736CB0BB3013E64
:103F80000975C30BA1266D003F0D96C31B8A48A877
:103F9000A6288789004016AB3FBEE26C249588288E
:103FA00014158A0AE92207CD612600410E98423C89
:103FB000B194481369B244A702420C96438C8A8894
:103FC000E92262BA00430C97439C8A8CAA374905C0
:103FD00000440C97C38C928A8C4F921200450B962A
:103FE000438C4350B1225434460B96C38B4350B19B
:103FF00022D408470C97C39C8A8CAA62639A1848FB
:104000000B97C30C19B7038D9B00490792438A078E
:10401000024A0B95423BBD8D469209004B109743D7
:104020000C914489361CD224221599004C0896C361
:104030000BA17E344D0F98430D21B1643ABC482842
:1040400012A2004E0D97C30C59A964B1504C6D02D9
:104050004F0B97C39C8A8CDF241500500C97430CA0
:104060008B8CED10916A05510CA7BF9C8A8C2FA6F2
:10407000495900520C97C30C8B8CED10917113535E
:104080000E96431C8A8828A50A49120A00540996EC
:10409000430C93503F01550A97C30C197F9354006A
:1040A000560E98428CE85422D21B912A960157143E
:1040B0009C428E38680E9288F4B743F010158945FB
:1040C0003200581098428CE854229251A534912421
:1040D0003A15590D98428CE854229251C5BA015AAA
:1040E0000C98428C4358AAD738E0105B08B33B8A3F
:1040F0008AFE325C09A33F0A894E121D5D08B33B5C
:104100008A89FE525E0836DF2B1945245F0617BAEE
:104110008B036007235F0A9100610A66C31BAAE450
:10412000449214620B96C30BA16245C4E902630B6F
:1041300066C31B8A88A824A100640A96C34B2D2756
:104140004E9202650C66C31B8AE83014492800664B
:104150000A93431A8AA4A20B00670A86BB9B132703
:1041600049F102680B96C30BA1626542E22469081B
:1041700092C309E1A1006A08B2BB09E1E1206B0D1D
:1041800096C30BA1160969469228096C0792C38948
:1041900007026D0E68C38C8B0A45429150241405AA
:1041A0006E0A66C38BCA84C449006F0A66C31B8A41
:1041B00088938402700B86BB8B8A88D34528047150
:1041C0000A86BB9B1327495101720863438A8A2ED2
:1041D00000730B65439B894689CA0400740A8343B4
:1041E0000A89A4A24900750966C30B112F930276B0
:1041F0000C66C30B114942A2094500770E68C30C37
:10420000898422391C28222D00780C65430B09452E
:10421000329A482802790B863A1BFD692614CD0094
:104220007A0965438B9A485B017B0CB4BF2A8948A5
:104230008B4CA44D007C07A2BF8907037D0CB4BF43
:104240000A99489B44A445047E0826DB9BC30400CE
:10425000A005006E0AA108923B0AD1E100A20D86DA
:10426000BF3B1145445492906400B80C96C39B9197
:1042700044554653141AA40D76CB0B9184226292B6
:10428000504402A50E96C30B1193846212998422A6
:1042900000A608B2BB89C3E830A712A6BF1B8A4894
:1042A0002223494412114D22925000A807145E8A1D
:1042B0008800A90F78CB2C9A482239882815918C30
:1042C00004AA0864CF8AD18148AB0856C32B0A1BC5
:1042D00003AC0726CB0BA300AD0613538A01AE0F28
:1042E00078CB2C9A4872B01C2622190900AF061709
:1042F000E68B03B00834DB1A094502B10B76C32BF9
:10430000A1C82494430CB20954528A99441223A898
:104310000954528A99445601B407235F1A0A00B51A
:104320000B86BB0B89FEE5101402B60AA6BF9BC321
:1043300083A4C407B70612530A01B806233B9A02A6
:10434000B90753539A8A06BA0864CF8A072101BB7A
:104350000956C30B1A0B1300BC1198C31CE94C225D
:10436000529151449289C44416BD1198C31CE94C22
:10437000225291D9441291442426BE1298C38C39FA
:10438000402411C94815916422319105BF0D96BB97
:104390002B394C285354925000C00E98423CB19493
:1043A000481369B244A702C10C96438C4350B12212
:1043B00062BA00C20C96438C8A88E92262BA00C3B2
:1043C0000996438C43503F02C414A9BF2D9B482635
:1043D0009289642299482652931CA802C50B9643E1
:1043E0008C4350B1225434C6149C428EA04C2252AD
:1043F00093A89A5D256A2295A04C00C70E96431C8F
:104400008A48A8421592241400C80E97C30C19A913
:10441000E510B1944A3401C910B7C31CB5918CD4CE
:104420007288584A259A00CA1097430C91448936DD
:104430001CD22422159900CB1398439D8B4C2293B8
:10444000C82432894C2293C88802CC0F98430D218E
:10445000B1643ABC482812A200CD0B97C30C19B71F
:10446000038D9B00CE0B97C39C8A8CDF241500CF55
:104470000997C38C838CBF09D00C97430C8B8CEDB0
:1044800010916A05D10C97439C8A8CAA3749050084
:10449000D20996430C93503F01D30F98428CE854B5
:1044A000229251C552D53800D41298431D8B0A452B
:1044B00042915024140945C52803D51098428CE830
:1044C00054229251A53491243A15D616A8BF0C99BE
:1044D00044269149641299442691496492435800B4
:1044E000D70A97C30C1937895507D8159A430E91E7
:1044F000882422894822928824228948A24301D90B
:1045000017AB3F0E918A4845A4225211A988544402
:104510002A2295031D24DA1399C20C3A400E900307
:10452000E4009B924C24135900DB0D99C30D29D74D
:104530004384E6769808DC0C97430CA9568B8CEDE7
:104540001001DD0E97C39C8A4CAA5495D224150005
:10455000DE0C99C30D4985E66F940A00DF0E97C300
:104560009C438C4D622349946802E00A66C31BAAEF
:10457000E4449214E10D96C34B09455811719250D1
:1045800000E20B66C38B8AE822225D00E3086543E4
:104590008B9B6E00E40F773F9C9244241149441298
:1045A000C94126E50C66C31B8AE83014492800E699
:1045B0000C68C30C898A8D6651A128E70C66C31B61
:1045C0008A483425492800E80A66C30B11CBA1426A
:1045D00012E90C86C31B9A48C472A89004EA0C66C0
:1045E000C30B89843423499404EB0E67431C8B4826
:1045F00022928824229A00EC0C78BF0C61E9609129
:10460000101905ED0A66C30B11E9306212EE0A6655
:10461000C31B8A88938402EF0966C38B43882701F2
:10462000F00B86BB8B8A88D3452804F10B66C31B2D
:104630008A88A824A100F20966C30B93502700F3CF
:104640000B863A1BFD692614CD00F40D96BB2B1981
:10465000E5F030A1094500F50C65430B0945329A98
:10466000482802F60F773F0C9144241149441291D7
:10467000E42AF70A66C30B1193A4A800F80F68C3D5
:104680000C898422A14828128AE430F90C793F0D64
:1046900089FEBF1CE40001FA0B66C38BA19024D1F4
:1046A0004201FB0C67430C19CD42B11C2202FC0BEA
:1046B00065430B998C22A15800FD0965430BE24D1F
:1046C0006601FE0B67430CC984E2853201FF0A656F
:1046D000431B0B4562A108000000000000200023DE
:1046E00000260029002C002F0032000001000003EA
:1046F0000106010901050505050705080808080266
:104700000202020A0A08080404040401010101016A
:104710000101010303030303030303040707070C59
:104720000C0C0C0C0C0C0C0202020206060606060F
:104730000606060B0B0B0B0B0B0B0B0102102020BC
:1047400008081020401020408002010201080402E5
:10475000010102040810204080804020100804025B
:1047600001800402018040201008040201080402B4
:1047700001010204081020408001020408102040BA
:1047800080001D8211241FBECFEFD1E2DEBFCDBF5E
:1047900000E00CBF16E0A0E0B2E0E8EDF8E201E0D6
:1047A0000BBF02C007900D92A038B107D9F721E1E5
:1047B000A0E8B6E001C01D92AE3BB207E1F713E2FC
:1047C000C2ECD3E200E006C021970109802FFE0170
:1047D0000E948790C13CD10780E00807A9F70E949A
:1047E000E7680C946A940C9400002F923F924F92C9
:1047F0005F926F927F928F929F92AF92BF92CF9271
:10480000DF92EF92FF920F931F93CF93DF93CDB779
:10481000DEB7CF5DD1090FB6F894DEBF0FBECDBFB6
:104820005C01DC0112968D919C91139704960E9475
:104830002744FE01EF57FF4FCB52DF4FF983E88348
:10484000C55DD040809186068D3009F4E7C7A0F49D
:10485000843011F40C94682F40F4813009F477C14E
:10486000823011F40C94712C1EC08B3009F43AC3C1
:104870008C3009F462C517C0833611F40C944331AF
:1048800048F4853111F40C94E22D863111F40C9426
:10489000B62E09C0853611F40C94263120F08957C4
:1048A000843008F4ABC5D50157961C925797609198
:1048B000580D7091590D12968D919C91139720E788
:1048C000C22E2AE4D22EFC01D782C68204960E9410
:1048D0003C4DF82E6091580D7091590DD5011296EE
:1048E0008D919C911397FC01D782C68204960E94F9
:1048F0003C4D182F6091580D7091590DD5011296AD
:104900008D919C911397FC01D782C68204960E94D8
:104910003C4D082FD5015C968C91843058F5813040
:1049200098F581E0D50155968C93559754961C9235
:10493000549712968D919C9113970E942238D5011D
:104940001E96ED91FC911F970280F381E02D128657
:104950005296ED91FC915397128683E2868B20E16B
:1049600030E040E050E060EF7AE08BE00E94D85DFC
:104970000C945F31883008F45AC0883009F4AAC01A
:10498000F501148E0C945F31D501ED91FC913697B1
:104990008081918162E08A0D9B1D0E94AB3D9C014C
:1049A00041E06CE6F501828193810E945E38D50179
:1049B00012968D919C911397FC01EE5BFF4F408105
:1049C0006CE004960E941F54F501648D862F880FB9
:1049D000880F680F645F8281938104960E94F4536C
:1049E0002091580D3091590DF69498E7E92E6E2DCF
:1049F0006F194FE0D50112968D919C9113970E94EB
:104A00005E382091560D3091570D16956E2D611B15
:104A10004EE1F501828193810E945E3820915A0D0A
:104A200030915B0D06956E2D601B4DE24DC0F5017A
:104A3000828193816DE104960E94F4532091580D78
:104A40003091590DF69488E7E82E6E2D6F194FE0DE
:104A5000D50112968D919C9113970E945E38169500
:104A60002091560D3091570D6E2D611B4EE1F501D1
:104A7000828193810E945E3820915A0D30915B0DA6
:104A800006956E2D601B4DE2D50112968D919C917D
:104A900013970E945E3880915E0D90915F0D892B77
:104AA00011F40C945F3160E9610F22EC34E04EE1C7
:104AB000F501828193810E945E3820915E0D3091D4
:104AC0005F0D60EA610F4EE1D50112968D919C91C8
:104AD000139704C7D5015296ED91FC915397FF248B
:104AE000F394F28617861E960D911C911F97809164
:104AF000100A81110CC0F80180819181DC01ED91D7
:104B0000FC910680F781E02D1995F092100A8091B2
:104B1000100A80938606D8011296ED91FC911397A6
:104B200011E01287F5018281938104960E9413445B
:104B3000D50112968D919C9113970E942238F50110
:104B4000148E138E168B148A158A0C945F31D5013E
:104B5000ED91FC913697808191816BE08A0D9B1DD0
:104B60000E94AB3DBC01C5010E94EB3CF501828176
:104B70009381A9E2EA2EA5E0FA2E02E122E147E2C2
:104B800060E004960E943C44D50112968D919C9160
:104B90001397BBE0EB2EB5E0FB2E0AE022E149E2E1
:104BA00064E104960E943C44F501828193811DEEEC
:104BB000E12E14E0F12E22E144E364E104960E9428
:104BC0003C44D501ED91FC9111973697408151817C
:104BD0004A0D5B1D4B575F4F1696ED91FC91179751
:104BE000EC56FF4F60817181828193810E94F63A79
:104BF000D501ED91FC9111973697208131812A0DD5
:104C00003B1D2B573F4F47E26DE212968D919C91D1
:104C100013970E945E38D501ED91FC913697208163
:104C200031812A0D3B1D2B573F4F47E26DE2C501F5
:104C30000E94C353D5011696ED91FC911797E85643
:104C4000FF4FC080D180E280F38020E030E046EC6E
:104C500052ECC701B6010E94598D87FF0AC025ECAE
:104C600034E042E36DE2F501828193810E945E3877
:104C70004AC0D501ED91FC913697408151814A0D92
:104C80005B1D4B575F4FC701B6010E94F63AD50135
:104C9000ED91FC9111973697208131812A0D3B1DB2
:104CA0002B573F4F42E36DE212968D919C911397E3
:104CB0000E945E38D501ED91FC9111973697608185
:104CC00071816A0D7B1D6B577F4F12968D919C9160
:104CD000139720E73AE4FC013783268304960E9469
:104CE0003C4DD50191968C939197ED91FC9136971F
:104CF000208131812A0D3B1D2B573F4F42E36DE24E
:104D0000C5010E94C353F50182819381FFE9EF2E13
:104D1000F5E0FF2E02E122E140E164E004960E940A
:104D20003C44D50118968D919C9119970E94863923
:104D3000D501ED91FC913697408151814A0D5B1D63
:104D40004B575F4F0E94F63AD501ED91FC911197B8
:104D50003697208131812A0D3B1D2B573F4F40E173
:104D60006EE112968D919C9113970E945E38D50149
:104D7000ED91FC9111973697608171816A0D7B1DD1
:104D80006B577F4F12968D919C91139720E73AE4D1
:104D9000FC013783268304960E943C4DD5019196F1
:104DA0008C939197ED91FC9136978081918164E489
:104DB0008A0D9B1D0E94AB3D9C0140E161E4F50121
:104DC000828193810E945E38D5011696ED91FC9107
:104DD0001797E05BFF4F208112968D919C9113975E
:104DE000211105C0EFE5EE2EE5E0FE2E04C07FE7C1
:104DF000E72E75E0F72E00E120E140E161E6049640
:104E00000E943C44F501E084F184C7010E94863988
:104E1000D501ED91FC913697008111810A0D1B1D82
:104E20000B571F4F20E030E048EC52E40E94BE8D4B
:104E30002B013C01F701E05CFF4F0190F081E02D78
:104E4000E452FF4F2081318142815381F701608517
:104E50007185828593850E94E98E9B01AC01C30117
:104E6000B2010E944D8FA8010E94F63AD501169614
:104E7000ED91FC911797E452FF4F20E030E040E8BD
:104E80005FE360817181828193810E94598DF50178
:104E90000281138187FD02C00C948431A085B18505
:104EA000FD01E05CFF4F0190F081E02DE452FF4FE7
:104EB00018962D913D914D915C911B976081718168
:104EC000828193810E94E98E20E030E040E85FE338
:104ED0000E94598D87FD02C00C94843129EF35E082
:104EE0000C948E31D501ED91FC91369780819181A2
:104EF00060E18A0D9B1D0E94AB3DBC01C5010E9473
:104F0000EB3C24ED34E040E168E0F50182819381DF
:104F10000E945E38D5011696ED91FC911797E25AE2
:104F2000FF4F81818F9380818F9389ED94E09F93D0
:104F30008F93ED91FC913697808191818A0D9B1D15
:104F40008B579F4F9F938F930E94A191D501ED9115
:104F5000FC9111973697208131812A0D3B1D2B57EB
:104F60003F4F40E163E212968D919C9113970E940E
:104F70005E382EED34E04BE168E0F50182819381EB
:104F80000E945E38D5011696ED91FC911797E05A74
:104F9000FF4F81818F9380818F9383EE94E09F9365
:104FA0008F93ED91FC913697808191818A0D9B1DA5
:104FB00087579F4F9F938F930E94A191D501ED91A9
:104FC000FC9111973697208131812A0D3B1D27577F
:104FD0003F4F4BE163E212968D919C9113970E9493
:104FE0005E3828EE34E047E268E0F5018281938183
:104FF0000E945E38D5011696ED91FC911797E45901
:10500000FF4F83818F9382818F9381818F938081E2
:105010008F938FEC94E09F938F93ED91FC91369753
:10502000808191818A0D9B1D8E579F4F9F938F93F7
:105030000E94A191D501ED91FC91119736972081A5
:1050400031812A0D3B1D2E573F4F47E263E21296F6
:105050008D919C9113970E945E382DEE34E042E3CF
:1050600068E0F501828193810E945E38F501A08598
:10507000B18580819181FC013697008111810A0DF3
:105080001B1D0B571F4FFD01E05CFF4F0190F0818E
:10509000E02DE452FF4F18962D913D914D915C917A
:1050A0001B9760817181828193810E94E98EA801A2
:1050B0000E94F63AD501ED91FC9111973697208127
:1050C00031812A0D3B1D2B573F4F42E363E212967D
:1050D0008D919C9113970E945E38F5018281938196
:1050E00014E1E12E1DE3F12E08E029E045E365E53A
:1050F00004960E943C4422EF34E040E16AE9D50185
:1051000012968D919C9113970E945E38D501169648
:10511000ED91FC911797DF01A25ABF4F0FB6F8949B
:10512000DEBF0FBECDBF8D919C91892B71F5E852EA
:10513000FF4F83818F9382818F9381818F938081B1
:105140008F9387EF94E09F938F93CA52DF4F3881FC
:10515000C65DD0403F93CB52DF4F8881C55DD040C4
:105160008F930E94A1919E012F573F4F40E163EC26
:10517000D50112968D919C9113970E945E380FB6BF
:10518000F894DEBF0FBECDBF0BC02BEF34E040E183
:1051900063ECD50112968D919C9113970E945E3815
:1051A0002DEF34E04BE16AE9F501828193810E94A1
:1051B0005E38D5011696ED91FC911797E55AFF4F91
:1051C00080811F928F9389ED94E09F938F93ED914F
:1051D000FC913697808191818A0D9B1D8B579F4F43
:1051E0009F938F930E94A191D501ED91FC9111970E
:1051F0003697208131812A0D3B1D2B573F4F4BE1C4
:1052000063EC12968D919C9113970E945E38D501A4
:10521000ED91FC913697208131812A0D3B1D2B5752
:105220003F4F4BE166EEC5010E94C35322E035E0DB
:1052300047E26AE9F501828193810E945E38D501D7
:1052400016968D919C9117970E94C9391F928F9342
:105250008FEC94E09F938F93D501ED91FC9136975D
:10526000808191818A0D9B1D8E579F4F9F938F93B5
:105270000E94A191D501ED91FC9111973697208163
:1052800031812A0D3B1D2E573F4F47E263EC1296AA
:105290008D919C9113970E945E3827E035E042E3A0
:1052A0006AE9F501828193810E945E38D5011896E2
:1052B000ED91FC91199720E030E048EC52E46485D0
:1052C0007585868597850E94BE8D0E94B58F7F93D8
:1052D0006F938CE095E09F938F93D501ED91FC91B6
:1052E0003697808191818A0D9B1D8C569F4F9F938D
:1052F0008F930E94A191D501ED91FC911197369762
:10530000208131812A0D3B1D2C563F4F42E36EEB2D
:1053100012968D919C9113970E945E38F5018281BF
:105320009381B4E1EB2EBDE3FB2E08E029E045E3D9
:1053300066EE04960E943C4413C5D501ED91FC91A4
:1053400036978081918161E18A0D9B1D0E94AB3D62
:10535000BC01C5010E94EB3CD5011296ED91FC9178
:105360001397EA58FF4F8BE29AE491838083129659
:105370008D919C911397FC01E858FF4F28E0208302
:1053800031968BE180835B962C915B978D919C91FC
:10539000223030F4FC0136978081918168E11CC095
:1053A0003DEF320F333080F4FC01369780819181DC
:1053B00069E18A0D9B1D0E94AB3DBC01D50112968F
:1053C0008D919C91139710C02750233078F4FC01E5
:1053D0003697808191816AE18A0D9B1D0E94AB3DC9
:1053E000BC01F501828193810E94E961D501ED91B3
:1053F000FC9136978081918160E252C2609186066D
:105400006E55D501ED91FC913697808191818A0D81
:105410009B1D0E94AB3DBC01C5010E94EB3CF50108
:105420000289138981E0D8011F968C9380918606AA
:105430008A37D9F118F4893741F0B8C08B3709F4AD
:1054400052C08C3709F47EC0B1C0F501E680F78008
:10545000D7015A964D905D906D907C905D9720E0BD
:1054600030E0A901C301B2010E94E68F18163CF09A
:10547000ADEC4A2EACEC5A2E652CAFE37A2EF70138
:10548000E25AFF4F6081718180E090E00E945D8D63
:10549000C552DF4F688379838A839B83CB5DD0407D
:1054A0008DEC9CECACECBFE378C0E680F780F701B4
:1054B000468C578C60A071A020E030E0A901C301A8
:1054C000B2010E94E68F181634F0412C512CF6E9F7
:1054D0006F2EF2E47F2EF701E05AFF4F6081718159
:1054E00080E090E04CC0E680F780F70142A053A036
:1054F00064A075A020E030E0A901C301B2010E94C0
:10550000E68F18163CF0412CE0EA5E2EE0EF6E2E9E
:10551000E6E47E2EF701E452FF4F608171818281C3
:1055200093810E94BA8F0E945D8DC552DF4F6883C0
:1055300079838A839B83CB5DD04080E090EAA0EFA3
:10554000B6E42BC0E680F780F70146A057A060A420
:1055500071A420E030E0A901C301B2010E94E68FEE
:10556000181634F0412C512C76E9672E72E4772E10
:10557000F701E459FF4F60817181828193810E941C
:105580005D8DC552DF4F688379838A839B83CB5DB2
:10559000D04080E090E0A6E9B2E4C952DF4F8883B2
:1055A0009983AA83BB83C75DD04013C0C552DF4F28
:1055B000188219821A821B82CB5DD040412C512C5B
:1055C0003201C952DF4F488259826A827B82C75DAD
:1055D000D040D5015B968C915B97823090F45696C3
:1055E0008C915697882369F0F80140A251A262A2DB
:1055F00073A28AE0868B81E055968C9355975496DA
:105600001C92D5015296ED91FC915397C0A0D1A068
:10561000E2A0F3A0ED91FC913697408151814A0DB3
:105620005B1D45565F4FC701B6010E94F63AD50192
:10563000ED91FC9136978081918162E18A0D9B1DED
:105640000E94AB3D9C0140E16EE1F50182819381B6
:105650000E945E38D501ED91FC911197369720811B
:1056600031812A0D3B1D25563F4F40E16AE91296D4
:105670008D919C9113970E945E38D5015296ED91C1
:10568000FC9153978285811106C05B968C91837043
:1056900011F40C947033D5015296ED91FC9153970F
:1056A000828581113CC0A3019201C701B6010E940D
:1056B000598D81110C94AA3332C08B3710F00C94A1
:1056C000BC33893769F42AE037ED43E25CE3C70174
:1056D000B6010E94BE8DF801608F718F828F938F0B
:1056E00080E4F801DE01119601900D928A95E1F7B0
:1056F000F5012681378180E4FE013196DE01AF5B42
:10570000BF4F01900D928A95E1F780E4FE01EF5BB7
:10571000FF4FD901129601900D928A95E1F7D501BC
:10572000ED91FC913697408151814A0D5B1D4556A4
:105730005F4FC952DF4F688179818A819B81C75D44
:10574000D0400E94F63AD501ED91FC9136978081C8
:10575000918163E18A0D9B1D0E94AB3D9C0147E254
:105760006EE1F501828193810E945E38D501ED9151
:10577000FC9111973697208131812A0D3B1D2556CA
:105780003F4F47E26AE912968D919C9113970E94D0
:105790005E38C552DF4F688179818A819B81CB5DFC
:1057A000D0400E94BA8F7F936F9383EE94E09F93D3
:1057B0008F93D501ED91FC913697808191818A0D6F
:1057C0009B1D85569F4F9F938F930E94A191D5015A
:1057D000ED91FC913697808191816FE18A0D9B1D3F
:1057E0000E94AB3D9C0142E36EE1F5018281938111
:1057F0000E945E38D501ED91FC911197369720817A
:1058000031812A0D3B1D25563F4F42E36AE912962E
:105810008D919C9113970E945E3853C3D501ED91F1
:10582000FC913697808191816FE08A0D9B1D0E94CB
:10583000AB3DBC01C5010E94EB3CD501ED91FC9153
:1058400036978081918164E18A0D9B1D0E94AB3D5A
:105850009C0140E168E0F501828193810E945E38FD
:10586000D501ED91FC9136978081918165E18A0D9A
:105870009B1D0E94AB3D9C014BE168E0F5018281DC
:1058800093810E945E38D5015B962C915B978D9138
:105890009C91FC01369780819181253048F466E126
:1058A0008A0D9B1D0E94AB3D9C0142E368E013C042
:1058B00067E18A0D9B1D0E94AB3D9C0142E368E0BD
:1058C000D50112968D919C9113970E945E3821E12B
:1058D00035E042E367EDF501828193810E945E38F5
:1058E000EEC4D501ED91FC913697808191816CE0F9
:1058F0008A0D9B1D0E94AB3DBC01C5010E94EB3C83
:10590000CE018F579F4F0E94E23ACF57DF4F188248
:1059100019821A821B82C158D040CB57DF4F1882A0
:1059200019821A821B82C558D04088E0FE01EF57C9
:10593000FF4FDE01AB56BF4F01900D928A95E1F704
:1059400088E0FE01EB56FF4FDE01A356BF4F0190EA
:105950000D928A95E1F730E1C32EC356DF4FE88000
:10596000CD59D040C256DF4FF880CE59D040C156F5
:10597000DF4F0881CF59D040C056DF4F1881C05A41
:10598000D040CF55DF4F2881C15AD040CE55DF4F90
:105990003881C25AD040CD55DF4F4881C35AD040DC
:1059A000CC55DF4F5881C45AD04066E175E0C5013F
:1059B0000E944466D5011896ED91FC91199788E0F4
:1059C000B896DE01A354BF4F01900D928A95E1F77E
:1059D00088E0FE01E354FF4FDE01AB55BF4F01905D
:1059E0000D928A95E1F74BE1C42ECB55DF4FE8804D
:1059F000C55AD040CA55DF4FF880C65AD040C95565
:105A0000DF4F0881C75AD040C855DF4F1881C85AA8
:105A1000D040C755DF4F2881C95AD040C655DF4F07
:105A20003881CA5AD040C555DF4F4881CB5AD04043
:105A3000C455DF4F5881CC5AD0406CE175E0C501A8
:105A40000E944466D5011896ED91FC91199788E063
:105A5000F096DE01AB53BF4F01900D928A95E1F7AE
:105A600088E0FE01EB53FF4FDE01A355BF4F0190CD
:105A70000D928A95E1F757E2C52EC355DF4FE880B6
:105A8000CD5AD040C255DF4FF880CE5AD040C155D4
:105A9000DF4F0881CF5AD040C055DF4F1881C05B1F
:105AA000D040CF54DF4F2881C15BD040CE54DF4F70
:105AB0003881C25BD040CD54DF4F4881C35BD040BA
:105AC000CC54DF4F5881C45BD04062E275E0C50121
:105AD0000E944466D5011896ED91FC91199788E0D3
