:100000000C94492D0C94FB5B0C94D05B0C94A55B79
:100010000C947A5B0C944F5B0C94245B0C94F95A0F
:100020000C94CE5A0C947A2D0C947A2D0C947A2D33
:100030000C947A2D0C94B8510C947A2D0C947A2D42
:100040000C947A2D0C947A2D0C947A2D0C947A2D94
:100050000C947A2D0C947A2D0C947A2D0C945F4D7F
:100060000C947A2D0C949D570C9474570C947A2D03
:100070000C947A2D0C947A2D0C947A2D0C947A2D64
:100080000C947A2D0C947A2D0C947A2D0C947A2D54
:100090000C947A2D0C947A2D0C947A2D0C94265C69
:1000A0000C947A2D0C947A2D0C947A2D0C947A2D34
:1000B0000C947A2D0C947A2D0C947A2D0C947A2D24
:1000C0000C947A2D0C947A2D0C947A2D0C944A571A
:1000D0000C9421570C947A2D0C947A2D0C947A2D33
:1000E0000C947A2D778585859485BC85D685EA859F
:1000F0000386148624863A86D258D558C458C858E0
:10010000CE580C59D958DD58E358E758EB58F158F8
:10011000F558F9580C59FF58035907599F59A459D4
:10012000A959B359BD59365AC759CF59D759E15969
:10013000EB59F559045A0E5A365A185A225A2C5A63
:10014000A05AA85A725A7A5A865A935AB45AC15A1D
:1001500008000000BE922449123EABAAAA2ABECDD6
:10016000CCCC4C3E00000080BEABAAAAAA3E000048
:100170000000BF000000803F000000000008417840
:10018000D3BB4387D1133D190E3CC3BD4282AD2B77
:100190003E68EC8276BED98FE1A93E4C80EFFFBE6F
:1001A00001C4FF7F3F00000000004E414E494E4910
:1001B0005459494E46CDCCCC3D0AD7233C17B7D134
:1001C0003877CC2B329595E6241FB14F0A000020DA
:1001D000410000C84200401C4620BCBE4CCA1B0E59
:1001E0005AAEC59D7400407A10F35A00A0724E18A2
:1001F000090010A5D4E80000E87648170000E40BD9
:1002000054020000CA9A3B000000E1F5050000809E
:10021000969800000040420F000000A086010000F8
:1002200000102700000000E8030000000064000048
:100230000000000A00000000000100000000002C87
:1002400076D888DC674F0823DFC1DFAE59E1B1B74C
:1002500096E5E3E453C63AE651997696E8E6C28419
:1002600026EB898C9B62ED407C6FFCEFBC9C9F4031
:10027000F2BAA56FA5F490055A2AF75C936B6CF956
:10028000676DC11BFCE0E40D47FEF520E6B500D02C
:10029000ED902E0300943577050080841E08000041
:1002A000204E0A000000C80C333333330F986E120F
:1002B000831141EF8D2114893BE65516CFFEE6DB15
:1002C00018D1844B381BF77C1D901DA4BBE424205F
:1002D0003284725E228100C9F124ECA1E53D270041
:1002E000002100240027002A002D003000330001E7
:1002F000010000040107010A01526573746F726501
:100300002056616C75653A00416C61726D20706CAD
:100310006179206174200054616E6B20636F6E748C
:10032000656E643A200054616E6B2063616C637586
:100330006C6174653A2000746E6B002020003030D0
:100340002E30002D2D2E2D00001F0000000000FF7C
:100350000000000000FF0000000000FE00000000A0
:1003600000F80000000000F00100000000E00100C3
:10037000000000E00100000000E00100000000E0DB
:100380000100000000E00100000000E001000000AA
:1003900000E00300000000C00300000000C00300F4
:1003A000000000C00300030000C003C0030000C041
:1003B0000FF0030000C03FFC030000C0FFFF03007C
:1003C0000080FFFF03000080FFFF01000080E7E7DF
:1003D0000100008087E10100008007E0010000804B
:1003E00007E0010000800FE0010000000FF00100B5
:1003F00000000FF0000000000FF0000000000FF000
:10040000000000C00FF0000000C00FF0000000C0AE
:100410001FF8000000C07FFE00000080FF7F00008A
:100420000000FE3F00000000F80F00000000C003C5
:1004300000000000000000003CEFF939B3076C6FCA
:100440006B6DB3076C63636CB7013C67636CB70398
:100450006CE7616CBF036C63636CBB016C6F636CB6
:10046000BB073C6F6338B3074B4D48200052504DDB
:100470002000454355200044535420004F444F2052
:1004800000454E472000475253200057524B200052
:100490002F00424C42200050454320005D005B008D
:1004A0004552524F523A2043616E6E6F7420666916
:1004B0006E6420637572736F7220666F722064655C
:1004C0006C6574696E67202E2E2E2E2000455252C8
:1004D0004F523A2044454C4554452074726970206F
:1004E0004320004552524F523A2044454C45544512
:1004F0002074726970204220004552524F523A20B7
:1005000044454C4554452074726970204120003E9A
:10051000004552524F523A205472697020637572EE
:10052000736F72206F7574206F662072616E6765DD
:10053000202E2E2E2E20004E4F544943453A204463
:10054000656C65746520747269702E2E2E2E2000E5
:10055000424E5A2076616C75653A20002A004C5054
:10056000472074616E6B3A2020004E0052616E6726
:10057000653A20003E003E003E003E002028202B31
:100580002F2D20352520746F6C6572616E6365298F
:100590000056200020546F20726573657420686FC8
:1005A0006C6420232B242000205072657373202359
:1005B00020746F207265736574206461746100201B
:1005C00054696D696E672062656C74206469737428
:1005D000616E63653A2000600005050607050707A0
:1005E000375500F13AF13A0107F0101618052007C7
:1005F000000002CB00211387EE02ADE0FF07980F49
:10060000942270C1104400002222D062BFCD62301B
:10061000C32848110EE112472886210A528CC10CCA
:10062000643003118E5002141000238A9D8E02CB79
:1006300009214842089210822484200921483ACA9C
:100640009110822484200921484208921082248437
:100650001CEA204842089210822484200921484242
:1006600008928E728C0FFC07A28210242104490884
:10067000411242908410241DE5500741CA07FE0331
:10068000D140089210822484200921483ACAA10E40
:1006900082248420092148420892108224841CEA82
:1006A0002847420892108224842009214842089257
:1006B0008E72240024595D92E2CAEBB0E74717F826
:1006C000B46851A83A57C988521691A444200B091E
:1006D000088B1AD49EE7D8C32215B1484DA8DA5C1E
:1006E000D165AE3799B99A0A55D1A42216A9883D89
:1006F000ACF39E066B8740162292940CA528242BFF
:10070000D7A9D2B422E7C4A41EF6FC16002581DEC8
:100710008EFECCC460C8401432948408062182390D
:1007200088700C228E60184418A328C83046519057
:1007300071048320852948610A62948220C420C9FB
:1007400038874555C4A22A62117B5854452CAA22E9
:1007500016B1874555C422F6B0287B58943D2C62CB
:100760000F8B3A853A4C7290B2188434E520CF4012
:1007700088218E719482180229053104520C71323D
:100780004F404E238EB48C432503614501002673F0
:10079000DD8E02CBEB98CD7B5AB4A6549DCB2C6159
:1007A00029C9490892108224841CEB20C73AC861E9
:1007B0000F8B54C4221565918AD4642A73890C74F2
:1007C0009EF39E06B5882101618740D83110E20C66
:1007D000843804190E41864312E114443825098EE9
:1007E00041826390E01C1BAA90752CD404E4340170
:1007F000418B50CC3256242B98B9CE75AC54AD6396
:10080000202714C7E2BEAD621845A8423188319056
:10081000810825200028434F6E07CD6860843A1078
:1008200062908318E4200639C8390E728E833A0725
:100830003A0E720E747650E740E70F210785CE100E
:1008400072107420E4A0107290931CE4240739C93C
:10085000414E728C542CA100293D4F6E07CB645839
:10086000053A4E7210841C042107410742D0819042
:1008700083A01342D019420E82CEFF3B68E740C7E7
:10088000419DE3A0CE7150063988414C629083208F
:1008900063112D40002A3999C6A6CBAAA0652D3038
:1008A0008509CA508A3290629406128A80842C5C30
:1008B0006442CF6A58B31E34912B64010945404607
:1008C00019194A51861298C204ADA0650A002B136B
:1008D00096052FCDE778E7873EF007BC73BCF32180
:1008E000002C1087E2F6AAA1085C30444184220A59
:1008F000002D0AD6014BCDE01FF0002E0DC7E102FE
:10090000ABA1085C30C420002F429CAE02CB1499EE
:1009100008454D84A22642117A50D444286A2214F4
:1009200035118A9A08454D8422F4A0287A50D4447F
:10093000286A221435118A9A08454D8422F4A02889
:100940007A50D444286A22144501303D9D8E02CB52
:10095000EB988D8BD694AA73958C2C6319CA51048D
:10096000B210812C24200D6ACF73FFFFFFBFF73434
:10097000A821E1688740162294A38C15C9CA75AADC
:1009800034ADC835F35800311B8EAE03CDE7CCA093
:100990004A8A28E2031FD0C23292729CF3FFFFFF03
:1009A000FF0F325C9D8E02CBEB98CD83D694AA7359
:1009B000958C306219CA5104B210812C24200D6A22
:1009C000CF73BDA7410D09474382D11041B86408D8
:1009D0000FA1C94C2842939950842633A1084D2871
:1009E00042939950842633A1084D6642119A50844F
:1009F0002633A1084D6642119AD00FFC0722334DD1
:100A00009D8EFECAE07F20A209456832138AD06419
:100A10002614A1C94C2842939950842633A18B6493
:100A2000A2F31E0735882A15B148452C52117BFECA
:100A30005554111C3288868863254141C9600433AE
:100A4000B2729D2A4D0C7A0C2D1A0034479D8E02ED
:100A5000CB0AA9873D2AAA1EF6A8A87A54B47A54CC
:100A6000B47A54B47A54543DEC5151F5A848391233
:100A7000528E8494231DE640883910620E849803B8
:100A80001DE738C8390E728EF381FF40E4107BFEFB
:100A9000770035459D8E02CBE07F20AB873DFF235D
:100AA00088AAD065B092116D6CC211ABA384642189
:100AB00001614840DAE39EE7BCC39E3FEB3C97836D
:100AC0001AC410812C442448198C584856AE53A59A
:100AD0006945AE99C7020036559D8E02CBEB988DC5
:100AE0008BD694AA73958C2C8219CA5104B21071BA
:100AF000B423200D72CE73ECF91B4AB2CE65B092CE
:100B0000116D6C82298A505212928504A441ED71B4
:100B1000CF73FFDED3A086046421025988508E3241
:100B200056242BD7A9D2B422D7CC6301374D9D8E42
:100B300002CBE07F206350831A128E8684A321E1CA
:100B400060493818220E86D014452A42138A54145C
:100B50004D28525134A14845D1842215A1298A54E7
:100B600084A62852119A50A4A26842918AA20945EB
:100B70002A425314A9084D1A0038609D8E02CBEB0F
:100B8000988D8BD694AA73958C2C6319CA5104B294
:100B900010812C24200D6ACF73DF7B1AD490802C17
:100BA00044200B11CA51C68A64E53A559A5275AE73
:100BB0009211A5282349894016129006B5E7B9EF8E
:100BC0003D0D6A48381822908508E5286345B272C1
:100BD0009D2A4D2B72CD3C160039549D8E02CBEBD5
:100BE000988D8BD694AA73958C2C6319CA5104B234
:100BF00010812C24200D6ACF73FF39A8410D09C83C
:100C00004A429214A114466C434732731D2B29E3C8
:100C1000B0E7B3CE7339A8410C11C842448294C1E5
:100C2000888564E53A559A56E49A792C003A154736
:100C3000E81EAB62181F1842F1C1AD2270C11083CB
:100C400000003B1707E912AB62181F1842F1C1AD53
:100C50002270C11005118A28003C3092482FCB6FBA
:100C600070442B98A19094A0E4A84E8292A342884D
:100C70003A96C18A66B063212A514A52544A292AB7
:100C8000A59075B4C2116F80023D105AC526CDE003
:100C90003FB07DF0F607FE810D3E2ED2482BCB20D3
:100CA00088021C5ED10C762C44292A4D292A4D211C
:100CB000CC680533D6A11094EE282741A984288357
:100CC000158D70C30B22003F42DD8E02CBEB988D59
:100CD0008BD694AA73958C2C63190A4A44A210816E
:100CE00030A841CE79CE3BECA9A2683293A9484501
:100CF0002E7191EA668A2215A9873DFFDF07F78AE0
:100D00006BDCC39EAC8189060040D57391C6F6B3F7
:100D1000F900993C9637FBCD0F08F103C47392D3C9
:100D200098C7AC652E69B10A527072929D9884275B
:100D300024594738084A45041988920A22903415E4
:100D40004420883287385065205419E82842390EEB
:100D5000420C721C741CE438E8741C743A0E3A1D80
:100D6000079D8E834EC741A7E3A0D371D0E938E831
:100D7000741C743A0E3A1D079D8E834EC741A7E33B
:100D8000A0D371D0E938E8741C743A0E3A1D079D5F
:100D90008E838E831C07212629D051441324F4818D
:100DA000411CE8038338D2078281248F20CA098D31
:100DB0004114339683B0031D29F9004B3EC0920FB6
:100DC0002CE5034BF9C05A3EA0980F24E803E50335
:100DD00044FCC0203F20D0AF7A78DBD80100416EC0
:100DE0009D8E02CBEBB04845681A55A622D74926FE
:100DF00032B00D3ACF712F7784C31D016947401877
:100E0000220E8688831DE360C738D8311085904351
:100E100021E4504739D4510E7514241D05418839F9
:100E2000D0710E749C031D0739C741CC3D83911CC2
:100E300041D4418E75906321E3608740D8218E763E
:100E400088A31DE26848381AE41E770042779D8E19
:100E500002CB006A93AA9075B082958C2086198780
:100E60004AC6B1127130441CED104743C2D1907094
:100E7000B8231CEE084743C2D1907034241C0C11D7
:100E8000C74AC4A11471246568232358B9CC65B03E
:100E90009211A434E348CA3856220E8688A321E171
:100EA000684838DCEBB9E75E0D094743C2C1927070
:100EB000AC441C691187694646B07219EB546852FC
:100EC000500300433E9D8E02CB0A998D8BD694AA87
:100ED00073958C2C8219095204B2908034587B9EF1
:100EE000CB9EFFFFFF7BCE7B1AD490803024200B5B
:100EF000110A4AC622189295EB54695A916B26A2A0
:100F00000044399D8E02CB405A15BA0C5632A28D40
:100F10004D206811C752C2D1907034241CEEF5DC0C
:100F2000FFFFFF9F7B35241C0D09C752C29116B1EC
:100F3000096D64042B97A990B400451D9D8E02CBCA
:100F4000E07F20AB873DFFFFAC75EC770E7BFEFFAB
:100F50002C523FF01F880046199D8E02CBE07F2067
:100F6000AB873DFFFFAC75EC770E7BFEFFFF2C00DF
:100F700047429D8E02CB0A998D8BD694AA73958C8D
:100F80002C6319095204B29080B0A841ED792E7BF0
:100F9000FE1FAABFE7FEBDA7410D09C84A02B292D3
:100FA000A09C452CA311DBD048563073A1261CEB26
:100FB000200748159D8E02CBE078EEFFFFDFFBC0D7
:100FC000FF9EFBFFFF7B07490B87EE02ADE0FF3F73
:100FD00030004A279D8E02CBF6FCFFFFFFFF679D86
:100FE000E7725083DA21908508052583110BC9CA61
:100FF00075AA34ADC8351351004B8B9D8E02CBE0E2
:10100000685043C2C19270AC441C0B19874AC6A1F8
:101010001072A4841C28290742CC7112731CE41C92
:1010200026394749D051907490241D2351C740D68A
:101030002192750884450C6A8F7B9CF39CD74026CF
:10104000B2C5063ACF798F7B1CD48E90B02324ECA6
:1010500010C93A06B28E91A88324E928483A4A82F8
:101060000E83A0C324E738893910620E9494232597
:10107000E450083954328E858C6325E26049381A71
:10108000128E96004C149D8E02CBE0B0E7FFFFFF5E
:10109000FFFF3FFB81FF40044D569D8E02CBE07069
:1010A00050833169C9149568C83A368315AC6443D6
:1010B00037B6C0850FFC034B68821318E1884538AA
:1010C0006211CE48863392E18C6438E4200E398870
:1010D000430EE294A238A5284E218C6306E398C102
:1010E000384638CE098E7382E33CF7FFBD034E5776
:1010F0009D8E02CBE0788F7B1CD4602D621193967D
:101100006C4D6AA6A844A50AD59075AC7319272022
:10111000C609887104521C81146720C4190871061D
:10112000421C820C8720C32189700A229C8208C736
:1011300020C1314870CC756CA82ED1D4DC92B1B8E6
:1011400006E75EEF004F3D9D8E02CBEB988D8BD670
:1011500094AA73958C2C6319CA5104B210812C2463
:10116000200D6ACF73FFFFFFBFF734A82101598814
:1011700040162294A38C15C9CA75AA34ADC835F39C
:10118000580050469D8E02CB006A93AA90752E831C
:10119000958C20A519475AC4B11271B0241C0D09B1
:1011A0004743C2E15ECF3DF76A48381A120E968473
:1011B0006325E2488B404A33328295CB58A742934D
:1011C00082DA61CFFFFF6701513D9D8E02CBEB9824
:1011D0008D8BD694AA73958C2C6319CA5104B29046
:1011E000902C24200D6ACF73FFFFFFBFF734A82196
:1011F00001598840162294A38C15C90A66AE731D46
:101200002B55EB1808527F9D8E02CB006A93AA9053
:10121000752E83958C20A519475AC4B11271B0243C
:101220001C0D094743C2E15ECF3DF7B8231C0D09F1
:101230004743C2C11071AC441C491948694646B0C5
:101240007219EB54A8868E73A0E320E738C839D012
:10125000710E84980321E648873912528E84944394
:101260001DE550083914428E75906321E358C83843
:10127000D8310E86888321E26848381A128E868417
:10128000C33D0E0153519D8E02CB0A998D8BD6948E
:10129000AA73958C2C8219CA5104B2108130A841CE
:1012A000ED792E7B58A42216A929AAD065AE4797BE
:1012B000B93E9AD4A422F6B04845ACF35C0E6A104D
:1012C0004304B210A11C6530622159B94E95A61590
:1012D000B966220A0054159D8E02CBE07F205A4841
:1012E0003DECF9FFFFFFFFFFB70055279D8E02CBB6
:1012F000E078EEFFFFFFFFFFDED3A086046421024B
:101300005988508E3256242BD7A9D2B422D7CC6319
:1013100001567C9D8E02CBE0788F3BC2D190703419
:10132000241CED10473B04C28E71B0631C0B19C71F
:1013300042C6B10E82A8A31CEA28873ACA919072CD
:10134000A4C320E838073ACE818E731CE41C0765DD
:101350008E7498231DE6488739D251908410441D1D
:10136000E4580739D6418E7590632102618738DAD7
:10137000218E7688A31DE268907B9CF3DC600B32A3
:1013800091255752992A9A46918AD84301578F9DA1
:101390008E02CBE0788F7BE78E70B8231C0D094757
:1013A00043C2D1907034241CED10473BC4D10E7160
:1013B000B4431CED10473B04C20E81B04320EC1037
:1013C0004809CC21901298631C4528C738C8409022
:1013D00071908120E320C440C6318A818C6314E37C
:1013E00020C728C6418E6188831CE2440E71228783
:1013F00040C241A270907C05BF72993BB384C52C5A
:101400004231CA508C3214A30CC528243948490EE5
:1014100052928318E41C0739C7410600588A9D8EF2
:1014200002CB006948381A12107608841DE358C8A8
:101430003816321075102421E5484841D061908358
:101440009CE3A0CC81107320A420E9284842C8A1C5
:101450009081AC63200B11074302D28E80B4C7BDCC
:101460009EF31AD844166C41C7BDB923200C090855
:1014700043C4C18E812864200A21873A0A8290825F
:1014800020C41C0831073A0E62908318041DE648F8
:1014900008411242107590632102598840D82110EA
:1014A0007688A3410D0159699D8E02CB00694838A9
:1014B0001A120E860864210259C83814420E85108B
:1014C00024210441883910620E741CC420E83008BD
:1014D0003A0A921082248420EA18C83A06B210719F
:1014E000302420ED08487BDCEB35B01517B9486592
:1014F0002A34A1484551A4A22852917A54543D2A35
:101500008A221545918AD4A3A228525114A9005ABF
:101510004B9D8E02CBE07F20AA08452A42918A503B
:10152000A42234A1084D2852118A54842215A148BE
:10153000452852118A54842215A148452852118AFF
:1015400054842215A148456842119A50842614A15A
:1015500009452A4291FA81FF40045B18916E03CD40
:10156000000A1FF801489DFFFFFFFFFFA90FFC4085
:1015700016005C479CAE02CB00A1484528528F8ADA
:1015800050A41E15A1484528AA221455118AAA085C
:1015900045558422F5A808452A425115A1A88A502C
:1015A000544528AA221455118AD4A32214A9084507
:1015B0005584A22A425115A1085D14906E03CDE016
:1015C0000F4CE9FCFFFFFFFF2F7DE007345E1B9708
:1015D000E2F2CB27690B5B56939E8304A420032180
:1015E0004739C6718E80A0035F0A6501EECAE03FED
:1015F000E0016012CE82DFCBE040C739D00919C9C3
:10160000848C64026160218B02D32BA94F8CDED4C1
:10161000AA75A50C2D6339494A0CB210832CC41C41
:10162000ED30473BCCD10E73B4439F32721556A9AF
:101630002B61283B9AD90A57947514A41D0471078D
:1016400041DC418E7790E31DE4780741DC419096C0
:101650001064296429CFF8C4373CD295491C07226D
:10166000465AD4006241DD8E02CBE0B0E7FF478EE0
:101670007584065D062B19D1C6269AB188052521E9
:1016800059484818D420E73CF7FFEF3DEE69118B2D
:101690001612169484662C6213DAC808562E7384C8
:1016A000061D045100633D1D8B02CBEB988D8BD63C
:1016B00094AA73958C2C63190A4A04B2108130A83D
:1016C00041CE792E7BFEBFE7BCC73D0D0908430222
:1016D000B210A1A064AC4856AE53A56945AE998836
:1016E00002006443DD8E02CBF6FCFF16320ED4847A
:1016F000C35C0523D9D0C42696D1040529015949D4
:101700004018D420E73CF7FFEF3DEE69484018123F
:10171000909504052962198DD88646B282990B35B9
:10172000E158073900653E1D8B02CBEB988D8BD6B7
:1017300094AA73958C2C63190A4A04B2108130A8BC
:1017400041CE79EEDE07FE67CFB34845DA6010562A
:101750009044214241C95891AC5CA74AD38A5C337A
:101760008F05006629DD8E02CBCFA80B741CC4A4A4
:1017700035252A25423988410E724EE838873DFFCB
:101780007BDAD09F3AECF9FFFFBF07006760DD8E80
:10179000C6CA4B4295B90A46B2A113CB58867214F9
:1017A000912844200C6A90739EDB7BDCD3908030C0
:1017B00024240A110A4AC68A64E53A559A56B42086
:1017C000F6B88422F5B0278B54854A6B4A96C148F7
:1017D0003636B18564450D72CE73DEE39E86842471
:1017E000296113DBC8CA75AA3435E700682ADD8E83
:1017F00002CBE0B0E7FF478E7584065D062B19D15A
:10180000C6269AB18805252159484818D420E73CB6
:10181000F7FFFFFFBD036922CBAE02AB623806398A
:10182000578A0F060E72FEFFFFFF11642024114A33
:10183000504432107214030D6A2A9612C7CC908855
:10184000063CDE192C3EF8CCF1CEFFFFFFFFFFF780
:101850001CF418C820211189A00DA940C7494C3398
:1018600010006B76DD8E02CBE0B0E7FFE79E86844A
:101870008325E160883856228E858C4325E348090C
:101880003912520E94940321E63889390E720E9360
:101890009CA324E828483A48920E82A86324EA18B8
:1018A000C83A04C28E90B023242C62D29AD4A4A841
:1018B00044A50A310141CB40CE3212A314C4A44A3C
:1018C000729082A084202919C742C6B11271304497
:1018D0001C2C094743C2E1106C1DCF8E02ADE040C5
:1018E000E7FFFFFFFFFF0F210741897182239AC1A4
:1018F00090A528E8006D86338B02F7E020C73BD621
:10190000119AD4A0AB44061B53C942453E108D0F1B
:1019100048A219D358C4821C9484642D0B0909531E
:1019200018D4920639C439EF78CE3B9EF38EE7BCCB
:10193000E339EF78CE3B9EF38EE7BCE339EF78CE08
:101940003B9EF38EE7BCE339EF78CE3B9EF38EE708
:10195000BCE339EF78CE3B9EF38EE7BCE339EF78FA
:10196000CE3B9EF38EE7BCE339EF78CE3B9EF38E01
:10197000E7BCE339EF78CE3B9EF34E6E271D8B021A
:10198000CBE020C73A42832E83958C686313CD58F1
:10199000C48292902C24240C6A90739EFBFFFFFF5C
:1019A000DE016F3A1D8B02CBEB988D8BD694AA7318
:1019B000958C2C63190A4A04B2108130A841CE7963
:1019C000EEFFDF7BDCD390803024200B110A4AC667
:1019D0008A64E53A559A56E49A8928007042DD8E69
:1019E000C6CAE020C73A42832E83958C686313CD24
:1019F00058C48292902C24240C6A90739EFBFFF7AB
:101A00001EF7B488450B090B4A423316B1096D64C1
:101A1000042B973942830E82A8C39EFFCF027143E5
:101A2000DD8EC6CAEB20076AC261AE82916C686225
:101A300013CB6882829480AC24200C6A90739EFB46
:101A4000FFF71EF73424200C09C84A828214B18C97
:101A5000466C432359C1CC859A702C641CF6FCFF5C
:101A600000721C168B02BDE02052F8C01F6884442F
:101A7000200399C721EE78E7FFFFFF7B007342192F
:101A80008B02C3E980CC7A5274A652114B2C61119F
:101A9000C88912A49CE55A4F44241213F8AC284577
:101AA000484A3105B925261189CF725B4F8212123F
:101AB000909384D5B04655A613A58731EF4800749E
:101AC00022D24E02ADE458E7FF3B1FF8030239D69D
:101AD000F9FFFFDF4294929AD218E62C4849C93A9E
:101AE0000075281D8B02CBE078EEFFFFFF7B8F7B1C
:101AF0001A12108604642541418A584623B6A191E2
:101B0000AC60E6424D38D6410E766E1D8B02CBE0BE
:101B1000788F7BDC118E8684A31DE2688740D821F4
:101B200010768C6321E3580739D641107510441D97
:101B3000E5484839D2618E7418041D0641C7390E34
:101B4000724EE8380742CC811073A4A320E928879D
:101B50003ACAA1107228841CEB18C83AC6C18E710B
:101B600030441C0C09483B02D28E70B8231CEEF5A1
:101B70009CD7C0B6C8200077C5338B02F7E078C782
:101B800073DEF19E9634241C2D6948385AD20E71AA
:101B9000B4A41DE2680A3B04B296858C632D0B1930
:101BA000C75AD6418EB5AC831C8B510741529390D6
:101BB00072A42621E5484D3ACC919A74982339E8CD
:101BC00030C8790E728EF31CE49CC2710E749C2393
:101BD0001CE740C73902620E84142420054947419E
:101BE000C451907494631CE5504739C6510E7594E6
:101BF0006320E450C8405BC740C83190758CA31C7B
:101C0000E360C738CA310E768CA320E26048400AF0
:101C100012907604C41C01694738CE110E7784E314
:101C20001CE1704738CEE39EF33C0739AF490D6C99
:101C300052039BD4C0263591510C020078661D8B4F
:101C400002CB007147381A1210768C63210351477A
:101C500039125210749CE3A0CC918E8224841CEB28
:101C600018C842C4D18E80B4E739AF894C5CA63223
:101C7000938AA20955E42219D840C73DEE080843CB
:101C8000C4C18E8128841CEA280842CC818E831826
:101C9000041DE6480841D4418E8508841DE2689001
:101CA0003B007974DD8EC6CAE360C74014321085EC
:101CB000904321E4504739D4511084140421E64064
:101CC0008839D0710E741CE41C0731083A0C820E5E
:101CD00073A4C31C0929474208A20E82A8831CEBE7
:101CE00020C742C6B11081B04320EC10083BC4D1DC
:101CF000907034C8BD9CF35CB00599C8922BA94C78
:101D0000154D51A4A26B42415A211216AD68490CDF
:101D1000720E5CE811017A2B1D8B02CBE07F20A2B2
:101D2000C94CA632535399693499299ACC144D66FB
:101D30008A26334593999ACA4CA3C94CE807FE03F7
:101D4000117B41D430E7CAAF68C74A949216C4A049
:101D500005292A592886B0A39DFFC710763044254F
:101D60004951C942D81011962C85250D694743DA8F
:101D7000F9FF1AC210965ACA62109316A5ACA41D98
:101D8000AF007C0B47F2E3CAE0FFFF81077D43D33E
:101D900030E7CA8078464356A294B4A045290B6127
:101DA000C842D8F9FF18B210862C84254B51093B44
:101DB000E0C00E952405250959884216B20E76FE1C
:101DC000DF4229242967410B5252A2906534E20177
:101DD0007E1AA0624ACB835806424C5338D237BA97
:101DE0000209A52CE84844130A007F07000002CB33
:101DF00000000000002000D09ED094D09E2DD0A0E6
:101E0000D090D091D09ED0A2D09000D092D09ED031
:101E10009BD0A2D09CD095D0A2D0AAD0A000C2A71F
:101E200000C2A600C2BB00C2AC00C3B800C2B90069
:101E3000C2AE00C2AC00C2AB00C2AA00C2A900C2BE
:101E4000A800C2BF00C2BE00C2BD00C2BC00C2B773
:101E500000C2B600C2A100C2B700C2AE0060005E00
:101E600000C2A200C2B000C2A500D094D0BED0B2C1
:101E7000D0B8D0B6D0B4D0B0D0BDD0B52E2E2E2094
:101E80002020202000C2B1C3B7C2A500C2B200C248
:101E9000AF00C2B10034323030306B6D2028D0A199
:101EA000D0BBD0B5D0B420D181D0BCD18FD0BDD0E3
:101EB000B020D0BDD183D0BBD0B8D180D0B0D0B904
:101EC000D182D0B520D0B4D0B0D0BDD0BDD0B8D1A3
:101ED00082D0B52900D092D18AD0B7D0B4D183D1E5
:101EE00088D0BDD0B8D18FD18220D184D0B8D0BB1A
:101EF000D182D18AD18020D181D0B520D181D0BCEE
:101F0000D0B5D0BDD18F20D0BDD0B020D0BDD0B005
:101F1000D0B40020D09DD0A3D096D09DD09020D01A
:101F2000A1D09CD0AFD09DD09020D092D0AAD097F5
:101F3000D094D0A3D0A8D095D09D2FD09CD090D0B5
:101F4000A1D09BD095D09D20D0A4D098D09BD0A2DA
:101F5000D0AAD0A02000D0B520D0B7D0B020D18159
:101F6000D0BCD18FD0BDD0B0202838353030306BC8
:101F70006D2B2900D090D0BDD0B3D180D0B5D0BDCD
:101F8000D0B0D0B6D0B5D0BDD0B8D18FD18220D10D
:101F900080D0B5D0BCD18AD0BA00D090D09DD0939B
:101FA000D0A0D095D09DD090D096D095D09D20D067
:101FB000A0D095D09CD0AAD09A00D097D0B0D0B461
:101FC000D0BDD0B820D181D0B2D0B5D182D0BBD0D5
:101FD000B8D0BDD0B82000D09FD180D0B5D0B4D07B
:101FE000BDD0B820D181D0B2D0B5D182D0BBD0B8CD
:101FF000D0BDD0B800D09DD0B5D180D0B0D0B1D0B8
:10200000BED182D0B5D189D0B020D0BAD180D18311
:10201000D188D0BAD0B020D0B23A00D098D097D0E2
:1020200093D09ED0A0D0AFD09BD09020D09AD0A0FB
:10203000D0A3D0A8D09AD09000D182D0B5D187D0EB
:10204000BDD0BED181D182D182D0B020D0B7D0B0A6
:1020500020D187D0B8D181D182D0B0D187D0BAD0A9
:10206000B800D09FD180D0BED0B2D0B5D180D0B58D
:10207000D182D0B520D0BDD0B8D0B2D0BED182D020
:10208000BE20D0BDD0B000D0A2D095D0A7D09DD0DA
:102090009ED0A1D0A220D097D09020D0A7D098D009
:1020A000A1D0A2D090D0A7D09AD09800D0BDD0B067
:1020B00020D0B4D0B2D0B8D0B3D0B0D182D0B5D0C7
:1020C000BBD18F20D0B520D0B2D0B8D181D0BED076
:1020D000BAD0B02100D0A2D0B5D0BCD0BFD0B5D13D
:1020E00080D0B0D182D183D180D0B0D182D0B02085
:1020F00000D09ED09FD090D0A1D09DD09ED0A1D016
:10210000A220D09FD0A0D095D093D0A0D0AFD09215
:10211000D090D09DD09500D0BED185D0BBD0B0D0CE
:10212000B4D0B8D182D0B5D0BBD0BDD0B0D182D0E0
:10213000B020D182D0B5D187D0BDD0BED181D182DF
:1021400000D09FD180D0BED0B2D0B5D180D0B5D193
:1021500082D0B520D0BDD0B8D0B2D0BED182D0BE52
:1021600020D0BDD0B000D09ED0A5D09B2E20D0A135
:10217000D098D0A1D0A2D095D09CD09000D0BFD183
:1021800080D0B5D0B4D0BDD0B8D182D0B520D18167
:10219000D0BFD0B8D180D0B0D187D0BAD0B82020AD
:1021A00000D098D0B7D0BDD0BED181D0B2D0B0D001
:1021B000BDD0B520D0BDD0B02000D0A1D09FD09848
:1021C000D0A0D090D0A7D09DD09020D0A1D098D032
:1021D000A1D0A2D095D09CD09000D0BDD0B520D0B9
:1021E000B520D0B220D180D0B0D0B1D0BED182D075
:1021F000BDD0B820D0B3D180D0B0D0BDD0B8D186BA
:10220000D0B800D09DD0B0D0BFD180D0B5D0B6D09E
:10221000B5D0BDD0B8D0B520D0BED1823A2000D044
:1022200095D09B2E20D0A1D098D0A1D0A2D095D06F
:102230009CD09000D0BCD0BED182D0BED180D0BDC9
:10224000D0BED182D0BE20D0BCD0B0D181D0BBD046
:10225000BE00D09FD180D0BED0B2D0B5D180D0B595
:10226000D182D0B520D0BDD0B8D0B2D0BED182D02E
:10227000BE20D0BDD0B000D0A1D09CD090D097D0FF
:102280009ED0A7D09DD09020D0A1D098D0A1D0A290
:10229000D095D09CD09000D0A8D0BED184D0B8D159
:1022A00080D0B0D0B9D182D0B520D0B2D0BDD0B816
:1022B000D0BCD0B0D182D0B5D0BBD0BDD0BE002074
:1022C00000D097D090D09BD095D094D0AFD092D062
:1022D00090D09DD098D0AF20D09FD09E20D09FD0BE
:1022E000AAD0A2D0AF0020D09DD0B520D0B8D0B712
:1022F000D0BFD180D0B0D0B2D0BDD0BED181D1823C
:1023000020D0BDD0B020D0BAD180D183D188D0BA6E
:10231000D0B00020D09ED0BFD0B0D181D0BDD0BE33
:10232000D181D18220D181D18AD0BDD0BBD0B8D0CB
:10233000B2D0BED181D182200020D09DD0B0D0BFFC
:10234000D180D0B0D0B2D0B5D182D0B520D0BFD05E
:10235000BED187D0B8D0B2D0BAD0B000D098D0B764
:10236000D0BFD0BED0BBD0B7D0B2D0B0D0B9D18260
:10237000D0B520D181D0BFD0B8D180D0B0D187D056
:10238000BAD0B0D182D0B020D0B7D0B020D0BAD19E
:1023900080D0B0D0B900D098D0B7D0B3D0B0D18170
:1023A000D0B5D182D0B520D0B4D0B2D0B8D0B3D0CF
:1023B000B0D182D0B5D0BBD18F20D0B7D0B020D093
:1023C000B7D0B0D0BFD0B0D0B7D0B2D0B0D0BDD0E1
:1023D000B52E00D0A0D095D097D0A3D09BD0A2D0BE
:1023E00090D0A200D09AD09ED09DD0A1D0A3D09C56
:1023F000D090D0A6D098D0AF00D09ED094D09ED010
:102400009CD095D0A2D0AAD0A000D09ED091D09E32
:10241000D0A0D09ED0A2D09800D0A1D09AD09ED0EB
:10242000A0D09ED0A1D0A200D098D0B7D0BFD0BEAF
:10243000D0BBD0B7D0B2D0B0D0B920232B2420D07D
:10244000B7D0B020D0BFD180D0BED0BCD18FD0BD4E
:10245000D0B000D098D0B7D0BFD0BED0BBD0B7D00E
:10246000B2D0B0D0B9202420D0B7D0B020D0BDD0C9
:10247000B0D0B2D0B8D0B3D0B0D186D0B8D18F2040
:1024800000D09DD0B0D182D0B8D181D0BDD0B5D14F
:1024900082D0B5202420D0B7D0B020D0BFD180D0FA
:1024A000BED0BCD18FD0BDD0B00041726475696E12
:1024B0006F4D494420D0B2D0B5D180D181D0B8D1B0
:1024C0008F2000D097D0B020D0BDD0BED0B2D0B831
:1024D00020D0B2D0B5D180D181D0B8D0B83A207751
:1024E00077772E6769742E696F2F76486C6B64005E
:1024F000D097D0B0D0B4D180D18AD0B6D182D0B567
:10250000202320D0B820D0BDD0B0D182D0B8D18186
:10251000D0BDD0B5D182D0B520D181D0BFD0B8D177
:1025200080D0B0D187D0BAD0B0D182D0B02000D086
:1025300097D0B020D0BDD183D0BBD0B8D180D0B09F
:10254000D0BDD0B520D0BDD0B020D0BFD18AD182EF
:10255000D183D0B2D0B0D0BDD0B5D182D0BE00D062
:1025600097D090D092D09ED094D0A1D09AD09800FD
:10257000D0A2D095D09AD0A3D0A9D09E00D09DD083
:1025800090D0A1D0A2D0A0D09ED099D09AD09800BF
:10259000D098D09DD0A1D0A2D0A0D0A3D09CD095CF
:1025A000D09DD0A2D09800D09ED0A2D09DD09ED059
:1025B000A1D09DD09E00D09ED091D0A1D09BD0A381
:1025C000D096D092D090D09DD09500D093D09ED070
:1025D000A0D098D092D09000D09FD0AAD0A2D0A363
:1025E000D092D090D09DD098D0AF00D09DD090D038
:1025F000A7D090D09BD09E00D098D0B7D0B3D0BEFB
:10260000D180D0B5D0BBD0B800D098D0B7D0BDD095
:10261000BED181D0B5D0BDD0B80020202020202050
:10262000202040002020202020202020C2A32000A5
:1026300020D09DD0B8D0B2D0BE20D0BCD0BED182E8
:10264000D0BED180D0BDD0BE20D0BCD0B0D181D042
:10265000BBD0BE3A2000D0A2D0B5D187D0BDD0BE6D
:10266000D181D18220D0B7D0B020D187D0B8D1814C
:10267000D182D0B0D187D0BAD0B83A2000D09ED184
:1026800085D0BBD0B0D0B4D0B8D182D0B5D0BBD07B
:10269000BDD0B020D182D0B5D187D0BDD0BED18140
:1026A000D1823A2000202020D09FD180D0B5D0B454
:1026B000D0BDD0B82020D0BDD0B0D0BAD0BBD0B023
:1026C000D0B4D0BAD0B83A2000D09FD180D0B5D104
:1026D00085D0BED0B42000D0B4D0BE20D181D0BB34
:1026E000D0B5D0B4D0B2D0B0D189D0B8D18F20D0AD
:1026F000BFD18AD182210000F726D726C926A52678
:102700007D265626302624261A260926F825EB256E
:10271000D825CB25B625A72590257D2570255F25B5
:102720002F25F024C324AA248124532428241924E7
:102730000A24F923E423D32396235C233923132388
:10274000E622C122BF2297227722522234221F2260
:102750000322DA21BA21A1217D21662141211721FD
:10276000F120D520AC208720622039201B20F51FC6
:10277000D71FBA1F9A1F741F561F131FD51E951EF1
:10278000921E8F1E8C1E851E6A1E671E641E611E91
:102790005F1E5D1E5A1E571E541E511E4E1E4B1E9E
:1027A000481E451E421E3F1E3C1E391E361E331E4D
:1027B000301E2D1E2A1E271E241E211E1E1E0B1E0D
:1027C000F71DF51D42494E20001800300060006CD6
:1027D00000E600F302BF038F03C701D60000000A22
:1027E0000B02090C0D0E0807030401000000000095
:1027F00000000000000000000000000000000000D9
:102800000000000000000000001211100000000095
:1028100000000000000000000000000000000000B8
:1028200000000000002200250028002B002E0031AF
:1028300000340002010000050108010B0102AA009A
:10284000030304040304061310FCFD09FD0AFE0142
:102850008B03300A4A200500CC112107A2C4114F76
:1028600004220843ED12112D0123158AC4B594A04A
:10287000842629492294D1481291498612012413B1
:102880008AC4D593A084269B896892518826994E44
:1028900000251498C434A22CA1905012078423421E
:1028A000514A284902261398443443514C141C8A37
:1028B000622235896C428900270641ED1104280DFA
:1028C000C43452129144A437914C00290DC43312E0
:1028D00032914CA4179144042A0733FD13911C2B09
:1028E0000A55D553C1502918022C0842B4111409B5
:1028F000002D0614DC12042E0622C411042F0BB482
:102900003C525A44BA889400300B96C43314113F99
:10291000492800310893C553918A3E320B96C4333F
:102920009498509B3603330E96C433949850692A7A
:102930009C492800341097C49352E12C220A894202
:1029400092A35402350F96C45324999014120A6727
:10295000120A00360C96C473DA2A224E120A003785
:102960000E97C41347A9502A940AA54200380E9620
:10297000C433141193842262925000390C96C433EC
:10298000141127094D23003A0762C41144023B0980
:1029900082B411448A04003C0A7455732189692465
:1029A0000B3D0734DD1344023E0B74551331D1C87F
:1029B000228A013F0FA5443393904C6932924364BD
:1029C0002200401EAECC37A2712812CB220D096323
:1029D000A170284611C5E208917C8AE445922F0037
:1029E000411199449571C0782A114A644A172955B2
:1029F00000420D9744141619DB49C6768800430C33
:102A000097445424D95467598802440D98C4142615
:102A10009944C837890900450B96C41387A06245BD
:102A2000A868460C96C41387A06245A81100470FFA
:102A300098C45425E158C94894C8441500480B98D7
:102A4000C414428E87224701490792C4110F044AD9
:102A50000894C452FAA9024B1298C414429A44A48E
:102A600022234A6422358950004C0896C41342FD43
:102A7000684D14994435D1904C32BB1C229609659F
:102A800042999042024E10994415616AD1461191C3
:102A900024346355004F0D994455351529AF1299CB
:102AA000AC04500C96C4131511D345A81100510F56
:102AB000B93455351529AF1299AC283E04521297F6
:102AC000441425159144242949442A22894C005351
:102AD0000D96C43314D970485C935000540996C4C1
:102AE0001326A17E02550C98C414427E9488642457
:102AF00000561299C41452AA442692A90825D2F16C
:102B00001C100457189B4416B2186924914C449227
:102B100089EC109B0C27D358381603581099C4140D
:102B200052894C453A5E95C854A402590D98C41474
:102B30004289481B55AC1B005A0C98C4345765A9F0
:102B4000B2547A085B08A33C1215FD325C0CB53B0D
:102B50001232A14C6DA651265D08A33C1213FD5202
:102B60005E10854C33939824228B244562C110005B
:102B70005F0617B41307600F86CC133749442694B9
:102B8000492292830061096645344B9C2405620CFE
:102B9000A64514428D1511A70B00630A64453395B1
:102BA000914A6400640AA64594BA9C38490A650AA9
:102BB00065C5331309C52224660CA5C472223511DC
:102BC00049A61300670C962D344B9C24C5D1840272
:102BD000680BA64514428D15114F02690892C41165
:102BE000A443016A0AC4AB51CA227D51026B0DA6EF
:102BF000C513429D2812924427016C07A2C4110FED
:102C0000066D0E68C51517158A8422A148280A6E1C
:102C10000966451415114F026F0B664534141127D0
:102C2000090500700C962D14918988D345A8087168
:102C30000A962D344B9C24450D720A64C512128AE3
:102C40004813007309644533A5A50A00740B85C4B5
:102C500052315145A651027509664514229E24053C
:102C6000760D67C41332899244369CC6007710698A
:102C70004415A2106522394D6612612C04780C6748
:102C8000C4133289DA70265113791097AC13328944
:102C900048A2461B0E854321007A0A66C4133645B6
:102CA00099CC007B0CC4B452129116994837017C20
:102CB00007D1AD1107037D0DC4B412329136894896
:102CC0001711007E0826DC33221500A00500CC1168
:102CD000A1138D449775C0647A90552A8743E550B7
:102CE000391C0AA20B854C53A291A8A49608A317DD
:102CF000A9CD56B568240E9046841249442499897A
:102D0000829168AC04A418A9CD56B568240E10456C
:102D100042B2982C268A84E48048345602A5148A4C
:102D2000CC35A1584492FF148B4323A1484814C9C1
:102D30000FA622CCC4767158240E8A44C473D024C2
:102D40000E18473245522611516412994426E15813
:102D50001C3207A721CCC476A169240E8A44C4730F
:102D6000D0240E184E324E26A188649216998463A0
:102D700071C81C00A81BBBC516C19458D6F03842B8
:102D80008C842492682C1A0CA5C424B2383000A973
:102D900020BBC536A14828228B89B246D252629107
:102DA000D9241689A5A4869264314928128A00AADA
:102DB00016BBC516C19458D6F01C5093546475C008
:102DC000381ACB124CAB16A94C5511D2F02092CA2E
:102DD00001922C922C922C7240E402AC0A55DD1325
:102DE000D194986800AD0614DC1204AE15AB44F61D
:102DF000B0D050C474181D469611932C328D0D011D
:102E0000AF1159CD1571485224228A44245924699E
:102E100001B00F97CB33C2502C141409C3D901024F
:102E2000B109544D5392BC8802B20A53CD12119588
:102E3000882800B30A63CD12A19024A212B40852CC
:102E40004D12914C01B50B96AD13229E0E434500D9
:102E5000B619CB3C5691D4506A2C8E743B4C0E92D2
:102E6000C8295411CE910E1300B71BC93C95714867
:102E70001C120744C291682C180BC6A2B33820124A
:102E800099A40302B80833AD32A20900B90C8544F5
:102E90003393984ACA682D04BA0A44F432929028AF
:102EA0002201BB17A94C15074928E9120748B24867
:102EB000B248B2C8019168E420BC11994415D2DA35
:102EC00064AD2C9588289334A300BD0EA944D56227
:102ED000AA1C40244E37CB01BE18AAC435E34A2CA5
:102EE00045140B494A1193A41432452A29A5100010
:102EF000BF198F449877401C108BC44191C8C114EE
:102F00003A85A8A483690E9800C014C9C474728855
:102F10001C290E184F2542894CE922A50AC113C964
:102F2000C4B46239521C309E4A841299D2454A1563
:102F3000C215C9C4947140248E14078CA712A144F1
:102F4000A674915205C315C9C4749260448E1407C7
:102F50008CA712A144A674915205C415C9C4541279
:102F6000A1448E12078CA712A144A674915205C5E4
:102F700017D9C4947140240E88A3C501E3A944283D
:102F800091295DA45401C60F9A4596363255229573
:102F900090146DDA0AC70FC72C5424D95467598886
:102FA000280ECA00C80EC6C4335239E41054AC0807
:102FB000150DC90DC6C473EA904350B1225434CAEA
:102FC0000FC6C473C1481C70082A56848A06CB0DEC
:102FD000C6C4333A1F828A15A1A201CC09C3C3110A
:102FE00022A1447FCD09C3C4314489FE02CE0AC365
:102FF000C431D924FA0B00CF0BC5C311128A58A6CD
:103000003F01D01299C3343625A144789208254255
:10301000894C6402D114C944759260440E0D538BDF
:10302000368A8824A119AB02D211C9447572881C52
:10303000A1A622E55522939500D310C944B5623963
:10304000424D45CAAB44262B01D412C94495714068
:10305000248E505391F22A91C94A00D512C9447561
:103060009260448E505391F22A91C94A00D612C9F7
:10307000445512A1440EAEA9487995C8642500D7DD
:103080000B86CC33143B80C40B00D815994455955E
:10309000884C22AC4548214AAC289149422400D9A9
:1030A0000FC8C45472801C28E44789484602DA0ECF
:1030B000C8C494523950C88F12918C04DB0FC8C415
:1030C00094E1481C26E44789484602DC10C8C454F1
:1030D0001299440E12F2A344242301DD0FC8C494B4
:1030E00052395045A48D2AD60D00DE0C96C413C269
:1030F0008A88D3452804DF0DA6453423895E2A2219
:103100004E1700E00C96453452396832E22429E12A
:103110000C964574EAA0C98893A400E20C96457405
:10312000C1481CB2C44952E30D9645549214396407
:103130008993A400E40C964534BA0326234E9202E8
:10314000E50EA64574C148300E9A8C38490AE60E41
:103150006A4536878848441231A98E08E70D942DB8
:103160003395914A64228B8800E80D95C533423926
:103170006022A1588404E90D95C57322396022A10B
:10318000588404EA0E95C553B1481C3091502C4226
:1031900002EB0D95C513128A7822A1588404EC091C
:1031A00093C31122A1440FED0993C43144895E00F9
:1031B000EE0993C431D9247A01EF0B95C311128A19
:1031C00058A62700F00FA6455492982C12959C38CB
:1031D000492800F10D964554921439A022E2490085
:1031E000F20D96453452398822E224A100F30C9660
:1031F0004574EA208A88938402F40E964574C14887
:103200001C421171925000F50E9645549214398467
:1032100022E224A100F60D964534BA0328224E126C
:103220000A00F70A634C12A15828160AF811664DD5
:103230005492A448282209454291880800F90C9626
:103240004534523944C493A400FA0B964574EA10ED
:10325000114F9202FB0C964574C1481C20E2495262
:10326000FC0A9645343A8B789214FD12C7AC93EA67
:103270002099442451A30D87C2A11000FE0ED62D23
:1032800014428D1511A78B501100FF13C7AC334AA0
:10329000123944261149D468C3A1702804000001E2
:1032A0000013B9C474749438603C95082532A58B1A
:1032B000942A01010C86453474C812274901010281
:1032C00015C9C474A1B01C290E184F2542894CE9B8
:1032D00022A50A01030E964534A1981C3419719257
:1032E00014010417C9AC9471C0782A114A644A17B2
:1032F00029550E8803E2200101050C962D344B9CC4
:1033000024C5640101060FC74494EA40926CAAB335
:103310002C44010107109545732239602289C85455
:10332000421300010C11C7447491681C48924D75FA
:1033300096852800010D0C94453349E1CA48253291
:10334000010E11C8C45491701C6A9249847C9398F0
:1033500000010F17A9459512A144280A4A42359148
:103360004C2413C944C21A0001101399C3343625E2
:10337000A1447892082542894C6402011113A745A3
:10338000945259515411494412914424AA000112F3
:103390000EB6C43374C021A858112A1A01130C8523
:1033A000C533E4898462111201160FC6C453423931
:1033B000E41054AC08150D01170E95C55332396051
:1033C00022A158840401180EC6AC1387A06245A838
:1033D000684C1601190E96AD332389169294180D78
:1033E0000B011A10C6C45391601C72082A56848AB5
:1033F00006011B0E95C5336971C84442B108090125
:103400001E12B8C474A1A8B0241C2B19891299A843
:1034100002011F12C62D34A1981C34197192144751
:10342000130A00012212C8AC5425E158C94894C8B7
:103430004475B03806012311C62D5451396832E263
:1034400024298E261400012A0AB4C3115491FE02C5
:10345000012B0A84C31154915E00012E0BC3AC11E1
:1034600012FD251413012F0BC3AB318A12BDA40921
:10347000013008B2C4111F0201310862C411870271
:10348000013616C8AC14429A44A422234A64223559
:1034900089500E140701013711D6AD13429D281231
:1034A0009244273944180301390CC6C453323948B1
:1034B000A81F0D013A0AC3C43114FD1700013B0DCA
:1034C000C6AC1342FD6887086300013C0AD2AC1108
:1034D0000FA60900013D0D96C41322B65144A8D190
:1034E00000013E0DA5C41212A64944A637000141B1
:1034F0000E97C3335295D8502A9C4A0D01420BA413
:10350000C331224D265D00014313C944B5623934ED
:103510004C2DDA2822928466AC0A01440C9645743C
:10352000EA908A882701014515C92C15616AD146A0
:103530001191243463550E9603820001460D962D99
:103540001415114F72883006014715C9447591381A
:10355000200E0E538B368A8824A119AB0201480D28
:1035600096455491601C5211F124014C10B94475D8
:1035700074704D45CAAB44262B01014D0D86453470
:10358000740845C4494201015013C9449512994435
:103590000EADA9487995C86425000151129745548C
:1035A00012ED20928A482292884424000152159DEF
:1035B0004457148B6C28154A85D28A5428551B53BE
:1035C0000C01530F6A4536A38948441231A98E086D
:1035D000015415C744744239ACA422928824258929
:1035E000484524910901550C94C55212A98422D250
:1035F00004015616C72C1425159144242949442A40
:1036000022894C0E93C60001570D94AD12128A48C0
:103610003B401402015816C7445491681C5652117D
:103620004944929244A42292C80401590D94C5328F
:1036300049510945A40900015A10C6C473EA208AF9
:103640006C3824AE492800015B0B94455312716914
:10365000A902015E11C6AC3314D970485C93D04105
:10366000C21800015F0B942D33A5A5B22804016098
:1036700012C6C45391601C44910D87C435090500DE
:1036800001610C94453349E1D252050001620DC637
:10369000AC1326A17E8709630001630FB5AC5231DC
:1036A0005145A6510E90C50001640EC6C4539160E9
:1036B0001C6212EA270001650EA6C4924A9190ACE2
:1036C00024D42A02016A0FB8C4547498901F25228A
:1036D000190900016B0C8645347480882749010163
:1036E0006E11D8C494E148380E14F2A34424230187
:1036F000016F0EA64574C148300E11F124290170E6
:1037000011C8C4741291440E12F2A344242301017F
:10371000711397455412ED109144241149441291AC
:10372000A802017210C8AC14427E94886454711CC3
:103730002202017313972D14228948229288242291
:1037400051351C0708017812C8C4541299440E124E
:103750004A44DAA862DD0001790FC8C4B4EAC0ABFC
:10376000B254592A3D04017A0C96C473EA109BA204
:103770004C66017B10C8C4946239F0AA2C55964A55
:103780000F01017C0D96C4534239C4A62893190138
:103790007D11C8C47491701C7A55962A4BA5870078
:1037A000017E0E96C45391601C625394C90C03842D
:1037B0000823FD32140003850A37FB72224A4900B0
:1037C00003861299C43492A0643C95082532A58BD7
:1037D000942A03870722DC11040388159AC03392C8
:1037E00043480E9143E490AA1C2287C8210603890E
:1037F000169BC134448A50269409658798502694B4
:1038000009654201038A0995C13116997E038C1519
:103810009B4235929244A62A928AA422A9482A530E
:103820002D01038E159BC1344492AA484C87C84190
:1038300072901C2407C900038F149B423592924456
:10384000A62A928AA422A9482A535B03900EA74372
:1038500072224A490E92EA2C020391129944957100
:10386000C0782A114A644A1729550003920E9744DA
:10387000141619DB49C676880003930A96C4138789
:10388000A07E0403941299C49471C0782A114A64EA
:103890004A3289F44003950C96C41387A06245A868
:1038A0006803960D98C4345765A9B2547A080397F3
:1038B0000C98C414428E87224701039811994455ED
:1038C000351529CB844A95C864250003990892C40C
:1038D000110F04039A1398C414429A44A422234A51
:1038E000642235895000039B1299C49471C0782AD0
:1038F000114A644A3289942A039C169BC455D1A06C
:103900004CB6442151489289D28834A2C504039D03
:1039100011994415616AD14611912434635500030D
:103920009E0B974414772C752C07039F0E994455D2
:10393000351529AF1299AC0403A00A98C414872145
:103940007F1403A10D96C4131511D345A8110003CC
:10395000A31198441487881C2007C80152AD870022
:1039600003A40A96C41326A17E0203A50E98C414CC
:103970004289481B55AC1B0003A6129A4495629BD2
:103980004493882422A968330B0103A71199C41416
:1039900052894C453A5E95C854A40203A8149AC4AF
:1039A000152211494412914424156D6639440803C7
:1039B000A90E994455351529AF1299643603AA0CFE
:1039C000C54312128A58A63F0103AB12C8C4541251
:1039D00099440E124A44DAA862DD0003AC0C964505
:1039E00074EAA01327490103AD119545732239608C
:1039F00022898C6492D0040003AE0DC62D74EA9027
:103A00008A8827A10603AF0A93453244894E0203F0
:103A1000B015A74574224A490E1049441291442416
:103A20001189480003B10A664534274E920203B259
:103A30000FD5AD3313098B45C2C522530303B30D14
:103A400096AC132292844413EA0403B40FA645549F
:103A500014A15446117192500003B50B64453315FF
:103A60008A48121903B60FB4351324894822D23676
:103A700092480003B70B962D1415114F420D03B851
:103A80000EA5C5331309CB41C245320103B9096301
:103A90004512129D0403BA0D66C513228A8424D1EF
:103AA000490003BB1097C43352B1543A9C494412A5
:103AB000350103BC0C962D14229E0E43450003BD18
:103AC0000E67C41332899244369CC60003BE11C5EA
:103AD0003553134944269BC834D244120003BF0C0B
:103AE00066453414112709050003C00E67451417F5
:103AF0002589482292881403C10D962D341411A7EC
:103B00008B50110003C20C843533256D23890400CA
:103B100003C310674534879044241149442212009E
:103B200003C40A64C4121491360103C50B6645141C
:103B3000229E24140003C613D82C74628D16158A95
:103B40008422A1A818C56A0003C71197AC13328953
:103B50009244365C9388246A0203C815D8AC746218
:103B60006D120945429150241415A3580D0003C944
:103B70001068453522899022A148289A240003CA5A
:103B80000D954412128A58A6A3040003CB0C964547
:103B9000343A8B7892500003CC0D964574EA208A13
:103BA0008893840203CD0D964574EA10114F120AD2
:103BB0000003CE1398459552395424115224140908
:103BC0004593040004010EC6C4333A1F828A15A12E
:103BD000A2010402159944155639400E90CC466A4C
:103BE00022994826924C0004030CC6C473EA904301
:103BF000503F0204041097445424D9546A918A65B2
:103C0000210A0004050E96C43314D970485C935001
:103C10000004060892C4110F0404070CC5C3111256
:103C20008A58A63F0104080994C452FAA90204095B
:103C3000189CC436579954269549652599482213EE
:103C4000496422620500040A179B441632A14C28DD
:103C500013CA8487894C4413D144B40A00040B135B
:103C60009944155639400EB029C94432914C241359
:103C7000040C15C8C4945239502611E922234A6411
:103C80002235895000040E12C8C454A972A08A4873
:103C90001B752A960AA700040F0DB8B41442FE78CB
:103CA0009849850004101299C49471C0782A114A69
:103CB000644A1729550004110E97441416A9AA4501
:103CC000C676880004120E9744141619DB49C6768E
:103CD000880004130A96C41387A07E0404140DB848
:103CE000B43426FD7F394CC50104150C96C41387E6
:103CF000A06245A8680416169CC416C29844A4374E
:103D000089AA55A2265291C986D10004170F96C4DC
:103D100033949850692A9C49280004181199441535
:103D2000E229B166925044B6225500041914C944E0
:103D300075A1B01C2A9E126B260945642B520504FE
:103D40001A1298C4143289481719512213A94984A8
:103D500002041B1498C4341799442691496412999B
:103D60004426911105041C15994435D1904C32BB61
:103D70001C229609654299904202041D0C98C414B5
:103D8000428E87224701041E0E994455351529AFEE
:103D90001299AC04041F0A98C41487217F140420CC
:103DA0000D96C4131511D345A8110004210D974495
:103DB0005424D9546759880204220A96C41326A1B0
:103DC0007E0204231098C4144289481B752A960A5F
:103DD000A7000424129AC495629B4493882422A9C4
:103DE00068330B0104251199441552894C453A5EFC
:103DF00095C854A402042618B8B41432894C2293EE
:103E0000C82432894C2293C82487B0540204270B5B
:103E100097441432DE24560D0428169A45162211B2
:103E200049441291442411494412914487020429BF
:103E30001CBA35162289924449A2245192284994E9
:103E4000244A12C9610E91032400042A0D98C41457
:103E500064CD35919E2A00042B1099C41552AE27CB
:103E600092842421494E02042C0D964414428D154F
:103E700011D30500042D10974434A498582AB14A50
:103E800067221200042E169CC416B2929A44952200
:103E9000BD52A414294926919500042F1297445429
:103EA0001591442411894A122589882604300A660E
:103EB00045344B9C240504310EA645942299624555
:103EC000C449420104320C65C51314894542B1004E
:103ED00004330964C512269D0004341177BC53B421
:103EE0008848229288249243340004350B65C533F8
:103EF0001309C5222404360E684515120945896642
:103F000051A12804370B64451333894C54010438FC
:103F10000C664514B211C5429A090439109645340D
:103F2000A1981C221B512CA49900043A0C65C513BE
:103F3000124A8922A108043B0F6744341691442495
:103F40001149443401043C10674434B19044249135
:103F50004C0E958800043D0B66451422D261C424A2
:103F6000043E0C664534141127090500043F0A6617
:103F7000451487104F0204400D962D14918988D363
:103F800045A80804410B64453395914A64000442F6
:103F90000A66441326A14E0004431197AC133289DC
:103FA00048A2461B0E85432100044413D82C74629A
:103FB0008D16158A8422A1A818C56A0004450D67CC
:103FC000C4133289DA70265113044612873514223D
:103FD00089482292882422C951090004470B65C5EB
:103FE000131216094D0104481168C51512094542FE
:103FF00091502414C9610004490D89B51512FD7F43
:1040000039889500044A0E67441454294D22928839
:104010002800044B0E68451542A28922A1484C0293
:10402000044C0C65C51332194542B100044D0C64B3
:10403000451393886434A900044E0F69C515228A7C
:10404000D28922A2885800044F0B654433168A8413
:1040500062110000204552524F523A2043616E6E69
:104060006F74207265736F6C7665207469746C650B
:1040700020696E64657800005EBCE2613FDD83C24A
:104080009C7E20A3FD1F419DC3217FFCA2401E5F9B
:1040900001E3BD3E6082DC237D9FC1421CFEA0E1A6
:1040A000BF5D0380DE3C62BEE0025CDF81633D7C7D
:1040B00022C09E1D43A1FF4618FAA427799BC58400
:1040C000DA3866E5BB5907DB856739BAE406581963
:1040D00047A5FB7826C49A653BD987045AB8E6A75A
:1040E000F91B45C6987A24F8A6441A99C7257B3A45
:1040F0006486D85B05E7B98CD2306EEDB3510F4EB4
:1041000010F2AC2F7193CD114FADF3702ECC92D332
:104110008D6F31B2EC0E50AFF1134DCE90722C6D0D
:1041200033D18F0C52B0EE326C8ED0530DEFB1F014
:10413000AE4C1291CF2D73CA947628ABF51749086F
:1041400056B4EA6937D58B5709EBB536688AD495EA
:10415000CB2977F4AA4816E9B7550B88D6346A2BD1
:104160007597C94A14F6A8742AC896154BA9F7B6CC
:10417000E80A54D7896B3557484C204375727265ED
:104180006E7420726573697374616E6365200020BC
:104190006174200020766F6C746167652000574859
:1041A0004C2043757272656E742072657369737406
:1041B000616E636520000A3D3D3D3D3D3D3D3D3D19
:1041C0003D3D3D3D3D3D3D3D3D3D3D3D3D3D3D3D1F
:1041D0003D3D3D3D3D3D3D3D3D3D3D3D3D3D3D3D0F
:1041E0003D3D3D3D3D3D3D3D3D3D3D3D3D3D3D3DFF
:1041F0003D3D3D3D3D0A0A000A0A3D3D3D3D3D3DF8
:104200003D3D3D3D3D3D3D3D3D3D3D3D3D3D3D3DDE
:104210003D3D3D3D3D3D3D3D3D3D3D3D3D3D3D3DCE
:104220003D3D3D3D3D3D3D3D3D3D3D3D3D3D3D3DBE
:104230003D3D3D3D3D3D3D3D0A003E20003E2000D0
:1042400073746F70006462670053657473205472F6
:10425000697020432072616E676520005365747336
:1042600020547269702043206675656C2000536588
:104270007473205472697020422072616E676520E9
:10428000005365747320547269702042206675650E
:104290006C20005365747320547269702041207241
:1042A000616E6765200053657473205472697020D5
:1042B00041206675656C2000534156454420747258
:1042C00069702064617461200054726970206469AF
:1042D0007374616E63652000576865656C2053696F
:1042E0006D756C61746520726573697374616E635A
:1042F000652000536176656420416C6C20646174B4
:104300006120616E6420726573657474696E672ED6
:104310002E2E00536176656420416C6C20646174BC
:10432000612000536176656420576F726B20646969
:104330007374616E6365200050617373696E6720EA
:1043400076616C756520746F2063617253656E735E
:10435000206472697665720045435520636F7272FE
:10436000656374696F6E200044535420636F7272EA
:10437000656374696F6E200056535320636F7272C9
:10438000656374696F6E2000576F726B2064697388
:1043900074616E6365200054726176656C20646997
:1043A0007374616E63652000424E5A206675656CB9
:1043B0002000626E7A004C5047206675656C2000C4
:1043C0006C706700204E6F6E65202E2E2E20536F6E
:1043D00072727921200000002000230026002900AD
:1043E0002C002F003200000100000301060109012A
:1043F00005050505070508080808020202020A0A61
:10440000080804040404010101010101010103037E
:10441000030303030303040707070C0C0C0C0C0C29
:104420000C0C0202020206060606060606060B0B26
:104430000B0B0B0B0B0B0102102020080810204067
:104440001020408002010201080402010102040858
:1044500010204080804020100804020180040201E6
:10446000804020100804020108040201010204082F
:10447000102040800102040810204080000000004D
:10448000000000000000000000000000000000002C
:10449000000000000000000000000000000000001C
:1044A000000000000000000000000000000000000C
:1044B00000000000000000000000000000000000FC
:1044C00000000000000000000000000000000000EC
:1044D00000000000000000000000E0FF07000000F6
:1044E0000000000000E0FF070000000000000000E6
:1044F000E0FF07000000000000000080C301000092
:1045000000000000000080C3010000000000000067
:104510000080C30100000000F8FFFFFFFFC37F0021
:10452000000000F8FFFFFFFFC37F00000000F8FF5E
:10453000FFFFFFC37F00000000F8FFFFFFFFC37F06
:104540000000000038000000000078000000003883
:10455000000000000078000000803F000000000024
:1045600078000000803F000000000078000000801C
:104570003F000000000078000000803F00000000C5
:10458000007800000000000000000000780000003B
:104590000000000000000078000000803F000000E4
:1045A000000078000000803F00000000007800005C
:1045B00000803F000000000078000000803F000005
:1045C00000000078000000003800000000007800C3
:1045D00000000038000000000078000000003800F3
:1045E00000000000780000000038000000000078A3
:1045F00000000000380000000000780000000038D3
:1046000000000000007800000000380000000000FA
:104610007800000000380000000000780000000072
:104620003800000000007800000000380CC00004D2
:10463000407800000000381EE0010EE07800000025
:1046400000383FF0031FF07900000000B87FF887C2
:104650003FF87B00000000F8FFFFFFFFFF7F000036
:104660000000F8FFFFFFFFFF7F00000000F8FFFFE2
:10467000FFFFFF7F00000000F8FFFFFFFFFF7F004C
:10468000000000F8FFFFFFFFFF7F00000000F8FFC1
:10469000FFFFFFFF7F00000000F8FFFFFFFFFF7F2D
:1046A00000000000F8FFFFFFFFFF7F00000000F8A0
:1046B000FFFFFFFFFF7F00000000F8FFFFFFFFFF8D
:1046C0007F00000000F8FFFFFFFFFF7F00000000F9
:1046D000F8FFFFFFFFFF7F00000000000000000068
:1046E00000000000000000000000000000000000CA
:1046F00000000000000000000000000000000000BA
:1047000000000000000000000000000000000000A9
:104710000000000000000000000000000000000099
:104720000000000000000000000000000000000089
:104730000000000000000000000000005600000023
:104740000000000000000000000000000000000069
:104750000000000000000000000000000000000059
:104760000000000000000000000000000000000049
:104770000000000000000000000000000000000039
:104780000000000000000000000000000000000029
:104790000000000000000000000000000000000019
:1047A0000000000000000000000000000000000009
:1047B000000000000000000000F07F0000C0FF01CA
:1047C00000000000F07F0000C0FF0100000000F0CA
:1047D0007F0000C0FF0100000000F07F0000C0FF6C
:1047E0000100000000F07F0000C0FF01000000FE9B
:1047F000FFFFFFFFFFFFFF1F0000FEFFFFFFFFFFA8
:10480000FFFF1F0000FEFFFFFFFFFFFFFF1F000075
:10481000FEFFFFFFFFFFFFFF1F0000FEFFFFFFFF88
:10482000FFFFFF1F0000FEFFFFFFFFFFFFFF1F0056
:10483000003E000000000000001F00003E000000DD
:10484000000000001F00003E000000000000001FEC
:1048500000003E000000000000001F00003E0000BD
:1048600000000000001F00003E00000000000000EB
:104870001F00003E000000000000001F00003E007E
:10488000000000001E001F00003E00000000001E8F
:10489000001F00003E00000000001E001F00003E40
:1048A00000000000001E001F00003E00000000008D
:1048B0001E001F00003EF8FF0000F0FF031F000075
:1048C0003EF8FF0000F0FF031F00003EF8FF00006D
:1048D000F0FF031F00003EF8FF0000F0FF031F0081
:1048E000003E00000000001E001F00003E0000000F
:1048F00000001E001F00003E00000000001E001F00
:1049000000003E00000000001E001F00003E0000EE
:104910000000001E001F00003E000000000000001C
:104920001F00003E000000000000001F00003E00CD
:104930000000000000001F00003E0000000000001A
:10494000001F00003E000000000000001F00003EAD
:10495000000000000000001F0000FEFFFFFFFFFF3F
:10496000FFFF1F0000FEFFFFFFFFFFFFFF1F000014
:10497000FEFFFFFFFFFFFFFF1F0000FEFFFFFFFF27
:10498000FFFFFF1F0000FEFFFFFFFFFFFFFF1F00F5
:1049900000FEFFFFFFFFFFFFFF1F00000000000001
:1049A0000000000000000000000000000000000007
:1049B00000000000000000000000000000000000F7
:1049C00000000000000000000000000000000000E7
:1049D00000000000000000000000000000000000D7
:1049E00000000000000000000000000000000000C7
:1049F00000000000000000000000000000000000B7
:104A000000000000000000000000000000000000A6
:104A10000000000000000000000000000000000096
:104A20000000000000000000000000000000000086
:104A30000000000000000000000000000000000076
:104A40000000000000000000000000000000000066
:104A50000000000000000000000000000000000056
:104A6000000000000000000000000000000000C086
:104A7000FF030000000000001E00C0FF0700000050
:104A8000000000FE00C0FF07000000600000FF07FC
:104A9000C0FF07000000FC0000FF3FC0FF03000054
:104AA00080FF0000FFFF00FE000000C0FF0080DF6D
:104AB000FF03FE000000FCFF00801FFF03FE00005C
:104AC00080FF7F00800FFCFFFF7F00F0FF0F00C022
:104AD0000FE0FFFFFF01FEFF0300C03FE0FFFFFF0D
:104AE000C3FFFF0300C0FFE0FFFFFFFBFFFF01006C
:104AF000C0FFF3FFFFFFFFFFFE000000FFFFFFFF0F
:104B0000FFFF0F7F000000F8FF070080FF813F00DC
:104B10000000C0FF0700003F801F00000000FE07EC
:104B2000000006C00F00000000F007000000E007D2
:104B300000010000E007000000F00300010000E0B9
:104B400007000000F80380030000E007000000FCFD
:104B50000180030000E007000000FC00800300006B
:104B6000E007000000FE00C0070000E007000000B2
:104B70007F00C0070000E0070000803F00C0070082
:104B800000E0FFFFFFFF1F00C0070000E0FFFFFF86
:104B9000FF0F0080030000E0FFFFFFFF07000000A1
:104BA0000000C0FFFFFFFF030000000000C0FFFF88
:104BB000FFFF0300000000000000000000000000F4
:104BC00000000000000000000000000000000000E5
:104BD00000000000000000000000000000000000D5
:104BE00000000000000000000000000000000000C5
:104BF00000000000000000000000000000000000B5
:104C0000000000000000000000000000000000F0B4
:104C1000017C001FC007F0010000FC0FFFC3FFF084
:104C20003FFC0F0000FFFFFFFFFFFFFFFF3F000003
:104C3000FFFFFFFFFFFFFFFF3F0000FFFFFFFFFF42
:104C4000FFFFFF3F0000FFFFFFFFFFFFFFFF3F00F1
:104C50000007F0017C001FC00730000000000000CA
:104C60000000000000000000000000000000000044
:104C70000000000000000000000000000000000034
:104C80000000000000000000000000000000000024
:104C90000000000000000000000000000000000014
:104CA0000000000000000000000000000000000004
:104CB00000000000000000000000000000000000F4
:104CC00000000000000000000000000000000000E4
:104CD00000000000000000000000000000000000D4
:104CE000000000FCFF000000000000000000FEFFCC
:104CF000010000000000001800FEFF01600000003D
:104D000000003C001EE001F000000000007E001EDC
:104D1000E001F80100000000FC001EE001FC0000C2
:104D2000000000F8011EE0017E0000000000F0031A
:104D30003EF0013F0000000000E001FEFF011E0008
:104D400000000000C000FEFF010C00000000000099
:104D5000C0FFFF0F00000000000000E0FFFF1F0089
:104D6000000000000000F0FFFF3F00000000000016
:104D700000F81FE07F00000000000000FC0780FF3B
:104D800000000000000000FC0100FE000000000028
:104D90000000FE0000FC010000000000007F000396
:104DA000F8030000000000003F8007F0030000004F
:104DB0000000801FC00FE0070000000000801FC03F
:104DC0000FE0070000000000C00FC00FC00F000080
:104DD000000000C00FC00FC00F0000000000C00F97
:104DE0008007C00F00000000FFC1078007800FFE92
:104DF000030000FFC1078007800FFE030000FFC112
:104E0000078007800FFE030000FFC1070003800F2B
:104E1000FE030000FFC1070003800FFE0300000037
:104E2000C0070003800F0000000000C00F0003C097
:104E30000F0000000000C00F0003C00F00000000C2
:104E400000800F0000C0070000000000801F00006D
:104E5000E0070000000000001F0000E00300000069
:104E60000000003F0003F0030000000000007E008F
:104E700003F801000000000000FE0000FC0100003B
:104E800000000000FC0300FF00000000000000F82C
:104E90000FC07F00000000000000F03FF03F000066
:104EA0000000000000F0FFFF3F0000000000004095
:104EB000C0FFFF0F080000000000E000FFFF031C20
:104EC0000000000000F001FEFF013E0000000000B5
:104ED000F801E01F007E0000000000FC0000000060
:104EE000FC00000000007E00000000F8010000004F
:104EF000003E00000000F001000000001C00000067
:104F000000E00000000000080080070040000000F2
:104F1000000000008007000000000000000000808A
:104F200007000000000000000000800700000000F3
:104F300000000000008007000000000000000000EA
:104F40008007000000000000000000800700000053
:104F500000000000000080070000000000000000CA
:104F600000800700000000000000000000000000BA
:104F70000000000000000000000000000000000031
:104F80000000000000000000000000000000000021
:104F90000000000000000000000000000000000011
:104FA0000000000000000000000000000000000001
:104FB00000000000000000000000000000000000F1
:104FC00000000000000000000000000000000000E1
:104FD00000000000000000000000F0FF00000000E2
:104FE0000000001800FEFF078001000000003C8068
:104FF000FFFF1FC003000000007CE0FFFF7FE00315
:10500000000000003EF8FFFFFFC107000000001F86
:10501000FC1F80FF830F000000801FFE0300FC8741
:105020001F000000800FFE0100F8071F000000C0F5
:10503000077F0000E00F3E000000C0873F000FC068
:105040001F3E000000E0C31F000F803F7C000000F7
:10505000E0C30F000F003F7C000000F0E107000FED
:10506000007EF8000000F0E103000F007CF8000073
:1050700000F8F003000F00FCF001000078F00100E0
:105080000F00F8E001000078F800000F00F0E101E7
:10509000000078F800000F00F0E101000078F8004F
:1050A000000F00F0E101000038F800000F00F0C12F
:1050B0000100003C7800000F00E0C10300003C78D4
:1050C00000000F00E0C10300003C7800000F00E08A
:1050D000C10300003C7800000F00E0C10300003C69
:1050E0007800000F00E0C10300003C7800000F00D2
:1050F000E0C10300003C7800000F00E0C1030000A5
:105100003CF800000F00F0C10300003CF800000F65
:1051100000F0C103000038F800000F00F0C10100EA
:105120000078F800000F00F0E101000078F00100C5
:105130000000F8E001000078F001000000F8E00154
:105140000000F0F003000000FCF0000000F0E107B8
:105150000006007EF8000000F0E107000F007EF876
:10516000000000E0C30F801F003F7C000000E083D0
:105170001F801F801F7C000000C0873F000FC01FE2
:105180003E000000C0077F0006E00F3E000000C0A8
:105190000FFE0100F8073F000000801FFC0700FE23
:1051A000831F000000003FF87FE0FFC10F000000F8
:1051B000003EF0FFFFFFC007000000007CC0FFFFC3
:1051C0003FE003000000003880FFFF1FC001000027
:1051D00000001800FCFF03800100000000000080B8
:1051E0001F000000000000000000000000000000A0
:1051F00000000000000000000000000000000000AF
:10520000000000000000000000000000000000009E
:10521000000000000000000000000000000000008E
:10522000000000000000000000000000000000007E
:10523000000000000000000000000000000000006E
:10524000000000000000000000000000000000005E
:10525000000000000000000000000000000000004E
:10526000000000000000000000000000000000003E
:10527000000000000000000000000000000000002E
:1052800000000000001F000000000000000000807F
:105290003F000000000000000000803F0000000010
:1052A0000000000000803F0000000000000000003F
:1052B000803F000000000000000000803F00000070
:1052C000000000000000803F00000000000000001F
:1052D0000080FFFF030000000000000080FFFF03CC
:1052E0000000000000000080FFFF0300000000003D
:1052F000000080FFFF0300000000000000803F006E
:105300000000000000000000803F000000000000DE
:10531000000000803F000000000000000000803F0F
:1053200000000000000000000080FFFF03000000FC
:105330000000000080FFFF0300000000000000806C
:10534000FFFF030000000000000080FFFF030000DB
:105350000000000000803F0000000000000000008E
:10536000803F000000000000000000803F000000BF
:10537000000000000000803F00000000000000006E
:1053800000803F00000000000000000080FFFF03DD
:105390000000000000000080FFFF0300000000008C
:1053A000000080FFFF030000000000000080FFFFFE
:1053B0000300000000000000803F0000000000002B
:1053C000000000803F000000000000000000803F5F
:1053D000000000000000000000803F00000000000E
:1053E00000000000C07F000000000000E07C00C062
:1053F0007F00C0E7000000FCFF07E0FF00FCFF07A4
:105400000000FCFF7FE0FFC0FFFF070000FCFFFF84
:10541000E0FFE0FFFF070000F88FFFC07FE03FFEE6
:105420000300000000F8C07FE0030000000000005F
:1054300000803F000000000000000000000E00009F
:10544000000000000000000000000000000000005C
:10545000000000000000000000000000000000004C
:105460000000000000000400000000000400000034
:10547000001E001E000F000F000000003E807FC0D5
:105480003F800F00000000FCE0FFFFFFE00700008E
:105490000000F8FFFFFFFFFF0300000000F0FFF334
:1054A000FFF9FF0100000000C07FC07FC07F000047
:1054B000000000001F803F001F00000000000000EF
:1054C000000E0000000000000000000000000000CE
:1054D00000000000000000000000000000000000CC
:1054E00000000000000000000000000000000000BC
:1054F00000000000000000000000000000000000AC
:10550000000000000000000000000000000000009B
:10551000000000000000000000000000000000008B
:10552000000000000000000000000000000070709B
:105530000000000000000000087070800000000003
:105540000000001C78F0C0010000000000003E3C9C
:10555000E0E1030000000000003C3CE0E10100004D
:10556000000000007C1EC0F3010000000000007875
:105570001EC0F300000000000000F00F807F00005C
:105580000000000000F00F807F000000000000F02D
:10559000FF0700FF7F0000000000F8FF0300FEFF90
:1055A0000000000000F8FF0300FEFF000000000004
:1055B000F0FF0700FF7F0000000000008007000FE1
:1055C00000000000000000000F8007000000000045
:1055D0000000000F800700000000000000001EC057
:1055E0000300000000000003001EC00300060000CE
:1055F000008003003CE001000E0000008007007CFA
:10560000F001000F000000000F0078F0008007009C
:105610000000000F00F8F8008007000000001F00E5
:10562000F07800C007000000001E00F07D00C003FD
:10563000000000003E00E03F00E003000000003CEE
:1056400000E03F00E001000000007C00C01F00F00F
:1056500001000000F8FFFFFFFFFFFFFF000000F860
:10566000FFFFFFFFFFFFFF000000F8FFFFFFFFFF4E
:10567000FFFF000000F8FFFFFFFFFFFFFF0000003B
:10568000007C00E03F00F001000000003E00E03F31
:1056900000E003000000001E00F07D00C0030000D9
:1056A00000001F00F07800C007000000000F007825
:1056B000F0008007000000800F0078F000800F00ED
:1056C00000008007003CE001000F000000C0030064
:1056D0003EE003001E0000008001001EC003000C1D
:1056E0000000000000000F80070000000000000024
:1056F000000F8007000000000000008007000F007E
:10570000000000000000C007001F000000000000B3
:10571000F8FF0300FEFF0000000000F8FF0300FE9A
:10572000FF0000000000F8FF0300FEFF0000000083
:105730000000F80700FF00000000000000F807006C
:10574000FF00000000000000780F80F7000000005C
:105750000000003C0E80E3010000000000003C1E41
:10576000C0E3010000000000001E3CE0C103000097
:10577000000000001E3CE0C1030000000000000C1F
:1057800078F080010000000000000038E000000018
:1057900000000000000010400000000000000000B9
:1057A00000000000000000000000000000000000F9
:1057B00000000000000000000000000000000000E9
:1057C00000000000000000000000000000000000D9
:1057D00000000000000000000000000000000000C9
:1057E00000000000000000000000000000000000B9
:1057F00000000000000000000000000000000000A9
:105800000000000000000000000000000000E001B7
:10581000003C00000000000000FC39E0FC0100003A
:1058200000000000FE79F0FC03000000000000FF13
:10583000F9F8FC070000000000001FF8FDC0070099
:10584000000000000006F07F0003000000000040A0
:1058500000C01F00100000000000E001C01F003C5D
:105860000000000000E001800F003C00000000008C
:10587000E0010007003C0000000000F00000000014
:10588000780000000000F000800F007800000000A9
:10589000000000800F000000000000000000C01F9A
:1058A000000000000000000080FFFF0F000000006B
:1058B000000000F8FFFFFF00000000000000FEFFF6
:1058C000FFFF030000000000C0FF9FCFFF1F00008C
:1058D000000000F0FF800FF87F0000000000F80FCC
:1058E000000780FF0000000000FE03000000FE0330
:1058F000000000007F00000000F007000000C03F33
:1059000000800F00E01F000000E00F00800F00800B
:105910003F000000F00300800F00007E000000F850
:105920000100800F0000FC000000FC0000800F0060
:1059300000F80100007C0000800F0000F001000072
:105940007C0000800F0000F0010000FC0000800FD0
:105950000000F8010000F80100800F0000FC0000CA
:1059600000F00300000000007E000000E0070000DF
:105970000000003F000000C00F00800F00801F00EB
:105980000000801F00800F00C00F000000003F00DB
:10599000800F00E007000000007E00800F00F00391
:1059A00000000000FC00800F00F80100000000F87B
:1059B00001000000FC0000000000F0030000007E79
:1059C0000000000000E007800F003F000000000022
:1059D000C00FF8FF801F0000000000801FFEFFC303
:1059E0000F000000000000BFFFFFEF0700000000F5
:1059F0000000FEFFF8FF03000000000000FC0F8025
:105A0000FF01000000000000F80300FE000000009D
:105A1000000000F001007C00000000000000E00039
:105A2000003800000000000000000000000000003E
:105A30000000000000000000000000000000000066
:105A40000000000000000000000000000000000056
:105A50000000000000000000000000000000000046
:105A60000000000000000000000000000000000036
:105A70000000000000000000000000000000536F64
:105A80007274206B6579206D656E753A2000A9915E
:105A90005D9711241FBECFEFD1E2DEBFCDBF00E086
:105AA0000CBF14E0A0E0B2E0E0E6F9E401E00BBFD7
:105AB00002C007900D92A63FB107D9F723E1A6EFE8
:105AC000B4E001C01D92AC3CB207E1F71DE2C8E4AE
:105AD000DDE200E006C021970109802FFE010E944F
