:100000000C94D2300C946E5A0C94435A0C94185A97
:100010000C94ED590C94C2590C9497590C946C594A
:100020000C9441590C9403310C9403310C9403311A
:100030000C9403310C94E6640C9403310C9403315A
:100040000C9403310C9403310C9403310C94033160
:100050000C9403310C9403310C9403310C943A51F9
:100060000C9403310C9464640C943B640C94033141
:100070000C9403310C9403310C9403310C94033130
:100080000C9403310C9403310C9403310C94033120
:100090000C9403310C9403310C9403310C94995A51
:1000A0000C9403310C9403310C9403310C94033100
:1000B0000C9403310C9403310C9403310C940331F0
:1000C0000C9403310C9403310C9403310C9412649E
:1000D0000C94E9630C9403310C9403310C940331B8
:1000E0000C9403318F8C9D8CAC8CD48CEE8C028D57
:1000F0001B8D2C8D3C8D528D7357765765576957E4
:100100006F57AD577A577E57845788578C579257F9
:1001100096579A57AD57A057A457A8571258175833
:100120001C5826583058A9583A5842584A585458DA
:100130005E58685877588158A9588B5895589F58D9
:1001400013591B59E558ED58F95806592759345990
:1001500008000000BE922449123EABAAAA2ABECDD6
:10016000CCCC4C3E00000080BEABAAAAAA3E000048
:100170000000BF000000803F000000000008417840
:10018000D3BB4387D1133D190E3CC3BD4282AD2B77
:100190003E68EC8276BED98FE1A93E4C80EFFFBE6F
:1001A00001C4FF7F3F00000000004E414E494E4910
:1001B0005459494E46CDCCCC3D0AD7233C17B7D134
:1001C0003877CC2B329595E6241FB14F0A000020DA
:1001D000410000C84200401C4620BCBE4CCA1B0E59
:1001E0005AAEC59D7400407A10F35A00A0724E18A2
:1001F000090010A5D4E80000E87648170000E40BD9
:1002000054020000CA9A3B000000E1F5050000809E
:10021000969800000040420F000000A086010000F8
:1002200000102700000000E8030000000064000048
:100230000000000A00000000000100000000002C87
:1002400076D888DC674F0823DFC1DFAE59E1B1B74C
:1002500096E5E3E453C63AE651997696E8E6C28419
:1002600026EB898C9B62ED407C6FFCEFBC9C9F4031
:10027000F2BAA56FA5F490055A2AF75C936B6CF956
:10028000676DC11BFCE0E40D47FEF520E6B500D02C
:10029000ED902E0300943577050080841E08000041
:1002A000204E0A000000C80C333333330F986E120F
:1002B000831141EF8D2114893BE65516CFFEE6DB15
:1002C00018D1844B381BF77C1D901DA4BBE424205F
:1002D0003284725E228100C9F124ECA1E53D270041
:1002E000002100240027002A002D003000330001E7
:1002F000010000040107010A01466978206E616E61
:100300002074726970204300466978206E616E2007
:1003100074726970204200466978206E616E2074A4
:1003200072697020410054726970207265636F7247
:1003300064733A2000456570526F6D205265737486
:100340006F72652056616C75653A00446562756729
:10035000206D6F646520697320656E61626C6564F1
:100360002E2E2E207479706520226462673D6865A8
:100370006C702220666F722064756D7020636F6DE3
:100380006D616E64732E003A0920004669726D77C4
:10039000617265003D3D3D3D3D3D3D3D3D3D3D3D49
:1003A0003D3D3D3D3D3D3D3D3D3D3D3D3D3D3D3D7D
:1003B0003D3D3D3D3D3D3D3D3D3D3D3D3D3D3D3D6D
:1003C0003D3D3D3D3D3D3D3D3D3D3D3D3D3D3D3D5D
:1003D0003D3D0041524455494E4F204D4944003A5D
:1003E000092000416C61726D20616374697665005B
:1003F0003A092000416C61726D20637572736F72EF
:10040000003A09200043757272656E74207370653E
:100410006564003A0920005653530054616E6B2006
:10042000636F6E74656E643A200054616E6B206376
:10043000616C63756C6174653A20003A0920005460
:10044000656D70657261747572652031003A0920BE
:1004500000436F6F6C616E742068697473003A09B1
:100460002000456E67696E6520636F6F6C616E7406
:10047000003A09200050756C736520636F756E74C7
:10048000003A0920004869747320636F6E74656ECA
:1004900064003A092000454355003A0920004869A4
:1004A000747320636F6E74656E64003A09200052A5
:1004B000504D003A09200044697374616E636520F1
:1004C000636F6E74656E64003A0920004869747346
:1004D00020636F6E74656E64003A092000565353B2
:1004E000005741524E494E47212020577269746986
:1004F0006E672045455020524F4D20646174612045
:10050000746F20636869702E2E2E004465626F75CB
:100510006E63652069732074727565004465626F4F
:10052000756E63652069732066616C7365003A09B6
:100530002000436F6E74726F6C2076616C7565205D
:10054000003A092000456469746F72206163746920
:10055000766520003A0920004E617669676174690A
:100560006F6E20206973003A0920004C617374207B
:10057000627574746F6E206973003A0920004457E5
:10058000206973003A0920005550206973003A0928
:100590002000424B206973003A09200043757273B2
:1005A0006F722073617665640044772068697420F7
:1005B0000055702068697420003A092000566F6C5D
:1005C000746167652072656164696E6773003A09DA
:1005D0002000566F6C746167652063616C63756C95
:1005E0006174650030302E30002D2D2E2D00001F3F
:1005F0000000000000FF0000000000FF00000000FD
:1006000000FE0000000000F80000000000F0010003
:10061000000000E00100000000E00100000000E038
:100620000100000000E00100000000E00100000007
:1006300000E00100000000E00300000000C0030033
:10064000000000C00300000000C00300030000C061
:1006500003C0030000C00FF0030000C03FFC030014
:1006600000C0FFFF03000080FFFF03000080FFFFCA
:1006700001000080E7E70100008087E101000080C1
:1006800007E00100008007E0010000800FE00100AA
:1006900000000FF0010000000FF0000000000FF05C
:1006A000000000000FF0000000C00FF0000000C0CC
:1006B0000FF0000000C01FF8000000C07FFE000027
:1006C0000080FF7F00000000FE3F00000000F80FE8
:1006D00000000000C00300000000000000003CEF2C
:1006E000F939B3076C6F6B6DB3076C63636CB7015B
:1006F0003C67636CB7036CE7616CBF036C63636C4E
:10070000BB016C6F636CBB073C6F6338B3074B4D29
:1007100048200052504D200045435520004453547A
:1007200020004F444F2000454E47200047525320A1
:100730000057524B20002F00424C422000504543AE
:1007400020005D005B004552524F523A2043616EDB
:100750006E6F742066696E6420637572736F7220A9
:10076000666F722064656C6574696E67202E2E2E2C
:100770002E200044454C4554452074726970204336
:10078000200044454C455445207472697020422035
:100790000044454C45544520747269702041200046
:1007A0003E004552524F523A205472697020637590
:1007B00072736F72206F7574206F662072616E673E
:1007C00065202E2E2E2E20004E4F544943453A20B0
:1007D000536B69702064656C6574696E67202E2E9A
:1007E0002E20004E4F544943453A2044656C6574B1
:1007F0006520747269702E2E2E2E200054333A20FC
:10080000200054323A20200054313A202000543045
:100810003A2020003030004E0052616E67653A2069
:10082000003E003E003E003E002028202B2F2D20C1
:10083000352520746F6C6572616E636529005620E2
:100840000020546F20726573657420686F6C64209B
:10085000232B242000205072657373202320746F93
:100860002072657365742064617461002054696D41
:10087000696E672062656C742064697374616E636D
:10088000653A200053687574646F776E20616374F5
:1008900069766500600005050607050707375500FE
:1008A000F13AF13A0107F01016180520070000028E
:1008B000CB00211387EE02ADE0FF07980F94227062
:1008C000C1104400002222D062BFCD6230C328484C
:1008D000110EE112472886210A528CC10C643003A4
:1008E000118E5002141000238A9D8E02CB092148DC
:1008F00042089210822484200921483ACA91108229
:10090000248420092148420892108224841CEA2071
:100910004842089210822484200921484208928E7D
:10092000728C0FFC07A28210242104490841124254
:10093000908410241DE5500741CA07FE03D14008EA
:100940009210822484200921483ACAA10E8224846C
:1009500020092148420892108224841CEA28474238
:10096000089210822484200921484208928E722421
:100970000024595D92E2CAEBB0E74717F8B468511A
:10098000A83A57C988521691A444200B09088B1A1B
:10099000D49EE7D8C32215B1484DA8DA5CD165AE24
:1009A0003799B99A0A55D1A42216A9883DACF39E6D
:1009B000066B8740162292940CA528242BD7A9D227
:1009C000B422E7C4A41EF6FC16002581DE8EFECC00
:1009D000C460C84014329484080621823988700C9F
:1009E000228E60184418A328C830465190710483A1
:1009F00020852948610A62948220C420C93887452D
:100A000055C4A22A62117B5854452CAA2216B187DC
:100A10004555C422F6B0287B58943D2C620F8B3A82
:100A2000853A4C7290B2188434E520CF4088218EEC
:100A3000719482180229053104520C71324F404ED4
:100A4000238EB48C432503614501002673DD8E029D
:100A5000CBEB98CD7B5AB4A6549DCB2C6129C949C8
:100A60000892108224841CEB20C73AC8610F8B5473
:100A7000C4221565918AD4642A73890C749EF39EEE
:100A800006B5882101618740D83110E20C84380412
:100A9000190E41864312E114443825098E418263C0
:100AA00090E01C1BAA90752CD404E43401418B50B7
:100AB000CC3256242B98B9CE75AC54AD6320271494
:100AC000C7E2BEAD621845A8423188319081082541
:100AD000200028434F6E07CD6860843A10629083EF
:100AE00018E4200639C8390E728E833A073A0E721E
:100AF0000E747650E740E70F210785CE1072107410
:100B000020E4A0107290931CE4240739C9414E726E
:100B10008C542CA100293D4F6E07CB6458053A4EEA
:100B20007210841C042107410742D0819083A013D6
:100B300042D019420E82CEFF3B68E740C7419DE399
:100B4000A0CE7150063988414C6290832063112DEC
:100B500040002A3999C6A6CBAAA0652D308509CABE
:100B6000508A3290629406128A80842C5C6442CF50
:100B70006A58B31E34912B64010945404619194A3D
:100B800051861298C204ADA0650A002B1396052F5A
:100B9000CDE778E7873EF007BC73BCF321002C104B
:100BA00087E2F6AAA1085C30444184220A002D0A9B
:100BB000D6014BCDE01FF0002E0DC7E102ABA1081E
:100BC0005C30C420002F429CAE02CB149908454DE6
:100BD00084A22642117A50D444286A221435118AFC
:100BE0009A08454D8422F4A0287A50D444286A22D9
:100BF0001435118A9A08454D8422F4A0287A50D4DD
:100C000044286A22144501303D9D8E02CBEB988D1D
:100C10008BD694AA73958C2C6319CA5104B2108197
:100C20002C24200D6ACF73FFFFFFBFF734A821E10A
:100C3000688740162294A38C15C9CA75AA34ADC81A
:100C400035F35800311B8EAE03CDE7CCA04A8A287D
:100C5000E2031FD0C23292729CF3FFFFFFFF0F32FC
:100C60005C9D8E02CBEB98CD83D694AA73958C3085
:100C70006219CA5104B210812C24200D6ACF73BDB1
:100C8000A7410D09474382D11041B864080FA1C99B
:100C90004C2842939950842633A1084D28429399B9
:100CA00050842633A1084D6642119A50842633A100
:100CB000084D6642119AD00FFC0722334D9D8EFEDF
:100CC000CAE07F20A209456832138AD0642614A1A5
:100CD000C94C2842939950842633A18B64A2F31EF9
:100CE0000735882A15B148452C52117BFE55541101
:100CF0001C3288868863254141C9600433B2729DE5
:100D00002A4D0C7A0C2D1A0034479D8E02CB0AA96D
:100D1000873D2AAA1EF6A8A87A54B47A54B47A5405
:100D2000B47A54543DEC5151F5A8483912528E848E
:100D300094231DE640883910620E8498031DE7381D
:100D4000C8390E728EF381FF40E4107BFE770035C8
:100D5000459D8E02CBE07F20AB873DFF2388AAD044
:100D600065B092116D6CC211ABA38464210161481E
:100D700040DAE39EE7BCC39E3FEB3C97831AC41066
:100D8000812C442448198C584856AE53A56945AE69
:100D900099C7020036559D8E02CBEB988D8BD69469
:100DA000AA73958C2C8219CA5104B21071B42320F5
:100DB0000D72CE73ECF91B4AB2CE65B092116D6C18
:100DC00082298A505212928504A441ED71CF73FF9B
:100DD000DED3A086046421025988508E3256242B1B
:100DE000D7A9D2B422D7CC6301374D9D8E02CBE078
:100DF0007F206350831A128E8684A321E1604938D4
:100E000018220E86D014452A42138A54144D2852B3
:100E10005134A14845D1842215A1298A5484A62899
:100E200052119A50A4A26842918AA209452A4253BB
:100E300014A9084D1A0038609D8E02CBEB988D8B5B
:100E4000D694AA73958C2C6319CA5104B210812CC4
:100E500024200D6ACF73DF7B1AD490802C44200BA2
:100E600011CA51C68A64E53A559A5275AE9211A5D7
:100E7000282349894016129006B5E7B9EF3D0D6A5F
:100E800048381822908508E5286345B2729D2A4D9E
:100E90002B72CD3C160039549D8E02CBEB988D8B76
:100EA000D694AA73958C2C6319CA5104B210812C64
:100EB00024200D6ACF73FF39A8410D09C84A429218
:100EC00014A114466C434732731D2B29E3B0E7B3DA
:100ED000CE7339A8410C11C842448294C1888564FC
:100EE000E53A559A56E49A792C003A1547E81EAB34
:100EF00062181F1842F1C1AD2270C1108300003B7F
:100F00001707E912AB62181F1842F1C1AD2270C178
:100F10001005118A28003C3092482FCB6F70442B6B
:100F200098A19094A0E4A84E8292A342883A96C1D8
:100F30008A66B063212A514A52544A292AA59075DB
:100F4000B4C2116F80023D105AC526CDE03FB07D7E
:100F5000F0F607FE810D3E2ED2482BCB2088021CD6
:100F60005ED10C762C44292A4D292A4D21CC6805C6
:100F700033D6A11094EE282741A9842883158D70BB
:100F8000C30B22003F42DD8E02CBEB988D8BD694B3
:100F9000AA73958C2C63190A4A44A2108130A84187
:100FA000CE79CE3BECA9A2683293A948452E719127
:100FB000EA668A2215A9873DFFDF07F78A6BDCC343
:100FC0009EAC8189060040D57391C6F6B3F90099AD
:100FD0003C9637FBCD0F08F103C47392D398C7AC8E
:100FE000652E69B10A527072929D988427245947E0
:100FF00038084A45041988920A22903415442088FA
:101000003287385065205419E82842390E420C7254
:101010001C741CE438E8741C743A0E3A1D079D8E4B
:10102000834EC741A7E3A0D371D0E938E8741C749C
:101030003A0E3A1D079D8E834EC741A7E3A0D37198
:10104000D0E938E8741C743A0E3A1D079D8E838EE1
:10105000831C07212629D051441324F481411CE824
:10106000038338D2078281248F20CA098D4114332B
:101070009683B0031D29F9004B3EC0920F2CE50367
:101080004BF9C05A3EA0980F24E803E50344FCC086
:10109000203F20D0AF7A78DBD80100416E9D8E02D0
:1010A000CBEBB04845681A55A622D7492632B00D79
:1010B0003ACF712F7784C31D0169474018220E86ED
:1010C00088831DE360C738D8311085904321E450F0
:1010D0004739D4510E7514241D05418839D0710E3D
:1010E000749C031D0739C741CC3D83911C41D441F9
:1010F0008E75906321E3608740D8218E7688A31D8A
:10110000E26848381AE41E770042779D8E02CB00D1
:101110006A93AA9075B082958C208619874AC6B1C9
:10112000127130441CED104743C2D19070B8231C9B
:10113000EE084743C2D1907034241C0C11C74AC436
:10114000A11471246568232358B9CC65B09211A409
:1011500034E348CA3856220E8688A321E16848380D
:10116000DCEBB9E75E0D094743C2C19270AC441C89
:10117000691187694646B07219EB546852500300F2
:10118000433E9D8E02CB0A998D8BD694AA73958C83
:101190002C8219095204B2908034587B9ECB9EFF5A
:1011A000FFFF7BCE7B1AD490803024200B110A4A9B
:1011B000C622189295EB54695A916B26A2004439C5
:1011C0009D8E02CB405A15BA0C5632A28D4D206826
:1011D00011C752C2D1907034241CEEF5DCFFFFFF22
:1011E0009F7B35241C0D09C752C29116B1096D644D
:1011F000042B97A990B400451D9D8E02CBE07F2063
:10120000AB873DFFFFAC75EC770E7BFEFF2C523FAA
:10121000F01F880046199D8E02CBE07F20AB873DF2
:10122000FFFFAC75EC770E7BFEFFFF2C0047429D65
:101230008E02CB0A998D8BD694AA73958C2C631948
:10124000095204B29080B0A841ED792E7BFE1FAA0E
:10125000BFE7FEBDA7410D09C84A02B292A09C4556
:101260002CA311DBD048563073A1261CEB20074875
:10127000159D8E02CBE078EEFFFFDFFBC0FF9EFBEB
:10128000FFFF7B07490B87EE02ADE0FF3F30004ACE
:10129000279D8E02CBF6FCFFFFFFFF679DE7725094
:1012A00083DA21908508052583110BC9CA75AA34F4
:1012B000ADC8351351004B8B9D8E02CBE068504377
:1012C000C2C19270AC441C0B19874AC6A11072A40B
:1012D000841C28290742CC7112731CE41C26394750
:1012E00049D051907490241D2351C740D621927546
:1012F0000884450C6A8F7B9CF39CD74026B2C506B8
:101300003ACF798F7B1CD48E90B02324EC10C93A4D
:1013100006B28E91A88324E928483A4A820E83A017
:10132000C324E738893910620E94942325E45008C9
:101330003954328E858C6325E26049381A128E96B4
:10134000004C149D8E02CBE0B0E7FFFFFFFFFF3F94
:10135000FB81FF40044D569D8E02CBE070508331DF
:1013600069C9149568C83A368315AC644337B6C06A
:10137000850FFC034B68821318E18845386211CE53
:1013800048863392E18C6438E4200E3988430EE2BB
:1013900094A238A5284E218C6306E398C1384638BC
:1013A000CE098E7382E33CF7FFBD034E579D8E023C
:1013B000CBE0788F7B1CD4602D621193966C4D6AC4
:1013C000A6A844A50AD59075AC73192720C609882C
:1013D0007104521C81146720C419087106421C82D2
:1013E0000C8720C32189700A229C8208C720C13142
:1013F0004870CC756CA82ED1D4DC92B1B806E75EEB
:10140000EF004F3D9D8E02CBEB988D8BD694AA7347
:10141000958C2C6319CA5104B210812C24200D6ABA
:10142000CF73FFFFFFBFF734A82101598840162270
:1014300094A38C15C9CA75AA34ADC835F3580050A9
:10144000469D8E02CB006A93AA90752E83958C20C0
:10145000A519475AC4B11271B0241C0D094743C2E3
:10146000E15ECF3DF76A48381A120E96846325E292
:10147000488B404A33328295CB58A7429382DA6137
:10148000CFFFFF6701513D9D8E02CBEB988D8BD630
:1014900094AA73958C2C6319CA5104B290902C2491
:1014A000200D6ACF73FFFFFFBFF734A821015988D1
:1014B00040162294A38C15C90A66AE731D2B55EBFA
:1014C0001808527F9D8E02CB006A93AA90752E83D6
:1014D000958C20A519475AC4B11271B0241C0D096E
:1014E0004743C2E15ECF3DF7B8231C0D094743C215
:1014F000C11071AC441C491948694646B07219EBD9
:1015000054A8868E73A0E320E738C839D0710E84C2
:10151000980321E648873912528E8494431DE55082
:10152000083914428E75906321E358C838D8310EBB
:1015300086888321E26848381A128E8684C33D0E5D
:101540000153519D8E02CB0A998D8BD694AA739527
:101550008C2C8219CA5104B2108130A841ED792E29
:101560007B58A42216A929AAD065AE4797B93E9AFE
:10157000D4A422F6B04845ACF35C0E6A104304B222
:1015800010A11C6530622159B94E95A615B9662285
:101590000A0054159D8E02CBE07F205A483DECF99D
:1015A000FFFFFFFFFFB70055279D8E02CBE078EECF
:1015B000FFFFFFFFFFDED3A086046421025988509D
:1015C0008E3256242BD7A9D2B422D7CC6301567CB5
:1015D0009D8E02CBE0788F3BC2D1907034241CEDFD
:1015E00010473B04C28E71B0631C0B19C742C6B1D1
:1015F0000E82A8A31CEA28873ACA919072A4C3203D
:10160000E838073ACE818E731CE41C07658E749807
:10161000231DE6488739D251908410441DE45807B1
:1016200039D6418E7590632102618738DA218E7632
:1016300088A31DE268907B9CF3DC600B32912557F8
:1016400052992A9A46918AD84301578F9D8E02CB90
:10165000E0788F7BE78E70B8231C0D094743C2D119
:10166000907034241CED10473BC4D10E71B4431C60
:10167000ED10473B04C20E81B04320EC104809CC6A
:1016800021901298631C4528C738C84090719081FA
:1016900020E320C440C6318A818C6314E320C7282C
:1016A000C6418E6188831CE2440E71228740C2418C
:1016B000A270907C05BF72993BB384C52C4231CA9D
:1016C000508C3214A30CC528243948490E529283F9
:1016D00018E41C0739C7410600588A9D8E02CB00CA
:1016E0006948381A12107608841DE358C838163233
:1016F0001075102421E5484841D06190839CE3A0F7
:10170000CC81107320A420E9284842C8A19081AC64
:1017100063200B11074302D28E80B4C7BD9EF31A1B
:10172000D844166C41C7BDB923200C090843C4C175
:101730008E812864200A21873A0A82908220C41C64
:101740000831073A0E62908318041DE648084112DA
:1017500042107590632102598840D821107688A3E1
:10176000410D0159699D8E02CB006948381A120E4D
:10177000860864210259C83814420E8510242104B9
:1017800041883910620E741CC420E830083A0A926D
:101790001082248420EA18C83A06B210713024203E
:1017A000ED08487BDCEB35B01517B948652A34A144
:1017B000484551A4A22852917A54543D2A8A2215B0
:1017C00045918AD4A3A228525114A9005A4B9D8E48
:1017D00002CBE07F20AA08452A42918A50A42234F5
:1017E000A1084D2852118A54842215A14845285237
:1017F000118A54842215A148452852118A54842202
:1018000015A148456842119A50842614A109452A19
:101810004291FA81FF40045B18916E03CD000A1FCC
:10182000F801489DFFFFFFFFFFA90FFC4016005C79
:10183000479CAE02CB00A1484528528F8A50A41E77
:1018400015A1484528AA221455118AAA084555848D
:1018500022F5A808452A425115A1A88A50544528C6
:10186000AA221455118AD4A32214A908455584A28A
:101870002A425115A1085D14906E03CDE00F4CE98A
:10188000FCFFFFFFFF2F7DE007345E1B97E2F2CBEA
:1018900027690B5B56939E8304A42003214739C616
:1018A000718E80A0035F0A6501EECAE03FE001602F
:1018B00012CE82DFCBE040C739D00919C9848C64CD
:1018C000026160218B02D32BA94F8CDED4AA75A5AF
:1018D0000C2D6339494A0CB210832CC41CED3047DF
:1018E0003BCCD10E73B4439F32721556A92B61289D
:1018F0003B9AD90A57947514A41D04710741DC4121
:101900008E7790E31DE4780741DC419096106429BE
:101910006429CFF8C4373CD295491C0722465AD4D3
:10192000006241DD8E02CBE0B0E7FF478E75840692
:101930005D062B19D1C6269AB1880525215948483C
:1019400018D420E73CF7FFEF3DEE69118B16121615
:101950009484662C6213DAC808562E7384061D041C
:101960005100633D1D8B02CBEB988D8BD694AA73EF
:10197000958C2C63190A4A04B2108130A841CE79A3
:101980002E7BFEBFE7BCC73D0D09084302B210A184
:10199000A064AC4856AE53A56945AE998802006470
:1019A00043DD8E02CBF6FCFF16320ED484C35C05F9
:1019B00023D9D0C42696D10405290159494018D409
:1019C00020E73CF7FFEF3DEE694840181290950480
:1019D000052962198DD88646B282990B35E15807E0
:1019E0003900653E1D8B02CBEB988D8BD694AA7384
:1019F000958C2C63190A4A04B2108130A841CE7923
:101A0000EEDE07FE67CFB34845DA601056904421FA
:101A10004241C95891AC5CA74AD38A5C338F050018
:101A20006629DD8E02CBCFA80B741CC4A435252AF1
:101A300025423988410E724EE838873DFF7BDAD067
:101A40009F3AECF9FFFFBF07006760DD8EC6CA4B07
:101A50004295B90A46B2A113CB5886721491284414
:101A6000200C6A90739EDB7BDCD390803024240AA8
:101A7000110A4AC68A64E53A559A56B420F6B884E3
:101A800022F5B0278B54854A6B4A96C1483636B149
:101A90008564450D72CE73DEE39E8684242961132E
:101AA000DBC8CA75AA3435E700682ADD8E02CBE0B0
:101AB000B0E7FF478E7584065D062B19D1C6269ABE
:101AC000B18805252159484818D420E73CF7FFFF85
:101AD000FFBD036922CBAE02AB62380639578A0FCD
:101AE000060E72FEFFFFFF11642024114A5044329B
:101AF000107214030D6A2A9612C7CC9088063CDE39
:101B0000192C3EF8CCF1CEFFFFFFFFFFF71CF418B5
:101B1000C820211189A00DA940C7494C3310006B82
:101B200076DD8E02CBE0B0E7FFE79E86848325E179
:101B300060883856228E858C4325E3480939125235
:101B40000E94940321E63889390E720E939CA324D7
:101B5000E828483A48920E82A86324EA18C83A0452
:101B6000C28E90B023242C62D29AD4A4A844A50A91
:101B7000310141CB40CE3212A314C4A44A729082E8
:101B8000A084202919C742C6B1127130441C2C0907
:101B90004743C2E1106C1DCF8E02ADE040E7FFFF6E
:101BA000FFFFFF0F210741897182239AC190A52869
:101BB000E8006D86338B02F7E020C73BD6119AD43C
:101BC000A0AB44061B53C942453E108D0F48A219D5
:101BD000D358C4821C9484642D0B09095318D492E1
:101BE0000639C439EF78CE3B9EF38EE7BCE339EF7C
:101BF00078CE3B9EF38EE7BCE339EF78CE3B9EF385
:101C00008EE7BCE339EF78CE3B9EF38EE7BCE33939
:101C1000EF78CE3B9EF38EE7BCE339EF78CE3B9E68
:101C2000F38EE7BCE339EF78CE3B9EF38EE7BCE35F
:101C300039EF78CE3B9EF34E6E271D8B02CBE02012
:101C4000C73A42832E83958C686313CD58C4829221
:101C5000902C24240C6A90739EFBFFFFFFDE016F23
:101C60003A1D8B02CBEB988D8BD694AA73958C2C56
:101C700063190A4A04B2108130A841CE79EEFFDF21
:101C80007BDCD390803024200B110A4AC68A64E59D
:101C90003A559A56E49A8928007042DD8EC6CAE009
:101CA00020C73A42832E83958C686313CD58C48233
:101CB00092902C24240C6A90739EFBFFF71EF7B4BD
:101CC00088450B090B4A423316B1096D64042B9702
:101CD0003942830E82A8C39EFFCF027143DD8EC6B8
:101CE000CAEB20076AC261AE82916C686213CB684E
:101CF00082829480AC24200C6A90739EFBFFF71EB6
:101D0000F73424200C09C84A828214B18C466C43F3
:101D10002359C1CC859A702C641CF6FCFF00721C00
:101D2000168B02BDE02052F8C01F6884442003993E
:101D3000C721EE78E7FFFFFF7B007342198B02C3D8
:101D4000E980CC7A5274A652114B2C6111C88912C9
:101D5000A49CE55A4F44241213F8AC2845484A3154
:101D600005B925261189CF725B4F82121290938498
:101D7000D5B04655A613A58731EF48007422D24E40
:101D800002ADE458E7FF3B1FF8030239D6F9FFFF25
:101D9000DF4294929AD218E62C4849C93A00752835
:101DA0001D8B02CBE078EEFFFFFF7B8F7B1A1210BA
:101DB0008604642541418A584623B6A191AC60E669
:101DC000424D38D6410E766E1D8B02CBE0788F7B6C
:101DD000DC118E8684A31DE2688740D82110768CA2
:101DE0006321E3580739D641107510441DE5484872
:101DF00039D2618E7418041D0641C7390E724EE83F
:101E0000380742CC811073A4A320E928873ACAA1DD
:101E1000107228841CEB18C83AC6C18E7130441C5D
:101E20000C09483B02D28E70B8231CEEF59CD7C03B
:101E3000B6C8200077C5338B02F7E078C773DEF1B0
:101E40009E9634241C2D6948385AD20E71B4A41DB4
:101E5000E2680A3B04B296858C632D0B19C75AD6EB
:101E6000418EB5AC831C8B51074152939072A426CE
:101E700021E5484D3ACC919A74982339E830C879D5
:101E80000E728EF31CE49CC2710E749C231CE740FE
:101E9000C73902620E8414242005494741C4519079
:101EA0007494631CE5504739C6510E75946320E461
:101EB00050C8405BC740C83190758CA31CE360C715
:101EC00038CA310E768CA320E26048400A12907620
:101ED00004C41C01694738CE110E7784E31CE170FD
:101EE0004738CEE39EF33C0739AF490D6C52039B54
:101EF000D4C0263591510C020078661D8B02CB00B0
:101F00007147381A1210768C6321035147391252E7
:101F100010749CE3A0CC918E8224841CEB18C842E0
:101F2000C4D18E80B4E739AF894C5CA632938AA2C3
:101F30000955E42219D840C73DEE080843C4C18EB4
:101F40008128841CEA280842CC818E8318041DE66F
:101F5000480841D4418E8508841DE268903B007991
:101F600074DD8EC6CAE360C74014321085904321E9
:101F7000E4504739D4511084140421E6408839D004
:101F8000710E741CE41C0731083A0C820E73A4C352
:101F90001C0929474208A20E82A8831CEB20C742D5
:101FA000C6B11081B04320EC10083BC4D19070340E
:101FB000C8BD9CF35CB00599C8922BA94C154D5136
:101FC000A4A26B42415A211216AD68490C720E5CF4
:101FD000E811017A2B1D8B02CBE07F20A2C94CA611
:101FE00032535399693499299ACC144D668A263311
:101FF0004593999ACA4CA3C94CE807FE03117B414B
:10200000D430E7CAAF68C74A949216C4A005292AFB
:10201000592886B0A39DFFC710763044254951C981
:1020200042D81011962C85250D694743DAF9FF1A1D
:10203000C210965ACA62109316A5ACA41DAF007CBC
:102040000B47F2E3CAE0FFFF81077D43D330E7CAC5
:102050008078464356A294B4A045290B61C842D863
:10206000F9FF18B210862C84254B51093BE0C00EB5
:10207000952405250959884216B20E76FEDF4229BD
:10208000242967410B5252A2906534E2017E1AA0C6
:10209000624ACB835806424C5338D237BA0209A55C
:1020A0002CE84844130A007F07000002CB00000020
:1020B0000000C39700C2A4004000C2A3002000D0CB
:1020C00090D09DD0932E20D0A0D095D09CD0AAD0D7
:1020D0009A00D092D09ED09BD0A2D09CD095D0A276
:1020E000D0AAD0A000C2A700C2A600C2BB00C2AC4A
:1020F00000C3B800C2B900C2AE00C2AC00C2AB009F
:10210000C2AA00C2A900C2A800C2BF00C2BE00C2CB
:10211000BD00C2BC00C2B700C2B600C2A100C2B7B7
:1021200000C2AE0060005E00C2A200C2B000C2A544
:1021300000D094D0BED0B2D0B8D0B6D0B4D0B0D049
:10214000BDD0B52E2E2E202020202000C2B1C3B736
:10215000C2A500C2B200C2AF00C2B10034323030FA
:10216000306B6D2028D0A1D0BBD0B5D0B420D181A8
:10217000D0BCD18FD0BDD0B020D0BDD183D0BBD00A
:10218000B8D180D0B0D0B9D182D0B520D0B4D0B041
:10219000D0BDD0BDD0B8D182D0B52900D092D18ADF
:1021A000D0B7D0B4D183D188D0BDD0B8D18FD182AF
:1021B00020D184D0B8D0BBD182D18AD18020D18126
:1021C000D0B520D181D0BCD0B5D0BDD18F20D0BD6D
:1021D000D0B020D0BDD0B0D0B40020D09DD0A3D0FE
:1021E00096D09DD09020D0A1D09CD0AFD09DD09043
:1021F00020D092D0AAD097D094D0A3D0A8D095D0F8
:102200009D2FD09CD090D0A1D09BD095D09D20D098
:10221000A4D098D09BD0A2D0AAD0A02000D0B52026
:10222000D0B7D0B020D181D0BCD18FD0BDD0B0201C
:102230002838353030306B6D2B2900D090D0BDD090
:10224000B3D180D0B5D0BDD0B0D0B6D0B5D0BDD090
:10225000B8D18FD18220D180D0B5D0BCD18AD0BAAC
:1022600000D090D09DD093D0A0D095D09DD090D0CC
:1022700096D095D09D20D0A0D095D09CD0AAD09AB1
:1022800000D097D0B0D0B4D0BDD0B820D181D0B2DA
:10229000D0B5D182D0BBD0B8D0BDD0B82000D09FAF
:1022A000D180D0B5D0B4D0BDD0B820D181D0B2D0FB
:1022B000B5D182D0BBD0B8D0BDD0B800D09DD0B5FC
:1022C000D180D0B0D0B1D0BED182D0B5D189D0B07C
:1022D00020D0BAD180D183D188D0BAD0B020D0B2AA
:1022E0003A00D098D097D093D09ED0A0D0AFD09BBA
:1022F000D09020D09AD0A0D0A3D0A8D09AD09000CF
:10230000D182D0B5D187D0BDD0BED181D182D1828A
:10231000D0B020D0B7D0B020D187D0B8D181D18271
:10232000D0B0D187D0BAD0B800D09FD180D0BED0A5
:10233000B2D0B5D180D0B5D182D0B520D0BDD0B883
:10234000D0B2D0BED182D0BE20D0BDD0B000D0A2FD
:10235000D095D0A7D09DD09ED0A1D0A220D097D08C
:102360009020D0A7D098D0A1D0A2D090D0A7D09ABA
:10237000D09800D0BDD0B020D0B4D0B2D0B8D0B3B7
:10238000D0B0D182D0B5D0BBD18F20D0B520D0B2C3
:10239000D0B8D181D0BED0BAD0B02100D0A2D0B5B3
:1023A000D0BCD0BFD0B5D180D0B0D182D183D180C4
:1023B000D0B0D182D0B02000D09ED09FD090D0A1FC
:1023C000D09DD09ED0A1D0A220D09FD0A0D095D01B
:1023D00093D0A0D0AFD092D090D09DD09500D0BE59
:1023E000D185D0BBD0B0D0B4D0B8D182D0B5D0BB1D
:1023F000D0BDD0B0D182D0B020D182D0B5D187D0DD
:10240000BDD0BED181D18200D09FD180D0BED0B20C
:10241000D0B5D180D0B5D182D0B520D0BDD0B8D084
:10242000B2D0BED182D0BE20D0BDD0B000D09ED020
:10243000A5D09B2E20D0A1D098D0A1D0A2D095D04D
:102440009CD09000D0BFD180D0B5D0B4D0BDD0B892
:10245000D182D0B520D181D0BFD0B8D180D0B0D179
:1024600087D0BAD0B8202000D098D0B7D0BDD0BE89
:10247000D181D0B2D0B0D0BDD0B520D0BDD0B020A9
:1024800000D0A1D09FD098D0A0D090D0A7D09DD080
:102490009020D0A1D098D0A1D0A2D095D09CD0909F
:1024A00000D0BDD0B520D0B520D0B220D180D0B0E2
:1024B000D0B1D0BED182D0BDD0B820D0B3D180D0E1
:1024C000B0D0BDD0B8D186D0B800D09DD0B0D0BFEC
:1024D000D180D0B5D0B6D0B5D0BDD0B8D0B520D091
:1024E000BED1823A2000D095D09B2E20D0A1D0988A
:1024F000D0A1D0A2D095D09CD09000D0BCD0BED1DD
:1025000082D0BED180D0BDD0BED182D0BE20D0BCC2
:10251000D0B0D181D0BBD0BE00D09FD180D0BED0B2
:10252000B2D0B5D180D0B5D182D0B520D0BDD0B891
:10253000D0B2D0BED182D0BE20D0BDD0B000D0A10C
:10254000D09CD090D097D09ED0A7D09DD09020D0B6
:10255000A1D098D0A1D0A2D095D09CD09000D0A8E6
:10256000D0BED184D0B8D180D0B0D0B9D182D0B5CE
:1025700020D0B2D0BDD0B8D0BCD0B0D182D0B5D0F0
:10258000BBD0BDD0BE002000D097D090D09BD095BE
:10259000D094D0AFD092D090D09DD098D0AF20D052
:1025A0009FD09E20D09FD0AAD0A2D0AF0020D09D97
:1025B000D0B520D0B8D0B7D0BFD180D0B0D0B2D0B5
:1025C000BDD0BED181D18220D0BDD0B020D0BAD173
:1025D00080D183D188D0BAD0B00020D09ED0BFD0D7
:1025E000B0D181D0BDD0BED181D18220D181D18A5C
:1025F000D0BDD0BBD0B8D0B2D0BED181D182200066
:1026000020D09DD0B0D0BFD180D0B0D0B2D0B5D185
:1026100082D0B520D0BFD0BED187D0B8D0B2D0BA8A
:10262000D0B000D098D0B7D0BFD0BED0BBD0B7D03C
:10263000B2D0B0D0B9D182D0B520D181D0BFD0B87E
:10264000D180D0B0D187D0BAD0B0D182D0B020D094
:10265000B7D0B020D0BAD180D0B0D0B900D098D007
:10266000B7D0B3D0B0D181D0B5D182D0B520D0B45D
:10267000D0B2D0B8D0B3D0B0D182D0B5D0BBD18F8A
:1026800020D0B7D0B020D0B7D0B0D0BFD0B0D0B766
:10269000D0B2D0B0D0BDD0B52E00D0A0D095D097BC
:1026A000D0A3D09BD0A2D090D0A200D09AD09ED060
:1026B0009DD0A1D0A3D09CD090D0A6D098D0AF0070
:1026C000D09ED094D09ED09CD095D0A2D0AAD0A09D
:1026D00000D09ED091D09ED0A0D09ED0A2D0980005
:1026E000D0A1D09AD09ED0A0D09ED0A1D0A200D010
:1026F00098D0B7D0BFD0BED0BBD0B7D0B2D0B0D0BA
:10270000B920232B2420D0B7D0B020D0BFD180D087
:10271000BED0BCD18FD0BDD0B000D098D0B7D0BF84
:10272000D0BED0BBD0B7D0B2D0B0D0B9202420D04A
:10273000B7D0B020D0BDD0B0D0B2D0B8D0B3D0B028
:10274000D186D0B8D18F2000D09DD0B0D182D0B862
:10275000D181D0BDD0B5D182D0B5202420D0B7D082
:10276000B020D0BFD180D0BED0BCD18FD0BDD0B032
:102770000041726475696E6F4D494420D0B2D0B586
:10278000D180D181D0B8D18F2000D097D0B020D0C7
:10279000BDD0BED0B2D0B820D0B2D0B5D180D1811A
:1027A000D0B8D0B83A207777772E6769742E696FE2
:1027B0002F76486C6B6400D097D0B0D0B4D180D164
:1027C0008AD0B6D182D0B5202320D0B820D0BDD0B9
:1027D000B0D182D0B8D181D0BDD0B5D182D0B52012
:1027E000D181D0BFD0B8D180D0B0D187D0BAD0B04D
:1027F000D182D0B02000D097D0B020D0BDD183D02E
:10280000BBD0B8D180D0B0D0BDD0B520D0BDD0B075
:1028100020D0BFD18AD182D183D0B2D0B0D0BDD0A8
:10282000B5D182D0BE00D097D090D092D09ED09417
:10283000D0A1D09AD09800D0A2D095D09AD0A3D0D1
:10284000A9D09E00D09DD090D0A1D0A2D0A0D09EE3
:10285000D099D09AD09800D098D09DD0A1D0A2D0B5
:10286000A0D0A3D09CD095D09DD0A2D09800D09ECF
:10287000D0A2D09DD09ED0A1D09DD09E00D09ED081
:1028800091D0A1D09BD0A3D096D092D090D09DD003
:102890009500D093D09ED0A0D098D092D09000D068
:1028A0009FD0AAD0A2D0A3D092D090D09DD098D0C3
:1028B000AF00D09DD090D0A7D090D09BD09E00D01C
:1028C00098D0B7D0B3D0BED180D0B5D0BBD0B800EF
:1028D000D098D0B7D0BDD0BED181D0B5D0BDD0B802
:1028E0000020202020202020204000202020202008
:1028F000202020C2A3200020D09DD0B8D0B2D0BECE
:1029000020D0BCD0BED182D0BED180D0BDD0BE2020
:10291000D0BCD0B0D181D0BBD0BE3A2000D0A2D0A4
:10292000B5D187D0BDD0BED181D18220D0B7D0B0B3
:1029300020D187D0B8D181D182D0B0D187D0BAD0C0
:10294000B83A2000D09ED185D0BBD0B0D0B4D0B89A
:10295000D182D0B5D0BBD0BDD0B020D182D0B5D13E
:1029600087D0BDD0BED181D1823A2000202020D096
:102970009FD180D0B5D0B4D0BDD0B82020D0BDD0AC
:10298000B0D0BAD0BBD0B0D0B4D0BAD0B83A200012
:10299000D09FD180D0B5D185D0BED0B42000D0B4E6
:1029A000D0BE20D181D0BBD0B5D0B4D0B2D0B0D1C0
:1029B00089D0B8D18F20D0BFD18AD182210000BE6A
:1029C000299E2990296C2944291D29F728EB28E103
:1029D00028D028BF28B2289F2892287D286E285703
:1029E00028442837282628F627B7278A277127481A
:1029F000271A27EF26E026D126C026AB269A265D89
:102A00002623260026DA25AD25882586255E253E47
:102A1000251925FB24E624CA24A124812468244402
:102A2000242D240824DE23B8239C2373234E23293A
:102A3000230023E222BC229E22812261223B221D0E
:102A400022DA219C215C215921562153214C21312C
:102A5000212E212B2128212621242121211E211B49
:102A6000211821152112210F210C210921062103F2
:102A7000210021FD20FA20F720F420F120EE20EBA8
:102A800020E820E520D220BF20BD20BA20B820B504
:102A900020B2203A09200020456570526F6D2061F8
:102AA0006C6C6F636174652055534544206D656D92
:102AB0006F72792062797465733A2020003A092098
:102AC0000020456570526F6D20616C6C6F6361749E
:102AD000652046524545206D656D6F72792062799B
:102AE0007465733A20003A09200055736564206DBF
:102AF000656E75003A092000536176656420637540
:102B000072736F72206D656E75003A09200043750F
:102B10007272656E7420637572736F72206D656E6C
:102B200075003A0920004C5047202062696E61729E
:102B300079003A0920004C5047207472616E73206E
:102B400020003A0920004C504720696E75736520BB
:102B500031003A0920004C504720696E757365209A
:102B600030003A0920005472616E7320003A092047
:102B700000446174612031003A09200044617461AD
:102B80002030003A0920004361707475726564203A
:102B90006D656E75206E616D650057484C204375FC
:102BA0007272656E7420726573697374616E6365A9
:102BB0002000000020002300260029002C002F0008
:102BC00032000001000003010601090105050505A9
:102BD000070508080808020202020A0A0808040495
:102BE00004040101010101010101030303030303C3
:102BF0000303040707070C0C0C0C0C0C0C0C020252
:102C0000020206060606060606060B0B0B0B0B0B4E
:102C10000B0B0102102020080810204010204080DB
:102C20000201020108040201010204081020408090
:102C3000804020100804020180040201804020101E
:102C40000804020108040201010204081020408067
:102C5000010204081020408000000A0B02090C0D3C
:102C60000E0807030401000000000000000000003F
:102C70000000000000000000000000000000000054
:102C80000000000012111000000000000000000011
:102C90000000000000000000000000000000000034
:102CA0002200250028002B002E00310034000201F4
:102CB0000000050108010B0102A600030304040340
:102CC00004061310FCFD09FD0AFE018E03330A4DB4
:102CD000200500CC112107A2C4114F04220843EDA6
:102CE00012112D0123158AC4B594A08426294922E6
:102CF00094D14812914986120124138AC4D593A015
:102D000084269B896892518826994E00251498C480
:102D100034A22CA190501207842342514A28490220
:102D2000261398443443514C141C8A622235896C12
:102D3000428900270641ED1104280DC43452129136
:102D400044A437914C00290DC4331232914CA4177E
:102D50009144042A0733FD13911C2B0A55D553C106
:102D6000502918022C0842B4111409002D0614DC55
:102D700012042E0622C411042F0BB43C525A44BA3A
:102D8000889400300B96C43314113F492800310851
:102D900093C553918A3E320B96C4339498509B3618
:102DA00003330E96C433949850692A9C4928003402
:102DB0001097C49352E12C220A894292A3540235FF
:102DC0000F96C45324999014120A67120A00360C05
:102DD00096C473DA2A224E120A00370E97C413479C
:102DE000A9502A940AA54200380E96C433141193B0
:102DF000842262925000390C96C433141127094D75
:102E000023003A0762C41144023B0982B411448A88
:102E100004003C0A745573218969240B3D0734DD95
:102E20001344023E0B74551331D1C8228A013F0F5F
:102E3000A5443393904C693292436422004021AD03
:102E40004A5771502C0E08C601C13820128A03223D
:102E500092BC545254E28048280E081E24004111AE
:102E600099449571C0782A114A644A17295500423D
:102E70000D9744141619DB49C6768800430C974415
:102E80005424D95467598802440D98C4142699448F
:102E9000C837890900450B96C41387A06245A86806
:102EA000460C96C41387A06245A81100470F98C42A
:102EB0005425E158C94894C8441500480B98C414D7
:102EC000428E87224701490792C4110F044A089491
:102ED000C452FAA9024B1298C414429A44A4222361
:102EE0004A6422358950004C0896C41342FD684D4F
:102EF00014994435D1904C32BB1C229609654299F5
:102F00009042024E10994415616AD14611912434C1
:102F10006355004F0D994455351529AF1299AC04EE
:102F2000500C96C4131511D345A81100510FB93494
:102F300055351529AF1299AC283E04521297441406
:102F400025159144242949442A22894C00530D9681
:102F5000C43314D970485C935000540996C41326A6
:102F6000A17E02550C98C414427E948864240056B5
:102F70001299C41452AA442692A90825D2F11C1011
:102F80000457189B4416B2186924914C449289EC5A
:102F9000109B0C27D358381603581099C414528923
:102FA0004C453A5E95C854A402590D98C414428900
:102FB000481B55AC1B005A0C98C4345765A9B25431
:102FC0007A085B08A33C1215FD325C0CB53B12324B
:102FD000A14C6DA651265D08A33C1213FD525E1054
:102FE000854C33939824228B244562C110005F06E0
:102FF00017B41307600F86CC13374944269449222F
:1030000092830061096645344B9C2405620CA645F9
:1030100014428D1511A70B00630A64453395914A3C
:103020006400640AA64594BA9C38490A650A65C5D5
:10303000331309C52224660CA5C47222351149A692
:103040001300670C962D344B9C24C5D18402680B69
:10305000A64514428D15114F02690892C411A4436C
:10306000016A0AC4AB51CA227D51026B0DA6C51379
:10307000429D2812924427016C07A2C4110F066DCD
:103080000E68C51517158A8422A148280A6E09669C
:10309000451415114F026F0B6645341411270905AD
:1030A00000700C962D14918988D345A808710A9652
:1030B0002D344B9C24450D720A64C512128A4813A4
:1030C000007309644533A5A50A00740B85C4523109
:1030D0005145A651027509664514229E2405760DB8
:1030E00067C41332899244369CC600771069441530
:1030F000A2106522394D6612612C04780C67C41346
:103100003289DA70265113791097AC13328948A2AC
:10311000461B0E854321007A0A66C413364599CCB6
:10312000007B0CC4B452129116994837017C07D128
:10313000AD1107037D0DC4B41232913689481711C1
:10314000007E0826DC33221500A00500CC11A11357
:103150008D449775C0647A90552A8743E550391C91
:103160000AA20B854C53A291A8A49608A317A9CD37
:1031700056B568240E904684124944249989829158
:1031800068AC04A418A9CD56B568240E104542B207
:10319000982C268A84E48048345602A5148ACC35BB
:1031A000A1584492FF148B4323A1484814C90FA689
:1031B00022CCC4767158240E8A44C473D0240E18CD
:1031C000473245522611516412994426E1581C3267
:1031D00007A721CCC476A169240E8A44C473D024E5
:1031E0000E184E324E26A18864921699846371C8D7
:1031F0001C00A81BBBC516C19458D6F038428C845D
:103200002492682C1A0CA5C424B2383000A920BB23
:10321000C536A14828228B89B246D2526291D92460
:103220001689A5A4869264314928128A00AA16BB81
:10323000C516C19458D6F01C5093546475C0381A02
:10324000CB124CAB16A94C5511D2F02092CA019268
:103250002C922C922C7240E402AC0A55DD13D194CE
:10326000986800AD0614DC1204AE15AB44F6B0D07D
:1032700050C474181D469611932C328D0D01AF1158
:1032800059CD1571485224228A442459246901B029
:103290000F97CB33C2502C141409C3D90102B109C2
:1032A000544D5392BC8802B20A53CD12119588280E
:1032B00000B30A63CD12A19024A212B408524D1299
:1032C000914C01B50B96AD13229E0E434500B619E5
:1032D000CB3C5691D4506A2C8E743B4C0E92C8292C
:1032E0005411CE910E1300B71BC93C9571481C12A6
:1032F0000744C291682C180BC6A2B338201299A4B7
:103300000302B80833AD32A20900B90C85443393E7
:10331000984ACA682D04BA0A44F4329290282201CD
:10332000BB17A94C15074928E9120748B248B2480B
:10333000B2C8019168E420BC11994415D2DA64AD99
:103340002C9588289334A300BD0EA944D562AA1CED
:1033500040244E37CB01BE18AAC435E34A2C45148D
:103360000B494A1193A41432452A29A51000BF190C
:103370008F449877401C108BC44191C8C1143A8582
:10338000A8A483690E9800C014C9C47472881C294B
:103390000E184F2542894CE922A50AC113C9C4B4AD
:1033A0006239521C309E4A841299D2454A15C21580
:1033B000C9C4947140248E14078CA712A144A6742A
:1033C000915205C315C9C4749260448E14078CA72A
:1033D00012A144A674915205C415C9C45412A14443
:1033E0008E12078CA712A144A674915205C517D955
:1033F000C4947140240E88A3C501E3A944289129EF
:103400005DA45401C60F9A45963632552295901404
:103410006DDA0AC70FC72C5424D954675988280E6F
:10342000CA00C80EC6C4335239E41054AC08150D96
:10343000C90DC6C473EA904350B1225434CA0FC6B2
:10344000C473C1481C70082A56848A06CB0DC6C4B2
:10345000333A1F828A15A1A201CC09C3C31122A14C
:10346000447FCD09C3C4314489FE02CE0AC3C431AE
:10347000D924FA0B00CF0BC5C311128A58A63F01FD
:10348000D01299C3343625A1447892082542894C3C
:103490006402D114C944759260440E0D538B368A70
:1034A0008824A119AB02D211C9447572881CA1A647
:1034B00022E55522939500D310C944B56239424D97
:1034C00045CAAB44262B01D412C944957140248EC1
:1034D000505391F22A91C94A00D512C9447592609D
:1034E000448E505391F22A91C94A00D612C94455CC
:1034F00012A1440EAEA9487995C8642500D70B8661
:10350000CC33143B80C40B00D81599445595884C96
:1035100022AC4548214AAC289149422400D90FC821
:10352000C45472801C28E44789484602DA0EC8C495
:1035300094523950C88F12918C04DB0FC8C494E1A7
:10354000481C26E44789484602DC10C8C454129936
:10355000440E12F2A344242301DD0FC8C49452394F
:103560005045A48D2AD60D00DE0C96C413C28A885D
:10357000D3452804DF0DA6453423895E2A224E1741
:1035800000E00C96453452396832E22429E10C9669
:103590004574EAA0C98893A400E20C964574C1481A
:1035A0001CB2C44952E30D96455492143964899370
:1035B000A400E40C964534BA0326234E9202E50E8D
:1035C000A64574C148300E9A8C38490AE60E6A4501
:1035D00036878848441231A98E08E70D942D33951B
:1035E000914A64228B8800E80D95C53342396022E8
:1035F000A1588404E90D95C57322396022A158842D
:1036000004EA0E95C553B1481C3091502C4202EB90
:103610000D95C513128A7822A1588404EC0993C32E
:103620001122A1440FED0993C43144895E00EE09D3
:1036300093C431D9247A01EF0B95C311128A58A68D
:103640002700F00FA6455492982C12959C384928D3
:1036500000F10D964554921439A022E24900F20D72
:1036600096453452398822E224A100F30C96457421
:10367000EA208A88938402F40E964574C1481C425D
:103680001171925000F50E9645549214398422E23D
:1036900024A100F60D964534BA0328224E120A00E2
:1036A000F70A634C12A15828160AF811664D549275
:1036B000A448282209454291880800F90C9645340F
:1036C000523944C493A400FA0B964574EA10114F82
:1036D0009202FB0C964574C1481C20E24952FC0A38
:1036E0009645343A8B789214FD12C7AC93EA209930
:1036F000442451A30D87C2A11000FE0ED62D144202
:103700008D1511A78B501100FF13C7AC334A123926
:1037100044261149D468C3A1702804000001001395
:10372000B9C474749438603C95082532A58B942AEA
:1037300001010C86453474C812274901010215C9DC
:10374000C474A1B01C290E184F2542894CE922A54A
:103750000A01030E964534A1981C34197192140184
:103760000417C9AC9471C0782A114A644A172955C4
:103770000E8803E2200101050C962D344B9C24C5D4
:10378000640101060FC74494EA40926CAAB32C442A
:10379000010107109545732239602289C8544213EC
:1037A00000010C11C7447491681C48924D759685B0
:1037B0002800010D0C94453349E1CA482532010E19
:1037C00011C8C45491701C6A9249847C939800017A
:1037D0000F17A9459512A144280A4A4235914C2455
:1037E00013C944C21A0001101399C3343625A144E9
:1037F0007892082542894C6402011113A74594521E
:1038000059515411494412914424AA0001120EB690
:10381000C43374C021A858112A1A01130C85C5336A
:10382000E4898462111201160FC6C4534239E410B0
:1038300054AC08150D01170E95C55332396022A1FD
:1038400058840401180EC6AC1387A06245A8684CC2
:103850001601190E96AD332389169294180D0B019B
:103860001A10C6C45391601C72082A56848A060135
:103870001B0E95C5336971C84442B10809011E1277
:10388000B8C474A1A8B0241C2B19891299A80201EC
:103890001F12C62D34A1981C341971921447130AB3
:1038A00000012212C8AC5425E158C94894C8447597
:1038B000B03806012311C62D5451396832E224294B
:1038C0008E261400012A0AB4C3115491FE02012B62
:1038D0000A84C31154915E00012E0BC3AC1112FD7A
:1038E000251413012F0BC3AB318A12BDA40901307B
:1038F00008B2C4111F0201310862C41187020136E7
:1039000016C8AC14429A44A422234A642235895032
:103910000E140701013711D6AD13429D28129244AF
:10392000273944180301390CC6C453323948A81F3B
:103930000D013A0AC3C43114FD1700013B0DC6AC9A
:103940001342FD6887086300013C0AD2AC110FA640
:103950000900013D0D96C41322B65144A8D10001BF
:103960003E0DA5C41212A64944A6370001410E9788
:10397000C3335295D8502A9C4A0D01420BA4C3313F
:10398000224D265D00014313C944B56239344C2DE4
:10399000DA2822928466AC0A01440C964574EA90B7
:1039A0008A882701014515C92C15616AD1461191F4
:1039B000243463550E9603820001460D962D14158E
:1039C000114F72883006014715C944759138200E91
:1039D0000E538B368A8824A119AB0201480D9645F7
:1039E0005491601C5211F124014C10B9447574704B
:1039F0004D45CAAB44262B01014D0D864534740854
:103A000045C4494201015013C944951299440EAD71
:103A1000A9487995C864250001511297455412EDC3
:103A200020928A482292884424000152159D4457CE
:103A3000148B6C28154A85D28A5428551B530C01C7
:103A4000530F6A4536A38948441231A98E080154A0
:103A500015C744744239ACA422928824258948456C
:103A600024910901550C94C55212A98422D2040153
:103A70005616C72C1425159144242949442A228915
:103A80004C0E93C60001570D94AD12128A483B406C
:103A90001402015816C7445491681C5652114944E7
:103AA000929244A42292C80401590D94C5324951FE
:103AB0000945A40900015A10C6C473EA208A6C386B
:103AC00024AE492800015B0B944553127169A90289
:103AD000015E11C6AC3314D970485C93D041C21852
:103AE00000015F0B942D33A5A5B22804016012C616
:103AF000C45391601C44910D87C4350905000161D0
:103B00000C94453349E1D252050001620DC6AC1355
:103B100026A17E8709630001630FB5AC5231514580
:103B2000A6510E90C50001640EC6C45391601C627C
:103B300012EA270001650EA6C4924A9190AC24D4E3
:103B40002A02016A0FB8C4547498901F25221909DB
:103B500000016B0C864534748088274901016E1181
:103B6000D8C494E148380E14F2A344242301016F11
:103B70000EA64574C148300E11F12429017011C8F8
:103B8000C4741291440E12F2A34424230101711350
:103B900097455412ED109144241149441291A80202
:103BA000017210C8AC14427E94886454711C2202C5
:103BB000017313972D1422894822928824225135AB
:103BC0001C0708017812C8C4541299440E124A44C2
:103BD000DAA862DD0001790FC8C4B4EAC0ABB25400
:103BE000592A3D04017A0C96C473EA109BA24C66D4
:103BF000017B10C8C4946239F0AA2C55964A0F0173
:103C0000017C0D96C4534239C4A6289319017D1135
:103C1000C8C47491701C7A55962A4BA587000387F7
:103C20000722DC11040388159AC0339243480E9191
:103C300043E490AA1C2287C821060389169BC1343D
:103C4000448A502694096587985026940965420154
:103C5000038A0995C13116997E038C159B423592D2
:103C60009244A62A928AA422A9482A532D01038E9F
:103C7000159BC1344492AA484C87C84172901C24B9
:103C800007C900038F149B4235929244A62A928A58
:103C9000A422A9482A535B03900EA74372224A49E3
:103CA0000E92EA2C0203911299449571C0782A1160
:103CB0004A644A1729550003920E9744141619DBDB
:103CC00049C676880003930A96C41387A07E04032E
:103CD000941299C49471C0782A114A644A3289F4C2
:103CE0004003950C96C41387A06245A86803960DFF
:103CF00098C4345765A9B2547A0803970C98C41431
:103D0000428E87224701039811994455351529CBD6
:103D1000844A95C864250003990892C4110F0403CE
:103D20009A1398C414429A44A422234A64223589DF
:103D30005000039B1299C49471C0782A114A644AB6
:103D40003289942A039C169BC455D1A04CB64421B9
:103D500051489289D28834A2C504039D1199441513
:103D6000616AD14611912434635500039E0B974438
:103D700014772C752C07039F0E994455351529AFE0
:103D80001299AC0403A00A98C41487217F1403A1DC
:103D90000D96C4131511D345A8110003A31198441F
:103DA0001487881C2007C80152AD870003A40A9617
:103DB000C41326A17E0203A50E98C4144289481B91
:103DC00055AC1B0003A6129A4495629B4493882429
:103DD00022A968330B0103A71199C41452894C45D9
:103DE0003A5E95C854A40203A8149AC41522114936
:103DF0004412914424156D6639440803A90E994470
:103E000055351529AF1299643603AA0CC543121211
:103E10008A58A63F0103AB12C8C4541299440E122B
:103E20004A44DAA862DD0003AC0C964574EAA0139C
:103E300027490103AD1195457322396022898C64AD
:103E400092D0040003AE0DC62D74EA908A8827A193
:103E50000603AF0A93453244894E0203B015A745C5
:103E600074224A490E104944129144241189480091
:103E700003B10A664534274E920203B20FD5AD3323
:103E800013098B45C2C522530303B30D96AC13220D
:103E900092844413EA0403B40FA6455414A1544673
:103EA000117192500003B50B644533158A481219FD
:103EB00003B60FB4351324894822D2369248000342
:103EC000B70B962D1415114F420D03B80EA5C5332F
:103ED0001309CB41C245320103B909634512129D52
:103EE0000403BA0D66C513228A8424D1490003BB9A
:103EF0001097C43352B1543A9C494412350103BC63
:103F00000C962D14229E0E43450003BD0E67C4136C
:103F100032899244369CC60003BE11C535531349FD
:103F200044269BC834D244120003BF0C66453414A7
:103F3000112709050003C00E67451417258948227B
:103F400092881403C10D962D341411A78B501100C3
:103F500003C20C843533256D2389040003C3106725
:103F600045348790442411494422120003C40A6452
:103F7000C4121491360103C50B664514229E241405
:103F80000003C613D82C74628D16158A8422A1A84A
:103F900018C56A0003C71197AC1332899244365C86
:103FA0009388246A0203C815D8AC74626D1209455F
:103FB000429150241415A3580D0003C910684535CB
:103FC00022899022A148289A240003CA0D95441200
:103FD000128A58A6A3040003CB0C9645343A8B787A
:103FE00092500003CC0D964574EA208A889384028F
:103FF00003CD0D964574EA10114F120A0003CE133B
:1040000098459552395424115224140945930400BB
:1040100004010EC6C4333A1F828A15A1A20104020C
:10402000159944155639400E90CC466A2299482677
:10403000924C0004030CC6C473EA9043503F020440
:10404000041097445424D9546A918A65210A0004C3
:10405000050E96C43314D970485C935000040608CA
:1040600092C4110F0404070CC5C311128A58A63F4D
:104070000104080994C452FAA9020409189CC43620
:104080005799542695496525994822134964226217
:104090000500040A179B441632A14C2813CA8487D2
:1040A000894C4413D144B40A00040B1399441556A7
:1040B00039400EB029C94432914C2413040C15C860
:1040C000C4945239502611E922234A64223589507A
:1040D00000040E12C8C454A972A08A481B752A96FF
:1040E0000AA700040F0DB8B41442FE789849850061
:1040F00004101299C49471C0782A114A644A17298D
:10410000550004110E97441416A9AA45C6768800D6
:1041100004120E9744141619DB49C676880004135E
:104120000A96C41387A07E0404140DB8B43426FD87
:104130007F394CC50104150C96C41387A06245A8AD
:10414000680416169CC416C29844A43789AA55A2BE
:10415000265291C986D10004170F96C43394985003
:10416000692A9C492800041811994415E229B1666E
:10417000925044B6225500041914C94475A1B01CCC
:104180002A9E126B260945642B5205041A1298C404
:10419000143289481719512213A9498402041B14A7
:1041A00098C4341799442691496412994426911170
:1041B00005041C15994435D1904C32BB1C2296093C
:1041C000654299904202041D0C98C414428E8722C5
:1041D0004701041E0E994455351529AF1299AC04B8
:1041E000041F0A98C41487217F1404200D96C41359
:1041F0001511D345A8110004210D97445424D95416
:104200006759880204220A96C41326A17E02042359
:104210001098C4144289481B752A960AA7000424E2
:10422000129AC495629B4493882422A968330B0197
:1042300004251199441552894C453A5E95C854A4F9
:1042400002042618B8B41432894C2293C824328947
:104250004C2293C82487B0540204270B974414328D
:10426000DE24560D0428169A45162211494412914F
:104270004424114944129144870204291CBA35167A
:104280002289924449A2245192284994244A12C96D
:10429000610E91032400042A0D98C41464CD359155
:1042A0009E2A00042B1099C41552AE279284242113
:1042B000494E02042C0D964414428D1511D305006D
:1042C000042D10974434A498582AB14A672212004A
:1042D000042E169CC416B2929A449522BD52A41480
:1042E000294926919500042F12974454159144248E
:1042F00011894A122589882604300A6645344B9C68
:10430000240504310EA6459422996245C449420110
:1043100004320C65C51314894542B10004330964A5
:10432000C512269D0004341177BC53B488482292EC
:1043300088249243340004350B65C5331309C52224
:104340002404360E684515120945896651A12804D2
:10435000370B64451333894C540104380C664514FB
:10436000B211C5429A09043910964534A1981C220D
:104370001B512CA49900043A0C65C513124A8922DA
:10438000A108043B0F674434169144241149443476
:1043900001043C10674434B1904424914C0E95883C
:1043A00000043D0B66451422D261C424043E0C6611
:1043B0004534141127090500043F0A664514871087
:1043C0004F0204400D962D14918988D345A8080406
:1043D000410B64453395914A640004420A664413D4
:1043E00026A14E0004431197AC13328948A2461B04
:1043F0000E85432100044413D82C74628D16158A4F
:104400008422A1A818C56A0004450D67C413328927
:10441000DA702651130446128735142289482292F5
:10442000882422C951090004470B65C513121609D7
:104430004D0104481168C5151209454291502414D4
:10444000C9610004490D89B51512FD7F39889500B1
:10445000044A0E67441454294D2292882800044BC4
:104460000E68451542A28922A1484C02044C0C65F5
:10447000C51332194542B100044D0C6445139388AD
:104480006434A900044E0F69C515228AD28922A27C
:10449000885800044F0B654433168A84621100006B
:1044A000204552524F523A2043616E6E6F74207213
:1044B00065736F6C7665207469746C6520696E64D1
:1044C000657800005EBCE2613FDD83C29C7E20A374
:1044D000FD1F419DC3217FFCA2401E5F01E3BD3E45
:1044E0006082DC237D9FC1421CFEA0E1BF5D038092
:1044F000DE3C62BEE0025CDF81633D7C22C09E1D2B
:1045000043A1FF4618FAA427799BC584DA3866E5EB
:10451000BB5907DB856739BAE406581947A5FB780C
:1045200026C49A653BD987045AB8E6A7F91B45C645
:10453000987A24F8A6441A99C7257B3A6486D85BF2
:1045400005E7B98CD2306EEDB3510F4E10F2AC2F9F
:104550007193CD114FADF3702ECC92D38D6F31B2DC
:10456000EC0E50AFF1134DCE90722C6D33D18F0CF9
:1045700052B0EE326C8ED0530DEFB1F0AE4C1291C2
:10458000CF2D73CA947628ABF517490856B4EA695B
:1045900037D58B5709EBB536688AD495CB2977F494
:1045A000AA4816E9B7550B88D6346A2B7597C94ABD
:1045B00014F6A8742AC896154BA9F7B6E80A54D77A
:1045C000896B351800300060006C00E600F302BF14
:1045D000038F03C701D600000000000000000000A8
:1045E00000000000000000000000000000000000CB
:1045F00000000000000000000000000000000000BB
:1046000000000000000000000000000000000000AA
:10461000000000000000000000000000000000009A
:10462000000000000000000000000000000000008A
:104630000000000000E0FF07000000000000000094
:10464000E0FF070000000000000000E0FF0700009E
:1046500000000000000080C3010000000000000016
:104660000080C301000000000000000080C30100C2
:10467000000000F8FFFFFFFFC37F00000000F8FF0D
:10468000FFFFFFC37F00000000F8FFFFFFFFC37FB5
:1046900000000000F8FFFFFFFFC37F0000000038AC
:1046A000000000000078000000003800000000005A
:1046B00078000000803F00000000007800000080CB
:1046C0003F000000000078000000803F0000000074
:1046D0000078000000803F0000000000780000002B
:1046E0000000000000000078000000000000000052
:1046F000000078000000803F00000000007800000B
:1047000000803F000000000078000000803F0000B3
:1047100000000078000000803F00000000007800EA
:1047200000000038000000000078000000003800A1
:104730000000000078000000003800000000007851
:104740000000000038000000000078000000003881
:1047500000000000007800000000380000000000A9
:104760007800000000380000000000780000000021
:104770003800000000007800000000380000000051
:10478000007800000000380CC000044078000000F1
:1047900000381EE0010EE07800000000383FF00312
:1047A0001FF07900000000B87FF8873FF87B000019
:1047B0000000F8FFFFFFFFFF7F00000000F8FFFF91
:1047C000FFFFFF7F00000000F8FFFFFFFFFF7F00FB
:1047D000000000F8FFFFFFFFFF7F00000000F8FF70
:1047E000FFFFFFFF7F00000000F8FFFFFFFFFF7FDC
:1047F00000000000F8FFFFFFFFFF7F00000000F84F
:10480000FFFFFFFFFF7F00000000F8FFFFFFFFFF3B
:104810007F00000000F8FFFFFFFFFF7F00000000A7
:10482000F8FFFFFFFFFF7F00000000F8FFFFFFFF22
:10483000FF7F0000000000000000000000000000FA
:104840000000000000000000000000000000000068
:104850000000000000000000000000000000000058
:104860000000000000000000000000000000000048
:104870000000000000000000000000000000000038
:104880000000000000000000000000000000000028
:1048900000000000000000560000000000000000C2
:1048A0000000000000000000000000000000000008
:1048B00000000000000000000000000000000000F8
:1048C00000000000000000000000000000000000E8
:1048D00000000000000000000000000000000000D8
:1048E00000000000000000000000000000000000C8
:1048F00000000000000000000000000000000000B8
:1049000000000000000000000000000000000000A7
:1049100000000000F07F0000C0FF0100000000F078
:104920007F0000C0FF0100000000F07F0000C0FF1A
:104930000100000000F07F0000C0FF010000000047
:10494000F07F0000C0FF01000000FEFFFFFFFFFF3F
:10495000FFFF1F0000FEFFFFFFFFFFFFFF1F000024
:10496000FEFFFFFFFFFFFFFF1F0000FEFFFFFFFF37
:10497000FFFFFF1F0000FEFFFFFFFFFFFFFF1F0005
:1049800000FEFFFFFFFFFFFFFF1F00003E000000D3
:10499000000000001F00003E000000000000001F9B
:1049A00000003E000000000000001F00003E00006C
:1049B00000000000001F00003E000000000000009A
:1049C0001F00003E000000000000001F00003E002D
:1049D0000000000000001F00003E00000000001E5C
:1049E000001F00003E00000000001E001F00003EEF
:1049F00000000000001E001F00003E00000000003C
:104A00001E001F00003E00000000001E001F0000EE
:104A10003EF8FF0000F0FF031F00003EF8FF00001B
:104A2000F0FF031F00003EF8FF0000F0FF031F002F
:104A3000003EF8FF0000F0FF031F00003E000000F2
:104A400000001E001F00003E00000000001E001FAE
:104A500000003E00000000001E001F00003E00009D
:104A60000000001E001F00003E00000000001E00AD
:104A70001F00003E000000000000001F00003E007C
:104A80000000000000001F00003E000000000000C9
:104A9000001F00003E000000000000001F00003E5C
:104AA000000000000000001F00003E0000000000A9
:104AB00000001F0000FEFFFFFFFFFFFFFF1F0000C1
:104AC000FEFFFFFFFFFFFFFF1F0000FEFFFFFFFFD6
:104AD000FFFFFF1F0000FEFFFFFFFFFFFFFF1F00A4
:104AE00000FEFFFFFFFFFFFFFF1F0000FEFFFFFFB5
:104AF000FFFFFFFF1F00000000000000000000009B
:104B000000000000000000000000000000000000A5
:104B10000000000000000000000000000000000095
:104B20000000000000000000000000000000000085
:104B30000000000000000000000000000000000075
:104B40000000000000000000000000000000000065
:104B50000000000000000000000000000000000055
:104B60000000000000000000000000000000000045
:104B70000000000000000000000000000000000035
:104B80000000000000000000000000000000000025
:104B90000000000000000000000000000000000015
:104BA0000000000000000000000000000000000005
:104BB00000000000000000000000000000000000F5
:104BC00000000000000000000000C0FF0300000023
:104BD0000000001E00C0FF07000000000000FE00F3
:104BE000C0FF07000000600000FF07C0FF070000D3
:104BF00000FC0000FF3FC0FF03000080FF0000FF3B
:104C0000FF00FE000000C0FF0080DFFF03FE000089
:104C100000FCFF00801FFF03FE000080FF7F00807C
:104C20000FFCFFFF7F00F0FF0F00C00FE0FFFFFF52
:104C300001FEFF0300C03FE0FFFFFFC3FFFF0300D3
:104C4000C0FFE0FFFFFFFBFFFF0100C0FFF3FFFF1E
:104C5000FFFFFFFE000000FFFFFFFFFFFF0F7F00D1
:104C60000000F8FF070080FF813F000000C0FF0741
:104C700000003F801F00000000FE07000006C00F7C
:104C800000000000F007000000E00700010000E065
:104C900007000000F00300010000E007000000F83A
:104CA0000380030000E007000000FC018003000017
:104CB000E007000000FC0080030000E007000000A7
:104CC000FE00C0070000E0070000007F00C00700F2
:104CD00000E0070000803F00C0070000E0FFFFFF8A
:104CE000FF1F00C0070000E0FFFFFFFF0F00800371
:104CF0000000E0FFFFFFFF070000000000C0FFFF13
:104D0000FFFF030000000000C0FFFFFFFF030000E3
:104D10000000000000000000000000000000000093
:104D20000000000000000000000000000000000083
:104D30000000000000000000000000000000000073
:104D40000000000000000000000000000000000063
:104D50000000000000000000000000000000000053
:104D600000000000000000000000F0017C001FC0F7
:104D700007F0010000FC0FFFC3FFF03FFC0F000035
:104D8000FFFFFFFFFFFFFFFF3F0000FFFFFFFFFFF1
:104D9000FFFFFF3F0000FFFFFFFFFFFFFFFF3F00A0
:104DA00000FFFFFFFFFFFFFFFF3F000007F0017C58
:104DB000001FC007300000000000000000000000DD
:104DC00000000000000000000000000000000000E3
:104DD00000000000000000000000000000000000D3
:104DE00000000000000000000000000000000000C3
:104DF00000000000000000000000000000000000B3
:104E000000000000000000000000000000000000A2
:104E10000000000000000000000000000000000092
:104E20000000000000000000000000000000000082
:104E30000000000000000000000000000000FCFF77
:104E4000000000000000000000FEFF010000000064
:104E500000001800FEFF016000000000003C001E82
:104E6000E001F000000000007E001EE001F80100FB
:104E7000000000FC001EE001FC0000000000F80142
:104E80001EE0017E0000000000F0033EF0013F0044
:104E900000000000E001FEFF011E0000000000C055
:104EA00000FEFF010C000000000000C0FFFF0F002B
:104EB000000000000000E0FFFF1F000000000000F5
:104EC00000F0FFFF3F00000000000000F81FE07F3F
:104ED00000000000000000FC0780FF000000000050
:104EE0000000FC0100FE00000000000000FE0000C9
:104EF000FC010000000000007F0003F80300000038
:104F00000000003F8007F0030000000000801FC089
:104F10000FE0070000000000801FC00FE007000046
:104F2000000000C00FC00FC00F0000000000C00F45
:104F3000C00FC00F0000000000C00F8007C00F00AE
:104F4000000000FFC1078007800FFE030000FFC1C3
:104F5000078007800FFE030000FFC1078007800F56
:104F6000FE030000FFC1070003800FFE030000FFE7
:104F7000C1070003800FFE03000000C0070003808C
:104F80000F0000000000C00F0003C00F0000000071
:104F900000C00F0003C00F0000000000800F0000E1
:104FA000C0070000000000801F0000E007000000B4
:104FB0000000001F0000E0030000000000003F00B0
:104FC00003F0030000000000007E0003F801000071
:104FD00000000000FE0000FC01000000000000FCDA
:104FE0000300FF00000000000000F80FC07F000079
:104FF0000000000000F03FF03F0000000000000053
:10500000F0FFFF3F00000000000040C0FFFF0F085E
:105010000000000000E000FFFF031C000000000093
:10502000F001FEFF013E0000000000F801E01F005B
:105030007E0000000000FC00000000FC00000000FA
:10504000007E00000000F801000000003E000000AB
:1050500000F001000000001C00000000E000000063
:1050600000000800800700400000000000000080F1
:1050700007000000000000000000800700000000A2
:105080000000000000800700000000000000000099
:105090008007000000000000000000800700000002
:1050A0000000000000008007000000000000000079
:1050B00000800700000000000000000080070000E2
:1050C00000000000000000000000000000000000E0
:1050D00000000000000000000000000000000000D0
:1050E00000000000000000000000000000000000C0
:1050F00000000000000000000000000000000000B0
:10510000000000000000000000000000000000009F
:10511000000000000000000000000000000000008F
:10512000000000000000000000000000000000007F
:105130000000000000F0FF00000000000000180068
:10514000FEFF078001000000003C80FFFF1FC0033E
:10515000000000007CE0FFFF7FE003000000003E55
:10516000F8FFFFFFC107000000001FFC1F80FF8346
:105170000F000000801FFE0300FC871F000000805E
:105180000FFE0100F8071F000000C0077F0000E0CD
:105190000F3E000000C0873F000FC01F3E00000010
:1051A000E0C31F000F803F7C000000E0C30F000F32
:1051B000003F7C000000F0E107000F007EF80000D7
:1051C00000F0E103000F007CF8000000F8F003009D
:1051D0000F00FCF001000078F001000F00F8E00182
:1051E000000078F800000F00F0E101000078F800FE
:1051F000000F00F0E101000078F800000F00F0E17E
:1052000001000038F800000F00F0C10100003C78F8
:1052100000000F00E0C10300003C7800000F00E038
:10522000C10300003C7800000F00E0C10300003C17
:105230007800000F00E0C10300003C7800000F0080
:10524000E0C10300003C7800000F00E0C103000053
:105250003C7800000F00E0C10300003CF800000FA4
:1052600000F0C10300003CF800000F00F0C1030093
:105270000038F800000F00F0C101000078F80000CD
:105280000F00F0E101000078F001000000F8E001FB
:10529000000078F001000000F8E0010000F0F003E9
:1052A000000000FCF0000000F0E1070006007EF8BE
:1052B000000000F0E107000F007EF8000000E0C3EE
:1052C0000F801F003F7C000000E0831F801F801FB5
:1052D0007C000000C0873F000FC01F3E000000C0E0
:1052E000077F0006E00F3E000000C00FFE0100F83F
:1052F000073F000000801FFC0700FE831F00000026
:10530000003FF87FE0FFC10F000000003EF0FFFF0C
:10531000FFC007000000007CC0FFFF3FE00300006B
:1053200000003880FFFF1FC001000000001800FCD3
:10533000FF038001000000000000801F000000004B
:10534000000000000000000000000000000000005D
:10535000000000000000000000000000000000004D
:10536000000000000000000000000000000000003D
:10537000000000000000000000000000000000002D
:10538000000000000000000000000000000000001D
:10539000000000000000000000000000000000000D
:1053A00000000000000000000000000000000000FD
:1053B00000000000000000000000000000000000ED
:1053C00000000000000000000000000000000000DD
:1053D00000000000000000000000000000000000CD
:1053E0001F000000000000000000803F00000000DF
:1053F0000000000000803F000000000000000000EE
:10540000803F000000000000000000803F0000001E
:10541000000000000000803F0000000000000000CD
:1054200000803F00000000000000000080FFFF033C
:105430000000000000000080FFFF030000000000EB
:10544000000080FFFF030000000000000080FFFF5D
:105450000300000000000000803F0000000000008A
:10546000000000803F000000000000000000803FBE
:10547000000000000000000000803F00000000006D
:105480000000000080FFFF0300000000000000801B
:10549000FFFF030000000000000080FFFF0300008A
:1054A000000000000080FFFF03000000000000007B
:1054B000803F000000000000000000803F0000006E
:1054C000000000000000803F00000000000000001D
:1054D00000803F000000000000000000803F00004E
:1054E0000000000000000080FFFF0300000000003B
:1054F000000080FFFF030000000000000080FFFFAD
:10550000030000000000000080FFFF030000000017
:10551000000000803F000000000000000000803F0D
:10552000000000000000000000803F0000000000BC
:1055300000000000803F000000000000000000C0EC
:105540007F000000000000E07C00C07F00C0E7009A
:105550000000FCFF07E0FF00FCFF070000FCFF7FEE
:10556000E0FFC0FFFF070000FCFFFFE0FFE0FFFFE0
:10557000070000F88FFFC07FE03FFE03000000003F
:10558000F8C07FE00300000000000000803F000042
:1055900000000000000000000E00000000000000FD
:1055A00000000000000000000000000000000000FB
:1055B00000000000000000000000000000000000EB
:1055C0000004000000000004000000001E001E0097
:1055D0000F000F000000003E807FC03F800F0000E2
:1055E0000000FCE0FFFFFFE00700000000F8FFFF05
:1055F000FFFFFF0300000000F0FFF3FFF9FF0100D1
:10560000000000C07FC07FC07F0000000000001FBE
:10561000803F001F00000000000000000E0000009E
:10562000000000000000000000000000000000007A
:10563000000000000000000000000000000000006A
:10564000000000000000000000000000000000005A
:10565000000000000000000000000000000000004A
:10566000000000000000000000000000000000003A
:10567000000000000000000000000000000000002A
:10568000000000000000000000707000000000003A
:1056900000000008707080000000000000001C780E
:1056A000F0C0010000000000003E3CE0E10300000B
:1056B000000000003C3CE0E1010000000000007C34
:1056C0001EC0F301000000000000781EC0F30000BF
:1056D0000000000000F00F807F00000000000000CC
:1056E000F00F807F000000000000F0FF0700FF7F48
:1056F0000000000000F8FF0300FEFF0000000000B3
:10570000F8FF0300FEFF0000000000F0FF0700FFAD
:105710007F0000000000008007000F000000000074
:105720000000000F800700000000000000000F8054
:105730000700000000000000001EC0030000000081
:10574000000003001EC00300060000008003003CB0
:10575000E001000E0000008007007CF001000F0057
:105760000000000F0078F0008007000000000F002C
:10577000F8F8008007000000001F00F07800C00764
:10578000000000001E00F07D00C003000000003E8D
:1057900000E03F00E003000000003C00E03F00E0CC
:1057A00001000000007C00C01F00F001000000F8B4
:1057B000FFFFFFFFFFFFFF000000F8FFFFFFFFFFFD
:1057C000FFFF000000F8FFFFFFFFFFFFFF000000EA
:1057D000F8FFFFFFFFFFFFFF000000007C00E03F3D
:1057E00000F001000000003E00E03F00E003000088
:1057F00000001E00F07D00C003000000001F00F04C
:105800007800C007000000000F0078F0008007005B
:105810000000800F0078F000800F0000008007007B
:105820003CE001000F000000C003003EE003001E4A
:105830000000008001001EC003000C0000000000FA
:10584000000F800700000000000000000F8007002C
:105850000000000000008007000F000000000000B2
:1058600000C007001F000000000000F8FF0300FE5A
:10587000FF0000000000F8FF0300FEFF0000000032
:1058800000F8FF0300FEFF000000000000F8070022
:10589000FF00000000000000F80700FF000000000B
:1058A000000000780F80F7000000000000003C0EB0
:1058B00080E3010000000000003C1EC0E301000086
:1058C000000000001E3CE0C1030000000000001EBC
:1058D0003CE0C1030000000000000C78F0800100F3
:1058E00000000000000038E00000000000000000A0
:1058F0000010400000000000000000000000000058
:105900000000000000000000000000000000000097
:105910000000000000000000000000000000000087
:105920000000000000000000000000000000000077
:105930000000000000000000000000000000000067
:105940000000000000000000000000000000000057
:105950000000000000000000000000000000000047
:10596000000000000000000000E001003C0000001A
:1059700000000000FC39E0FC01000000000000FE17
:1059800079F0FC03000000000000FFF9F8FC0700BC
:1059900000000000001FF8FDC0070000000000002C
:1059A00006F07F000300000000004000C01F001050
:1059B0000000000000E001C01F003C0000000000EB
:1059C000E001800F003C0000000000E00100070043
:1059D0003C0000000000F000000000780000000023
:1059E00000F000800F007800000000000000800F31
:1059F000000000000000000000C01F0000000000C8
:105A000000000080FFFF0F00000000000000F8FF12
:105A1000FFFF00000000000000FEFFFFFF0300008A
:105A2000000000C0FF9FCFFF1F0000000000F0FF3C
:105A3000800FF87F0000000000F80F000780FF00D3
:105A400000000000FE03000000FE03000000007FD5
:105A500000000000F007000000C03F00800F00E0E1
:105A60001F000000E00F00800F00803F000000F0EA
:105A70000300800F00007E000000F80100800F008E
:105A800000FC000000FC0000800F0000F801000096
:105A90007C0000800F0000F00100007C0000800FFF
:105AA0000000F0010000FC0000800F0000F8010081
:105AB00000F80100800F0000FC000000F00300006F
:105AC0000000007E000000E00700000000003F0032
:105AD0000000C00F00800F00801F000000801F002A
