:100000000C94DC230C94E04C0C94B54C0C948A4C6E
:100010000C945F4C0C94344C0C94094C0C94DE4BB7
:100020000C94B34B0C940D240C940D240C940D24BF
:100030000C940D240C940A560C940D240C940D244D
:100040000C940D240C940D240C940D240C940D246C
:100050000C940D240C940D240C940D240C94593DF7
:100060000C940D240C948A550C9461550C940D2419
:100070000C940D240C940D240C940D240C940D243C
:100080000C940D240C940D240C940D240C940D242C
:100090000C940D240C940D240C940D240C940B4DF5
:1000A0000C940D240C940D240C940D240C940D240C
:1000B0000C940D240C940D240C940D240C940D24FC
:1000C0000C940D240C940D240C940D240C94385590
:1000D0000C940F550C940D240C940D240C940D24A9
:1000E0000C940D24F44AF94AFE4A084B124B8B4BF0
:1000F0001C4B244B2C4B364B404B4A4B594B634BC0
:100100008B4B6D4B774B814B9B50A3507B50835057
:100110008B509350AB50B35001530453F352F752EA
:10012000FD523B5308530C53125316531A5320538A
:10013000245328533B532E53325336534E414E498A
:100140004E495459494E46CDCCCC3D0AD7233C1795
:10015000B7D13877CC2B329595E6241FB14F0A00E2
:100160000020410000C84200401C4620BCBE4CCAD2
:100170001B0E5AAEC59D7400407A10F35A00A0724F
:100180004E18090010A5D4E80000E87648170000D2
:10019000E40B54020000CA9A3B000000E1F50500A0
:1001A0000080969800000040420F000000A08601E9
:1001B000000000102700000000E8030000000064B9
:1001C00000000000000A0000000000010000000024
:1001D000002C76D888DC674F0823DFC1DFAE59E1F9
:1001E000B1B796E5E3E453C63AE651997696E8E668
:1001F000C28426EB898C9B62ED407C6FFCEFBC9C3B
:100200009F40F2BAA56FA5F490055A2AF75C936B4C
:100210006CF9676DC11BFCE0E40D47FEF520E6B507
:1002200000D0ED902E0300943577050080841E08E1
:100230000000204E0A000000C80C333333330F98FF
:100240006E12831141EF8D2114893BE65516CFFEC6
:10025000E6DB18D1844B381BF77C1D901DA4BBE452
:1002600024203284725E228100C9F124ECA1E53D94
:100270002700002100240027002A002D0030003331
:100280000001010000040107010A01526573746F47
:1002900072652056616C75653A000A0A0A3D3D3D5B
:1002A0003D3D3D3D3D3D3D3D3D3D3D3D3D3D3D3D7E
:1002B0003D3D3D3D3D3D3D3D3D3D3D3D3D3D3D3D6E
:1002C0003D3D3D3D3D3D3D3D3D3D3D3D3D3D3D3D5E
:1002D0003D3D3D3D3D3D3D3D3D3D3D0A0A000A2041
:1002E000090920205B4D494420245D3E204166667B
:1002F00065637465642076616C7565206F662000A7
:100300000A0A3D3D3D3D3D3D3D3D3D3D3D3D3D3D83
:100310003D3D3D3D3D3D3D3D3D3D3D3D3D3D3D3D0D
:100320003D3D3D3D3D3D3D3D3D3D3D3D3D3D3D3DFD
:100330003D3D3D3D3D3D3D3D3D3D3D3D3D3D3D3DED
:100340000A005365747320547269702043207261EF
:100350006E67652000536574732054726970204382
:10036000206675656C200053657473205472697043
:1003700020422072616E67652000536574732054BB
:100380007269702042206675656C20005365747335
:10039000205472697020412072616E67652000539D
:1003A00065747320547269702041206675656C20F5
:1003B00000576865656C2053696D756C61746520C4
:1003C000726573697374616E63652000536176654D
:1003D0006420416C6C206461746120616E642072E1
:1003E0006573657474696E672E2E2E005361766591
:1003F0006420416C6C2064617461200053617665F7
:100400006420576F726B2064697374616E6365203A
:100410000050617373696E672076616C7565207436
:100420006F2063617253656E7320004543552063EE
:100430006F7272656374696F6E2000445354206359
:100440006F7272656374696F6E2000565353206338
:100450006F7272656374696F6E200052504D206335
:100460006F7272656374696F6E2000576F726B20D4
:1004700064697374616E6365200054726176656CA3
:100480002064697374616E63652000424E5A206671
:1004900075656C20004C5047206675656C200043E4
:1004A00068616E6765207472697020646174612090
:1004B00000547269702074696D652000547269700F
:1004C0002064697374616E63652000204E6F6E65F1
:1004D000202E2E2E20536F72727921200020467517
:1004E000656C2073746174652069732000000000DE
:1004F000004F0080200040140038CC00049C000213
:100500000001E28F0114500008200000E00000CF3D
:100510000080A00040100038C800048000020001E4
:10052000E28F01145000082000C0000020010010DC
:100530007A00100200103A00D00200D00A00D00267
:1005400000D00200D00200D00200C80400E805007C
:10055000E80500C80400180600F00300E0010000F0
:1005600002020202020E000000003E1021B87CFCD4
:1005700047784034400441044184438443C447C421
:100580004784430440F83FF81F900990098811FC04
:100590003F02400241C240C244E249F24DF24FF2F2
:1005A0004FE2470420F81F000000FC000086010015
:1005B0003205004A0900021900FE3900FE5100FE12
:1005C0005900FE3300FE1300FE2300FE4500FE89A5
:1005D00000FE0901FC8801FFF300000000000C127E
:1005E0002D2D120C004C2F68001F111D0E0A111723
:1005F0001F0E1115110A0A0404000000000000007B
:100600000000E01F001020000CC000068001FCFF6D
:1006100000F23F012210017EF801FEFF01FCFF0005
:100620003870000000000CC30006800103030300C3
:100630000000F03F00F03C00F87F00F87F00FCFC79
:1006400000FCFC00FCFC00FEFF01FEFF01FEFF01C0
:10065000FFFC03FFFC03FFFC03FFFC03FFFF03FEA3
:10066000FF010000000205020804040408424E5A7B
:100670002076616C75653A20004C50472076616C9D
:1006800075653A20006C004C50472074616E6B3ADF
:1006900020200052616E67653A20002A002A002A55
:1006A000002A00600005050607050707375500F119
:1006B0003AF13A0107F00FC817B72007000002CB44
:1006C00000211387EE02ADE0FF07980F942270C15E
:1006D000104400002222D062BFCD6230C3284811EE
:1006E0000EE112472886210A528CC10C6430031196
:1006F0008E5002141000238A9D8E02CB092148429D
:10070000089210822484200921483ACA9110822438
:100710008420092148420892108224841CEA20483F
:1007200042089210822484200921484208928E7245
:100730008C0FFC07A2821024210449084112429028
:100740008410241DE5500741CA07FE03D1400892DA
:1007500010822484200921483ACAA10E82248420D0
:10076000092148420892108224841CEA2847420842
:100770009210822484200921484208928E7224001B
:1007800024595D92E2CAEBB0E74717F8B46851A864
:100790003A57C988521691A444200B09088B1AD4E1
:1007A0009EE7D8C32215B1484DA8DA5CD165AE37B3
:1007B00099B99A0A55D1A42216A9883DACF39E0690
:1007C0006B8740162292940CA528242BD7A9D2B46B
:1007D00022E7C4A41EF6FC16002581DE8EFECCC4E2
:1007E00060C84014329484080621823988700C2233
:1007F0008E60184418A328C8304651907104832095
:10080000852948610A62948220C420C938874555E9
:10081000C4A22A62117B5854452CAA2216B18745DE
:1008200055C422F6B0287B58943D2C620F8B3A8534
:100830003A4C7290B2188434E520CF4088218E71F2
:100840009482180229053104520C71324F404E2314
:100850008EB48C432503614501002673DD8E02CBE7
:10086000EB98CD7B5AB4A6549DCB2C6129C949087D
:1008700092108224841CEB20C73AC8610F8B54C4A9
:10088000221565918AD4642A73890C749EF39E069E
:10089000B5882101618740D83110E20C84380419F1
:1008A0000E41864312E114443825098E418263903B
:1008B000E01C1BAA90752CD404E43401418B50CC6D
:1008C0003256242B98B9CE75AC54AD63202714C78B
:1008D000E2BEAD621845A8423188319081082520DA
:1008E0000028434F6E07CD6860843A1062908318E9
:1008F000E4200639C8390E728E833A073A0E720E1A
:10090000747650E740E70F210785CE1072107420EF
:10091000E4A0107290931CE4240739C9414E728CF4
:10092000542CA100293D4F6E07CB6458053A4E72F6
:1009300010841C042107410742D0819083A01342F8
:10094000D019420E82CEFF3B68E740C7419DE3A02D
:10095000CE7150063988414C6290832063112D403E
:10096000002A3999C6A6CBAAA0652D308509CA50A0
:100970008A3290629406128A80842C5C6442CF6A28
:1009800058B31E34912B64010945404619194A5148
:10099000861298C204ADA0650A002B1396052FCDD0
:1009A000E778E7873EF007BC73BCF321002C108783
:1009B000E2F6AAA1085C30444184220A002D0AD63E
:1009C000014BCDE01FF0002E0DC7E102ABA1085C8A
:1009D00030C420002F429CAE02CB149908454D84B0
:1009E000A22642117A50D444286A221435118A9AD8
:1009F00008454D8422F4A0287A50D444286A221451
:100A000035118A9A08454D8422F4A0287A50D4449E
:100A1000286A22144501303D9D8E02CBEB988D8BC8
:100A2000D694AA73958C2C6319CA5104B210812CE8
:100A300024200D6ACF73FFFFFFBFF734A821E168C0
:100A40008740162294A38C15C9CA75AA34ADC8353F
:100A5000F35800311B8EAE03CDE7CCA04A8A28E2C2
:100A6000031FD0C23292729CF3FFFFFFFF0F325C74
:100A70009D8E02CBEB98CD83D694AA73958C306271
:100A800019CA5104B210812C24200D6ACF73BDA75E
:100A9000410D09474382D11041B864080FA1C94CE8
:100AA0002842939950842633A1084D2842939950A7
:100AB000842633A1084D6642119A50842633A1083A
:100AC0004D6642119AD00FFC0722334D9D8EFECA0F
:100AD000E07F20A209456832138AD0642614A1C998
:100AE0004C2842939950842633A18B64A2F31E07AD
:100AF00035882A15B148452C52117BFE5554111CDE
:100B00003288868863254141C9600433B2729D2AC8
:100B10004D0C7A0C2D1A0034479D8E02CB0AA98702
:100B20003D2AAA1EF6A8A87A54B47A54B47A54B4CA
:100B30007A54543DEC5151F5A8483912528E8494A0
:100B4000231DE640883910620E8498031DE738C8DB
:100B5000390E728EF381FF40E4107BFE770035453D
:100B60009D8E02CBE07F20AB873DFF2388AAD06516
:100B7000B092116D6CC211ABA38464210161484035
:100B8000DAE39EE7BCC39E3FEB3C97831AC4108117
:100B90002C442448198C584856AE53A56945AE9943
:100BA000C7020036559D8E02CBEB988D8BD694AA4A
:100BB00073958C2C8219CA5104B21071B423200D84
:100BC00072CE73ECF91B4AB2CE65B092116D6C8295
:100BD000298A505212928504A441ED71CF73FFDE31
:100BE000D3A086046421025988508E3256242BD714
:100BF000A9D2B422D7CC6301374D9D8E02CBE07FC2
:100C0000206350831A128E8684A321E1604938182C
:100C1000220E86D014452A42138A54144D2852516C
:100C200034A14845D1842215A1298A5484A628528A
:100C3000119A50A4A26842918AA209452A425314EB
:100C4000A9084D1A0038609D8E02CBEB988D8BD68B
:100C500094AA73958C2C6319CA5104B210812C2468
:100C6000200D6ACF73DF7B1AD490802C44200B11A7
:100C7000CA51C68A64E53A559A5275AE9211A528B2
:100C80002349894016129006B5E7B9EF3D0D6A4831
:100C9000381822908508E5286345B2729D2A4D2BAD
:100CA00072CD3C160039549D8E02CBEB988D8BD6BD
:100CB00094AA73958C2C6319CA5104B210812C2408
:100CC000200D6ACF73FF39A8410D09C84A4292141A
:100CD000A114466C434732731D2B29E3B0E7B3CE12
:100CE0007339A8410C11C842448294C1888564E5D7
:100CF0003A559A56E49A792C003A1547E81EAB62A9
:100D0000181F1842F1C1AD2270C1108300003B17BB
:100D100007E912AB62181F1842F1C1AD2270C11071
:100D200005118A28003C3092482FCB6F70442B98D5
:100D3000A19094A0E4A84E8292A342883A96C18AD8
:100D400066B063212A514A52544A292AA59075B4A3
:100D5000C2116F80023D105AC526CDE03FB07DF034
:100D6000F607FE810D3E2ED2482BCB2088021C5E5A
:100D7000D10C762C44292A4D292A4D21CC680533E3
:100D8000D6A11094EE282741A9842883158D70C31D
:100D90000B22003F42DD8E02CBEB988D8BD694AABE
:100DA00073958C2C63190A4A44A2108130A841CE55
:100DB00079CE3BECA9A2683293A948452E7191EAFD
:100DC000668A2215A9873DFFDF07F78A6BDCC39E81
:100DD000AC8189060040D57391C6F6B3F900993C01
:100DE0009637FBCD0F08F103C47392D398C7AC6557
:100DF0002E69B10A527072929D98842724594738FF
:100E0000084A45041988920A2290341544208832F1
:100E100087385065205419E82842390E420C721C5C
:100E2000741CE438E8741C743A0E3A1D079D8E83D6
:100E30004EC741A7E3A0D371D0E938E8741C743AD7
:100E40000E3A1D079D8E834EC741A7E3A0D371D0F4
:100E5000E938E8741C743A0E3A1D079D8E838E8320
:100E60001C07212629D051441324F481411CE80396
:100E70008338D2078281248F20CA098D411433968A
:100E800083B0031D29F9004B3EC0920F2CE5034BA4
:100E9000F9C05A3EA0980F24E803E50344FCC020A3
:100EA0003F20D0AF7A78DBD80100416E9D8E02CB17
:100EB000EBB04845681A55A622D7492632B00D3AFC
:100EC000CF712F7784C31D0169474018220E868891
:100ED000831DE360C738D8311085904321E4504723
:100EE00039D4510E7514241D05418839D0710E7402
:100EF0009C031D0739C741CC3D83911C41D4418ED1
:100F000075906321E3608740D8218E7688A31DE227
:100F10006848381AE41E770042779D8E02CB006A3B
:100F200093AA9075B082958C208619874AC6B11213
:100F30007130441CED104743C2D19070B8231CEEB1
:100F4000084743C2D1907034241C0C11C74AC4A175
:100F50001471246568232358B9CC65B09211A43468
:100F6000E348CA3856220E8688A321E1684838DC57
:100F7000EBB9E75E0D094743C2C19270AC441C69EE
:100F80001187694646B07219EB546852500300430A
:100F90003E9D8E02CB0A998D8BD694AA73958C2C8C
:100FA0008219095204B2908034587B9ECB9EFFFF79
:100FB000FF7BCE7B1AD490803024200B110A4AC6C6
:100FC00022189295EB54695A916B26A20044399DE0
:100FD0008E02CB405A15BA0C5632A28D4D206811A4
:100FE000C752C2D1907034241CEEF5DCFFFFFF9F86
:100FF0007B35241C0D09C752C29116B1096D6404DA
:101000002B97A990B400451D9D8E02CBE07F20ABAD
:10101000873DFFFFAC75EC770E7BFEFF2C523FF057
:101020001F880046199D8E02CBE07F20AB873DFFD5
:10103000FFAC75EC770E7BFEFFFF2C0047429D8EC8
:1010400002CB0A998D8BD694AA73958C2C631909BF
:101050005204B29080B0A841ED792E7BFE1FAABF4A
:10106000E7FEBDA7410D09C84A02B292A09C452CDB
:10107000A311DBD048563073A1261CEB200748157E
:101080009D8E02CBE078EEFFFFDFFBC0FF9EFBFFF3
:10109000FF7B07490B87EE02ADE0FF3F30004A2798
:1010A0009D8E02CBF6FCFFFFFFFF679DE77250832A
:1010B000DA21908508052583110BC9CA75AA34ADBC
:1010C000C8351351004B8B9D8E02CBE0685043C254
:1010D000C19270AC441C0B19874AC6A11072A4843B
:1010E0001C28290742CC7112731CE41C263947497D
:1010F000D051907490241D2351C740D62192750879
:1011000084450C6A8F7B9CF39CD74026B2C5063A77
:10111000CF798F7B1CD48E90B02324EC10C93A0673
:10112000B28E91A88324E928483A4A820E83A0C34C
:1011300024E738893910620E94942325E450083945
:1011400054328E858C6325E26049381A128E9600DF
:101150004C149D8E02CBE0B0E7FFFFFFFFFF3FFB8B
:1011600081FF40044D569D8E02CBE0705083316963
:10117000C9149568C83A368315AC644337B6C08540
:101180000FFC034B68821318E18845386211CE4882
:10119000863392E18C6438E4200E3988430EE29461
:1011A000A238A5284E218C6306E398C1384638CE74
:1011B000098E7382E33CF7FFBD034E579D8E02CB31
:1011C000E0788F7B1CD4602D621193966C4D6AA6DB
:1011D000A844A50AD59075AC73192720C609887153
:1011E00004521C81146720C419087106421C820C29
:1011F0008720C32189700A229C8208C720C13148F8
:1012000070CC756CA82ED1D4DC92B1B806E75EEF35
:10121000004F3D9D8E02CBEB988D8BD694AA739593
:101220008C2C6319CA5104B210812C24200D6ACF72
:1012300073FFFFFFBFF734A821015988401622949D
:10124000A38C15C9CA75AA34ADC835F358005046E9
:101250009D8E02CB006A93AA90752E83958C20A553
:1012600019475AC4B11271B0241C0D094743C2E199
:101270005ECF3DF76A48381A120E96846325E2481D
:101280008B404A33328295CB58A7429382DA61CFA2
:10129000FFFF6701513D9D8E02CBEB988D8BD6945D
:1012A000AA73958C2C6319CA5104B290902C2420F7
:1012B0000D6ACF73FFFFFFBFF734A82101598840A3
:1012C000162294A38C15C90A66AE731D2B55EB1814
:1012D00008527F9D8E02CB006A93AA90752E83954B
:1012E0008C20A519475AC4B11271B0241C0D0947AE
:1012F00043C2E15ECF3DF7B8231C0D094743C2C18D
:101300001071AC441C491948694646B07219EB5437
:10131000A8868E73A0E320E738C839D0710E849870
:101320000321E648873912528E8494431DE5500804
:101330003914428E75906321E358C838D8310E862F
:10134000888321E26848381A128E8684C33D0E01D4
:1013500053519D8E02CB0A998D8BD694AA73958C8E
:101360002C8219CA5104B2108130A841ED792E7B2C
:1013700058A42216A929AAD065AE4797B93E9AD497
:10138000A422F6B04845ACF35C0E6A104304B210D8
:10139000A11C6530622159B94E95A615B966220A7D
:1013A0000054159D8E02CBE07F205A483DECF9FF9A
:1013B000FFFFFFFFB70055279D8E02CBE078EEFFC1
:1013C000FFFFFFFFDED3A086046421025988508E00
:1013D0003256242BD7A9D2B422D7CC6301567C9D98
:1013E0008E02CBE0788F3BC2D1907034241CED107C
:1013F000473B04C28E71B0631C0B19C742C6B10EC5
:1014000082A8A31CEA28873ACA919072A4C320E854
:1014100038073ACE818E731CE41C07658E749823BE
:101420001DE6488739D251908410441DE45807398D
:10143000D6418E7590632102618738DA218E7688D5
:10144000A31DE268907B9CF3DC600B329125575220
:10145000992A9A46918AD8430157419ACE02CDC023
:1014600068EDFFFF4C601A2394A60CA52943694838
:10147000411A52908614A419C768C6319A718C46D5
:1014800024A211896844229AB0840FFC7FA00A39F3
:10149000718DDBB04AAD50677614588A9D8E02CBB1
:1014A000006948381A12107608841DE358C83816A7
:1014B000321075102421E5484841D06190839CE3A7
:1014C000A0CC81107320A420E9284842C8A19081B3
:1014D000AC63200B11074302D28E80B4C7BD9EF3CC
:1014E0001AD844166C41C7BDB923200C090843C45F
:1014F000C18E812864200A21873A0A82908220C402
:101500001C0831073A0E62908318041DE648084112
:101510001242107590632102598840D821107688B4
:10152000A3410D0159699D8E02CB006948381A12FA
:101530000E860864210259C83814420E85102421F1
:101540000441883910620E741CC420E830083A0A3D
:10155000921082248420EA18C83A06B2107130240E
:1015600020ED08487BDCEB35B01517B948652A3407
:10157000A1484551A4A22852917A54543D2A8A2266
:101580001545918AD4A3A228525114A9005A4B9D03
:101590008E02CBE07F20AA08452A42918A50A422DD
:1015A00034A1084D2852118A54842215A148452897
:1015B00052118A54842215A148452852118A548414
:1015C0002215A148456842119A50842614A1094564
:1015D0002A4291FA81FF40045B18916E03CD000A04
:1015E0001FF801489DFFFFFFFFFFA90FFC401600F9
:1015F0005C479CAE02CB00A1484528528F8A50A47C
:101600001E15A1484528AA221455118AAA08455535
:101610008422F5A808452A425115A1A88A505445AC
:1016200028AA221455118AD4A32214A90845558446
:10163000A22A425115A1085D14906E03CDE00F4C13
:10164000E9FCFFFFFFFF2F7DE007345E1B97E2F20E
:10165000CB27690B5B56939E8304A4200321473953
:10166000C6718E80A0035F0A6501EECAE03FE0010B
:101670006012CE82DFCBE040C739D00919C9848C13
:1016800064026160218B02D32BA94F8CDED4AA7532
:10169000A50C2D6339494A0CB210832CC41CED30C3
:1016A000473BCCD10E73B4439F32721556A92B61C0
:1016B000283B9AD90A57947514A41D04710741DC7C
:1016C000418E7790E31DE4780741DC4190961064E9
:1016D000296429CFF8C4373CD295491C0722465AC1
:1016E000D4006241DD8E02CBE0B0E7FF478E758407
:1016F000065D062B19D1C6269AB1880525215948C1
:101700004818D420E73CF7FFEF3DEE69118B161225
:10171000169484662C6213DAC808562E7384061D4C
:10172000045100633D1D8B02CBEB988D8BD694AAA0
:1017300073958C2C63190A4A04B2108130A841CEEB
:10174000792E7BFEBFE7BCC73D0D09084302B210EE
:10175000A1A064AC4856AE53A56945AE9988020075
:101760006443DD8E02CBF6FCFF16320ED484C35CDC
:101770000523D9D0C42696D104052901594940181A
:10178000D420E73CF7FFEF3DEE69484018129095F2
:1017900004052962198DD88646B282990B35E15825
:1017A000073900653E1D8B02CBEB988D8BD694AA32
:1017B00073958C2C63190A4A04B2108130A841CE6B
:1017C00079EEDE07FE67CFB34845DA6010569044E5
:1017D000214241C95891AC5CA74AD38A5C338F053A
:1017E000006629DD8E02CBCFA80B741CC4A435255E
:1017F0002A25423988410E724EE838873DFF7BDA50
:10180000D09F3AECF9FFFFBF07006760DD8EC6CAC4
:101810004B4295B90A46B2A113CB5886721491284F
:1018200044200C6A90739EDB7BDCD39080302424B0
:101830000A110A4AC68A64E53A559A56B420F6B89F
:101840008422F5B0278B54854A6B4A96C1483636B8
:10185000B18564450D72CE73DEE39E8684242961D2
:1018600013DBC8CA75AA3435E700682ADD8E02CBBF
:10187000E0B0E7FF478E7584065D062B19D1C626BA
:101880009AB18805252159484818D420E73CF7FF2C
:10189000FFFFBD036922CBAE02AB62380639578A1F
:1018A0000F060E72FEFFFFFF11642024114A504400
:1018B00032107214030D6A2A9612C7CC9088063C27
:1018C000DE192C3EF8CCF1CEFFFFFFFFFFF71CF432
:1018D00018C820211189A00DA940C7494C33100018
:1018E0006B76DD8E02CBE0B0E7FFE79E8684832532
:1018F000E160883856228E858C4325E348093912E9
:10190000520E94940321E63889390E720E939CA3EB
:1019100024E828483A48920E82A86324EA18C83A74
:1019200004C28E90B023242C62D29AD4A4A844A5D9
:101930000A310141CB40CE3212A314C4A44A7290A2
:1019400082A084202919C742C6B1127130441C2CD0
:10195000094743C2E1106C1DCF8E02ADE040E7FFA6
:10196000FFFFFFFF0F210741897182239AC190A5D4
:1019700028E8006D86338B02F7E020C73BD6119A2A
:10198000D4A0AB44061B53C942453E108D0F48A25C
:1019900019D358C4821C9484642D0B09095318D49C
:1019A000920639C439EF78CE3B9EF38EE7BCE3391B
:1019B000EF78CE3B9EF38EE7BCE339EF78CE3B9ECB
:1019C000F38EE7BCE339EF78CE3B9EF38EE7BCE3C2
:1019D00039EF78CE3B9EF38EE7BCE339EF78CE3B10
:1019E0009EF38EE7BCE339EF78CE3B9EF38EE7BCE7
:1019F000E339EF78CE3B9EF34E6E271D8B02CBE092
:101A000020C73A42832E83958C686313CD58C482D5
:101A100092902C24240C6A90739EFBFFFFFFDE0142
:101A20006F3A1D8B02CBEB988D8BD694AA73958C55
:101A30002C63190A4A04B2108130A841CE79EEFF16
:101A4000DF7BDCD390803024200B110A4AC68A64E5
:101A5000E53A559A56E49A8928007042DD8EC6CA46
:101A6000E020C73A42832E83958C686313CD58C417
:101A70008292902C24240C6A90739EFBFFF71EF731
:101A8000B488450B090B4A423316B1096D64042B27
:101A9000973942830E82A8C39EFFCF027143DD8E29
:101AA000C6CAEB20076AC261AE82916C686213CB32
:101AB0006882829480AC24200C6A90739EFBFFF7AE
:101AC0001EF73424200C09C84A828214B18C466C5B
:101AD000432359C1CC859A702C641CF6FCFF00721C
:101AE0001C168B02BDE02052F8C01F6884442003FE
:101AF00099C721EE78E7FFFFFF7B007342198B0245
:101B0000C3E980CC7A5274A652114B2C6111C8895A
:101B100012A49CE55A4F44241213F8AC2845484AB5
:101B20003105B925261189CF725B4F82121290932D
:101B300084D5B04655A613A58731EF48007422D24C
:101B40004E02ADE458E7FF3B1FF8030239D6F9FF18
:101B5000FFDF4294929AD218E62C4849C93A0075A0
:101B6000281D8B02CBE078EEFFFFFF7B8F7B1A12E4
:101B7000108604642541418A584623B6A191AC6081
:101B8000E6424D38D6410E766E1D8B02CBE0788F43
:101B90007BDC118E8684A31DE2688740D8211076F5
:101BA0008C6321E3580739D641107510441DE54870
:101BB0004839D2618E7418041D0641C7390E724E21
:101BC000E8380742CC811073A4A320E928873ACAD9
:101BD000A1107228841CEB18C83AC6C18E7130441B
:101BE0001C0C09483B02D28E70B8231CEEF59CD722
:101BF000C0B6C8200077C5338B02F7E078C773DE24
:101C0000F19E9634241C2D6948385AD20E71B4A422
:101C10001DE2680A3B04B296858C632D0B19C75AE6
:101C2000D6418EB5AC831C8B51074152939072A460
:101C30002621E5484D3ACC919A74982339E830C86A
:101C4000790E728EF31CE49CC2710E749C231CE707
:101C500040C73902620E8414242005494741C4510B
:101C6000907494631CE5504739C6510E75946320F7
:101C7000E450C8405BC740C83190758CA31CE3603A
:101C8000C738CA310E768CA320E26048400A129011
:101C90007604C41C01694738CE110E7784E31CE139
:101CA000704738CEE39EF33C0739AF490D6C5203C1
:101CB0009BD4C0263591510C020078661D8B02CB57
:101CC000007147381A1210768C632103514739127C
:101CD0005210749CE3A0CC918E8224841CEB18C813
:101CE00042C4D18E80B4E739AF894C5CA632938A66
:101CF000A20955E42219D840C73DEE080843C4C1E3
:101D00008E8128841CEA280842CC818E8318041D09
:101D1000E6480841D4418E8508841DE268903B0066
:101D20007974DD8EC6CAE360C740143210859043D3
:101D300021E4504739D4511084140421E6408839F5
:101D4000D0710E741CE41C0731083A0C820E73A487
:101D5000C31C0929474208A20E82A8831CEB20C796
:101D600042C6B11081B04320EC10083BC4D1907042
:101D700034C8BD9CF35CB00599C8922BA94C154D95
:101D800051A4A26B42415A211216AD68490C720E41
:101D90005CE811017A2B1D8B02CBE07F20A2C94C9D
:101DA000A632535399693499299ACC144D668A26E0
:101DB000334593999ACA4CA3C94CE807FE03117B9B
:101DC00041D430E7CAAF68C74A949216C4A0052927
:101DD0002A592886B0A39DFFC71076304425495163
:101DE000C942D81011962C85250D694743DAF9FFB1
:101DF0001AC210965ACA62109316A5ACA41DAF0061
:101E00007C0B47F2E3CAE0FFFF81077D43D330E755
:101E1000CA8078464356A294B4A045290B61C842B3
:101E2000D8F9FF18B210862C84254B51093BE0C02D
:101E30000E952405250959884216B20E76FEDF421A
:101E400029242967410B5252A2906534E2017E1A7F
:101E5000A0624ACB835806424C5338D237BA0209A3
:101E6000A52CE84844130A007F07000002CB0000BD
:101E700000000020284166746572206368616E6707
:101E80006520726573657420736572766963696E27
:101E90006729004169722066696C7465722020723E
:101EA00065706C6163656D656E74206166746572E2
:101EB00000204F494C2F4149522046494C5445522D
:101EC00020574F524E204F55542000416674657282
:101ED000206368616E676520726573657420736541
:101EE00072766963696E670054696D696E67206216
:101EF000656C74206E65656473207265706C6163D7
:101F0000656D656E74200020574F524E2054494D28
:101F1000494E472042454C54004261636B206C6936
:101F200067687473200046726F6E74206C6967680E
:101F300074732000496E63616E64657363656E74CB
:101F400020206D616C66756E6374696F6E20696EBA
:101F50003A20002042554C42204255524E204F55C7
:101F60005420003235252E20506C65617365206148
:101F70006464206D6F72652E200057696E646F7700
:101F800020776173686572206C6971756964206976
:101F9000732062656C6F7700204C4F572057494E75
:101FA000444F5720574153484552210069732074CC
:101FB0006F6F20686967682C206F7665726865614D
:101FC00074696E6721005468652074656D70657270
:101FD000617475726520696E2074686520636F6F27
:101FE0006C696E672000204F564552484541544960
:101FF0004E47212121006966206973206E65636563
:10200000737361727920616464206D6F72652E0054
:10201000436865636B2074686520636F6F6C616EE5
:1020200074206C6576656C00204C4F5720434F4FF1
:102030004C414E5421007468652066726F6E7420A6
:10204000627265616B73200044657465726D696EC0
:10205000656420706164207765617220696E206F0D
:102060006E65206F66200020574F524E204252412D
:102070004B455321007768696368206973206E6F50
:102080007420696E20776F726B696E672072616E63
:102090006765004120766F6C74616765206F663AF2
:1020A0002000454C454354524943414C204D414C3E
:1020B00046554E4354494F4E2100546F7020757061
:1020C000206D6F746F72206F696C004F696C206CAB
:1020D0006576656C206973202062656C6F772032AD
:1020E000352500204C4F57204F494C204C45564534
:1020F0004C2100506C6561736520647269766520BF
:10210000736166652100200020524F4144204943FD
:10211000494E47205741524E494E472100204275B3
:102120006C62206661696C75726521002044726F73
:102130007773696E65737320646574656374656431
:10214000002054616B65206120627265616B0055EF
:10215000736520425245414B20706564616C206676
:102160006F7220656E64005475726E20656E6769CB
:102170006E65204F6E2F4F666620746F20736176F8
:102180006500524553554C5400434F4E53554D50E6
:1021900054494F4E004F444F4D455445520052450F
:1021A000564F4C5554494F4E530056454849434CA1
:1021B0004520535045454400446162626C6520707F
:1021C0007265737320523C2B533C20746F206368FC
:1021D000616E67652076616C7565005573652022B8
:1021E000533C2220746F206E6176696761746520AC
:1021F0000050726573732022533C2220746F206557
:102200006E74657220696E2073657474696E67738D
:102210000041726475696E6F4D4944207665727332
:10222000696F6E20004669726D7761726520757006
:10223000646174653A207777772E6769742E696FC9
:102240002F76486C6B6400486F6C64203E522061AE
:102250006E6420627265616B20706564616C200041
:10226000546F2072657365742074726970206461A4
:1022700074610044454641554C5400435552524503
:102280004E540053455454494E475300444153481B
:10229000424F4152440041424F555400534552561B
:1022A0004943494E47004655454C204D454E550043
:1022B00054524950205245434F524453004D4149D6
:1022C0004E204D454E550057454E54204F55540015
:1022D000574F524E204F55540042454C4F572032D5
:1022E0003525004F2E4B2E00456E67696E65204FD9
:1022F000696C206C6576656C2069733A20005769BB
:102300006E646F772077617368657220737461748F
:10231000653A2000436F6F6C616E74206C65766562
:102320006C2073746174653A20004272616B6520A1
:1023300077656172696E672073746174653A200015
:10234000454E54525900756E74696C206E657874F0
:102350002074696D652100476F6F64627965202E76
:102360002E2E2020202020005723462340232A23DE
:102370001423FE22E822E322D922D022C722BD2242
:10238000B022A6229C2296228C2283227B227322B8
:102390006022472225221122F121DB21B821AA2126
:1023A0009E2195218921822167214F2141212C21C4
:1023B0001D2108210621F320E320CB20BA20A220F2
:1023C0009320752067204820362028201020F61FF3
:1023D000E61FC61FAC1F981F7A1F631F531F341FB1
:1023E000261F191F071FE81ECB1EB11E931E731E4A
:1023F0001800300060006C00E600F302BF038F039A
:10240000C701D600E000700030023003F803EC0191
:1024100036001B000D000700000000000000000057
:1024200000000000000000000000000000000000AC
:10243000000000000000000000000000000000009C
:10244000000000000000000000000000000000008C
:10245000000000000000000000000000000000007C
:10246000000000000000000000000000000000006C
:10247000000000000000E0FF070000000000000076
:1024800000E0FF070000000000000000E0FF070080
:102490000000000000000080C301000000000000F8
:1024A000000080C301000000000000000080C301A4
:1024B00000000000F8FFFFFFFFC37F00000000F8EE
:1024C000FFFFFFFFC37F00000000F8FFFFFFFFC317
:1024D0007F00000000F8FFFFFFFFC37F0000000047
:1024E0003800000000007800000000380000000004
:1024F0000078000000803F0000000000780000002D
:10250000803F000000000078000000803F000000D5
:10251000000078000000803F00000000007800000C
:102520000000000000000000780000000000000033
:1025300000000078000000803F00000000007800EC
:102540000000803F000000000078000000803F0095
:102550000000000078000000803F000000000078CC
:102560000000000038000000000078000000003883
:1025700000000000007800000000380000000000AB
:102580007800000000380000000000780000000023
:102590003800000000007800000000380000000053
:1025A0000078000000003800000000007800000003
:1025B0000038000000000078000000003800000033
:1025C00000007800000000380CC0000440780000D3
:1025D0000000381EE0010EE07800000000383FF0F7
:1025E000031FF07900000000B87FF8873FF87B00F8
:1025F000000000F8FFFFFFFFFF7F00000000F8FF72
:10260000FFFFFFFF7F00000000F8FFFFFFFFFF7FDD
:1026100000000000F8FFFFFFFFFF7F00000000F850
:10262000FFFFFFFFFF7F00000000F8FFFFFFFFFF3D
:102630007F00000000F8FFFFFFFFFF7F00000000A9
:10264000F8FFFFFFFFFF7F00000000F8FFFFFFFF24
:10265000FF7F00000000F8FFFFFFFFFF7F0000008A
:1026600000F8FFFFFFFFFF7F00000000F8FFFFFF03
:10267000FFFF7F00000000000000000000000000DD
:10268000000000000000000000000000000000004A
:10269000000000000000000000000000000000003A
:1026A000000000000000000000000000000000002A
:1026B000000000000000000000000000000000001A
:1026C000000000000000000000000000000000000A
:1026D00000000000000000000000000000000000FA
:1026E00000000000000000000000000000000000EA
:1026F00000000000000000000000000000000000DA
:1027000000000000000000000000000000000000C9
:1027100000000000000000000000000000000000B9
:1027200000000000000000000000000000000000A9
:102730000000000000000000000000000000000099
:102740000000000000000000000000000000000089
:10275000000000F07F0000C0FF0100000000F07FDB
:102760000000C0FF0100000000F07F0000C0FF017A
:1027700000000000F07F0000C0FF0100000000F03A
:102780007F0000C0FF01000000FEFFFFFFFFFFFF12
:10279000FF1F0000FEFFFFFFFFFFFFFF1F0000FE07
:1027A000FFFFFFFFFFFFFF1F0000FEFFFFFFFFFF18
:1027B000FFFF1F0000FEFFFFFFFFFFFFFF1F0000E6
:1027C000FEFFFFFFFFFFFFFF1F00003E00000000B5
:1027D0000000001F00003E000000000000001F007D
:1027E000003E000000000000001F00003E0000004E
:1027F000000000001F00003E000000000000001F5D
:1028000000003E000000000000001F00003E00002D
:1028100000000000001F00003E00000000001E003D
:102820001F00003E00000000001E001F00003E00D0
:10283000000000001E001F00003E00000000001EFF
:10284000001F00003E00000000001E001F00003EB0
:10285000F8FF0000F0FF031F00003EF8FF0000F04B
:10286000FF031F00003EF8FF0000F0FF031F000001
:102870003EF8FF0000F0FF031F00003E00000000D4
:10288000001E001F00003E00000000001E001F0090
:10289000003E00000000001E001F00003E0000007F
:1028A00000001E001F00003E00000000001E001F70
:1028B00000003E000000000000001F00003E00007D
:1028C00000000000001F00003E00000000000000AB
:1028D0001F00003E000000000000001F00003E003E
:1028E0000000000000001F00003E0000000000008B
:1028F000001F0000FEFFFFFFFFFFFFFF1F0000FEA5
:10290000FFFFFFFFFFFFFF1F0000FEFFFFFFFFFFB6
:10291000FFFF1F0000FEFFFFFFFFFFFFFF1F000084
:10292000FEFFFFFFFFFFFFFF1F0000FEFFFFFFFF97
:10293000FFFFFF1F0000000000000000000000007B
:102940000000000000000000000000000000000087
:102950000000000000000000000000000000000077
:102960000000000000000000000000000000000067
:102970000000000000000000000000000000000057
:102980000000000000000000000000000000000047
:102990000000000000000000000000000000000037
:1029A0000000000000000000000000000000000027
:1029B0000000000000000000000000000000000017
:1029C0000000000000000000000000000000000007
:1029D00000000000000000000000000000000000F7
:1029E00000000000000000000000000000000000E7
:1029F00000000000000000000000000000000000D7
:102A0000000000000000000000C0FF030000000004
:102A100000001E00C0FF07000000000000FE00C014
:102A2000FF07000000600000FF07C0FF0700000074
:102A3000FC0000FF3FC0FF03000080FF0000FFFF1D
:102A400000FE000000C0FF0080DFFF03FE0000006A
:102A5000FCFF00801FFF03FE000080FF7F00800F4F
:102A6000FCFFFF7F00F0FF0F00C00FE0FFFFFF0142
:102A7000FEFF0300C03FE0FFFFFFC3FFFF0300C0F6
:102A8000FFE0FFFFFFFBFFFF0100C0FFF3FFFFFFC1
:102A9000FFFFFE000000FFFFFFFFFFFF0F7F0000B2
:102AA00000F8FF070080FF813F000000C0FF070023
:102AB000003F801F00000000FE07000006C00F005E
:102AC000000000F007000000E00700010000E00740
:102AD000000000F00300010000E007000000F80320
:102AE00080030000E007000000FC0180030000E01C
:102AF00007000000FC0080030000E007000000FE6B
:102B000000C0070000E0070000007F00C0070000D1
:102B1000E0070000803F00C0070000E0FFFFFFFF6C
:102B20001F00C0070000E0FFFFFFFF0F0080030051
:102B300000E0FFFFFFFF070000000000C0FFFFFFF5
:102B4000FF030000000000C0FFFFFFFF03000000C4
:102B50000000000000000000000000000000000075
:102B60000000000000000000000000000000000065
:102B70000000000000000000000000000000000055
:102B80000000000000000000000000000000000045
:102B90000000000000000000000000000000000035
:102BA000000000000000000000F0017C001FC007D2
:102BB000F0010000FC0FFFC3FFF03FFC0F0000FF1F
:102BC000FFFFFFFFFFFFFF3F0000FFFFFFFFFFFFD3
:102BD000FFFF3F0000FFFFFFFFFFFFFFFF3F000081
:102BE000FFFFFFFFFFFFFFFF3F000007F0017C003A
:102BF0001FC00730000000000000000000000000BF
:102C000000000000000000000000000000000000C4
:102C100000000000000000000000000000000000B4
:102C200000000000000000000000000000000000A4
:102C30000000000000000000000000000000000094
:102C40000000000000000000000000000000000084
:102C50000000000000000000000000000000000074
:102C60000000000000000000000000000000000064
:102C700000000000000000000000000000FCFF0059
:102C80000000000000000000FEFF01000000000046
:102C9000001800FEFF016000000000003C001EE084
:102CA00001F000000000007E001EE001F8010000BD
:102CB0000000FC001EE001FC0000000000F8011E06
:102CC000E0017E0000000000F0033EF0013F000044
:102CD000000000E001FEFF011E0000000000C00037
:102CE000FEFF010C000000000000C0FFFF0F00000D
:102CF0000000000000E0FFFF1F00000000000000D7
:102D0000F0FFFF3F00000000000000F81FE07F0020
:102D1000000000000000FC0780FF00000000000031
:102D200000FC0100FE00000000000000FE0000FCAE
:102D3000010000000000007F0003F8030000000015
:102D400000003F8007F0030000000000801FC00F5C
:102D5000E0070000000000801FC00FE00700000037
:102D60000000C00FC00FC00F0000000000C00FC067
:102D70000FC00F0000000000C00F8007C00F000050
:102D80000000FFC1078007800FFE030000FFC1079E
:102D90008007800FFE030000FFC1078007800FFE41
:102DA000030000FFC1070003800FFE030000FFC106
:102DB000070003800FFE03000000C0070003800F20
:102DC0000000000000C00F0003C00F000000000062
:102DD000C00F0003C00F0000000000800F0000C003
:102DE000070000000000801F0000E0070000000056
:102DF00000001F0000E0030000000000003F00038F
:102E0000F0030000000000007E0003F80100000055
:102E1000000000FE0000FC01000000000000FC03B8
:102E200000FF00000000000000F80FC07F0000005D
:102E300000000000F03FF03F00000000000000F044
:102E4000FFFF3F00000000000040C0FFFF0F080030
:102E500000000000E000FFFF031C0000000000F085
:102E600001FEFF013E0000000000F801E01F007EAF
:102E70000000000000FC00000000FC00000000005A
:102E80007E00000000F801000000003E000000008D
:102E9000F001000000001C00000000E00000000045
:102EA00000080080070040000000000000008007CC
:102EB000000000000000000000800700000000008B
:102EC00000000000800700000000000000000080FB
:102ED0000700000000000000000080070000000064
:102EE000000000000080070000000000000000005B
:102EF00080070000000000000000008007000000C4
:102F000000000000000000000000000000000000C1
:102F100000000000000000000000000000000000B1
:102F200000000000000000000000000000000000A1
:102F30000000000000000000000000000000000091
:102F40000000000000000000000000000000000081
:102F50000000000000000000000000000000000071
:102F60000000000000000000000000000000000061
:102F700000000000F0FF000000000000001800FE4C
:102F8000FF078001000000003C80FFFF1FC003001E
:102F90000000007CE0FFFF7FE003000000003EF83F
:102FA000FFFFFFC107000000001FFC1F80FF830F11
:102FB000000000801FFE0300FC871F000000800F40
:102FC000FE0100F8071F000000C0077F0000E00FAF
:102FD0003E000000C0873F000FC01F3E000000E021
:102FE000C31F000F803F7C000000E0C30F000F00F4
:102FF0003F7C000000F0E107000F007EF8000000B9
:10300000F0E103000F007CF8000000F8F003000F6F
:1030100000FCF001000078F001000F00F8E0010072
:103020000078F800000F00F0E101000078F80000DF
:103030000F00F0E101000078F800000F00F0E1015E
:10304000000038F800000F00F0C10100003C7800DB
:10305000000F00E0C10300003C7800000F00E0C159
:103060000300003C7800000F00E0C10300003C7842
:1030700000000F00E0C10300003C7800000F00E0FA
:10308000C10300003C7800000F00E0C10300003CD9
:103090007800000F00E0C10300003CF800000F00C2
:1030A000F0C10300003CF800000F00F0C103000075
:1030B00038F800000F00F0C101000078F800000FA0
:1030C00000F0E101000078F001000000F8E00100EC
:1030D0000078F001000000F8E0010000F0F00300CB
:1030E0000000FCF0000000F0E1070006007EF800A0
:1030F0000000F0E107000F007EF8000000E0C30FC1
:10310000801F003F7C000000E0831F801F801F7C29
:10311000000000C0873F000FC01F3E000000C00736
:103120007F0006E00F3E000000C00FFE0100F80720
:103130003F000000801FFC0700FE831F000000000E
:103140003FF87FE0FFC10F000000003EF0FFFFFFEF
:10315000C007000000007CC0FFFF3FE0030000004C
:10316000003880FFFF1FC001000000001800FCFFB6
:10317000038001000000000000801F00000000002C
:10318000000000000000000000000000000000003F
:10319000000000000000000000000000000000002F
:1031A000000000000000000000000000000000001F
:1031B000000000000000000000000000000000000F
:1031C00000000000000000000000000000000000FF
:1031D00000000000000000000000000000000000EF
:1031E00000000000000000000000000000000000DF
:1031F00000000000000000000000000000000000CF
:1032000000000000000000000000000000000000BE
:103210000000000000000000000000000000001F8F
:10322000000000000000000000803F0000000000DF
:1032300000000000803F000000000000000000804F
:103240003F000000000000000000803F0000000080
:103250000000000000803F000000000000000000AF
:10326000803F00000000000000000080FFFF03001E
:1032700000000000000080FFFF03000000000000CD
:103280000080FFFF030000000000000080FFFF033C
:1032900000000000000000803F000000000000006F
:1032A0000000803F000000000000000000803F00A0
:1032B0000000000000000000803F0000000000004F
:1032C00000000080FFFF030000000000000080FFFE
:1032D000FF030000000000000080FFFF030000006B
:1032E0000000000080FFFF030000000000000080DD
:1032F0003F000000000000000000803F00000000D0
:103300000000000000803F000000000000000000FE
:10331000803F000000000000000000803F0000002F
:1033200000000000000080FFFF030000000000001C
:103330000080FFFF030000000000000080FFFF038B
:103340000000000000000080FFFF030000000000FC
:103350000000803F000000000000000000803F00EF
:103360000000000000000000803F0000000000009E
:10337000000000803F000000000000000000C07F4F
:10338000000000000000E07C00C07F00C0E70000FB
:1033900000FCFF07E0FF00FCFF070000FCFF7FE0F0
:1033A000FFC0FFFF070000FCFFFFE0FFE0FFFF079B
:1033B0000000F88FFFC07FE03FFE0300000000F830
:1033C000C07FE00300000000000000803F0000001C
:1033D000000000000000000E0000000000000000DF
:1033E00000000000000000000000000000000000DD
:1033F00000000000000000000000000000000000CD
:1034000004000000000004000000001E001E000F69
:10341000000F000000003E807FC03F800F000000D2
:1034200000FCE0FFFFFFE00700000000F8FFFFFFE7
:10343000FFFF0300000000F0FFF3FFF9FF010000B1
:103440000000C07FC07FC07F0000000000001F8020
:103450003F001F00000000000000000E0000000000
:10346000000000000000000000000000000000005C
:10347000000000000000000000000000000000004C
:10348000000000000000000000000000000000003C
:10349000000000000000000000000000000000002C
:1034A000000000000000000000000000000000001C
:1034B000000000000000000000000000000000000C
:1034C000000000000000000070700000000000001C
:1034D000000008707080000000000000001C78F000
:1034E000C0010000000000003E3CE0E103000000DD
:1034F0000000003C3CE0E1010000000000007C1EF8
:10350000C0F301000000000000781EC0F3000000BE
:1035100000000000F00F807F00000000000000F0BD
:103520000F807F000000000000F0FF0700FF7F0019
:1035300000000000F8FF0300FEFF0000000000F89C
:10354000FF0300FEFF0000000000F0FF0700FF7F08
:103550000000000000008007000F000000000000D5
:1035600000000F800700000000000000000F80072F
:1035700000000000000000001EC00300000000006A
:103580000003001EC00300060000008003003CE0B2
:1035900001000E0000008007007CF001000F000019
:1035A00000000F0078F0008007000000000F00F816
:1035B000F8008007000000001F00F07800C007003E
:1035C0000000001E00F07D00C003000000003E006F
:1035D000E03F00E003000000003C00E03F00E001AD
:1035E000000000007C00C01F00F001000000F8FF98
:1035F000FFFFFFFFFFFF000000F8FFFFFFFFFFFFDF
:10360000FF000000F8FFFFFFFFFFFFFF000000F8D2
:10361000FFFFFFFFFFFFFF000000007C00E03F0016
:10362000F001000000003E00E03F00E00300000069
:10363000001E00F07D00C003000000001F00F078B5
:1036400000C007000000000F0078F00080070000B5
:1036500000800F0078F000800F0000008007003C21
:10366000E001000F000000C003003EE003001E0068
:1036700000008001001EC003000C000000000000DC
:103680000F800700000000000000000F800700000E
:1036900000000000008007000F0000000000000094
:1036A000C007001F000000000000F8FF0300FEFF3D
:1036B0000000000000F8FF0300FEFF000000000013
:1036C000F8FF0300FEFF000000000000F80700FF05
:1036D00000000000000000F80700FF0000000000EC
:1036E0000000780F80F7000000000000003C0E8012
:1036F000E3010000000000003C1EC0E301000000E8
:103700000000001E3CE0C1030000000000001E3C61
:10371000E0C1030000000000000C78F08001000010
:10372000000000000038E000000000000000000081
:103730001040000000000000000000000000000039
:103740000000000000000000000000000000000079
:103750000000000000000000000000000000000069
:103760000000000000000000000000000000000059
:103770000000000000000000000000000000000049
:103780000000000000000000000000000000000039
:103790000000000000000000000000000000000029
:1037A0000000000000000000E001003C00000000FC
:1037B000000000FC39E0FC01000000000000FE7980
:1037C000F0FC03000000000000FFF9F8FC07000017
:1037D000000000001FF8FDC0070000000000000608
:1037E000F07F000300000000004000C01F00100038
:1037F00000000000E001C01F003C0000000000E0ED
:1038000001800F003C0000000000E0010007003CC8
:103810000000000000F00000000078000000000040
:10382000F000800F007800000000000000800F0012
:103830000000000000000000C01F000000000000A9
:10384000000080FFFF0F00000000000000F8FFFFF5
:10385000FF00000000000000FEFFFFFF030000006B
:103860000000C0FF9FCFFF1F0000000000F0FF809E
:103870000FF87F0000000000F80F000780FF000035
:10388000000000FE03000000FE03000000007F00B7
:10389000000000F007000000C03F00800F00E01FA4
:1038A000000000E00F00800F00803F000000F003E8
:1038B00000800F00007E000000F80100800F000073
:1038C000FC000000FC0000800F0000F80100007CFC
:1038D0000000800F0000F00100007C0000800F005D
:1038E00000F0010000FC0000800F0000F801000063
:1038F000F80100800F0000FC000000F00300000051
:1039000000007E000000E00700000000003F000013
:1039100000C00F00800F00801F000000801F00808B
:103920000F00C00F000000003F00800F00E0070004
:103930000000007E00800F00F00300000000FC008B
:10394000800F00F80100000000F801000000FC00FA
:1039500000000000F0030000007E0000000000E016
:1039600007800F003F0000000000C00FF8FF801F1D
:103970000000000000801FFEFFC30F0000000000D9
:1039800000BFFFFFEF07000000000000FEFFF8FF90
:1039900003000000000000FC0F80FF010000000099
:1039A0000000F80300FE00000000000000F001002D
:1039B0007C00000000000000E00000380000000073
:1039C00000000000000000000000000000000000F7
:1039D00000000000000000000000000000000000E7
:1039E00000000000000000000000000000000000D7
:1039F00000000000000000000000000000000000C7
:103A000000000000000000000000000000000000B6
:103A100000000000000000000000000000000000A6
:103A20000000000000000000000000000000000096
:103A30000000000000000000000000000000000086
:103A40000000000000000000000000000000000076
:103A500000000000C000000000000000000000C0E6
:103A600003000000000000000000C007000000008C
:103A7000000000000080070000000000000000803F
:103A8000800F0000000000000000C0800F00000058
:103A90000000000000C0C00F000000000000000097
:103AA000C0E10F0000000000000000C0F3070000AC
:103AB000000000000000C0FF070000000000000040
:103AC00000C0FF07000000000000000080FF0300AE
:103AD0000000000000000080FF0100000000000066
:103AE000000000FE0100000000000000000CFCE0EF
:103AF00000000000000000001EFCE00100000000CB
:103B00000000003EFCF007000000000000001FFC69
:103B1000E00F000000000000800FFC801F0000008C
:103B2000000000C007FC001F000000000000C003F0
:103B3000FC003E000000000000E001FC007C0000F2
:103B400000000000F001FC00F8000000000000F0A0
:103B500000FC00F00300000000007800FC00E01F03
:103B600000000000803F00FC00C0FF00000000F8E3
:103B70003F00FC0080FF010000FCFF1F00FC000074
:103B8000FE0F0000FFFF1F00FC0000F03F0000FFE1
:103B90007F0000FC0000003F00801F000000FC00D0
:103BA00000007800C003000000FC0000007800C0A6
:103BB00003000000FC0000007000E001F80100FCC0
:103BC00000F0037000E001FE0700FC00FC0F78002D
:103BD000E003FF0F00FC00FE1F7800C083071E00FB
:103BE000FC000F3C3800C087033C00FC0007783C19
:103BF0000080CF013800FC8003701C0080DF01389A
:103C000000FC8003F01F0000FF01F87FFCF003F0D0
:103C10001F0000FE01F87FFCF003F00F0000FC0124
:103C2000F87FFCF003F00F0000C001F87FFCF00308
:103C300070000000C0013C00788003780000008024
:103C4000033C0078000778000000800F1F00300060
:103C50001F3E00000000FF0F000000FE1F000000DC
:103C600000FE03000000FC0700000000F000000060
:103C700000E0010000000000000000000000000063
:103C80000000000000000000000000000000000034
:103C90000000000000000000000000000000000024
:103CA0000000000000000000000000000000000014
:103CB0000000000000000000000000000000000004
:103CC00000000000000000000000000000000000F4
:103CD000000000000000000000002000230026007B
:103CE00029002C002F003200000100000301060112
:103CF0000901050505050705080808080202020272
:103D00000A0A080804040404010101010101010177
:103D10000303030303030303040707070C0C0C0C42
:103D20000C0C0C0C0202020206060606060606062B
:103D30000B0B0B0B0B0B0B0B0102102020080810B8
:103D4000204010204080020102010804020101020B
:103D500004081020408080402010080402018004E4
:103D6000020180402010080402010804020101023F
:103D70000408102040800102040810204080000048
:103D80000A0B02090C0D0E080703040100000000D5
:103D90000000000000000000000000000000000023
:103DA00000000000000000000000121110000000E0
:103DB0000000000000000000000000000000000003
:103DC0000000000000002200250028002B002E002B
:103DD0003100340002010000050108010B0102005E
:103DE0002C122925120D0000000000B500550153CA
:103DF0000155015501000000001201AB02AA02AA00
:103E000002AA02120100000082824242222E000019
:103E10005EBCE2613FDD83C29C7E20A3FD1F419D0D
:103E2000C3217FFCA2401E5F01E3BD3E6082DC2314
:103E30007D9FC1421CFEA0E1BF5D0380DE3C62BEEF
:103E4000E0025CDF81633D7C22C09E1D43A1FF46F2
:103E500018FAA427799BC584DA3866E5BB5907DBD5
:103E6000856739BAE406581947A5FB7826C49A65D0
:103E70003BD987045AB8E6A7F91B45C6987A24F8B7
:103E8000A6441A99C7257B3A6486D85B05E7B98CA6
:103E9000D2306EEDB3510F4E10F2AC2F7193CD11A5
:103EA0004FADF3702ECC92D38D6F31B2EC0E50AF7C
:103EB000F1134DCE90722C6D33D18F0C52B0EE3287
:103EC0006C8ED0530DEFB1F0AE4C1291CF2D73CA62
:103ED000947628ABF517490856B4EA6937D58B575D
:103EE00009EBB536688AD495CB2977F4AA4816E948
:103EF000B7550B88D6346A2B7597C94A14F6A8743F
:103F00002AC896154BA9F7B6E80A54D7896B35BF6E
:103F100000030204040205050B0D00FE09FE09FE64
:103F2000015402C5088E200500EE09210791C389BE
:103F300043122207335B8AC412231195439B52928A
:103F40000C4A29899264504A4902240FA53FAB6C60
:103F5000A92899A8254A658B00250E97431C31AAEC
:103F6000486927252A2A00261095439B2C89922CE4
:103F7000CC92444AA248092706315B89012808B23D
:103F8000BB19A53F052909B2BB8928E917052A07EE
:103F900033578AA4032B0A5547AB301AA430022C9E
:103FA0000622BF19052D0612CF09012E0611C3895D
:103FB000002F0992C3992E4A0B00300A95439B2586
:103FC000F35BB20031089343AB21EA07320B954310
:103FD0009B250B6B1D0701330D95439B250B4B6AEE
:103FE000A8250B00340E9543BBCC9444492919B441
:103FF0003001350D95438B63382459186AC9023650
:104000000D95439B2513C321C96CC902370D9543F8
:104010008B41CCC22CCCC21A00380D95439B25B3E2
:10402000254B664B1600390D95439B25B325431848
:104030006AC9023A0661C389303B0872BF991C52B3
:10404000003C087443BBA8B1013D08354B8B411DB2
:10405000043E0874438BB0A90D3F0C95439B250B80
:104060006BC51C8A004015AABFBD2134C54936491D
:1040700025A9A4294B0EE9D82001411097C2BB38CD
:104080004DC2242B65D1A0A46A00420D95C38B219B
:10409000C96C8392D90605430C96C39B2109D51E92
:1040A000932101440D96438C21CA92D0B7648800B5
:1040B000450B95C38B637148C2E220460B95438B39
:1040C000637148C24600470D96439C2109D5D21022
:1040D000DA9425480B96438CD0711844C7004906E2
:1040E00091C389074A0A94C2BADE242951004B10B1
:1040F00096C38B2C892A99282659544BC2004C0907
:1041000095438BB01F07014D1097C38C54DD866C0F
:10411000A92815299222354E0E96438C70DB9448BF
:1041200089A4443B064F0C96439C2109FD980C0939
:1041300000500C96C38B41098DC392B602510DA657
:104140003F9C21097D4A34658803520C96438C417B
:10415000098DC3123A06530C95C39B2513D335D44E
:104160009205540995C38B410AFB09550A96438C65
:10417000D01F932101561097C28B544DB2288BB299
:104180004A98A4710657149BC28D1CD2A1242B659A
:10419000A5ACA53169CDE22C03580E97C28B544DC6
:1041A000B24A5AC92AA91A590C97C28B544DB24A1D
:1041B0001A77035A0B97C28B439CF67918025B0857
:1041C000B2BB89A5BF085C09A2BF89A453D2015D17
:1041D00008B2BB09A5BF0C5E08355FAB2CA9055F13
:1041E00006163A8B03600622DF8928610B65439B24
:1041F0003519342D1902620C95438BB0382499DBA4
:10420000A000630A65439B25136BC902640B9543A9
:10421000CB9641734B8600650C65439B251B86300E
:104220004B1600660992C3192559BA00670C853BE5
:104230009B41734B86705000680A95438BB0C5A4B0
:10424000B905690791438968186A08B13B896818FC
:10425000046B0D95438BB02929694954C9026C063A
:10426000914389076D0E67438C4589222992222943
:10427000920A6E0965438BC4A4B9056F0A65439B16
:1042800025734B1600700C853B8B21C9DC06250C71
:1042900001710B853B9B41734B86B000720862C372
:1042A00089A50B00730C64C31A254AC2244A140062
:1042B000740982C38924599A02750965438BCC938A
:1042C000A204760C65438B4C4B4A49164600770E88
:1042D00067438C289222A5A2748BB204780B64C326
:1042E0008A484A24259202790F85BA9A2889922809
:1042F00089222D8C34007A0A64C38A218BDA8600E5
:104300007B0BB33FAA246AC9A2B6007C07A13F89F0
:1043100087007D0BB33F8A2C6A4BA296087E072547
:104320005B1B1700A00500EE09A10891BB8964186A
:1043300002A20C853FBB68C9C45A326500B80C950F
:10434000431BA992665B311C04A40C754B8B2C5942
:10435000325BB26401A50E95438BCC965406291AA4
:10436000A43002A608B13B89411904A70FA53F9BC1
:10437000254BB224EA254BB26401A80613DE89243A
:10438000A90E774BACAD12294A2629B56C02AA09B1
:10439000634F0A6919B201AB0A5543ABA4B7244B6A
:1043A00002AC07254B8B410CAD0612D30901AE0DB3
:1043B000774BACAD922C26A55B3601AF0616668B0B
:1043C00003B007335B9A2E00B10C7543AB301AA4CF
:1043D00030070601B20853D2092D290DA80953D27E
:1043E000092DC91600B40622DF1905B50F853B8BD0
:1043F0002889922889922859C410B611A53F9BE1BB
:104400008764889228899228899200B70611D389F7
:1044100000B80622BB9901B90752D399A501BA0980
:10442000634F8A2151866CBB0B55438B244BB2A43E
:104430002700BC1097439C544CB2A8964425254AAB
:10444000B439BD1097439C544CB2A8966C952CC9B6
:10445000E201BE1197430C1DC892AC122951498943
:10446000126D0EBF0C953BAB1C0AB3622D5900C0F8
:104470001097C2BB384DC2242B65D1A0A46A00C1DD
:104480000C95C38B63714832DBA000C20D95C38BC2
:1044900021C96C8392D90605C30895C38B633F027B
:1044A000C40CA83FAD41EBFF1426C339C50B95C31F
:1044B0008B637148C2E220C6129BC28DB092355503
:1044C00093F22027D5A8D61216C70D95C39B250BAE
:1044D0002B6BA8250B00C80E96438C503B254AA495
:1044E00044DB2606C910B6439C289342ED942891DC
:1044F000126D9B18CA1096C38B2C892A99282659AD
:10450000544BC200CB1297C39C610993300993307E
:1045100009933009D500CC1097C38C54DD866CA963
:10452000281529922235CD0B96438CD0711844C79B
:1045300000CE0C96439C2109FD980C0900CF0996EA
:10454000438C43E88F01D00C96C38B41098DC392F5
:10455000B602D10C96C39B2109D51E932101D20925
:1045600095C38B410AFB09D30D97C28B544DB24AB8
:104570001AA7CD00D41397C39C41892229922229DE
:104580009222A932881900D50E97C28B544DB24A97
:104590005AC92AA91AD614A73F8C30099330099317
:1045A000300993300993618803D70A96438CD03140
:1045B00019D40ED81399C38D2CD3322DD3322DD3C9
:1045C000322DD3B2E110D916AABF8DAC9255B24AA2
:1045D00056C92A5925AB6495E1904301DA139842F4
:1045E0008C1DC8811CC881410BA3300AA34101DB8B
:1045F0000F98438DD87998C4444CC4649802DC0C5D
:1046000096C38BB4755042E3B000DD0F96439C21F6
:1046100009D3D290A662322400DE1498438D6848F4
:104620008A4AA88443A8844AA884D29000DF0E96C0
:10463000439C613426839644954C0CE00B65439B68
:104640003519342D1902E10D9543CB640987247384
:104650004B1600E20C65438B21C90625D30605E302
:104660000864C38A41EB06E40B76BF9B21EA2FC3A3
:104670001006E50C65439B251B86304B1600E60CA7
:1046800067438CA8D2B6254D9154E70B65439B2513
:104690008B542D5900E80A65438BCCB4249316E95A
:1046A0000C85439B5A94999664D202EA0C65438B1D
:1046B0002829694954C902EB0D66C39B41C9922C54
:1046C000C9924C0CEC0C773F8C745B2A52A45A03B1
:1046D000ED0A65438B4C1B86CC16EE0A65439B2581
:1046E000734B1600EF0865438B9BB700F00C853BBE
:1046F0008B21C9DC06250C01F10A65439B25136B50
:10470000C902F20965438B410A3B01F30F85BA9A4E
:104710002889922889222D8C3400F40F953BAB6CAC
:10472000A928899228952D8C00F50B64C38A484AE4
:1047300024259202F60F76BF8B2CC9922CC9922C9D
:1047400019D600F70A65438BCC960C6101F80F6708
:10475000438C289222299222291A0601F91178BF46
:104760008CA81255A24A54892AC3A00301FA0B65EA
:10477000430B319C2A51B200FB0D66C38B501C22A7
:10478000299192210AFC0B64C38A2C5B22694800A0
:10479000FD0A64C38A71D0B22101FE0D66C38B4845
:1047A000290D9112299105FF0B64C39A2192922140
:1047B000920200000000498111241FBECFEFD1E218
:1047C000DEBFCDBF00E00CBF16E0A0E0B2E0E8E342
:1047D000F7E201E00BBF02C007900D92A637B107C8
:1047E000D9F721E1A6E7B6E001C01D92A93BB207C7
:1047F000E1F713E2CCEDD3E200E006C02197010916
:10480000802FFE010E94B78FCB3DD10780E00807C3
:10481000A9F70E9445680C949A930C9400002F927B
:104820003F924F925F926F927F928F929F92AF9240
:10483000BF92CF92DF92EF92FF920F931F93CF938D
:10484000DF93CDB7DEB7C75ED1090FB6F894DEBFF0
:104850000FBECDBF5C01DC0112968D919C91139728
:1048600004960E94D846FE01EF57FF4FC552DF4F16
:10487000F983E883CB5DD040CE018B529F4FC3526A
:10488000DF4F99838883CD5DD04080917C068D3049
:1048900009F49DC798F4843011F40C94412F38F436
:1048A000813009F476C1823009F4F4C71EC08B3020
:1048B00009F402C38C3009F419C517C0833611F40A
:1048C0000C94DB3148F4853111F40C94BB2D863106
:1048D00011F40C948F2E09C0853611F40C94FE301F
:1048E00020F08957843008F462C5D50157961C9290
:1048F00057976091280D7091290D12968D919C917A
:104900001397E6E7CE2EE9E4DE2EFC01D782C682BD
:1049100004960E944544F82E6091280D7091290D4F
:10492000D50112968D919C911397FC01D782C68276
:1049300004960E944544182F6091280D7091290D0E
:10494000D50112968D919C911397FC01D782C68256
:1049500004960E944544082FD5015C968C918430C2
:1049600058F5813098F581E0D50155968C9355978F
:1049700054961C92549712968D919C9113970E9475
:10498000F037D5011E96ED91FC911F970280F381BF
:10499000E02D12865296ED91FC915397128683E298
:1049A000868B20E130E040E050E060EF7AE08BE081
:1049B0000E94E4560C94F731883008F45AC08830CD
:1049C00009F4AAC0F501148E0C94F731D501ED91CC
:1049D000FC9136978081918162E08A0D9B1D0E9437
:1049E000A33D9C0141E06CE6F501828193810E9428
:1049F0002C38D50112968D919C911397FC01EE5B9A
:104A0000FF4F40816CE004960E942F62F501648D97
:104A1000862F880F880F680F645F828193810496C8
:104A20000E94FF612091280D3091290DF69458E7DE
:104A3000E52E6E2D6F194FE0D50112968D919C9148
:104A400013970E942C382091260D3091270D169532
:104A50006E2D611B4EE1F501828193810E942C38FD
:104A600020912A0D30912B0D06956E2D601B4DE285
:104A70004DC0F501828193816DE104960E94FF6132
:104A80002091280D3091290DF69448E7E42E6E2DE3
:104A90006F194FE0D50112968D919C9113970E944A
:104AA0002C3816952091260D3091270D6E2D611B07
:104AB0004EE1F501828193810E942C3820912A0DCC
:104AC00030912B0D06956E2D601B4DE2D50112968F
:104AD0008D919C9113970E942C3880912E0D90916E
:104AE0002F0D892B11F40C94F73160E9610F23EB42
:104AF00034E04EE1F501828193810E942C382091AF
:104B00002E0D30912F0D60EA610F4EE1D501129606
:104B10008D919C911397BBC6D5015296ED91FC9156
:104B20005397FF24F394F28617861E960D911C91DD
:104B30001F978091D40981110CC0F8018081918167
:104B4000DC01ED91FC910680F781E02D1995F09242
:104B5000D4098091D40980937C06D8011296ED91F6
:104B6000FC91139711E01287F501828193810496DD
:104B70000E949846D50112968D919C9113970E94A0
:104B8000F037F501148E138E168B148A158A0C9447
:104B9000F731D501ED91FC913697808191816BE0E1
:104BA0008A0D9B1D0E94A33DBC01C5010E94D93CFA
:104BB000F5018281938119E2E12E15E0F12E02E1E7
:104BC00022E147E260E004960E94ED46D50112968C
:104BD0008D919C9113970BE0E02E05E0F02E0AE0FA
:104BE00022E149E264E104960E94ED46F5018281EA
:104BF000938125E6E22E26E0F22E08E024E049E249
:104C000065E504960E94ED46D50112968D919C9122
:104C100013973DEEE32E34E0F32E0AE022E144E365
:104C200064E104960E94ED46D501ED91FC91119747
:104C30003697408151814A0D5B1D4B575F4F169649
:104C4000ED91FC911797EC56FF4F60817181828145
:104C500093810E94C43AD501ED91FC91119736974A
:104C6000208131812A0D3B1D2B573F4F47E26DE2DA
:104C700012968D919C9113970E942C38D50116960F
:104C8000ED91FC911797E856FF4FC080D180E280EC
:104C9000F38020E030E046EC52ECC701B6010E9400
:104CA000898C87FF0AC026EB34E042E36DE2F50110
:104CB000828193810E942C382FC0D501ED91FC9107
:104CC0003697408151814A0D5B1D4B575F4FC7019D
:104CD000B6010E94C43AD501ED91FC911197369727
:104CE000208131812A0D3B1D2B573F4F42E36DE25E
:104CF00012968D919C9113970E942C38F501828118
:104D00009381B5E6EB2EB6E0FB2E08E024E044E309
:104D100065E504960E94ED46D50112968D919C9111
:104D20001397F7EAEF2EF5E0FF2E02E122E140E1D2
:104D300064E004960E94ED46F501808591850E940D
:104D40005439D501ED91FC913697408151814A0D3E
:104D50005B1D4B575F4F0E94C43AD501ED91FC910A
:104D600011973697208131812A0D3B1D2B573F4FDC
:104D700040E16EE112968D919C9113970E942C3820
:104D8000F50182819381AFE5EA2EA5E0FA2E08E0D5
:104D900024E042E161E404960E94ED46D5011696B6
:104DA000ED91FC911797E05BFF4F208112968D915A
:104DB0009C911397211105C0E7E6EE2EE5E0FE2E4B
:104DC00004C077E8E72E75E0F72E00E120E140E12E
:104DD00061E604960E94ED46F501E084F184C70186
:104DE0000E945439D501ED91FC91369700811181D3
:104DF0000A0D1B1D0B571F4F20E030E048EC52E41A
:104E00000E94EE8C2B013C01F701E05CFF4F01900A
:104E1000F081E02DE452FF4F2081318142815381A6
:104E2000F70160857185828593850E94198E9B01AB
:104E3000AC01C301B2010E947D8EA8010E94C43A58
:104E4000D5011696ED91FC911797E452FF4F20E0A3
:104E500030E040E85FE360817181828193810E944C
:104E6000898CF5010281138187FD02C00C941C32EC
:104E7000A085B185FD01E05CFF4F0190F081E02D40
:104E8000E452FF4F18962D913D914D915C911B97E7
:104E900060817181828193810E94198E20E030E0CF
:104EA00040E85FE30E94898C87FD02C00C941C32AD
:104EB0002AEE35E00C942632D501ED91FC9136971F
:104EC0008081918160E18A0D9B1D0E94A33DBC0100
:104ED000C5010E94D93C25EC34E040E168E0F501D1
:104EE000828193810E942C38D5011696ED91FC9118
:104EF0001797E25AFF4F81818F9380818F938AECBD
:104F000094E09F938F93ED91FC91369780819181EE
:104F10008A0D9B1D8B579F4F9F938F930E94D1901B
:104F2000D501ED91FC9111973697208131812A0DA1
:104F30003B1D2B573F4F40E163E212968D919C91B0
:104F400013970E942C382FEC34E04BE168E0F50118
:104F5000828193810E942C38D5011696ED91FC91A7
:104F60001797E05AFF4F81818F9380818F9384ED53
:104F700094E09F938F93ED91FC913697808191817E
:104F80008A0D9B1D87579F4F9F938F930E94D190AF
:104F9000D501ED91FC9111973697208131812A0D31
:104FA0003B1D27573F4F4BE163E212968D919C9139
:104FB00013970E942C3829ED34E047E268E0F501B0
:104FC000828193810E942C38D5011696ED91FC9137
:104FD0001797E459FF4F83818F9382818F9381814B
:104FE0008F9380818F9380EC94E09F938F93ED91CA
:104FF000FC913697808191818A0D9B1D8E579F4F22
:105000009F938F930E94D190D501ED91FC911197C0
:105010003697208131812A0D3B1D2E573F4F47E2A5
:1050200063E212968D919C9113970E942C382EED7D
:1050300034E042E368E0F501828193810E942C38DC
:10504000F501A085B18580819181FC0136970081B1
:1050500011810A0D1B1D0B571F4FFD01E05CFF4F17
:105060000190F081E02DE452FF4F18962D913D9173
:105070004D915C911B9760817181828193810E9427
:10508000198EA8010E94C43AD501ED91FC911197A7
:105090003697208131812A0D3B1D2B573F4F42E32C
:1050A00063E212968D919C9113970E942C3842E3F3
:1050B00065E5F501828193810E941D6623EE34E04F
:1050C00040E16AE9D50112968D919C9113970E9457
:1050D0002C38D5011696ED91FC911797DF01A25A55
:1050E000BF4F0FB6F894DEBF0FBECDBF8D919C9120
:1050F000892B61F5E852FF4F83818F9382818F93D3
:1051000081818F9380818F9388EE94E09F938F931A
:10511000C452DF4F9881CC5DD0409F93C552DF4F82
:10512000A881CB5DD040AF930E94D1909E012F57B4
:105130003F4F40E163ECF501828193810E942C385E
:105140000FB6F894DEBF0FBECDBF0BC02CEE34E01F
:1051500040E163ECD50112968D919C9113970E94CA
:105160002C382EEE34E04BE16AE9F501828193811F
:105170000E942C38D5011696ED91FC911797E55AAF
:10518000FF4F80811F928F938AEC94E09F938F93BF
:10519000ED91FC913697808191818A0D9B1D8B57F3
:1051A0009F4F9F938F930E94D190D501ED91FC91D9
:1051B00011973697208131812A0D3B1D2B573F4F88
:1051C0004BE163EC12968D919C9113970E942C38C1
:1051D000F50182819381B5E6EB2EB6E0FB2E08E067
:1051E00024E04DE166EE04960E94ED4623EF34E0A4
:1051F00047E26AE9D50112968D919C9113970E941E
:105200002C38F501868197810E9497391F928F93E0
:1052100080EC94E09F938F93D501ED91FC913697AC
:10522000808191818A0D9B1D8E579F4F9F938F93F5
:105230000E94D190D501ED91FC9111973697208174
:1052400031812A0D3B1D2E573F4F47E263EC1296EA
:105250008D919C9113970E942C3828EF34E042E303
:105260006AE9F501828193810E942C38D501189654
:10527000ED91FC91199720E030E048EC52E4648510
:105280007585868597850E94EE8C0E94E58E7F93BA
:105290006F938DEF94E09F938F93D501ED91FC91E7
:1052A0003697808191818A0D9B1D82579F4F9F93D6
:1052B0008F930E94D190D501ED91FC911197369773
:1052C000208131812A0D3B1D22573F4F42E36EEB77
:1052D00012968D919C9113970E942C3842E366EEB2
:1052E000F501828193810E941D6613C5D501ED9160
:1052F000FC9136978081918161E18A0D9B1D0E940E
:10530000A33DBC01C5010E94D93CD5011296ED9187
:10531000FC911397EA58FF4F81E399E491838083CE
:1053200012968D919C911397FC01E858FF4F28E04D
:10533000208331968BE180835B962C915B978D91D6
:105340009C91223030F4FC0136978081918168E194
:105350001CC03DEF320F333080F4FC013697808162
:10536000918169E18A0D9B1D0E94A33DBC01D5017D
:1053700012968D919C91139710C02750233078F48A
:10538000FC013697808191816AE18A0D9B1D0E9404
:10539000A33DBC01F501828193810E940E55D50188
:1053A000ED91FC9136978081918160E252C26091CB
:1053B0007C066E55D501ED91FC91369780819181E7
:1053C0008A0D9B1D0E94A33DBC01C5010E94D93CD2
:1053D000F5010289138981E0D8011F968C93809191
:1053E0007C068A37D9F118F4893741F0B8C08B3779
:1053F00009F452C08C3709F47EC0B1C0F501E680D3
:10540000F780D7015A964D905D906D907C905D9796
:1054100020E030E0A901C301B2010E94168F1816E6
:105420003CF0ADEC4A2EACEC5A2E652CAFE37A2E54
:10543000F701E25AFF4F6081718180E090E00E94A5
:105440008D8CCD51DF4F688379838A839B83C35EC4
:10545000D0408DEC9CECACECBFE378C0E680F780EC
:10546000F701468C578C60A071A020E030E0A901C4
:10547000C301B2010E94168F181634F0412C512C32
:10548000F6E96F2EF2E47F2EF701E05AFF4F6081BC
:10549000718180E090E04CC0E680F780F70142A087
:1054A00053A064A075A020E030E0A901C301B201BF
:1054B0000E94168F18163CF0412CE0EA5E2EE0EFB9
:1054C0006E2EE6E47E2EF701E452FF4F608171817B
:1054D000828193810E94EA8E0E948D8CCD51DF4F94
:1054E000688379838A839B83C35ED04080E090EA9F
:1054F000A0EFB6E42BC0E680F780F70146A057A0E6
:1055000060A471A420E030E0A901C301B2010E94AF
:10551000168F181634F0412C512C76E9672E72E460
:10552000772EF701E459FF4F608171818281938169
:105530000E948D8CCD51DF4F688379838A839B8352
:10554000C35ED04080E090E0A6E9B2E4C152DF4FF4
:1055500088839983AA83BB83CF5DD04013C0CD518C
:10556000DF4F188219821A821B82C35ED040412C01
:10557000512C3201C152DF4F488259826A827B82AC
:10558000CF5DD040D5015B968C915B97823090F4D3
:1055900056968C915697882369F0F80140A251A243
:1055A00062A273A28AE0868B81E055968C93559710
:1055B00054961C92D5015296ED91FC915397C0A040
:1055C000D1A0E2A0F3A0ED91FC91369740815181EA
:1055D0004A0D5B1D4B565F4FC701B6010E94C43A8E
:1055E000D501ED91FC9136978081918162E18A0D20
:1055F0009B1D0E94A33D9C0140E16EE1F50182816B
:1056000093810E942C38D501ED91FC91119736972A
:10561000208131812A0D3B1D2B563F4F40E16AE925
:1056200012968D919C9113970E942C38D501529619
:10563000ED91FC9153978285811106C05B968C9108
:10564000837011F40C94E233D5015296ED91FC91E4
:105650005397828581113CC0A3019201C701B60115
:105660000E94898C81110C941C3432C08B3710F04D
:105670000C942E34893769F42AE037ED43E25CE379
:10568000C701B6010E94EE8CF801608F718F828F86
:10569000938F80E4F801DE01119601900D928A95B6
:1056A000E1F7F5012681378180E4FE013196DE01C4
:1056B000AF5BBF4F01900D928A95E1F780E4FE0148
:1056C000EF5BFF4FD901129601900D928A95E1F799
:1056D000D501ED91FC913697408151814A0D5B1DBA
:1056E0004B565F4FC152DF4F688179818A819B8120
:1056F000CF5DD0400E94C43AD501ED91FC91369720
:105700008081918163E18A0D9B1D0E94A33D9C01D4
:1057100047E26EE1F501828193810E942C38D50128
:10572000ED91FC9111973697208131812A0D3B1D17
:105730002B563F4F47E26AE912968D919C91139741
:105740000E942C38CD51DF4F688179818A819B81FD
:10575000C35ED0400E94EA8E7F936F9384ED94E005
:105760009F938F93D501ED91FC9136978081918124
:105770008A0D9B1D8B569F4F9F938F930E94D190B4
:10578000D501ED91FC913697808191816FE18A0D71
:105790009B1D0E94A33D9C0142E36EE1F5018281C5
:1057A00093810E942C38D501ED91FC911197369789
:1057B000208131812A0D3B1D2B563F4F42E36AE980
:1057C00012968D919C9113970E942C3853C3D5014A
:1057D000ED91FC913697808191816FE08A0D9B1D40
:1057E0000E94A33DBC01C5010E94D93CD501ED91A9
:1057F000FC9136978081918164E18A0D9B1D0E9406
:10580000A33D9C0140E168E0F501828193810E9403
:105810002C38D501ED91FC9136978081918165E11D
:105820008A0D9B1D0E94A33D9C014BE168E0F501A0
:10583000828193810E942C38D5015B962C915B97D5
:105840008D919C91FC01369780819181253048F49F
:1058500066E18A0D9B1D0E94A33D9C0142E368E026
:1058600013C067E18A0D9B1D0E94A33D9C0142E38A
:1058700068E0D50112968D919C9113970E942C3867
:1058800022E035E042E367EDF501828193810E94D9
:105890002C38ADC5D501ED91FC9136978081918171
:1058A0006CE08A0D9B1D0E94A33DBC01C5010E94B6
:1058B000D93CCE018F579F4F0E94B03ACF57DF4F50
:1058C000188219821A821B82C158D040CB57DF4FF1
:1058D000188219821A821B82C558D04088E0FE01C6
:1058E000EF57FF4FDE01AB56BF4F01900D928A95E7
:1058F000E1F788E0FE01EB56FF4FDE01A356BF4FF4
:1059000001900D928A95E1F730E1C32EC356DF4F27
:10591000E880CD59D040C256DF4FF880CE59D040F4
:10592000C156DF4F0881CF59D040C056DF4F188194
:10593000C05AD040CF55DF4F2881C15AD040CE55F4
:10594000DF4F3881C25AD040CD55DF4F4881C35A0E
:10595000D040CC55DF4F5881C45AD04067E075E045
:10596000C5010E947766D5011896ED91FC911997B3
:1059700088E0B896DE01A354BF4F01900D928A953E
:10598000E1F788E0FE01E354FF4FDE01AB55BF4F66
:1059900001900D928A95E1F74BE1C42ECB55DF4F74
:1059A000E880C55AD040CA55DF4FF880C65AD0406B
:1059B000C955DF4F0881C75AD040C855DF4F1881FD
:1059C000C85AD040C755DF4F2881C95AD040C65564
:1059D000DF4F3881CA5AD040C555DF4F4881CB5A76
:1059E000D040C455DF4F5881CC5AD0406DE075E0AF
:1059F000C5010E947766D5011896ED91FC91199723
:105A000088E0F096DE01AB53BF4F01900D928A956E
:105A1000E1F788E0FE01EB53FF4FDE01A355BF4FD6
:105A200001900D928A95E1F757E2C52EC355DF4FDD
:105A3000E880CD5AD040C255DF4FF880CE5AD040D2
:105A4000C155DF4F0881CF5AD040C055DF4F188174
:105A5000C05BD040CF54DF4F2881C15BD040CE54D3
:105A6000DF4F3881C25BD040CD54DF4F4881C35BEC
:105A7000D040CC54DF4F5881C45BD04063E175E027
:105A8000C5010E947766D5011896ED91FC91199792
:105A900088E0F896DE01A353BF4F01900D928A95DE
:105AA000E1F788E0FE01E353FF4FDE01AB54BF4F47
:105AB00001900D928A95E1F762E3C62ECB54DF4F39
:105AC000E880C55BD040CA54DF4FF880C65BD04049
:105AD000C954DF4F0881C75BD040C854DF4F1881DD
