:100000000C94A33E0C94C1630C9496630C946B63A4
:100010000C9440630C9415630C94EA620C94BF62D8
:100020000C9494620C941F620C94B0610C943A612D
:100030000C94D43E0C942F8A0C94D43E0C94D43E51
:100040000C94D43E0C94D43E0C94D43E0C94D43EE8
:100050000C94D43E0C94D43E0C94D43E0C94D160B9
:100060000C94D43E0C94C38F0C949A8F0C94D43E71
:100070000C94D43E0C94D43E0C94D43E0C94D43EB8
:100080000C94D43E0C94D43E0C94D43E0C94D43EA8
:100090000C94D43E0C94D43E0C94D43E0C94FC9618
:1000A0000C94D43E0C94D43E0C94D43E0C94D43E88
:1000B0000C94D43E0C94D43E0C94D43E0C94D43E78
:1000C0000C94D43E0C94D43E0C94D43E0C94D43E68
:1000D0000C94D43E0C94D43E0C94D43E0C94D43E58
:1000E0000C94D43ECEA5DCA5EBA513A62DA641A667
:1000F00058A669A679A68FA643A146A135A139A124
:100100003FA17DA14AA14EA154A158A15CA162A129
:1001100066A16AA17DA170A174A178A141A246A2A5
:100120004BA255A25FA2D8A269A271A279A283A212
:100130008DA297A2A6A2B0A2D8A2BAA2C4A2CEA211
:1001400008000000BE922449123EABAAAA2ABECDE6
:10015000CCCC4C3E00000080BEABAAAAAA3E000058
:100160000000BF000000803F000000000008417850
:10017000D3BB4387D1133D190E3CC3BD4282AD2B87
:100180003E68EC8276BED98FE1A93E4C80EFFFBE7F
:1001900001C4FF7F3F00000000004E414E494E4920
:1001A0005459494E46CDCCCC3D0AD7233C17B7D144
:1001B0003877CC2B329595E6241FB14F0A000020EA
:1001C000410000C84200401C4620BCBE4CCA1B0E69
:1001D0005AAEC59D7400407A10F35A00A0724E18B2
:1001E000090010A5D4E80000E87648170000E40BE9
:1001F00054020000CA9A3B000000E1F505000080AF
:10020000969800000040420F000000A08601000008
:1002100000102700000000E8030000000064000058
:100220000000000A00000000000100000000002C97
:1002300076D888DC674F0823DFC1DFAE59E1B1B75C
:1002400096E5E3E453C63AE651997696E8E6C28429
:1002500026EB898C9B62ED407C6FFCEFBC9C9F4041
:10026000F2BAA56FA5F490055A2AF75C936B6CF966
:10027000676DC11BFCE0E40D47FEF520E6B500D03C
:10028000ED902E0300943577050080841E08000051
:10029000204E0A000000C80C333333330F986E121F
:1002A000831141EF8D2114893BE65516CFFEE6DB25
:1002B00018D1844B381BF77C1D901DA4BBE424206F
:1002C0003284725E228100C9F124ECA1E53D273021
:1002D000302E30002D2D2E2D00001F0000000000BC
:1002E000FF0000000000FF0000000000FE00000012
:1002F0000000F80000000000F00100000000E00134
:1003000000000000E00100000000E001000000002B
:10031000E00100000000E00100000000E00100003A
:100320000000E00300000000C00300000000C00364
:1003300000000000C00300030000C003C003000071
:10034000C00FF0030000C03FFC030000C0FFFF032C
:10035000000080FFFF03000080FFFF01000080E736
:10036000E70100008087E10100008007E001000054
:100370008007E0010000800FE0010000000FF001A5
:100380000000000FF0000000000FF0000000000F60
:10039000F0000000C00FF0000000C00FF0000000EF
:1003A000C01FF8000000C07FFE00000080FF7F003B
:1003B000000000FE3F00000000F80F00000000C039
:1003C0000300000000000000003CEFF939B3076CA7
:1003D0006F6B6DB3076C63636CB7013C67636CB79D
:1003E000036CE7616CBF036C63636CBB016C6F6390
:1003F0006CBB073C6F6338B3074B4D48200052502D
:100400004D200045435520004453542000256C7571
:10041000004F444F2000454E4720002530316400F6
:100420004752532000253034640057524B20002F90
:1004300000424C42200050454320002F005D005BED
:10044000004552524F523A2043616E6E6F742066DF
:10045000696E6420637572736F7220666F722064B8
:10046000656C6574696E67202E2E2E2E2000444523
:100470004C45544520747269702043200044454C1B
:1004800045544520747269702042200044454C4513
:1004900054452074726970204120003E004552523C
:1004A0004F523A205472697020637572736F7220D4
:1004B0006F7574206F662072616E6765202E2E2E18
:1004C0002E20004E4F544943453A20536B6970200B
:1004D00064656C6574696E67202E2E2E20004E4F69
:1004E000544943453A2044656C65746520747269CB
:1004F000702E2E2E2E200054333A20200054323AF3
:1005000020200054313A20200054303A2020004E60
:10051000003E003E003E003E00562000342920539D
:10052000746F70207468652063617220746F20732B
:1005300065652074686520726573756C74732E2010
:10054000003329204D6561737572656D656E747336
:1005500020666F722031307365632077696C6C2080
:100560006265206D6164652E20003229205072651D
:100570007373203E5320746F207374617274206D06
:100580006561737572656D656E74732E0031292017
:1005900052756E20746865206361722061742073E7
:1005A00074656164792073706565642E0050756CA4
:1005B0006C6F76657220616E6420686F6C64206277
:1005C0007265616B20746F20736565207265737549
:1005D0006C747300444F4E45210046554C4C2053DB
:1005E000504F4F4C212121202020466C6F6F7220EC
:1005F0006974210048503A200053687574646F771D
:100600006E2061637469766500A700030205040229
:100610000406130FFEFD08FD09FE016902E609EC60
:10062000200500CC11210701C7118322220763EEA8
:10063000128925231349B59453162552E52455B242
:10064000286718A4E100241249B5B44B162592B6C8
:10065000295225DB590669382510074534521249BD
:1006600091366F5224259102260D05C7335225CDB0
:10067000A24D4B1600270661EE1103280B6335527D
:10068000499444DDA22C290C6337125994455DA28C
:1006900024022A0BA5645395CA944449022B0AA547
:1006A0004C5361344861042C0782B43115052D0682
:1006B000235412032E0641C611022F0B443D72A58E
:1006C000AC9495B20C300A05C7334BE65BB20031EF
:1006D0000903C753C912F500320B05C7334B16D6B1
:1006E000DA0601330D05C7334B16466AA8250B0001
:1006F000340E06C593A19664495419C63401350FCA
:1007000006C53383920E5196A662322400360B053D
:10071000C7738D4B664B1600370C06C713C7344C96
:10072000C3340C01380D05C7334BA6254B664B1659
:1007300000390B05C7334B664BC6AC063A07C1C63A
:100740001192003B0902B531D52451003C09A44E59
:100750007389128A013D086456134338043E0AA483
:100760004E13A1982819003F0D05C5324B1626538C
:100770000E85190040150CC5763910A62D599A48DA
:1007800049CBA224A634090709410F074574691211
:100790002661929506255503420D05C713439269BC
:1007A0008392D90605430B06475453A63667D102F8
:1007B000440D064714439425A1B7648800450B05F2
:1007C0004713C77048C2E220460B054713C770485D
:1007D000C24600470D06475453A6968630C9A20567
:1007E000480A07C714A975B8BA06490701C711070F
:1007F000014A0904C5727D1B12004B1007471461A2
:10080000124949A8266194654A1A4C0906C713691A
:100810005F87014D1107473559944559D2A2549429
:100820008A1449054E0F07C714E9A8645224455A93
:1008300022AE014F0C07C7545B25754DB26C0250B8
:100840000C05C7134392D906252C02510E47B75405
:100850005B25754DB26C4C0705521006C7134394C7
:100860002559922543D4968401530B0447334A24D7
:1008700016A54401540A07C513872CEE1B00550B1F
:1008800007C714A9AF49964D005610074514A99AF9
:1008900064515609933049330057140BC51561282C
:1008A00056A2246A89B2A43169CDE22C03580E07FE
:1008B0004514699255D2384DB24A1A590D0745145C
:1008C00069924559258DDB005A0B074534C3DA9CE4
:1008D0005687215B09433F1243D44F035C0B443DD1
:1008E00012599815B362165D09433D12533F0D012D
:1008F0005E09A3DE32519258025F06263413076068
:10090000074276125100610AC5C63383E6960C0190
:10091000620C25C71361714832B74101630AC446AE
:10092000334AA4951205640B25C7932D83E6960CD4
:1009300001650CC446334A342459942800660B24BC
:1009400045524A160D49D609670D25AF3383E69601
:100950000CA1962C00680A25C713618B49730B699B
:100960000701C711C9306A0963AB5169D4A7056B88
:100970000D25471361D312694954C9026C0621C77A
:10098000110F6D0EC9441589A448B64CCBB44C2B3D
:100990006E09C5C6138949730B6F0AC5C6334BE68A
:1009A000962C00700C25AF134392B90D4A58047170
:1009B0000B25AF3383E6960C61037209C34612C957
:1009C0001235017308C3C632B76801740B0445328F
:1009D0005934245963027509C5C613992745097608
:1009E0000CC54413999694922C8C00770EC9C414AC
:1009F00059A6553A256DC52C02780BC5441359529A
:100A00000BB3A416790E262D13A116B584621AA66F
:100A100021007A09C64413C78EC3007B0B6337528B
:100A200049D492456D017C06812D111F7D0C6335E3
:100A30001259D496442D11007E0746DC339205A04E
:100A40000500CC11A124913D197FA788C3AA0E618E
:100A5000A224C325517A59942169B1244A8B25597E
:100A60001771189444A70C3FA229913D197FA748FC
:100A70003AA80C0F893224D2902843920C8B32680A
:100A800083A20C4B3224CA102943A20C0F894E19A1
:100A90007EA324913D197FA788430E2892AA28C9D6
:100AA000B04C4A320D99342C52A20D439668C3AC17
:100AB0005374CAF003A424913D197FA748EBA40CFA
:100AC0000F89321C124B366889321C12CBF09028E9
:100AD000C343A20C0F894E197EA52590BD18FF3C7B
:100AE0005C8665189269199669199669199661501C
:100AF00086655A86655A86211996E13CFC01A60F47
:100B0000274D948BA42815D51865432802A70F27D5
:100B10004D9449625216D51865432802A8186BC730
:100B20001661256B8DE76408934851D22C0DA34ABA
:100B3000A6683918A91C6BC7365112255A26B52646
:100B4000B54A966C4B9664956A54D232254AA204F3
:100B5000AA166BC71661256B8D7760D09441D106BC
:100B60001D98D3AC252CAB164AC5F5C0966D3A52EC
:100B70001193444C7220CBB668C8011DAC164AC50F
:100B8000F5409AA53A521193444C72205BB661C865
:100B9000011DAD164AC5F5C0966D3A52D992644B07
:100BA00072205BB661C8011DAE0AC4643292259200
:100BB0001205AF0FCADC159294F47F91925EA424C3
:100BC00011B00B0647346112465ADA2CB10CE54CD1
:100BD00053613448610E0C02B2164D4D373B96A35B
:100BE0009A9C2962665607454D358B4D5401B318C2
:100BF0004D4DF7900E26B1A42A4A49535AD554199F
:100C0000124D47DC0151B4074276320A00B50B257C
:100C1000AF1399A741118B00B61C8B3D564935AADD
:100C200066396918B2E1900C976418A26850C49DA7
:100C3000341C1200B7184D4DF7900E26B1A42A4A65
:100C400049535AD55419124D47DC0151B807632C4A
:100C500032D202B907A2DE324B03BA0A84E4324A26
:100C600024250A00BB0DA6461351166551122551C5
:100C700004BC12294515EAA02DB7415615694896BE
:100C8000DA300ABD0F4945D5F290EAC0100EE1FAFC
:100C9000AC03BE1309C5146329D3D2A4B224625293
:100CA0004C86284C00BF1B0F4598C39003399025F4
:100CB000399424C343548DA2E1211A1E221D5200EF
:100CC000C0126745543990C3691226619295062572
:100CD0005503C111674594690EA749988449561A6E
:100CE00094540DC21267457462948369122661920E
:100CF0009506255503C3126745744996E468254C4B
:100D0000C2242B0D4AAA06C411474554498E56C227
:100D1000244CB2D2A0A46A00C5138745746992E638
:100D2000709A84499864A54149D500C6110BC5D570
:100D300083AA2375201AB2F2A086D541C70E662F6A
:100D40005453A63667D118671200C80E6547336939
:100D50000E1CC321098B8300C90D65477375E0180C
:100D60000E49581C04CA0E654753527518C3210911
:100D70008B8300CB0D454733E5610C87242C0E0295
:100D8000CC0962C5115196F403CD0962C7315AD21C
:100D90002F00CE0A64C5314A9466FD04CF0A43C5CC
:100DA000114918F50B00D01107453443560A07299D
:100DB000099330C9A22102D11367C7744996E45040
:100DC0003A2A9914499196886B00D20F67C7543913
:100DD00090A35B25754DB26C02D30E67C794698EE4
:100DE0006E95D435C9B209D40F67C7746294635B3A
:100DF00025754DB26C02D51067C7744996E4E0566C
:100E0000495D932C9B00D60E47C754490E6E95D46E
:100E100035C9B209D7076356134907D81207C75413
:100E20004B2DC912299222254BB2249900D90E6765
:100E3000C754399063A9AF49964D00DA0D67C7943E
:100E4000698EA5BE26593601DB0E67C774629423EE
:100E5000A9AF49964D00DC0D47C754490EA5BE26E3
:100E6000593601DD0F674594698EA549166595349D
:100E70006E03DE0D05C7136138249936286108DF3B
:100E80000E25C73352254AA22451321705E00C25FE
:100E9000C733698E0C9A5B3204E10B25C773756406
:100EA000D0DC9221E20B25C7535279D0DC9221E3AA
:100EB0000C25C753493B30686EC910E40B05C73396
:100EC0007560D0DC9221E50E45C7535992E5C8A064
:100ED000B9254300E60FC9C635C3906499166D5312
:100EE00056B900E70D242F334AA49512294C24004B
:100EF000E80D24473361AC444392458902E90D244F
:100F0000477351AC444392458902EA0E2447334A61
:100F1000942AD1906451A200EB0D04473355251A51
:100F2000922C4A1400EC0922C5115196F400ED09E7
:100F300022C7315AD20B00EE0A24C5314A94663DCD
:100F400001EF0903C5114918F502F00D25C75349F2
:100F5000A42683E6962C00F10B25C753497362D271
:100F6000DC02F20C25C733698E2C995BB200F30BBF
:100F700025C7737564C9DC9205F40B25C7535279F4
:100F8000C9DC9205F50C25C753493BB0646EC90214
:100F9000F60B05C7337560C9DC9205F70AA54C53FB
:100FA0003930E84004F80DC5C63383B4244A320D05
:100FB0000A00F90B25C733690E649E1425FA0B2528
:100FC000C7737520F3A42801FB0B25C7535235F3D3
:100FD000A42801FC0A05C733E5CC93A204FD0F86C3
:100FE0002D937524D4A296504CC33404FE0E85AFC5
:100FF0001361714832B741098B00FF10662D5349C8
:101000000E845AD4128A6998860000000008039959
:10101000059DFFFF010012474554430EA6499884E1
:1010200049561A94540D01010C05C733433C686EB0
:10103000C91001021267455449B8A395300993AC11
:101040003428A91A01030D25C733A51D1834B76428
:1010500008010415682D74719226691266D920A5BD
:10106000499A03718E0801051126AF334392255921
:101070009225593484622C01060E664794756CCA19
:10108000D4E62C5A0001070D24477351AC445A2969
:101090005100010C0F66473451A66353A63667D141
:1010A00002010D0E24471351222B91564A140001C0
:1010B0000E1166471451A643439425A1B7648800D6
:1010C000010F14274794499884D210655116655131
:1010D000960D110001101207453443560A072909DD
:1010E0009330C9A2210201111326C793D910464398
:1010F00092255992255934240001120E4547134375
:101100003C8CE19084C54101130E04471343AA446B
:10111000439245890201160E45475339700C8724C6
:101120002C0E0201170E044753B1120D4916250A61
:101130000001180E652F13C77048C2E2A0550501C3
:10114000190E252F3352650AA3680B5301011A0F9C
:1011500065473351240F633824617110011B0F243C
:10116000471351222BD1906451A200011E10464713
:10117000544976CAD4D2102659B400011F0F65AF66
:1011800033A583E6960CA1962C00012210662F54FD
:1011900053A6968630C9A21D2C0101231085AF539A
:1011A000618E0C9A5B32845AB200012A0B44C5113D
:1011B000439AF51300012B0A04C511439AF5040163
:1011C0002E0A63AD31517FC904012F0A63AD316925
:1011D000D4974C01300941C711C93008013107C10A
:1011E000C61107013614672F1461124949A82661F8
:1011F00094654A9A636908013711852F1361D312E8
:10120000694954C97220CB0001390C66C773610E5D
:10121000A57D1D06013A0A82C7315AD25F00013B03
:101220000D66AF13695F871D0A3300013C0982AD6B
:1012300031FD9B02013D0D06C71349966462DA3AFF
:101240000C013E0B23471289B2443D0101410D07B9
:10125000C53371255453391E0601420C23C5315143
:101260004949A4160001431267C794698EA5A39249
:101270004991146989B80601440C25C793599C9873
:1012800034B70001451367AF14E9A8645224455AE6
:1012900022AE3998660001460D25AF13894973CBFC
:1012A000812C0301471267C754451D4A47259322E5
:1012B00029D212710D01480C25C73351242726CDA0
:1012C0002D014C0F47C754438E6D95D435C9B209D3
:1012D000014D0C05C73343BC646EC9020150116750
:1012E000C7744996E4E056495D932C9B0001510D6B
:1012F00025C753493BB0646EC9020152160CC7564C
:10130000433228A11887F190C4619C86F2900C02A8
:1013100001530FC9C635972CD3A26DCA2A170001F5
:10132000541366C773610E0D51966449960C515B58
:10133000120601550C23475249982C5113000156AF
:101340001466AF1343942559922543D496843914D7
:10135000660001570C232F12C912352711000158BE
:101360001466C73351A62343942559922543D49636
:10137000840101590D24471251A2268994B5010117
:101380005A0E64477351AC4462514A1400015B0B1E
:1013900023C75249BA6CD102015E0E642F334A242E
:1013A00016A54407A208015F0B23AF32B7684D2290
:1013B0000001600E64471351222B915894120501CD
:1013C000610E24C71251222B15314B240001620DEE
:1013D00067AD13872CEE3B9C860001630F642D32B2
:1013E00059342459630E44110001640E67C55345F6
:1013F0001D1A862CEE1B0001650D24457249D39001
:10140000648D0900016A0E47C754438EA4BE265955
:101410003601016B0C05C733439A79529400016E73
:101420001087C7746992E658EA6B92651300016FE2
:101430000E45C7535992E540E649510201701067C5
:10144000C7744996E450EA6B9265130001710C254C
:10145000C7534973E649510201720F67AF14A9AF30
:101460004996AD710E280001731126AF13599225CC
:1014700059922591250D6301017810474554490E75
:10148000A549166595346E0301790E6745B4756CF0
:10149000589BD3EA3004017A0C2645937564183BB7
:1014A0000E03017B0E4745943936ACCD69751802A1
:1014B000017C0C06457339328C1D8701017D0F6755
:1014C0004554451D1BD6E6B43A0C0103870741DE9F
:1014D000110203880E074333C390C4F190C5E54160
:1014E00003891309C334AA924669340C511AA551D1
:1014F0001AA501038A0903C3314BD407038C1109D0
:10150000C334D154AB4669944669569D00038E138B
:10151000094134AA9485599AE4408EE4488E6400C7
:10152000038F1308C534C99464519AA4499AA451ED
:10153000162D0303900C24C5518992661D130003D8
:10154000911007457469122661929506255503038B
:10155000920E05C7134392698392D9060503930936
:10156000054713C73E0203941107457469122661AB
:101570009295B2241D060103950C054713C77048C8
:10158000C2E22003960C074534C3DA9C5687210338
:10159000970B07C714A975B8BA0603980F07C75465
:1015A0005B255516554DB26C0203990801C711070A
:1015B00001039A0F05C713999494B424AA645A009E
:1015C000039B10074574691226619295B224550356
:1015D000039C1207473559944559D2A254948A1452
:1015E0004905039D1007C714E9A8645224455A22EF
:1015F000AE01039E0C0647147778C8A9C300039F69
:101600000D07C7545B25754DB26C0203A00A07C7CE
:101610001407D5AF0103A10D05C7134392D90625C1
:101620002C0203A30C06C71397B89886E13003A4D5
:101630000B07C513872CEE1B0003A50E0745146985
:10164000924559258DDB0003A61107C774E1A0441C
:10165000911449915419C40C03A70F0745146992BA
:1016600055D2384DB24A1A03A810074715512445E0
:10167000522455DAD6380303A90D07C7545B2575E4
:101680004DB2E40003AA0B43C5114918F50B000342
:10169000AB10474554490EA549166595346E0303B2
:1016A000AC0C25C7737564D0DC922103AD0E2447C2
:1016B0007351AC44439245890203AE0D85AF7375F7
:1016C0002031696E610303AF0922C7315AD2290361
:1016D000B00C25C773919266DE920503B10BC5C6A7
:1016E0003383E6960C0103B21285AF3352254AA22A
:1016F000245132DBA084450003B30D252D139996A8
:1017000094922CEC0403B40D25C753529A2D995B87
:10171000B20003B50DC446334A342459942800035B
:10172000B60E64B71243548BB2C62D4A0003B70BF2
:1017300025AF138949730B1B03B80E25C7334B66BE
:101740001B86CC962C0003B909C2C61149A7000319
:10175000BA0DC54613D112694954C90203BB0F26FD
:101760004533699CA65A92452D610003BC0C25AFF8
:101770001399A741118B0003BD0DC544139996948D
:10178000922C8C0003BE0E64B7324A6454B2E21647
:10179000250003BF0BC5C6334BE6962C0003C00FD4
:1017A000C7C41387248BB2288BB2280C03C10C2525
:1017B000AF334BE63628611103C20C0437334AA419
:1017C00015B7280103C30EC6C633C3966449966491
:1017D000D10403C40BC5C4128314B6260003C50A82
:1017E000C5C61399B7640103C61185AF53616DA9CE
:1017F00028899228952D2C0103C70F25AD129996A3
:101800009492AC1225352D03C813872D74712D8A3F
:10181000A4488AA448AA0C625C0303C90FC7C63453
:1018200059124552244552C50203CA0A03C511493B
:1018300018750B03CB0B05C733E5CC5BB20003CCAB
:101840000C25C7737564C9DC920503CD0C25C773DD
:101850007520F3962C0003CE1227C794690E6649B3
:101860001449911449150B0003CF08237C12490039
:1018700004010E454733E5610C87242C0E02040257
:101880001308C514839A0339906C5A144661942C3A
:101890000004030B65477375E0D8470004040E0687
:1018A000475453A60E4A1A67D10204050C04473365
:1018B0004A2416A5440104060801C71107010407BC
:1018C0000B43C5114918F50B0004080A04C5727DC5
:1018D0001B12000409160BC736C31AA6611A0E5153
:1018E0009825619684993A2400040A1409C7155969
:1018F000988559380C4A96699996694302040B12E7
:1019000008C514839A0339306861144661140604CB
:101910000C10664774610E655325DBA26E491804EE
:101920000E12684554551D8C93306B4A75200E5726
:1019300000040F0D47B714A95F87414B4300041003
:101940001007457469122661929506255503041106
:101950000E05C7134312864392D9060504120E05DD
:10196000C7134392698392D90605041309054713E7
:10197000C73E02041414483554831446611446616A
:10198000144661329CE50004150C054713C77048E6
:10199000C2E220041612094716522425C5A4BA260D
:1019A000B5A897AC0004170E05C7334B16466AA8B6
:1019B000250B0004181007C714A9B8255224454A5E
:1019C00036AA0104191267C754451D4AC52D912234
:1019D0002952B2510D041A0F05C713999494B424D7
:1019E000AA645A00041B1106473483922559922594
:1019F0005992259918041C1207473559944559D214
:101A0000A254948A144905041D0B07C714A975B87C
:101A1000BA06041E0D07C7545B25754DB26C02044F
:101A20001F0A07C71407D5AF0104200D05C71343CC
:101A300092D906252C0204210C06475453A636677A
:101A4000D10204220B07C513872CEE1B00042310C0
:101A500026BD13A19864499425615AD3000424112A
:101A600007C774E1A044911449915419C40C04258A
:101A70000F074514699255D2384DB24A1A042613FD
:101A80004637145992255992255992255932AC0559
:101A900004270B064714A16332A80D04281309C7B5
:101AA0001559A6655AA6655AA6655A361C02042918
:101AB000184AB7155925AB6495AC9255B24A5619D8
:101AC0000E3992231100042A1108C514430EE44074
:101AD0000E0C61D6DB9000042B10084715B179D0AD
:101AE000B4488BB468D002042C0D05C7136171484B
:101AF00032DBA000042D0E064734531627839A6A62
:101B0000D104042E130A4716E19455A27450A5542B
:101B10004AB54A3801042F1106C5534392255992FC
:101B2000454354C9C40004300BC5C63383E6960C44
:101B30000104310E25C793C9120E49E6962C000404
:101B4000320DC446134B342491342400043309C3AA
:101B5000461243D40904340C063553537F1A92506D
:101B60000C04350DC446334A3424599428000436F5
:101B70000EC7C61451A56D4B4A49530104370BC417
:101B80004613632266430204380DC5C61399B42474
:101B90004A32690104390F25C733512467D292288C
:101BA000C9A405043A0CC4461391924849A70004FD
:101BB0003B0EC544334312255112259116043C0FA8
:101BC000C744345994252D4A45A94805043D0BC501
:101BD000C61399360C992D043E0BC5C6334BE696B9
:101BE0002C00043F09C5C613376F0104400D25AF13
:101BF000134392B90D4A580404410BC446334AA416
:101C000095120504420AC5C4128314760204430FD8
:101C1000262D13A116B584621AA62100044411854D
:101C2000AF53616DA928899228952D2C0104450C8C
:101C3000C5441359520BB3A41604461106B71359E1
:101C4000922559922559328C250004470AC446131F
:101C50009129D90A044810C74615512445522445F4
:101C600052340C020449120837155125AA4495A88C
:101C7000125586412E01044A0CC6C4136BBA454D59
:101C80000B00044B0EC7C614A93A645224454316F0
:101C9000044C0CC4461359B644D29000044D0CC4F5
:101CA00046334A946C52A200044E10C84615D9120D
:101CB0006583266552A62D00044F0DC544534B94F1
:101CC00044D11269010000600005050607050707F9
:101CD000375500F13AF13A0107F0101618052007C0
:101CE000000002CB00211387EE02ADE0FF07980F42
:101CF000942270C1104400002222D062BFCD623015
:101D0000C32848110EE112472886210A528CC10CC3
:101D1000643003118E5002141000238A9D8E02CB72
:101D200009214842089210822484200921483ACA95
:101D30009110822484200921484208921082248430
:101D40001CEA20484208921082248420092148423B
:101D500008928E728C0FFC07A2821024210449087D
:101D6000411242908410241DE5500741CA07FE032A
:101D7000D140089210822484200921483ACAA10E39
:101D800082248420092148420892108224841CEA7B
:101D90002847420892108224842009214842089250
:101DA0008E72240024595D92E2CAEBB0E74717F81F
:101DB000B46851A83A57C988521691A444200B0917
:101DC000088B1AD49EE7D8C32215B1484DA8DA5C17
:101DD000D165AE3799B99A0A55D1A42216A9883D82
:101DE000ACF39E066B8740162292940CA528242BF8
:101DF000D7A9D2B422E7C4A41EF6FC16002581DEC2
:101E00008EFECCC460C84014329484080621823906
:101E100088700C228E60184418A328C83046519050
:101E200071048320852948610A62948220C420C9F4
:101E300038874555C4A22A62117B5854452CAA22E2
:101E400016B1874555C422F6B0287B58943D2C62C4
:101E50000F8B3A853A4C7290B2188434E520CF400B
:101E600088218E719482180229053104520C713236
:101E70004F404E238EB48C432503614501002673E9
:101E8000DD8E02CBEB98CD7B5AB4A6549DCB2C6152
:101E900029C9490892108224841CEB20C73AC861E2
:101EA0000F8B54C4221565918AD4642A73890C74EB
:101EB0009EF39E06B5882101618740D83110E20C5F
:101EC000843804190E41864312E114443825098EE2
:101ED00041826390E01C1BAA90752CD404E4340169
:101EE000418B50CC3256242B98B9CE75AC54AD638F
:101EF000202714C7E2BEAD621845A8423188319050
:101F0000810825200028434F6E07CD6860843A1071
:101F100062908318E4200639C8390E728E833A071E
:101F20003A0E720E747650E740E70F210785CE1007
:101F300072107420E4A0107290931CE4240739C935
:101F4000414E728C542CA100293D4F6E07CB645832
:101F5000053A4E7210841C042107410742D081903B
:101F600083A01342D019420E82CEFF3B68E740C7E0
:101F7000419DE3A0CE7150063988414C6290832088
:101F800063112D40002A3999C6A6CBAAA0652D3031
:101F90008509CA508A3290629406128A80842C5C29
:101FA0006442CF6A58B31E34912B64010945404600
:101FB00019194A51861298C204ADA0650A002B1364
:101FC00096052FCDE778E7873EF007BC73BCF32179
:101FD000002C1087E2F6AAA1085C30444184220A52
:101FE000002D0AD6014BCDE01FF0002E0DC7E102F7
:101FF000ABA1085C30C420002F429CAE02CB1499E8
:1020000008454D84A22642117A50D444286A2214ED
:1020100035118A9A08454D8422F4A0287A50D44478
:10202000286A221435118A9A08454D8422F4A02882
:102030007A50D444286A22144501303D9D8E02CB4B
:10204000EB988D8BD694AA73958C2C6319CA510486
:10205000B210812C24200D6ACF73FFFFFFBFF7342D
:10206000A821E1688740162294A38C15C9CA75AAD5
:1020700034ADC835F35800311B8EAE03CDE7CCA08C
:102080004A8A28E2031FD0C23292729CF3FFFFFFFC
:10209000FF0F325C9D8E02CBEB98CD83D694AA7352
:1020A000958C306219CA5104B210812C24200D6A1B
:1020B000CF73BDA7410D09474382D11041B86408D1
:1020C0000FA1C94C2842939950842633A1084D286A
:1020D00042939950842633A1084D6642119A508448
:1020E0002633A1084D6642119AD00FFC0722334DCA
:1020F0009D8EFECAE07F20A209456832138AD06413
:102100002614A1C94C2842939950842633A18B648C
:10211000A2F31E0735882A15B148452C52117BFEC3
:102120005554111C3288868863254141C9600433A7
:10213000B2729D2A4D0C7A0C2D1A0034479D8E02E6
:10214000CB0AA9873D2AAA1EF6A8A87A54B47A54C5
:10215000B47A54B47A54543DEC5151F5A84839122C
:10216000528E8494231DE640883910620E849803B1
:102170001DE738C8390E728EF381FF40E4107BFEF4
:10218000770035459D8E02CBE07F20AB873DFF2356
:1021900088AAD065B092116D6CC211ABA384642182
:1021A00001614840DAE39EE7BCC39E3FEB3C978366
:1021B0001AC410812C442448198C584856AE53A593
:1021C0006945AE99C7020036559D8E02CBEB988DBE
:1021D0008BD694AA73958C2C8219CA5104B21071B3
:1021E000B423200D72CE73ECF91B4AB2CE65B092C7
:1021F000116D6C82298A505212928504A441ED71AE
:10220000CF73FFDED3A086046421025988508E323A
:1022100056242BD7A9D2B422D7CC6301374D9D8E3B
:1022200002CBE07F206350831A128E8684A321E1C3
:1022300060493818220E86D014452A42138A541455
:102240004D28525134A14845D1842215A1298A54E0
:1022500084A62852119A50A4A26842918AA20945E4
:102260002A425314A9084D1A0038609D8E02CBEB08
:10227000988D8BD694AA73958C2C6319CA5104B28D
:1022800010812C24200D6ACF73DF7B1AD490802C10
:1022900044200B11CA51C68A64E53A559A5275AE6C
:1022A0009211A5282349894016129006B5E7B9EF87
:1022B0003D0D6A48381822908508E5286345B272BA
:1022C0009D2A4D2B72CD3C160039549D8E02CBEBCE
:1022D000988D8BD694AA73958C2C6319CA5104B22D
:1022E00010812C24200D6ACF73FF39A8410D09C835
:1022F0004A429214A114466C434732731D2B29E3C2
:10230000B0E7B3CE7339A8410C11C842448294C1DE
:10231000888564E53A559A56E49A792C003A15472F
:10232000E81EAB62181F1842F1C1AD2270C11083C4
:1023300000003B1707E912AB62181F1842F1C1AD4C
:102340002270C11005118A28003C3092482FCB6FB3
:1023500070442B98A19094A0E4A84E8292A3428846
:102360003A96C18A66B063212A514A52544A292AB0
:10237000A59075B4C2116F80023D105AC526CDE0FC
:102380003FB07DF0F607FE810D3E2ED2482BCB20CC
:1023900088021C5ED10C762C44292A4D292A4D2115
:1023A000CC680533D6A11094EE282741A984288350
:1023B000158D70C30B22003F42DD8E02CBEB988D52
:1023C0008BD694AA73958C2C63190A4A44A2108167
:1023D00030A841CE79CE3BECA9A2683293A94845FA
:1023E0002E7191EA668A2215A9873DFFDF07F78AD9
:1023F0006BDCC39EAC8189060040D57391C6F6B3F1
:10240000F900993C9637FBCD0F08F103C47392D3C2
:1024100098C7AC652E69B10A527072929D98842754
:1024200024594738084A45041988920A22903415DD
:102430004420883287385065205419E82842390EE4
:10244000420C721C741CE438E8741C743A0E3A1D79
:10245000079D8E834EC741A7E3A0D371D0E938E82A
:10246000741C743A0E3A1D079D8E834EC741A7E334
:10247000A0D371D0E938E8741C743A0E3A1D079D58
:102480008E838E831C07212629D051441324F48186
:10249000411CE8038338D2078281248F20CA098D2A
:1024A0004114339683B0031D29F9004B3EC0920FAF
:1024B0002CE5034BF9C05A3EA0980F24E803E5032E
:1024C00044FCC0203F20D0AF7A78DBD80100416EB9
:1024D0009D8E02CBEBB04845681A55A622D74926F7
:1024E00032B00D3ACF712F7784C31D016947401870
:1024F000220E8688831DE360C738D831108590434B
:1025000021E4504739D4510E7514241D05418839F2
:10251000D0710E749C031D0739C741CC3D83911CBB
:1025200041D4418E75906321E3608740D8218E7637
:1025300088A31DE26848381AE41E770042779D8E12
:1025400002CB006A93AA9075B082958C2086198779
:102550004AC6B1127130441CED104743C2D190708D
:10256000B8231CEE084743C2D1907034241C0C11D0
:10257000C74AC4A11471246568232358B9CC65B037
:102580009211A434E348CA3856220E8688A321E16A
:10259000684838DCEBB9E75E0D094743C2C1927069
:1025A000AC441C691187694646B07219EB546852F5
:1025B000500300433E9D8E02CB0A998D8BD694AA80
:1025C00073958C2C8219095204B2908034587B9EEA
:1025D000CB9EFFFFFF7BCE7B1AD490803024200B54
:1025E000110A4AC622189295EB54695A916B26A299
:1025F0000044399D8E02CB405A15BA0C5632A28D3A
:102600004D206811C752C2D1907034241CEEF5DC05
:10261000FFFFFF9F7B35241C0D09C752C29116B1E5
:10262000096D64042B97A990B400451D9D8E02CBC3
:10263000E07F20AB873DFFFFAC75EC770E7BFEFFA4
:102640002C523FF01F880046199D8E02CBE07F2060
:10265000AB873DFFFFAC75EC770E7BFEFFFF2C00D8
:1026600047429D8E02CB0A998D8BD694AA73958C86
:102670002C6319095204B29080B0A841ED792E7BE9
:10268000FE1FAABFE7FEBDA7410D09C84A02B292CC
:10269000A09C452CA311DBD048563073A1261CEB1F
:1026A000200748159D8E02CBE078EEFFFFDFFBC0D0
:1026B000FF9EFBFFFF7B07490B87EE02ADE0FF3F6C
:1026C00030004A279D8E02CBF6FCFFFFFFFF679D7F
:1026D000E7725083DA21908508052583110BC9CA5A
:1026E00075AA34ADC8351351004B8B9D8E02CBE0DB
:1026F000685043C2C19270AC441C0B19874AC6A1F2
:102700001072A4841C28290742CC7112731CE41C8B
:1027100026394749D051907490241D2351C740D683
:102720002192750884450C6A8F7B9CF39CD74026C8
:10273000B2C5063ACF798F7B1CD48E90B02324EC9F
:1027400010C93A06B28E91A88324E928483A4A82F1
:102750000E83A0C324E738893910620E9494232590
:10276000E450083954328E858C6325E26049381A6A
:10277000128E96004C149D8E02CBE0B0E7FFFFFF57
:10278000FFFF3FFB81FF40044D569D8E02CBE07062
:1027900050833169C9149568C83A368315AC6443CF
:1027A00037B6C0850FFC034B68821318E1884538A3
:1027B0006211CE48863392E18C6438E4200E398869
:1027C000430EE294A238A5284E218C6306E398C1FB
:1027D000384638CE098E7382E33CF7FFBD034E576F
:1027E0009D8E02CBE0788F7B1CD4602D6211939676
:1027F0006C4D6AA6A844A50AD59075AC731927201C
:10280000C609887104521C81146720C41908710616
:10281000421C820C8720C32189700A229C8208C72F
:1028200020C1314870CC756CA82ED1D4DC92B1B8DF
:1028300006E75EEF004F3D9D8E02CBEB988D8BD669
:1028400094AA73958C2C6319CA5104B210812C245C
:10285000200D6ACF73FFFFFFBFF734A8210159880D
:1028600040162294A38C15C9CA75AA34ADC835F395
:10287000580050469D8E02CB006A93AA90752E8315
:10288000958C20A519475AC4B11271B0241C0D09AA
:102890004743C2E15ECF3DF76A48381A120E96846C
:1028A0006325E2488B404A33328295CB58A7429346
:1028B00082DA61CFFFFF6701513D9D8E02CBEB981D
:1028C0008D8BD694AA73958C2C6319CA5104B2903F
:1028D000902C24200D6ACF73FFFFFFBFF734A8218F
:1028E00001598840162294A38C15C90A66AE731D3F
:1028F0002B55EB1808527F9D8E02CB006A93AA904D
:10290000752E83958C20A519475AC4B11271B02435
:102910001C0D094743C2E15ECF3DF7B8231C0D09EA
:102920004743C2C11071AC441C491948694646B0BE
:102930007219EB54A8868E73A0E320E738C839D00B
:10294000710E84980321E648873912528E8494438D
:102950001DE550083914428E75906321E358C8383C
:10296000D8310E86888321E26848381A128E868410
:10297000C33D0E0153519D8E02CB0A998D8BD69487
:10298000AA73958C2C8219CA5104B2108130A841C7
:10299000ED792E7B58A42216A929AAD065AE4797B7
:1029A000B93E9AD4A422F6B04845ACF35C0E6A1046
:1029B0004304B210A11C6530622159B94E95A61589
:1029C000B966220A0054159D8E02CBE07F205A483A
:1029D0003DECF9FFFFFFFFFFB70055279D8E02CBAF
:1029E000E078EEFFFFFFFFFFDED3A0860464210244
:1029F0005988508E3256242BD7A9D2B422D7CC6313
:102A000001567C9D8E02CBE0788F3BC2D190703412
:102A1000241CED10473B04C28E71B0631C0B19C718
:102A200042C6B10E82A8A31CEA28873ACA919072C6
:102A3000A4C320E838073ACE818E731CE41C0765D6
:102A40008E7498231DE6488739D251908410441D16
:102A5000E4580739D6418E7590632102618738DAD0
:102A6000218E7688A31DE268907B9CF3DC600B329C
:102A700091255752992A9A46918AD84301578F9D9A
:102A80008E02CBE0788F7BE78E70B8231C0D094750
:102A900043C2D1907034241CED10473BC4D10E7159
:102AA000B4431CED10473B04C20E81B04320EC1030
:102AB0004809CC21901298631C4528C738C840901B
:102AC00071908120E320C440C6318A818C6314E375
:102AD00020C728C6418E6188831CE2440E7122877C
:102AE00040C241A270907C05BF72993BB384C52C53
:102AF0004231CA508C3214A30CC528243948490EDF
:102B000052928318E41C0739C7410600588A9D8EEB
:102B100002CB006948381A12107608841DE358C8A1
:102B20003816321075102421E5484841D061908351
:102B30009CE3A0CC81107320A420E9284842C8A1BE
:102B40009081AC63200B11074302D28E80B4C7BDC5
:102B50009EF31AD844166C41C7BDB923200C09084E
:102B600043C4C18E812864200A21873A0A82908258
:102B700020C41C0831073A0E62908318041DE648F1
:102B800008411242107590632102598840D82110E3
:102B90007688A3410D0159699D8E02CB00694838A2
:102BA0001A120E860864210259C83814420E851084
:102BB00024210441883910620E741CC420E83008B6
:102BC0003A0A921082248420EA18C83A06B2107198
:102BD000302420ED08487BDCEB35B01517B948658B
:102BE0002A34A1484551A4A22852917A54543D2A2E
:102BF0008A221545918AD4A3A228525114A9005AB9
:102C00004B9D8E02CBE07F20AA08452A42918A5034
:102C1000A42234A1084D2852118A54842215A148B7
:102C2000452852118A54842215A148452852118AF8
:102C300054842215A148456842119A50842614A153
:102C400009452A4291FA81FF40045B18916E03CD39
:102C5000000A1FF801489DFFFFFFFFFFA90FFC407E
:102C600016005C479CAE02CB00A1484528528F8AD3
:102C700050A41E15A1484528AA221455118AAA0855
:102C800045558422F5A808452A425115A1A88A5025
:102C9000544528AA221455118AD4A32214A9084500
:102CA0005584A22A425115A1085D14906E03CDE00F
:102CB0000F4CE9FCFFFFFFFF2F7DE007345E1B9701
:102CC000E2F2CB27690B5B56939E8304A420032179
:102CD0004739C6718E80A0035F0A6501EECAE03FE6
:102CE000E0016012CE82DFCBE040C739D00919C9BC
:102CF000848C64026160218B02D32BA94F8CDED4BB
:102D0000AA75A50C2D6339494A0CB210832CC41C3A
:102D1000ED30473BCCD10E73B4439F32721556A9A8
:102D20002B61283B9AD90A57947514A41D04710786
:102D300041DC418E7790E31DE4780741DC419096B9
:102D40001064296429CFF8C4373CD295491C072266
:102D5000465AD4006241DD8E02CBE0B0E7FF478ED9
:102D60007584065D062B19D1C6269AB188052521E2
:102D700059484818D420E73CF7FFEF3DEE69118B26
:102D80001612169484662C6213DAC808562E7384C1
:102D9000061D045100633D1D8B02CBEB988D8BD635
:102DA00094AA73958C2C63190A4A04B2108130A836
:102DB00041CE792E7BFEBFE7BCC73D0D090843021B
:102DC000B210A1A064AC4856AE53A56945AE99882F
:102DD00002006443DD8E02CBF6FCFF16320ED48473
:102DE000C35C0523D9D0C42696D1040529015949CD
:102DF0004018D420E73CF7FFEF3DEE694840181239
:102E0000909504052962198DD88646B282990B35B2
:102E1000E158073900653E1D8B02CBEB988D8BD6B0
:102E200094AA73958C2C63190A4A04B2108130A8B5
:102E300041CE79EEDE07FE67CFB34845DA60105623
:102E40009044214241C95891AC5CA74AD38A5C3373
:102E50008F05006629DD8E02CBCFA80B741CC4A49D
:102E600035252A25423988410E724EE838873DFFC4
:102E70007BDAD09F3AECF9FFFFBF07006760DD8E79
:102E8000C6CA4B4295B90A46B2A113CB58867214F2
:102E9000912844200C6A90739EDB7BDCD3908030B9
:102EA00024240A110A4AC68A64E53A559A56B4207F
:102EB000F6B88422F5B0278B54854A6B4A96C148F0
:102EC0003636B18564450D72CE73DEE39E8684246A
:102ED000296113DBC8CA75AA3435E700682ADD8E7C
:102EE00002CBE0B0E7FF478E7584065D062B19D153
:102EF000C6269AB18805252159484818D420E73CB0
:102F0000F7FFFFFFBD036922CBAE02AB6238063983
:102F1000578A0F060E72FEFFFFFF11642024114A2C
:102F2000504432107214030D6A2A9612C7CC90884E
:102F3000063CDE192C3EF8CCF1CEFFFFFFFFFFF779
:102F40001CF418C820211189A00DA940C7494C3391
:102F500010006B76DD8E02CBE0B0E7FFE79E868443
:102F60008325E160883856228E858C4325E3480905
:102F70003912520E94940321E63889390E720E9359
:102F80009CA324E828483A48920E82A86324EA18B1
:102F9000C83A04C28E90B023242C62D29AD4A4A83A
:102FA00044A50A310141CB40CE3212A314C4A44A35
:102FB000729082A084202919C742C6B11271304490
:102FC0001C2C094743C2E1106C1DCF8E02ADE040BE
:102FD000E7FFFFFFFFFF0F210741897182239AC19D
:102FE00090A528E8006D86338B02F7E020C73BD61A
:102FF000119AD4A0AB44061B53C942453E108D0F15
:1030000048A219D358C4821C9484642D0B09095317
:1030100018D4920639C439EF78CE3B9EF38EE7BCC4
:10302000E339EF78CE3B9EF38EE7BCE339EF78CE01
:103030003B9EF38EE7BCE339EF78CE3B9EF38EE701
:10304000BCE339EF78CE3B9EF38EE7BCE339EF78F3
:10305000CE3B9EF38EE7BCE339EF78CE3B9EF38EFA
:10306000E7BCE339EF78CE3B9EF34E6E271D8B0213
:10307000CBE020C73A42832E83958C686313CD58EA
:10308000C48292902C24240C6A90739EFBFFFFFF55
:10309000DE016F3A1D8B02CBEB988D8BD694AA7311
:1030A000958C2C63190A4A04B2108130A841CE795C
:1030B000EEFFDF7BDCD390803024200B110A4AC660
:1030C0008A64E53A559A56E49A8928007042DD8E62
:1030D000C6CAE020C73A42832E83958C686313CD1D
:1030E00058C48292902C24240C6A90739EFBFFF7A4
:1030F0001EF7B488450B090B4A423316B1096D64BB
:10310000042B973942830E82A8C39EFFCF027143DE
:10311000DD8EC6CAEB20076AC261AE82916C68621E
:1031200013CB6882829480AC24200C6A90739EFB3F
:10313000FFF71EF73424200C09C84A828214B18C90
:10314000466C432359C1CC859A702C641CF6FCFF55
:1031500000721C168B02BDE02052F8C01F68844428
:10316000200399C721EE78E7FFFFFF7B0073421928
:103170008B02C3E980CC7A5274A652114B2C611198
:10318000C88912A49CE55A4F44241213F8AC284570
:10319000484A3105B925261189CF725B4F82121238
:1031A000909384D5B04655A613A58731EF48007497
:1031B00022D24E02ADE458E7FF3B1FF8030239D696
:1031C000F9FFFFDF4294929AD218E62C4849C93A97
:1031D0000075281D8B02CBE078EEFFFFFF7B8F7B15
:1031E0001A12108604642541418A584623B6A191DB
:1031F000AC60E6424D38D6410E766E1D8B02CBE0B8
:10320000788F7BDC118E8684A31DE2688740D821ED
:1032100010768C6321E3580739D641107510441D90
:10322000E5484839D2618E7418041D0641C7390E2D
:10323000724EE8380742CC811073A4A320E9288796
:103240003ACAA1107228841CEB18C83AC6C18E7104
:1032500030441C0C09483B02D28E70B8231CEEF59A
:103260009CD7C0B6C8200077C5338B02F7E078C77B
:1032700073DEF19E9634241C2D6948385AD20E71A3
:10328000B4A41DE2680A3B04B296858C632D0B1929
:10329000C75AD6418EB5AC831C8B510741529390CF
:1032A00072A42621E5484D3ACC919A74982339E8C6
:1032B00030C8790E728EF31CE49CC2710E749C238C
:1032C0001CE740C73902620E841424200549474197
:1032D000C451907494631CE5504739C6510E7594DF
:1032E0006320E450C8405BC740C83190758CA31C74
:1032F000E360C738CA310E768CA320E26048400AEA
:1033000012907604C41C01694738CE110E7784E30D
:103310001CE1704738CEE39EF33C0739AF490D6C92
:1033200052039BD4C0263591510C020078661D8B48
:1033300002CB007147381A1210768C632103514773
:1033400039125210749CE3A0CC918E8224841CEB21
:1033500018C842C4D18E80B4E739AF894C5CA6321C
:10336000938AA20955E42219D840C73DEE080843C4
:10337000C4C18E8128841CEA280842CC818E83181F
:10338000041DE6480841D4418E8508841DE26890FA
:103390003B007974DD8EC6CAE360C74014321085E5
:1033A000904321E4504739D4511084140421E6405D
:1033B0008839D0710E741CE41C0731083A0C820E57
:1033C00073A4C31C0929474208A20E82A8831CEBE0
:1033D00020C742C6B11081B04320EC10083BC4D1D5
:1033E000907034C8BD9CF35CB00599C8922BA94C71
:1033F000154D51A4A26B42415A211216AD68490CD9
:10340000720E5CE811017A2B1D8B02CBE07F20A2AB
:10341000C94CA632535399693499299ACC144D66F4
:103420008A26334593999ACA4CA3C94CE807FE03F0
:10343000117B41D430E7CAAF68C74A949216C4A042
:1034400005292A592886B0A39DFFC7107630442548
:103450004951C942D81011962C85250D694743DA88
:10346000F9FF1AC210965ACA62109316A5ACA41D91
:10347000AF007C0B47F2E3CAE0FFFF81077D43D337
:1034800030E7CA8078464356A294B4A045290B6120
:10349000C842D8F9FF18B210862C84254B51093B3D
:1034A000E0C00E952405250959884216B20E76FE15
:1034B000DF4229242967410B5252A2906534E20170
:1034C0007E1AA0624ACB835806424C5338D237BA90
:1034D0000209A52CE84844130A007F07000002CB2C
:1034E0000000000004FFFF00003A092000416C6169
:1034F000726D20616374697665003A092000416C41
:1035000061726D20637572736F72003A0920004317
:10351000757272656E74207370656564003A092077
:10352000005653530054616E6B20636F6E74656E6A
:10353000643A200054616E6B2063616C63756C614A
:1035400074653A20003A0920004F75747369646508
:103550002054656D7065726174757265003A09205A
:103560000054656D70657261747572652031003A42
:10357000092000436F6F6C616E742068697473007A
:103580003A092000456E67696E6520636F6F6C6154
:103590006E74003A09200050756C736520636F7576
:1035A0006E74003A0920004869747320636F6E746A
:1035B000656E64003A092000454355003A09200031
:1035C0004869747320636F6E74656E64003A0920F5
:1035D0000052504D003A09200044697374616E63D3
:1035E0006520636F6E74656E64003A092000486957
:1035F000747320636F6E74656E64003A0920005620
:103600005353003A092000566F6C7461676520724D
:1036100065616473005741524E494E47212020573F
:10362000726974696E672045455020524F4D206481
:1036300061746120746F20636869702E2E2E0044BF
:1036400065626F756E6365206973207472756500BD
:103650004465626F756E63652069732066616C7383
:1036600065003A092000436F6E74726F6C207661BA
:103670006C756520003A092000456469746F7220FA
:1036800061637469766520003A0920004E617669AD
:10369000676174696F6E20206973003A0920004CDD
:1036A00061737420627574746F6E20697300202FCB
:1036B00020003A092000445700202F20003A09201A
:1036C00000555000202F20003A092000424B003ABC
:1036D000092000437572736F722073617665640010
:1036E0004477206869742000557020686974200050
:1036F0003A092000566F6C746167652072656164D9
:10370000696E6773003A092000566F6C74616765D3
:103710002063616C63756C61746500D094D098D03F
:103720009DD090D09CD09ED09CD095D0A2D0AAD035
:10373000A00052616E67653A200020200030300002
:1037400030302E3000000000C2AD00496E6372655B
:10375000617365206F7220726564756365207661A0
:103760006C756500546F20696E6372656173652CBA
:10377000206C6F776572207468652076616C756562
:1037800000546F20726573657420686F6C64202329
:103790002B24005072657373202320746F20726590
:1037A00073657420002054696D696E672062656CD2
:1037B000742064697374616E63653A20002031304F
:1037C00025207265736973746F7220746F6C6572F3
:1037D000616E636500000000C5B400C39700C2A419
:1037E000004000C2A3002000D090D09DD0932E2096
:1037F000D0A0D095D09CD0AAD09A00D092D09ED004
:103800009BD0A2D09CD095D0A2D0AAD0A000C2A715
:1038100000C2A600C2BB00C2AC00C3B800C2B9005F
:10382000C2AE00C2AC00C2AB00C2AA00C2A900C2B4
:10383000A800C2BF00C2BE00C2BD00C2BC00C2B769
:1038400000C2B600C2A100C2B700C2AE0060005EF6
:1038500000C2A200C2B000C2A500D094D0BED0B2B7
:10386000D0B8D0B6D0B4D0B0D0BDD0B52E2E2E208A
:103870002020202000C2B1C3B7C2A500C2B200C23E
:10388000AF00C2B10034323030306B6D2028D0A18F
:10389000D0BBD0B5D0B420D181D0BCD18FD0BDD0D9
:1038A000B020D0BDD183D0BBD0B8D180D0B0D0B9FA
:1038B000D182D0B520D0B4D0B0D0BDD0BDD0B8D199
:1038C00082D0B52900D092D18AD0B7D0B4D183D1DB
:1038D00088D0BDD0B8D18FD18220D184D0B8D0BB10
:1038E000D182D18AD18020D181D0B520D181D0BCE4
:1038F000D0B5D0BDD18F20D0BDD0B020D0BDD0B0FC
:10390000D0B40020D09DD0A3D096D09DD09020D010
:10391000A1D09CD0AFD09DD09020D092D0AAD097EB
:10392000D094D0A3D0A8D095D09D2FD09CD090D0AB
:10393000A1D09BD095D09D20D0A4D098D09BD0A2D0
:10394000D0AAD0A02000D0B520D0B7D0B020D1814F
:10395000D0BCD18FD0BDD0B0202838353030306BBE
:103960006D2B2900D090D0BDD0B3D180D0B5D0BDC3
:10397000D0B0D0B6D0B5D0BDD0B8D18FD18220D103
:1039800080D0B5D0BCD18AD0BA00D090D09DD09391
:10399000D0A0D095D09DD090D096D095D09D20D05D
:1039A000A0D095D09CD0AAD09A00D0A1D0A2D09E71
:1039B000D09F20D181D0B2D0B5D182D0BBD0B8D0E9
:1039C000BDD0B82000D09FD180D0B5D0B4D0BDD06C
:1039D000B820D181D0B2D0B5D182D0BBD0B8D0BDC3
:1039E000D0B800D09DD0B5D180D0B0D0B1D0BED1AC
:1039F00082D0B5D189D0B020D0BAD180D183D1883E
:103A0000D0BAD0B020D0B23A00D098D097D093D0CE
:103A10009ED0A0D0AFD09BD09020D09AD0A0D0A3E1
:103A2000D0A8D09AD09000D182D0B5D187D0BDD0C7
:103A3000BED181D182D182D0B020D0B7D0B020D138
:103A400087D0B8D181D182D0B0D187D0BAD0B800D8
:103A5000D09FD180D0BED0B2D0B5D180D0B5D182E8
:103A6000D0B520D0BDD0B8D0B2D0BED182D0BE208B
:103A7000D0BDD0B000D0A2D095D0A7D09DD09ED040
:103A8000A1D0A220D097D09020D0A7D098D0A1D0FC
:103A9000A2D090D0A7D09AD09800D0BDD0B020D0DE
:103AA000B4D0B2D0B8D0B3D0B0D182D0B5D0BBD121
:103AB0008F20D0B520D0B2D0B8D181D0BED0BAD06E
:103AC000B02100D0A2D0B5D0BCD0BFD0B5D180D06D
:103AD000B0D182D183D180D0B0D182D0B02000D0FB
:103AE0009ED09FD090D0A1D09DD09ED0A1D0A2201A
:103AF000D09FD0A0D095D093D0A0D0AFD092D0906E
:103B0000D09DD09500D0BED185D0BBD0B0D0B4D0A0
:103B1000B8D182D0B5D0BBD0BDD0B0D182D0B0208A
:103B2000D182D0B5D187D0BDD0BED181D18200D0D5
:103B30009FD180D0BED0B2D0B5D180D0B5D182D007
:103B4000B520D0BDD0B8D0B2D0BED182D0BE20D0AA
:103B5000BDD0B000D09ED0A5D09B2E20D0A1D098B3
:103B6000D0A1D0A2D095D09CD09000D0BFD180D091
:103B7000B5D0B4D0BDD0B8D182D0B520D181D0BF1E
:103B8000D0B8D180D0B0D187D0BAD0B8202000D062
:103B900098D0B7D0BDD0BED181D0B2D0B0D0BDD03A
:103BA000B520D0BDD0B02000D0A1D09FD098D0A05B
:103BB000D090D0A7D09DD09020D0A1D098D0A1D027
:103BC000A2D095D09CD09000D0BDD0B520D0B5204B
:103BD000D0B220D180D0B0D0B1D0BED182D0BDD0B3
:103BE000B820D0B3D180D0B0D0BDD0B8D186D0B8B5
:103BF00000D09DD0B0D0BFD180D0B5D0B6D0B5D098
:103C0000BDD0B8D0B520D0BED1823A2000D095D05A
:103C10009B2E20D0A1D098D0A1D0A2D095D09CD05E
:103C20009000D0BCD0BED182D0BED180D0BDD0BE9D
:103C3000D182D0BE20D0BCD0B0D181D0BBD0BE000C
:103C4000D09FD180D0BED0B2D0B5D180D0B5D182F6
:103C5000D0B520D0BDD0B8D0B2D0BED182D0BE2099
:103C6000D0BDD0B000D0A1D09CD090D097D09ED065
:103C7000A7D09DD09020D0A1D098D0A1D0A2D0958F
:103C8000D09CD09000D0A8D0BED184D0B8D180D064
:103C9000B0D0B9D182D0B520D0B2D0BDD0B8D0BCD0
:103CA000D0B0D182D0B5D0BBD0BDD0BE002000D026
:103CB00097D090D09BD095D094D0AFD092D090D0C8
:103CC0009DD098D0AF20D09FD09E20D09FD0AAD09A
:103CD000A2D0AF0020D09DD0B520D0B8D0B7D0BFF3
:103CE000D180D0B0D0B2D0BDD0BED181D18220D0D1
:103CF000BDD0B020D0BAD180D183D188D0BAD0B0D5
:103D00000020D09ED0BFD0B0D181D0BDD0BED18157
:103D1000D18220D181D18AD0BDD0BBD0B8D0B2D091
:103D2000BED181D182200020D09DD0B0D0BFD18023
:103D3000D0B0D0B2D0B5D182D0B520D0BFD0BED116
:103D400087D0B8D0B2D0BAD0B000D098D0B7D0BF5A
:103D5000D0BED0BBD0B7D0B2D0B0D0B9D182D0B560
:103D600020D181D0BFD0B8D180D0B0D187D0BAD047
:103D7000B0D182D0B020D0B7D0B020D0BAD180D0CE
:103D8000B0D0B900D098D0B7D0B3D0B0D181D0B531
:103D9000D182D0B520D0B4D0B2D0B8D0B3D0B0D1C9
:103DA00082D0B5D0BBD18F20D0B7D0B020D0B7D083
:103DB000B0D0BFD0B0D0B7D0B2D0B0D0BDD0B52E7B
:103DC00000D0A0D095D097D0A3D09BD0A2D090D037
:103DD000A200D09AD09ED09DD0A1D0A3D09CD0904C
:103DE000D0A6D098D0AF00D09ED094D09ED09CD0FA
:103DF00095D0A2D0AAD0A000D09ED091D09ED0A025
:103E0000D09ED0A2D09800D0A1D09AD09ED0A0D0E1
:103E10009ED0A1D0A200D098D0B7D0BFD0BED0BB8A
:103E2000D0B7D0B2D0B0D0B920232B2420D0B7D077
:103E3000B020D0BFD180D0BED0BCD18FD0BDD0B04B
:103E400000D098D0B7D0BFD0BED0BBD0B7D0B2D002
:103E5000B0D0B9202420D0B7D0B020D0BDD0B0D0C1
:103E6000B2D0B8D0B3D0B0D186D0B8D18F2000D0E6
:103E70009DD0B0D182D0B8D181D0BDD0B5D182D0C3
:103E8000B5202420D0B7D0B020D0BFD180D0BED0B4
:103E9000BCD18FD0BDD0B00041726475696E6F4DDA
:103EA000494420D0B2D0B5D180D181D0B8D18F20B3
:103EB00000D097D0B020D0BDD0BED0B2D0B820D0E6
:103EC000B2D0B5D180D181D0B8D0B83A2077777749
:103ED0002E6769742E696F2F76486C6B6400D097DB
:103EE000D0B0D0B4D180D18AD0B6D182D0B5202381
:103EF00020D0B820D0BDD0B0D182D0B8D181D0BD33
:103F0000D0B5D182D0B520D181D0BFD0B8D180D0AA
:103F1000B0D187D0BAD0B0D182D0B02000D097D065
:103F2000B020D0BDD183D0BBD0B8D180D0B0D0BD6F
:103F3000D0B520D0BDD0B020D0BFD18AD182D1831E
:103F4000D0B2D0B0D0BDD0B5D182D0BE00D097D045
:103F500090D092D09ED094D0A1D09AD09800D0A2E8
:103F6000D095D09AD0A3D0A9D09E00D09DD090D08B
:103F7000A1D0A2D0A0D09ED099D09AD09800D098AD
:103F8000D09DD0A1D0A2D0A0D0A3D09CD095D09DC0
:103F9000D0A2D09800D09ED0A2D09DD09ED0A1D04B
:103FA0009DD09E00D09ED091D0A1D09BD0A3D09682
:103FB000D092D090D09DD09500D093D09ED0A0D05C
:103FC00098D092D09000D09FD0AAD0A2D0A3D09267
:103FD000D090D09DD098D0AF00D09DD090D0A7D019
:103FE00090D09BD09E00D098D0B7D0B3D0BED18017
:103FF000D0B5D0BBD0B800D098D0B7D0BDD0BED14E
:1040000081D0B5D0BDD0B800202020202020202095
:10401000C2A4002020202020202020C2A320002095
:10402000D09DD0B8D0B2D0BE20D0BCD0BED182D02E
:10403000BED180D0BDD0BE20D0BCD0B0D181D0BB4D
:10404000D0BE3A2000D0A2D0B5D187D0BDD0BED14D
:1040500081D18220D0B7D0B020D187D0B8D181D142
:1040600082D0B0D187D0BAD0B83A2000D09ED185C6
:10407000D0BBD0B0D0B4D0B8D182D0B5D0BBD0BD39
:10408000D0B020D182D0B5D187D0BDD0BED181D122
:10409000823A2000202020D09FD180D0B5D0B4D04B
:1040A000BDD0B82020D0BDD0B0D0BAD0BBD0B0D019
:1040B000B4D0BAD0B83A2000D09FD180D0B5D18545
:1040C000D0BED0B42000D0B4D0BE20D181D0BBD0DF
:1040D000B5D0B4D0B2D0B0D189D0B8D18F20D0BFB4
:1040E000D18AD182210000000104050503030405E3
:1040F0000604050607010001000302010000010299
:104100000304050607070605040302010007020170
:10411000000706050403020100030201000001027A
:104120000304050607000102030405060702030451
:1041300005060607E640C640B84094406C4045403E
:104140001F4013400840F73FE63FD93FC63FB93F05
:10415000A43F953F7E3F6B3F5E3F4D3F1D3FDE3EA0
:10416000B13E983E6F3E413E163E073EF83DE73D6C
:10417000D23DC13D843D4A3D273D013DD43CAF3C4D
:10418000AD3C853C653C403C223C0D3CF13BC83B92
:10419000A83B8F3B6B3B543B2F3B053BDF3AC33A7D
:1041A0009A3A753A503A273A093AE339C539AA3961
:1041B0008A39643946390339C538853882387F38B9
:1041C0007C3875385A385738543851384F384D384C
:1041D0004A384738443841383E383B383838353823
:1041E00032382F382C3829382638233820381D38D3
:1041F0001A381738143811380E38FB37E837E637D5
:10420000E337E137DE37DB37D837D737D637D5371F
:10421000BD37A5379337813764374B374837473732
:104220004637453740373D373A3732371B373A093B
:10423000200020456570526F6D20616C6C6F63616A
:1042400074652055534544206D656D6F7279206209
:10425000797465733A2020003A0920002045657082
:10426000526F6D20616C6C6F6361746520465245BE
:1042700045206D656D6F72792062797465733A209F
:10428000003A09200055736564206D656E75003A2B
:10429000092000536176656420637572736F722024
:1042A0006D656E75003A09200043757272656E7413
:1042B00020637572736F72206D656E75003A092008
:1042C000004C5047323A003A0920004C5047313AEE
:1042D000004C50472061637469766500424E5A2055
:1042E0006163746976650068683A6D6D0000253019
:1042F000336400253032642E25303164002530329D
:10430000643A253032640000000743FD42F342EE78
:1043100042E742206174200020766F6C746167650B
:10432000200057484C2043757272656E7420726588
:1043300073697374616E636520003D3D3D3D3D3D95
:104340003D3D3D3D3D3D3D3D3D3D3D3D3D3D3D3D9D
:104350003D3D3D3D3D3D3D3D3D3D3D3D3D3D003DCA
:104360003D3D3D3D3D3D3D3D3D3D3D3D3D3D3D3D7D
:104370003D3D3D3D3D3D3D3D3D3D3D3D3D3D3D3D6D
:104380003D3D3D003E2073746172746564210044BC
:10439000756D70696E67206F6666736574206E61F7
:1043A0006D652009203C003E2073746F7070656459
:1043B000212000446562756767696E67206F6666D5
:1043C0007365742009203C0073746F70003D3D3D9F
:1043D0003D3D3D3D3D3D3D3D3D3D3D3D3D3D3D3D0D
:1043E0003D3D3D3D3D3D3D3D3D3D3D3D3D3D3D3DFD
:1043F0003D004C50472073657269616C20636F6D9E
:104400006D756E69636174696F6E00566568696386
:104410006C6520737065656420616C61726D005617
:10442000656869636C65207761726E696E67207379
:1044300074617465730056656869636C65207365A3
:1044400072766963696E6720737461746573005274
:10445000656D6F746520636F6E74726F6C2020726F
:104460006164696F005374656572696E672077686F
:1044700065656C20627574746F6E7300496E746547
:10448000726E616C2063686970206D656D6F727902
:1044900000554920627574746F6E2068616E646C9B
:1044A0006572005549205573657220496E746572B6
:1044B00066616365206D656E750056656869636C3D
:1044C0006520617665726167657320617373756DD0
:1044D00065640056656869636C6520676561722074
:1044E000726174696F207265736F6C7665720056C5
:1044F000656869636C652064697374616E636520C7
:104500006D65617375726564004675656C207461D4
:104510006E6B2063616C63756C6174696F6E20648F
:1045200061746100456E67696E6520636F6F6C61D1
:104530006E742074656D7065726174757265004487
:104540006973706C6179206261636B206C69676864
:1045500074206C6576656C00496E7374616E7420AE
:10456000636F6E73756D7074696F6E2063616C63D9
:10457000756C6174696F6E004675656C20636F6E53
:1045800073756D7074696F6E2063616C63756C61B7
:1045900074696F6E20004164646974696F6E616C48
:1045A000202074656D7065726174757265202832A3
:1045B00029004164646974696F6E616C20207465C0
:1045C0006D706572617475726520283129004F75B0
:1045D00074736964652074656D7065726174757259
:1045E00065202866726F6E74290045435520456E1C
:1045F00067696E6520436F6E74726F6C20556E69CB
:10460000740052504D205265766F6C7574696F6EF0
:104610007320506572204D696E7574650056535352
:104620002056656869636C65205370656564205326
:10463000656E736F722000204445425547204845FF
:104640004C50202F20417661696C61626C6520645A
:10465000756D70206F666673657473202864626779
:104660003D3C4E554D3E2920003D3D3D3D3D3D3DAF
:104670003D3D3D3D3D3D3D3D3D3D3D3D3D3D3D3D6A
:104680003D3D3D3D3D3D3D3D3D3D3D3D3D000068A9
:10469000656C7000646267005365747320636C6FAF
:1046A000636B20746F3A2000727463007365745FEB
:1046B000656570006765745F6565700073697A652C
:1046C0005F656570006565705F77726B006565702A
:1046D0005F73656E735F656375006565705F7365B5
:1046E0006E735F647374006565705F73656E735F8E
:1046F00072706D006565705F73656E735F7673735E
:10470000006565705F626E7A006565705F6C7067EA
:104710000063666C0076657200636D6400536574B7
:1047200073205472697020432072616E67652000A7
:104730005365747320547269702043206675656CEC
:104740002000536574732054726970204220726196
:104750006E6765200053657473205472697020423F
:10476000206675656C2000536574732054726970FF
:1047700020412072616E6765200053657473205478
:104780007269702041206675656C20005341564562
:1047900044207472697020646174612000547269ED
:1047A000702064697374616E636520005768656585
:1047B0006C2053696D756C617465207265736973E3
:1047C00074616E63652000536176656420416C6C92
:1047D000206461746120616E642072657365747415
:1047E000696E672E2E2E00536176656420416C6CD5
:1047F00020646174612000536176656420576F7294
:104800006B2064697374616E63652000506173731B
:10481000696E672076616C756520746F20636172C4
:1048200053656E7320647269766572004543552046
:10483000636F7272656374696F6E20004453542015
:10484000636F7272656374696F6E200056535320F4
:10485000636F7272656374696F6E2000576F726B5D
:104860002064697374616E636520005472617665BB
:104870006C2064697374616E63652000424E5A2037
:104880006675656C2000626E7A004C504720667534
:10489000656C20006C7067003D3D3D3D3D3D3D3DFC
:1048A0003D3D3D3D3D3D3D3D3D3D3D3D3D3D3D3D38
:1048B0003D3D3D3D3D3D3D3D3D3D3D3D00536574F0
:1048C000732064697374616E6365207472617665C8
:1048D0006C20666F7220205472697020332000743F
:1048E00064333D3C666C6F61743E005365747320A5
:1048F000636F6E73756D6564206675656C20666F99
:1049000072202054726970203320007466333D3C5D
:10491000666C6F61743E00536574732064697374D0
:10492000616E63652074726176656C20666F7220BB
:104930002054726970203220007464323D3C666CF1
:104940006F61743E005365747320636F6E73756D91
:104950006564206675656C20666F722020547269EC
:1049600070203220007466323D3C666C6F61743E8C
:1049700000536574732064697374616E6365207499
:10498000726176656C20666F7220205472697020A7
:104990003120007464313D3C666C6F61743E00539D
:1049A00065747320636F6E73756D656420667565DD
:1049B0006C20666F72202054726970203120007460
:1049C00066313D3C666C6F61743E002E3A3A20546D
:1049D0005249505320434F4D4D414E4453203A3A93
:1049E0003A3A3A3A3A3A3A2E0053656E6473207670
:1049F0006F6C746167652B726573697374616E6344
:104A00006520746F20726164696F20200077686C84
:104A10003D3C312B313E00526573657473207472D6
:104A2000697073206F6620424320200072657365B1
:104A3000743D3C313E00536176657320637572723C
:104A4000656E74206368616E67656420646174617B
:104A50002000736176653D3C313E005075736820DF
:104A60006461746120746F2063617253656E73209A
:104A7000007365745F636F723D3C313E002E3A3ABD
:104A8000204F5448455220434F4D4D414E445320F2
:104A90003A3A3A3A3A3A3A3A3A2E00436F6E7375D6
:104AA0006D7074696F6E206D6561737572656D658B
:104AB0006E74732000636F725F6563753D3C666C56
:104AC0006F61743E0044697374616E6365206D6547
:104AD00061737572656D656E747300636F725F6488
:104AE00073743D3C666C6F61743E00566568696323
:104AF0006C6520737065656420206D6561737572E7
:104B0000656D656E747300636F725F7673733D3CA1
:104B1000666C6F61743E002E3A3A20434F52524504
:104B20004354494F4E2056414C554553203A3A3A4A
:104B30003A3A3A3A2E005365747320636C6F636B94
:104B40002074696D652061732031322E35396820FB
:104B5000007274633D3C666C6F61743E0053657413
:104B6000732063617220776F726B20646973746164
:104B70006E6365200077726B3D3C666C6F61743EBE
:104B800000536574732074726176656C656420648B
:104B9000697374616E636520007474643D3C666C77
:104BA0006F61743E005365747320636F6E73756D2F
:104BB00065642062656E7A696E65286761736F6CE3
:104BC000696E65292000626E7A3D3C666C6F617487
:104BD0003E005365747320636F6E73756D6564205A
:104BE00070726F70616E652D627574616E652020E4
:104BF000006C70673D3C666C6F61743E002E3A3A03
:104C000020534554204E45572056414C554553207E
:104C10003A3A3A3A3A3A3A3A3A3A3A3A3A3A3A3AF4
:104C20003A2E002048454C50202F2047656E657273
:104C3000616C20636F6D6D616E6420696E666F726A
:104C40006D6174696F6E003D3D3D3D3D3D3D3D3DB7
:104C50003D3D3D3D3D3D3D3D3D3D3D3D3D3D3D3D84
:104C60003D3D3D3D3D3D3D3D3D3D3D0068656C70FC
:104C70000020436F6D6D616E64206E6F7420666FEF
:104C8000756E642E2E2E20536F72727921200000D3
:104C90000000000000000000000000000000000014
:104CA0000000000000000000000000000000000004
:104CB00000000000000000000000000000000000F4
:104CC00000000000000000000000000000000000E4
:104CD00000000000000000000000000000000000D4
:104CE00000000000000000000000000000E0FF07DE
:104CF0000000000000000000E0FF070000000000CE
:104D0000000000E0FF07000000000000000080C37A
:104D100001000000000000000080C301000000004E
:104D20000000000080C30100000000F8FFFFFFFF4B
:104D3000C37F00000000F8FFFFFFFFC37F000000FB
:104D400000F8FFFFFFFFC37F00000000F8FFFFFF38
:104D5000FFC37F0000000038000000000078000062
:104D6000000038000000000078000000803F0000D4
:104D700000000078000000803F0000000000780084
:104D80000000803F000000000078000000803F002D
:104D90000000000078000000000000000000007823
:104DA0000000000000000000000078000000803FCC
:104DB000000000000078000000803F0000000000BC
:104DC00078000000803F00000000007800000080B4
:104DD0003F000000000078000000003800000000E4
:104DE000007800000000380000000000780000009B
:104DF00000380000000000780000000038000000CB
:104E0000000078000000003800000000007800007A
:104E100000003800000000007800000000380000AA
:104E2000000000780000000038000000000078005A
:104E30000000003800000000007800000000380C7E
:104E4000C00004407800000000381EE0010EE07849
:104E500000000000383FF0031FF07900000000B8A8
:104E60007FF8873FF87B00000000F8FFFFFFFFFF9F
:104E70007F00000000F8FFFFFFFFFF7F0000000041
:104E8000F8FFFFFFFFFF7F00000000F8FFFFFFFFBC
:104E9000FF7F00000000F8FFFFFFFFFF7F00000022
:104EA00000F8FFFFFFFFFF7F00000000F8FFFFFF9B
:104EB000FFFF7F00000000F8FFFFFFFFFF7F000003
:104EC0000000F8FFFFFFFFFF7F00000000F8FFFF7A
:104ED000FFFFFF7F00000000F8FFFFFFFFFF7F00E4
:104EE000000000F8FFFFFFFFFF7F00000000000050
:104EF00000000000000000000000000000000000B2
:104F000000000000000000000000000000000000A1
:104F10000000000000000000000000000000000091
:104F20000000000000000000000000000000000081
:104F30000000000000000000000000000000000071
:104F4000000000000000000000000000000000560B
:104F50000000000000000000000000000000000051
:104F60000000000000000000000000000000000041
:104F70000000000000000000000000000000000031
:104F80000000000000000000000000000000000021
:104F90000000000000000000000000000000000011
:104FA0000000000000000000000000000000000001
:104FB00000000000000000000000000000000000F1
:104FC000000000000000000000000000F07F000072
:104FD000C0FF0100000000F07F0000C0FF010000E2
:104FE0000000F07F0000C0FF0100000000F07F0023
:104FF00000C0FF0100000000F07F0000C0FF0100C2
:105000000000FEFFFFFFFFFFFFFF1F0000FEFFFF8E
:10501000FFFFFFFFFF1F0000FEFFFFFFFFFFFFFF7F
:105020001F0000FEFFFFFFFFFFFFFF1F0000FEFF4E
:10503000FFFFFFFFFFFF1F0000FEFFFFFFFFFFFF5F
:10504000FF1F00003E000000000000001F00003EA7
:10505000000000000000001F00003E0000000000F3
:1050600000001F00003E000000000000001F0000C4
:105070003E000000000000001F00003E0000000095
:105080000000001F00003E000000000000001F00A4
:10509000003E00000000001E001F00003E00000057
:1050A00000001E001F00003E00000000001E001F48
:1050B00000003E00000000001E001F00003E000037
:1050C0000000001E001F00003EF8FF0000F0FF037C
:1050D0001F00003EF8FF0000F0FF031F00003EF835
:1050E000FF0000F0FF031F00003EF8FF0000F0FF8C
:1050F000031F00003E00000000001E001F00003ED5
:1051000000000000001E001F00003E000000000024
:105110001E001F00003E00000000001E001F0000D7
:105120003E00000000001E001F00003E00000000C6
:105130000000001F00003E000000000000001F00F3
:10514000003E000000000000001F00003E000000C4
:10515000000000001F00003E000000000000001FD3
:1051600000003E000000000000001F0000FEFFFFE6
:10517000FFFFFFFFFF1F0000FEFFFFFFFFFFFFFF1E
:105180001F0000FEFFFFFFFFFFFFFF1F0000FEFFED
:10519000FFFFFFFFFFFF1F0000FEFFFFFFFFFFFFFE
:1051A000FF1F0000FEFFFFFFFFFFFFFF1F000000CB
:1051B00000000000000000000000000000000000EF
:1051C00000000000000000000000000000000000DF
:1051D00000000000000000000000000000000000CF
:1051E00000000000000000000000000000000000BF
:1051F00000000000000000000000000000000000AF
:10520000000000000000000000000000000000009E
:10521000000000000000000000000000000000008E
:10522000000000000000000000000000000000007E
:10523000000000000000000000000000000000006E
:10524000000000000000000000000000000000005E
:10525000000000000000000000000000000000004E
:10526000000000000000000000000000000000003E
:10527000000000000000000000000000000000002E
:105280000000C0FF030000000000001E00C0FF0778
:10529000000000000000FE00C0FF070000006000EA
:1052A00000FF07C0FF07000000FC0000FF3FC0FF39
:1052B00003000080FF0000FFFF00FE000000C0FFB1
:1052C0000080DFFF03FE000000FCFF00801FFF03E3
:1052D000FE000080FF7F00800FFCFFFF7F00F0FFDB
:1052E0000F00C00FE0FFFFFF01FEFF0300C03FE023
:1052F000FFFFFFC3FFFF0300C0FFE0FFFFFFFBFF57
:10530000FF0100C0FFF3FFFFFFFFFFFE000000FFF3
:10531000FFFFFFFFFF0F7F000000F8FF070080FF87
:10532000813F000000C0FF0700003F801F00000019
:1053300000FE07000006C00F00000000F00700009C
:1053400000E00700010000E007000000F00300019A
:105350000000E007000000F80380030000E0070001
:105360000000FC0180030000E007000000FC00805A
:10537000030000E007000000FE00C0070000E00797
:105380000000007F00C0070000E0070000803F0031
:10539000C0070000E0FFFFFFFF1F00C0070000E0A4
:1053A000FFFFFFFF0F0080030000E0FFFFFFFF078C
:1053B0000000000000C0FFFFFFFF0300000000002E
:1053C000C0FFFFFFFF03000000000000000000001E
:1053D00000000000000000000000000000000000CD
:1053E00000000000000000000000000000000000BD
:1053F00000000000000000000000000000000000AD
:10540000000000000000000000000000000000009C
:10541000000000000000000000000000000000008C
:105420000000F0017C001FC007F0010000FC0FFF2E
:10543000C3FFF03FFC0F0000FFFFFFFFFFFFFFFF78
:105440003F0000FFFFFFFFFFFFFFFF3F0000FFFFE8
:10545000FFFFFFFFFFFF3F0000FFFFFFFFFFFFFF1A
:10546000FF3F000007F0017C001FC0073000000074
:10547000000000000000000000000000000000002C
:10548000000000000000000000000000000000001C
:10549000000000000000000000000000000000000C
:1054A00000000000000000000000000000000000FC
:1054B00000000000000000000000000000000000EC
:1054C00000000000000000000000000000000000DC
:1054D00000000000000000000000000000000000CC
:1054E00000000000000000000000000000000000BC
:1054F000000000000000F8FF0300000000000000B2
:1055000000FCFF070000000000003000FCFF0780E7
:10551000010000000078003C8007C003000000008C
:10552000FC003C8007E00700000000F8013C800719
:10553000F00300000000F0033C8007F801000000C9
:1055400000E0077CC007FC0000000000C003FCFF77
:10555000077800000000008001FCFF073000000019
:1055600000000080FFFF3F00000000000000C0FFBF
:10557000FF7F00000000000000E0FFFFFF000000D0
:1055800000000000F03F80FF01000000000000F874
:105590000F00FE03000000000000F80300F8030005
:1055A0000000000000FC0100F00700000000000007
:1055B000FE000EE00F0000000000007E001FC00F84
:1055C0000000000000003F803F801F00000000003E
:1055D000003F803F801F0000000000801F803F00D0
:1055E0003F0000000000801F803F003F00000000DF
:1055F00000801F001F003F00000000FE830F001FFF
:10560000003EF80F0000FE830F001F003EF80F0061
:1056100000FE830F001F003EF80F0000FE830F0006
:105620000E003EF80F0000FE830F000E003EF80F44
:10563000000000800F000E003E0000000000801FF0
:10564000000E003F0000000000801F000E003F0021
:1056500000000000001F0000001F0000000000000C
:105660003F0000801F0000000000003E0000800F8F
:105670000000000000007E000EC00F0000000000CF
:1056800000FC000EE007000000000000FC0100F03C
:1056900007000000000000F80700FC030000000005
:1056A0000000F01F00FF01000000000000E07FC0CC
:1056B000FF00000000000000E0FFFFFF000000000E
:1056C00000008080FFFF3F200000000000C001FEBE
:1056D000FF0F700000000000E003FCFF07F800006F
:1056E000000000F003C07F00F80100000000F80196
:1056F000000000F00300000000FC00000000E007D4
:10570000000000007C00000000C00700000000381E
:10571000000000008003000000001000001F0000D7
:1057200001000000000000001F0000000000000059
:105730000000001F000000000000000000001F002B
:105740000000000000000000001F0000000000003A
:10575000000000001F000000000000000000001F0B
:10576000000000000000000000001F00000000001A
:1057700000000000001F000000000000000000000A
:105780000000000000000000000000000000000019
:105790000000000000000000000000000000000009
:1057A00000000000000000000000000000000000F9
:1057B00000000000000000000000000000000000E9
:1057C00000000000000000000000000000000000D9
:1057D00000000000000000000000000000000000C9
:1057E00000000000000000000000000000F0FF00CA
:1057F0000000000000001800FEFF0780010000000C
:10580000003C80FFFF1FC003000000007CE0FFFFA2
:105810007FE003000000003EF8FFFFFFC10700002B
:1058200000001FFC1F80FF830F000000801FFE038D
:1058300000FC871F000000800FFE0100F8071F001A
:105840000000C0077F0000E00F3E000000C0873F5F
:10585000000FC01F3E000000E0C31F000F803F7C10
:10586000000000E0C30F000F003F7C000000F0E1EB
:1058700007000F007EF8000000F0E103000F007C3D
:10588000F8000000F8F003000F00FCF001000078C1
:10589000F001000F00F8E001000078F800000F00B0
:1058A000F0E101000078F800000F00F0E1010000D5
:1058B00078F800000F00F0E101000038F800000F58
:1058C00000F0C10100003C7800000F00E0C10300BF
:1058D000003C7800000F00E0C10300003C780000AD
:1058E0000F00E0C10300003C7800000F00E0C1039E
:1058F00000003C7800000F00E0C10300003C78008D
:10590000000F00E0C10300003C7800000F00E0C180
:105910000300003CF800000F00F0C10300003CF859
:1059200000000F00F0C103000038F800000F00F085
:10593000C101000078F800000F00F0E101000078DC
:10594000F001000000F8E001000078F00100000024
:10595000F8E0010000F0F003000000FCF00000009F
:10596000F0E1070006007EF8000000F0E107000FFC
:10597000007EF8000000E0C30F801F003F7C0000A5
:1059800000E0831F801F801F7C000000C0873F0055
:105990000FC01F3E000000C0077F0006E00F3E0062
:1059A0000000C00FFE0100F8073F000000801FFC50
:1059B0000700FE831F000000003FF87FE0FFC10FDB
:1059C000000000003EF0FFFFFFC007000000007C69
:1059D000C0FFFF3FE003000000003880FFFF1FC052
:1059E00001000000001800FCFF038001000000001F
:1059F0000000801F00000000000000000000000008
:105A00000000000000000000000000000000000096
:105A10000000000000000000000000000000000086
:105A20000000000000000000000000000000000076
:105A30000000000000000000000000000000000066
:105A40000000000000000000000000000000000056
:105A50000000000000000000000000000000000046
:105A60000000000000000000000000000000000036
:105A70000000000000000000000000000000000026
:105A80000000000000000000000000000000000016
:105A900000000000000000001F00000000000000E7
:105AA0000000803F000000000000000000803F0078
:105AB0000000000000000000803F00000000000027
:105AC000000000803F000000000000000000803F58
:105AD000000000000000000000803F000000000007
