:100000000C94A52C0C94DE5F0C94B35F0C94885F69
:100010000C945D5F0C94325F0C94075F0C94DC5E73
:100020000C94B15E0C94D62C0C94D62C0C94D62C3B
:100030000C94D62C0C9404570C94D62C0C94D62CDF
:100040000C94D62C0C94D62C0C94D62C0C94D62C28
:100050000C94D62C0C94D62C0C94D62C0C94DC48F6
:100060000C94D62C0C940B5C0C94E25B0C94D62C68
:100070000C94D62C0C94D62C0C94D62C0C94D62CF8
:100080000C94D62C0C94D62C0C94D62C0C94D62CE8
:100090000C94D62C0C94D62C0C94D62C0C94096071
:1000A0000C94D62C0C94D62C0C94D62C0C94D62CC8
:1000B0000C94D62C0C94D62C0C94D62C0C94D62CB8
:1000C0000C94D62C0C94D62C0C94D62C0C94B95B96
:1000D0000C94905B0C94D62C0C94D62C0C94D62CAF
:1000E0000C94D62CE07CEE7CFD7C257D3F7D537D01
:1000F0006B7D7A7D8C7D4F5C525C415C455C4B5CDA
:10010000895C565C5A5C605C645C685C6E5C725CCA
:10011000765C895C7C5C805C845CF25DF75DFC5D98
:10012000065E105E895E1A5E225E2A5E345E3E5E68
:10013000485E575E615E895E6B5E755E7F5E0864D9
:100140001064E863F063F8630064186420640800D6
:100150000000BE922449123EABAAAA2ABECDCCCC46
:100160004C3E00000080BEABAAAAAA3E00000000E0
:10017000BF000000803F0000000000084178D3BBB2
:100180004387D1133D190E3CC3BD4282AD2B3E685F
:10019000EC8276BED98FE1A93E4C80EFFFBE01C450
:1001A000FF7F3F00000000004E414E494E49545928
:1001B000494E46CDCCCC3D0AD7233C17B7D1387732
:1001C000CC2B329595E6241FB14F0A000020410048
:1001D00000C84200401C4620BCBE4CCA1B0E5AAE92
:1001E000C59D7400407A10F35A00A0724E180900A1
:1001F00010A5D4E80000E87648170000E40B54028C
:100200000000CA9A3B000000E1F5050000809698C6
:1002100000000040420F000000A086010000001016
:100220002700000000E80300000000640000000058
:10023000000A00000000000100000000002C76D839
:1002400088DC674F0823DFC1DFAE59E1B1B796E51F
:10025000E3E453C63AE651997696E8E6C28426EB83
:10026000898C9B62ED407C6FFCEFBC9C9F40F2BA96
:10027000A56FA5F490055A2AF75C936B6CF9676D2E
:10028000C11BFCE0E40D47FEF520E6B500D0ED9083
:100290002E0300943577050080841E080000204E50
:1002A0000A000000C80C333333330F986E128311E9
:1002B00041EF8D2114893BE65516CFFEE6DB18D1C0
:1002C000844B381BF77C1D901DA4BBE42420328492
:1002D000725E228100C9F124ECA1E53D27000021D6
:1002E00000240027002A002D003000330001010007
:1002F00000040107010A01526573746F726520568C
:10030000616C75653A002020002000001F0000008D
:100310000000FF0000000000FF0000000000FE00E1
:1003200000000000F80000000000F00100000000E4
:10033000E00100000000E00100000000E00100001A
:100340000000E00100000000E00100000000E0010A
:1003500000000000E00300000000C00300000000F7
:10036000C00300000000C00300030000C003C0037E
:100370000000C00FF0030000C03FFC030000C0FFFE
:10038000FF03000080FFFF03000080FFFF0100006B
:1003900080E7E70100008087E10100008007E001BD
:1003A00000008007E0010000800FE0010000000F66
:1003B000F0010000000FF0000000000FF00000004E
:1003C000000FF0000000C00FF0000000C00FF000B0
:1003D0000000C01FF8000000C07FFE00000080FF8A
:1003E0007F00000000FE3F00000000F80F0000004A
:1003F00000C00300000000000000003CEFF939B32A
:10040000076C6F6B6DB3076C63636CB7013C67631C
:100410006CB7036CE7616CBF036C63636CBB016C0E
:100420006F636CBB073C6F6338B3072020004B4DF4
:1004300048200052504D200045435520002F0020F9
:100440002020424C42200044535420004F444F206F
:1004500000454E472000475253200057524B200082
:100460004552524F523A2043616E6E6F7420666956
:100470006E6420637572736F7220666F722064659C
:100480006C6574696E67202E2E2E2E200045525208
:100490004F523A2044454C455445207472697020AF
:1004A0004320004552524F523A2044454C45544552
:1004B0002074726970204220004552524F523A20F7
:1004C00044454C4554452074726970204120003EDB
:1004D000004552524F523A2054726970206375722F
:1004E000736F72206F7574206F662072616E67651E
:1004F000202E2E2E2E20004E4F544943453A2044A4
:10050000656C65746520747269702E2E2E2E200025
:10051000424E5A2076616C75653A20004C50472057
:1005200076616C75653A20004C50472074616E6BA3
:100530003A20200052616E67653A20003E003E007E
:100540003E003E0060000505060705070737550019
:10055000F13AF13A0107F00FC817B720070000027F
:10056000CB00211387EE02ADE0FF07980F942270B5
:10057000C1104400002222D062BFCD6230C328489F
:10058000110EE112472886210A528CC10C643003F7
:10059000118E5002141000238A9D8E02CB0921482F
:1005A00042089210822484200921483ACA9110827C
:1005B000248420092148420892108224841CEA20C5
:1005C0004842089210822484200921484208928ED1
:1005D000728C0FFC07A282102421044908411242A8
:1005E000908410241DE5500741CA07FE03D140083E
:1005F0009210822484200921483ACAA10E822484C0
:1006000020092148420892108224841CEA2847428B
:10061000089210822484200921484208928E722474
:100620000024595D92E2CAEBB0E74717F8B468516D
:10063000A83A57C988521691A444200B09088B1A6E
:10064000D49EE7D8C32215B1484DA8DA5CD165AE77
:100650003799B99A0A55D1A42216A9883DACF39EC0
:10066000066B8740162292940CA528242BD7A9D27A
:10067000B422E7C4A41EF6FC16002581DE8EFECC53
:10068000C460C84014329484080621823988700CF2
:10069000228E60184418A328C830465190710483F4
:1006A00020852948610A62948220C420C938874580
:1006B00055C4A22A62117B5854452CAA2216B18730
:1006C0004555C422F6B0287B58943D2C620F8B3AD6
:1006D000853A4C7290B2188434E520CF4088218E40
:1006E000719482180229053104520C71324F404E28
:1006F000238EB48C432503614501002673DD8E02F1
:10070000CBEB98CD7B5AB4A6549DCB2C6129C9491B
:100710000892108224841CEB20C73AC8610F8B54C6
:10072000C4221565918AD4642A73890C749EF39E41
:1007300006B5882101618740D83110E20C84380465
:10074000190E41864312E114443825098E41826313
:1007500090E01C1BAA90752CD404E43401418B500A
:10076000CC3256242B98B9CE75AC54AD63202714E7
:10077000C7E2BEAD621845A8423188319081082594
:10078000200028434F6E07CD6860843A1062908342
:1007900018E4200639C8390E728E833A073A0E7271
:1007A0000E747650E740E70F210785CE1072107463
:1007B00020E4A0107290931CE4240739C9414E72C2
:1007C0008C542CA100293D4F6E07CB6458053A4E3E
:1007D0007210841C042107410742D0819083A0132A
:1007E00042D019420E82CEFF3B68E740C7419DE3ED
:1007F000A0CE7150063988414C6290832063112D40
:1008000040002A3999C6A6CBAAA0652D308509CA11
:10081000508A3290629406128A80842C5C6442CFA3
:100820006A58B31E34912B64010945404619194A90
:1008300051861298C204ADA0650A002B1396052FAD
:10084000CDE778E7873EF007BC73BCF321002C109E
:1008500087E2F6AAA1085C30444184220A002D0AEE
:10086000D6014BCDE01FF0002E0DC7E102ABA10871
:100870005C30C420002F429CAE02CB149908454D39
:1008800084A22642117A50D444286A221435118A4F
:100890009A08454D8422F4A0287A50D444286A222C
:1008A0001435118A9A08454D8422F4A0287A50D430
:1008B00044286A22144501303D9D8E02CBEB988D71
:1008C0008BD694AA73958C2C6319CA5104B21081EB
:1008D0002C24200D6ACF73FFFFFFBFF734A821E15E
:1008E000688740162294A38C15C9CA75AA34ADC86E
:1008F00035F35800311B8EAE03CDE7CCA04A8A28D1
:10090000E2031FD0C23292729CF3FFFFFFFF0F324F
:100910005C9D8E02CBEB98CD83D694AA73958C30D8
:100920006219CA5104B210812C24200D6ACF73BD04
:10093000A7410D09474382D11041B864080FA1C9EE
:100940004C2842939950842633A1084D284293990C
:1009500050842633A1084D6642119A50842633A153
:10096000084D6642119AD00FFC0722334D9D8EFE32
:10097000CAE07F20A209456832138AD0642614A1F8
:10098000C94C2842939950842633A18B64A2F31E4C
:100990000735882A15B148452C52117BFE55541154
:1009A0001C3288868863254141C9600433B2729D38
:1009B0002A4D0C7A0C2D1A0034479D8E02CB0AA9C1
:1009C000873D2AAA1EF6A8A87A54B47A54B47A5459
:1009D000B47A54543DEC5151F5A8483912528E84E2
:1009E00094231DE640883910620E8498031DE73871
:1009F000C8390E728EF381FF40E4107BFE7700351C
:100A0000459D8E02CBE07F20AB873DFF2388AAD097
:100A100065B092116D6CC211ABA384642101614871
:100A200040DAE39EE7BCC39E3FEB3C97831AC410B9
:100A3000812C442448198C584856AE53A56945AEBC
:100A400099C7020036559D8E02CBEB988D8BD694BC
:100A5000AA73958C2C8219CA5104B21071B4232048
:100A60000D72CE73ECF91B4AB2CE65B092116D6C6B
:100A700082298A505212928504A441ED71CF73FFEE
:100A8000DED3A086046421025988508E3256242B6E
:100A9000D7A9D2B422D7CC6301374D9D8E02CBE0CB
:100AA0007F206350831A128E8684A321E160493827
:100AB00018220E86D014452A42138A54144D285207
:100AC0005134A14845D1842215A1298A5484A628ED
:100AD00052119A50A4A26842918AA209452A42530F
:100AE00014A9084D1A0038609D8E02CBEB988D8BAF
:100AF000D694AA73958C2C6319CA5104B210812C18
:100B000024200D6ACF73DF7B1AD490802C44200BF5
:100B100011CA51C68A64E53A559A5275AE9211A52A
:100B2000282349894016129006B5E7B9EF3D0D6AB2
:100B300048381822908508E5286345B2729D2A4DF1
:100B40002B72CD3C160039549D8E02CBEB988D8BC9
:100B5000D694AA73958C2C6319CA5104B210812CB7
:100B600024200D6ACF73FF39A8410D09C84A42926B
:100B700014A114466C434732731D2B29E3B0E7B32D
:100B8000CE7339A8410C11C842448294C18885644F
:100B9000E53A559A56E49A792C003A1547E81EAB87
:100BA00062181F1842F1C1AD2270C1108300003BD2
:100BB0001707E912AB62181F1842F1C1AD2270C1CC
:100BC0001005118A28003C3092482FCB6F70442BBF
:100BD00098A19094A0E4A84E8292A342883A96C12C
:100BE0008A66B063212A514A52544A292AA590752F
:100BF000B4C2116F80023D105AC526CDE03FB07DD2
:100C0000F0F607FE810D3E2ED2482BCB2088021C29
:100C10005ED10C762C44292A4D292A4D21CC680519
:100C200033D6A11094EE282741A9842883158D700E
:100C3000C30B22003F42DD8E02CBEB988D8BD69406
:100C4000AA73958C2C63190A4A44A2108130A841DA
:100C5000CE79CE3BECA9A2683293A948452E71917A
:100C6000EA668A2215A9873DFFDF07F78A6BDCC396
:100C70009EAC8189060040D57391C6F6B3F9009900
:100C80003C9637FBCD0F08F103C47392D398C7ACE1
:100C9000652E69B10A527072929D98842724594733
:100CA00038084A45041988920A229034154420884D
:100CB0003287385065205419E82842390E420C72A8
:100CC0001C741CE438E8741C743A0E3A1D079D8E9F
:100CD000834EC741A7E3A0D371D0E938E8741C74F0
:100CE0003A0E3A1D079D8E834EC741A7E3A0D371EC
:100CF000D0E938E8741C743A0E3A1D079D8E838E35
:100D0000831C07212629D051441324F481411CE877
:100D1000038338D2078281248F20CA098D4114337E
:100D20009683B0031D29F9004B3EC0920F2CE503BA
:100D30004BF9C05A3EA0980F24E803E50344FCC0D9
:100D4000203F20D0AF7A78DBD80100416E9D8E0223
:100D5000CBEBB04845681A55A622D7492632B00DCC
:100D60003ACF712F7784C31D0169474018220E8640
:100D700088831DE360C738D8311085904321E45043
:100D80004739D4510E7514241D05418839D0710E90
:100D9000749C031D0739C741CC3D83911C41D4414C
:100DA0008E75906321E3608740D8218E7688A31DDD
:100DB000E26848381AE41E770042779D8E02CB0025
:100DC0006A93AA9075B082958C208619874AC6B11D
:100DD000127130441CED104743C2D19070B8231CEF
:100DE000EE084743C2D1907034241C0C11C74AC48A
:100DF000A11471246568232358B9CC65B09211A45D
:100E000034E348CA3856220E8688A321E168483860
:100E1000DCEBB9E75E0D094743C2C19270AC441CDC
:100E2000691187694646B07219EB54685250030045
:100E3000433E9D8E02CB0A998D8BD694AA73958CD6
:100E40002C8219095204B2908034587B9ECB9EFFAD
:100E5000FFFF7BCE7B1AD490803024200B110A4AEE
:100E6000C622189295EB54695A916B26A200443918
:100E70009D8E02CB405A15BA0C5632A28D4D206879
:100E800011C752C2D1907034241CEEF5DCFFFFFF75
:100E90009F7B35241C0D09C752C29116B1096D64A0
:100EA000042B97A990B400451D9D8E02CBE07F20B6
:100EB000AB873DFFFFAC75EC770E7BFEFF2C523FFE
:100EC000F01F880046199D8E02CBE07F20AB873D46
:100ED000FFFFAC75EC770E7BFEFFFF2C0047429DB9
:100EE0008E02CB0A998D8BD694AA73958C2C63199C
:100EF000095204B29080B0A841ED792E7BFE1FAA62
:100F0000BFE7FEBDA7410D09C84A02B292A09C45A9
:100F10002CA311DBD048563073A1261CEB200748C8
:100F2000159D8E02CBE078EEFFFFDFFBC0FF9EFB3E
:100F3000FFFF7B07490B87EE02ADE0FF3F30004A21
:100F4000279D8E02CBF6FCFFFFFFFF679DE77250E7
:100F500083DA21908508052583110BC9CA75AA3447
:100F6000ADC8351351004B8B9D8E02CBE0685043CA
:100F7000C2C19270AC441C0B19874AC6A11072A45E
:100F8000841C28290742CC7112731CE41C263947A3
:100F900049D051907490241D2351C740D621927599
:100FA0000884450C6A8F7B9CF39CD74026B2C5060B
:100FB0003ACF798F7B1CD48E90B02324EC10C93AA1
:100FC00006B28E91A88324E928483A4A820E83A06B
:100FD000C324E738893910620E94942325E450081D
:100FE0003954328E858C6325E26049381A128E9608
:100FF000004C149D8E02CBE0B0E7FFFFFFFFFF3FE8
:10100000FB81FF40044D569D8E02CBE07050833132
:1010100069C9149568C83A368315AC644337B6C0BD
:10102000850FFC034B68821318E18845386211CEA6
:1010300048863392E18C6438E4200E3988430EE20E
:1010400094A238A5284E218C6306E398C13846380F
:10105000CE098E7382E33CF7FFBD034E579D8E028F
:10106000CBE0788F7B1CD4602D621193966C4D6A17
:10107000A6A844A50AD59075AC73192720C609887F
:101080007104521C81146720C419087106421C8225
:101090000C8720C32189700A229C8208C720C13195
:1010A0004870CC756CA82ED1D4DC92B1B806E75E3E
:1010B000EF004F3D9D8E02CBEB988D8BD694AA739B
:1010C000958C2C6319CA5104B210812C24200D6A0E
:1010D000CF73FFFFFFBFF734A821015988401622C4
:1010E00094A38C15C9CA75AA34ADC835F3580050FD
:1010F000469D8E02CB006A93AA90752E83958C2014
:10110000A519475AC4B11271B0241C0D094743C236
:10111000E15ECF3DF76A48381A120E96846325E2E5
:10112000488B404A33328295CB58A7429382DA618A
:10113000CFFFFF6701513D9D8E02CBEB988D8BD683
:1011400094AA73958C2C6319CA5104B290902C24E4
:10115000200D6ACF73FFFFFFBFF734A82101598824
:1011600040162294A38C15C90A66AE731D2B55EB4D
:101170001808527F9D8E02CB006A93AA90752E8329
:10118000958C20A519475AC4B11271B0241C0D09C1
:101190004743C2E15ECF3DF7B8231C0D094743C268
:1011A000C11071AC441C491948694646B07219EB2C
:1011B00054A8868E73A0E320E738C839D0710E8416
:1011C000980321E648873912528E8494431DE550D6
:1011D000083914428E75906321E358C838D8310E0F
:1011E00086888321E26848381A128E8684C33D0EB1
:1011F0000153519D8E02CB0A998D8BD694AA73957B
:101200008C2C8219CA5104B2108130A841ED792E7C
:101210007B58A42216A929AAD065AE4797B93E9A51
:10122000D4A422F6B04845ACF35C0E6A104304B275
:1012300010A11C6530622159B94E95A615B96622D8
:101240000A0054159D8E02CBE07F205A483DECF9F0
:10125000FFFFFFFFFFB70055279D8E02CBE078EE22
:10126000FFFFFFFFFFDED3A08604642102598850F0
:101270008E3256242BD7A9D2B422D7CC6301567C08
:101280009D8E02CBE0788F3BC2D1907034241CED50
:1012900010473B04C28E71B0631C0B19C742C6B124
:1012A0000E82A8A31CEA28873ACA919072A4C32090
:1012B000E838073ACE818E731CE41C07658E74985B
:1012C000231DE6488739D251908410441DE4580705
:1012D00039D6418E7590632102618738DA218E7686
:1012E00088A31DE268907B9CF3DC600B329125574C
:1012F00052992A9A46918AD8430157419ACE02CDF3
:10130000C068EDFFFF4C601A2394A60CA529436921
:1013100048411A52908614A419C768C6319A718C34
:101320004624A211896844229AB0840FFC7FA00A47
:1013300039718DDBB04AAD50677614588A9D8E02A4
:10134000CB006948381A12107608841DE358C83853
:1013500016321075102421E5484841D06190839CD5
:10136000E3A0CC81107320A420E9284842C8A190B2
:1013700081AC63200B11074302D28E80B4C7BD9E9F
:10138000F31AD844166C41C7BDB923200C09084391
:10139000C4C18E812864200A21873A0A8290822063
:1013A000C41C0831073A0E62908318041DE64808F1
:1013B000411242107590632102598840D82110765D
:1013C00088A3410D0159699D8E02CB006948381AE6
:1013D000120E860864210259C83814420E85102462
:1013E000210441883910620E741CC420E830083A88
:1013F0000A921082248420EA18C83A06B21071308A
:101400002420ED08487BDCEB35B01517B948652A78
:1014100034A1484551A4A22852917A54543D2A8AB5
:10142000221545918AD4A3A228525114A9005A4BDF
:101430009D8E02CBE07F20AA08452A42918A50A4C3
:101440002234A1084D2852118A54842215A14845FE
:101450002852118A54842215A148452852118A54D1
:10146000842215A148456842119A50842614A10986
:10147000452A4291FA81FF40045B18916E03CD002A
:101480000A1FF801489DFFFFFFFFFFA90FFC401650
:10149000005C479CAE02CB00A1484528528F8A5081
:1014A000A41E15A1484528AA221455118AAA084548
:1014B000558422F5A808452A425115A1A88A5054FE
:1014C0004528AA221455118AD4A32214A9084555E7
:1014D00084A22A425115A1085D14906E03CDE00F3D
:1014E0004CE9FCFFFFFFFF2F7DE007345E1B97E216
:1014F000F2CB27690B5B56939E8304A420032147FC
:1015000039C6718E80A0035F0A6501EECAE03FE034
:10151000016012CE82DFCBE040C739D00919C984FF
:101520008C64026160218B02D32BA94F8CDED4AA7C
:1015300075A50C2D6339494A0CB210832CC41CEDDF
:1015400030473BCCD10E73B4439F32721556A92B52
:1015500061283B9AD90A57947514A41D0471074158
:10156000DC418E7790E31DE4780741DC41909610D2
:1015700064296429CFF8C4373CD295491C07224618
:101580005AD4006241DD8E02CBE0B0E7FF478E7592
:1015900084065D062B19D1C6269AB18805252159E6
:1015A000484818D420E73CF7FFEF3DEE69118B1651
:1015B00012169484662C6213DAC808562E738406B9
:1015C0001D045100633D1D8B02CBEB988D8BD6948F
:1015D000AA73958C2C63190A4A04B2108130A84171
:1015E000CE792E7BFEBFE7BCC73D0D09084302B292
:1015F00010A1A064AC4856AE53A56945AE998802C7
:10160000006443DD8E02CBF6FCFF16320ED484C399
:101610005C0523D9D0C42696D10405290159494037
:1016200018D420E73CF7FFEF3DEE694840181290D0
:101630009504052962198DD88646B282990B35E149
:1016400058073900653E1D8B02CBEB988D8BD694E5
:10165000AA73958C2C63190A4A04B2108130A841F0
:10166000CE79EEDE07FE67CFB34845DA60105690BC
:1016700044214241C95891AC5CA74AD38A5C338F5C
:1016800005006629DD8E02CBCFA80B741CC4A435DF
:10169000252A25423988410E724EE838873DFF7B66
:1016A000DAD09F3AECF9FFFFBF07006760DD8EC616
:1016B000CA4B4295B90A46B2A113CB58867214910F
:1016C0002844200C6A90739EDB7BDCD3908030240E
:1016D000240A110A4AC68A64E53A559A56B420F695
:1016E000B88422F5B0278B54854A6B4A96C1483698
:1016F00036B18564450D72CE73DEE39E868424295F
:101700006113DBC8CA75AA3435E700682ADD8E028A
:10171000CBE0B0E7FF478E7584065D062B19D1C676
:10172000269AB18805252159484818D420E73CF766
:10173000FFFFFFBD036922CBAE02AB62380639570B
:101740008A0F060E72FEFFFFFF11642024114A501B
:101750004432107214030D6A2A9612C7CC90880680
:101760003CDE192C3EF8CCF1CEFFFFFFFFFFF71C4B
:10177000F418C820211189A00DA940C7494C331085
:10178000006B76DD8E02CBE0B0E7FFE79E868483B8
:1017900025E160883856228E858C4325E348093937
:1017A00012520E94940321E63889390E720E939CDE
:1017B000A324E828483A48920E82A86324EA18C86D
:1017C0003A04C28E90B023242C62D29AD4A4A844A6
:1017D000A50A310141CB40CE3212A314C4A44A72EF
:1017E0009082A084202919C742C6B1127130441CCE
:1017F0002C094743C2E1106C1DCF8E02ADE040E7DB
:10180000FFFFFFFFFF0F210741897182239AC190DB
:10181000A528E8006D86338B02F7E020C73BD61180
:101820009AD4A0AB44061B53C942453E108D0F48C5
:10183000A219D358C4821C9484642D0B090953182F
:10184000D4920639C439EF78CE3B9EF38EE7BCE3E1
:1018500039EF78CE3B9EF38EE7BCE339EF78CE3B91
:101860009EF38EE7BCE339EF78CE3B9EF38EE7BC68
:10187000E339EF78CE3B9EF38EE7BCE339EF78CEC9
:101880003B9EF38EE7BCE339EF78CE3B9EF38EE7C9
:10189000BCE339EF78CE3B9EF34E6E271D8B02CB17
:1018A000E020C73A42832E83958C686313CD58C4D9
:1018B0008292902C24240C6A90739EFBFFFFFFDE23
:1018C000016F3A1D8B02CBEB988D8BD694AA739542
:1018D0008C2C63190A4A04B2108130A841CE79EEEB
:1018E000FFDF7BDCD390803024200B110A4AC68AAC
:1018F00064E53A559A56E49A8928007042DD8EC60E
:10190000CAE020C73A42832E83958C686313CD5872
:10191000C48292902C24240C6A90739EFBFFF71EC5
:10192000F7B488450B090B4A423316B1096D6404BC
:101930002B973942830E82A8C39EFFCF027143DDED
:101940008EC6CAEB20076AC261AE82916C686213D0
:10195000CB6882829480AC24200C6A90739EFBFF3B
:10196000F71EF73424200C09C84A828214B18C4631
:101970006C432359C1CC859A702C641CF6FCFF0083
:10198000721C168B02BDE02052F8C01F68844420F0
:101990000399C721EE78E7FFFFFF7B007342198BA5
:1019A00002C3E980CC7A5274A652114B2C6111C843
:1019B0008912A49CE55A4F44241213F8AC284548D8
:1019C0004A3105B925261189CF725B4F82121290D8
:1019D0009384D5B04655A613A58731EF48007422ED
:1019E000D24E02ADE458E7FF3B1FF8030239D6F9A7
:1019F000FFFFDF4294929AD218E62C4849C93A0078
:101A000075281D8B02CBE078EEFFFFFF7B8F7B1AE2
:101A100012108604642541418A584623B6A191AC30
:101A200060E6424D38D6410E766E1D8B02CBE078D3
:101A30008F7BDC118E8684A31DE2688740D821103D
:101A4000768C6321E3580739D641107510441DE5A3
:101A5000484839D2618E7418041D0641C7390E7288
:101A60004EE8380742CC811073A4A320E928873AB6
:101A7000CAA1107228841CEB18C83AC6C18E7130F6
:101A8000441C0C09483B02D28E70B8231CEEF59C16
:101A9000D7C0B6C8200077C5338B02F7E078C7738C
:101AA000DEF19E9634241C2D6948385AD20E71B44A
:101AB000A41DE2680A3B04B296858C632D0B19C7FE
:101AC0005AD6418EB5AC831C8B510741529390720C
:101AD000A42621E5484D3ACC919A74982339E830F0
:101AE000C8790E728EF31CE49CC2710E749C231C88
:101AF000E740C73902620E8414242005494741C4D7
:101B000051907494631CE5504739C6510E75946327
:101B100020E450C8405BC740C83190758CA31CE3DB
:101B200060C738CA310E768CA320E26048400A12A2
:101B3000907604C41C01694738CE110E7784E31CEB
:101B4000E1704738CEE39EF33C0739AF490D6C5244
:101B5000039BD4C0263591510C020078661D8B0280
:101B6000CB007147381A1210768C63210351473924
:101B7000125210749CE3A0CC918E8224841CEB182A
:101B8000C842C4D18E80B4E739AF894C5CA6329389
:101B90008AA20955E42219D840C73DEE080843C47B
:101BA000C18E8128841CEA280842CC818E831804C7
:101BB0001DE6480841D4418E8508841DE268903BAB
:101BC000007974DD8EC6CAE360C740143210859078
:101BD0004321E4504739D4511084140421E640884D
:101BE00039D0710E741CE41C0731083A0C820E7354
:101BF000A4C31C0929474208A20E82A8831CEB201B
:101C0000C742C6B11081B04320EC10083BC4D1904C
:101C10007034C8BD9CF35CB00599C8922BA94C15D3
:101C20004D51A4A26B42415A211216AD68490C7263
:101C30000E5CE811017A2B1D8B02CBE07F20A2C93C
:101C40004CA632535399693499299ACC144D668A1B
:101C500026334593999ACA4CA3C94CE807FE031151
:101C60007B41D430E7CAAF68C74A949216C4A00536
:101C7000292A592886B0A39DFFC7107630442549EC
:101C800051C942D81011962C85250D694743DAF9C0
:101C9000FF1AC210965ACA62109316A5ACA41DAFC3
:101CA000007C0B47F2E3CAE0FFFF81077D43D3309E
:101CB000E7CA8078464356A294B4A045290B61C870
:101CC00042D8F9FF18B210862C84254B51093BE00D
:101CD000C00E952405250959884216B20E76FEDFFE
:101CE0004229242967410B5252A2906534E2017EB9
:101CF0001AA0624ACB835806424C5338D237BA02F4
:101D000009A52CE84844130A007F07000002CB0015
:101D100000000000C2A700C2A600C2BB00C2AC0007
:101D2000C3B800C2B900C2AE00C2AC00C2AB00C2B0
:101D3000AA00C2A900C2A800C2BF00C2BE00C2BDA4
:101D400000C2BC00C2B700C2B600C2A10000C2AE51
:101D50000060005E00C2A200C2B000C2A500D09424
:101D6000D0BED0B2D0B8D0B6D0B4D0B0D0BDD0B53F
:101D70002E2E2E202020202000C2B1C3B7C2A500E5
:101D8000C2B200C2AF00C2B10034323030306B6D2D
:101D90002028D0A1D0BBD0B5D0B420D181D0BCD127
:101DA0008FD0BDD0B020D0BDD183D0BBD0B8D18032
:101DB000D0B0D0B9D182D0B520D0B4D0B0D0BDD0C1
:101DC000BDD0B8D182D0B52900D092D18AD0B7D0B9
:101DD000B4D183D188D0BDD0B8D18FD18220D18465
:101DE000D0B8D0BBD182D18AD18020D181D0B520CA
:101DF000D181D0BCD0B5D0BDD18F20D0BDD0B02046
:101E0000D0BDD0B0D0B40020D09DD0A3D096D09D6E
:101E1000D09020D0A1D09CD0AFD09DD09020D09297
:101E2000D0AAD097D094D0A3D0A8D095D09D2FD0B1
:101E30009CD090D0A1D09BD095D09D20D0A4D098FC
:101E4000D09BD0A2D0AAD0A02000D0B520D0B7D0AF
:101E5000B020D181D0BCD18FD0BDD0B020283835B2
:101E60003030306B6D2B2900D090D0BDD0B3D180F5
:101E7000D0B5D0BDD0B0D0B6D0B5D0BDD0B8D18F50
:101E8000D18220D180D0B5D0BCD18AD0BA00D09038
:101E9000D09DD093D0A0D095D09DD090D096D09505
:101EA000D09D20D0A0D095D09CD0AAD09A00D09719
:101EB000D0B0D0B4D0BDD0B820D181D0B2D0B5D1BF
:101EC00082D0BBD0B8D0BDD0B82000D09FD180D0B8
:101ED000B5D0B4D0BDD0B820D181D0B2D0B5D182E8
:101EE000D0BBD0B8D0BDD0B800D09DD0B5D180D0B7
:101EF000B0D0B1D0BED182D0B5D189D0B020D0BAC7
:101F0000D180D183D188D0BAD0B020D0B23A00D01D
:101F100098D097D093D09ED0A0D0AFD09BD0902017
:101F2000D09AD0A0D0A3D0A8D09AD09000D09CD0E6
:101F3000BED0BBD18F20D0BFD180D0BED0B2D0B563
:101F4000D180D0B5D182D0B52E00D09DD0B8D0B23E
:101F5000D0BE20D0B520D0BFD0BE2DD0BCD0B0D008
:101F6000BBD0BAD0BE20D0BED1822032352500D021
:101F7000A2D095D0A7D09DD09ED0A1D0A220D0979E
:101F8000D09020D0A7D098D0A1D0A2D090D0A7D068
:101F90009AD09800D0BDD0B020D0B4D0B2D0B8D0B4
:101FA000B3D0B0D182D0B5D0BBD18F20D0B520D0A6
:101FB000B2D0B8D181D0BED0BAD0B02100D0A2D09A
:101FC000B5D0BCD0BFD0B5D180D0B0D182D183D173
:101FD00080D0B0D182D0B02000D09ED09FD090D001
:101FE000A1D09DD09ED0A1D0A220D09FD0A0D0952E
:101FF000D093D0A0D0AFD092D090D09DD09500D02B
:10200000BED185D0BBD0B0D0B4D0B8D182D0B5D0FD
:10201000BBD0BDD0B020D182D0B5D187D0BDD0BE8D
:10202000D181D18200D09FD180D0BED0B2D0B5D1E5
:1020300080D0B5D182D0B520D0BDD0B8D0B2D0BE7E
:10204000D182D0BE20D0BDD0B000D09ED0A5D09B34
:102050002E20D0A1D098D0A1D0A2D095D09CD09045
:1020600000D0BFD180D0B5D0B4D0BDD0B8D182D04F
:10207000B520D181D0BFD0B8D180D0B0D187D0BA6F
:10208000D0B82E202000D098D0B7D0BDD0BED181FE
:10209000D0B2D0B0D0BDD0B520D0BDD0B02000D00F
:1020A000A1D09FD098D0A0D090D0A7D09DD0902084
:1020B000D0A1D098D0A1D0A2D095D09CD09000D063
:1020C000BDD0B520D0B520D0B220D180D0B0D0B115
:1020D000D0BED182D0BDD0B820D0B3D180D0B0D0C6
:1020E000BDD0B8D186D0B800D09DD0B0D0BFD180FF
:1020F000D0B5D0B6D0B5D0BDD0B8D0B520D0BED137
:10210000823A2000D095D09B2E20D0A1D098D0A18B
:10211000D0A2D095D09CD09000D0BCD0BED182D0DF
:10212000BED180D0BDD0BED182D0BE20D0BCD0B078
:10213000D181D0BBD0BE00D09FD180D0BED0B2D094
:10214000B5D180D0B5D182D0B520D0BDD0B8D0B275
:10215000D0BED182D0BE20D0BDD0B000D0A1D09C06
:10216000D090D097D09ED0A7D09DD09020D0A1D095
:1021700098D0A1D0A2D095D09CD09000D0A8D0BEAD
:10218000D184D0B8D180D0B0D0B9D182D0B520D050
:10219000B2D0BDD0B8D0BCD0B0D182D0B5D0BBD039
:1021A000BDD0BE002000D097D090D09BD095D094C9
:1021B000D0AFD092D090D09DD098D0AF20D09FD02B
:1021C0009E20D09FD0AAD0A2D0AF0020D09DD0B565
:1021D00020D0B8D0B7D0BFD180D0B0D0B2D0BDD091
:1021E000BED181D18220D0BDD0B020D0BAD180D193
:1021F00083D188D0BAD0B00020D09ED0BFD0B0D18B
:1022000081D0BDD0BED181D18220D181D18AD0BD33
:10221000D0BBD0B8D0B2D0BED181D182200020D0E6
:102220009DD0B0D0BFD180D0B0D0B2D0B5D182D007
:10223000B520D0BFD0BED187D0B8D0B2D0BAD0B040
:1022400000D098D0B7D0BFD0BED0BBD0B7D0B2D01E
:10225000B0D0B9D182D0B520D181D0BFD0B8D18093
:10226000D0B0D187D0BAD0B0D182D0B020D0B7D042
:10227000B020D0BAD180D0B0D0B900D098D0B7D0EB
:10228000B3D0B0D181D0B5D182D0B520D0B4D0B246
:10229000D0B8D0B3D0B0D182D0B5D0BBD18F20D000
:1022A000B7D0B020D0B7D0B0D0BFD0B0D0B7D0B2B8
:1022B000D0B0D0BDD0B52E00D0A0D095D097D0A3AF
:1022C000D09BD0A2D090D0A200D09AD09ED09DD04A
:1022D000A1D0A3D09CD090D0A6D098D0AF00D09E53
:1022E000D094D09ED09CD095D0A2D0AAD0A000D01F
:1022F0009ED091D09ED0A0D09ED0A2D09820D09237
:1023000020D09CD098D09D2E00D0A1D09AD09ED025
:10231000A0D09ED0A1D0A220D09DD09020D09AD085
:102320009ED09BD09020535045454400D098D0B7C4
:10233000D0BFD0BED0BBD0B7D0B2D0B0D0B92022A1
:10234000523C2220D0B7D0B020D0BFD180D0BED058
:10235000BCD18FD0BDD0B000D098D0B7D0BFD0BE48
:10236000D0BBD0B7D0B2D0B0D0B92022533C2220BD
:10237000D0B7D0B020D0BDD0B0D0B2D0B8D0B3D0CC
:10238000B0D186D0B8D18F2000D09DD0B0D182D02E
:10239000B8D181D0BDD0B5D182D0B52022533C2256
:1023A00020D0B7D0B020D0BFD180D0BED0BCD18F8C
:1023B000D0BDD0B00041726475696E6F4D49442044
:1023C000D0B2D0B5D180D181D0B8D18F2000D097F4
:1023D000D0B020D0BDD0BED0B2D0B820D0B2D0B511
:1023E000D180D181D0B8D0B83A207777772E67697D
:1023F000742E696F2F76486C6B6400D097D0B0D084
:10240000B4D180D18AD0B6D182D0B5203E5220D06E
:10241000B820D0BDD0B0D182D0B8D181D0BDD0B598
:10242000D182D0B520D181D0BFD0B8D180D0B0D1A9
:1024300087D0BAD0B0D182D0B02000D097D0B02011
:10244000D0BDD183D0BBD0B8D180D0B0D0BDD0B5B5
:1024500020D0BDD0B020D0BFD18AD182D183D0B21C
:10246000D0B0D0BDD0B5D182D0BE00D097D090D062
:1024700092D09ED094D0A1D09AD09800D0A2D095DE
:10248000D09AD0A3D0A9D09E00D09DD090D0A1D07A
:10249000A2D0A0D09ED099D09AD09800D098D09DAC
:1024A000D0A1D0A2D0A0D0A3D09CD095D09DD0A2B6
:1024B000D09800D09ED0A2D09DD09ED0A1D09DD04B
:1024C0009E00D09ED091D0A1D09BD0A3D096D09288
:1024D000D090D09DD09500D093D09ED0A0D098D051
:1024E00092D09000D09FD0AAD0A2D0A3D092D0906A
:1024F000D09DD098D0AF00D09DD090D0A7D090D014
:102500009BD09E00D098D0B7D0B3D0BED180D0B5EC
:10251000D0BBD0B800D098D0B7D0BDD0BED181D07C
:10252000B5D0BDD0B80020202020202020204000A1
:102530002020202020202020C2A3200020D09DD0B9
:10254000B8D0B2D0BE20D0BCD0BED182D0BED18057
:10255000D0BDD0BE20D0BCD0B0D181D0BBD0BE3A8F
:102560002000D0A2D0B5D187D0BDD0BED181D1823C
:1025700020D0B7D0B020D187D0B8D181D182D0B00F
:10258000D187D0BAD0B83A2000D09ED185D0BBD068
:10259000B0D0B4D0B8D182D0B5D0BBD0BDD0B020EF
:1025A000D182D0B5D187D0BDD0BED181D1823A20E1
:1025B00000202020D09FD180D0B5D0B4D0BDD0B8DD
:1025C0002020D0BDD0B0D0BAD0BBD0B0D0B4D0BA1B
:1025D000D0B83A2000D09FD180D0B5D185D0BED020
:1025E000B42000D0B4D0BE20D181D0BBD0B5D0B4FF
:1025F000D0B2D0B0D189D0B8D18F20D0BFD18AD1BC
:10260000822100000326E325D525B12589256225F1
:102610003C253025262515250425F724E424D72438
:10262000C224B3249C2489247C246B243B24FB23D4
:10263000CE23B523892358232C230923EF22DE221E
:10264000C922B8227B2241221E22F821CB21A621B9
:10265000A4217C215C21372119210421E820BF20FD
:102660009F20862061204A202520FF1FD91FBD1FE3
:10267000941F6F1F4A1F2D1F0F1FE91ECB1EAE1E7A
:102680008E1E681E4A1E071EC91D891D861D831DBC
:10269000801D791D5E1D5B1D581D551D531D511D4F
:1026A0004E1D4D1D4A1D471D441D411D3E1D3B1D18
:1026B000381D351D321D2F1D2C1D291D261D231DC6
:1026C000201D1D1D1A1D171D141D1800300060004F
:1026D0006C00E600F302BF038F03C701D6000000C1
:1026E00000000000000000000000000000000000EA
:1026F00000000000000000000000000000000000DA
:1027000000000000000000000000000000000000C9
:1027100000000000000000000000000000000000B9
:1027200000000000000000000000000000000000A9
:10273000000000000000000000000000E0FF0700B3
:1027400000000000000000E0FF07000000000000A3
:102750000000E0FF07000000000000000080C3014F
:10276000000000000000000080C301000000000025
:1027700000000080C30100000000F8FFFFFFFFC35E
:102780007F00000000F8FFFFFFFFC37F0000000094
:10279000F8FFFFFFFFC37F00000000F8FFFFFFFF0F
:1027A000C37F000000003800000000007800000037
:1027B0000038000000000078000000803F000000AA
:1027C000000078000000803F00000000007800005A
:1027D00000803F000000000078000000803F000003
:1027E00000000078000000000000000000007800F9
:1027F00000000000000000000078000000803F00A2
:102800000000000078000000803F00000000007819
:10281000000000803F000000000078000000803FC2
:1028200000000000007800000000380000000000F8
:102830007800000000380000000000780000000070
:1028400038000000000078000000003800000000A0
:102850000078000000003800000000007800000050
:102860000038000000000078000000003800000080
:102870000000780000000038000000000078000030
:1028800000003800000000007800000000380CC094
:102890000004407800000000381EE0010EE07800DF
:1028A000000000383FF0031FF07900000000B87FFF
:1028B000F8873FF87B00000000F8FFFFFFFFFF7F75
:1028C00000000000F8FFFFFFFFFF7F00000000F89E
:1028D000FFFFFFFFFF7F00000000F8FFFFFFFFFF8B
:1028E0007F00000000F8FFFFFFFFFF7F00000000F7
:1028F000F8FFFFFFFFFF7F00000000F8FFFFFFFF72
:10290000FF7F00000000F8FFFFFFFFFF7F000000D7
:1029100000F8FFFFFFFFFF7F00000000F8FFFFFF50
:10292000FFFF7F00000000F8FFFFFFFFFF7F0000B8
:102930000000F8FFFFFFFFFF7F0000000000000025
:102940000000000000000000000000000000000087
:102950000000000000000000000000000000000077
:102960000000000000000000000000000000000067
:102970000000000000000000000000000000000057
:102980000000000000000000000000000000000047
:1029900000000000000000000000000000005600E1
:1029A0000000000000000000000000000000000027
:1029B0000000000000000000000000000000000017
:1029C0000000000000000000000000000000000007
:1029D00000000000000000000000000000000000F7
:1029E00000000000000000000000000000000000E7
:1029F00000000000000000000000000000000000D7
:102A000000000000000000000000000000000000C6
:102A10000000000000000000000000F07F0000C087
:102A2000FF0100000000F07F0000C0FF0100000077
:102A300000F07F0000C0FF0100000000F07F0000F8
:102A4000C0FF0100000000F07F0000C0FF01000097
:102A500000FEFFFFFFFFFFFFFF1F0000FEFFFFFF65
:102A6000FFFFFFFF1F0000FEFFFFFFFFFFFFFF1F35
:102A70000000FEFFFFFFFFFFFFFF1F0000FEFFFF44
:102A8000FFFFFFFFFF1F0000FEFFFFFFFFFFFFFF35
:102A90001F00003E000000000000001F00003E007C
:102AA0000000000000001F00003E000000000000C9
:102AB000001F00003E000000000000001F00003E5C
:102AC000000000000000001F00003E0000000000A9
:102AD00000001F00003E000000000000001F00007A
:102AE0003E00000000001E001F00003E000000002D
:102AF000001E001F00003E00000000001E001F001E
:102B0000003E00000000001E001F00003E0000000C
:102B100000001E001F00003EF8FF0000F0FF031F32
:102B200000003EF8FF0000F0FF031F00003EF8FF2A
:102B30000000F0FF031F00003EF8FF0000F0FF035D
:102B40001F00003E00000000001E001F00003E00AD
:102B5000000000001E001F00003E00000000001EDC
:102B6000001F00003E00000000001E001F00003E8D
:102B700000000000001E001F00003E0000000000DA
:102B800000001F00003E000000000000001F0000C9
:102B90003E000000000000001F00003E000000009A
:102BA0000000001F00003E000000000000001F00A9
:102BB000003E000000000000001F0000FEFFFFFFBD
:102BC000FFFFFFFF1F0000FEFFFFFFFFFFFFFF1FD4
:102BD0000000FEFFFFFFFFFFFFFF1F0000FEFFFFE3
:102BE000FFFFFFFFFF1F0000FEFFFFFFFFFFFFFFD4
:102BF0001F0000FEFFFFFFFFFFFFFF1F00000000A0
:102C000000000000000000000000000000000000C4
:102C100000000000000000000000000000000000B4
:102C200000000000000000000000000000000000A4
:102C30000000000000000000000000000000000094
:102C40000000000000000000000000000000000084
:102C50000000000000000000000000000000000074
:102C60000000000000000000000000000000000064
:102C70000000000000000000000000000000000054
:102C80000000000000000000000000000000000044
:102C90000000000000000000000000000000000034
:102CA0000000000000000000000000000000000024
:102CB0000000000000000000000000000000000014
:102CC0000000000000000000000000000000000004
:102CD00000C0FF030000000000001E00C0FF07004E
:102CE0000000000000FE00C0FF07000000600000C0
:102CF000FF07C0FF07000000FC0000FF3FC0FF030C
:102D0000000080FF0000FFFF00FE000000C0FF0089
:102D100080DFFF03FE000000FCFF00801FFF03FEBA
:102D2000000080FF7F00800FFCFFFF7F00F0FF0F9F
:102D300000C00FE0FFFFFF01FEFF0300C03FE0FF08
:102D4000FFFFC3FFFF0300C0FFE0FFFFFFFBFFFF2C
:102D50000100C0FFF3FFFFFFFFFFFE000000FFFFC9
:102D6000FFFFFFFF0F7F000000F8FF070080FF81DB
:102D70003F000000C0FF0700003F801F0000000070
:102D8000FE07000006C00F00000000F00700000072
:102D9000E00700010000E007000000F00300010070
:102DA00000E007000000F80380030000E0070000D7
:102DB00000FC0180030000E007000000FC0080032D
:102DC0000000E007000000FE00C0070000E0070070
:102DD00000007F00C0070000E0070000803F00C047
:102DE000070000E0FFFFFFFF1F00C0070000E0FF3B
:102DF000FFFFFF0F0080030000E0FFFFFFFF070061
:102E000000000000C0FFFFFFFF030000000000C043
:102E1000FFFFFFFF030000000000000000000000B3
:102E200000000000000000000000000000000000A2
:102E30000000000000000000000000000000000092
:102E40000000000000000000000000000000000082
:102E50000000000000000000000000000000000072
:102E60000000000000000000000000000000000062
:102E700000F0017C001FC007F0010000FC0FFFC341
:102E8000FFF03FFC0F0000FFFFFFFFFFFFFFFF3FD2
:102E90000000FFFFFFFFFFFFFFFF3F0000FFFFFFFE
:102EA000FFFFFFFFFF3F0000FFFFFFFFFFFFFFFFF0
:102EB0003F000007F0017C001FC007300000000049
:102EC0000000000000000000000000000000000002
:102ED00000000000000000000000000000000000F2
:102EE00000000000000000000000000000000000E2
:102EF00000000000000000000000000000000000D2
:102F000000000000000000000000000000000000C1
:102F100000000000000000000000000000000000B1
:102F200000000000000000000000000000000000A1
:102F30000000000000000000000000000000000091
:102F40000000000000FCFF00000000000000000086
:102F5000FEFF010000000000001800FEFF016000FD
:102F6000000000003C001EE001F000000000007EB8
:102F7000001EE001F80100000000FC001EE001FC62
:102F80000000000000F8011EE0017E0000000000CB
:102F9000F0033EF0013F0000000000E001FEFF01F1
:102FA0001E0000000000C000FEFF010C0000000039
:102FB0000000C0FFFF0F00000000000000E0FFFF66
:102FC0001F00000000000000F0FFFF3F00000000B5
:102FD000000000F81FE07F00000000000000FC0778
:102FE00080FF00000000000000FC0100FE00000067
:102FF00000000000FE0000FC010000000000007F57
:103000000003F8030000000000003F8007F0030009
:1030100000000000801FC00FE007000000000080DB
:103020001FC00FE0070000000000C00FC00FC00F5E
:103030000000000000C00FC00FC00F000000000023
:10304000C00F8007C00F00000000FFC1078007808D
:103050000FFE030000FFC1078007800FFE03000082
:10306000FFC1078007800FFE030000FFC1070003B8
:10307000800FFE030000FFC1070003800FFE030066
:103080000000C0070003800F0000000000C00F0018
:1030900003C00F0000000000C00F0003C00F0000BD
:1030A000000000800F0000C0070000000000801F2B
:1030B0000000E0070000000000001F0000E0030027
:1030C00000000000003F0003F003000000000000CB
:1030D0007E0003F801000000000000FE0000FC017B
:1030E000000000000000FC0300FF000000000000E2
:1030F00000F80FC07F00000000000000F03FF03F2C
:1031000000000000000000F0FFFF3F000000000092
:103110000040C0FFFF0F080000000000E000FFFFBC
:10312000031C0000000000F001FEFF013E00000053
:103130000000F801E01F007E0000000000FC00001D
:103140000000FC00000000007E00000000F801000C
:103150000000003E00000000F001000000001C0024
:10316000000000E0000000000008008007004000B0
:1031700000000000000080070000000000000000C8
:103180000080070000000000000000008007000031
:1031900000000000000000800700000000000000A8
:1031A0000000800700000000000000000080070011
:1031B0000000000000000000800700000000000088
:1031C0000000008007000000000000000000000078
:1031D00000000000000000000000000000000000EF
:1031E00000000000000000000000000000000000DF
:1031F00000000000000000000000000000000000CF
:1032000000000000000000000000000000000000BE
:1032100000000000000000000000000000000000AE
:10322000000000000000000000000000000000009E
:10323000000000000000000000000000F0FF00009F
:1032400000000000001800FEFF07800100000000E1
:103250003C80FFFF1FC003000000007CE0FFFF7FF9
:10326000E003000000003EF8FFFFFFC10700000080
:10327000001FFC1F80FF830F000000801FFE030063
:10328000FC871F000000800FFE0100F8071F0000F0
:1032900000C0077F0000E00F3E000000C0873F0035
:1032A0000FC01F3E000000E0C31F000F803F7C00E6
:1032B0000000E0C30F000F003F7C000000F0E107BA
:1032C000000F007EF8000000F0E103000F007CF822
:1032D000000000F8F003000F00FCF001000078F09F
:1032E00001000F00F8E001000078F800000F00F086
:1032F000E101000078F800000F00F0E10100007823
:10330000F800000F00F0E101000038F800000F00A5
:10331000F0C10100003C7800000F00E0C103000094
:103320003C7800000F00E0C10300003C7800000F73
:1033300000E0C10300003C7800000F00E0C1030082
:10334000003C7800000F00E0C10300003C78000062
:103350000F00E0C10300003C7800000F00E0C10353
:1033600000003CF800000F00F0C10300003CF80032
:10337000000F00F0C103000038F800000F00F0C19A
:1033800001000078F800000F00F0E101000078F083
:1033900001000000F8E001000078F001000000F8F2
:1033A000E0010000F0F003000000FCF0000000F07D
:1033B000E1070006007EF8000000F0E107000F00C2
:1033C0007EF8000000E0C30F801F003F7C0000007B
:1033D000E0831F801F801F7C000000C0873F000F1C
:1033E000C01F3E000000C0077F0006E00F3E000047
:1033F00000C00FFE0100F8073F000000801FFC071F
:1034000000FE831F000000003FF87FE0FFC10F00B7
:103410000000003EF0FFFFFFC007000000007CC07E
:10342000FFFF3FE003000000003880FFFF1FC001E6
:10343000000000001800FCFF0380010000000000F5
:1034400000801F00000000000000000000000000DD
:10345000000000000000000000000000000000006C
:10346000000000000000000000000000000000005C
:10347000000000000000000000000000000000004C
:10348000000000000000000000000000000000003C
:10349000000000000000000000000000000000002C
:1034A000000000000000000000000000000000001C
:1034B000000000000000000000000000000000000C
:1034C00000000000000000000000000000000000FC
:1034D00000000000000000000000000000000000EC
:1034E000000000000000001F0000000000000000BD
:1034F00000803F000000000000000000803F00004E
:1035000000000000000000803F00000000000000FC
:103510000000803F000000000000000000803F002D
:103520000000000000000000803F000000000000DC
:1035300000000080FFFF030000000000000080FF8B
:10354000FF030000000000000080FFFF03000000F8
:103550000000000080FFFF0300000000000000806A
:103560003F000000000000000000803F000000005D
:103570000000000000803F0000000000000000008C
:10358000803F00000000000000000080FFFF0300FB
:1035900000000000000080FFFF03000000000000AA
:1035A0000080FFFF030000000000000080FFFF0319
:1035B00000000000000000803F000000000000004C
:1035C0000000803F000000000000000000803F007D
:1035D0000000000000000000803F0000000000002C
:1035E000000000803F00000000000000000080FF9D
:1035F000FF030000000000000080FFFF0300000048
:103600000000000080FFFF030000000000000080B9
:10361000FFFF0300000000000000803F00000000EA
:103620000000000000803F000000000000000000DB
:10363000803F000000000000000000803F0000000C
:10364000000000000000C07F000000000000E07CDF
:1036500000C07F00C0E7000000FCFF07E0FF00FCA7
:10366000FF070000FCFF7FE0FFC0FFFF070000FC3A
:10367000FFFFE0FFE0FFFF070000F88FFFC07FE0E3
:103680003FFE0300000000F8C07FE00300000000E0
:10369000000000803F000000000000000000000E5D
:1036A000000000000000000000000000000000001A
:1036B000000000000000000000000000000000000A
:1036C00000000000000000000400000000000400F2
:1036D0000000001E001E000F000F000000003E80D2
:1036E0007FC03F800F00000000FCE0FFFFFFE0070D
:1036F00000000000F8FFFFFFFFFF0300000000F0E4
:10370000FFF3FFF9FF0100000000C07FC07FC07F12
:103710000000000000001F803F001F0000000000AC
:103720000000000E0000000000000000000000008B
:103730000000000000000000000000000000000089
:103740000000000000000000000000000000000079
:103750000000000000000000000000000000000069
:103760000000000000000000000000000000000059
:103770000000000000000000000000000000000049
:103780000000000000000000000000000000000039
:1037900070700000000000000000087070800000E1
:1037A00000000000001C78F0C001000000000000D4
:1037B0003E3CE0E1030000000000003C3CE0E10191
:1037C0000000000000007C1EC0F3010000000000AB
:1037D00000781EC0F300000000000000F00F807FA2
:1037E00000000000000000F00F807F0000000000DB
:1037F00000F0FF0700FF7F0000000000F8FF03005B
:10380000FEFF0000000000F8FF0300FEFF000000C4
:103810000000F0FF0700FF7F0000000000008007AD
:10382000000F00000000000000000F8007000000F3
:1038300000000000000F80070000000000000000F2
:103840001EC00300000000000003001EC0030006AD
:103850000000008003003CE001000E000000800733
:10386000007CF001000F000000000F0078F00080E5
:1038700007000000000F00F8F800800700000000BB
:103880001F00F07800C007000000001E00F07D005F
:10389000C003000000003E00E03F00E00300000025
:1038A000003C00E03F00E001000000007C00C01F81
:1038B00000F001000000F8FFFFFFFFFFFFFF000026
:1038C00000F8FFFFFFFFFFFFFF000000F8FFFFFF12
:1038D000FFFFFFFF000000F8FFFFFFFFFFFFFF00FB
:1038E0000000007C00E03F00F001000000003E000E
:1038F000E03F00E003000000001E00F07D00C00378
:10390000000000001F00F07800C007000000000F5A
:103910000078F0008007000000800F0078F0008041
:103920000F0000008007003CE001000F000000C015
:1039300003003EE003001E0000008001001EC003E3
:10394000000C0000000000000F80070000000000D5
:103950000000000F8007000000000000008007004A
:103960000F00000000000000C007001F0000000062
:103970000000F8FF0300FEFF0000000000F8FF0356
:1039800000FEFF0000000000F8FF0300FEFF000043
:1039900000000000F80700FF00000000000000F831
:1039A0000700FF00000000000000780F80F7000013
:1039B00000000000003C0E80E30100000000000059
:1039C0003C1EC0E3010000000000001E3CE0C103FB
:1039D0000000000000001E3CE0C1030000000000E9
:1039E000000C78F080010000000000000038E000CA
:1039F0000000000000000000104000000000000077
:103A000000000000000000000000000000000000B6
:103A100000000000000000000000000000000000A6
:103A20000000000000000000000000000000000096
:103A30000000000000000000000000000000000086
:103A40000000000000000000000000000000000076
:103A50000000000000000000000000000000000066
:103A60000000000000000000000000000000000056
:103A7000E001003C00000000000000FC39E0FC0117
:103A8000000000000000FE79F0FC030000000000D0
:103A900000FFF9F8FC070000000000001FF8FDC05F
:103AA0000700000000000006F07F00030000000097
:103AB000004000C01F00100000000000E001C01F17
:103AC000003C0000000000E001800F003C0000000E
:103AD0000000E0010007003C0000000000F00000D2
:103AE0000000780000000000F000800F0078000067
:103AF0000000000000800F00000000000000000037
:103B0000C01F000000000000000080FFFF0F000049
:103B10000000000000F8FFFFFF00000000000000B0
:103B2000FEFFFFFF030000000000C0FF9FCFFF1F4C
:103B30000000000000F0FF800FF87F000000000090
:103B4000F80F000780FF0000000000FE03000000E7
:103B5000FE03000000007F00000000F007000000EE
:103B6000C03F00800F00E01F000000E00F00800F4A
:103B700000803F000000F00300800F00007E000086
:103B800000F80100800F0000FC000000FC00008035
:103B90000F0000F80100007C0000800F0000F00121
:103BA00000007C0000800F0000F0010000FC00001D
:103BB000800F0000F8010000F80100800F0000FCF9
:103BC000000000F00300000000007E000000E0079D
:103BD00000000000003F000000C00F00800F0080C8
:103BE0001F000000801F00800F00C00F00000000B9
:103BF0003F00800F00E007000000007E00800F0003
:103C0000F00300000000FC00800F00F8010000003D
:103C100000F801000000FC0000000000F0030000BC
:103C2000007E0000000000E007800F003F00000061
:103C30000000C00FF8FF801F0000000000801FFE82
:103C4000FFC30F000000000000BFFFFFEF070000F0
:103C500000000000FEFFF8FF03000000000000FC71
:103C60000F80FF01000000000000F80300FE0000CC
:103C70000000000000F001007C00000000000000D7
:103C8000E00000380000000000000000000000001C
:103C90000000000000000000000000000000000024
:103CA0000000000000000000000000000000000014
:103CB0000000000000000000000000000000000004
:103CC00000000000000000000000000000000000F4
:103CD00000000000000000000000000000000000E4
:103CE00000002200250028002B002E0031003400A7
:103CF00002010000050108010B010200000A0B028D
:103D0000090C0D0E0807030401000000000000006C
:103D100000000000000000000000000000000000A3
:103D20000000000000000012111000000000000060
:103D30000000000000000000000000000000000083
:103D4000000A3D3D3D3D3D3D3D3D3D3D3D3D3D3D13
:103D50003D3D3D3D3D3D3D3D3D3D3D3D3D3D3D3D93
:103D60003D3D3D3D3D3D3D3D3D3D3D3D3D3D3D3D83
:103D70003D3D3D3D3D3D3D3D3D3D3D3D3D3D3D3D73
:103D80000A0A000A0A3D3D3D3D3D3D3D3D3D3D3D6C
:103D90003D3D3D3D3D3D3D3D3D3D3D3D3D3D3D3D53
:103DA0003D3D3D3D3D3D3D3D3D3D3D3D3D3D3D3D43
:103DB0003D3D3D3D3D3D3D3D3D3D3D3D3D3D3D3D33
:103DC0003D3D3D0A003E20003E200073746F7000B0
:103DD00064626700536574732054726970204320D5
:103DE00072616E6765200053657473205472697048
:103DF0002043206675656C200053657473205472EF
:103E0000697020422072616E67652000536574738B
:103E100020547269702042206675656C20005365DD
:103E20007473205472697020412072616E6765203E
:103E30000053657473205472697020412066756563
:103E40006C200053415645442074726970206461AF
:103E500074612000547269702064697374616E63C8
:103E6000652000576865656C2053696D756C6174D9
:103E70006520726573697374616E636520005361B8
:103E800076656420416C6C206461746120616E64AD
:103E900020726573657474696E672E2E2E005361EF
:103EA00076656420416C6C2064617461200053610C
:103EB00076656420576F726B2064697374616E63FA
:103EC00065200050617373696E672076616C75655B
:103ED00020746F2063617253656E7320647269761B
:103EE00065720045435520636F7272656374696F34
:103EF0006E200044535420636F7272656374696F5F
:103F00006E200056535320636F7272656374696F3D
:103F10006E2000576F726B2064697374616E636505
:103F2000200054726176656C2064697374616E63FD
:103F3000652000424E5A206675656C2000626E7ADC
:103F4000004C5047206675656C20006C706700203F
:103F50004E6F6E65202E2E2E20536F7272792120A7
:103F600000005EBCE2613FDD83C29C7E20A3FD1F9A
:103F7000419DC3217FFCA2401E5F01E3BD3E6082E4
:103F8000DC237D9FC1421CFEA0E1BF5D0380DE3CBF
:103F900062BEE0025CDF81633D7C22C09E1D43A1C6
:103FA000FF4618FAA427799BC584DA3866E5BB5921
:103FB00007DB856739BAE406581947A5FB7826C49C
:103FC0009A653BD987045AB8E6A7F91B45C6987A83
:103FD00024F8A6441A99C7257B3A6486D85B05E77E
:103FE000B98CD2306EEDB3510F4E10F2AC2F7193ED
:103FF000CD114FADF3702ECC92D38D6F31B2EC0E4C
:1040000050AFF1134DCE90722C6D33D18F0C52B056
:10401000EE326C8ED0530DEFB1F0AE4C1291CF2D2D
:1040200073CA947628ABF517490856B4EA6937D5B0
:104030008B5709EBB536688AD495CB2977F4AA4813
:1040400016E9B7550B88D6346A2B7597C94A14F60A
:10405000A8742AC896154BA9F7B6E80A54D7896BF5
:1040600035000020002300260029002C002F0032FC
:10407000000001000003010601090105050505070F
:104080000508080808020202020A0A0808040404D3
:1040900004010101010101010103030303030303FF
:1040A00003040707070C0C0C0C0C0C0C0C0202028E
:1040B0000206060606060606060B0B0B0B0B0B0B81
:1040C0000B01021020200808102040102040800220
:1040D000010201080402010102040810204080804E
:1040E00040201008040201800402018040201008D2
:1040F00004020108040201010204081020408001AA
:1041000002040810204080AB0003030404030406EB
:104110001310FCFD09FD0AFE018B03300A41200546
:1041200000CC112107A2C4114F04220843ED121143
:104130002D0123158AC4B594A0842629492294D13F
:104140004812914986120124138AC4D593A084266B
:104150009B896892518826994E00251498C434A2F0
:104160002CA190501207842342514A284902261359
:1041700098443443514C141C8A622235896C42891C
:1041800000270641ED1104280DC43452129144A4B5
:1041900037914C00290DC4331232914CA41791442D
:1041A000042A0733FD13911C2B0A55D553C15029FE
:1041B00018022C0842B4111409002D0614DC120454
:1041C0002E0622C411042F0BB43C525A44BA8894D0
:1041D00000300B96C43314113F492800310893C5B1
:1041E00053918A3E320B96C4339498509B360333D6
:1041F0000E96C433949850692A9C4928003410972D
:10420000C49352E12C220A894292A35402350F969C
:10421000C45324999014120A67120A00360C96C4EB
:1042200073DA2A224E120A00370E97C41347A95098
:104230002A940AA54200380E96C43314119384229E
:1042400062925000390C96C433141127094D230093
:104250003A0762C41144023B0982B411448A040043
:104260003C0A745573218969240B3D0734DD1344DE
:10427000023E0B74551331D1C8228A013F0FA54469
:104280003393904C69329243642200401EBCC416A2
:10429000A24928251A524A8D842872444945129B06
:1042A0004546A1491C14395000411199449571C0EB
:1042B000782A114A644A17295500420D974414166A
:1042C00019DB49C6768800430C97445424D95467B7
:1042D000598802440D98C414269944C837890900A6
:1042E000450B96C41387A06245A868460C96C41374
:1042F00087A06245A81100470F98C45425E158C90A
:104300004894C8441500480B98C414428E8722472D
:1043100001490792C4110F044A0894C452FAA90231
:104320004B1298C414429A44A422234A6422358929
:1043300050004C0896C41342FD684D14994435D181
:10434000904C32BB1C2296096542999042024E1055
:10435000994415616AD146119124346355004F0D7B
:10436000994455351529AF1299AC04500C96C413D5
:104370001511D345A81100510FB93455351529AF82
:104380001299AC283E0452129744142515914424E6
:104390002949442A22894C00530D96C43314D970FC
:1043A000485C935000540996C41326A17E02550C14
:1043B00098C414427E9488642400561299C41452FE
:1043C000AA442692A90825D2F11C100457189B4430
:1043D00016B2186924914C449289EC109B0C27D397
:1043E00058381603581099C41452894C453A5E95B2
:1043F000C854A402590D98C4144289481B55AC1BDB
:10440000005A0C98C4345765A9B2547A085B08A3C3
:104410003C1215FD325C0CB53B1232A14C6DA6511D
:10442000265D08A33C1213FD525E10854C33939811
:1044300024228B244562C110005F0617B413076065
:104440000F86CC1337494426944922928300610990
:104450006645344B9C2405620CA64514428D15110B
:10446000A70B00630A64453395914A6400640AA669
:104470004594BA9C38490A650A65C5331309C522B3
:1044800024660CA5C47222351149A61300670C9648
:104490002D344B9C24C5D18402680BA64514428D53
:1044A00015114F02690892C411A443016A0AC4ABF2
:1044B00051CA227D51026B0DA6C513429D2812924E
:1044C0004427016C07A2C4110F066D0E68C51517AD
:1044D000158A8422A148280A6E0966451415114FD1
:1044E000026F0B664534141127090500700C962DD8
:1044F00014918988D345A808710A962D344B9C24C1
:10450000450D720A64C512128A4813007309644586
:1045100033A5A50A00740B85C452315145A651023A
:104520007509664514229E2405760D67C4133289E9
:104530009244369CC6007710694415A21065223952
:104540004D6612612C04780C67C4133289DA702628
:104550005113791097AC13328948A2461B0E85433C
:1045600021007A0A66C413364599CC007B0CC4B48A
:1045700052129116994837017C07D1AD1107037D7E
:104580000DC4B41232913689481711007E0826DC1A
:1045900033221500A00500CC11A1138D449775C0DE
:1045A000647A90552A8743E550391C0AA20B854C42
:1045B00053A291A8A49608A317A9CD56B568240EB6
:1045C000904684124944249989829168AC04A418C5
:1045D000A9CD56B568240E104542B2982C268A847F
:1045E000E48048345602A5148ACC35A1584492FF81
:1045F000148B4323A1484814C90FA622CCC476715A
:1046000058240E8A44C473D0240E184732455226CB
:1046100011516412994426E1581C3207A721CCC4D9
:1046200076A169240E8A44C473D0240E184E324EEB
:1046300026A18864921699846371C81C00A81BBBCC
:10464000C516C19458D6F038428C842492682C1A2E
:104650000CA5C424B2383000A920BBC536A1482817
:10466000228B89B246D2526291D9241689A5A4869A
:104670009264314928128A00AA16BBC516C1945803
:10468000D6F01C5093546475C0381ACB124CAB163C
:10469000A94C5511D2F02092CA01922C922C922C46
:1046A0007240E402AC0A55DD13D194986800AD065F
:1046B00014DC1204AE15AB44F6B0D050C474181D0F
:1046C000469611932C328D0D01AF1159CD157148BD
:1046D0005224228A442459246901B00F97CB33C253
:1046E000502C141409C3D90102B109544D5392BC82
:1046F0008802B20A53CD121195882800B30A63CDFF
:1047000012A19024A212B408524D12914C01B50B83
:1047100096AD13229E0E434500B619CB3C5691D45C
:10472000506A2C8E743B4C0E92C8295411CE910EB7
:104730001300B712A7C4532149622422499C8466FE
:10474000A5B61900B80833AD32A20900B90C8544EA
:104750003393984ACA682D04BA0A44F432929028D6
:104760002201BB17A94C15074928E9120748B2488E
:10477000B248B2C8019168E420BC11994415D2DA5C
:1047800064AD2C9588289334A300BD0EA944D5624E
:10479000AA1C40244E37CB01BE18AAC435E34A2CCC
:1047A00045140B494A1193A41432452A29A5100037
:1047B000BF198F449877401C108BC44191C8C11415
:1047C0003A85A8A483690E9800C014C9C47472887D
:1047D0001C290E184F2542894CE922A50AC113C98C
:1047E000C4B46239521C309E4A841299D2454A158B
:1047F000C215C9C4947140248E14078CA712A14419
:10480000A674915205C315C9C4749260448E1407EE
:104810008CA712A144A674915205C415C9C45412A0
:10482000A1448E12078CA712A144A674915205C50B
:1048300017D9C4947140240E88A3C501E3A9442864
:1048400091295DA45401C60F9A459636325522959A
:1048500090146DDA0AC70FC72C5424D954675988AD
:10486000280ECA00C80EC6C4335239E41054AC082E
:10487000150DC90DC6C473EA904350B1225434CA11
:104880000FC6C473C1481C70082A56848A06CB0D13
:10489000C6C4333A1F828A15A1A201CC09C3C31131
:1048A00022A1447FCD09C3C4314489FE02CE0AC38C
:1048B000C431D924FA0B00CF0BC5C311128A58A6F4
:1048C0003F01D01299C3343625A14478920825427D
:1048D000894C6402D114C944759260440E0D538B07
:1048E000368A8824A119AB02D211C9447572881C7A
:1048F000A1A622E55522939500D310C944B562398B
:10490000424D45CAAB44262B01D412C9449571408F
:10491000248E505391F22A91C94A00D512C9447588
:104920009260448E505391F22A91C94A00D612C91E
:10493000445512A1440EAEA9487995C8642500D704
:104940000B86CC33143B80C40B00D8159944559585
:10495000884C22AC4548214AAC289149422400D9D0
:104960000FC8C45472801C28E44789484602DA0EF6
:10497000C8C494523950C88F12918C04DB0FC8C43C
:1049800094E1481C26E44789484602DC10C8C45418
:104990001299440E12F2A344242301DD0FC8C494DB
:1049A00052395045A48D2AD60D00DE0C96C413C290
:1049B0008A88D3452804DF0DA6453423895E2A2240
:1049C0004E1700E00C96453452396832E22429E152
:1049D0000C964574EAA0C98893A400E20C9645742D
:1049E000C1481CB2C44952E30D964554921439642F
:1049F0008993A400E40C964534BA0326234E920210
:104A0000E50EA64574C148300E9A8C38490AE60E68
:104A10006A4536878848441231A98E08E70D942DDF
:104A20003395914A64228B8800E80D95C53342394D
:104A30006022A1588404E90D95C57322396022A132
:104A4000588404EA0E95C553B1481C3091502C424D
:104A500002EB0D95C513128A7822A1588404EC0943
:104A600093C31122A1440FED0993C43144895E0020
:104A7000EE0993C431D9247A01EF0B95C311128A40
:104A800058A62700F00FA6455492982C12959C38F2
:104A9000492800F10D964554921439A022E24900AC
:104AA000F20D96453452398822E224A100F30C9687
:104AB0004574EA208A88938402F40E964574C148AE
:104AC0001C421171925000F50E964554921439848F
:104AD00022E224A100F60D964534BA0328224E1294
:104AE0000A00F70A634C12A15828160AF811664DFD
:104AF0005492A448282209454291880800F90C964E
:104B00004534523944C493A400FA0B964574EA1014
:104B1000114F9202FB0C964574C1481C20E2495289
:104B2000FC0A9645343A8B789214FD12C7AC93EA8E
:104B30002099442451A30D87C2A11000FE0ED62D4A
:104B400014428D1511A78B501100FF13C7AC334AC7
:104B5000123944261149D468C3A170280400000109
:104B60000013B9C474749438603C95082532A58B41
:104B7000942A01010C86453474C8122749010102A8
:104B800015C9C474A1B01C290E184F2542894CE9DF
:104B900022A50A01030E964534A1981C341971927E
:104BA00014010417C9AC9471C0782A114A644A17D9
:104BB00029550E8803E2200101050C962D344B9CEB
:104BC00024C5640101060FC74494EA40926CAAB35D
:104BD0002C44010107109545732239602289C8547D
:104BE000421300010C11C7447491681C48924D7522
:104BF00096852800010D0C94453349E1CA482532B9
:104C0000010E11C8C45491701C6A9249847C939817
:104C100000010F17A9459512A144280A4A4235916F
:104C20004C2413C944C21A0001101399C334362509
:104C3000A1447892082542894C6402011113A745CA
:104C4000945259515411494412914424AA0001121A
:104C50000EB6C43374C021A858112A1A01130C854A
:104C6000C533E4898462111201160FC6C453423958
:104C7000E41054AC08150D01170E95C55332396078
:104C800022A158840401180EC6AC1387A06245A85F
:104C9000684C1601190E96AD332389169294180D9F
:104CA0000B011A10C6C45391601C72082A56848ADC
:104CB00006011B0E95C5336971C84442B10809014C
:104CC0001E12B8C474A1A8B0241C2B19891299A86B
:104CD00002011F12C62D34A1981C34197192144779
:104CE000130A00012212C8AC5425E158C94894C8DF
:104CF0004475B03806012311C62D5451396832E28B
:104D000024298E261400012A0AB4C3115491FE02EC
:104D1000012B0A84C31154915E00012E0BC3AC1108
:104D200012FD251413012F0BC3AB318A12BDA40948
:104D3000013008B2C4111F0201310862C411870298
:104D4000013616C8AC14429A44A422234A64223580
:104D500089500E140701013711D6AD13429D281258
:104D60009244273944180301390CC6C453323948D8
:104D7000A81F0D013A0AC3C43114FD1700013B0DF1
:104D8000C6AC1342FD6887086300013C0AD2AC112F
:104D90000FA60900013D0D96C41322B65144A8D1B7
:104DA00000013E0DA5C41212A64944A637000141D8
:104DB0000E97C3335295D8502A9C4A0D01420BA43A
:104DC000C331224D265D00014313C944B562393415
:104DD0004C2DDA2822928466AC0A01440C96457464
:104DE000EA908A882701014515C92C15616AD146C8
:104DF0001191243463550E9603820001460D962DC1
:104E00001415114F72883006014715C94475913841
:104E1000200E0E538B368A8824A119AB0201480D4F
:104E200096455491601C5211F124014C10B94475FF
:104E300074704D45CAAB44262B01014D0D86453497
:104E4000740845C4494201015013C944951299445C
:104E50000EADA9487995C8642500015112974554B3
:104E600012ED20928A482292884424000152159D16
:104E70004457148B6C28154A85D28A5428551B53E5
:104E80000C01530F6A4536A38948441231A98E0894
:104E9000015415C744744239ACA422928824258950
:104EA000484524910901550C94C55212A98422D277
:104EB00004015616C72C1425159144242949442A67
:104EC00022894C0E93C60001570D94AD12128A48E8
:104ED0003B401402015816C7445491681C565211A5
:104EE0004944929244A42292C80401590D94C532B7
:104EF00049510945A40900015A10C6C473EA208A21
:104F00006C3824AE492800015B0B9445531271693B
:104F1000A902015E11C6AC3314D970485C93D0412C
:104F2000C21800015F0B942D33A5A5B228040160BF
:104F300012C6C45391601C44910D87C43509050005
:104F400001610C94453349E1D252050001620DC65E
:104F5000AC1326A17E8709630001630FB5AC523103
:104F60005145A6510E90C50001640EC6C453916010
:104F70001C6212EA270001650EA6C4924A9190AC09
:104F800024D42A02016A0FB8C4547498901F2522B1
:104F9000190900016B0C864534748088274901018A
:104FA0006E11D8C494E148380E14F2A344242301AE
:104FB000016F0EA64574C148300E11F1242901700D
:104FC00011C8C4741291440E12F2A34424230101A7
:104FD000711397455412ED109144241149441291D4
:104FE000A802017210C8AC14427E94886454711CEB
:104FF0002202017313972D142289482292882422B9
:1050000051351C0708017812C8C4541299440E1275
:105010004A44DAA862DD0001790FC8C4B4EAC0AB23
:10502000B254592A3D04017A0C96C473EA109BA22B
:105030004C66017B10C8C4946239F0AA2C55964A7C
:105040000F01017C0D96C4534239C4A6289319015F
:105050007D11C8C47491701C7A55962A4BA587009F
:10506000017E0E96C45391601C625394C90C019248
:105070000ED7ABB2425545A2AA4655000384082379
:10508000FD32140003850A37FB72224A4900038669
:105090001299C43492A0643C95082532A58B942AB9
:1050A00003870722DC11040388159AC03392434812
:1050B0000E9143E490AA1C2287C821060389169BFF
:1050C000C134448A5026940965879850269409650E
:1050D0004201038A0995C13116997E038C159B42C2
:1050E00035929244A62A928AA422A9482A532D01D5
:1050F000038E159BC1344492AA484C87C8417290D4
:105100001C2407C900038F149B4235929244A62A9F
:10511000928AA422A9482A535B03900EA7437222C5
:105120004A490E92EA2C0203911299449571C07873
:105130002A114A644A1729550003920E97441416FF
:1051400019DB49C676880003930A96C41387A07EAC
:105150000403941299C49471C0782A114A644A32A3
:1051600089F44003950C96C41387A06245A8680390
:10517000960D98C4345765A9B2547A0803970C98D1
:10518000C414428E8722470103981199445535155E
:1051900029CB844A95C864250003990892C4110F4D
:1051A00004039A1398C414429A44A422234A642202
:1051B00035895000039B1299C49471C0782A114A12
:1051C000644A3289942A039C169BC455D1A04CB6DC
:1051D000442151489289D28834A2C504039D119973
:1051E0004415616AD14611912434635500039E0B26
:1051F000974414772C752C07039F0E994455351549
:1052000029AF1299AC0403A00A98C41487217F1413
:1052100003A10D96C4131511D345A8110003A311C2
:1052200098441487881C2007C80152AD870003A446
:105230000A96C41326A17E0203A50E98C4144289BF
:10524000481B55AC1B0003A6129A4495629B4493DD
:10525000882422A968330B0103A71199C414528929
:105260004C453A5E95C854A40203A8149AC415226A
:1052700011494412914424156D6639440803A90E5E
:10528000994455351529AF1299643603AA0CC543C4
:1052900012128A58A63F0103AB12C8C45412994493
:1052A0000E124A44DAA862DD0003AC0C964574EA9B
:1052B000A01327490103AD11954573223960228956
:1052C0008C6492D0040003AE0DC62D74EA908A88D7
:1052D00027A10603AF0A93453244894E0203B01555
:1052E000A74574224A490E10494412914424118959
:1052F000480003B10A664534274E920203B20FD527
:10530000AD3313098B45C2C522530303B30D96ACCD
:10531000132292844413EA0403B40FA6455414A143
:105320005446117192500003B50B644533158A48F9
:10533000121903B60FB4351324894822D236924885
:105340000003B70B962D1415114F420D03B80EA58F
:10535000C5331309CB41C245320103B90963451274
:10536000129D0403BA0D66C513228A8424D1490014
:1053700003BB1097C43352B1543A9C4944123501CF
:1053800003BC0C962D14229E0E43450003BD0E67F0
:10539000C41332899244369CC60003BE11C53553EE
:1053A000134944269BC834D244120003BF0C6645FF
:1053B0003414112709050003C00E67451417258909
:1053C000482292881403C10D962D341411A78B50D6
:1053D000110003C20C843533256D2389040003C3F7
:1053E000106745348790442411494422120003C4B5
:1053F0000A64C4121491360103C50B664514229E3B
:1054000024140003C613D82C74628D16158A8422C6
:10541000A1A818C56A0003C71197AC13328992443A
:10542000365C9388246A0203C815D8AC74626D1286
:105430000945429150241415A3580D0003C9106862
:10544000453522899022A148289A240003CA0D9547
:105450004412128A58A6A3040003CB0C9645343A92
:105460008B7892500003CC0D964574EA208A88937D
:10547000840203CD0D964574EA10114F120A000301
:10548000CE1398459552395424115224140945934A
:10549000040004010EC6C4333A1F828A15A1A2017A
:1054A0000402159944155639400E90CC466A22994B
:1054B0004826924C0004030CC6C473EA9043503F44
:1054C0000204041097445424D9546A918A65210A2D
:1054D0000004050E96C43314D970485C9350000440
:1054E000060892C4110F0404070CC5C311128A5890
:1054F000A63F0104080994C452FAA9020409189CA1
:10550000C43657995426954965259948221349640C
:1055100022620500040A179B441632A14C2813CAC4
:105520008487894C4413D144B40A00040B13994472
:10553000155639400EB029C94432914C2413040C3D
:1055400015C8C4945239502611E922234A642235E1
:10555000895000040E12C8C454A972A08A481B7551
:105560002A960AA700040F0DB8B41442FE78984991
:10557000850004101299C49471C0782A114A644AB3
:105580001729550004110E97441416A9AA45C6768A
:10559000880004120E9744141619DB49C676880059
:1055A00004130A96C41387A07E0404140DB8B434FF
:1055B00026FD7F394CC50104150C96C41387A062E3
:1055C00045A8680416169CC416C29844A43789AA34
:1055D00055A2265291C986D10004170F96C4339460
:1055E0009850692A9C492800041811994415E22909
:1055F000B166925044B6225500041914C94475A1ED
:10560000B01C2A9E126B260945642B5205041A12FF
:1056100098C4143289481719512213A949840204E5
:105620001B1498C43417994426914964129944264E
:10563000911105041C15994435D1904C32BB1C22A4
:105640009609654299904202041D0C98C414428E3A
:1056500087224701041E0E994455351529AF12992A
:10566000AC04041F0A98C41487217F1404200D96EB
:10567000C4131511D345A8110004210D97445424D7
:10568000D9546759880204220A96C41326A17E02BF
:1056900004231098C4144289481B752A960AA7004F
:1056A0000424129AC495629B4493882422A96833E7
:1056B0000B0104251199441552894C453A5E95C851
:1056C00054A402042618B8B41432894C2293C82476
:1056D00032894C2293C82487B0540204270B974484
:1056E0001432DE24560D0428169A45162211494418
:1056F00012914424114944129144870204291CBA8E
:1057000035162289924449A2245192284994244A68
:1057100012C9610E91032400042A0D98C41464CDAB
:1057200035919E2A00042B1099C41552AE279284FD
:105730002421494E02042C0D964414428D1511D398
:105740000500042D10974434A498582AB14A6722C2
:105750001200042E169CC416B2929A449522BD5291
:10576000A414294926919500042F129744541591A9
:10577000442411894A122589882604300A66453452
:105780004B9C240504310EA6459422996245C449D8
:10579000420104320C65C51314894542B10004333B
:1057A0000964C512269D0004341177BC53B488489F
:1057B000229288249243340004350B65C5331309C3
:1057C000C5222404360E684515120945896651A183
:1057D0002804370B64451333894C540104380C6694
:1057E0004514B211C5429A09043910964534A1985E
:1057F0001C221B512CA49900043A0C65C513124AB3
:105800008922A108043B0F674434169144241149AE
:10581000443401043C10674434B1904424914C0E4C
:10582000958800043D0B66451422D261C424043ED1
:105830000C664534141127090500043F0A66451417
:1058400087104F0204400D962D14918988D345A8E6
:105850000804410B64453395914A640004420A668A
:10586000441326A14E0004431197AC13328948A279
:10587000461B0E85432100044413D82C74628D16F8
:10588000158A8422A1A818C56A0004450D67C413AF
:105890003289DA702651130446128735142289485A
:1058A0002292882422C951090004470B65C51312AE
:1058B00016094D0104481168C51512094542915059
:1058C0002414C9610004490D89B51512FD7F39887A
:1058D0009500044A0E67441454294D2292882800EA
:1058E000044B0E68451542A28922A1484C02044C83
:1058F0000C65C51332194542B100044D0C644513C3
:1059000093886434A900044E0F69C515228AD28990
:1059100022A2885800044F0B654433168A84621112
:105920000000204552524F523A2043616E6E6F7410
:10593000207265736F6C7665207469746C6520697C
:105940006E64657800008988268E11241FBECFEF13
:10595000D1E2DEBFCDBF00E00CBF15E0A0E0B2E0B9
:10596000E2EFF6E301E00BBF02C007900D92AA330D
:10597000B107D9F72EE0AAE3B5E001C01D92AC3122
:10598000B207E1F71CE2C4EADCE200E006C02197BE
:105990000109802FFE010E948597C33AD10780E05C
:1059A0000807A9F70E9496750C94689B0C94000058
:1059B0002F923F924F925F926F927F928F929F921F
:1059C000AF92BF92CF92DF92EF92FF920F931F930D
:1059D000CF93DF93CDB7DEB7C05ED1090FB6F89491
:1059E000DEBF0FBECDBF5C01DC0112968D919C9194
:1059F000139704960E944F6E1E01B1E82B0E311CC6
:105A0000809140058D3011F40C942D36A0F4843033
:105A100011F40C94AB3940F4813009F4D8C18230D0
:105A200011F40C94A9361EC08B3009F4F7C38C30E6
:105A300009F470C617C0833611F40C94BF3B48F4C8
:105A4000853111F40C940E38863111F40C94F83829
:105A500009C0853611F40C94A23B20F0895784309C
:105A600008F4BEC6F501178A609111027091120206
:105A700082819381B7EFEB2EBEE4FB2EDC011796FB
:105A8000FC92EE92169704960E94FE51823010F41A
:105A9000D5017AC1F501848D8430B8F48130F8F4F1
:105AA00081E0F501858B148A0684F785E02D02805C
:105AB000F381E02D1286D5015296ED91FC9153971A
:105AC000128683E2868B0C94DB3BD501883008F488
:105AD0009BC0883009F458C1148E0C94DB3BF5014F
